{
	"contracts/CallOtherContracts.sol": {
		"CallTestContract": {
			"abi": [
				{
					"inputs": [
						{
							"internalType": "contract TestContract",
							"name": "_test",
							"type": "address"
						}
					],
					"name": "getX",
					"outputs": [
						{
							"internalType": "uint256",
							"name": "x",
							"type": "uint256"
						}
					],
					"stateMutability": "view",
					"type": "function"
				},
				{
					"inputs": [
						{
							"internalType": "contract TestContract",
							"name": "_test",
							"type": "address"
						},
						{
							"internalType": "uint256",
							"name": "_x",
							"type": "uint256"
						}
					],
					"name": "setX",
					"outputs": [],
					"stateMutability": "nonpayable",
					"type": "function"
				}
			],
			"devdoc": {
				"kind": "dev",
				"methods": {},
				"version": 1
			},
			"evm": {
				"assembly": "    /* \"contracts/CallOtherContracts.sol\":60:288  contract CallTestContract {\r... */\n  mstore(0x40, 0x80)\n  callvalue\n  dup1\n  iszero\n  tag_1\n  jumpi\n  0x00\n  dup1\n  revert\ntag_1:\n  pop\n  dataSize(sub_0)\n  dup1\n  dataOffset(sub_0)\n  0x00\n  codecopy\n  0x00\n  return\nstop\n\nsub_0: assembly {\n        /* \"contracts/CallOtherContracts.sol\":60:288  contract CallTestContract {\r... */\n      mstore(0x40, 0x80)\n      callvalue\n      dup1\n      iszero\n      tag_1\n      jumpi\n      0x00\n      dup1\n      revert\n    tag_1:\n      pop\n      jumpi(tag_2, lt(calldatasize, 0x04))\n      shr(0xe0, calldataload(0x00))\n      dup1\n      0x4a2ad99f\n      eq\n      tag_3\n      jumpi\n      dup1\n      0x7c94c8ca\n      eq\n      tag_4\n      jumpi\n    tag_2:\n      0x00\n      dup1\n      revert\n        /* \"contracts/CallOtherContracts.sol\":93:177  function setX(TestContract _test, uint _x) external {\r... */\n    tag_3:\n      tag_5\n      0x04\n      dup1\n      calldatasize\n      sub\n      dup2\n      add\n      swap1\n      tag_6\n      swap2\n      swap1\n      tag_7\n      jump\t// in\n    tag_6:\n      tag_8\n      jump\t// in\n    tag_5:\n      stop\n        /* \"contracts/CallOtherContracts.sol\":185:285  function getX(TestContract _test) external view returns (uint x) {\r... */\n    tag_4:\n      tag_9\n      0x04\n      dup1\n      calldatasize\n      sub\n      dup2\n      add\n      swap1\n      tag_10\n      swap2\n      swap1\n      tag_11\n      jump\t// in\n    tag_10:\n      tag_12\n      jump\t// in\n    tag_9:\n      mload(0x40)\n      tag_13\n      swap2\n      swap1\n      tag_14\n      jump\t// in\n    tag_13:\n      mload(0x40)\n      dup1\n      swap2\n      sub\n      swap1\n      return\n        /* \"contracts/CallOtherContracts.sol\":93:177  function setX(TestContract _test, uint _x) external {\r... */\n    tag_8:\n        /* \"contracts/CallOtherContracts.sol\":155:160  _test */\n      dup2\n        /* \"contracts/CallOtherContracts.sol\":155:165  _test.setX */\n      0xffffffffffffffffffffffffffffffffffffffff\n      and\n      0x4018d9aa\n        /* \"contracts/CallOtherContracts.sol\":166:168  _x */\n      dup3\n        /* \"contracts/CallOtherContracts.sol\":155:169  _test.setX(_x) */\n      mload(0x40)\n      dup3\n      0xffffffff\n      and\n      0xe0\n      shl\n      dup2\n      mstore\n      0x04\n      add\n      tag_16\n      swap2\n      swap1\n      tag_14\n      jump\t// in\n    tag_16:\n      0x00\n      mload(0x40)\n      dup1\n      dup4\n      sub\n      dup2\n      0x00\n      dup8\n      dup1\n      extcodesize\n      iszero\n      dup1\n      iszero\n      tag_17\n      jumpi\n      0x00\n      dup1\n      revert\n    tag_17:\n      pop\n      gas\n      call\n      iszero\n      dup1\n      iszero\n      tag_19\n      jumpi\n      returndatasize\n      0x00\n      dup1\n      returndatacopy\n      revert(0x00, returndatasize)\n    tag_19:\n      pop\n      pop\n      pop\n      pop\n        /* \"contracts/CallOtherContracts.sol\":93:177  function setX(TestContract _test, uint _x) external {\r... */\n      pop\n      pop\n      jump\t// out\n        /* \"contracts/CallOtherContracts.sol\":185:285  function getX(TestContract _test) external view returns (uint x) {\r... */\n    tag_12:\n        /* \"contracts/CallOtherContracts.sol\":242:248  uint x */\n      0x00\n        /* \"contracts/CallOtherContracts.sol\":265:270  _test */\n      dup2\n        /* \"contracts/CallOtherContracts.sol\":265:275  _test.getX */\n      0xffffffffffffffffffffffffffffffffffffffff\n      and\n      0x5197c7aa\n        /* \"contracts/CallOtherContracts.sol\":265:277  _test.getX() */\n      mload(0x40)\n      dup2\n      0xffffffff\n      and\n      0xe0\n      shl\n      dup2\n      mstore\n      0x04\n      add\n      0x20\n      mload(0x40)\n      dup1\n      dup4\n      sub\n      dup2\n      dup7\n      dup1\n      extcodesize\n      iszero\n      dup1\n      iszero\n      tag_21\n      jumpi\n      0x00\n      dup1\n      revert\n    tag_21:\n      pop\n      gas\n      staticcall\n      iszero\n      dup1\n      iszero\n      tag_23\n      jumpi\n      returndatasize\n      0x00\n      dup1\n      returndatacopy\n      revert(0x00, returndatasize)\n    tag_23:\n      pop\n      pop\n      pop\n      pop\n      mload(0x40)\n      returndatasize\n      not(0x1f)\n      0x1f\n      dup3\n      add\n      and\n      dup3\n      add\n      dup1\n      0x40\n      mstore\n      pop\n      dup2\n      add\n      swap1\n      tag_24\n      swap2\n      swap1\n      tag_25\n      jump\t// in\n    tag_24:\n        /* \"contracts/CallOtherContracts.sol\":261:277  x = _test.getX() */\n      swap1\n      pop\n        /* \"contracts/CallOtherContracts.sol\":185:285  function getX(TestContract _test) external view returns (uint x) {\r... */\n      swap2\n      swap1\n      pop\n      jump\t// out\n        /* \"#utility.yul\":7:184   */\n    tag_27:\n        /* \"#utility.yul\":72:77   */\n      0x00\n        /* \"#utility.yul\":110:116   */\n      dup2\n        /* \"#utility.yul\":97:117   */\n      calldataload\n        /* \"#utility.yul\":88:117   */\n      swap1\n      pop\n        /* \"#utility.yul\":126:178   */\n      tag_29\n        /* \"#utility.yul\":172:177   */\n      dup2\n        /* \"#utility.yul\":126:178   */\n      tag_30\n      jump\t// in\n    tag_29:\n        /* \"#utility.yul\":7:184   */\n      swap3\n      swap2\n      pop\n      pop\n      jump\t// out\n        /* \"#utility.yul\":190:329   */\n    tag_31:\n        /* \"#utility.yul\":236:241   */\n      0x00\n        /* \"#utility.yul\":274:280   */\n      dup2\n        /* \"#utility.yul\":261:281   */\n      calldataload\n        /* \"#utility.yul\":252:281   */\n      swap1\n      pop\n        /* \"#utility.yul\":290:323   */\n      tag_33\n        /* \"#utility.yul\":317:322   */\n      dup2\n        /* \"#utility.yul\":290:323   */\n      tag_34\n      jump\t// in\n    tag_33:\n        /* \"#utility.yul\":190:329   */\n      swap3\n      swap2\n      pop\n      pop\n      jump\t// out\n        /* \"#utility.yul\":335:478   */\n    tag_35:\n        /* \"#utility.yul\":392:397   */\n      0x00\n        /* \"#utility.yul\":423:429   */\n      dup2\n        /* \"#utility.yul\":417:430   */\n      mload\n        /* \"#utility.yul\":408:430   */\n      swap1\n      pop\n        /* \"#utility.yul\":439:472   */\n      tag_37\n        /* \"#utility.yul\":466:471   */\n      dup2\n        /* \"#utility.yul\":439:472   */\n      tag_34\n      jump\t// in\n    tag_37:\n        /* \"#utility.yul\":335:478   */\n      swap3\n      swap2\n      pop\n      pop\n      jump\t// out\n        /* \"#utility.yul\":484:851   */\n    tag_11:\n        /* \"#utility.yul\":562:568   */\n      0x00\n        /* \"#utility.yul\":611:613   */\n      0x20\n        /* \"#utility.yul\":599:608   */\n      dup3\n        /* \"#utility.yul\":590:597   */\n      dup5\n        /* \"#utility.yul\":586:609   */\n      sub\n        /* \"#utility.yul\":582:614   */\n      slt\n        /* \"#utility.yul\":579:698   */\n      iszero\n      tag_39\n      jumpi\n        /* \"#utility.yul\":617:696   */\n      tag_40\n      tag_41\n      jump\t// in\n    tag_40:\n        /* \"#utility.yul\":579:698   */\n    tag_39:\n        /* \"#utility.yul\":737:738   */\n      0x00\n        /* \"#utility.yul\":762:834   */\n      tag_42\n        /* \"#utility.yul\":826:833   */\n      dup5\n        /* \"#utility.yul\":817:823   */\n      dup3\n        /* \"#utility.yul\":806:815   */\n      dup6\n        /* \"#utility.yul\":802:824   */\n      add\n        /* \"#utility.yul\":762:834   */\n      tag_27\n      jump\t// in\n    tag_42:\n        /* \"#utility.yul\":752:834   */\n      swap2\n      pop\n        /* \"#utility.yul\":708:844   */\n      pop\n        /* \"#utility.yul\":484:851   */\n      swap3\n      swap2\n      pop\n      pop\n      jump\t// out\n        /* \"#utility.yul\":857:1369   */\n    tag_7:\n        /* \"#utility.yul\":944:950   */\n      0x00\n        /* \"#utility.yul\":952:958   */\n      dup1\n        /* \"#utility.yul\":1001:1003   */\n      0x40\n        /* \"#utility.yul\":989:998   */\n      dup4\n        /* \"#utility.yul\":980:987   */\n      dup6\n        /* \"#utility.yul\":976:999   */\n      sub\n        /* \"#utility.yul\":972:1004   */\n      slt\n        /* \"#utility.yul\":969:1088   */\n      iszero\n      tag_44\n      jumpi\n        /* \"#utility.yul\":1007:1086   */\n      tag_45\n      tag_41\n      jump\t// in\n    tag_45:\n        /* \"#utility.yul\":969:1088   */\n    tag_44:\n        /* \"#utility.yul\":1127:1128   */\n      0x00\n        /* \"#utility.yul\":1152:1224   */\n      tag_46\n        /* \"#utility.yul\":1216:1223   */\n      dup6\n        /* \"#utility.yul\":1207:1213   */\n      dup3\n        /* \"#utility.yul\":1196:1205   */\n      dup7\n        /* \"#utility.yul\":1192:1214   */\n      add\n        /* \"#utility.yul\":1152:1224   */\n      tag_27\n      jump\t// in\n    tag_46:\n        /* \"#utility.yul\":1142:1224   */\n      swap3\n      pop\n        /* \"#utility.yul\":1098:1234   */\n      pop\n        /* \"#utility.yul\":1273:1275   */\n      0x20\n        /* \"#utility.yul\":1299:1352   */\n      tag_47\n        /* \"#utility.yul\":1344:1351   */\n      dup6\n        /* \"#utility.yul\":1335:1341   */\n      dup3\n        /* \"#utility.yul\":1324:1333   */\n      dup7\n        /* \"#utility.yul\":1320:1342   */\n      add\n        /* \"#utility.yul\":1299:1352   */\n      tag_31\n      jump\t// in\n    tag_47:\n        /* \"#utility.yul\":1289:1352   */\n      swap2\n      pop\n        /* \"#utility.yul\":1244:1362   */\n      pop\n        /* \"#utility.yul\":857:1369   */\n      swap3\n      pop\n      swap3\n      swap1\n      pop\n      jump\t// out\n        /* \"#utility.yul\":1375:1726   */\n    tag_25:\n        /* \"#utility.yul\":1445:1451   */\n      0x00\n        /* \"#utility.yul\":1494:1496   */\n      0x20\n        /* \"#utility.yul\":1482:1491   */\n      dup3\n        /* \"#utility.yul\":1473:1480   */\n      dup5\n        /* \"#utility.yul\":1469:1492   */\n      sub\n        /* \"#utility.yul\":1465:1497   */\n      slt\n        /* \"#utility.yul\":1462:1581   */\n      iszero\n      tag_49\n      jumpi\n        /* \"#utility.yul\":1500:1579   */\n      tag_50\n      tag_41\n      jump\t// in\n    tag_50:\n        /* \"#utility.yul\":1462:1581   */\n    tag_49:\n        /* \"#utility.yul\":1620:1621   */\n      0x00\n        /* \"#utility.yul\":1645:1709   */\n      tag_51\n        /* \"#utility.yul\":1701:1708   */\n      dup5\n        /* \"#utility.yul\":1692:1698   */\n      dup3\n        /* \"#utility.yul\":1681:1690   */\n      dup6\n        /* \"#utility.yul\":1677:1699   */\n      add\n        /* \"#utility.yul\":1645:1709   */\n      tag_35\n      jump\t// in\n    tag_51:\n        /* \"#utility.yul\":1635:1709   */\n      swap2\n      pop\n        /* \"#utility.yul\":1591:1719   */\n      pop\n        /* \"#utility.yul\":1375:1726   */\n      swap3\n      swap2\n      pop\n      pop\n      jump\t// out\n        /* \"#utility.yul\":1732:1850   */\n    tag_52:\n        /* \"#utility.yul\":1819:1843   */\n      tag_54\n        /* \"#utility.yul\":1837:1842   */\n      dup2\n        /* \"#utility.yul\":1819:1843   */\n      tag_55\n      jump\t// in\n    tag_54:\n        /* \"#utility.yul\":1814:1817   */\n      dup3\n        /* \"#utility.yul\":1807:1844   */\n      mstore\n        /* \"#utility.yul\":1732:1850   */\n      pop\n      pop\n      jump\t// out\n        /* \"#utility.yul\":1856:2078   */\n    tag_14:\n        /* \"#utility.yul\":1949:1953   */\n      0x00\n        /* \"#utility.yul\":1987:1989   */\n      0x20\n        /* \"#utility.yul\":1976:1985   */\n      dup3\n        /* \"#utility.yul\":1972:1990   */\n      add\n        /* \"#utility.yul\":1964:1990   */\n      swap1\n      pop\n        /* \"#utility.yul\":2000:2071   */\n      tag_57\n        /* \"#utility.yul\":2068:2069   */\n      0x00\n        /* \"#utility.yul\":2057:2066   */\n      dup4\n        /* \"#utility.yul\":2053:2070   */\n      add\n        /* \"#utility.yul\":2044:2050   */\n      dup5\n        /* \"#utility.yul\":2000:2071   */\n      tag_52\n      jump\t// in\n    tag_57:\n        /* \"#utility.yul\":1856:2078   */\n      swap3\n      swap2\n      pop\n      pop\n      jump\t// out\n        /* \"#utility.yul\":2165:2261   */\n    tag_60:\n        /* \"#utility.yul\":2202:2209   */\n      0x00\n        /* \"#utility.yul\":2231:2255   */\n      tag_62\n        /* \"#utility.yul\":2249:2254   */\n      dup3\n        /* \"#utility.yul\":2231:2255   */\n      tag_63\n      jump\t// in\n    tag_62:\n        /* \"#utility.yul\":2220:2255   */\n      swap1\n      pop\n        /* \"#utility.yul\":2165:2261   */\n      swap2\n      swap1\n      pop\n      jump\t// out\n        /* \"#utility.yul\":2267:2382   */\n    tag_64:\n        /* \"#utility.yul\":2323:2330   */\n      0x00\n        /* \"#utility.yul\":2352:2376   */\n      tag_66\n        /* \"#utility.yul\":2370:2375   */\n      dup3\n        /* \"#utility.yul\":2352:2376   */\n      tag_60\n      jump\t// in\n    tag_66:\n        /* \"#utility.yul\":2341:2376   */\n      swap1\n      pop\n        /* \"#utility.yul\":2267:2382   */\n      swap2\n      swap1\n      pop\n      jump\t// out\n        /* \"#utility.yul\":2388:2514   */\n    tag_63:\n        /* \"#utility.yul\":2425:2432   */\n      0x00\n        /* \"#utility.yul\":2465:2507   */\n      0xffffffffffffffffffffffffffffffffffffffff\n        /* \"#utility.yul\":2458:2463   */\n      dup3\n        /* \"#utility.yul\":2454:2508   */\n      and\n        /* \"#utility.yul\":2443:2508   */\n      swap1\n      pop\n        /* \"#utility.yul\":2388:2514   */\n      swap2\n      swap1\n      pop\n      jump\t// out\n        /* \"#utility.yul\":2520:2597   */\n    tag_55:\n        /* \"#utility.yul\":2557:2564   */\n      0x00\n        /* \"#utility.yul\":2586:2591   */\n      dup2\n        /* \"#utility.yul\":2575:2591   */\n      swap1\n      pop\n        /* \"#utility.yul\":2520:2597   */\n      swap2\n      swap1\n      pop\n      jump\t// out\n        /* \"#utility.yul\":2726:2843   */\n    tag_41:\n        /* \"#utility.yul\":2835:2836   */\n      0x00\n        /* \"#utility.yul\":2832:2833   */\n      dup1\n        /* \"#utility.yul\":2825:2837   */\n      revert\n        /* \"#utility.yul\":2849:3009   */\n    tag_30:\n        /* \"#utility.yul\":2941:2984   */\n      tag_73\n        /* \"#utility.yul\":2978:2983   */\n      dup2\n        /* \"#utility.yul\":2941:2984   */\n      tag_64\n      jump\t// in\n    tag_73:\n        /* \"#utility.yul\":2934:2939   */\n      dup2\n        /* \"#utility.yul\":2931:2985   */\n      eq\n        /* \"#utility.yul\":2921:3003   */\n      tag_74\n      jumpi\n        /* \"#utility.yul\":2999:3000   */\n      0x00\n        /* \"#utility.yul\":2996:2997   */\n      dup1\n        /* \"#utility.yul\":2989:3001   */\n      revert\n        /* \"#utility.yul\":2921:3003   */\n    tag_74:\n        /* \"#utility.yul\":2849:3009   */\n      pop\n      jump\t// out\n        /* \"#utility.yul\":3015:3137   */\n    tag_34:\n        /* \"#utility.yul\":3088:3112   */\n      tag_76\n        /* \"#utility.yul\":3106:3111   */\n      dup2\n        /* \"#utility.yul\":3088:3112   */\n      tag_55\n      jump\t// in\n    tag_76:\n        /* \"#utility.yul\":3081:3086   */\n      dup2\n        /* \"#utility.yul\":3078:3113   */\n      eq\n        /* \"#utility.yul\":3068:3131   */\n      tag_77\n      jumpi\n        /* \"#utility.yul\":3127:3128   */\n      0x00\n        /* \"#utility.yul\":3124:3125   */\n      dup1\n        /* \"#utility.yul\":3117:3129   */\n      revert\n        /* \"#utility.yul\":3068:3131   */\n    tag_77:\n        /* \"#utility.yul\":3015:3137   */\n      pop\n      jump\t// out\n\n    auxdata: 0xa2646970667358221220c3ae0c402c9dbcfbde6234028866ecd49f26185de950a57ab3381566585ead7664736f6c63430008070033\n}\n",
				"bytecode": {
					"linkReferences": {},
					"object": "608060405234801561001057600080fd5b50610337806100206000396000f3fe608060405234801561001057600080fd5b50600436106100365760003560e01c80634a2ad99f1461003b5780637c94c8ca14610057575b600080fd5b610055600480360381019061005091906101e9565b610087565b005b610071600480360381019061006c91906101bc565b6100f6565b60405161007e9190610265565b60405180910390f35b8173ffffffffffffffffffffffffffffffffffffffff16634018d9aa826040518263ffffffff1660e01b81526004016100c09190610265565b600060405180830381600087803b1580156100da57600080fd5b505af11580156100ee573d6000803e3d6000fd5b505050505050565b60008173ffffffffffffffffffffffffffffffffffffffff16635197c7aa6040518163ffffffff1660e01b815260040160206040518083038186803b15801561013e57600080fd5b505afa158015610152573d6000803e3d6000fd5b505050506040513d601f19601f820116820180604052508101906101769190610229565b9050919050565b60008135905061018c816102d3565b92915050565b6000813590506101a1816102ea565b92915050565b6000815190506101b6816102ea565b92915050565b6000602082840312156101d2576101d16102ce565b5b60006101e08482850161017d565b91505092915050565b60008060408385031215610200576101ff6102ce565b5b600061020e8582860161017d565b925050602061021f85828601610192565b9150509250929050565b60006020828403121561023f5761023e6102ce565b5b600061024d848285016101a7565b91505092915050565b61025f816102c4565b82525050565b600060208201905061027a6000830184610256565b92915050565b600061028b826102a4565b9050919050565b600061029d82610280565b9050919050565b600073ffffffffffffffffffffffffffffffffffffffff82169050919050565b6000819050919050565b600080fd5b6102dc81610292565b81146102e757600080fd5b50565b6102f3816102c4565b81146102fe57600080fd5b5056fea2646970667358221220c3ae0c402c9dbcfbde6234028866ecd49f26185de950a57ab3381566585ead7664736f6c63430008070033",
					"opcodes": "PUSH1 0x80 PUSH1 0x40 MSTORE CALLVALUE DUP1 ISZERO PUSH2 0x10 JUMPI PUSH1 0x0 DUP1 REVERT JUMPDEST POP PUSH2 0x337 DUP1 PUSH2 0x20 PUSH1 0x0 CODECOPY PUSH1 0x0 RETURN INVALID PUSH1 0x80 PUSH1 0x40 MSTORE CALLVALUE DUP1 ISZERO PUSH2 0x10 JUMPI PUSH1 0x0 DUP1 REVERT JUMPDEST POP PUSH1 0x4 CALLDATASIZE LT PUSH2 0x36 JUMPI PUSH1 0x0 CALLDATALOAD PUSH1 0xE0 SHR DUP1 PUSH4 0x4A2AD99F EQ PUSH2 0x3B JUMPI DUP1 PUSH4 0x7C94C8CA EQ PUSH2 0x57 JUMPI JUMPDEST PUSH1 0x0 DUP1 REVERT JUMPDEST PUSH2 0x55 PUSH1 0x4 DUP1 CALLDATASIZE SUB DUP2 ADD SWAP1 PUSH2 0x50 SWAP2 SWAP1 PUSH2 0x1E9 JUMP JUMPDEST PUSH2 0x87 JUMP JUMPDEST STOP JUMPDEST PUSH2 0x71 PUSH1 0x4 DUP1 CALLDATASIZE SUB DUP2 ADD SWAP1 PUSH2 0x6C SWAP2 SWAP1 PUSH2 0x1BC JUMP JUMPDEST PUSH2 0xF6 JUMP JUMPDEST PUSH1 0x40 MLOAD PUSH2 0x7E SWAP2 SWAP1 PUSH2 0x265 JUMP JUMPDEST PUSH1 0x40 MLOAD DUP1 SWAP2 SUB SWAP1 RETURN JUMPDEST DUP2 PUSH20 0xFFFFFFFFFFFFFFFFFFFFFFFFFFFFFFFFFFFFFFFF AND PUSH4 0x4018D9AA DUP3 PUSH1 0x40 MLOAD DUP3 PUSH4 0xFFFFFFFF AND PUSH1 0xE0 SHL DUP2 MSTORE PUSH1 0x4 ADD PUSH2 0xC0 SWAP2 SWAP1 PUSH2 0x265 JUMP JUMPDEST PUSH1 0x0 PUSH1 0x40 MLOAD DUP1 DUP4 SUB DUP2 PUSH1 0x0 DUP8 DUP1 EXTCODESIZE ISZERO DUP1 ISZERO PUSH2 0xDA JUMPI PUSH1 0x0 DUP1 REVERT JUMPDEST POP GAS CALL ISZERO DUP1 ISZERO PUSH2 0xEE JUMPI RETURNDATASIZE PUSH1 0x0 DUP1 RETURNDATACOPY RETURNDATASIZE PUSH1 0x0 REVERT JUMPDEST POP POP POP POP POP POP JUMP JUMPDEST PUSH1 0x0 DUP2 PUSH20 0xFFFFFFFFFFFFFFFFFFFFFFFFFFFFFFFFFFFFFFFF AND PUSH4 0x5197C7AA PUSH1 0x40 MLOAD DUP2 PUSH4 0xFFFFFFFF AND PUSH1 0xE0 SHL DUP2 MSTORE PUSH1 0x4 ADD PUSH1 0x20 PUSH1 0x40 MLOAD DUP1 DUP4 SUB DUP2 DUP7 DUP1 EXTCODESIZE ISZERO DUP1 ISZERO PUSH2 0x13E JUMPI PUSH1 0x0 DUP1 REVERT JUMPDEST POP GAS STATICCALL ISZERO DUP1 ISZERO PUSH2 0x152 JUMPI RETURNDATASIZE PUSH1 0x0 DUP1 RETURNDATACOPY RETURNDATASIZE PUSH1 0x0 REVERT JUMPDEST POP POP POP POP PUSH1 0x40 MLOAD RETURNDATASIZE PUSH1 0x1F NOT PUSH1 0x1F DUP3 ADD AND DUP3 ADD DUP1 PUSH1 0x40 MSTORE POP DUP2 ADD SWAP1 PUSH2 0x176 SWAP2 SWAP1 PUSH2 0x229 JUMP JUMPDEST SWAP1 POP SWAP2 SWAP1 POP JUMP JUMPDEST PUSH1 0x0 DUP2 CALLDATALOAD SWAP1 POP PUSH2 0x18C DUP2 PUSH2 0x2D3 JUMP JUMPDEST SWAP3 SWAP2 POP POP JUMP JUMPDEST PUSH1 0x0 DUP2 CALLDATALOAD SWAP1 POP PUSH2 0x1A1 DUP2 PUSH2 0x2EA JUMP JUMPDEST SWAP3 SWAP2 POP POP JUMP JUMPDEST PUSH1 0x0 DUP2 MLOAD SWAP1 POP PUSH2 0x1B6 DUP2 PUSH2 0x2EA JUMP JUMPDEST SWAP3 SWAP2 POP POP JUMP JUMPDEST PUSH1 0x0 PUSH1 0x20 DUP3 DUP5 SUB SLT ISZERO PUSH2 0x1D2 JUMPI PUSH2 0x1D1 PUSH2 0x2CE JUMP JUMPDEST JUMPDEST PUSH1 0x0 PUSH2 0x1E0 DUP5 DUP3 DUP6 ADD PUSH2 0x17D JUMP JUMPDEST SWAP2 POP POP SWAP3 SWAP2 POP POP JUMP JUMPDEST PUSH1 0x0 DUP1 PUSH1 0x40 DUP4 DUP6 SUB SLT ISZERO PUSH2 0x200 JUMPI PUSH2 0x1FF PUSH2 0x2CE JUMP JUMPDEST JUMPDEST PUSH1 0x0 PUSH2 0x20E DUP6 DUP3 DUP7 ADD PUSH2 0x17D JUMP JUMPDEST SWAP3 POP POP PUSH1 0x20 PUSH2 0x21F DUP6 DUP3 DUP7 ADD PUSH2 0x192 JUMP JUMPDEST SWAP2 POP POP SWAP3 POP SWAP3 SWAP1 POP JUMP JUMPDEST PUSH1 0x0 PUSH1 0x20 DUP3 DUP5 SUB SLT ISZERO PUSH2 0x23F JUMPI PUSH2 0x23E PUSH2 0x2CE JUMP JUMPDEST JUMPDEST PUSH1 0x0 PUSH2 0x24D DUP5 DUP3 DUP6 ADD PUSH2 0x1A7 JUMP JUMPDEST SWAP2 POP POP SWAP3 SWAP2 POP POP JUMP JUMPDEST PUSH2 0x25F DUP2 PUSH2 0x2C4 JUMP JUMPDEST DUP3 MSTORE POP POP JUMP JUMPDEST PUSH1 0x0 PUSH1 0x20 DUP3 ADD SWAP1 POP PUSH2 0x27A PUSH1 0x0 DUP4 ADD DUP5 PUSH2 0x256 JUMP JUMPDEST SWAP3 SWAP2 POP POP JUMP JUMPDEST PUSH1 0x0 PUSH2 0x28B DUP3 PUSH2 0x2A4 JUMP JUMPDEST SWAP1 POP SWAP2 SWAP1 POP JUMP JUMPDEST PUSH1 0x0 PUSH2 0x29D DUP3 PUSH2 0x280 JUMP JUMPDEST SWAP1 POP SWAP2 SWAP1 POP JUMP JUMPDEST PUSH1 0x0 PUSH20 0xFFFFFFFFFFFFFFFFFFFFFFFFFFFFFFFFFFFFFFFF DUP3 AND SWAP1 POP SWAP2 SWAP1 POP JUMP JUMPDEST PUSH1 0x0 DUP2 SWAP1 POP SWAP2 SWAP1 POP JUMP JUMPDEST PUSH1 0x0 DUP1 REVERT JUMPDEST PUSH2 0x2DC DUP2 PUSH2 0x292 JUMP JUMPDEST DUP2 EQ PUSH2 0x2E7 JUMPI PUSH1 0x0 DUP1 REVERT JUMPDEST POP JUMP JUMPDEST PUSH2 0x2F3 DUP2 PUSH2 0x2C4 JUMP JUMPDEST DUP2 EQ PUSH2 0x2FE JUMPI PUSH1 0x0 DUP1 REVERT JUMPDEST POP JUMP INVALID LOG2 PUSH5 0x6970667358 0x22 SLT KECCAK256 0xC3 0xAE 0xC BLOCKHASH 0x2C SWAP14 0xBC 0xFB 0xDE PUSH3 0x340288 PUSH7 0xECD49F26185DE9 POP 0xA5 PUSH27 0xB3381566585EAD7664736F6C634300080700330000000000000000 "
				},
				"gasEstimates": {
					"creation": {
						"codeDepositCost": "164600",
						"executionCost": "208",
						"totalCost": "164808"
					},
					"external": {
						"getX(address)": "infinite",
						"setX(address,uint256)": "infinite"
					}
				},
				"methodIdentifiers": {
					"getX(address)": "7c94c8ca",
					"setX(address,uint256)": "4a2ad99f"
				}
			},
			"storageLayout": {
				"storage": [],
				"types": null
			},
			"userdoc": {
				"kind": "user",
				"methods": {},
				"version": 1
			}
		}
	}
}