{
	"contracts/DataLocations.sol": {
		"DataLocations": {
			"abi": [
				{
					"inputs": [
						{
							"internalType": "uint256[]",
							"name": "",
							"type": "uint256[]"
						}
					],
					"name": "examples",
					"outputs": [],
					"stateMutability": "nonpayable",
					"type": "function"
				},
				{
					"inputs": [
						{
							"internalType": "address",
							"name": "",
							"type": "address"
						}
					],
					"name": "myStructs",
					"outputs": [
						{
							"internalType": "uint256",
							"name": "foo",
							"type": "uint256"
						},
						{
							"internalType": "string",
							"name": "text",
							"type": "string"
						}
					],
					"stateMutability": "view",
					"type": "function"
				}
			],
			"devdoc": {
				"kind": "dev",
				"methods": {},
				"version": 1
			},
			"evm": {
				"assembly": "    /* \"contracts/DataLocations.sol\":279:841  contract DataLocations {\r... */\n  mstore(0x40, 0x80)\n  callvalue\n  dup1\n  iszero\n  tag_1\n  jumpi\n  0x00\n  dup1\n  revert\ntag_1:\n  pop\n  dataSize(sub_0)\n  dup1\n  dataOffset(sub_0)\n  0x00\n  codecopy\n  0x00\n  return\nstop\n\nsub_0: assembly {\n        /* \"contracts/DataLocations.sol\":279:841  contract DataLocations {\r... */\n      mstore(0x40, 0x80)\n      callvalue\n      dup1\n      iszero\n      tag_1\n      jumpi\n      0x00\n      dup1\n      revert\n    tag_1:\n      pop\n      jumpi(tag_2, lt(calldatasize, 0x04))\n      shr(0xe0, calldataload(0x00))\n      dup1\n      0x4fd58b19\n      eq\n      tag_3\n      jumpi\n      dup1\n      0xb43c5d33\n      eq\n      tag_4\n      jumpi\n    tag_2:\n      0x00\n      dup1\n      revert\n        /* \"contracts/DataLocations.sol\":437:838  function examples(uint[] memory ) external {\r... */\n    tag_3:\n      tag_5\n      0x04\n      dup1\n      calldatasize\n      sub\n      dup2\n      add\n      swap1\n      tag_6\n      swap2\n      swap1\n      tag_7\n      jump\t// in\n    tag_6:\n      tag_8\n      jump\t// in\n    tag_5:\n      stop\n        /* \"contracts/DataLocations.sol\":382:427  mapping(address => MyStruct) public myStructs */\n    tag_4:\n      tag_9\n      0x04\n      dup1\n      calldatasize\n      sub\n      dup2\n      add\n      swap1\n      tag_10\n      swap2\n      swap1\n      tag_11\n      jump\t// in\n    tag_10:\n      tag_12\n      jump\t// in\n    tag_9:\n      mload(0x40)\n      tag_13\n      swap3\n      swap2\n      swap1\n      tag_14\n      jump\t// in\n    tag_13:\n      mload(0x40)\n      dup1\n      swap2\n      sub\n      swap1\n      return\n        /* \"contracts/DataLocations.sol\":437:838  function examples(uint[] memory ) external {\r... */\n    tag_8:\n        /* \"contracts/DataLocations.sol\":515:548  MyStruct({foo: 123, text: \"bar\"}) */\n      mload(0x40)\n      dup1\n      0x40\n      add\n      0x40\n      mstore\n      dup1\n        /* \"contracts/DataLocations.sol\":530:533  123 */\n      0x7b\n        /* \"contracts/DataLocations.sol\":515:548  MyStruct({foo: 123, text: \"bar\"}) */\n      dup2\n      mstore\n      0x20\n      add\n      mload(0x40)\n      dup1\n      0x40\n      add\n      0x40\n      mstore\n      dup1\n      0x03\n      dup2\n      mstore\n      0x20\n      add\n      0x6261720000000000000000000000000000000000000000000000000000000000\n      dup2\n      mstore\n      pop\n      dup2\n      mstore\n      pop\n        /* \"contracts/DataLocations.sol\":491:500  myStructs */\n      0x00\n        /* \"contracts/DataLocations.sol\":491:512  myStructs[msg.sender] */\n      dup1\n        /* \"contracts/DataLocations.sol\":501:511  msg.sender */\n      caller\n        /* \"contracts/DataLocations.sol\":491:512  myStructs[msg.sender] */\n      0xffffffffffffffffffffffffffffffffffffffff\n      and\n      0xffffffffffffffffffffffffffffffffffffffff\n      and\n      dup2\n      mstore\n      0x20\n      add\n      swap1\n      dup2\n      mstore\n      0x20\n      add\n      0x00\n      keccak256\n        /* \"contracts/DataLocations.sol\":491:548  myStructs[msg.sender] = MyStruct({foo: 123, text: \"bar\"}) */\n      0x00\n      dup3\n      add\n      mload\n      dup2\n      0x00\n      add\n      sstore\n      0x20\n      dup3\n      add\n      mload\n      dup2\n      0x01\n      add\n      swap1\n      dup1\n      mload\n      swap1\n      0x20\n      add\n      swap1\n      tag_16\n      swap3\n      swap2\n      swap1\n      tag_17\n      jump\t// in\n    tag_16:\n      pop\n      swap1\n      pop\n      pop\n        /* \"contracts/DataLocations.sol\":561:586  MyStruct storage myStruct */\n      0x00\n        /* \"contracts/DataLocations.sol\":589:598  myStructs */\n      dup1\n        /* \"contracts/DataLocations.sol\":589:610  myStructs[msg.sender] */\n      0x00\n        /* \"contracts/DataLocations.sol\":599:609  msg.sender */\n      caller\n        /* \"contracts/DataLocations.sol\":589:610  myStructs[msg.sender] */\n      0xffffffffffffffffffffffffffffffffffffffff\n      and\n      0xffffffffffffffffffffffffffffffffffffffff\n      and\n      dup2\n      mstore\n      0x20\n      add\n      swap1\n      dup2\n      mstore\n      0x20\n      add\n      0x00\n      keccak256\n        /* \"contracts/DataLocations.sol\":561:610  MyStruct storage myStruct = myStructs[msg.sender] */\n      swap1\n      pop\n        /* \"contracts/DataLocations.sol\":621:642  myStruct.text = \"foo\" */\n      mload(0x40)\n      dup1\n      0x40\n      add\n      0x40\n      mstore\n      dup1\n      0x03\n      dup2\n      mstore\n      0x20\n      add\n      0x666f6f0000000000000000000000000000000000000000000000000000000000\n      dup2\n      mstore\n      pop\n        /* \"contracts/DataLocations.sol\":621:629  myStruct */\n      dup2\n        /* \"contracts/DataLocations.sol\":621:634  myStruct.text */\n      0x01\n      add\n        /* \"contracts/DataLocations.sol\":621:642  myStruct.text = \"foo\" */\n      swap1\n      dup1\n      mload\n      swap1\n      0x20\n      add\n      swap1\n      tag_18\n      swap3\n      swap2\n      swap1\n      tag_17\n      jump\t// in\n    tag_18:\n      pop\n        /* \"contracts/DataLocations.sol\":655:679  MyStruct memory readOnly */\n      0x00\n        /* \"contracts/DataLocations.sol\":682:691  myStructs */\n      dup1\n        /* \"contracts/DataLocations.sol\":682:703  myStructs[msg.sender] */\n      0x00\n        /* \"contracts/DataLocations.sol\":692:702  msg.sender */\n      caller\n        /* \"contracts/DataLocations.sol\":682:703  myStructs[msg.sender] */\n      0xffffffffffffffffffffffffffffffffffffffff\n      and\n      0xffffffffffffffffffffffffffffffffffffffff\n      and\n      dup2\n      mstore\n      0x20\n      add\n      swap1\n      dup2\n      mstore\n      0x20\n      add\n      0x00\n      keccak256\n        /* \"contracts/DataLocations.sol\":655:703  MyStruct memory readOnly = myStructs[msg.sender] */\n      mload(0x40)\n      dup1\n      0x40\n      add\n      0x40\n      mstore\n      swap1\n      dup2\n      0x00\n      dup3\n      add\n      sload\n      dup2\n      mstore\n      0x20\n      add\n      0x01\n      dup3\n      add\n      dup1\n      sload\n      tag_19\n      swap1\n      tag_20\n      jump\t// in\n    tag_19:\n      dup1\n      0x1f\n      add\n      0x20\n      dup1\n      swap2\n      div\n      mul\n      0x20\n      add\n      mload(0x40)\n      swap1\n      dup2\n      add\n      0x40\n      mstore\n      dup1\n      swap3\n      swap2\n      swap1\n      dup2\n      dup2\n      mstore\n      0x20\n      add\n      dup3\n      dup1\n      sload\n      tag_21\n      swap1\n      tag_20\n      jump\t// in\n    tag_21:\n      dup1\n      iszero\n      tag_22\n      jumpi\n      dup1\n      0x1f\n      lt\n      tag_23\n      jumpi\n      0x0100\n      dup1\n      dup4\n      sload\n      div\n      mul\n      dup4\n      mstore\n      swap2\n      0x20\n      add\n      swap2\n      jump(tag_22)\n    tag_23:\n      dup3\n      add\n      swap2\n      swap1\n      0x00\n      mstore\n      keccak256(0x00, 0x20)\n      swap1\n    tag_24:\n      dup2\n      sload\n      dup2\n      mstore\n      swap1\n      0x01\n      add\n      swap1\n      0x20\n      add\n      dup1\n      dup4\n      gt\n      tag_24\n      jumpi\n      dup3\n      swap1\n      sub\n      0x1f\n      and\n      dup3\n      add\n      swap2\n    tag_22:\n      pop\n      pop\n      pop\n      pop\n      pop\n      dup2\n      mstore\n      pop\n      pop\n      swap1\n      pop\n        /* \"contracts/DataLocations.sol\":729:732  456 */\n      0x01c8\n        /* \"contracts/DataLocations.sol\":714:722  readOnly */\n      dup2\n        /* \"contracts/DataLocations.sol\":714:726  readOnly.foo */\n      0x00\n      add\n        /* \"contracts/DataLocations.sol\":714:732  readOnly.foo = 456 */\n      dup2\n      dup2\n      mstore\n      pop\n      pop\n        /* \"contracts/DataLocations.sol\":480:838  {\r... */\n      pop\n      pop\n        /* \"contracts/DataLocations.sol\":437:838  function examples(uint[] memory ) external {\r... */\n      pop\n      jump\t// out\n        /* \"contracts/DataLocations.sol\":382:427  mapping(address => MyStruct) public myStructs */\n    tag_12:\n      mstore(0x20, 0x00)\n      dup1\n      0x00\n      mstore\n      keccak256(0x00, 0x40)\n      0x00\n      swap2\n      pop\n      swap1\n      pop\n      dup1\n      0x00\n      add\n      sload\n      swap1\n      dup1\n      0x01\n      add\n      dup1\n      sload\n      tag_25\n      swap1\n      tag_20\n      jump\t// in\n    tag_25:\n      dup1\n      0x1f\n      add\n      0x20\n      dup1\n      swap2\n      div\n      mul\n      0x20\n      add\n      mload(0x40)\n      swap1\n      dup2\n      add\n      0x40\n      mstore\n      dup1\n      swap3\n      swap2\n      swap1\n      dup2\n      dup2\n      mstore\n      0x20\n      add\n      dup3\n      dup1\n      sload\n      tag_26\n      swap1\n      tag_20\n      jump\t// in\n    tag_26:\n      dup1\n      iszero\n      tag_27\n      jumpi\n      dup1\n      0x1f\n      lt\n      tag_28\n      jumpi\n      0x0100\n      dup1\n      dup4\n      sload\n      div\n      mul\n      dup4\n      mstore\n      swap2\n      0x20\n      add\n      swap2\n      jump(tag_27)\n    tag_28:\n      dup3\n      add\n      swap2\n      swap1\n      0x00\n      mstore\n      keccak256(0x00, 0x20)\n      swap1\n    tag_29:\n      dup2\n      sload\n      dup2\n      mstore\n      swap1\n      0x01\n      add\n      swap1\n      0x20\n      add\n      dup1\n      dup4\n      gt\n      tag_29\n      jumpi\n      dup3\n      swap1\n      sub\n      0x1f\n      and\n      dup3\n      add\n      swap2\n    tag_27:\n      pop\n      pop\n      pop\n      pop\n      pop\n      swap1\n      pop\n      dup3\n      jump\t// out\n    tag_17:\n      dup3\n      dup1\n      sload\n      tag_30\n      swap1\n      tag_20\n      jump\t// in\n    tag_30:\n      swap1\n      0x00\n      mstore\n      keccak256(0x00, 0x20)\n      swap1\n      0x1f\n      add\n      0x20\n      swap1\n      div\n      dup2\n      add\n      swap3\n      dup3\n      tag_32\n      jumpi\n      0x00\n      dup6\n      sstore\n      jump(tag_31)\n    tag_32:\n      dup3\n      0x1f\n      lt\n      tag_33\n      jumpi\n      dup1\n      mload\n      not(0xff)\n      and\n      dup4\n      dup1\n      add\n      or\n      dup6\n      sstore\n      jump(tag_31)\n    tag_33:\n      dup3\n      dup1\n      add\n      0x01\n      add\n      dup6\n      sstore\n      dup3\n      iszero\n      tag_31\n      jumpi\n      swap2\n      dup3\n      add\n    tag_34:\n      dup3\n      dup2\n      gt\n      iszero\n      tag_35\n      jumpi\n      dup3\n      mload\n      dup3\n      sstore\n      swap2\n      0x20\n      add\n      swap2\n      swap1\n      0x01\n      add\n      swap1\n      jump(tag_34)\n    tag_35:\n    tag_31:\n      pop\n      swap1\n      pop\n      tag_36\n      swap2\n      swap1\n      tag_37\n      jump\t// in\n    tag_36:\n      pop\n      swap1\n      jump\t// out\n    tag_37:\n    tag_38:\n      dup1\n      dup3\n      gt\n      iszero\n      tag_39\n      jumpi\n      0x00\n      dup2\n      0x00\n      swap1\n      sstore\n      pop\n      0x01\n      add\n      jump(tag_38)\n    tag_39:\n      pop\n      swap1\n      jump\t// out\n        /* \"#utility.yul\":24:746   */\n    tag_41:\n        /* \"#utility.yul\":120:125   */\n      0x00\n        /* \"#utility.yul\":145:226   */\n      tag_43\n        /* \"#utility.yul\":161:225   */\n      tag_44\n        /* \"#utility.yul\":218:224   */\n      dup5\n        /* \"#utility.yul\":161:225   */\n      tag_45\n      jump\t// in\n    tag_44:\n        /* \"#utility.yul\":145:226   */\n      tag_46\n      jump\t// in\n    tag_43:\n        /* \"#utility.yul\":136:226   */\n      swap1\n      pop\n        /* \"#utility.yul\":246:251   */\n      dup1\n        /* \"#utility.yul\":275:281   */\n      dup4\n        /* \"#utility.yul\":268:273   */\n      dup3\n        /* \"#utility.yul\":261:282   */\n      mstore\n        /* \"#utility.yul\":309:313   */\n      0x20\n        /* \"#utility.yul\":302:307   */\n      dup3\n        /* \"#utility.yul\":298:314   */\n      add\n        /* \"#utility.yul\":291:314   */\n      swap1\n      pop\n        /* \"#utility.yul\":335:341   */\n      dup3\n        /* \"#utility.yul\":385:388   */\n      dup6\n        /* \"#utility.yul\":377:381   */\n      0x20\n        /* \"#utility.yul\":369:375   */\n      dup7\n        /* \"#utility.yul\":365:382   */\n      mul\n        /* \"#utility.yul\":360:363   */\n      dup3\n        /* \"#utility.yul\":356:383   */\n      add\n        /* \"#utility.yul\":353:389   */\n      gt\n        /* \"#utility.yul\":350:493   */\n      iszero\n      tag_47\n      jumpi\n        /* \"#utility.yul\":404:483   */\n      tag_48\n      tag_49\n      jump\t// in\n    tag_48:\n        /* \"#utility.yul\":350:493   */\n    tag_47:\n        /* \"#utility.yul\":517:518   */\n      0x00\n        /* \"#utility.yul\":502:740   */\n    tag_50:\n        /* \"#utility.yul\":527:533   */\n      dup6\n        /* \"#utility.yul\":524:525   */\n      dup2\n        /* \"#utility.yul\":521:534   */\n      lt\n        /* \"#utility.yul\":502:740   */\n      iszero\n      tag_52\n      jumpi\n        /* \"#utility.yul\":595:598   */\n      dup2\n        /* \"#utility.yul\":624:661   */\n      tag_53\n        /* \"#utility.yul\":657:660   */\n      dup9\n        /* \"#utility.yul\":645:655   */\n      dup3\n        /* \"#utility.yul\":624:661   */\n      tag_54\n      jump\t// in\n    tag_53:\n        /* \"#utility.yul\":619:622   */\n      dup5\n        /* \"#utility.yul\":612:662   */\n      mstore\n        /* \"#utility.yul\":691:695   */\n      0x20\n        /* \"#utility.yul\":686:689   */\n      dup5\n        /* \"#utility.yul\":682:696   */\n      add\n        /* \"#utility.yul\":675:696   */\n      swap4\n      pop\n        /* \"#utility.yul\":725:729   */\n      0x20\n        /* \"#utility.yul\":720:723   */\n      dup4\n        /* \"#utility.yul\":716:730   */\n      add\n        /* \"#utility.yul\":709:730   */\n      swap3\n      pop\n        /* \"#utility.yul\":562:740   */\n      pop\n        /* \"#utility.yul\":549:550   */\n      0x01\n        /* \"#utility.yul\":546:547   */\n      dup2\n        /* \"#utility.yul\":542:551   */\n      add\n        /* \"#utility.yul\":537:551   */\n      swap1\n      pop\n        /* \"#utility.yul\":502:740   */\n      jump(tag_50)\n    tag_52:\n        /* \"#utility.yul\":506:520   */\n      pop\n        /* \"#utility.yul\":126:746   */\n      pop\n      pop\n        /* \"#utility.yul\":24:746   */\n      swap4\n      swap3\n      pop\n      pop\n      pop\n      jump\t// out\n        /* \"#utility.yul\":752:891   */\n    tag_55:\n        /* \"#utility.yul\":798:803   */\n      0x00\n        /* \"#utility.yul\":836:842   */\n      dup2\n        /* \"#utility.yul\":823:843   */\n      calldataload\n        /* \"#utility.yul\":814:843   */\n      swap1\n      pop\n        /* \"#utility.yul\":852:885   */\n      tag_57\n        /* \"#utility.yul\":879:884   */\n      dup2\n        /* \"#utility.yul\":852:885   */\n      tag_58\n      jump\t// in\n    tag_57:\n        /* \"#utility.yul\":752:891   */\n      swap3\n      swap2\n      pop\n      pop\n      jump\t// out\n        /* \"#utility.yul\":914:1284   */\n    tag_59:\n        /* \"#utility.yul\":985:990   */\n      0x00\n        /* \"#utility.yul\":1034:1037   */\n      dup3\n        /* \"#utility.yul\":1027:1031   */\n      0x1f\n        /* \"#utility.yul\":1019:1025   */\n      dup4\n        /* \"#utility.yul\":1015:1032   */\n      add\n        /* \"#utility.yul\":1011:1038   */\n      slt\n        /* \"#utility.yul\":1001:1123   */\n      tag_61\n      jumpi\n        /* \"#utility.yul\":1042:1121   */\n      tag_62\n      tag_63\n      jump\t// in\n    tag_62:\n        /* \"#utility.yul\":1001:1123   */\n    tag_61:\n        /* \"#utility.yul\":1159:1165   */\n      dup2\n        /* \"#utility.yul\":1146:1166   */\n      calldataload\n        /* \"#utility.yul\":1184:1278   */\n      tag_64\n        /* \"#utility.yul\":1274:1277   */\n      dup5\n        /* \"#utility.yul\":1266:1272   */\n      dup3\n        /* \"#utility.yul\":1259:1263   */\n      0x20\n        /* \"#utility.yul\":1251:1257   */\n      dup7\n        /* \"#utility.yul\":1247:1264   */\n      add\n        /* \"#utility.yul\":1184:1278   */\n      tag_41\n      jump\t// in\n    tag_64:\n        /* \"#utility.yul\":1175:1278   */\n      swap2\n      pop\n        /* \"#utility.yul\":991:1284   */\n      pop\n        /* \"#utility.yul\":914:1284   */\n      swap3\n      swap2\n      pop\n      pop\n      jump\t// out\n        /* \"#utility.yul\":1290:1429   */\n    tag_54:\n        /* \"#utility.yul\":1336:1341   */\n      0x00\n        /* \"#utility.yul\":1374:1380   */\n      dup2\n        /* \"#utility.yul\":1361:1381   */\n      calldataload\n        /* \"#utility.yul\":1352:1381   */\n      swap1\n      pop\n        /* \"#utility.yul\":1390:1423   */\n      tag_66\n        /* \"#utility.yul\":1417:1422   */\n      dup2\n        /* \"#utility.yul\":1390:1423   */\n      tag_67\n      jump\t// in\n    tag_66:\n        /* \"#utility.yul\":1290:1429   */\n      swap3\n      swap2\n      pop\n      pop\n      jump\t// out\n        /* \"#utility.yul\":1435:1764   */\n    tag_11:\n        /* \"#utility.yul\":1494:1500   */\n      0x00\n        /* \"#utility.yul\":1543:1545   */\n      0x20\n        /* \"#utility.yul\":1531:1540   */\n      dup3\n        /* \"#utility.yul\":1522:1529   */\n      dup5\n        /* \"#utility.yul\":1518:1541   */\n      sub\n        /* \"#utility.yul\":1514:1546   */\n      slt\n        /* \"#utility.yul\":1511:1630   */\n      iszero\n      tag_69\n      jumpi\n        /* \"#utility.yul\":1549:1628   */\n      tag_70\n      tag_71\n      jump\t// in\n    tag_70:\n        /* \"#utility.yul\":1511:1630   */\n    tag_69:\n        /* \"#utility.yul\":1669:1670   */\n      0x00\n        /* \"#utility.yul\":1694:1747   */\n      tag_72\n        /* \"#utility.yul\":1739:1746   */\n      dup5\n        /* \"#utility.yul\":1730:1736   */\n      dup3\n        /* \"#utility.yul\":1719:1728   */\n      dup6\n        /* \"#utility.yul\":1715:1737   */\n      add\n        /* \"#utility.yul\":1694:1747   */\n      tag_55\n      jump\t// in\n    tag_72:\n        /* \"#utility.yul\":1684:1747   */\n      swap2\n      pop\n        /* \"#utility.yul\":1640:1757   */\n      pop\n        /* \"#utility.yul\":1435:1764   */\n      swap3\n      swap2\n      pop\n      pop\n      jump\t// out\n        /* \"#utility.yul\":1770:2309   */\n    tag_7:\n        /* \"#utility.yul\":1854:1860   */\n      0x00\n        /* \"#utility.yul\":1903:1905   */\n      0x20\n        /* \"#utility.yul\":1891:1900   */\n      dup3\n        /* \"#utility.yul\":1882:1889   */\n      dup5\n        /* \"#utility.yul\":1878:1901   */\n      sub\n        /* \"#utility.yul\":1874:1906   */\n      slt\n        /* \"#utility.yul\":1871:1990   */\n      iszero\n      tag_74\n      jumpi\n        /* \"#utility.yul\":1909:1988   */\n      tag_75\n      tag_71\n      jump\t// in\n    tag_75:\n        /* \"#utility.yul\":1871:1990   */\n    tag_74:\n        /* \"#utility.yul\":2057:2058   */\n      0x00\n        /* \"#utility.yul\":2046:2055   */\n      dup3\n        /* \"#utility.yul\":2042:2059   */\n      add\n        /* \"#utility.yul\":2029:2060   */\n      calldataload\n        /* \"#utility.yul\":2087:2105   */\n      0xffffffffffffffff\n        /* \"#utility.yul\":2079:2085   */\n      dup2\n        /* \"#utility.yul\":2076:2106   */\n      gt\n        /* \"#utility.yul\":2073:2190   */\n      iszero\n      tag_76\n      jumpi\n        /* \"#utility.yul\":2109:2188   */\n      tag_77\n      tag_78\n      jump\t// in\n    tag_77:\n        /* \"#utility.yul\":2073:2190   */\n    tag_76:\n        /* \"#utility.yul\":2214:2292   */\n      tag_79\n        /* \"#utility.yul\":2284:2291   */\n      dup5\n        /* \"#utility.yul\":2275:2281   */\n      dup3\n        /* \"#utility.yul\":2264:2273   */\n      dup6\n        /* \"#utility.yul\":2260:2282   */\n      add\n        /* \"#utility.yul\":2214:2292   */\n      tag_59\n      jump\t// in\n    tag_79:\n        /* \"#utility.yul\":2204:2292   */\n      swap2\n      pop\n        /* \"#utility.yul\":2000:2302   */\n      pop\n        /* \"#utility.yul\":1770:2309   */\n      swap3\n      swap2\n      pop\n      pop\n      jump\t// out\n        /* \"#utility.yul\":2315:2679   */\n    tag_80:\n        /* \"#utility.yul\":2403:2406   */\n      0x00\n        /* \"#utility.yul\":2431:2470   */\n      tag_82\n        /* \"#utility.yul\":2464:2469   */\n      dup3\n        /* \"#utility.yul\":2431:2470   */\n      tag_83\n      jump\t// in\n    tag_82:\n        /* \"#utility.yul\":2486:2557   */\n      tag_84\n        /* \"#utility.yul\":2550:2556   */\n      dup2\n        /* \"#utility.yul\":2545:2548   */\n      dup6\n        /* \"#utility.yul\":2486:2557   */\n      tag_85\n      jump\t// in\n    tag_84:\n        /* \"#utility.yul\":2479:2557   */\n      swap4\n      pop\n        /* \"#utility.yul\":2566:2618   */\n      tag_86\n        /* \"#utility.yul\":2611:2617   */\n      dup2\n        /* \"#utility.yul\":2606:2609   */\n      dup6\n        /* \"#utility.yul\":2599:2603   */\n      0x20\n        /* \"#utility.yul\":2592:2597   */\n      dup7\n        /* \"#utility.yul\":2588:2604   */\n      add\n        /* \"#utility.yul\":2566:2618   */\n      tag_87\n      jump\t// in\n    tag_86:\n        /* \"#utility.yul\":2643:2672   */\n      tag_88\n        /* \"#utility.yul\":2665:2671   */\n      dup2\n        /* \"#utility.yul\":2643:2672   */\n      tag_89\n      jump\t// in\n    tag_88:\n        /* \"#utility.yul\":2638:2641   */\n      dup5\n        /* \"#utility.yul\":2634:2673   */\n      add\n        /* \"#utility.yul\":2627:2673   */\n      swap2\n      pop\n        /* \"#utility.yul\":2407:2679   */\n      pop\n        /* \"#utility.yul\":2315:2679   */\n      swap3\n      swap2\n      pop\n      pop\n      jump\t// out\n        /* \"#utility.yul\":2685:2803   */\n    tag_90:\n        /* \"#utility.yul\":2772:2796   */\n      tag_92\n        /* \"#utility.yul\":2790:2795   */\n      dup2\n        /* \"#utility.yul\":2772:2796   */\n      tag_93\n      jump\t// in\n    tag_92:\n        /* \"#utility.yul\":2767:2770   */\n      dup3\n        /* \"#utility.yul\":2760:2797   */\n      mstore\n        /* \"#utility.yul\":2685:2803   */\n      pop\n      pop\n      jump\t// out\n        /* \"#utility.yul\":2809:3232   */\n    tag_14:\n        /* \"#utility.yul\":2950:2954   */\n      0x00\n        /* \"#utility.yul\":2988:2990   */\n      0x40\n        /* \"#utility.yul\":2977:2986   */\n      dup3\n        /* \"#utility.yul\":2973:2991   */\n      add\n        /* \"#utility.yul\":2965:2991   */\n      swap1\n      pop\n        /* \"#utility.yul\":3001:3072   */\n      tag_95\n        /* \"#utility.yul\":3069:3070   */\n      0x00\n        /* \"#utility.yul\":3058:3067   */\n      dup4\n        /* \"#utility.yul\":3054:3071   */\n      add\n        /* \"#utility.yul\":3045:3051   */\n      dup6\n        /* \"#utility.yul\":3001:3072   */\n      tag_90\n      jump\t// in\n    tag_95:\n        /* \"#utility.yul\":3119:3128   */\n      dup2\n        /* \"#utility.yul\":3113:3117   */\n      dup2\n        /* \"#utility.yul\":3109:3129   */\n      sub\n        /* \"#utility.yul\":3104:3106   */\n      0x20\n        /* \"#utility.yul\":3093:3102   */\n      dup4\n        /* \"#utility.yul\":3089:3107   */\n      add\n        /* \"#utility.yul\":3082:3130   */\n      mstore\n        /* \"#utility.yul\":3147:3225   */\n      tag_96\n        /* \"#utility.yul\":3220:3224   */\n      dup2\n        /* \"#utility.yul\":3211:3217   */\n      dup5\n        /* \"#utility.yul\":3147:3225   */\n      tag_80\n      jump\t// in\n    tag_96:\n        /* \"#utility.yul\":3139:3225   */\n      swap1\n      pop\n        /* \"#utility.yul\":2809:3232   */\n      swap4\n      swap3\n      pop\n      pop\n      pop\n      jump\t// out\n        /* \"#utility.yul\":3238:3367   */\n    tag_46:\n        /* \"#utility.yul\":3272:3278   */\n      0x00\n        /* \"#utility.yul\":3299:3319   */\n      tag_98\n      tag_99\n      jump\t// in\n    tag_98:\n        /* \"#utility.yul\":3289:3319   */\n      swap1\n      pop\n        /* \"#utility.yul\":3328:3361   */\n      tag_100\n        /* \"#utility.yul\":3356:3360   */\n      dup3\n        /* \"#utility.yul\":3348:3354   */\n      dup3\n        /* \"#utility.yul\":3328:3361   */\n      tag_101\n      jump\t// in\n    tag_100:\n        /* \"#utility.yul\":3238:3367   */\n      swap2\n      swap1\n      pop\n      jump\t// out\n        /* \"#utility.yul\":3373:3448   */\n    tag_99:\n        /* \"#utility.yul\":3406:3412   */\n      0x00\n        /* \"#utility.yul\":3439:3441   */\n      0x40\n        /* \"#utility.yul\":3433:3442   */\n      mload\n        /* \"#utility.yul\":3423:3442   */\n      swap1\n      pop\n        /* \"#utility.yul\":3373:3448   */\n      swap1\n      jump\t// out\n        /* \"#utility.yul\":3454:3765   */\n    tag_45:\n        /* \"#utility.yul\":3531:3535   */\n      0x00\n        /* \"#utility.yul\":3621:3639   */\n      0xffffffffffffffff\n        /* \"#utility.yul\":3613:3619   */\n      dup3\n        /* \"#utility.yul\":3610:3640   */\n      gt\n        /* \"#utility.yul\":3607:3663   */\n      iszero\n      tag_104\n      jumpi\n        /* \"#utility.yul\":3643:3661   */\n      tag_105\n      tag_106\n      jump\t// in\n    tag_105:\n        /* \"#utility.yul\":3607:3663   */\n    tag_104:\n        /* \"#utility.yul\":3693:3697   */\n      0x20\n        /* \"#utility.yul\":3685:3691   */\n      dup3\n        /* \"#utility.yul\":3681:3698   */\n      mul\n        /* \"#utility.yul\":3673:3698   */\n      swap1\n      pop\n        /* \"#utility.yul\":3753:3757   */\n      0x20\n        /* \"#utility.yul\":3747:3751   */\n      dup2\n        /* \"#utility.yul\":3743:3758   */\n      add\n        /* \"#utility.yul\":3735:3758   */\n      swap1\n      pop\n        /* \"#utility.yul\":3454:3765   */\n      swap2\n      swap1\n      pop\n      jump\t// out\n        /* \"#utility.yul\":3771:3870   */\n    tag_83:\n        /* \"#utility.yul\":3823:3829   */\n      0x00\n        /* \"#utility.yul\":3857:3862   */\n      dup2\n        /* \"#utility.yul\":3851:3863   */\n      mload\n        /* \"#utility.yul\":3841:3863   */\n      swap1\n      pop\n        /* \"#utility.yul\":3771:3870   */\n      swap2\n      swap1\n      pop\n      jump\t// out\n        /* \"#utility.yul\":3876:4045   */\n    tag_85:\n        /* \"#utility.yul\":3960:3971   */\n      0x00\n        /* \"#utility.yul\":3994:4000   */\n      dup3\n        /* \"#utility.yul\":3989:3992   */\n      dup3\n        /* \"#utility.yul\":3982:4001   */\n      mstore\n        /* \"#utility.yul\":4034:4038   */\n      0x20\n        /* \"#utility.yul\":4029:4032   */\n      dup3\n        /* \"#utility.yul\":4025:4039   */\n      add\n        /* \"#utility.yul\":4010:4039   */\n      swap1\n      pop\n        /* \"#utility.yul\":3876:4045   */\n      swap3\n      swap2\n      pop\n      pop\n      jump\t// out\n        /* \"#utility.yul\":4051:4147   */\n    tag_109:\n        /* \"#utility.yul\":4088:4095   */\n      0x00\n        /* \"#utility.yul\":4117:4141   */\n      tag_111\n        /* \"#utility.yul\":4135:4140   */\n      dup3\n        /* \"#utility.yul\":4117:4141   */\n      tag_112\n      jump\t// in\n    tag_111:\n        /* \"#utility.yul\":4106:4141   */\n      swap1\n      pop\n        /* \"#utility.yul\":4051:4147   */\n      swap2\n      swap1\n      pop\n      jump\t// out\n        /* \"#utility.yul\":4153:4279   */\n    tag_112:\n        /* \"#utility.yul\":4190:4197   */\n      0x00\n        /* \"#utility.yul\":4230:4272   */\n      0xffffffffffffffffffffffffffffffffffffffff\n        /* \"#utility.yul\":4223:4228   */\n      dup3\n        /* \"#utility.yul\":4219:4273   */\n      and\n        /* \"#utility.yul\":4208:4273   */\n      swap1\n      pop\n        /* \"#utility.yul\":4153:4279   */\n      swap2\n      swap1\n      pop\n      jump\t// out\n        /* \"#utility.yul\":4285:4362   */\n    tag_93:\n        /* \"#utility.yul\":4322:4329   */\n      0x00\n        /* \"#utility.yul\":4351:4356   */\n      dup2\n        /* \"#utility.yul\":4340:4356   */\n      swap1\n      pop\n        /* \"#utility.yul\":4285:4362   */\n      swap2\n      swap1\n      pop\n      jump\t// out\n        /* \"#utility.yul\":4368:4675   */\n    tag_87:\n        /* \"#utility.yul\":4436:4437   */\n      0x00\n        /* \"#utility.yul\":4446:4559   */\n    tag_116:\n        /* \"#utility.yul\":4460:4466   */\n      dup4\n        /* \"#utility.yul\":4457:4458   */\n      dup2\n        /* \"#utility.yul\":4454:4467   */\n      lt\n        /* \"#utility.yul\":4446:4559   */\n      iszero\n      tag_118\n      jumpi\n        /* \"#utility.yul\":4545:4546   */\n      dup1\n        /* \"#utility.yul\":4540:4543   */\n      dup3\n        /* \"#utility.yul\":4536:4547   */\n      add\n        /* \"#utility.yul\":4530:4548   */\n      mload\n        /* \"#utility.yul\":4526:4527   */\n      dup2\n        /* \"#utility.yul\":4521:4524   */\n      dup5\n        /* \"#utility.yul\":4517:4528   */\n      add\n        /* \"#utility.yul\":4510:4549   */\n      mstore\n        /* \"#utility.yul\":4482:4484   */\n      0x20\n        /* \"#utility.yul\":4479:4480   */\n      dup2\n        /* \"#utility.yul\":4475:4485   */\n      add\n        /* \"#utility.yul\":4470:4485   */\n      swap1\n      pop\n        /* \"#utility.yul\":4446:4559   */\n      jump(tag_116)\n    tag_118:\n        /* \"#utility.yul\":4577:4583   */\n      dup4\n        /* \"#utility.yul\":4574:4575   */\n      dup2\n        /* \"#utility.yul\":4571:4584   */\n      gt\n        /* \"#utility.yul\":4568:4669   */\n      iszero\n      tag_119\n      jumpi\n        /* \"#utility.yul\":4657:4658   */\n      0x00\n        /* \"#utility.yul\":4648:4654   */\n      dup5\n        /* \"#utility.yul\":4643:4646   */\n      dup5\n        /* \"#utility.yul\":4639:4655   */\n      add\n        /* \"#utility.yul\":4632:4659   */\n      mstore\n        /* \"#utility.yul\":4568:4669   */\n    tag_119:\n        /* \"#utility.yul\":4417:4675   */\n      pop\n        /* \"#utility.yul\":4368:4675   */\n      pop\n      pop\n      pop\n      jump\t// out\n        /* \"#utility.yul\":4681:5001   */\n    tag_20:\n        /* \"#utility.yul\":4725:4731   */\n      0x00\n        /* \"#utility.yul\":4762:4763   */\n      0x02\n        /* \"#utility.yul\":4756:4760   */\n      dup3\n        /* \"#utility.yul\":4752:4764   */\n      div\n        /* \"#utility.yul\":4742:4764   */\n      swap1\n      pop\n        /* \"#utility.yul\":4809:4810   */\n      0x01\n        /* \"#utility.yul\":4803:4807   */\n      dup3\n        /* \"#utility.yul\":4799:4811   */\n      and\n        /* \"#utility.yul\":4830:4848   */\n      dup1\n        /* \"#utility.yul\":4820:4901   */\n      tag_121\n      jumpi\n        /* \"#utility.yul\":4886:4890   */\n      0x7f\n        /* \"#utility.yul\":4878:4884   */\n      dup3\n        /* \"#utility.yul\":4874:4891   */\n      and\n        /* \"#utility.yul\":4864:4891   */\n      swap2\n      pop\n        /* \"#utility.yul\":4820:4901   */\n    tag_121:\n        /* \"#utility.yul\":4948:4950   */\n      0x20\n        /* \"#utility.yul\":4940:4946   */\n      dup3\n        /* \"#utility.yul\":4937:4951   */\n      lt\n        /* \"#utility.yul\":4917:4935   */\n      dup2\n        /* \"#utility.yul\":4914:4952   */\n      eq\n        /* \"#utility.yul\":4911:4995   */\n      iszero\n      tag_122\n      jumpi\n        /* \"#utility.yul\":4967:4985   */\n      tag_123\n      tag_124\n      jump\t// in\n    tag_123:\n        /* \"#utility.yul\":4911:4995   */\n    tag_122:\n        /* \"#utility.yul\":4732:5001   */\n      pop\n        /* \"#utility.yul\":4681:5001   */\n      swap2\n      swap1\n      pop\n      jump\t// out\n        /* \"#utility.yul\":5007:5288   */\n    tag_101:\n        /* \"#utility.yul\":5090:5117   */\n      tag_126\n        /* \"#utility.yul\":5112:5116   */\n      dup3\n        /* \"#utility.yul\":5090:5117   */\n      tag_89\n      jump\t// in\n    tag_126:\n        /* \"#utility.yul\":5082:5088   */\n      dup2\n        /* \"#utility.yul\":5078:5118   */\n      add\n        /* \"#utility.yul\":5220:5226   */\n      dup2\n        /* \"#utility.yul\":5208:5218   */\n      dup2\n        /* \"#utility.yul\":5205:5227   */\n      lt\n        /* \"#utility.yul\":5184:5202   */\n      0xffffffffffffffff\n        /* \"#utility.yul\":5172:5182   */\n      dup3\n        /* \"#utility.yul\":5169:5203   */\n      gt\n        /* \"#utility.yul\":5166:5228   */\n      or\n        /* \"#utility.yul\":5163:5251   */\n      iszero\n      tag_127\n      jumpi\n        /* \"#utility.yul\":5231:5249   */\n      tag_128\n      tag_106\n      jump\t// in\n    tag_128:\n        /* \"#utility.yul\":5163:5251   */\n    tag_127:\n        /* \"#utility.yul\":5271:5281   */\n      dup1\n        /* \"#utility.yul\":5267:5269   */\n      0x40\n        /* \"#utility.yul\":5260:5282   */\n      mstore\n        /* \"#utility.yul\":5050:5288   */\n      pop\n        /* \"#utility.yul\":5007:5288   */\n      pop\n      pop\n      jump\t// out\n        /* \"#utility.yul\":5294:5474   */\n    tag_124:\n        /* \"#utility.yul\":5342:5419   */\n      0x4e487b7100000000000000000000000000000000000000000000000000000000\n        /* \"#utility.yul\":5339:5340   */\n      0x00\n        /* \"#utility.yul\":5332:5420   */\n      mstore\n        /* \"#utility.yul\":5439:5443   */\n      0x22\n        /* \"#utility.yul\":5436:5437   */\n      0x04\n        /* \"#utility.yul\":5429:5444   */\n      mstore\n        /* \"#utility.yul\":5463:5467   */\n      0x24\n        /* \"#utility.yul\":5460:5461   */\n      0x00\n        /* \"#utility.yul\":5453:5468   */\n      revert\n        /* \"#utility.yul\":5480:5660   */\n    tag_106:\n        /* \"#utility.yul\":5528:5605   */\n      0x4e487b7100000000000000000000000000000000000000000000000000000000\n        /* \"#utility.yul\":5525:5526   */\n      0x00\n        /* \"#utility.yul\":5518:5606   */\n      mstore\n        /* \"#utility.yul\":5625:5629   */\n      0x41\n        /* \"#utility.yul\":5622:5623   */\n      0x04\n        /* \"#utility.yul\":5615:5630   */\n      mstore\n        /* \"#utility.yul\":5649:5653   */\n      0x24\n        /* \"#utility.yul\":5646:5647   */\n      0x00\n        /* \"#utility.yul\":5639:5654   */\n      revert\n        /* \"#utility.yul\":5666:5783   */\n    tag_63:\n        /* \"#utility.yul\":5775:5776   */\n      0x00\n        /* \"#utility.yul\":5772:5773   */\n      dup1\n        /* \"#utility.yul\":5765:5777   */\n      revert\n        /* \"#utility.yul\":5789:5906   */\n    tag_49:\n        /* \"#utility.yul\":5898:5899   */\n      0x00\n        /* \"#utility.yul\":5895:5896   */\n      dup1\n        /* \"#utility.yul\":5888:5900   */\n      revert\n        /* \"#utility.yul\":5912:6029   */\n    tag_78:\n        /* \"#utility.yul\":6021:6022   */\n      0x00\n        /* \"#utility.yul\":6018:6019   */\n      dup1\n        /* \"#utility.yul\":6011:6023   */\n      revert\n        /* \"#utility.yul\":6035:6152   */\n    tag_71:\n        /* \"#utility.yul\":6144:6145   */\n      0x00\n        /* \"#utility.yul\":6141:6142   */\n      dup1\n        /* \"#utility.yul\":6134:6146   */\n      revert\n        /* \"#utility.yul\":6158:6260   */\n    tag_89:\n        /* \"#utility.yul\":6199:6205   */\n      0x00\n        /* \"#utility.yul\":6250:6252   */\n      0x1f\n        /* \"#utility.yul\":6246:6253   */\n      not\n        /* \"#utility.yul\":6241:6243   */\n      0x1f\n        /* \"#utility.yul\":6234:6239   */\n      dup4\n        /* \"#utility.yul\":6230:6244   */\n      add\n        /* \"#utility.yul\":6226:6254   */\n      and\n        /* \"#utility.yul\":6216:6254   */\n      swap1\n      pop\n        /* \"#utility.yul\":6158:6260   */\n      swap2\n      swap1\n      pop\n      jump\t// out\n        /* \"#utility.yul\":6266:6388   */\n    tag_58:\n        /* \"#utility.yul\":6339:6363   */\n      tag_137\n        /* \"#utility.yul\":6357:6362   */\n      dup2\n        /* \"#utility.yul\":6339:6363   */\n      tag_109\n      jump\t// in\n    tag_137:\n        /* \"#utility.yul\":6332:6337   */\n      dup2\n        /* \"#utility.yul\":6329:6364   */\n      eq\n        /* \"#utility.yul\":6319:6382   */\n      tag_138\n      jumpi\n        /* \"#utility.yul\":6378:6379   */\n      0x00\n        /* \"#utility.yul\":6375:6376   */\n      dup1\n        /* \"#utility.yul\":6368:6380   */\n      revert\n        /* \"#utility.yul\":6319:6382   */\n    tag_138:\n        /* \"#utility.yul\":6266:6388   */\n      pop\n      jump\t// out\n        /* \"#utility.yul\":6394:6516   */\n    tag_67:\n        /* \"#utility.yul\":6467:6491   */\n      tag_140\n        /* \"#utility.yul\":6485:6490   */\n      dup2\n        /* \"#utility.yul\":6467:6491   */\n      tag_93\n      jump\t// in\n    tag_140:\n        /* \"#utility.yul\":6460:6465   */\n      dup2\n        /* \"#utility.yul\":6457:6492   */\n      eq\n        /* \"#utility.yul\":6447:6510   */\n      tag_141\n      jumpi\n        /* \"#utility.yul\":6506:6507   */\n      0x00\n        /* \"#utility.yul\":6503:6504   */\n      dup1\n        /* \"#utility.yul\":6496:6508   */\n      revert\n        /* \"#utility.yul\":6447:6510   */\n    tag_141:\n        /* \"#utility.yul\":6394:6516   */\n      pop\n      jump\t// out\n\n    auxdata: 0xa2646970667358221220b0432968359619b7c8df9aed2f07452b8ba0c75e1ac6d03b76e07b660feaef3f64736f6c63430008070033\n}\n",
				"bytecode": {
					"linkReferences": {},
					"object": "608060405234801561001057600080fd5b506107f0806100206000396000f3fe608060405234801561001057600080fd5b50600436106100365760003560e01c80634fd58b191461003b578063b43c5d3314610057575b600080fd5b61005560048036038101906100509190610509565b610088565b005b610071600480360381019061006c91906104dc565b6102c5565b60405161007f92919061059a565b60405180910390f35b6040518060400160405280607b81526020016040518060400160405280600381526020017f62617200000000000000000000000000000000000000000000000000000000008152508152506000803373ffffffffffffffffffffffffffffffffffffffff1673ffffffffffffffffffffffffffffffffffffffff168152602001908152602001600020600082015181600001556020820151816001019080519060200190610137929190610371565b5090505060008060003373ffffffffffffffffffffffffffffffffffffffff1673ffffffffffffffffffffffffffffffffffffffff16815260200190815260200160002090506040518060400160405280600381526020017f666f6f00000000000000000000000000000000000000000000000000000000008152508160010190805190602001906101ca929190610371565b5060008060003373ffffffffffffffffffffffffffffffffffffffff1673ffffffffffffffffffffffffffffffffffffffff16815260200190815260200160002060405180604001604052908160008201548152602001600182018054610230906106a6565b80601f016020809104026020016040519081016040528092919081815260200182805461025c906106a6565b80156102a95780601f1061027e576101008083540402835291602001916102a9565b820191906000526020600020905b81548152906001019060200180831161028c57829003601f168201915b50505050508152505090506101c8816000018181525050505050565b60006020528060005260406000206000915090508060000154908060010180546102ee906106a6565b80601f016020809104026020016040519081016040528092919081815260200182805461031a906106a6565b80156103675780601f1061033c57610100808354040283529160200191610367565b820191906000526020600020905b81548152906001019060200180831161034a57829003601f168201915b5050505050905082565b82805461037d906106a6565b90600052602060002090601f01602090048101928261039f57600085556103e6565b82601f106103b857805160ff19168380011785556103e6565b828001600101855582156103e6579182015b828111156103e55782518255916020019190600101906103ca565b5b5090506103f391906103f7565b5090565b5b808211156104105760008160009055506001016103f8565b5090565b6000610427610422846105ef565b6105ca565b9050808382526020820190508285602086028201111561044a5761044961076c565b5b60005b8581101561047a578161046088826104c7565b84526020840193506020830192505060018101905061044d565b5050509392505050565b6000813590506104938161078c565b92915050565b600082601f8301126104ae576104ad610767565b5b81356104be848260208601610414565b91505092915050565b6000813590506104d6816107a3565b92915050565b6000602082840312156104f2576104f1610776565b5b600061050084828501610484565b91505092915050565b60006020828403121561051f5761051e610776565b5b600082013567ffffffffffffffff81111561053d5761053c610771565b5b61054984828501610499565b91505092915050565b600061055d8261061b565b6105678185610626565b9350610577818560208601610673565b6105808161077b565b840191505092915050565b61059481610669565b82525050565b60006040820190506105af600083018561058b565b81810360208301526105c18184610552565b90509392505050565b60006105d46105e5565b90506105e082826106d8565b919050565b6000604051905090565b600067ffffffffffffffff82111561060a57610609610738565b5b602082029050602081019050919050565b600081519050919050565b600082825260208201905092915050565b600061064282610649565b9050919050565b600073ffffffffffffffffffffffffffffffffffffffff82169050919050565b6000819050919050565b60005b83811015610691578082015181840152602081019050610676565b838111156106a0576000848401525b50505050565b600060028204905060018216806106be57607f821691505b602082108114156106d2576106d1610709565b5b50919050565b6106e18261077b565b810181811067ffffffffffffffff82111715610700576106ff610738565b5b80604052505050565b7f4e487b7100000000000000000000000000000000000000000000000000000000600052602260045260246000fd5b7f4e487b7100000000000000000000000000000000000000000000000000000000600052604160045260246000fd5b600080fd5b600080fd5b600080fd5b600080fd5b6000601f19601f8301169050919050565b61079581610637565b81146107a057600080fd5b50565b6107ac81610669565b81146107b757600080fd5b5056fea2646970667358221220b0432968359619b7c8df9aed2f07452b8ba0c75e1ac6d03b76e07b660feaef3f64736f6c63430008070033",
					"opcodes": "PUSH1 0x80 PUSH1 0x40 MSTORE CALLVALUE DUP1 ISZERO PUSH2 0x10 JUMPI PUSH1 0x0 DUP1 REVERT JUMPDEST POP PUSH2 0x7F0 DUP1 PUSH2 0x20 PUSH1 0x0 CODECOPY PUSH1 0x0 RETURN INVALID PUSH1 0x80 PUSH1 0x40 MSTORE CALLVALUE DUP1 ISZERO PUSH2 0x10 JUMPI PUSH1 0x0 DUP1 REVERT JUMPDEST POP PUSH1 0x4 CALLDATASIZE LT PUSH2 0x36 JUMPI PUSH1 0x0 CALLDATALOAD PUSH1 0xE0 SHR DUP1 PUSH4 0x4FD58B19 EQ PUSH2 0x3B JUMPI DUP1 PUSH4 0xB43C5D33 EQ PUSH2 0x57 JUMPI JUMPDEST PUSH1 0x0 DUP1 REVERT JUMPDEST PUSH2 0x55 PUSH1 0x4 DUP1 CALLDATASIZE SUB DUP2 ADD SWAP1 PUSH2 0x50 SWAP2 SWAP1 PUSH2 0x509 JUMP JUMPDEST PUSH2 0x88 JUMP JUMPDEST STOP JUMPDEST PUSH2 0x71 PUSH1 0x4 DUP1 CALLDATASIZE SUB DUP2 ADD SWAP1 PUSH2 0x6C SWAP2 SWAP1 PUSH2 0x4DC JUMP JUMPDEST PUSH2 0x2C5 JUMP JUMPDEST PUSH1 0x40 MLOAD PUSH2 0x7F SWAP3 SWAP2 SWAP1 PUSH2 0x59A JUMP JUMPDEST PUSH1 0x40 MLOAD DUP1 SWAP2 SUB SWAP1 RETURN JUMPDEST PUSH1 0x40 MLOAD DUP1 PUSH1 0x40 ADD PUSH1 0x40 MSTORE DUP1 PUSH1 0x7B DUP2 MSTORE PUSH1 0x20 ADD PUSH1 0x40 MLOAD DUP1 PUSH1 0x40 ADD PUSH1 0x40 MSTORE DUP1 PUSH1 0x3 DUP2 MSTORE PUSH1 0x20 ADD PUSH32 0x6261720000000000000000000000000000000000000000000000000000000000 DUP2 MSTORE POP DUP2 MSTORE POP PUSH1 0x0 DUP1 CALLER PUSH20 0xFFFFFFFFFFFFFFFFFFFFFFFFFFFFFFFFFFFFFFFF AND PUSH20 0xFFFFFFFFFFFFFFFFFFFFFFFFFFFFFFFFFFFFFFFF AND DUP2 MSTORE PUSH1 0x20 ADD SWAP1 DUP2 MSTORE PUSH1 0x20 ADD PUSH1 0x0 KECCAK256 PUSH1 0x0 DUP3 ADD MLOAD DUP2 PUSH1 0x0 ADD SSTORE PUSH1 0x20 DUP3 ADD MLOAD DUP2 PUSH1 0x1 ADD SWAP1 DUP1 MLOAD SWAP1 PUSH1 0x20 ADD SWAP1 PUSH2 0x137 SWAP3 SWAP2 SWAP1 PUSH2 0x371 JUMP JUMPDEST POP SWAP1 POP POP PUSH1 0x0 DUP1 PUSH1 0x0 CALLER PUSH20 0xFFFFFFFFFFFFFFFFFFFFFFFFFFFFFFFFFFFFFFFF AND PUSH20 0xFFFFFFFFFFFFFFFFFFFFFFFFFFFFFFFFFFFFFFFF AND DUP2 MSTORE PUSH1 0x20 ADD SWAP1 DUP2 MSTORE PUSH1 0x20 ADD PUSH1 0x0 KECCAK256 SWAP1 POP PUSH1 0x40 MLOAD DUP1 PUSH1 0x40 ADD PUSH1 0x40 MSTORE DUP1 PUSH1 0x3 DUP2 MSTORE PUSH1 0x20 ADD PUSH32 0x666F6F0000000000000000000000000000000000000000000000000000000000 DUP2 MSTORE POP DUP2 PUSH1 0x1 ADD SWAP1 DUP1 MLOAD SWAP1 PUSH1 0x20 ADD SWAP1 PUSH2 0x1CA SWAP3 SWAP2 SWAP1 PUSH2 0x371 JUMP JUMPDEST POP PUSH1 0x0 DUP1 PUSH1 0x0 CALLER PUSH20 0xFFFFFFFFFFFFFFFFFFFFFFFFFFFFFFFFFFFFFFFF AND PUSH20 0xFFFFFFFFFFFFFFFFFFFFFFFFFFFFFFFFFFFFFFFF AND DUP2 MSTORE PUSH1 0x20 ADD SWAP1 DUP2 MSTORE PUSH1 0x20 ADD PUSH1 0x0 KECCAK256 PUSH1 0x40 MLOAD DUP1 PUSH1 0x40 ADD PUSH1 0x40 MSTORE SWAP1 DUP2 PUSH1 0x0 DUP3 ADD SLOAD DUP2 MSTORE PUSH1 0x20 ADD PUSH1 0x1 DUP3 ADD DUP1 SLOAD PUSH2 0x230 SWAP1 PUSH2 0x6A6 JUMP JUMPDEST DUP1 PUSH1 0x1F ADD PUSH1 0x20 DUP1 SWAP2 DIV MUL PUSH1 0x20 ADD PUSH1 0x40 MLOAD SWAP1 DUP2 ADD PUSH1 0x40 MSTORE DUP1 SWAP3 SWAP2 SWAP1 DUP2 DUP2 MSTORE PUSH1 0x20 ADD DUP3 DUP1 SLOAD PUSH2 0x25C SWAP1 PUSH2 0x6A6 JUMP JUMPDEST DUP1 ISZERO PUSH2 0x2A9 JUMPI DUP1 PUSH1 0x1F LT PUSH2 0x27E JUMPI PUSH2 0x100 DUP1 DUP4 SLOAD DIV MUL DUP4 MSTORE SWAP2 PUSH1 0x20 ADD SWAP2 PUSH2 0x2A9 JUMP JUMPDEST DUP3 ADD SWAP2 SWAP1 PUSH1 0x0 MSTORE PUSH1 0x20 PUSH1 0x0 KECCAK256 SWAP1 JUMPDEST DUP2 SLOAD DUP2 MSTORE SWAP1 PUSH1 0x1 ADD SWAP1 PUSH1 0x20 ADD DUP1 DUP4 GT PUSH2 0x28C JUMPI DUP3 SWAP1 SUB PUSH1 0x1F AND DUP3 ADD SWAP2 JUMPDEST POP POP POP POP POP DUP2 MSTORE POP POP SWAP1 POP PUSH2 0x1C8 DUP2 PUSH1 0x0 ADD DUP2 DUP2 MSTORE POP POP POP POP POP JUMP JUMPDEST PUSH1 0x0 PUSH1 0x20 MSTORE DUP1 PUSH1 0x0 MSTORE PUSH1 0x40 PUSH1 0x0 KECCAK256 PUSH1 0x0 SWAP2 POP SWAP1 POP DUP1 PUSH1 0x0 ADD SLOAD SWAP1 DUP1 PUSH1 0x1 ADD DUP1 SLOAD PUSH2 0x2EE SWAP1 PUSH2 0x6A6 JUMP JUMPDEST DUP1 PUSH1 0x1F ADD PUSH1 0x20 DUP1 SWAP2 DIV MUL PUSH1 0x20 ADD PUSH1 0x40 MLOAD SWAP1 DUP2 ADD PUSH1 0x40 MSTORE DUP1 SWAP3 SWAP2 SWAP1 DUP2 DUP2 MSTORE PUSH1 0x20 ADD DUP3 DUP1 SLOAD PUSH2 0x31A SWAP1 PUSH2 0x6A6 JUMP JUMPDEST DUP1 ISZERO PUSH2 0x367 JUMPI DUP1 PUSH1 0x1F LT PUSH2 0x33C JUMPI PUSH2 0x100 DUP1 DUP4 SLOAD DIV MUL DUP4 MSTORE SWAP2 PUSH1 0x20 ADD SWAP2 PUSH2 0x367 JUMP JUMPDEST DUP3 ADD SWAP2 SWAP1 PUSH1 0x0 MSTORE PUSH1 0x20 PUSH1 0x0 KECCAK256 SWAP1 JUMPDEST DUP2 SLOAD DUP2 MSTORE SWAP1 PUSH1 0x1 ADD SWAP1 PUSH1 0x20 ADD DUP1 DUP4 GT PUSH2 0x34A JUMPI DUP3 SWAP1 SUB PUSH1 0x1F AND DUP3 ADD SWAP2 JUMPDEST POP POP POP POP POP SWAP1 POP DUP3 JUMP JUMPDEST DUP3 DUP1 SLOAD PUSH2 0x37D SWAP1 PUSH2 0x6A6 JUMP JUMPDEST SWAP1 PUSH1 0x0 MSTORE PUSH1 0x20 PUSH1 0x0 KECCAK256 SWAP1 PUSH1 0x1F ADD PUSH1 0x20 SWAP1 DIV DUP2 ADD SWAP3 DUP3 PUSH2 0x39F JUMPI PUSH1 0x0 DUP6 SSTORE PUSH2 0x3E6 JUMP JUMPDEST DUP3 PUSH1 0x1F LT PUSH2 0x3B8 JUMPI DUP1 MLOAD PUSH1 0xFF NOT AND DUP4 DUP1 ADD OR DUP6 SSTORE PUSH2 0x3E6 JUMP JUMPDEST DUP3 DUP1 ADD PUSH1 0x1 ADD DUP6 SSTORE DUP3 ISZERO PUSH2 0x3E6 JUMPI SWAP2 DUP3 ADD JUMPDEST DUP3 DUP2 GT ISZERO PUSH2 0x3E5 JUMPI DUP3 MLOAD DUP3 SSTORE SWAP2 PUSH1 0x20 ADD SWAP2 SWAP1 PUSH1 0x1 ADD SWAP1 PUSH2 0x3CA JUMP JUMPDEST JUMPDEST POP SWAP1 POP PUSH2 0x3F3 SWAP2 SWAP1 PUSH2 0x3F7 JUMP JUMPDEST POP SWAP1 JUMP JUMPDEST JUMPDEST DUP1 DUP3 GT ISZERO PUSH2 0x410 JUMPI PUSH1 0x0 DUP2 PUSH1 0x0 SWAP1 SSTORE POP PUSH1 0x1 ADD PUSH2 0x3F8 JUMP JUMPDEST POP SWAP1 JUMP JUMPDEST PUSH1 0x0 PUSH2 0x427 PUSH2 0x422 DUP5 PUSH2 0x5EF JUMP JUMPDEST PUSH2 0x5CA JUMP JUMPDEST SWAP1 POP DUP1 DUP4 DUP3 MSTORE PUSH1 0x20 DUP3 ADD SWAP1 POP DUP3 DUP6 PUSH1 0x20 DUP7 MUL DUP3 ADD GT ISZERO PUSH2 0x44A JUMPI PUSH2 0x449 PUSH2 0x76C JUMP JUMPDEST JUMPDEST PUSH1 0x0 JUMPDEST DUP6 DUP2 LT ISZERO PUSH2 0x47A JUMPI DUP2 PUSH2 0x460 DUP9 DUP3 PUSH2 0x4C7 JUMP JUMPDEST DUP5 MSTORE PUSH1 0x20 DUP5 ADD SWAP4 POP PUSH1 0x20 DUP4 ADD SWAP3 POP POP PUSH1 0x1 DUP2 ADD SWAP1 POP PUSH2 0x44D JUMP JUMPDEST POP POP POP SWAP4 SWAP3 POP POP POP JUMP JUMPDEST PUSH1 0x0 DUP2 CALLDATALOAD SWAP1 POP PUSH2 0x493 DUP2 PUSH2 0x78C JUMP JUMPDEST SWAP3 SWAP2 POP POP JUMP JUMPDEST PUSH1 0x0 DUP3 PUSH1 0x1F DUP4 ADD SLT PUSH2 0x4AE JUMPI PUSH2 0x4AD PUSH2 0x767 JUMP JUMPDEST JUMPDEST DUP2 CALLDATALOAD PUSH2 0x4BE DUP5 DUP3 PUSH1 0x20 DUP7 ADD PUSH2 0x414 JUMP JUMPDEST SWAP2 POP POP SWAP3 SWAP2 POP POP JUMP JUMPDEST PUSH1 0x0 DUP2 CALLDATALOAD SWAP1 POP PUSH2 0x4D6 DUP2 PUSH2 0x7A3 JUMP JUMPDEST SWAP3 SWAP2 POP POP JUMP JUMPDEST PUSH1 0x0 PUSH1 0x20 DUP3 DUP5 SUB SLT ISZERO PUSH2 0x4F2 JUMPI PUSH2 0x4F1 PUSH2 0x776 JUMP JUMPDEST JUMPDEST PUSH1 0x0 PUSH2 0x500 DUP5 DUP3 DUP6 ADD PUSH2 0x484 JUMP JUMPDEST SWAP2 POP POP SWAP3 SWAP2 POP POP JUMP JUMPDEST PUSH1 0x0 PUSH1 0x20 DUP3 DUP5 SUB SLT ISZERO PUSH2 0x51F JUMPI PUSH2 0x51E PUSH2 0x776 JUMP JUMPDEST JUMPDEST PUSH1 0x0 DUP3 ADD CALLDATALOAD PUSH8 0xFFFFFFFFFFFFFFFF DUP2 GT ISZERO PUSH2 0x53D JUMPI PUSH2 0x53C PUSH2 0x771 JUMP JUMPDEST JUMPDEST PUSH2 0x549 DUP5 DUP3 DUP6 ADD PUSH2 0x499 JUMP JUMPDEST SWAP2 POP POP SWAP3 SWAP2 POP POP JUMP JUMPDEST PUSH1 0x0 PUSH2 0x55D DUP3 PUSH2 0x61B JUMP JUMPDEST PUSH2 0x567 DUP2 DUP6 PUSH2 0x626 JUMP JUMPDEST SWAP4 POP PUSH2 0x577 DUP2 DUP6 PUSH1 0x20 DUP7 ADD PUSH2 0x673 JUMP JUMPDEST PUSH2 0x580 DUP2 PUSH2 0x77B JUMP JUMPDEST DUP5 ADD SWAP2 POP POP SWAP3 SWAP2 POP POP JUMP JUMPDEST PUSH2 0x594 DUP2 PUSH2 0x669 JUMP JUMPDEST DUP3 MSTORE POP POP JUMP JUMPDEST PUSH1 0x0 PUSH1 0x40 DUP3 ADD SWAP1 POP PUSH2 0x5AF PUSH1 0x0 DUP4 ADD DUP6 PUSH2 0x58B JUMP JUMPDEST DUP2 DUP2 SUB PUSH1 0x20 DUP4 ADD MSTORE PUSH2 0x5C1 DUP2 DUP5 PUSH2 0x552 JUMP JUMPDEST SWAP1 POP SWAP4 SWAP3 POP POP POP JUMP JUMPDEST PUSH1 0x0 PUSH2 0x5D4 PUSH2 0x5E5 JUMP JUMPDEST SWAP1 POP PUSH2 0x5E0 DUP3 DUP3 PUSH2 0x6D8 JUMP JUMPDEST SWAP2 SWAP1 POP JUMP JUMPDEST PUSH1 0x0 PUSH1 0x40 MLOAD SWAP1 POP SWAP1 JUMP JUMPDEST PUSH1 0x0 PUSH8 0xFFFFFFFFFFFFFFFF DUP3 GT ISZERO PUSH2 0x60A JUMPI PUSH2 0x609 PUSH2 0x738 JUMP JUMPDEST JUMPDEST PUSH1 0x20 DUP3 MUL SWAP1 POP PUSH1 0x20 DUP2 ADD SWAP1 POP SWAP2 SWAP1 POP JUMP JUMPDEST PUSH1 0x0 DUP2 MLOAD SWAP1 POP SWAP2 SWAP1 POP JUMP JUMPDEST PUSH1 0x0 DUP3 DUP3 MSTORE PUSH1 0x20 DUP3 ADD SWAP1 POP SWAP3 SWAP2 POP POP JUMP JUMPDEST PUSH1 0x0 PUSH2 0x642 DUP3 PUSH2 0x649 JUMP JUMPDEST SWAP1 POP SWAP2 SWAP1 POP JUMP JUMPDEST PUSH1 0x0 PUSH20 0xFFFFFFFFFFFFFFFFFFFFFFFFFFFFFFFFFFFFFFFF DUP3 AND SWAP1 POP SWAP2 SWAP1 POP JUMP JUMPDEST PUSH1 0x0 DUP2 SWAP1 POP SWAP2 SWAP1 POP JUMP JUMPDEST PUSH1 0x0 JUMPDEST DUP4 DUP2 LT ISZERO PUSH2 0x691 JUMPI DUP1 DUP3 ADD MLOAD DUP2 DUP5 ADD MSTORE PUSH1 0x20 DUP2 ADD SWAP1 POP PUSH2 0x676 JUMP JUMPDEST DUP4 DUP2 GT ISZERO PUSH2 0x6A0 JUMPI PUSH1 0x0 DUP5 DUP5 ADD MSTORE JUMPDEST POP POP POP POP JUMP JUMPDEST PUSH1 0x0 PUSH1 0x2 DUP3 DIV SWAP1 POP PUSH1 0x1 DUP3 AND DUP1 PUSH2 0x6BE JUMPI PUSH1 0x7F DUP3 AND SWAP2 POP JUMPDEST PUSH1 0x20 DUP3 LT DUP2 EQ ISZERO PUSH2 0x6D2 JUMPI PUSH2 0x6D1 PUSH2 0x709 JUMP JUMPDEST JUMPDEST POP SWAP2 SWAP1 POP JUMP JUMPDEST PUSH2 0x6E1 DUP3 PUSH2 0x77B JUMP JUMPDEST DUP2 ADD DUP2 DUP2 LT PUSH8 0xFFFFFFFFFFFFFFFF DUP3 GT OR ISZERO PUSH2 0x700 JUMPI PUSH2 0x6FF PUSH2 0x738 JUMP JUMPDEST JUMPDEST DUP1 PUSH1 0x40 MSTORE POP POP POP JUMP JUMPDEST PUSH32 0x4E487B7100000000000000000000000000000000000000000000000000000000 PUSH1 0x0 MSTORE PUSH1 0x22 PUSH1 0x4 MSTORE PUSH1 0x24 PUSH1 0x0 REVERT JUMPDEST PUSH32 0x4E487B7100000000000000000000000000000000000000000000000000000000 PUSH1 0x0 MSTORE PUSH1 0x41 PUSH1 0x4 MSTORE PUSH1 0x24 PUSH1 0x0 REVERT JUMPDEST PUSH1 0x0 DUP1 REVERT JUMPDEST PUSH1 0x0 DUP1 REVERT JUMPDEST PUSH1 0x0 DUP1 REVERT JUMPDEST PUSH1 0x0 DUP1 REVERT JUMPDEST PUSH1 0x0 PUSH1 0x1F NOT PUSH1 0x1F DUP4 ADD AND SWAP1 POP SWAP2 SWAP1 POP JUMP JUMPDEST PUSH2 0x795 DUP2 PUSH2 0x637 JUMP JUMPDEST DUP2 EQ PUSH2 0x7A0 JUMPI PUSH1 0x0 DUP1 REVERT JUMPDEST POP JUMP JUMPDEST PUSH2 0x7AC DUP2 PUSH2 0x669 JUMP JUMPDEST DUP2 EQ PUSH2 0x7B7 JUMPI PUSH1 0x0 DUP1 REVERT JUMPDEST POP JUMP INVALID LOG2 PUSH5 0x6970667358 0x22 SLT KECCAK256 0xB0 NUMBER 0x29 PUSH9 0x359619B7C8DF9AED2F SMOD GASLIMIT 0x2B DUP12 LOG0 0xC7 0x5E BYTE 0xC6 0xD0 EXTCODESIZE PUSH23 0xE07B660FEAEF3F64736F6C634300080700330000000000 "
				},
				"gasEstimates": {
					"creation": {
						"codeDepositCost": "406400",
						"executionCost": "443",
						"totalCost": "406843"
					},
					"external": {
						"examples(uint256[])": "infinite",
						"myStructs(address)": "infinite"
					}
				},
				"methodIdentifiers": {
					"examples(uint256[])": "4fd58b19",
					"myStructs(address)": "b43c5d33"
				}
			},
			"storageLayout": {
				"storage": [
					{
						"astId": 11,
						"contract": "contracts/DataLocations.sol:DataLocations",
						"label": "myStructs",
						"offset": 0,
						"slot": "0",
						"type": "t_mapping(t_address,t_struct(MyStruct)6_storage)"
					}
				],
				"types": {
					"t_address": {
						"encoding": "inplace",
						"label": "address",
						"numberOfBytes": "20"
					},
					"t_mapping(t_address,t_struct(MyStruct)6_storage)": {
						"encoding": "mapping",
						"key": "t_address",
						"label": "mapping(address => struct DataLocations.MyStruct)",
						"numberOfBytes": "32",
						"value": "t_struct(MyStruct)6_storage"
					},
					"t_string_storage": {
						"encoding": "bytes",
						"label": "string",
						"numberOfBytes": "32"
					},
					"t_struct(MyStruct)6_storage": {
						"encoding": "inplace",
						"label": "struct DataLocations.MyStruct",
						"members": [
							{
								"astId": 3,
								"contract": "contracts/DataLocations.sol:DataLocations",
								"label": "foo",
								"offset": 0,
								"slot": "0",
								"type": "t_uint256"
							},
							{
								"astId": 5,
								"contract": "contracts/DataLocations.sol:DataLocations",
								"label": "text",
								"offset": 0,
								"slot": "1",
								"type": "t_string_storage"
							}
						],
						"numberOfBytes": "64"
					},
					"t_uint256": {
						"encoding": "inplace",
						"label": "uint256",
						"numberOfBytes": "32"
					}
				}
			},
			"userdoc": {
				"kind": "user",
				"methods": {},
				"version": 1
			}
		}
	}
}