{
	"contracts/AccessControl.sol": {
		"AccessControl": {
			"abi": [
				{
					"inputs": [
						{
							"internalType": "bytes32",
							"name": "",
							"type": "bytes32"
						},
						{
							"internalType": "address",
							"name": "",
							"type": "address"
						}
					],
					"name": "roles",
					"outputs": [
						{
							"internalType": "bool",
							"name": "",
							"type": "bool"
						}
					],
					"stateMutability": "view",
					"type": "function"
				}
			],
			"devdoc": {
				"kind": "dev",
				"methods": {},
				"version": 1
			},
			"evm": {
				"assembly": "    /* \"contracts/AccessControl.sol\":180:311  contract AccessControl {\r... */\n  mstore(0x40, 0x80)\n  callvalue\n  dup1\n  iszero\n  tag_1\n  jumpi\n  0x00\n  dup1\n  revert\ntag_1:\n  pop\n  dataSize(sub_0)\n  dup1\n  dataOffset(sub_0)\n  0x00\n  codecopy\n  0x00\n  return\nstop\n\nsub_0: assembly {\n        /* \"contracts/AccessControl.sol\":180:311  contract AccessControl {\r... */\n      mstore(0x40, 0x80)\n      callvalue\n      dup1\n      iszero\n      tag_1\n      jumpi\n      0x00\n      dup1\n      revert\n    tag_1:\n      pop\n      jumpi(tag_2, lt(calldatasize, 0x04))\n      shr(0xe0, calldataload(0x00))\n      dup1\n      0xf8fc08b9\n      eq\n      tag_3\n      jumpi\n    tag_2:\n      0x00\n      dup1\n      revert\n        /* \"contracts/AccessControl.sol\":242:299  mapping(bytes32 => mapping(address => bool)) public roles */\n    tag_3:\n      tag_4\n      0x04\n      dup1\n      calldatasize\n      sub\n      dup2\n      add\n      swap1\n      tag_5\n      swap2\n      swap1\n      tag_6\n      jump\t// in\n    tag_5:\n      tag_7\n      jump\t// in\n    tag_4:\n      mload(0x40)\n      tag_8\n      swap2\n      swap1\n      tag_9\n      jump\t// in\n    tag_8:\n      mload(0x40)\n      dup1\n      swap2\n      sub\n      swap1\n      return\n    tag_7:\n      mstore(0x20, 0x00)\n      dup2\n      0x00\n      mstore\n      mstore(0x20, keccak256(0x00, 0x40))\n      dup1\n      0x00\n      mstore\n      keccak256(0x00, 0x40)\n      0x00\n      swap2\n      pop\n      swap2\n      pop\n      swap1\n      sload\n      swap1\n      0x0100\n      exp\n      swap1\n      div\n      0xff\n      and\n      dup2\n      jump\t// out\n        /* \"#utility.yul\":7:146   */\n    tag_11:\n        /* \"#utility.yul\":53:58   */\n      0x00\n        /* \"#utility.yul\":91:97   */\n      dup2\n        /* \"#utility.yul\":78:98   */\n      calldataload\n        /* \"#utility.yul\":69:98   */\n      swap1\n      pop\n        /* \"#utility.yul\":107:140   */\n      tag_13\n        /* \"#utility.yul\":134:139   */\n      dup2\n        /* \"#utility.yul\":107:140   */\n      tag_14\n      jump\t// in\n    tag_13:\n        /* \"#utility.yul\":7:146   */\n      swap3\n      swap2\n      pop\n      pop\n      jump\t// out\n        /* \"#utility.yul\":152:291   */\n    tag_15:\n        /* \"#utility.yul\":198:203   */\n      0x00\n        /* \"#utility.yul\":236:242   */\n      dup2\n        /* \"#utility.yul\":223:243   */\n      calldataload\n        /* \"#utility.yul\":214:243   */\n      swap1\n      pop\n        /* \"#utility.yul\":252:285   */\n      tag_17\n        /* \"#utility.yul\":279:284   */\n      dup2\n        /* \"#utility.yul\":252:285   */\n      tag_18\n      jump\t// in\n    tag_17:\n        /* \"#utility.yul\":152:291   */\n      swap3\n      swap2\n      pop\n      pop\n      jump\t// out\n        /* \"#utility.yul\":297:771   */\n    tag_6:\n        /* \"#utility.yul\":365:371   */\n      0x00\n        /* \"#utility.yul\":373:379   */\n      dup1\n        /* \"#utility.yul\":422:424   */\n      0x40\n        /* \"#utility.yul\":410:419   */\n      dup4\n        /* \"#utility.yul\":401:408   */\n      dup6\n        /* \"#utility.yul\":397:420   */\n      sub\n        /* \"#utility.yul\":393:425   */\n      slt\n        /* \"#utility.yul\":390:509   */\n      iszero\n      tag_20\n      jumpi\n        /* \"#utility.yul\":428:507   */\n      tag_21\n      tag_22\n      jump\t// in\n    tag_21:\n        /* \"#utility.yul\":390:509   */\n    tag_20:\n        /* \"#utility.yul\":548:549   */\n      0x00\n        /* \"#utility.yul\":573:626   */\n      tag_23\n        /* \"#utility.yul\":618:625   */\n      dup6\n        /* \"#utility.yul\":609:615   */\n      dup3\n        /* \"#utility.yul\":598:607   */\n      dup7\n        /* \"#utility.yul\":594:616   */\n      add\n        /* \"#utility.yul\":573:626   */\n      tag_15\n      jump\t// in\n    tag_23:\n        /* \"#utility.yul\":563:626   */\n      swap3\n      pop\n        /* \"#utility.yul\":519:636   */\n      pop\n        /* \"#utility.yul\":675:677   */\n      0x20\n        /* \"#utility.yul\":701:754   */\n      tag_24\n        /* \"#utility.yul\":746:753   */\n      dup6\n        /* \"#utility.yul\":737:743   */\n      dup3\n        /* \"#utility.yul\":726:735   */\n      dup7\n        /* \"#utility.yul\":722:744   */\n      add\n        /* \"#utility.yul\":701:754   */\n      tag_11\n      jump\t// in\n    tag_24:\n        /* \"#utility.yul\":691:754   */\n      swap2\n      pop\n        /* \"#utility.yul\":646:764   */\n      pop\n        /* \"#utility.yul\":297:771   */\n      swap3\n      pop\n      swap3\n      swap1\n      pop\n      jump\t// out\n        /* \"#utility.yul\":777:886   */\n    tag_25:\n        /* \"#utility.yul\":858:879   */\n      tag_27\n        /* \"#utility.yul\":873:878   */\n      dup2\n        /* \"#utility.yul\":858:879   */\n      tag_28\n      jump\t// in\n    tag_27:\n        /* \"#utility.yul\":853:856   */\n      dup3\n        /* \"#utility.yul\":846:880   */\n      mstore\n        /* \"#utility.yul\":777:886   */\n      pop\n      pop\n      jump\t// out\n        /* \"#utility.yul\":892:1102   */\n    tag_9:\n        /* \"#utility.yul\":979:983   */\n      0x00\n        /* \"#utility.yul\":1017:1019   */\n      0x20\n        /* \"#utility.yul\":1006:1015   */\n      dup3\n        /* \"#utility.yul\":1002:1020   */\n      add\n        /* \"#utility.yul\":994:1020   */\n      swap1\n      pop\n        /* \"#utility.yul\":1030:1095   */\n      tag_30\n        /* \"#utility.yul\":1092:1093   */\n      0x00\n        /* \"#utility.yul\":1081:1090   */\n      dup4\n        /* \"#utility.yul\":1077:1094   */\n      add\n        /* \"#utility.yul\":1068:1074   */\n      dup5\n        /* \"#utility.yul\":1030:1095   */\n      tag_25\n      jump\t// in\n    tag_30:\n        /* \"#utility.yul\":892:1102   */\n      swap3\n      swap2\n      pop\n      pop\n      jump\t// out\n        /* \"#utility.yul\":1189:1285   */\n    tag_33:\n        /* \"#utility.yul\":1226:1233   */\n      0x00\n        /* \"#utility.yul\":1255:1279   */\n      tag_35\n        /* \"#utility.yul\":1273:1278   */\n      dup3\n        /* \"#utility.yul\":1255:1279   */\n      tag_36\n      jump\t// in\n    tag_35:\n        /* \"#utility.yul\":1244:1279   */\n      swap1\n      pop\n        /* \"#utility.yul\":1189:1285   */\n      swap2\n      swap1\n      pop\n      jump\t// out\n        /* \"#utility.yul\":1291:1381   */\n    tag_28:\n        /* \"#utility.yul\":1325:1332   */\n      0x00\n        /* \"#utility.yul\":1368:1373   */\n      dup2\n        /* \"#utility.yul\":1361:1374   */\n      iszero\n        /* \"#utility.yul\":1354:1375   */\n      iszero\n        /* \"#utility.yul\":1343:1375   */\n      swap1\n      pop\n        /* \"#utility.yul\":1291:1381   */\n      swap2\n      swap1\n      pop\n      jump\t// out\n        /* \"#utility.yul\":1387:1464   */\n    tag_38:\n        /* \"#utility.yul\":1424:1431   */\n      0x00\n        /* \"#utility.yul\":1453:1458   */\n      dup2\n        /* \"#utility.yul\":1442:1458   */\n      swap1\n      pop\n        /* \"#utility.yul\":1387:1464   */\n      swap2\n      swap1\n      pop\n      jump\t// out\n        /* \"#utility.yul\":1470:1596   */\n    tag_36:\n        /* \"#utility.yul\":1507:1514   */\n      0x00\n        /* \"#utility.yul\":1547:1589   */\n      0xffffffffffffffffffffffffffffffffffffffff\n        /* \"#utility.yul\":1540:1545   */\n      dup3\n        /* \"#utility.yul\":1536:1590   */\n      and\n        /* \"#utility.yul\":1525:1590   */\n      swap1\n      pop\n        /* \"#utility.yul\":1470:1596   */\n      swap2\n      swap1\n      pop\n      jump\t// out\n        /* \"#utility.yul\":1725:1842   */\n    tag_22:\n        /* \"#utility.yul\":1834:1835   */\n      0x00\n        /* \"#utility.yul\":1831:1832   */\n      dup1\n        /* \"#utility.yul\":1824:1836   */\n      revert\n        /* \"#utility.yul\":1848:1970   */\n    tag_14:\n        /* \"#utility.yul\":1921:1945   */\n      tag_45\n        /* \"#utility.yul\":1939:1944   */\n      dup2\n        /* \"#utility.yul\":1921:1945   */\n      tag_33\n      jump\t// in\n    tag_45:\n        /* \"#utility.yul\":1914:1919   */\n      dup2\n        /* \"#utility.yul\":1911:1946   */\n      eq\n        /* \"#utility.yul\":1901:1964   */\n      tag_46\n      jumpi\n        /* \"#utility.yul\":1960:1961   */\n      0x00\n        /* \"#utility.yul\":1957:1958   */\n      dup1\n        /* \"#utility.yul\":1950:1962   */\n      revert\n        /* \"#utility.yul\":1901:1964   */\n    tag_46:\n        /* \"#utility.yul\":1848:1970   */\n      pop\n      jump\t// out\n        /* \"#utility.yul\":1976:2098   */\n    tag_18:\n        /* \"#utility.yul\":2049:2073   */\n      tag_48\n        /* \"#utility.yul\":2067:2072   */\n      dup2\n        /* \"#utility.yul\":2049:2073   */\n      tag_38\n      jump\t// in\n    tag_48:\n        /* \"#utility.yul\":2042:2047   */\n      dup2\n        /* \"#utility.yul\":2039:2074   */\n      eq\n        /* \"#utility.yul\":2029:2092   */\n      tag_49\n      jumpi\n        /* \"#utility.yul\":2088:2089   */\n      0x00\n        /* \"#utility.yul\":2085:2086   */\n      dup1\n        /* \"#utility.yul\":2078:2090   */\n      revert\n        /* \"#utility.yul\":2029:2092   */\n    tag_49:\n        /* \"#utility.yul\":1976:2098   */\n      pop\n      jump\t// out\n\n    auxdata: 0xa2646970667358221220125f164d6909afcdaa3fe325fd0e5820433713b4f724264fe984ac294ae3ffa664736f6c63430008070033\n}\n",
				"bytecode": {
					"linkReferences": {},
					"object": "608060405234801561001057600080fd5b506101d4806100206000396000f3fe608060405234801561001057600080fd5b506004361061002b5760003560e01c8063f8fc08b914610030575b600080fd5b61004a600480360381019061004591906100b9565b610060565b6040516100579190610108565b60405180910390f35b60006020528160005260406000206020528060005260406000206000915091509054906101000a900460ff1681565b60008135905061009e81610170565b92915050565b6000813590506100b381610187565b92915050565b600080604083850312156100d0576100cf61016b565b5b60006100de858286016100a4565b92505060206100ef8582860161008f565b9150509250929050565b61010281610135565b82525050565b600060208201905061011d60008301846100f9565b92915050565b600061012e8261014b565b9050919050565b60008115159050919050565b6000819050919050565b600073ffffffffffffffffffffffffffffffffffffffff82169050919050565b600080fd5b61017981610123565b811461018457600080fd5b50565b61019081610141565b811461019b57600080fd5b5056fea2646970667358221220125f164d6909afcdaa3fe325fd0e5820433713b4f724264fe984ac294ae3ffa664736f6c63430008070033",
					"opcodes": "PUSH1 0x80 PUSH1 0x40 MSTORE CALLVALUE DUP1 ISZERO PUSH2 0x10 JUMPI PUSH1 0x0 DUP1 REVERT JUMPDEST POP PUSH2 0x1D4 DUP1 PUSH2 0x20 PUSH1 0x0 CODECOPY PUSH1 0x0 RETURN INVALID PUSH1 0x80 PUSH1 0x40 MSTORE CALLVALUE DUP1 ISZERO PUSH2 0x10 JUMPI PUSH1 0x0 DUP1 REVERT JUMPDEST POP PUSH1 0x4 CALLDATASIZE LT PUSH2 0x2B JUMPI PUSH1 0x0 CALLDATALOAD PUSH1 0xE0 SHR DUP1 PUSH4 0xF8FC08B9 EQ PUSH2 0x30 JUMPI JUMPDEST PUSH1 0x0 DUP1 REVERT JUMPDEST PUSH2 0x4A PUSH1 0x4 DUP1 CALLDATASIZE SUB DUP2 ADD SWAP1 PUSH2 0x45 SWAP2 SWAP1 PUSH2 0xB9 JUMP JUMPDEST PUSH2 0x60 JUMP JUMPDEST PUSH1 0x40 MLOAD PUSH2 0x57 SWAP2 SWAP1 PUSH2 0x108 JUMP JUMPDEST PUSH1 0x40 MLOAD DUP1 SWAP2 SUB SWAP1 RETURN JUMPDEST PUSH1 0x0 PUSH1 0x20 MSTORE DUP2 PUSH1 0x0 MSTORE PUSH1 0x40 PUSH1 0x0 KECCAK256 PUSH1 0x20 MSTORE DUP1 PUSH1 0x0 MSTORE PUSH1 0x40 PUSH1 0x0 KECCAK256 PUSH1 0x0 SWAP2 POP SWAP2 POP SWAP1 SLOAD SWAP1 PUSH2 0x100 EXP SWAP1 DIV PUSH1 0xFF AND DUP2 JUMP JUMPDEST PUSH1 0x0 DUP2 CALLDATALOAD SWAP1 POP PUSH2 0x9E DUP2 PUSH2 0x170 JUMP JUMPDEST SWAP3 SWAP2 POP POP JUMP JUMPDEST PUSH1 0x0 DUP2 CALLDATALOAD SWAP1 POP PUSH2 0xB3 DUP2 PUSH2 0x187 JUMP JUMPDEST SWAP3 SWAP2 POP POP JUMP JUMPDEST PUSH1 0x0 DUP1 PUSH1 0x40 DUP4 DUP6 SUB SLT ISZERO PUSH2 0xD0 JUMPI PUSH2 0xCF PUSH2 0x16B JUMP JUMPDEST JUMPDEST PUSH1 0x0 PUSH2 0xDE DUP6 DUP3 DUP7 ADD PUSH2 0xA4 JUMP JUMPDEST SWAP3 POP POP PUSH1 0x20 PUSH2 0xEF DUP6 DUP3 DUP7 ADD PUSH2 0x8F JUMP JUMPDEST SWAP2 POP POP SWAP3 POP SWAP3 SWAP1 POP JUMP JUMPDEST PUSH2 0x102 DUP2 PUSH2 0x135 JUMP JUMPDEST DUP3 MSTORE POP POP JUMP JUMPDEST PUSH1 0x0 PUSH1 0x20 DUP3 ADD SWAP1 POP PUSH2 0x11D PUSH1 0x0 DUP4 ADD DUP5 PUSH2 0xF9 JUMP JUMPDEST SWAP3 SWAP2 POP POP JUMP JUMPDEST PUSH1 0x0 PUSH2 0x12E DUP3 PUSH2 0x14B JUMP JUMPDEST SWAP1 POP SWAP2 SWAP1 POP JUMP JUMPDEST PUSH1 0x0 DUP2 ISZERO ISZERO SWAP1 POP SWAP2 SWAP1 POP JUMP JUMPDEST PUSH1 0x0 DUP2 SWAP1 POP SWAP2 SWAP1 POP JUMP JUMPDEST PUSH1 0x0 PUSH20 0xFFFFFFFFFFFFFFFFFFFFFFFFFFFFFFFFFFFFFFFF DUP3 AND SWAP1 POP SWAP2 SWAP1 POP JUMP JUMPDEST PUSH1 0x0 DUP1 REVERT JUMPDEST PUSH2 0x179 DUP2 PUSH2 0x123 JUMP JUMPDEST DUP2 EQ PUSH2 0x184 JUMPI PUSH1 0x0 DUP1 REVERT JUMPDEST POP JUMP JUMPDEST PUSH2 0x190 DUP2 PUSH2 0x141 JUMP JUMPDEST DUP2 EQ PUSH2 0x19B JUMPI PUSH1 0x0 DUP1 REVERT JUMPDEST POP JUMP INVALID LOG2 PUSH5 0x6970667358 0x22 SLT KECCAK256 SLT 0x5F AND 0x4D PUSH10 0x9AFCDAA3FE325FD0E58 KECCAK256 NUMBER CALLDATACOPY SGT 0xB4 0xF7 0x24 0x26 0x4F 0xE9 DUP5 0xAC 0x29 0x4A 0xE3 SELFDESTRUCT 0xA6 PUSH5 0x736F6C6343 STOP ADDMOD SMOD STOP CALLER "
				},
				"gasEstimates": {
					"creation": {
						"codeDepositCost": "93600",
						"executionCost": "141",
						"totalCost": "93741"
					},
					"external": {
						"roles(bytes32,address)": "3065"
					}
				},
				"methodIdentifiers": {
					"roles(bytes32,address)": "f8fc08b9"
				}
			},
			"storageLayout": {
				"storage": [
					{
						"astId": 7,
						"contract": "contracts/AccessControl.sol:AccessControl",
						"label": "roles",
						"offset": 0,
						"slot": "0",
						"type": "t_mapping(t_bytes32,t_mapping(t_address,t_bool))"
					}
				],
				"types": {
					"t_address": {
						"encoding": "inplace",
						"label": "address",
						"numberOfBytes": "20"
					},
					"t_bool": {
						"encoding": "inplace",
						"label": "bool",
						"numberOfBytes": "1"
					},
					"t_bytes32": {
						"encoding": "inplace",
						"label": "bytes32",
						"numberOfBytes": "32"
					},
					"t_mapping(t_address,t_bool)": {
						"encoding": "mapping",
						"key": "t_address",
						"label": "mapping(address => bool)",
						"numberOfBytes": "32",
						"value": "t_bool"
					},
					"t_mapping(t_bytes32,t_mapping(t_address,t_bool))": {
						"encoding": "mapping",
						"key": "t_bytes32",
						"label": "mapping(bytes32 => mapping(address => bool))",
						"numberOfBytes": "32",
						"value": "t_mapping(t_address,t_bool)"
					}
				}
			},
			"userdoc": {
				"kind": "user",
				"methods": {},
				"version": 1
			}
		}
	}
}