{
	"contracts/CoallOtherContracts.sol": {
		"CallTestContract": {
			"abi": [
				{
					"inputs": [
						{
							"internalType": "contract TestContract",
							"name": "_test",
							"type": "address"
						},
						{
							"internalType": "uint256",
							"name": "_x",
							"type": "uint256"
						}
					],
					"name": "setX",
					"outputs": [],
					"stateMutability": "nonpayable",
					"type": "function"
				}
			],
			"devdoc": {
				"kind": "dev",
				"methods": {},
				"version": 1
			},
			"evm": {
				"assembly": "    /* \"contracts/CoallOtherContracts.sol\":60:186  contract CallTestContract {\r... */\n  mstore(0x40, 0x80)\n  callvalue\n  dup1\n  iszero\n  tag_1\n  jumpi\n  0x00\n  dup1\n  revert\ntag_1:\n  pop\n  dataSize(sub_0)\n  dup1\n  dataOffset(sub_0)\n  0x00\n  codecopy\n  0x00\n  return\nstop\n\nsub_0: assembly {\n        /* \"contracts/CoallOtherContracts.sol\":60:186  contract CallTestContract {\r... */\n      mstore(0x40, 0x80)\n      callvalue\n      dup1\n      iszero\n      tag_1\n      jumpi\n      0x00\n      dup1\n      revert\n    tag_1:\n      pop\n      jumpi(tag_2, lt(calldatasize, 0x04))\n      shr(0xe0, calldataload(0x00))\n      dup1\n      0x4a2ad99f\n      eq\n      tag_3\n      jumpi\n    tag_2:\n      0x00\n      dup1\n      revert\n        /* \"contracts/CoallOtherContracts.sol\":93:177  function setX(TestContract _test, uint _x) external {\r... */\n    tag_3:\n      tag_4\n      0x04\n      dup1\n      calldatasize\n      sub\n      dup2\n      add\n      swap1\n      tag_5\n      swap2\n      swap1\n      tag_6\n      jump\t// in\n    tag_5:\n      tag_7\n      jump\t// in\n    tag_4:\n      stop\n    tag_7:\n        /* \"contracts/CoallOtherContracts.sol\":155:160  _test */\n      dup2\n        /* \"contracts/CoallOtherContracts.sol\":155:165  _test.setX */\n      0xffffffffffffffffffffffffffffffffffffffff\n      and\n      0x4018d9aa\n        /* \"contracts/CoallOtherContracts.sol\":166:168  _x */\n      dup3\n        /* \"contracts/CoallOtherContracts.sol\":155:169  _test.setX(_x) */\n      mload(0x40)\n      dup3\n      0xffffffff\n      and\n      0xe0\n      shl\n      dup2\n      mstore\n      0x04\n      add\n      tag_9\n      swap2\n      swap1\n      tag_10\n      jump\t// in\n    tag_9:\n      0x00\n      mload(0x40)\n      dup1\n      dup4\n      sub\n      dup2\n      0x00\n      dup8\n      dup1\n      extcodesize\n      iszero\n      dup1\n      iszero\n      tag_11\n      jumpi\n      0x00\n      dup1\n      revert\n    tag_11:\n      pop\n      gas\n      call\n      iszero\n      dup1\n      iszero\n      tag_13\n      jumpi\n      returndatasize\n      0x00\n      dup1\n      returndatacopy\n      revert(0x00, returndatasize)\n    tag_13:\n      pop\n      pop\n      pop\n      pop\n        /* \"contracts/CoallOtherContracts.sol\":93:177  function setX(TestContract _test, uint _x) external {\r... */\n      pop\n      pop\n      jump\t// out\n        /* \"#utility.yul\":7:184   */\n    tag_15:\n        /* \"#utility.yul\":72:77   */\n      0x00\n        /* \"#utility.yul\":110:116   */\n      dup2\n        /* \"#utility.yul\":97:117   */\n      calldataload\n        /* \"#utility.yul\":88:117   */\n      swap1\n      pop\n        /* \"#utility.yul\":126:178   */\n      tag_17\n        /* \"#utility.yul\":172:177   */\n      dup2\n        /* \"#utility.yul\":126:178   */\n      tag_18\n      jump\t// in\n    tag_17:\n        /* \"#utility.yul\":7:184   */\n      swap3\n      swap2\n      pop\n      pop\n      jump\t// out\n        /* \"#utility.yul\":190:329   */\n    tag_19:\n        /* \"#utility.yul\":236:241   */\n      0x00\n        /* \"#utility.yul\":274:280   */\n      dup2\n        /* \"#utility.yul\":261:281   */\n      calldataload\n        /* \"#utility.yul\":252:281   */\n      swap1\n      pop\n        /* \"#utility.yul\":290:323   */\n      tag_21\n        /* \"#utility.yul\":317:322   */\n      dup2\n        /* \"#utility.yul\":290:323   */\n      tag_22\n      jump\t// in\n    tag_21:\n        /* \"#utility.yul\":190:329   */\n      swap3\n      swap2\n      pop\n      pop\n      jump\t// out\n        /* \"#utility.yul\":335:847   */\n    tag_6:\n        /* \"#utility.yul\":422:428   */\n      0x00\n        /* \"#utility.yul\":430:436   */\n      dup1\n        /* \"#utility.yul\":479:481   */\n      0x40\n        /* \"#utility.yul\":467:476   */\n      dup4\n        /* \"#utility.yul\":458:465   */\n      dup6\n        /* \"#utility.yul\":454:477   */\n      sub\n        /* \"#utility.yul\":450:482   */\n      slt\n        /* \"#utility.yul\":447:566   */\n      iszero\n      tag_24\n      jumpi\n        /* \"#utility.yul\":485:564   */\n      tag_25\n      tag_26\n      jump\t// in\n    tag_25:\n        /* \"#utility.yul\":447:566   */\n    tag_24:\n        /* \"#utility.yul\":605:606   */\n      0x00\n        /* \"#utility.yul\":630:702   */\n      tag_27\n        /* \"#utility.yul\":694:701   */\n      dup6\n        /* \"#utility.yul\":685:691   */\n      dup3\n        /* \"#utility.yul\":674:683   */\n      dup7\n        /* \"#utility.yul\":670:692   */\n      add\n        /* \"#utility.yul\":630:702   */\n      tag_15\n      jump\t// in\n    tag_27:\n        /* \"#utility.yul\":620:702   */\n      swap3\n      pop\n        /* \"#utility.yul\":576:712   */\n      pop\n        /* \"#utility.yul\":751:753   */\n      0x20\n        /* \"#utility.yul\":777:830   */\n      tag_28\n        /* \"#utility.yul\":822:829   */\n      dup6\n        /* \"#utility.yul\":813:819   */\n      dup3\n        /* \"#utility.yul\":802:811   */\n      dup7\n        /* \"#utility.yul\":798:820   */\n      add\n        /* \"#utility.yul\":777:830   */\n      tag_19\n      jump\t// in\n    tag_28:\n        /* \"#utility.yul\":767:830   */\n      swap2\n      pop\n        /* \"#utility.yul\":722:840   */\n      pop\n        /* \"#utility.yul\":335:847   */\n      swap3\n      pop\n      swap3\n      swap1\n      pop\n      jump\t// out\n        /* \"#utility.yul\":853:971   */\n    tag_29:\n        /* \"#utility.yul\":940:964   */\n      tag_31\n        /* \"#utility.yul\":958:963   */\n      dup2\n        /* \"#utility.yul\":940:964   */\n      tag_32\n      jump\t// in\n    tag_31:\n        /* \"#utility.yul\":935:938   */\n      dup3\n        /* \"#utility.yul\":928:965   */\n      mstore\n        /* \"#utility.yul\":853:971   */\n      pop\n      pop\n      jump\t// out\n        /* \"#utility.yul\":977:1199   */\n    tag_10:\n        /* \"#utility.yul\":1070:1074   */\n      0x00\n        /* \"#utility.yul\":1108:1110   */\n      0x20\n        /* \"#utility.yul\":1097:1106   */\n      dup3\n        /* \"#utility.yul\":1093:1111   */\n      add\n        /* \"#utility.yul\":1085:1111   */\n      swap1\n      pop\n        /* \"#utility.yul\":1121:1192   */\n      tag_34\n        /* \"#utility.yul\":1189:1190   */\n      0x00\n        /* \"#utility.yul\":1178:1187   */\n      dup4\n        /* \"#utility.yul\":1174:1191   */\n      add\n        /* \"#utility.yul\":1165:1171   */\n      dup5\n        /* \"#utility.yul\":1121:1192   */\n      tag_29\n      jump\t// in\n    tag_34:\n        /* \"#utility.yul\":977:1199   */\n      swap3\n      swap2\n      pop\n      pop\n      jump\t// out\n        /* \"#utility.yul\":1286:1382   */\n    tag_37:\n        /* \"#utility.yul\":1323:1330   */\n      0x00\n        /* \"#utility.yul\":1352:1376   */\n      tag_39\n        /* \"#utility.yul\":1370:1375   */\n      dup3\n        /* \"#utility.yul\":1352:1376   */\n      tag_40\n      jump\t// in\n    tag_39:\n        /* \"#utility.yul\":1341:1376   */\n      swap1\n      pop\n        /* \"#utility.yul\":1286:1382   */\n      swap2\n      swap1\n      pop\n      jump\t// out\n        /* \"#utility.yul\":1388:1503   */\n    tag_41:\n        /* \"#utility.yul\":1444:1451   */\n      0x00\n        /* \"#utility.yul\":1473:1497   */\n      tag_43\n        /* \"#utility.yul\":1491:1496   */\n      dup3\n        /* \"#utility.yul\":1473:1497   */\n      tag_37\n      jump\t// in\n    tag_43:\n        /* \"#utility.yul\":1462:1497   */\n      swap1\n      pop\n        /* \"#utility.yul\":1388:1503   */\n      swap2\n      swap1\n      pop\n      jump\t// out\n        /* \"#utility.yul\":1509:1635   */\n    tag_40:\n        /* \"#utility.yul\":1546:1553   */\n      0x00\n        /* \"#utility.yul\":1586:1628   */\n      0xffffffffffffffffffffffffffffffffffffffff\n        /* \"#utility.yul\":1579:1584   */\n      dup3\n        /* \"#utility.yul\":1575:1629   */\n      and\n        /* \"#utility.yul\":1564:1629   */\n      swap1\n      pop\n        /* \"#utility.yul\":1509:1635   */\n      swap2\n      swap1\n      pop\n      jump\t// out\n        /* \"#utility.yul\":1641:1718   */\n    tag_32:\n        /* \"#utility.yul\":1678:1685   */\n      0x00\n        /* \"#utility.yul\":1707:1712   */\n      dup2\n        /* \"#utility.yul\":1696:1712   */\n      swap1\n      pop\n        /* \"#utility.yul\":1641:1718   */\n      swap2\n      swap1\n      pop\n      jump\t// out\n        /* \"#utility.yul\":1847:1964   */\n    tag_26:\n        /* \"#utility.yul\":1956:1957   */\n      0x00\n        /* \"#utility.yul\":1953:1954   */\n      dup1\n        /* \"#utility.yul\":1946:1958   */\n      revert\n        /* \"#utility.yul\":1970:2130   */\n    tag_18:\n        /* \"#utility.yul\":2062:2105   */\n      tag_50\n        /* \"#utility.yul\":2099:2104   */\n      dup2\n        /* \"#utility.yul\":2062:2105   */\n      tag_41\n      jump\t// in\n    tag_50:\n        /* \"#utility.yul\":2055:2060   */\n      dup2\n        /* \"#utility.yul\":2052:2106   */\n      eq\n        /* \"#utility.yul\":2042:2124   */\n      tag_51\n      jumpi\n        /* \"#utility.yul\":2120:2121   */\n      0x00\n        /* \"#utility.yul\":2117:2118   */\n      dup1\n        /* \"#utility.yul\":2110:2122   */\n      revert\n        /* \"#utility.yul\":2042:2124   */\n    tag_51:\n        /* \"#utility.yul\":1970:2130   */\n      pop\n      jump\t// out\n        /* \"#utility.yul\":2136:2258   */\n    tag_22:\n        /* \"#utility.yul\":2209:2233   */\n      tag_53\n        /* \"#utility.yul\":2227:2232   */\n      dup2\n        /* \"#utility.yul\":2209:2233   */\n      tag_32\n      jump\t// in\n    tag_53:\n        /* \"#utility.yul\":2202:2207   */\n      dup2\n        /* \"#utility.yul\":2199:2234   */\n      eq\n        /* \"#utility.yul\":2189:2252   */\n      tag_54\n      jumpi\n        /* \"#utility.yul\":2248:2249   */\n      0x00\n        /* \"#utility.yul\":2245:2246   */\n      dup1\n        /* \"#utility.yul\":2238:2250   */\n      revert\n        /* \"#utility.yul\":2189:2252   */\n    tag_54:\n        /* \"#utility.yul\":2136:2258   */\n      pop\n      jump\t// out\n\n    auxdata: 0xa264697066735822122068410300842dbe71f5ace2ff7f9ccdcd1c90c2ce25a77c2ab12e4a3464e8e0d264736f6c63430008070033\n}\n",
				"bytecode": {
					"linkReferences": {},
					"object": "608060405234801561001057600080fd5b50610206806100206000396000f3fe608060405234801561001057600080fd5b506004361061002b5760003560e01c80634a2ad99f14610030575b600080fd5b61004a600480360381019061004591906100e5565b61004c565b005b8173ffffffffffffffffffffffffffffffffffffffff16634018d9aa826040518263ffffffff1660e01b81526004016100859190610134565b600060405180830381600087803b15801561009f57600080fd5b505af11580156100b3573d6000803e3d6000fd5b505050505050565b6000813590506100ca816101a2565b92915050565b6000813590506100df816101b9565b92915050565b600080604083850312156100fc576100fb61019d565b5b600061010a858286016100bb565b925050602061011b858286016100d0565b9150509250929050565b61012e81610193565b82525050565b60006020820190506101496000830184610125565b92915050565b600061015a82610173565b9050919050565b600061016c8261014f565b9050919050565b600073ffffffffffffffffffffffffffffffffffffffff82169050919050565b6000819050919050565b600080fd5b6101ab81610161565b81146101b657600080fd5b50565b6101c281610193565b81146101cd57600080fd5b5056fea264697066735822122068410300842dbe71f5ace2ff7f9ccdcd1c90c2ce25a77c2ab12e4a3464e8e0d264736f6c63430008070033",
					"opcodes": "PUSH1 0x80 PUSH1 0x40 MSTORE CALLVALUE DUP1 ISZERO PUSH2 0x10 JUMPI PUSH1 0x0 DUP1 REVERT JUMPDEST POP PUSH2 0x206 DUP1 PUSH2 0x20 PUSH1 0x0 CODECOPY PUSH1 0x0 RETURN INVALID PUSH1 0x80 PUSH1 0x40 MSTORE CALLVALUE DUP1 ISZERO PUSH2 0x10 JUMPI PUSH1 0x0 DUP1 REVERT JUMPDEST POP PUSH1 0x4 CALLDATASIZE LT PUSH2 0x2B JUMPI PUSH1 0x0 CALLDATALOAD PUSH1 0xE0 SHR DUP1 PUSH4 0x4A2AD99F EQ PUSH2 0x30 JUMPI JUMPDEST PUSH1 0x0 DUP1 REVERT JUMPDEST PUSH2 0x4A PUSH1 0x4 DUP1 CALLDATASIZE SUB DUP2 ADD SWAP1 PUSH2 0x45 SWAP2 SWAP1 PUSH2 0xE5 JUMP JUMPDEST PUSH2 0x4C JUMP JUMPDEST STOP JUMPDEST DUP2 PUSH20 0xFFFFFFFFFFFFFFFFFFFFFFFFFFFFFFFFFFFFFFFF AND PUSH4 0x4018D9AA DUP3 PUSH1 0x40 MLOAD DUP3 PUSH4 0xFFFFFFFF AND PUSH1 0xE0 SHL DUP2 MSTORE PUSH1 0x4 ADD PUSH2 0x85 SWAP2 SWAP1 PUSH2 0x134 JUMP JUMPDEST PUSH1 0x0 PUSH1 0x40 MLOAD DUP1 DUP4 SUB DUP2 PUSH1 0x0 DUP8 DUP1 EXTCODESIZE ISZERO DUP1 ISZERO PUSH2 0x9F JUMPI PUSH1 0x0 DUP1 REVERT JUMPDEST POP GAS CALL ISZERO DUP1 ISZERO PUSH2 0xB3 JUMPI RETURNDATASIZE PUSH1 0x0 DUP1 RETURNDATACOPY RETURNDATASIZE PUSH1 0x0 REVERT JUMPDEST POP POP POP POP POP POP JUMP JUMPDEST PUSH1 0x0 DUP2 CALLDATALOAD SWAP1 POP PUSH2 0xCA DUP2 PUSH2 0x1A2 JUMP JUMPDEST SWAP3 SWAP2 POP POP JUMP JUMPDEST PUSH1 0x0 DUP2 CALLDATALOAD SWAP1 POP PUSH2 0xDF DUP2 PUSH2 0x1B9 JUMP JUMPDEST SWAP3 SWAP2 POP POP JUMP JUMPDEST PUSH1 0x0 DUP1 PUSH1 0x40 DUP4 DUP6 SUB SLT ISZERO PUSH2 0xFC JUMPI PUSH2 0xFB PUSH2 0x19D JUMP JUMPDEST JUMPDEST PUSH1 0x0 PUSH2 0x10A DUP6 DUP3 DUP7 ADD PUSH2 0xBB JUMP JUMPDEST SWAP3 POP POP PUSH1 0x20 PUSH2 0x11B DUP6 DUP3 DUP7 ADD PUSH2 0xD0 JUMP JUMPDEST SWAP2 POP POP SWAP3 POP SWAP3 SWAP1 POP JUMP JUMPDEST PUSH2 0x12E DUP2 PUSH2 0x193 JUMP JUMPDEST DUP3 MSTORE POP POP JUMP JUMPDEST PUSH1 0x0 PUSH1 0x20 DUP3 ADD SWAP1 POP PUSH2 0x149 PUSH1 0x0 DUP4 ADD DUP5 PUSH2 0x125 JUMP JUMPDEST SWAP3 SWAP2 POP POP JUMP JUMPDEST PUSH1 0x0 PUSH2 0x15A DUP3 PUSH2 0x173 JUMP JUMPDEST SWAP1 POP SWAP2 SWAP1 POP JUMP JUMPDEST PUSH1 0x0 PUSH2 0x16C DUP3 PUSH2 0x14F JUMP JUMPDEST SWAP1 POP SWAP2 SWAP1 POP JUMP JUMPDEST PUSH1 0x0 PUSH20 0xFFFFFFFFFFFFFFFFFFFFFFFFFFFFFFFFFFFFFFFF DUP3 AND SWAP1 POP SWAP2 SWAP1 POP JUMP JUMPDEST PUSH1 0x0 DUP2 SWAP1 POP SWAP2 SWAP1 POP JUMP JUMPDEST PUSH1 0x0 DUP1 REVERT JUMPDEST PUSH2 0x1AB DUP2 PUSH2 0x161 JUMP JUMPDEST DUP2 EQ PUSH2 0x1B6 JUMPI PUSH1 0x0 DUP1 REVERT JUMPDEST POP JUMP JUMPDEST PUSH2 0x1C2 DUP2 PUSH2 0x193 JUMP JUMPDEST DUP2 EQ PUSH2 0x1CD JUMPI PUSH1 0x0 DUP1 REVERT JUMPDEST POP JUMP INVALID LOG2 PUSH5 0x6970667358 0x22 SLT KECCAK256 PUSH9 0x410300842DBE71F5AC 0xE2 SELFDESTRUCT PUSH32 0x9CCDCD1C90C2CE25A77C2AB12E4A3464E8E0D264736F6C634300080700330000 "
				},
				"gasEstimates": {
					"creation": {
						"codeDepositCost": "103600",
						"executionCost": "153",
						"totalCost": "103753"
					},
					"external": {
						"setX(address,uint256)": "infinite"
					}
				},
				"methodIdentifiers": {
					"setX(address,uint256)": "4a2ad99f"
				}
			},
			"storageLayout": {
				"storage": [],
				"types": null
			},
			"userdoc": {
				"kind": "user",
				"methods": {},
				"version": 1
			}
		}
	}
}