{
	"contracts/CoallOtherContracts.sol": {
		"TestContract": {
			"abi": [
				{
					"inputs": [],
					"name": "getX",
					"outputs": [
						{
							"internalType": "uint256",
							"name": "",
							"type": "uint256"
						}
					],
					"stateMutability": "view",
					"type": "function"
				},
				{
					"inputs": [],
					"name": "getXAndValue",
					"outputs": [
						{
							"internalType": "uint256",
							"name": "",
							"type": "uint256"
						},
						{
							"internalType": "uint256",
							"name": "",
							"type": "uint256"
						}
					],
					"stateMutability": "view",
					"type": "function"
				},
				{
					"inputs": [
						{
							"internalType": "uint256",
							"name": "_x",
							"type": "uint256"
						}
					],
					"name": "setX",
					"outputs": [],
					"stateMutability": "nonpayable",
					"type": "function"
				},
				{
					"inputs": [
						{
							"internalType": "uint256",
							"name": "_x",
							"type": "uint256"
						}
					],
					"name": "setXandReceiveEther",
					"outputs": [],
					"stateMutability": "payable",
					"type": "function"
				},
				{
					"inputs": [],
					"name": "value",
					"outputs": [
						{
							"internalType": "uint256",
							"name": "",
							"type": "uint256"
						}
					],
					"stateMutability": "view",
					"type": "function"
				},
				{
					"inputs": [],
					"name": "x",
					"outputs": [
						{
							"internalType": "uint256",
							"name": "",
							"type": "uint256"
						}
					],
					"stateMutability": "view",
					"type": "function"
				}
			],
			"devdoc": {
				"kind": "dev",
				"methods": {},
				"version": 1
			},
			"evm": {
				"assembly": "    /* \"contracts/CoallOtherContracts.sol\":191:632  contract TestContract {\r... */\n  mstore(0x40, 0x80)\n    /* \"contracts/CoallOtherContracts.sol\":260:263  123 */\n  0x7b\n    /* \"contracts/CoallOtherContracts.sol\":240:263  uint public value = 123 */\n  0x01\n  sstore\n    /* \"contracts/CoallOtherContracts.sol\":191:632  contract TestContract {\r... */\n  callvalue\n  dup1\n  iszero\n  tag_1\n  jumpi\n  0x00\n  dup1\n  revert\ntag_1:\n  pop\n  dataSize(sub_0)\n  dup1\n  dataOffset(sub_0)\n  0x00\n  codecopy\n  0x00\n  return\nstop\n\nsub_0: assembly {\n        /* \"contracts/CoallOtherContracts.sol\":191:632  contract TestContract {\r... */\n      mstore(0x40, 0x80)\n      jumpi(tag_1, lt(calldatasize, 0x04))\n      shr(0xe0, calldataload(0x00))\n      dup1\n      0x02f42be9\n      eq\n      tag_2\n      jumpi\n      dup1\n      0x0c55699c\n      eq\n      tag_3\n      jumpi\n      dup1\n      0x2b5d6086\n      eq\n      tag_4\n      jumpi\n      dup1\n      0x3fa4f245\n      eq\n      tag_5\n      jumpi\n      dup1\n      0x4018d9aa\n      eq\n      tag_6\n      jumpi\n      dup1\n      0x5197c7aa\n      eq\n      tag_7\n      jumpi\n    tag_1:\n      0x00\n      dup1\n      revert\n        /* \"contracts/CoallOtherContracts.sol\":417:525  function setXandReceiveEther(uint _x) external payable {\r... */\n    tag_2:\n      tag_8\n      0x04\n      dup1\n      calldatasize\n      sub\n      dup2\n      add\n      swap1\n      tag_9\n      swap2\n      swap1\n      tag_10\n      jump\t// in\n    tag_9:\n      tag_11\n      jump\t// in\n    tag_8:\n      stop\n        /* \"contracts/CoallOtherContracts.sol\":220:233  uint public x */\n    tag_3:\n      callvalue\n      dup1\n      iszero\n      tag_12\n      jumpi\n      0x00\n      dup1\n      revert\n    tag_12:\n      pop\n      tag_13\n      tag_14\n      jump\t// in\n    tag_13:\n      mload(0x40)\n      tag_15\n      swap2\n      swap1\n      tag_16\n      jump\t// in\n    tag_15:\n      mload(0x40)\n      dup1\n      swap2\n      sub\n      swap1\n      return\n        /* \"contracts/CoallOtherContracts.sol\":534:629  function getXAndValue() external view returns (uint, uint) {\r... */\n    tag_4:\n      callvalue\n      dup1\n      iszero\n      tag_17\n      jumpi\n      0x00\n      dup1\n      revert\n    tag_17:\n      pop\n      tag_18\n      tag_19\n      jump\t// in\n    tag_18:\n      mload(0x40)\n      tag_20\n      swap3\n      swap2\n      swap1\n      tag_21\n      jump\t// in\n    tag_20:\n      mload(0x40)\n      dup1\n      swap2\n      sub\n      swap1\n      return\n        /* \"contracts/CoallOtherContracts.sol\":240:263  uint public value = 123 */\n    tag_5:\n      callvalue\n      dup1\n      iszero\n      tag_22\n      jumpi\n      0x00\n      dup1\n      revert\n    tag_22:\n      pop\n      tag_23\n      tag_24\n      jump\t// in\n    tag_23:\n      mload(0x40)\n      tag_25\n      swap2\n      swap1\n      tag_16\n      jump\t// in\n    tag_25:\n      mload(0x40)\n      dup1\n      swap2\n      sub\n      swap1\n      return\n        /* \"contracts/CoallOtherContracts.sol\":272:329  function setX(uint _x) external {\r... */\n    tag_6:\n      callvalue\n      dup1\n      iszero\n      tag_26\n      jumpi\n      0x00\n      dup1\n      revert\n    tag_26:\n      pop\n      tag_27\n      0x04\n      dup1\n      calldatasize\n      sub\n      dup2\n      add\n      swap1\n      tag_28\n      swap2\n      swap1\n      tag_10\n      jump\t// in\n    tag_28:\n      tag_29\n      jump\t// in\n    tag_27:\n      stop\n        /* \"contracts/CoallOtherContracts.sol\":337:409  function getX() external view returns (uint) {\r... */\n    tag_7:\n      callvalue\n      dup1\n      iszero\n      tag_30\n      jumpi\n      0x00\n      dup1\n      revert\n    tag_30:\n      pop\n      tag_31\n      tag_32\n      jump\t// in\n    tag_31:\n      mload(0x40)\n      tag_33\n      swap2\n      swap1\n      tag_16\n      jump\t// in\n    tag_33:\n      mload(0x40)\n      dup1\n      swap2\n      sub\n      swap1\n      return\n        /* \"contracts/CoallOtherContracts.sol\":417:525  function setXandReceiveEther(uint _x) external payable {\r... */\n    tag_11:\n        /* \"contracts/CoallOtherContracts.sol\":487:489  _x */\n      dup1\n        /* \"contracts/CoallOtherContracts.sol\":483:484  x */\n      0x00\n        /* \"contracts/CoallOtherContracts.sol\":483:489  x = _x */\n      dup2\n      swap1\n      sstore\n      pop\n        /* \"contracts/CoallOtherContracts.sol\":508:517  msg.value */\n      callvalue\n        /* \"contracts/CoallOtherContracts.sol\":500:505  value */\n      0x01\n        /* \"contracts/CoallOtherContracts.sol\":500:517  value = msg.value */\n      dup2\n      swap1\n      sstore\n      pop\n        /* \"contracts/CoallOtherContracts.sol\":417:525  function setXandReceiveEther(uint _x) external payable {\r... */\n      pop\n      jump\t// out\n        /* \"contracts/CoallOtherContracts.sol\":220:233  uint public x */\n    tag_14:\n      sload(0x00)\n      dup2\n      jump\t// out\n        /* \"contracts/CoallOtherContracts.sol\":534:629  function getXAndValue() external view returns (uint, uint) {\r... */\n    tag_19:\n        /* \"contracts/CoallOtherContracts.sol\":581:585  uint */\n      0x00\n        /* \"contracts/CoallOtherContracts.sol\":587:591  uint */\n      dup1\n        /* \"contracts/CoallOtherContracts.sol\":612:613  x */\n      sload(0x00)\n        /* \"contracts/CoallOtherContracts.sol\":615:620  value */\n      sload(0x01)\n        /* \"contracts/CoallOtherContracts.sol\":604:621  return (x, value) */\n      swap2\n      pop\n      swap2\n      pop\n        /* \"contracts/CoallOtherContracts.sol\":534:629  function getXAndValue() external view returns (uint, uint) {\r... */\n      swap1\n      swap2\n      jump\t// out\n        /* \"contracts/CoallOtherContracts.sol\":240:263  uint public value = 123 */\n    tag_24:\n      sload(0x01)\n      dup2\n      jump\t// out\n        /* \"contracts/CoallOtherContracts.sol\":272:329  function setX(uint _x) external {\r... */\n    tag_29:\n        /* \"contracts/CoallOtherContracts.sol\":319:321  _x */\n      dup1\n        /* \"contracts/CoallOtherContracts.sol\":315:316  x */\n      0x00\n        /* \"contracts/CoallOtherContracts.sol\":315:321  x = _x */\n      dup2\n      swap1\n      sstore\n      pop\n        /* \"contracts/CoallOtherContracts.sol\":272:329  function setX(uint _x) external {\r... */\n      pop\n      jump\t// out\n        /* \"contracts/CoallOtherContracts.sol\":337:409  function getX() external view returns (uint) {\r... */\n    tag_32:\n        /* \"contracts/CoallOtherContracts.sol\":376:380  uint */\n      0x00\n        /* \"contracts/CoallOtherContracts.sol\":400:401  x */\n      dup1\n      sload\n        /* \"contracts/CoallOtherContracts.sol\":393:401  return x */\n      swap1\n      pop\n        /* \"contracts/CoallOtherContracts.sol\":337:409  function getX() external view returns (uint) {\r... */\n      swap1\n      jump\t// out\n        /* \"#utility.yul\":7:146   */\n    tag_39:\n        /* \"#utility.yul\":53:58   */\n      0x00\n        /* \"#utility.yul\":91:97   */\n      dup2\n        /* \"#utility.yul\":78:98   */\n      calldataload\n        /* \"#utility.yul\":69:98   */\n      swap1\n      pop\n        /* \"#utility.yul\":107:140   */\n      tag_41\n        /* \"#utility.yul\":134:139   */\n      dup2\n        /* \"#utility.yul\":107:140   */\n      tag_42\n      jump\t// in\n    tag_41:\n        /* \"#utility.yul\":7:146   */\n      swap3\n      swap2\n      pop\n      pop\n      jump\t// out\n        /* \"#utility.yul\":152:481   */\n    tag_10:\n        /* \"#utility.yul\":211:217   */\n      0x00\n        /* \"#utility.yul\":260:262   */\n      0x20\n        /* \"#utility.yul\":248:257   */\n      dup3\n        /* \"#utility.yul\":239:246   */\n      dup5\n        /* \"#utility.yul\":235:258   */\n      sub\n        /* \"#utility.yul\":231:263   */\n      slt\n        /* \"#utility.yul\":228:347   */\n      iszero\n      tag_44\n      jumpi\n        /* \"#utility.yul\":266:345   */\n      tag_45\n      tag_46\n      jump\t// in\n    tag_45:\n        /* \"#utility.yul\":228:347   */\n    tag_44:\n        /* \"#utility.yul\":386:387   */\n      0x00\n        /* \"#utility.yul\":411:464   */\n      tag_47\n        /* \"#utility.yul\":456:463   */\n      dup5\n        /* \"#utility.yul\":447:453   */\n      dup3\n        /* \"#utility.yul\":436:445   */\n      dup6\n        /* \"#utility.yul\":432:454   */\n      add\n        /* \"#utility.yul\":411:464   */\n      tag_39\n      jump\t// in\n    tag_47:\n        /* \"#utility.yul\":401:464   */\n      swap2\n      pop\n        /* \"#utility.yul\":357:474   */\n      pop\n        /* \"#utility.yul\":152:481   */\n      swap3\n      swap2\n      pop\n      pop\n      jump\t// out\n        /* \"#utility.yul\":487:605   */\n    tag_48:\n        /* \"#utility.yul\":574:598   */\n      tag_50\n        /* \"#utility.yul\":592:597   */\n      dup2\n        /* \"#utility.yul\":574:598   */\n      tag_51\n      jump\t// in\n    tag_50:\n        /* \"#utility.yul\":569:572   */\n      dup3\n        /* \"#utility.yul\":562:599   */\n      mstore\n        /* \"#utility.yul\":487:605   */\n      pop\n      pop\n      jump\t// out\n        /* \"#utility.yul\":611:833   */\n    tag_16:\n        /* \"#utility.yul\":704:708   */\n      0x00\n        /* \"#utility.yul\":742:744   */\n      0x20\n        /* \"#utility.yul\":731:740   */\n      dup3\n        /* \"#utility.yul\":727:745   */\n      add\n        /* \"#utility.yul\":719:745   */\n      swap1\n      pop\n        /* \"#utility.yul\":755:826   */\n      tag_53\n        /* \"#utility.yul\":823:824   */\n      0x00\n        /* \"#utility.yul\":812:821   */\n      dup4\n        /* \"#utility.yul\":808:825   */\n      add\n        /* \"#utility.yul\":799:805   */\n      dup5\n        /* \"#utility.yul\":755:826   */\n      tag_48\n      jump\t// in\n    tag_53:\n        /* \"#utility.yul\":611:833   */\n      swap3\n      swap2\n      pop\n      pop\n      jump\t// out\n        /* \"#utility.yul\":839:1171   */\n    tag_21:\n        /* \"#utility.yul\":960:964   */\n      0x00\n        /* \"#utility.yul\":998:1000   */\n      0x40\n        /* \"#utility.yul\":987:996   */\n      dup3\n        /* \"#utility.yul\":983:1001   */\n      add\n        /* \"#utility.yul\":975:1001   */\n      swap1\n      pop\n        /* \"#utility.yul\":1011:1082   */\n      tag_55\n        /* \"#utility.yul\":1079:1080   */\n      0x00\n        /* \"#utility.yul\":1068:1077   */\n      dup4\n        /* \"#utility.yul\":1064:1081   */\n      add\n        /* \"#utility.yul\":1055:1061   */\n      dup6\n        /* \"#utility.yul\":1011:1082   */\n      tag_48\n      jump\t// in\n    tag_55:\n        /* \"#utility.yul\":1092:1164   */\n      tag_56\n        /* \"#utility.yul\":1160:1162   */\n      0x20\n        /* \"#utility.yul\":1149:1158   */\n      dup4\n        /* \"#utility.yul\":1145:1163   */\n      add\n        /* \"#utility.yul\":1136:1142   */\n      dup5\n        /* \"#utility.yul\":1092:1164   */\n      tag_48\n      jump\t// in\n    tag_56:\n        /* \"#utility.yul\":839:1171   */\n      swap4\n      swap3\n      pop\n      pop\n      pop\n      jump\t// out\n        /* \"#utility.yul\":1258:1335   */\n    tag_51:\n        /* \"#utility.yul\":1295:1302   */\n      0x00\n        /* \"#utility.yul\":1324:1329   */\n      dup2\n        /* \"#utility.yul\":1313:1329   */\n      swap1\n      pop\n        /* \"#utility.yul\":1258:1335   */\n      swap2\n      swap1\n      pop\n      jump\t// out\n        /* \"#utility.yul\":1464:1581   */\n    tag_46:\n        /* \"#utility.yul\":1573:1574   */\n      0x00\n        /* \"#utility.yul\":1570:1571   */\n      dup1\n        /* \"#utility.yul\":1563:1575   */\n      revert\n        /* \"#utility.yul\":1587:1709   */\n    tag_42:\n        /* \"#utility.yul\":1660:1684   */\n      tag_64\n        /* \"#utility.yul\":1678:1683   */\n      dup2\n        /* \"#utility.yul\":1660:1684   */\n      tag_51\n      jump\t// in\n    tag_64:\n        /* \"#utility.yul\":1653:1658   */\n      dup2\n        /* \"#utility.yul\":1650:1685   */\n      eq\n        /* \"#utility.yul\":1640:1703   */\n      tag_65\n      jumpi\n        /* \"#utility.yul\":1699:1700   */\n      0x00\n        /* \"#utility.yul\":1696:1697   */\n      dup1\n        /* \"#utility.yul\":1689:1701   */\n      revert\n        /* \"#utility.yul\":1640:1703   */\n    tag_65:\n        /* \"#utility.yul\":1587:1709   */\n      pop\n      jump\t// out\n\n    auxdata: 0xa264697066735822122080f88ce77a09233a1a04996031659fb0a60e25148edaec64325b6bfadd64d38864736f6c63430008070033\n}\n",
				"bytecode": {
					"linkReferences": {},
					"object": "6080604052607b60015534801561001557600080fd5b5061027e806100256000396000f3fe6080604052600436106100555760003560e01c806302f42be91461005a5780630c55699c146100765780632b5d6086146100a15780633fa4f245146100cd5780634018d9aa146100f85780635197c7aa14610121575b600080fd5b610074600480360381019061006f91906101a2565b61014c565b005b34801561008257600080fd5b5061008b61015d565b60405161009891906101de565b60405180910390f35b3480156100ad57600080fd5b506100b6610163565b6040516100c49291906101f9565b60405180910390f35b3480156100d957600080fd5b506100e2610174565b6040516100ef91906101de565b60405180910390f35b34801561010457600080fd5b5061011f600480360381019061011a91906101a2565b61017a565b005b34801561012d57600080fd5b50610136610184565b60405161014391906101de565b60405180910390f35b806000819055503460018190555050565b60005481565b600080600054600154915091509091565b60015481565b8060008190555050565b60008054905090565b60008135905061019c81610231565b92915050565b6000602082840312156101b8576101b761022c565b5b60006101c68482850161018d565b91505092915050565b6101d881610222565b82525050565b60006020820190506101f360008301846101cf565b92915050565b600060408201905061020e60008301856101cf565b61021b60208301846101cf565b9392505050565b6000819050919050565b600080fd5b61023a81610222565b811461024557600080fd5b5056fea264697066735822122080f88ce77a09233a1a04996031659fb0a60e25148edaec64325b6bfadd64d38864736f6c63430008070033",
					"opcodes": "PUSH1 0x80 PUSH1 0x40 MSTORE PUSH1 0x7B PUSH1 0x1 SSTORE CALLVALUE DUP1 ISZERO PUSH2 0x15 JUMPI PUSH1 0x0 DUP1 REVERT JUMPDEST POP PUSH2 0x27E DUP1 PUSH2 0x25 PUSH1 0x0 CODECOPY PUSH1 0x0 RETURN INVALID PUSH1 0x80 PUSH1 0x40 MSTORE PUSH1 0x4 CALLDATASIZE LT PUSH2 0x55 JUMPI PUSH1 0x0 CALLDATALOAD PUSH1 0xE0 SHR DUP1 PUSH4 0x2F42BE9 EQ PUSH2 0x5A JUMPI DUP1 PUSH4 0xC55699C EQ PUSH2 0x76 JUMPI DUP1 PUSH4 0x2B5D6086 EQ PUSH2 0xA1 JUMPI DUP1 PUSH4 0x3FA4F245 EQ PUSH2 0xCD JUMPI DUP1 PUSH4 0x4018D9AA EQ PUSH2 0xF8 JUMPI DUP1 PUSH4 0x5197C7AA EQ PUSH2 0x121 JUMPI JUMPDEST PUSH1 0x0 DUP1 REVERT JUMPDEST PUSH2 0x74 PUSH1 0x4 DUP1 CALLDATASIZE SUB DUP2 ADD SWAP1 PUSH2 0x6F SWAP2 SWAP1 PUSH2 0x1A2 JUMP JUMPDEST PUSH2 0x14C JUMP JUMPDEST STOP JUMPDEST CALLVALUE DUP1 ISZERO PUSH2 0x82 JUMPI PUSH1 0x0 DUP1 REVERT JUMPDEST POP PUSH2 0x8B PUSH2 0x15D JUMP JUMPDEST PUSH1 0x40 MLOAD PUSH2 0x98 SWAP2 SWAP1 PUSH2 0x1DE JUMP JUMPDEST PUSH1 0x40 MLOAD DUP1 SWAP2 SUB SWAP1 RETURN JUMPDEST CALLVALUE DUP1 ISZERO PUSH2 0xAD JUMPI PUSH1 0x0 DUP1 REVERT JUMPDEST POP PUSH2 0xB6 PUSH2 0x163 JUMP JUMPDEST PUSH1 0x40 MLOAD PUSH2 0xC4 SWAP3 SWAP2 SWAP1 PUSH2 0x1F9 JUMP JUMPDEST PUSH1 0x40 MLOAD DUP1 SWAP2 SUB SWAP1 RETURN JUMPDEST CALLVALUE DUP1 ISZERO PUSH2 0xD9 JUMPI PUSH1 0x0 DUP1 REVERT JUMPDEST POP PUSH2 0xE2 PUSH2 0x174 JUMP JUMPDEST PUSH1 0x40 MLOAD PUSH2 0xEF SWAP2 SWAP1 PUSH2 0x1DE JUMP JUMPDEST PUSH1 0x40 MLOAD DUP1 SWAP2 SUB SWAP1 RETURN JUMPDEST CALLVALUE DUP1 ISZERO PUSH2 0x104 JUMPI PUSH1 0x0 DUP1 REVERT JUMPDEST POP PUSH2 0x11F PUSH1 0x4 DUP1 CALLDATASIZE SUB DUP2 ADD SWAP1 PUSH2 0x11A SWAP2 SWAP1 PUSH2 0x1A2 JUMP JUMPDEST PUSH2 0x17A JUMP JUMPDEST STOP JUMPDEST CALLVALUE DUP1 ISZERO PUSH2 0x12D JUMPI PUSH1 0x0 DUP1 REVERT JUMPDEST POP PUSH2 0x136 PUSH2 0x184 JUMP JUMPDEST PUSH1 0x40 MLOAD PUSH2 0x143 SWAP2 SWAP1 PUSH2 0x1DE JUMP JUMPDEST PUSH1 0x40 MLOAD DUP1 SWAP2 SUB SWAP1 RETURN JUMPDEST DUP1 PUSH1 0x0 DUP2 SWAP1 SSTORE POP CALLVALUE PUSH1 0x1 DUP2 SWAP1 SSTORE POP POP JUMP JUMPDEST PUSH1 0x0 SLOAD DUP2 JUMP JUMPDEST PUSH1 0x0 DUP1 PUSH1 0x0 SLOAD PUSH1 0x1 SLOAD SWAP2 POP SWAP2 POP SWAP1 SWAP2 JUMP JUMPDEST PUSH1 0x1 SLOAD DUP2 JUMP JUMPDEST DUP1 PUSH1 0x0 DUP2 SWAP1 SSTORE POP POP JUMP JUMPDEST PUSH1 0x0 DUP1 SLOAD SWAP1 POP SWAP1 JUMP JUMPDEST PUSH1 0x0 DUP2 CALLDATALOAD SWAP1 POP PUSH2 0x19C DUP2 PUSH2 0x231 JUMP JUMPDEST SWAP3 SWAP2 POP POP JUMP JUMPDEST PUSH1 0x0 PUSH1 0x20 DUP3 DUP5 SUB SLT ISZERO PUSH2 0x1B8 JUMPI PUSH2 0x1B7 PUSH2 0x22C JUMP JUMPDEST JUMPDEST PUSH1 0x0 PUSH2 0x1C6 DUP5 DUP3 DUP6 ADD PUSH2 0x18D JUMP JUMPDEST SWAP2 POP POP SWAP3 SWAP2 POP POP JUMP JUMPDEST PUSH2 0x1D8 DUP2 PUSH2 0x222 JUMP JUMPDEST DUP3 MSTORE POP POP JUMP JUMPDEST PUSH1 0x0 PUSH1 0x20 DUP3 ADD SWAP1 POP PUSH2 0x1F3 PUSH1 0x0 DUP4 ADD DUP5 PUSH2 0x1CF JUMP JUMPDEST SWAP3 SWAP2 POP POP JUMP JUMPDEST PUSH1 0x0 PUSH1 0x40 DUP3 ADD SWAP1 POP PUSH2 0x20E PUSH1 0x0 DUP4 ADD DUP6 PUSH2 0x1CF JUMP JUMPDEST PUSH2 0x21B PUSH1 0x20 DUP4 ADD DUP5 PUSH2 0x1CF JUMP JUMPDEST SWAP4 SWAP3 POP POP POP JUMP JUMPDEST PUSH1 0x0 DUP2 SWAP1 POP SWAP2 SWAP1 POP JUMP JUMPDEST PUSH1 0x0 DUP1 REVERT JUMPDEST PUSH2 0x23A DUP2 PUSH2 0x222 JUMP JUMPDEST DUP2 EQ PUSH2 0x245 JUMPI PUSH1 0x0 DUP1 REVERT JUMPDEST POP JUMP INVALID LOG2 PUSH5 0x6970667358 0x22 SLT KECCAK256 DUP1 0xF8 DUP13 0xE7 PUSH27 0x9233A1A04996031659FB0A60E25148EDAEC64325B6BFADD64D388 PUSH5 0x736F6C6343 STOP ADDMOD SMOD STOP CALLER "
				},
				"gasEstimates": {
					"creation": {
						"codeDepositCost": "127600",
						"executionCost": "22277",
						"totalCost": "149877"
					},
					"external": {
						"getX()": "2525",
						"getXAndValue()": "infinite",
						"setX(uint256)": "22586",
						"setXandReceiveEther(uint256)": "44587",
						"value()": "2473",
						"x()": "2429"
					}
				},
				"methodIdentifiers": {
					"getX()": "5197c7aa",
					"getXAndValue()": "2b5d6086",
					"setX(uint256)": "4018d9aa",
					"setXandReceiveEther(uint256)": "02f42be9",
					"value()": "3fa4f245",
					"x()": "0c55699c"
				}
			},
			"storageLayout": {
				"storage": [
					{
						"astId": 19,
						"contract": "contracts/CoallOtherContracts.sol:TestContract",
						"label": "x",
						"offset": 0,
						"slot": "0",
						"type": "t_uint256"
					},
					{
						"astId": 22,
						"contract": "contracts/CoallOtherContracts.sol:TestContract",
						"label": "value",
						"offset": 0,
						"slot": "1",
						"type": "t_uint256"
					}
				],
				"types": {
					"t_uint256": {
						"encoding": "inplace",
						"label": "uint256",
						"numberOfBytes": "32"
					}
				}
			},
			"userdoc": {
				"kind": "user",
				"methods": {},
				"version": 1
			}
		}
	}
}