{
	"contracts/EnglishAuction.sol": {
		"EnglishAuction": {
			"abi": [
				{
					"inputs": [
						{
							"internalType": "address",
							"name": "_nft",
							"type": "address"
						},
						{
							"internalType": "uint256",
							"name": "_nftId",
							"type": "uint256"
						},
						{
							"internalType": "uint256",
							"name": "_startingBid",
							"type": "uint256"
						}
					],
					"stateMutability": "nonpayable",
					"type": "constructor"
				},
				{
					"inputs": [
						{
							"internalType": "address",
							"name": "",
							"type": "address"
						}
					],
					"name": "bids",
					"outputs": [
						{
							"internalType": "uint256",
							"name": "",
							"type": "uint256"
						}
					],
					"stateMutability": "view",
					"type": "function"
				},
				{
					"inputs": [],
					"name": "endAt",
					"outputs": [
						{
							"internalType": "uint32",
							"name": "",
							"type": "uint32"
						}
					],
					"stateMutability": "view",
					"type": "function"
				},
				{
					"inputs": [],
					"name": "ended",
					"outputs": [
						{
							"internalType": "bool",
							"name": "",
							"type": "bool"
						}
					],
					"stateMutability": "view",
					"type": "function"
				},
				{
					"inputs": [],
					"name": "highestBid",
					"outputs": [
						{
							"internalType": "uint256",
							"name": "",
							"type": "uint256"
						}
					],
					"stateMutability": "view",
					"type": "function"
				},
				{
					"inputs": [],
					"name": "highestBidder",
					"outputs": [
						{
							"internalType": "address",
							"name": "",
							"type": "address"
						}
					],
					"stateMutability": "view",
					"type": "function"
				},
				{
					"inputs": [],
					"name": "nft",
					"outputs": [
						{
							"internalType": "contract IERC721",
							"name": "",
							"type": "address"
						}
					],
					"stateMutability": "view",
					"type": "function"
				},
				{
					"inputs": [],
					"name": "nftId",
					"outputs": [
						{
							"internalType": "uint256",
							"name": "",
							"type": "uint256"
						}
					],
					"stateMutability": "view",
					"type": "function"
				},
				{
					"inputs": [],
					"name": "seller",
					"outputs": [
						{
							"internalType": "address",
							"name": "",
							"type": "address"
						}
					],
					"stateMutability": "view",
					"type": "function"
				},
				{
					"inputs": [],
					"name": "start",
					"outputs": [],
					"stateMutability": "nonpayable",
					"type": "function"
				},
				{
					"inputs": [],
					"name": "started",
					"outputs": [
						{
							"internalType": "bool",
							"name": "",
							"type": "bool"
						}
					],
					"stateMutability": "view",
					"type": "function"
				}
			],
			"devdoc": {
				"kind": "dev",
				"methods": {},
				"version": 1
			},
			"evm": {
				"assembly": "    /* \"contracts/EnglishAuction.sol\":200:934  contract EnglishAuction {... */\n  mstore(0x40, 0xe0)\n    /* \"contracts/EnglishAuction.sol\":527:757  constructor(... */\n  callvalue\n  dup1\n  iszero\n  tag_1\n  jumpi\n  0x00\n  dup1\n  revert\ntag_1:\n  pop\n  mload(0x40)\n  sub(codesize, bytecodeSize)\n  dup1\n  bytecodeSize\n  dup4\n  codecopy\n  dup2\n  dup2\n  add\n  0x40\n  mstore\n  dup2\n  add\n  swap1\n  tag_2\n  swap2\n  swap1\n  tag_3\n  jump\t// in\ntag_2:\n    /* \"contracts/EnglishAuction.sol\":644:648  _nft */\n  dup3\n    /* \"contracts/EnglishAuction.sol\":630:649  nft = IERC721(_nft) */\n  0xffffffffffffffffffffffffffffffffffffffff\n  and\n  0x80\n  dup2\n  0xffffffffffffffffffffffffffffffffffffffff\n  and\n  dup2\n  mstore\n  pop\n  pop\n    /* \"contracts/EnglishAuction.sol\":668:674  _nftId */\n  dup2\n    /* \"contracts/EnglishAuction.sol\":660:674  nftId = _nftId */\n  0xa0\n  dup2\n  dup2\n  mstore\n  pop\n  pop\n    /* \"contracts/EnglishAuction.sol\":702:712  msg.sender */\n  caller\n    /* \"contracts/EnglishAuction.sol\":685:713  seller = payable(msg.sender) */\n  0xffffffffffffffffffffffffffffffffffffffff\n  and\n  0xc0\n  dup2\n  0xffffffffffffffffffffffffffffffffffffffff\n  and\n  dup2\n  mstore\n  pop\n  pop\n    /* \"contracts/EnglishAuction.sol\":737:749  _startingBid */\n  dup1\n    /* \"contracts/EnglishAuction.sol\":724:734  highestBid */\n  0x01\n    /* \"contracts/EnglishAuction.sol\":724:749  highestBid = _startingBid */\n  dup2\n  swap1\n  sstore\n  pop\n    /* \"contracts/EnglishAuction.sol\":527:757  constructor(... */\n  pop\n  pop\n  pop\n    /* \"contracts/EnglishAuction.sol\":200:934  contract EnglishAuction {... */\n  jump(tag_6)\n    /* \"#utility.yul\":88:205   */\ntag_8:\n    /* \"#utility.yul\":197:198   */\n  0x00\n    /* \"#utility.yul\":194:195   */\n  dup1\n    /* \"#utility.yul\":187:199   */\n  revert\n    /* \"#utility.yul\":334:460   */\ntag_10:\n    /* \"#utility.yul\":371:378   */\n  0x00\n    /* \"#utility.yul\":411:453   */\n  0xffffffffffffffffffffffffffffffffffffffff\n    /* \"#utility.yul\":404:409   */\n  dup3\n    /* \"#utility.yul\":400:454   */\n  and\n    /* \"#utility.yul\":389:454   */\n  swap1\n  pop\n    /* \"#utility.yul\":334:460   */\n  swap2\n  swap1\n  pop\n  jump\t// out\n    /* \"#utility.yul\":466:562   */\ntag_11:\n    /* \"#utility.yul\":503:510   */\n  0x00\n    /* \"#utility.yul\":532:556   */\n  tag_23\n    /* \"#utility.yul\":550:555   */\n  dup3\n    /* \"#utility.yul\":532:556   */\n  tag_10\n  jump\t// in\ntag_23:\n    /* \"#utility.yul\":521:556   */\n  swap1\n  pop\n    /* \"#utility.yul\":466:562   */\n  swap2\n  swap1\n  pop\n  jump\t// out\n    /* \"#utility.yul\":568:690   */\ntag_12:\n    /* \"#utility.yul\":641:665   */\n  tag_25\n    /* \"#utility.yul\":659:664   */\n  dup2\n    /* \"#utility.yul\":641:665   */\n  tag_11\n  jump\t// in\ntag_25:\n    /* \"#utility.yul\":634:639   */\n  dup2\n    /* \"#utility.yul\":631:666   */\n  eq\n    /* \"#utility.yul\":621:684   */\n  tag_26\n  jumpi\n    /* \"#utility.yul\":680:681   */\n  0x00\n    /* \"#utility.yul\":677:678   */\n  dup1\n    /* \"#utility.yul\":670:682   */\n  revert\n    /* \"#utility.yul\":621:684   */\ntag_26:\n    /* \"#utility.yul\":568:690   */\n  pop\n  jump\t// out\n    /* \"#utility.yul\":696:839   */\ntag_13:\n    /* \"#utility.yul\":753:758   */\n  0x00\n    /* \"#utility.yul\":784:790   */\n  dup2\n    /* \"#utility.yul\":778:791   */\n  mload\n    /* \"#utility.yul\":769:791   */\n  swap1\n  pop\n    /* \"#utility.yul\":800:833   */\n  tag_28\n    /* \"#utility.yul\":827:832   */\n  dup2\n    /* \"#utility.yul\":800:833   */\n  tag_12\n  jump\t// in\ntag_28:\n    /* \"#utility.yul\":696:839   */\n  swap3\n  swap2\n  pop\n  pop\n  jump\t// out\n    /* \"#utility.yul\":845:922   */\ntag_14:\n    /* \"#utility.yul\":882:889   */\n  0x00\n    /* \"#utility.yul\":911:916   */\n  dup2\n    /* \"#utility.yul\":900:916   */\n  swap1\n  pop\n    /* \"#utility.yul\":845:922   */\n  swap2\n  swap1\n  pop\n  jump\t// out\n    /* \"#utility.yul\":928:1050   */\ntag_15:\n    /* \"#utility.yul\":1001:1025   */\n  tag_31\n    /* \"#utility.yul\":1019:1024   */\n  dup2\n    /* \"#utility.yul\":1001:1025   */\n  tag_14\n  jump\t// in\ntag_31:\n    /* \"#utility.yul\":994:999   */\n  dup2\n    /* \"#utility.yul\":991:1026   */\n  eq\n    /* \"#utility.yul\":981:1044   */\n  tag_32\n  jumpi\n    /* \"#utility.yul\":1040:1041   */\n  0x00\n    /* \"#utility.yul\":1037:1038   */\n  dup1\n    /* \"#utility.yul\":1030:1042   */\n  revert\n    /* \"#utility.yul\":981:1044   */\ntag_32:\n    /* \"#utility.yul\":928:1050   */\n  pop\n  jump\t// out\n    /* \"#utility.yul\":1056:1199   */\ntag_16:\n    /* \"#utility.yul\":1113:1118   */\n  0x00\n    /* \"#utility.yul\":1144:1150   */\n  dup2\n    /* \"#utility.yul\":1138:1151   */\n  mload\n    /* \"#utility.yul\":1129:1151   */\n  swap1\n  pop\n    /* \"#utility.yul\":1160:1193   */\n  tag_34\n    /* \"#utility.yul\":1187:1192   */\n  dup2\n    /* \"#utility.yul\":1160:1193   */\n  tag_15\n  jump\t// in\ntag_34:\n    /* \"#utility.yul\":1056:1199   */\n  swap3\n  swap2\n  pop\n  pop\n  jump\t// out\n    /* \"#utility.yul\":1205:1868   */\ntag_3:\n    /* \"#utility.yul\":1293:1299   */\n  0x00\n    /* \"#utility.yul\":1301:1307   */\n  dup1\n    /* \"#utility.yul\":1309:1315   */\n  0x00\n    /* \"#utility.yul\":1358:1360   */\n  0x60\n    /* \"#utility.yul\":1346:1355   */\n  dup5\n    /* \"#utility.yul\":1337:1344   */\n  dup7\n    /* \"#utility.yul\":1333:1356   */\n  sub\n    /* \"#utility.yul\":1329:1361   */\n  slt\n    /* \"#utility.yul\":1326:1445   */\n  iszero\n  tag_36\n  jumpi\n    /* \"#utility.yul\":1364:1443   */\n  tag_37\n  tag_8\n  jump\t// in\ntag_37:\n    /* \"#utility.yul\":1326:1445   */\ntag_36:\n    /* \"#utility.yul\":1484:1485   */\n  0x00\n    /* \"#utility.yul\":1509:1573   */\n  tag_38\n    /* \"#utility.yul\":1565:1572   */\n  dup7\n    /* \"#utility.yul\":1556:1562   */\n  dup3\n    /* \"#utility.yul\":1545:1554   */\n  dup8\n    /* \"#utility.yul\":1541:1563   */\n  add\n    /* \"#utility.yul\":1509:1573   */\n  tag_13\n  jump\t// in\ntag_38:\n    /* \"#utility.yul\":1499:1573   */\n  swap4\n  pop\n    /* \"#utility.yul\":1455:1583   */\n  pop\n    /* \"#utility.yul\":1622:1624   */\n  0x20\n    /* \"#utility.yul\":1648:1712   */\n  tag_39\n    /* \"#utility.yul\":1704:1711   */\n  dup7\n    /* \"#utility.yul\":1695:1701   */\n  dup3\n    /* \"#utility.yul\":1684:1693   */\n  dup8\n    /* \"#utility.yul\":1680:1702   */\n  add\n    /* \"#utility.yul\":1648:1712   */\n  tag_16\n  jump\t// in\ntag_39:\n    /* \"#utility.yul\":1638:1712   */\n  swap3\n  pop\n    /* \"#utility.yul\":1593:1722   */\n  pop\n    /* \"#utility.yul\":1761:1763   */\n  0x40\n    /* \"#utility.yul\":1787:1851   */\n  tag_40\n    /* \"#utility.yul\":1843:1850   */\n  dup7\n    /* \"#utility.yul\":1834:1840   */\n  dup3\n    /* \"#utility.yul\":1823:1832   */\n  dup8\n    /* \"#utility.yul\":1819:1841   */\n  add\n    /* \"#utility.yul\":1787:1851   */\n  tag_16\n  jump\t// in\ntag_40:\n    /* \"#utility.yul\":1777:1851   */\n  swap2\n  pop\n    /* \"#utility.yul\":1732:1861   */\n  pop\n    /* \"#utility.yul\":1205:1868   */\n  swap3\n  pop\n  swap3\n  pop\n  swap3\n  jump\t// out\n    /* \"contracts/EnglishAuction.sol\":200:934  contract EnglishAuction {... */\ntag_6:\n  mload(0x80)\n  mload(0xa0)\n  mload(0xc0)\n  codecopy(0x00, dataOffset(sub_0), dataSize(sub_0))\n  0x00\n  assignImmutable(\"0x8fef2229291b68be841adf029e58b87f39ba144b2d3b0af1760243d0a9bc6a1c\")\n  0x00\n  assignImmutable(\"0x277ab82e5a4641341820a4a2933a62c1de997e42e92548657ae21b3728d580fe\")\n  0x00\n  assignImmutable(\"0x5c4c6aa067b6f8e6cb38e6ab843832a94d1712d661a04d73c517d6a1931a9e5d\")\n  return(0x00, dataSize(sub_0))\nstop\n\nsub_0: assembly {\n        /* \"contracts/EnglishAuction.sol\":200:934  contract EnglishAuction {... */\n      mstore(0x40, 0x80)\n      callvalue\n      dup1\n      iszero\n      tag_1\n      jumpi\n      0x00\n      dup1\n      revert\n    tag_1:\n      pop\n      jumpi(tag_2, lt(calldatasize, 0x04))\n      shr(0xe0, calldataload(0x00))\n      dup1\n      0x7cc3ae8c\n      gt\n      tag_13\n      jumpi\n      dup1\n      0x7cc3ae8c\n      eq\n      tag_8\n      jumpi\n      dup1\n      0x91f90157\n      eq\n      tag_9\n      jumpi\n      dup1\n      0xbe9a6555\n      eq\n      tag_10\n      jumpi\n      dup1\n      0xc6bc5182\n      eq\n      tag_11\n      jumpi\n      dup1\n      0xd57bde79\n      eq\n      tag_12\n      jumpi\n      jump(tag_2)\n    tag_13:\n      dup1\n      0x08551a53\n      eq\n      tag_3\n      jumpi\n      dup1\n      0x12fa6feb\n      eq\n      tag_4\n      jumpi\n      dup1\n      0x1f2698ab\n      eq\n      tag_5\n      jumpi\n      dup1\n      0x47ccca02\n      eq\n      tag_6\n      jumpi\n      dup1\n      0x62ea82db\n      eq\n      tag_7\n      jumpi\n    tag_2:\n      0x00\n      dup1\n      revert\n        /* \"contracts/EnglishAuction.sol\":302:333  address public immutable seller */\n    tag_3:\n      tag_14\n      tag_15\n      jump\t// in\n    tag_14:\n      mload(0x40)\n      tag_16\n      swap2\n      swap1\n      tag_17\n      jump\t// in\n    tag_16:\n      mload(0x40)\n      dup1\n      swap2\n      sub\n      swap1\n      return\n        /* \"contracts/EnglishAuction.sol\":392:409  bool public ended */\n    tag_4:\n      tag_18\n      tag_19\n      jump\t// in\n    tag_18:\n      mload(0x40)\n      tag_20\n      swap2\n      swap1\n      tag_21\n      jump\t// in\n    tag_20:\n      mload(0x40)\n      dup1\n      swap2\n      sub\n      swap1\n      return\n        /* \"contracts/EnglishAuction.sol\":366:385  bool public started */\n    tag_5:\n      tag_22\n      tag_23\n      jump\t// in\n    tag_22:\n      mload(0x40)\n      tag_24\n      swap2\n      swap1\n      tag_21\n      jump\t// in\n    tag_24:\n      mload(0x40)\n      dup1\n      swap2\n      sub\n      swap1\n      return\n        /* \"contracts/EnglishAuction.sol\":231:259  IERC721 public immutable nft */\n    tag_6:\n      tag_25\n      tag_26\n      jump\t// in\n    tag_25:\n      mload(0x40)\n      tag_27\n      swap2\n      swap1\n      tag_28\n      jump\t// in\n    tag_27:\n      mload(0x40)\n      dup1\n      swap2\n      sub\n      swap1\n      return\n        /* \"contracts/EnglishAuction.sol\":482:518  mapping(address => uint) public bids */\n    tag_7:\n      tag_29\n      0x04\n      dup1\n      calldatasize\n      sub\n      dup2\n      add\n      swap1\n      tag_30\n      swap2\n      swap1\n      tag_31\n      jump\t// in\n    tag_30:\n      tag_32\n      jump\t// in\n    tag_29:\n      mload(0x40)\n      tag_33\n      swap2\n      swap1\n      tag_34\n      jump\t// in\n    tag_33:\n      mload(0x40)\n      dup1\n      swap2\n      sub\n      swap1\n      return\n        /* \"contracts/EnglishAuction.sol\":340:359  uint32 public endAt */\n    tag_8:\n      tag_35\n      tag_36\n      jump\t// in\n    tag_35:\n      mload(0x40)\n      tag_37\n      swap2\n      swap1\n      tag_38\n      jump\t// in\n    tag_37:\n      mload(0x40)\n      dup1\n      swap2\n      sub\n      swap1\n      return\n        /* \"contracts/EnglishAuction.sol\":418:446  address public highestBidder */\n    tag_9:\n      tag_39\n      tag_40\n      jump\t// in\n    tag_39:\n      mload(0x40)\n      tag_41\n      swap2\n      swap1\n      tag_17\n      jump\t// in\n    tag_41:\n      mload(0x40)\n      dup1\n      swap2\n      sub\n      swap1\n      return\n        /* \"contracts/EnglishAuction.sol\":765:931  function start() external {... */\n    tag_10:\n      tag_42\n      tag_43\n      jump\t// in\n    tag_42:\n      stop\n        /* \"contracts/EnglishAuction.sol\":266:293  uint public immutable nftId */\n    tag_11:\n      tag_44\n      tag_45\n      jump\t// in\n    tag_44:\n      mload(0x40)\n      tag_46\n      swap2\n      swap1\n      tag_34\n      jump\t// in\n    tag_46:\n      mload(0x40)\n      dup1\n      swap2\n      sub\n      swap1\n      return\n        /* \"contracts/EnglishAuction.sol\":453:475  uint public highestBid */\n    tag_12:\n      tag_47\n      tag_48\n      jump\t// in\n    tag_47:\n      mload(0x40)\n      tag_49\n      swap2\n      swap1\n      tag_34\n      jump\t// in\n    tag_49:\n      mload(0x40)\n      dup1\n      swap2\n      sub\n      swap1\n      return\n        /* \"contracts/EnglishAuction.sol\":302:333  address public immutable seller */\n    tag_15:\n      immutable(\"0x8fef2229291b68be841adf029e58b87f39ba144b2d3b0af1760243d0a9bc6a1c\")\n      dup2\n      jump\t// out\n        /* \"contracts/EnglishAuction.sol\":392:409  bool public ended */\n    tag_19:\n      0x00\n      0x05\n      swap1\n      sload\n      swap1\n      0x0100\n      exp\n      swap1\n      div\n      0xff\n      and\n      dup2\n      jump\t// out\n        /* \"contracts/EnglishAuction.sol\":366:385  bool public started */\n    tag_23:\n      0x00\n      0x04\n      swap1\n      sload\n      swap1\n      0x0100\n      exp\n      swap1\n      div\n      0xff\n      and\n      dup2\n      jump\t// out\n        /* \"contracts/EnglishAuction.sol\":231:259  IERC721 public immutable nft */\n    tag_26:\n      immutable(\"0x5c4c6aa067b6f8e6cb38e6ab843832a94d1712d661a04d73c517d6a1931a9e5d\")\n      dup2\n      jump\t// out\n        /* \"contracts/EnglishAuction.sol\":482:518  mapping(address => uint) public bids */\n    tag_32:\n      mstore(0x20, 0x02)\n      dup1\n      0x00\n      mstore\n      keccak256(0x00, 0x40)\n      0x00\n      swap2\n      pop\n      swap1\n      pop\n      sload\n      dup2\n      jump\t// out\n        /* \"contracts/EnglishAuction.sol\":340:359  uint32 public endAt */\n    tag_36:\n      0x00\n      dup1\n      sload\n      swap1\n      0x0100\n      exp\n      swap1\n      div\n      0xffffffff\n      and\n      dup2\n      jump\t// out\n        /* \"contracts/EnglishAuction.sol\":418:446  address public highestBidder */\n    tag_40:\n      0x00\n      0x06\n      swap1\n      sload\n      swap1\n      0x0100\n      exp\n      swap1\n      div\n      0xffffffffffffffffffffffffffffffffffffffff\n      and\n      dup2\n      jump\t// out\n        /* \"contracts/EnglishAuction.sol\":765:931  function start() external {... */\n    tag_43:\n        /* \"contracts/EnglishAuction.sol\":824:830  seller */\n      immutable(\"0x8fef2229291b68be841adf029e58b87f39ba144b2d3b0af1760243d0a9bc6a1c\")\n        /* \"contracts/EnglishAuction.sol\":810:830  msg.sender == seller */\n      0xffffffffffffffffffffffffffffffffffffffff\n      and\n        /* \"contracts/EnglishAuction.sol\":810:820  msg.sender */\n      caller\n        /* \"contracts/EnglishAuction.sol\":810:830  msg.sender == seller */\n      0xffffffffffffffffffffffffffffffffffffffff\n      and\n      eq\n        /* \"contracts/EnglishAuction.sol\":802:845  require(msg.sender == seller, \"not seller\") */\n      tag_51\n      jumpi\n      mload(0x40)\n      0x08c379a000000000000000000000000000000000000000000000000000000000\n      dup2\n      mstore\n      0x04\n      add\n      tag_52\n      swap1\n      tag_53\n      jump\t// in\n    tag_52:\n      mload(0x40)\n      dup1\n      swap2\n      sub\n      swap1\n      revert\n    tag_51:\n        /* \"contracts/EnglishAuction.sol\":865:872  started */\n      0x00\n      0x04\n      swap1\n      sload\n      swap1\n      0x0100\n      exp\n      swap1\n      div\n      0xff\n      and\n        /* \"contracts/EnglishAuction.sol\":864:872  !started */\n      iszero\n        /* \"contracts/EnglishAuction.sol\":856:884  require(!started, \"started\") */\n      tag_54\n      jumpi\n      mload(0x40)\n      0x08c379a000000000000000000000000000000000000000000000000000000000\n      dup2\n      mstore\n      0x04\n      add\n      tag_55\n      swap1\n      tag_56\n      jump\t// in\n    tag_55:\n      mload(0x40)\n      dup1\n      swap2\n      sub\n      swap1\n      revert\n    tag_54:\n        /* \"contracts/EnglishAuction.sol\":907:911  true */\n      0x01\n        /* \"contracts/EnglishAuction.sol\":897:904  started */\n      0x00\n      0x04\n        /* \"contracts/EnglishAuction.sol\":897:911  started = true */\n      0x0100\n      exp\n      dup2\n      sload\n      dup2\n      0xff\n      mul\n      not\n      and\n      swap1\n      dup4\n      iszero\n      iszero\n      mul\n      or\n      swap1\n      sstore\n      pop\n        /* \"contracts/EnglishAuction.sol\":765:931  function start() external {... */\n      jump\t// out\n        /* \"contracts/EnglishAuction.sol\":266:293  uint public immutable nftId */\n    tag_45:\n      immutable(\"0x277ab82e5a4641341820a4a2933a62c1de997e42e92548657ae21b3728d580fe\")\n      dup2\n      jump\t// out\n        /* \"contracts/EnglishAuction.sol\":453:475  uint public highestBid */\n    tag_48:\n      sload(0x01)\n      dup2\n      jump\t// out\n        /* \"#utility.yul\":7:133   */\n    tag_57:\n        /* \"#utility.yul\":44:51   */\n      0x00\n        /* \"#utility.yul\":84:126   */\n      0xffffffffffffffffffffffffffffffffffffffff\n        /* \"#utility.yul\":77:82   */\n      dup3\n        /* \"#utility.yul\":73:127   */\n      and\n        /* \"#utility.yul\":62:127   */\n      swap1\n      pop\n        /* \"#utility.yul\":7:133   */\n      swap2\n      swap1\n      pop\n      jump\t// out\n        /* \"#utility.yul\":139:235   */\n    tag_58:\n        /* \"#utility.yul\":176:183   */\n      0x00\n        /* \"#utility.yul\":205:229   */\n      tag_84\n        /* \"#utility.yul\":223:228   */\n      dup3\n        /* \"#utility.yul\":205:229   */\n      tag_57\n      jump\t// in\n    tag_84:\n        /* \"#utility.yul\":194:229   */\n      swap1\n      pop\n        /* \"#utility.yul\":139:235   */\n      swap2\n      swap1\n      pop\n      jump\t// out\n        /* \"#utility.yul\":241:359   */\n    tag_59:\n        /* \"#utility.yul\":328:352   */\n      tag_86\n        /* \"#utility.yul\":346:351   */\n      dup2\n        /* \"#utility.yul\":328:352   */\n      tag_58\n      jump\t// in\n    tag_86:\n        /* \"#utility.yul\":323:326   */\n      dup3\n        /* \"#utility.yul\":316:353   */\n      mstore\n        /* \"#utility.yul\":241:359   */\n      pop\n      pop\n      jump\t// out\n        /* \"#utility.yul\":365:587   */\n    tag_17:\n        /* \"#utility.yul\":458:462   */\n      0x00\n        /* \"#utility.yul\":496:498   */\n      0x20\n        /* \"#utility.yul\":485:494   */\n      dup3\n        /* \"#utility.yul\":481:499   */\n      add\n        /* \"#utility.yul\":473:499   */\n      swap1\n      pop\n        /* \"#utility.yul\":509:580   */\n      tag_88\n        /* \"#utility.yul\":577:578   */\n      0x00\n        /* \"#utility.yul\":566:575   */\n      dup4\n        /* \"#utility.yul\":562:579   */\n      add\n        /* \"#utility.yul\":553:559   */\n      dup5\n        /* \"#utility.yul\":509:580   */\n      tag_59\n      jump\t// in\n    tag_88:\n        /* \"#utility.yul\":365:587   */\n      swap3\n      swap2\n      pop\n      pop\n      jump\t// out\n        /* \"#utility.yul\":593:683   */\n    tag_60:\n        /* \"#utility.yul\":627:634   */\n      0x00\n        /* \"#utility.yul\":670:675   */\n      dup2\n        /* \"#utility.yul\":663:676   */\n      iszero\n        /* \"#utility.yul\":656:677   */\n      iszero\n        /* \"#utility.yul\":645:677   */\n      swap1\n      pop\n        /* \"#utility.yul\":593:683   */\n      swap2\n      swap1\n      pop\n      jump\t// out\n        /* \"#utility.yul\":689:798   */\n    tag_61:\n        /* \"#utility.yul\":770:791   */\n      tag_91\n        /* \"#utility.yul\":785:790   */\n      dup2\n        /* \"#utility.yul\":770:791   */\n      tag_60\n      jump\t// in\n    tag_91:\n        /* \"#utility.yul\":765:768   */\n      dup3\n        /* \"#utility.yul\":758:792   */\n      mstore\n        /* \"#utility.yul\":689:798   */\n      pop\n      pop\n      jump\t// out\n        /* \"#utility.yul\":804:1014   */\n    tag_21:\n        /* \"#utility.yul\":891:895   */\n      0x00\n        /* \"#utility.yul\":929:931   */\n      0x20\n        /* \"#utility.yul\":918:927   */\n      dup3\n        /* \"#utility.yul\":914:932   */\n      add\n        /* \"#utility.yul\":906:932   */\n      swap1\n      pop\n        /* \"#utility.yul\":942:1007   */\n      tag_93\n        /* \"#utility.yul\":1004:1005   */\n      0x00\n        /* \"#utility.yul\":993:1002   */\n      dup4\n        /* \"#utility.yul\":989:1006   */\n      add\n        /* \"#utility.yul\":980:986   */\n      dup5\n        /* \"#utility.yul\":942:1007   */\n      tag_61\n      jump\t// in\n    tag_93:\n        /* \"#utility.yul\":804:1014   */\n      swap3\n      swap2\n      pop\n      pop\n      jump\t// out\n        /* \"#utility.yul\":1020:1080   */\n    tag_62:\n        /* \"#utility.yul\":1048:1051   */\n      0x00\n        /* \"#utility.yul\":1069:1074   */\n      dup2\n        /* \"#utility.yul\":1062:1074   */\n      swap1\n      pop\n        /* \"#utility.yul\":1020:1080   */\n      swap2\n      swap1\n      pop\n      jump\t// out\n        /* \"#utility.yul\":1086:1228   */\n    tag_63:\n        /* \"#utility.yul\":1136:1145   */\n      0x00\n        /* \"#utility.yul\":1169:1222   */\n      tag_96\n        /* \"#utility.yul\":1187:1221   */\n      tag_97\n        /* \"#utility.yul\":1196:1220   */\n      tag_98\n        /* \"#utility.yul\":1214:1219   */\n      dup5\n        /* \"#utility.yul\":1196:1220   */\n      tag_57\n      jump\t// in\n    tag_98:\n        /* \"#utility.yul\":1187:1221   */\n      tag_62\n      jump\t// in\n    tag_97:\n        /* \"#utility.yul\":1169:1222   */\n      tag_57\n      jump\t// in\n    tag_96:\n        /* \"#utility.yul\":1156:1222   */\n      swap1\n      pop\n        /* \"#utility.yul\":1086:1228   */\n      swap2\n      swap1\n      pop\n      jump\t// out\n        /* \"#utility.yul\":1234:1360   */\n    tag_64:\n        /* \"#utility.yul\":1284:1293   */\n      0x00\n        /* \"#utility.yul\":1317:1354   */\n      tag_100\n        /* \"#utility.yul\":1348:1353   */\n      dup3\n        /* \"#utility.yul\":1317:1354   */\n      tag_63\n      jump\t// in\n    tag_100:\n        /* \"#utility.yul\":1304:1354   */\n      swap1\n      pop\n        /* \"#utility.yul\":1234:1360   */\n      swap2\n      swap1\n      pop\n      jump\t// out\n        /* \"#utility.yul\":1366:1506   */\n    tag_65:\n        /* \"#utility.yul\":1430:1439   */\n      0x00\n        /* \"#utility.yul\":1463:1500   */\n      tag_102\n        /* \"#utility.yul\":1494:1499   */\n      dup3\n        /* \"#utility.yul\":1463:1500   */\n      tag_64\n      jump\t// in\n    tag_102:\n        /* \"#utility.yul\":1450:1500   */\n      swap1\n      pop\n        /* \"#utility.yul\":1366:1506   */\n      swap2\n      swap1\n      pop\n      jump\t// out\n        /* \"#utility.yul\":1512:1671   */\n    tag_66:\n        /* \"#utility.yul\":1613:1664   */\n      tag_104\n        /* \"#utility.yul\":1658:1663   */\n      dup2\n        /* \"#utility.yul\":1613:1664   */\n      tag_65\n      jump\t// in\n    tag_104:\n        /* \"#utility.yul\":1608:1611   */\n      dup3\n        /* \"#utility.yul\":1601:1665   */\n      mstore\n        /* \"#utility.yul\":1512:1671   */\n      pop\n      pop\n      jump\t// out\n        /* \"#utility.yul\":1677:1927   */\n    tag_28:\n        /* \"#utility.yul\":1784:1788   */\n      0x00\n        /* \"#utility.yul\":1822:1824   */\n      0x20\n        /* \"#utility.yul\":1811:1820   */\n      dup3\n        /* \"#utility.yul\":1807:1825   */\n      add\n        /* \"#utility.yul\":1799:1825   */\n      swap1\n      pop\n        /* \"#utility.yul\":1835:1920   */\n      tag_106\n        /* \"#utility.yul\":1917:1918   */\n      0x00\n        /* \"#utility.yul\":1906:1915   */\n      dup4\n        /* \"#utility.yul\":1902:1919   */\n      add\n        /* \"#utility.yul\":1893:1899   */\n      dup5\n        /* \"#utility.yul\":1835:1920   */\n      tag_66\n      jump\t// in\n    tag_106:\n        /* \"#utility.yul\":1677:1927   */\n      swap3\n      swap2\n      pop\n      pop\n      jump\t// out\n        /* \"#utility.yul\":2014:2131   */\n    tag_68:\n        /* \"#utility.yul\":2123:2124   */\n      0x00\n        /* \"#utility.yul\":2120:2121   */\n      dup1\n        /* \"#utility.yul\":2113:2125   */\n      revert\n        /* \"#utility.yul\":2260:2382   */\n    tag_70:\n        /* \"#utility.yul\":2333:2357   */\n      tag_111\n        /* \"#utility.yul\":2351:2356   */\n      dup2\n        /* \"#utility.yul\":2333:2357   */\n      tag_58\n      jump\t// in\n    tag_111:\n        /* \"#utility.yul\":2326:2331   */\n      dup2\n        /* \"#utility.yul\":2323:2358   */\n      eq\n        /* \"#utility.yul\":2313:2376   */\n      tag_112\n      jumpi\n        /* \"#utility.yul\":2372:2373   */\n      0x00\n        /* \"#utility.yul\":2369:2370   */\n      dup1\n        /* \"#utility.yul\":2362:2374   */\n      revert\n        /* \"#utility.yul\":2313:2376   */\n    tag_112:\n        /* \"#utility.yul\":2260:2382   */\n      pop\n      jump\t// out\n        /* \"#utility.yul\":2388:2527   */\n    tag_71:\n        /* \"#utility.yul\":2434:2439   */\n      0x00\n        /* \"#utility.yul\":2472:2478   */\n      dup2\n        /* \"#utility.yul\":2459:2479   */\n      calldataload\n        /* \"#utility.yul\":2450:2479   */\n      swap1\n      pop\n        /* \"#utility.yul\":2488:2521   */\n      tag_114\n        /* \"#utility.yul\":2515:2520   */\n      dup2\n        /* \"#utility.yul\":2488:2521   */\n      tag_70\n      jump\t// in\n    tag_114:\n        /* \"#utility.yul\":2388:2527   */\n      swap3\n      swap2\n      pop\n      pop\n      jump\t// out\n        /* \"#utility.yul\":2533:2862   */\n    tag_31:\n        /* \"#utility.yul\":2592:2598   */\n      0x00\n        /* \"#utility.yul\":2641:2643   */\n      0x20\n        /* \"#utility.yul\":2629:2638   */\n      dup3\n        /* \"#utility.yul\":2620:2627   */\n      dup5\n        /* \"#utility.yul\":2616:2639   */\n      sub\n        /* \"#utility.yul\":2612:2644   */\n      slt\n        /* \"#utility.yul\":2609:2728   */\n      iszero\n      tag_116\n      jumpi\n        /* \"#utility.yul\":2647:2726   */\n      tag_117\n      tag_68\n      jump\t// in\n    tag_117:\n        /* \"#utility.yul\":2609:2728   */\n    tag_116:\n        /* \"#utility.yul\":2767:2768   */\n      0x00\n        /* \"#utility.yul\":2792:2845   */\n      tag_118\n        /* \"#utility.yul\":2837:2844   */\n      dup5\n        /* \"#utility.yul\":2828:2834   */\n      dup3\n        /* \"#utility.yul\":2817:2826   */\n      dup6\n        /* \"#utility.yul\":2813:2835   */\n      add\n        /* \"#utility.yul\":2792:2845   */\n      tag_71\n      jump\t// in\n    tag_118:\n        /* \"#utility.yul\":2782:2845   */\n      swap2\n      pop\n        /* \"#utility.yul\":2738:2855   */\n      pop\n        /* \"#utility.yul\":2533:2862   */\n      swap3\n      swap2\n      pop\n      pop\n      jump\t// out\n        /* \"#utility.yul\":2868:2945   */\n    tag_72:\n        /* \"#utility.yul\":2905:2912   */\n      0x00\n        /* \"#utility.yul\":2934:2939   */\n      dup2\n        /* \"#utility.yul\":2923:2939   */\n      swap1\n      pop\n        /* \"#utility.yul\":2868:2945   */\n      swap2\n      swap1\n      pop\n      jump\t// out\n        /* \"#utility.yul\":2951:3069   */\n    tag_73:\n        /* \"#utility.yul\":3038:3062   */\n      tag_121\n        /* \"#utility.yul\":3056:3061   */\n      dup2\n        /* \"#utility.yul\":3038:3062   */\n      tag_72\n      jump\t// in\n    tag_121:\n        /* \"#utility.yul\":3033:3036   */\n      dup3\n        /* \"#utility.yul\":3026:3063   */\n      mstore\n        /* \"#utility.yul\":2951:3069   */\n      pop\n      pop\n      jump\t// out\n        /* \"#utility.yul\":3075:3297   */\n    tag_34:\n        /* \"#utility.yul\":3168:3172   */\n      0x00\n        /* \"#utility.yul\":3206:3208   */\n      0x20\n        /* \"#utility.yul\":3195:3204   */\n      dup3\n        /* \"#utility.yul\":3191:3209   */\n      add\n        /* \"#utility.yul\":3183:3209   */\n      swap1\n      pop\n        /* \"#utility.yul\":3219:3290   */\n      tag_123\n        /* \"#utility.yul\":3287:3288   */\n      0x00\n        /* \"#utility.yul\":3276:3285   */\n      dup4\n        /* \"#utility.yul\":3272:3289   */\n      add\n        /* \"#utility.yul\":3263:3269   */\n      dup5\n        /* \"#utility.yul\":3219:3290   */\n      tag_73\n      jump\t// in\n    tag_123:\n        /* \"#utility.yul\":3075:3297   */\n      swap3\n      swap2\n      pop\n      pop\n      jump\t// out\n        /* \"#utility.yul\":3303:3396   */\n    tag_74:\n        /* \"#utility.yul\":3339:3346   */\n      0x00\n        /* \"#utility.yul\":3379:3389   */\n      0xffffffff\n        /* \"#utility.yul\":3372:3377   */\n      dup3\n        /* \"#utility.yul\":3368:3390   */\n      and\n        /* \"#utility.yul\":3357:3390   */\n      swap1\n      pop\n        /* \"#utility.yul\":3303:3396   */\n      swap2\n      swap1\n      pop\n      jump\t// out\n        /* \"#utility.yul\":3402:3517   */\n    tag_75:\n        /* \"#utility.yul\":3487:3510   */\n      tag_126\n        /* \"#utility.yul\":3504:3509   */\n      dup2\n        /* \"#utility.yul\":3487:3510   */\n      tag_74\n      jump\t// in\n    tag_126:\n        /* \"#utility.yul\":3482:3485   */\n      dup3\n        /* \"#utility.yul\":3475:3511   */\n      mstore\n        /* \"#utility.yul\":3402:3517   */\n      pop\n      pop\n      jump\t// out\n        /* \"#utility.yul\":3523:3741   */\n    tag_38:\n        /* \"#utility.yul\":3614:3618   */\n      0x00\n        /* \"#utility.yul\":3652:3654   */\n      0x20\n        /* \"#utility.yul\":3641:3650   */\n      dup3\n        /* \"#utility.yul\":3637:3655   */\n      add\n        /* \"#utility.yul\":3629:3655   */\n      swap1\n      pop\n        /* \"#utility.yul\":3665:3734   */\n      tag_128\n        /* \"#utility.yul\":3731:3732   */\n      0x00\n        /* \"#utility.yul\":3720:3729   */\n      dup4\n        /* \"#utility.yul\":3716:3733   */\n      add\n        /* \"#utility.yul\":3707:3713   */\n      dup5\n        /* \"#utility.yul\":3665:3734   */\n      tag_75\n      jump\t// in\n    tag_128:\n        /* \"#utility.yul\":3523:3741   */\n      swap3\n      swap2\n      pop\n      pop\n      jump\t// out\n        /* \"#utility.yul\":3747:3916   */\n    tag_76:\n        /* \"#utility.yul\":3831:3842   */\n      0x00\n        /* \"#utility.yul\":3865:3871   */\n      dup3\n        /* \"#utility.yul\":3860:3863   */\n      dup3\n        /* \"#utility.yul\":3853:3872   */\n      mstore\n        /* \"#utility.yul\":3905:3909   */\n      0x20\n        /* \"#utility.yul\":3900:3903   */\n      dup3\n        /* \"#utility.yul\":3896:3910   */\n      add\n        /* \"#utility.yul\":3881:3910   */\n      swap1\n      pop\n        /* \"#utility.yul\":3747:3916   */\n      swap3\n      swap2\n      pop\n      pop\n      jump\t// out\n        /* \"#utility.yul\":3922:4082   */\n    tag_77:\n        /* \"#utility.yul\":4062:4074   */\n      0x6e6f742073656c6c657200000000000000000000000000000000000000000000\n        /* \"#utility.yul\":4058:4059   */\n      0x00\n        /* \"#utility.yul\":4050:4056   */\n      dup3\n        /* \"#utility.yul\":4046:4060   */\n      add\n        /* \"#utility.yul\":4039:4075   */\n      mstore\n        /* \"#utility.yul\":3922:4082   */\n      pop\n      jump\t// out\n        /* \"#utility.yul\":4088:4454   */\n    tag_78:\n        /* \"#utility.yul\":4230:4233   */\n      0x00\n        /* \"#utility.yul\":4251:4318   */\n      tag_132\n        /* \"#utility.yul\":4315:4317   */\n      0x0a\n        /* \"#utility.yul\":4310:4313   */\n      dup4\n        /* \"#utility.yul\":4251:4318   */\n      tag_76\n      jump\t// in\n    tag_132:\n        /* \"#utility.yul\":4244:4318   */\n      swap2\n      pop\n        /* \"#utility.yul\":4327:4420   */\n      tag_133\n        /* \"#utility.yul\":4416:4419   */\n      dup3\n        /* \"#utility.yul\":4327:4420   */\n      tag_77\n      jump\t// in\n    tag_133:\n        /* \"#utility.yul\":4445:4447   */\n      0x20\n        /* \"#utility.yul\":4440:4443   */\n      dup3\n        /* \"#utility.yul\":4436:4448   */\n      add\n        /* \"#utility.yul\":4429:4448   */\n      swap1\n      pop\n        /* \"#utility.yul\":4088:4454   */\n      swap2\n      swap1\n      pop\n      jump\t// out\n        /* \"#utility.yul\":4460:4879   */\n    tag_53:\n        /* \"#utility.yul\":4626:4630   */\n      0x00\n        /* \"#utility.yul\":4664:4666   */\n      0x20\n        /* \"#utility.yul\":4653:4662   */\n      dup3\n        /* \"#utility.yul\":4649:4667   */\n      add\n        /* \"#utility.yul\":4641:4667   */\n      swap1\n      pop\n        /* \"#utility.yul\":4713:4722   */\n      dup2\n        /* \"#utility.yul\":4707:4711   */\n      dup2\n        /* \"#utility.yul\":4703:4723   */\n      sub\n        /* \"#utility.yul\":4699:4700   */\n      0x00\n        /* \"#utility.yul\":4688:4697   */\n      dup4\n        /* \"#utility.yul\":4684:4701   */\n      add\n        /* \"#utility.yul\":4677:4724   */\n      mstore\n        /* \"#utility.yul\":4741:4872   */\n      tag_135\n        /* \"#utility.yul\":4867:4871   */\n      dup2\n        /* \"#utility.yul\":4741:4872   */\n      tag_78\n      jump\t// in\n    tag_135:\n        /* \"#utility.yul\":4733:4872   */\n      swap1\n      pop\n        /* \"#utility.yul\":4460:4879   */\n      swap2\n      swap1\n      pop\n      jump\t// out\n        /* \"#utility.yul\":4885:5042   */\n    tag_79:\n        /* \"#utility.yul\":5025:5034   */\n      0x7374617274656400000000000000000000000000000000000000000000000000\n        /* \"#utility.yul\":5021:5022   */\n      0x00\n        /* \"#utility.yul\":5013:5019   */\n      dup3\n        /* \"#utility.yul\":5009:5023   */\n      add\n        /* \"#utility.yul\":5002:5035   */\n      mstore\n        /* \"#utility.yul\":4885:5042   */\n      pop\n      jump\t// out\n        /* \"#utility.yul\":5048:5413   */\n    tag_80:\n        /* \"#utility.yul\":5190:5193   */\n      0x00\n        /* \"#utility.yul\":5211:5277   */\n      tag_138\n        /* \"#utility.yul\":5275:5276   */\n      0x07\n        /* \"#utility.yul\":5270:5273   */\n      dup4\n        /* \"#utility.yul\":5211:5277   */\n      tag_76\n      jump\t// in\n    tag_138:\n        /* \"#utility.yul\":5204:5277   */\n      swap2\n      pop\n        /* \"#utility.yul\":5286:5379   */\n      tag_139\n        /* \"#utility.yul\":5375:5378   */\n      dup3\n        /* \"#utility.yul\":5286:5379   */\n      tag_79\n      jump\t// in\n    tag_139:\n        /* \"#utility.yul\":5404:5406   */\n      0x20\n        /* \"#utility.yul\":5399:5402   */\n      dup3\n        /* \"#utility.yul\":5395:5407   */\n      add\n        /* \"#utility.yul\":5388:5407   */\n      swap1\n      pop\n        /* \"#utility.yul\":5048:5413   */\n      swap2\n      swap1\n      pop\n      jump\t// out\n        /* \"#utility.yul\":5419:5838   */\n    tag_56:\n        /* \"#utility.yul\":5585:5589   */\n      0x00\n        /* \"#utility.yul\":5623:5625   */\n      0x20\n        /* \"#utility.yul\":5612:5621   */\n      dup3\n        /* \"#utility.yul\":5608:5626   */\n      add\n        /* \"#utility.yul\":5600:5626   */\n      swap1\n      pop\n        /* \"#utility.yul\":5672:5681   */\n      dup2\n        /* \"#utility.yul\":5666:5670   */\n      dup2\n        /* \"#utility.yul\":5662:5682   */\n      sub\n        /* \"#utility.yul\":5658:5659   */\n      0x00\n        /* \"#utility.yul\":5647:5656   */\n      dup4\n        /* \"#utility.yul\":5643:5660   */\n      add\n        /* \"#utility.yul\":5636:5683   */\n      mstore\n        /* \"#utility.yul\":5700:5831   */\n      tag_141\n        /* \"#utility.yul\":5826:5830   */\n      dup2\n        /* \"#utility.yul\":5700:5831   */\n      tag_80\n      jump\t// in\n    tag_141:\n        /* \"#utility.yul\":5692:5831   */\n      swap1\n      pop\n        /* \"#utility.yul\":5419:5838   */\n      swap2\n      swap1\n      pop\n      jump\t// out\n\n    auxdata: 0xa2646970667358221220e60ec667ef07555cac6fdb913cb4a43a56948b76ed113f531ff449fc28e8e9af64736f6c63430008110033\n}\n",
				"bytecode": {
					"linkReferences": {},
					"object": "60e060405234801561001057600080fd5b5060405161087c38038061087c8339818101604052810190610032919061014a565b8273ffffffffffffffffffffffffffffffffffffffff1660808173ffffffffffffffffffffffffffffffffffffffff16815250508160a081815250503373ffffffffffffffffffffffffffffffffffffffff1660c08173ffffffffffffffffffffffffffffffffffffffff16815250508060018190555050505061019d565b600080fd5b600073ffffffffffffffffffffffffffffffffffffffff82169050919050565b60006100e1826100b6565b9050919050565b6100f1816100d6565b81146100fc57600080fd5b50565b60008151905061010e816100e8565b92915050565b6000819050919050565b61012781610114565b811461013257600080fd5b50565b6000815190506101448161011e565b92915050565b600080600060608486031215610163576101626100b1565b5b6000610171868287016100ff565b935050602061018286828701610135565b925050604061019386828701610135565b9150509250925092565b60805160a05160c0516106a96101d3600039600081816101cf015261028f0152600061038a0152600061021901526106a96000f3fe608060405234801561001057600080fd5b506004361061009e5760003560e01c80637cc3ae8c116100665780637cc3ae8c1461014b57806391f9015714610169578063be9a655514610187578063c6bc518214610191578063d57bde79146101af5761009e565b806308551a53146100a357806312fa6feb146100c15780631f2698ab146100df57806347ccca02146100fd57806362ea82db1461011b575b600080fd5b6100ab6101cd565b6040516100b891906103f3565b60405180910390f35b6100c96101f1565b6040516100d69190610429565b60405180910390f35b6100e7610204565b6040516100f49190610429565b60405180910390f35b610105610217565b60405161011291906104a3565b60405180910390f35b610135600480360381019061013091906104ef565b61023b565b6040516101429190610535565b60405180910390f35b610153610253565b604051610160919061056f565b60405180910390f35b610171610267565b60405161017e91906103f3565b60405180910390f35b61018f61028d565b005b610199610388565b6040516101a69190610535565b60405180910390f35b6101b76103ac565b6040516101c49190610535565b60405180910390f35b7f000000000000000000000000000000000000000000000000000000000000000081565b600060059054906101000a900460ff1681565b600060049054906101000a900460ff1681565b7f000000000000000000000000000000000000000000000000000000000000000081565b60026020528060005260406000206000915090505481565b60008054906101000a900463ffffffff1681565b600060069054906101000a900473ffffffffffffffffffffffffffffffffffffffff1681565b7f000000000000000000000000000000000000000000000000000000000000000073ffffffffffffffffffffffffffffffffffffffff163373ffffffffffffffffffffffffffffffffffffffff161461031b576040517f08c379a0000000000000000000000000000000000000000000000000000000008152600401610312906105e7565b60405180910390fd5b600060049054906101000a900460ff161561036b576040517f08c379a000000000000000000000000000000000000000000000000000000000815260040161036290610653565b60405180910390fd5b6001600060046101000a81548160ff021916908315150217905550565b7f000000000000000000000000000000000000000000000000000000000000000081565b60015481565b600073ffffffffffffffffffffffffffffffffffffffff82169050919050565b60006103dd826103b2565b9050919050565b6103ed816103d2565b82525050565b600060208201905061040860008301846103e4565b92915050565b60008115159050919050565b6104238161040e565b82525050565b600060208201905061043e600083018461041a565b92915050565b6000819050919050565b600061046961046461045f846103b2565b610444565b6103b2565b9050919050565b600061047b8261044e565b9050919050565b600061048d82610470565b9050919050565b61049d81610482565b82525050565b60006020820190506104b86000830184610494565b92915050565b600080fd5b6104cc816103d2565b81146104d757600080fd5b50565b6000813590506104e9816104c3565b92915050565b600060208284031215610505576105046104be565b5b6000610513848285016104da565b91505092915050565b6000819050919050565b61052f8161051c565b82525050565b600060208201905061054a6000830184610526565b92915050565b600063ffffffff82169050919050565b61056981610550565b82525050565b60006020820190506105846000830184610560565b92915050565b600082825260208201905092915050565b7f6e6f742073656c6c657200000000000000000000000000000000000000000000600082015250565b60006105d1600a8361058a565b91506105dc8261059b565b602082019050919050565b60006020820190508181036000830152610600816105c4565b9050919050565b7f7374617274656400000000000000000000000000000000000000000000000000600082015250565b600061063d60078361058a565b915061064882610607565b602082019050919050565b6000602082019050818103600083015261066c81610630565b905091905056fea2646970667358221220e60ec667ef07555cac6fdb913cb4a43a56948b76ed113f531ff449fc28e8e9af64736f6c63430008110033",
					"opcodes": "PUSH1 0xE0 PUSH1 0x40 MSTORE CALLVALUE DUP1 ISZERO PUSH2 0x10 JUMPI PUSH1 0x0 DUP1 REVERT JUMPDEST POP PUSH1 0x40 MLOAD PUSH2 0x87C CODESIZE SUB DUP1 PUSH2 0x87C DUP4 CODECOPY DUP2 DUP2 ADD PUSH1 0x40 MSTORE DUP2 ADD SWAP1 PUSH2 0x32 SWAP2 SWAP1 PUSH2 0x14A JUMP JUMPDEST DUP3 PUSH20 0xFFFFFFFFFFFFFFFFFFFFFFFFFFFFFFFFFFFFFFFF AND PUSH1 0x80 DUP2 PUSH20 0xFFFFFFFFFFFFFFFFFFFFFFFFFFFFFFFFFFFFFFFF AND DUP2 MSTORE POP POP DUP2 PUSH1 0xA0 DUP2 DUP2 MSTORE POP POP CALLER PUSH20 0xFFFFFFFFFFFFFFFFFFFFFFFFFFFFFFFFFFFFFFFF AND PUSH1 0xC0 DUP2 PUSH20 0xFFFFFFFFFFFFFFFFFFFFFFFFFFFFFFFFFFFFFFFF AND DUP2 MSTORE POP POP DUP1 PUSH1 0x1 DUP2 SWAP1 SSTORE POP POP POP POP PUSH2 0x19D JUMP JUMPDEST PUSH1 0x0 DUP1 REVERT JUMPDEST PUSH1 0x0 PUSH20 0xFFFFFFFFFFFFFFFFFFFFFFFFFFFFFFFFFFFFFFFF DUP3 AND SWAP1 POP SWAP2 SWAP1 POP JUMP JUMPDEST PUSH1 0x0 PUSH2 0xE1 DUP3 PUSH2 0xB6 JUMP JUMPDEST SWAP1 POP SWAP2 SWAP1 POP JUMP JUMPDEST PUSH2 0xF1 DUP2 PUSH2 0xD6 JUMP JUMPDEST DUP2 EQ PUSH2 0xFC JUMPI PUSH1 0x0 DUP1 REVERT JUMPDEST POP JUMP JUMPDEST PUSH1 0x0 DUP2 MLOAD SWAP1 POP PUSH2 0x10E DUP2 PUSH2 0xE8 JUMP JUMPDEST SWAP3 SWAP2 POP POP JUMP JUMPDEST PUSH1 0x0 DUP2 SWAP1 POP SWAP2 SWAP1 POP JUMP JUMPDEST PUSH2 0x127 DUP2 PUSH2 0x114 JUMP JUMPDEST DUP2 EQ PUSH2 0x132 JUMPI PUSH1 0x0 DUP1 REVERT JUMPDEST POP JUMP JUMPDEST PUSH1 0x0 DUP2 MLOAD SWAP1 POP PUSH2 0x144 DUP2 PUSH2 0x11E JUMP JUMPDEST SWAP3 SWAP2 POP POP JUMP JUMPDEST PUSH1 0x0 DUP1 PUSH1 0x0 PUSH1 0x60 DUP5 DUP7 SUB SLT ISZERO PUSH2 0x163 JUMPI PUSH2 0x162 PUSH2 0xB1 JUMP JUMPDEST JUMPDEST PUSH1 0x0 PUSH2 0x171 DUP7 DUP3 DUP8 ADD PUSH2 0xFF JUMP JUMPDEST SWAP4 POP POP PUSH1 0x20 PUSH2 0x182 DUP7 DUP3 DUP8 ADD PUSH2 0x135 JUMP JUMPDEST SWAP3 POP POP PUSH1 0x40 PUSH2 0x193 DUP7 DUP3 DUP8 ADD PUSH2 0x135 JUMP JUMPDEST SWAP2 POP POP SWAP3 POP SWAP3 POP SWAP3 JUMP JUMPDEST PUSH1 0x80 MLOAD PUSH1 0xA0 MLOAD PUSH1 0xC0 MLOAD PUSH2 0x6A9 PUSH2 0x1D3 PUSH1 0x0 CODECOPY PUSH1 0x0 DUP2 DUP2 PUSH2 0x1CF ADD MSTORE PUSH2 0x28F ADD MSTORE PUSH1 0x0 PUSH2 0x38A ADD MSTORE PUSH1 0x0 PUSH2 0x219 ADD MSTORE PUSH2 0x6A9 PUSH1 0x0 RETURN INVALID PUSH1 0x80 PUSH1 0x40 MSTORE CALLVALUE DUP1 ISZERO PUSH2 0x10 JUMPI PUSH1 0x0 DUP1 REVERT JUMPDEST POP PUSH1 0x4 CALLDATASIZE LT PUSH2 0x9E JUMPI PUSH1 0x0 CALLDATALOAD PUSH1 0xE0 SHR DUP1 PUSH4 0x7CC3AE8C GT PUSH2 0x66 JUMPI DUP1 PUSH4 0x7CC3AE8C EQ PUSH2 0x14B JUMPI DUP1 PUSH4 0x91F90157 EQ PUSH2 0x169 JUMPI DUP1 PUSH4 0xBE9A6555 EQ PUSH2 0x187 JUMPI DUP1 PUSH4 0xC6BC5182 EQ PUSH2 0x191 JUMPI DUP1 PUSH4 0xD57BDE79 EQ PUSH2 0x1AF JUMPI PUSH2 0x9E JUMP JUMPDEST DUP1 PUSH4 0x8551A53 EQ PUSH2 0xA3 JUMPI DUP1 PUSH4 0x12FA6FEB EQ PUSH2 0xC1 JUMPI DUP1 PUSH4 0x1F2698AB EQ PUSH2 0xDF JUMPI DUP1 PUSH4 0x47CCCA02 EQ PUSH2 0xFD JUMPI DUP1 PUSH4 0x62EA82DB EQ PUSH2 0x11B JUMPI JUMPDEST PUSH1 0x0 DUP1 REVERT JUMPDEST PUSH2 0xAB PUSH2 0x1CD JUMP JUMPDEST PUSH1 0x40 MLOAD PUSH2 0xB8 SWAP2 SWAP1 PUSH2 0x3F3 JUMP JUMPDEST PUSH1 0x40 MLOAD DUP1 SWAP2 SUB SWAP1 RETURN JUMPDEST PUSH2 0xC9 PUSH2 0x1F1 JUMP JUMPDEST PUSH1 0x40 MLOAD PUSH2 0xD6 SWAP2 SWAP1 PUSH2 0x429 JUMP JUMPDEST PUSH1 0x40 MLOAD DUP1 SWAP2 SUB SWAP1 RETURN JUMPDEST PUSH2 0xE7 PUSH2 0x204 JUMP JUMPDEST PUSH1 0x40 MLOAD PUSH2 0xF4 SWAP2 SWAP1 PUSH2 0x429 JUMP JUMPDEST PUSH1 0x40 MLOAD DUP1 SWAP2 SUB SWAP1 RETURN JUMPDEST PUSH2 0x105 PUSH2 0x217 JUMP JUMPDEST PUSH1 0x40 MLOAD PUSH2 0x112 SWAP2 SWAP1 PUSH2 0x4A3 JUMP JUMPDEST PUSH1 0x40 MLOAD DUP1 SWAP2 SUB SWAP1 RETURN JUMPDEST PUSH2 0x135 PUSH1 0x4 DUP1 CALLDATASIZE SUB DUP2 ADD SWAP1 PUSH2 0x130 SWAP2 SWAP1 PUSH2 0x4EF JUMP JUMPDEST PUSH2 0x23B JUMP JUMPDEST PUSH1 0x40 MLOAD PUSH2 0x142 SWAP2 SWAP1 PUSH2 0x535 JUMP JUMPDEST PUSH1 0x40 MLOAD DUP1 SWAP2 SUB SWAP1 RETURN JUMPDEST PUSH2 0x153 PUSH2 0x253 JUMP JUMPDEST PUSH1 0x40 MLOAD PUSH2 0x160 SWAP2 SWAP1 PUSH2 0x56F JUMP JUMPDEST PUSH1 0x40 MLOAD DUP1 SWAP2 SUB SWAP1 RETURN JUMPDEST PUSH2 0x171 PUSH2 0x267 JUMP JUMPDEST PUSH1 0x40 MLOAD PUSH2 0x17E SWAP2 SWAP1 PUSH2 0x3F3 JUMP JUMPDEST PUSH1 0x40 MLOAD DUP1 SWAP2 SUB SWAP1 RETURN JUMPDEST PUSH2 0x18F PUSH2 0x28D JUMP JUMPDEST STOP JUMPDEST PUSH2 0x199 PUSH2 0x388 JUMP JUMPDEST PUSH1 0x40 MLOAD PUSH2 0x1A6 SWAP2 SWAP1 PUSH2 0x535 JUMP JUMPDEST PUSH1 0x40 MLOAD DUP1 SWAP2 SUB SWAP1 RETURN JUMPDEST PUSH2 0x1B7 PUSH2 0x3AC JUMP JUMPDEST PUSH1 0x40 MLOAD PUSH2 0x1C4 SWAP2 SWAP1 PUSH2 0x535 JUMP JUMPDEST PUSH1 0x40 MLOAD DUP1 SWAP2 SUB SWAP1 RETURN JUMPDEST PUSH32 0x0 DUP2 JUMP JUMPDEST PUSH1 0x0 PUSH1 0x5 SWAP1 SLOAD SWAP1 PUSH2 0x100 EXP SWAP1 DIV PUSH1 0xFF AND DUP2 JUMP JUMPDEST PUSH1 0x0 PUSH1 0x4 SWAP1 SLOAD SWAP1 PUSH2 0x100 EXP SWAP1 DIV PUSH1 0xFF AND DUP2 JUMP JUMPDEST PUSH32 0x0 DUP2 JUMP JUMPDEST PUSH1 0x2 PUSH1 0x20 MSTORE DUP1 PUSH1 0x0 MSTORE PUSH1 0x40 PUSH1 0x0 KECCAK256 PUSH1 0x0 SWAP2 POP SWAP1 POP SLOAD DUP2 JUMP JUMPDEST PUSH1 0x0 DUP1 SLOAD SWAP1 PUSH2 0x100 EXP SWAP1 DIV PUSH4 0xFFFFFFFF AND DUP2 JUMP JUMPDEST PUSH1 0x0 PUSH1 0x6 SWAP1 SLOAD SWAP1 PUSH2 0x100 EXP SWAP1 DIV PUSH20 0xFFFFFFFFFFFFFFFFFFFFFFFFFFFFFFFFFFFFFFFF AND DUP2 JUMP JUMPDEST PUSH32 0x0 PUSH20 0xFFFFFFFFFFFFFFFFFFFFFFFFFFFFFFFFFFFFFFFF AND CALLER PUSH20 0xFFFFFFFFFFFFFFFFFFFFFFFFFFFFFFFFFFFFFFFF AND EQ PUSH2 0x31B JUMPI PUSH1 0x40 MLOAD PUSH32 0x8C379A000000000000000000000000000000000000000000000000000000000 DUP2 MSTORE PUSH1 0x4 ADD PUSH2 0x312 SWAP1 PUSH2 0x5E7 JUMP JUMPDEST PUSH1 0x40 MLOAD DUP1 SWAP2 SUB SWAP1 REVERT JUMPDEST PUSH1 0x0 PUSH1 0x4 SWAP1 SLOAD SWAP1 PUSH2 0x100 EXP SWAP1 DIV PUSH1 0xFF AND ISZERO PUSH2 0x36B JUMPI PUSH1 0x40 MLOAD PUSH32 0x8C379A000000000000000000000000000000000000000000000000000000000 DUP2 MSTORE PUSH1 0x4 ADD PUSH2 0x362 SWAP1 PUSH2 0x653 JUMP JUMPDEST PUSH1 0x40 MLOAD DUP1 SWAP2 SUB SWAP1 REVERT JUMPDEST PUSH1 0x1 PUSH1 0x0 PUSH1 0x4 PUSH2 0x100 EXP DUP2 SLOAD DUP2 PUSH1 0xFF MUL NOT AND SWAP1 DUP4 ISZERO ISZERO MUL OR SWAP1 SSTORE POP JUMP JUMPDEST PUSH32 0x0 DUP2 JUMP JUMPDEST PUSH1 0x1 SLOAD DUP2 JUMP JUMPDEST PUSH1 0x0 PUSH20 0xFFFFFFFFFFFFFFFFFFFFFFFFFFFFFFFFFFFFFFFF DUP3 AND SWAP1 POP SWAP2 SWAP1 POP JUMP JUMPDEST PUSH1 0x0 PUSH2 0x3DD DUP3 PUSH2 0x3B2 JUMP JUMPDEST SWAP1 POP SWAP2 SWAP1 POP JUMP JUMPDEST PUSH2 0x3ED DUP2 PUSH2 0x3D2 JUMP JUMPDEST DUP3 MSTORE POP POP JUMP JUMPDEST PUSH1 0x0 PUSH1 0x20 DUP3 ADD SWAP1 POP PUSH2 0x408 PUSH1 0x0 DUP4 ADD DUP5 PUSH2 0x3E4 JUMP JUMPDEST SWAP3 SWAP2 POP POP JUMP JUMPDEST PUSH1 0x0 DUP2 ISZERO ISZERO SWAP1 POP SWAP2 SWAP1 POP JUMP JUMPDEST PUSH2 0x423 DUP2 PUSH2 0x40E JUMP JUMPDEST DUP3 MSTORE POP POP JUMP JUMPDEST PUSH1 0x0 PUSH1 0x20 DUP3 ADD SWAP1 POP PUSH2 0x43E PUSH1 0x0 DUP4 ADD DUP5 PUSH2 0x41A JUMP JUMPDEST SWAP3 SWAP2 POP POP JUMP JUMPDEST PUSH1 0x0 DUP2 SWAP1 POP SWAP2 SWAP1 POP JUMP JUMPDEST PUSH1 0x0 PUSH2 0x469 PUSH2 0x464 PUSH2 0x45F DUP5 PUSH2 0x3B2 JUMP JUMPDEST PUSH2 0x444 JUMP JUMPDEST PUSH2 0x3B2 JUMP JUMPDEST SWAP1 POP SWAP2 SWAP1 POP JUMP JUMPDEST PUSH1 0x0 PUSH2 0x47B DUP3 PUSH2 0x44E JUMP JUMPDEST SWAP1 POP SWAP2 SWAP1 POP JUMP JUMPDEST PUSH1 0x0 PUSH2 0x48D DUP3 PUSH2 0x470 JUMP JUMPDEST SWAP1 POP SWAP2 SWAP1 POP JUMP JUMPDEST PUSH2 0x49D DUP2 PUSH2 0x482 JUMP JUMPDEST DUP3 MSTORE POP POP JUMP JUMPDEST PUSH1 0x0 PUSH1 0x20 DUP3 ADD SWAP1 POP PUSH2 0x4B8 PUSH1 0x0 DUP4 ADD DUP5 PUSH2 0x494 JUMP JUMPDEST SWAP3 SWAP2 POP POP JUMP JUMPDEST PUSH1 0x0 DUP1 REVERT JUMPDEST PUSH2 0x4CC DUP2 PUSH2 0x3D2 JUMP JUMPDEST DUP2 EQ PUSH2 0x4D7 JUMPI PUSH1 0x0 DUP1 REVERT JUMPDEST POP JUMP JUMPDEST PUSH1 0x0 DUP2 CALLDATALOAD SWAP1 POP PUSH2 0x4E9 DUP2 PUSH2 0x4C3 JUMP JUMPDEST SWAP3 SWAP2 POP POP JUMP JUMPDEST PUSH1 0x0 PUSH1 0x20 DUP3 DUP5 SUB SLT ISZERO PUSH2 0x505 JUMPI PUSH2 0x504 PUSH2 0x4BE JUMP JUMPDEST JUMPDEST PUSH1 0x0 PUSH2 0x513 DUP5 DUP3 DUP6 ADD PUSH2 0x4DA JUMP JUMPDEST SWAP2 POP POP SWAP3 SWAP2 POP POP JUMP JUMPDEST PUSH1 0x0 DUP2 SWAP1 POP SWAP2 SWAP1 POP JUMP JUMPDEST PUSH2 0x52F DUP2 PUSH2 0x51C JUMP JUMPDEST DUP3 MSTORE POP POP JUMP JUMPDEST PUSH1 0x0 PUSH1 0x20 DUP3 ADD SWAP1 POP PUSH2 0x54A PUSH1 0x0 DUP4 ADD DUP5 PUSH2 0x526 JUMP JUMPDEST SWAP3 SWAP2 POP POP JUMP JUMPDEST PUSH1 0x0 PUSH4 0xFFFFFFFF DUP3 AND SWAP1 POP SWAP2 SWAP1 POP JUMP JUMPDEST PUSH2 0x569 DUP2 PUSH2 0x550 JUMP JUMPDEST DUP3 MSTORE POP POP JUMP JUMPDEST PUSH1 0x0 PUSH1 0x20 DUP3 ADD SWAP1 POP PUSH2 0x584 PUSH1 0x0 DUP4 ADD DUP5 PUSH2 0x560 JUMP JUMPDEST SWAP3 SWAP2 POP POP JUMP JUMPDEST PUSH1 0x0 DUP3 DUP3 MSTORE PUSH1 0x20 DUP3 ADD SWAP1 POP SWAP3 SWAP2 POP POP JUMP JUMPDEST PUSH32 0x6E6F742073656C6C657200000000000000000000000000000000000000000000 PUSH1 0x0 DUP3 ADD MSTORE POP JUMP JUMPDEST PUSH1 0x0 PUSH2 0x5D1 PUSH1 0xA DUP4 PUSH2 0x58A JUMP JUMPDEST SWAP2 POP PUSH2 0x5DC DUP3 PUSH2 0x59B JUMP JUMPDEST PUSH1 0x20 DUP3 ADD SWAP1 POP SWAP2 SWAP1 POP JUMP JUMPDEST PUSH1 0x0 PUSH1 0x20 DUP3 ADD SWAP1 POP DUP2 DUP2 SUB PUSH1 0x0 DUP4 ADD MSTORE PUSH2 0x600 DUP2 PUSH2 0x5C4 JUMP JUMPDEST SWAP1 POP SWAP2 SWAP1 POP JUMP JUMPDEST PUSH32 0x7374617274656400000000000000000000000000000000000000000000000000 PUSH1 0x0 DUP3 ADD MSTORE POP JUMP JUMPDEST PUSH1 0x0 PUSH2 0x63D PUSH1 0x7 DUP4 PUSH2 0x58A JUMP JUMPDEST SWAP2 POP PUSH2 0x648 DUP3 PUSH2 0x607 JUMP JUMPDEST PUSH1 0x20 DUP3 ADD SWAP1 POP SWAP2 SWAP1 POP JUMP JUMPDEST PUSH1 0x0 PUSH1 0x20 DUP3 ADD SWAP1 POP DUP2 DUP2 SUB PUSH1 0x0 DUP4 ADD MSTORE PUSH2 0x66C DUP2 PUSH2 0x630 JUMP JUMPDEST SWAP1 POP SWAP2 SWAP1 POP JUMP INVALID LOG2 PUSH5 0x6970667358 0x22 SLT KECCAK256 0xE6 0xE 0xC6 PUSH8 0xEF07555CAC6FDB91 EXTCODECOPY 0xB4 LOG4 GASPRICE JUMP SWAP5 DUP12 PUSH23 0xED113F531FF449FC28E8E9AF64736F6C63430008110033 "
				},
				"gasEstimates": {
					"creation": {
						"codeDepositCost": "341000",
						"executionCost": "infinite",
						"totalCost": "infinite"
					},
					"external": {
						"bids(address)": "2903",
						"endAt()": "2468",
						"ended()": "2544",
						"highestBid()": "2517",
						"highestBidder()": "2586",
						"nft()": "infinite",
						"nftId()": "infinite",
						"seller()": "infinite",
						"start()": "infinite",
						"started()": "2566"
					}
				},
				"methodIdentifiers": {
					"bids(address)": "62ea82db",
					"endAt()": "7cc3ae8c",
					"ended()": "12fa6feb",
					"highestBid()": "d57bde79",
					"highestBidder()": "91f90157",
					"nft()": "47ccca02",
					"nftId()": "c6bc5182",
					"seller()": "08551a53",
					"start()": "be9a6555",
					"started()": "1f2698ab"
				}
			},
			"storageLayout": {
				"storage": [
					{
						"astId": 20,
						"contract": "contracts/EnglishAuction.sol:EnglishAuction",
						"label": "endAt",
						"offset": 0,
						"slot": "0",
						"type": "t_uint32"
					},
					{
						"astId": 22,
						"contract": "contracts/EnglishAuction.sol:EnglishAuction",
						"label": "started",
						"offset": 4,
						"slot": "0",
						"type": "t_bool"
					},
					{
						"astId": 24,
						"contract": "contracts/EnglishAuction.sol:EnglishAuction",
						"label": "ended",
						"offset": 5,
						"slot": "0",
						"type": "t_bool"
					},
					{
						"astId": 26,
						"contract": "contracts/EnglishAuction.sol:EnglishAuction",
						"label": "highestBidder",
						"offset": 6,
						"slot": "0",
						"type": "t_address"
					},
					{
						"astId": 28,
						"contract": "contracts/EnglishAuction.sol:EnglishAuction",
						"label": "highestBid",
						"offset": 0,
						"slot": "1",
						"type": "t_uint256"
					},
					{
						"astId": 32,
						"contract": "contracts/EnglishAuction.sol:EnglishAuction",
						"label": "bids",
						"offset": 0,
						"slot": "2",
						"type": "t_mapping(t_address,t_uint256)"
					}
				],
				"types": {
					"t_address": {
						"encoding": "inplace",
						"label": "address",
						"numberOfBytes": "20"
					},
					"t_bool": {
						"encoding": "inplace",
						"label": "bool",
						"numberOfBytes": "1"
					},
					"t_mapping(t_address,t_uint256)": {
						"encoding": "mapping",
						"key": "t_address",
						"label": "mapping(address => uint256)",
						"numberOfBytes": "32",
						"value": "t_uint256"
					},
					"t_uint256": {
						"encoding": "inplace",
						"label": "uint256",
						"numberOfBytes": "32"
					},
					"t_uint32": {
						"encoding": "inplace",
						"label": "uint32",
						"numberOfBytes": "4"
					}
				}
			},
			"userdoc": {
				"kind": "user",
				"methods": {},
				"version": 1
			}
		}
	}
}