{
	"contracts/Hash.sol": {
		"HashFunc": {
			"abi": [
				{
					"inputs": [
						{
							"internalType": "string",
							"name": "text",
							"type": "string"
						},
						{
							"internalType": "uint256",
							"name": "num",
							"type": "uint256"
						},
						{
							"internalType": "address",
							"name": "addr",
							"type": "address"
						}
					],
					"name": "hash",
					"outputs": [
						{
							"internalType": "bytes32",
							"name": "",
							"type": "bytes32"
						}
					],
					"stateMutability": "pure",
					"type": "function"
				}
			],
			"devdoc": {
				"kind": "dev",
				"methods": {},
				"version": 1
			},
			"evm": {
				"assembly": "    /* \"contracts/Hash.sol\":333:461  contract HashFunc {\r... */\n  mstore(0x40, 0x80)\n  callvalue\n  dup1\n  iszero\n  tag_1\n  jumpi\n  0x00\n  dup1\n  revert\ntag_1:\n  pop\n  dataSize(sub_0)\n  dup1\n  dataOffset(sub_0)\n  0x00\n  codecopy\n  0x00\n  return\nstop\n\nsub_0: assembly {\n        /* \"contracts/Hash.sol\":333:461  contract HashFunc {\r... */\n      mstore(0x40, 0x80)\n      callvalue\n      dup1\n      iszero\n      tag_1\n      jumpi\n      0x00\n      dup1\n      revert\n    tag_1:\n      pop\n      jumpi(tag_2, lt(calldatasize, 0x04))\n      shr(0xe0, calldataload(0x00))\n      dup1\n      0x5dda416e\n      eq\n      tag_3\n      jumpi\n    tag_2:\n      0x00\n      dup1\n      revert\n        /* \"contracts/Hash.sol\":358:458  function hash(string memory text, uint num, address addr) external pure returns (bytes32 ){\r... */\n    tag_3:\n      tag_4\n      0x04\n      dup1\n      calldatasize\n      sub\n      dup2\n      add\n      swap1\n      tag_5\n      swap2\n      swap1\n      tag_6\n      jump\t// in\n    tag_5:\n      tag_7\n      jump\t// in\n    tag_4:\n      mload(0x40)\n      tag_8\n      swap2\n      swap1\n      tag_9\n      jump\t// in\n    tag_8:\n      mload(0x40)\n      dup1\n      swap2\n      sub\n      swap1\n      return\n    tag_7:\n        /* \"contracts/Hash.sol\":439:446  bytes32 */\n      0x00\n        /* \"contracts/Hash.sol\":358:458  function hash(string memory text, uint num, address addr) external pure returns (bytes32 ){\r... */\n      swap4\n      swap3\n      pop\n      pop\n      pop\n      jump\t// out\n        /* \"#utility.yul\":7:419   */\n    tag_12:\n        /* \"#utility.yul\":85:90   */\n      0x00\n        /* \"#utility.yul\":110:176   */\n      tag_14\n        /* \"#utility.yul\":126:175   */\n      tag_15\n        /* \"#utility.yul\":168:174   */\n      dup5\n        /* \"#utility.yul\":126:175   */\n      tag_16\n      jump\t// in\n    tag_15:\n        /* \"#utility.yul\":110:176   */\n      tag_17\n      jump\t// in\n    tag_14:\n        /* \"#utility.yul\":101:176   */\n      swap1\n      pop\n        /* \"#utility.yul\":199:205   */\n      dup3\n        /* \"#utility.yul\":192:197   */\n      dup2\n        /* \"#utility.yul\":185:206   */\n      mstore\n        /* \"#utility.yul\":237:241   */\n      0x20\n        /* \"#utility.yul\":230:235   */\n      dup2\n        /* \"#utility.yul\":226:242   */\n      add\n        /* \"#utility.yul\":275:278   */\n      dup5\n        /* \"#utility.yul\":266:272   */\n      dup5\n        /* \"#utility.yul\":261:264   */\n      dup5\n        /* \"#utility.yul\":257:273   */\n      add\n        /* \"#utility.yul\":254:279   */\n      gt\n        /* \"#utility.yul\":251:363   */\n      iszero\n      tag_18\n      jumpi\n        /* \"#utility.yul\":282:361   */\n      tag_19\n      tag_20\n      jump\t// in\n    tag_19:\n        /* \"#utility.yul\":251:363   */\n    tag_18:\n        /* \"#utility.yul\":372:413   */\n      tag_21\n        /* \"#utility.yul\":406:412   */\n      dup5\n        /* \"#utility.yul\":401:404   */\n      dup3\n        /* \"#utility.yul\":396:399   */\n      dup6\n        /* \"#utility.yul\":372:413   */\n      tag_22\n      jump\t// in\n    tag_21:\n        /* \"#utility.yul\":91:419   */\n      pop\n        /* \"#utility.yul\":7:419   */\n      swap4\n      swap3\n      pop\n      pop\n      pop\n      jump\t// out\n        /* \"#utility.yul\":425:564   */\n    tag_23:\n        /* \"#utility.yul\":471:476   */\n      0x00\n        /* \"#utility.yul\":509:515   */\n      dup2\n        /* \"#utility.yul\":496:516   */\n      calldataload\n        /* \"#utility.yul\":487:516   */\n      swap1\n      pop\n        /* \"#utility.yul\":525:558   */\n      tag_25\n        /* \"#utility.yul\":552:557   */\n      dup2\n        /* \"#utility.yul\":525:558   */\n      tag_26\n      jump\t// in\n    tag_25:\n        /* \"#utility.yul\":425:564   */\n      swap3\n      swap2\n      pop\n      pop\n      jump\t// out\n        /* \"#utility.yul\":584:924   */\n    tag_27:\n        /* \"#utility.yul\":640:645   */\n      0x00\n        /* \"#utility.yul\":689:692   */\n      dup3\n        /* \"#utility.yul\":682:686   */\n      0x1f\n        /* \"#utility.yul\":674:680   */\n      dup4\n        /* \"#utility.yul\":670:687   */\n      add\n        /* \"#utility.yul\":666:693   */\n      slt\n        /* \"#utility.yul\":656:778   */\n      tag_29\n      jumpi\n        /* \"#utility.yul\":697:776   */\n      tag_30\n      tag_31\n      jump\t// in\n    tag_30:\n        /* \"#utility.yul\":656:778   */\n    tag_29:\n        /* \"#utility.yul\":814:820   */\n      dup2\n        /* \"#utility.yul\":801:821   */\n      calldataload\n        /* \"#utility.yul\":839:918   */\n      tag_32\n        /* \"#utility.yul\":914:917   */\n      dup5\n        /* \"#utility.yul\":906:912   */\n      dup3\n        /* \"#utility.yul\":899:903   */\n      0x20\n        /* \"#utility.yul\":891:897   */\n      dup7\n        /* \"#utility.yul\":887:904   */\n      add\n        /* \"#utility.yul\":839:918   */\n      tag_12\n      jump\t// in\n    tag_32:\n        /* \"#utility.yul\":830:918   */\n      swap2\n      pop\n        /* \"#utility.yul\":646:924   */\n      pop\n        /* \"#utility.yul\":584:924   */\n      swap3\n      swap2\n      pop\n      pop\n      jump\t// out\n        /* \"#utility.yul\":930:1069   */\n    tag_33:\n        /* \"#utility.yul\":976:981   */\n      0x00\n        /* \"#utility.yul\":1014:1020   */\n      dup2\n        /* \"#utility.yul\":1001:1021   */\n      calldataload\n        /* \"#utility.yul\":992:1021   */\n      swap1\n      pop\n        /* \"#utility.yul\":1030:1063   */\n      tag_35\n        /* \"#utility.yul\":1057:1062   */\n      dup2\n        /* \"#utility.yul\":1030:1063   */\n      tag_36\n      jump\t// in\n    tag_35:\n        /* \"#utility.yul\":930:1069   */\n      swap3\n      swap2\n      pop\n      pop\n      jump\t// out\n        /* \"#utility.yul\":1075:1874   */\n    tag_6:\n        /* \"#utility.yul\":1162:1168   */\n      0x00\n        /* \"#utility.yul\":1170:1176   */\n      dup1\n        /* \"#utility.yul\":1178:1184   */\n      0x00\n        /* \"#utility.yul\":1227:1229   */\n      0x60\n        /* \"#utility.yul\":1215:1224   */\n      dup5\n        /* \"#utility.yul\":1206:1213   */\n      dup7\n        /* \"#utility.yul\":1202:1225   */\n      sub\n        /* \"#utility.yul\":1198:1230   */\n      slt\n        /* \"#utility.yul\":1195:1314   */\n      iszero\n      tag_38\n      jumpi\n        /* \"#utility.yul\":1233:1312   */\n      tag_39\n      tag_40\n      jump\t// in\n    tag_39:\n        /* \"#utility.yul\":1195:1314   */\n    tag_38:\n        /* \"#utility.yul\":1381:1382   */\n      0x00\n        /* \"#utility.yul\":1370:1379   */\n      dup5\n        /* \"#utility.yul\":1366:1383   */\n      add\n        /* \"#utility.yul\":1353:1384   */\n      calldataload\n        /* \"#utility.yul\":1411:1429   */\n      0xffffffffffffffff\n        /* \"#utility.yul\":1403:1409   */\n      dup2\n        /* \"#utility.yul\":1400:1430   */\n      gt\n        /* \"#utility.yul\":1397:1514   */\n      iszero\n      tag_41\n      jumpi\n        /* \"#utility.yul\":1433:1512   */\n      tag_42\n      tag_43\n      jump\t// in\n    tag_42:\n        /* \"#utility.yul\":1397:1514   */\n    tag_41:\n        /* \"#utility.yul\":1538:1601   */\n      tag_44\n        /* \"#utility.yul\":1593:1600   */\n      dup7\n        /* \"#utility.yul\":1584:1590   */\n      dup3\n        /* \"#utility.yul\":1573:1582   */\n      dup8\n        /* \"#utility.yul\":1569:1591   */\n      add\n        /* \"#utility.yul\":1538:1601   */\n      tag_27\n      jump\t// in\n    tag_44:\n        /* \"#utility.yul\":1528:1601   */\n      swap4\n      pop\n        /* \"#utility.yul\":1324:1611   */\n      pop\n        /* \"#utility.yul\":1650:1652   */\n      0x20\n        /* \"#utility.yul\":1676:1729   */\n      tag_45\n        /* \"#utility.yul\":1721:1728   */\n      dup7\n        /* \"#utility.yul\":1712:1718   */\n      dup3\n        /* \"#utility.yul\":1701:1710   */\n      dup8\n        /* \"#utility.yul\":1697:1719   */\n      add\n        /* \"#utility.yul\":1676:1729   */\n      tag_33\n      jump\t// in\n    tag_45:\n        /* \"#utility.yul\":1666:1729   */\n      swap3\n      pop\n        /* \"#utility.yul\":1621:1739   */\n      pop\n        /* \"#utility.yul\":1778:1780   */\n      0x40\n        /* \"#utility.yul\":1804:1857   */\n      tag_46\n        /* \"#utility.yul\":1849:1856   */\n      dup7\n        /* \"#utility.yul\":1840:1846   */\n      dup3\n        /* \"#utility.yul\":1829:1838   */\n      dup8\n        /* \"#utility.yul\":1825:1847   */\n      add\n        /* \"#utility.yul\":1804:1857   */\n      tag_23\n      jump\t// in\n    tag_46:\n        /* \"#utility.yul\":1794:1857   */\n      swap2\n      pop\n        /* \"#utility.yul\":1749:1867   */\n      pop\n        /* \"#utility.yul\":1075:1874   */\n      swap3\n      pop\n      swap3\n      pop\n      swap3\n      jump\t// out\n        /* \"#utility.yul\":1880:1998   */\n    tag_47:\n        /* \"#utility.yul\":1967:1991   */\n      tag_49\n        /* \"#utility.yul\":1985:1990   */\n      dup2\n        /* \"#utility.yul\":1967:1991   */\n      tag_50\n      jump\t// in\n    tag_49:\n        /* \"#utility.yul\":1962:1965   */\n      dup3\n        /* \"#utility.yul\":1955:1992   */\n      mstore\n        /* \"#utility.yul\":1880:1998   */\n      pop\n      pop\n      jump\t// out\n        /* \"#utility.yul\":2004:2226   */\n    tag_9:\n        /* \"#utility.yul\":2097:2101   */\n      0x00\n        /* \"#utility.yul\":2135:2137   */\n      0x20\n        /* \"#utility.yul\":2124:2133   */\n      dup3\n        /* \"#utility.yul\":2120:2138   */\n      add\n        /* \"#utility.yul\":2112:2138   */\n      swap1\n      pop\n        /* \"#utility.yul\":2148:2219   */\n      tag_52\n        /* \"#utility.yul\":2216:2217   */\n      0x00\n        /* \"#utility.yul\":2205:2214   */\n      dup4\n        /* \"#utility.yul\":2201:2218   */\n      add\n        /* \"#utility.yul\":2192:2198   */\n      dup5\n        /* \"#utility.yul\":2148:2219   */\n      tag_47\n      jump\t// in\n    tag_52:\n        /* \"#utility.yul\":2004:2226   */\n      swap3\n      swap2\n      pop\n      pop\n      jump\t// out\n        /* \"#utility.yul\":2232:2361   */\n    tag_17:\n        /* \"#utility.yul\":2266:2272   */\n      0x00\n        /* \"#utility.yul\":2293:2313   */\n      tag_54\n      tag_55\n      jump\t// in\n    tag_54:\n        /* \"#utility.yul\":2283:2313   */\n      swap1\n      pop\n        /* \"#utility.yul\":2322:2355   */\n      tag_56\n        /* \"#utility.yul\":2350:2354   */\n      dup3\n        /* \"#utility.yul\":2342:2348   */\n      dup3\n        /* \"#utility.yul\":2322:2355   */\n      tag_57\n      jump\t// in\n    tag_56:\n        /* \"#utility.yul\":2232:2361   */\n      swap2\n      swap1\n      pop\n      jump\t// out\n        /* \"#utility.yul\":2367:2442   */\n    tag_55:\n        /* \"#utility.yul\":2400:2406   */\n      0x00\n        /* \"#utility.yul\":2433:2435   */\n      0x40\n        /* \"#utility.yul\":2427:2436   */\n      mload\n        /* \"#utility.yul\":2417:2436   */\n      swap1\n      pop\n        /* \"#utility.yul\":2367:2442   */\n      swap1\n      jump\t// out\n        /* \"#utility.yul\":2448:2756   */\n    tag_16:\n        /* \"#utility.yul\":2510:2514   */\n      0x00\n        /* \"#utility.yul\":2600:2618   */\n      0xffffffffffffffff\n        /* \"#utility.yul\":2592:2598   */\n      dup3\n        /* \"#utility.yul\":2589:2619   */\n      gt\n        /* \"#utility.yul\":2586:2642   */\n      iszero\n      tag_60\n      jumpi\n        /* \"#utility.yul\":2622:2640   */\n      tag_61\n      tag_62\n      jump\t// in\n    tag_61:\n        /* \"#utility.yul\":2586:2642   */\n    tag_60:\n        /* \"#utility.yul\":2660:2689   */\n      tag_63\n        /* \"#utility.yul\":2682:2688   */\n      dup3\n        /* \"#utility.yul\":2660:2689   */\n      tag_64\n      jump\t// in\n    tag_63:\n        /* \"#utility.yul\":2652:2689   */\n      swap1\n      pop\n        /* \"#utility.yul\":2744:2748   */\n      0x20\n        /* \"#utility.yul\":2738:2742   */\n      dup2\n        /* \"#utility.yul\":2734:2749   */\n      add\n        /* \"#utility.yul\":2726:2749   */\n      swap1\n      pop\n        /* \"#utility.yul\":2448:2756   */\n      swap2\n      swap1\n      pop\n      jump\t// out\n        /* \"#utility.yul\":2762:2858   */\n    tag_65:\n        /* \"#utility.yul\":2799:2806   */\n      0x00\n        /* \"#utility.yul\":2828:2852   */\n      tag_67\n        /* \"#utility.yul\":2846:2851   */\n      dup3\n        /* \"#utility.yul\":2828:2852   */\n      tag_68\n      jump\t// in\n    tag_67:\n        /* \"#utility.yul\":2817:2852   */\n      swap1\n      pop\n        /* \"#utility.yul\":2762:2858   */\n      swap2\n      swap1\n      pop\n      jump\t// out\n        /* \"#utility.yul\":2864:2941   */\n    tag_50:\n        /* \"#utility.yul\":2901:2908   */\n      0x00\n        /* \"#utility.yul\":2930:2935   */\n      dup2\n        /* \"#utility.yul\":2919:2935   */\n      swap1\n      pop\n        /* \"#utility.yul\":2864:2941   */\n      swap2\n      swap1\n      pop\n      jump\t// out\n        /* \"#utility.yul\":2947:3073   */\n    tag_68:\n        /* \"#utility.yul\":2984:2991   */\n      0x00\n        /* \"#utility.yul\":3024:3066   */\n      0xffffffffffffffffffffffffffffffffffffffff\n        /* \"#utility.yul\":3017:3022   */\n      dup3\n        /* \"#utility.yul\":3013:3067   */\n      and\n        /* \"#utility.yul\":3002:3067   */\n      swap1\n      pop\n        /* \"#utility.yul\":2947:3073   */\n      swap2\n      swap1\n      pop\n      jump\t// out\n        /* \"#utility.yul\":3079:3156   */\n    tag_71:\n        /* \"#utility.yul\":3116:3123   */\n      0x00\n        /* \"#utility.yul\":3145:3150   */\n      dup2\n        /* \"#utility.yul\":3134:3150   */\n      swap1\n      pop\n        /* \"#utility.yul\":3079:3156   */\n      swap2\n      swap1\n      pop\n      jump\t// out\n        /* \"#utility.yul\":3162:3316   */\n    tag_22:\n        /* \"#utility.yul\":3246:3252   */\n      dup3\n        /* \"#utility.yul\":3241:3244   */\n      dup2\n        /* \"#utility.yul\":3236:3239   */\n      dup4\n        /* \"#utility.yul\":3223:3253   */\n      calldatacopy\n        /* \"#utility.yul\":3308:3309   */\n      0x00\n        /* \"#utility.yul\":3299:3305   */\n      dup4\n        /* \"#utility.yul\":3294:3297   */\n      dup4\n        /* \"#utility.yul\":3290:3306   */\n      add\n        /* \"#utility.yul\":3283:3310   */\n      mstore\n        /* \"#utility.yul\":3162:3316   */\n      pop\n      pop\n      pop\n      jump\t// out\n        /* \"#utility.yul\":3322:3603   */\n    tag_57:\n        /* \"#utility.yul\":3405:3432   */\n      tag_75\n        /* \"#utility.yul\":3427:3431   */\n      dup3\n        /* \"#utility.yul\":3405:3432   */\n      tag_64\n      jump\t// in\n    tag_75:\n        /* \"#utility.yul\":3397:3403   */\n      dup2\n        /* \"#utility.yul\":3393:3433   */\n      add\n        /* \"#utility.yul\":3535:3541   */\n      dup2\n        /* \"#utility.yul\":3523:3533   */\n      dup2\n        /* \"#utility.yul\":3520:3542   */\n      lt\n        /* \"#utility.yul\":3499:3517   */\n      0xffffffffffffffff\n        /* \"#utility.yul\":3487:3497   */\n      dup3\n        /* \"#utility.yul\":3484:3518   */\n      gt\n        /* \"#utility.yul\":3481:3543   */\n      or\n        /* \"#utility.yul\":3478:3566   */\n      iszero\n      tag_76\n      jumpi\n        /* \"#utility.yul\":3546:3564   */\n      tag_77\n      tag_62\n      jump\t// in\n    tag_77:\n        /* \"#utility.yul\":3478:3566   */\n    tag_76:\n        /* \"#utility.yul\":3586:3596   */\n      dup1\n        /* \"#utility.yul\":3582:3584   */\n      0x40\n        /* \"#utility.yul\":3575:3597   */\n      mstore\n        /* \"#utility.yul\":3365:3603   */\n      pop\n        /* \"#utility.yul\":3322:3603   */\n      pop\n      pop\n      jump\t// out\n        /* \"#utility.yul\":3609:3789   */\n    tag_62:\n        /* \"#utility.yul\":3657:3734   */\n      0x4e487b7100000000000000000000000000000000000000000000000000000000\n        /* \"#utility.yul\":3654:3655   */\n      0x00\n        /* \"#utility.yul\":3647:3735   */\n      mstore\n        /* \"#utility.yul\":3754:3758   */\n      0x41\n        /* \"#utility.yul\":3751:3752   */\n      0x04\n        /* \"#utility.yul\":3744:3759   */\n      mstore\n        /* \"#utility.yul\":3778:3782   */\n      0x24\n        /* \"#utility.yul\":3775:3776   */\n      0x00\n        /* \"#utility.yul\":3768:3783   */\n      revert\n        /* \"#utility.yul\":3795:3912   */\n    tag_31:\n        /* \"#utility.yul\":3904:3905   */\n      0x00\n        /* \"#utility.yul\":3901:3902   */\n      dup1\n        /* \"#utility.yul\":3894:3906   */\n      revert\n        /* \"#utility.yul\":3918:4035   */\n    tag_20:\n        /* \"#utility.yul\":4027:4028   */\n      0x00\n        /* \"#utility.yul\":4024:4025   */\n      dup1\n        /* \"#utility.yul\":4017:4029   */\n      revert\n        /* \"#utility.yul\":4041:4158   */\n    tag_43:\n        /* \"#utility.yul\":4150:4151   */\n      0x00\n        /* \"#utility.yul\":4147:4148   */\n      dup1\n        /* \"#utility.yul\":4140:4152   */\n      revert\n        /* \"#utility.yul\":4164:4281   */\n    tag_40:\n        /* \"#utility.yul\":4273:4274   */\n      0x00\n        /* \"#utility.yul\":4270:4271   */\n      dup1\n        /* \"#utility.yul\":4263:4275   */\n      revert\n        /* \"#utility.yul\":4287:4389   */\n    tag_64:\n        /* \"#utility.yul\":4328:4334   */\n      0x00\n        /* \"#utility.yul\":4379:4381   */\n      0x1f\n        /* \"#utility.yul\":4375:4382   */\n      not\n        /* \"#utility.yul\":4370:4372   */\n      0x1f\n        /* \"#utility.yul\":4363:4368   */\n      dup4\n        /* \"#utility.yul\":4359:4373   */\n      add\n        /* \"#utility.yul\":4355:4383   */\n      and\n        /* \"#utility.yul\":4345:4383   */\n      swap1\n      pop\n        /* \"#utility.yul\":4287:4389   */\n      swap2\n      swap1\n      pop\n      jump\t// out\n        /* \"#utility.yul\":4395:4517   */\n    tag_26:\n        /* \"#utility.yul\":4468:4492   */\n      tag_85\n        /* \"#utility.yul\":4486:4491   */\n      dup2\n        /* \"#utility.yul\":4468:4492   */\n      tag_65\n      jump\t// in\n    tag_85:\n        /* \"#utility.yul\":4461:4466   */\n      dup2\n        /* \"#utility.yul\":4458:4493   */\n      eq\n        /* \"#utility.yul\":4448:4511   */\n      tag_86\n      jumpi\n        /* \"#utility.yul\":4507:4508   */\n      0x00\n        /* \"#utility.yul\":4504:4505   */\n      dup1\n        /* \"#utility.yul\":4497:4509   */\n      revert\n        /* \"#utility.yul\":4448:4511   */\n    tag_86:\n        /* \"#utility.yul\":4395:4517   */\n      pop\n      jump\t// out\n        /* \"#utility.yul\":4523:4645   */\n    tag_36:\n        /* \"#utility.yul\":4596:4620   */\n      tag_88\n        /* \"#utility.yul\":4614:4619   */\n      dup2\n        /* \"#utility.yul\":4596:4620   */\n      tag_71\n      jump\t// in\n    tag_88:\n        /* \"#utility.yul\":4589:4594   */\n      dup2\n        /* \"#utility.yul\":4586:4621   */\n      eq\n        /* \"#utility.yul\":4576:4639   */\n      tag_89\n      jumpi\n        /* \"#utility.yul\":4635:4636   */\n      0x00\n        /* \"#utility.yul\":4632:4633   */\n      dup1\n        /* \"#utility.yul\":4625:4637   */\n      revert\n        /* \"#utility.yul\":4576:4639   */\n    tag_89:\n        /* \"#utility.yul\":4523:4645   */\n      pop\n      jump\t// out\n\n    auxdata: 0xa26469706673582212205428835629d50f162ae8276d3e7dc87fcefacc87c5dd9fb9fae9be4a0359c60864736f6c63430008070033\n}\n",
				"bytecode": {
					"linkReferences": {},
					"object": "608060405234801561001057600080fd5b50610330806100206000396000f3fe608060405234801561001057600080fd5b506004361061002b5760003560e01c80635dda416e14610030575b600080fd5b61004a60048036038101906100459190610103565b610060565b6040516100579190610181565b60405180910390f35b60009392505050565b600061007c610077846101c1565b61019c565b905082815260208101848484011115610098576100976102ac565b5b6100a3848285610238565b509392505050565b6000813590506100ba816102cc565b92915050565b600082601f8301126100d5576100d46102a7565b5b81356100e5848260208601610069565b91505092915050565b6000813590506100fd816102e3565b92915050565b60008060006060848603121561011c5761011b6102b6565b5b600084013567ffffffffffffffff81111561013a576101396102b1565b5b610146868287016100c0565b9350506020610157868287016100ee565b9250506040610168868287016100ab565b9150509250925092565b61017b81610204565b82525050565b60006020820190506101966000830184610172565b92915050565b60006101a66101b7565b90506101b28282610247565b919050565b6000604051905090565b600067ffffffffffffffff8211156101dc576101db610278565b5b6101e5826102bb565b9050602081019050919050565b60006101fd8261020e565b9050919050565b6000819050919050565b600073ffffffffffffffffffffffffffffffffffffffff82169050919050565b6000819050919050565b82818337600083830152505050565b610250826102bb565b810181811067ffffffffffffffff8211171561026f5761026e610278565b5b80604052505050565b7f4e487b7100000000000000000000000000000000000000000000000000000000600052604160045260246000fd5b600080fd5b600080fd5b600080fd5b600080fd5b6000601f19601f8301169050919050565b6102d5816101f2565b81146102e057600080fd5b50565b6102ec8161022e565b81146102f757600080fd5b5056fea26469706673582212205428835629d50f162ae8276d3e7dc87fcefacc87c5dd9fb9fae9be4a0359c60864736f6c63430008070033",
					"opcodes": "PUSH1 0x80 PUSH1 0x40 MSTORE CALLVALUE DUP1 ISZERO PUSH2 0x10 JUMPI PUSH1 0x0 DUP1 REVERT JUMPDEST POP PUSH2 0x330 DUP1 PUSH2 0x20 PUSH1 0x0 CODECOPY PUSH1 0x0 RETURN INVALID PUSH1 0x80 PUSH1 0x40 MSTORE CALLVALUE DUP1 ISZERO PUSH2 0x10 JUMPI PUSH1 0x0 DUP1 REVERT JUMPDEST POP PUSH1 0x4 CALLDATASIZE LT PUSH2 0x2B JUMPI PUSH1 0x0 CALLDATALOAD PUSH1 0xE0 SHR DUP1 PUSH4 0x5DDA416E EQ PUSH2 0x30 JUMPI JUMPDEST PUSH1 0x0 DUP1 REVERT JUMPDEST PUSH2 0x4A PUSH1 0x4 DUP1 CALLDATASIZE SUB DUP2 ADD SWAP1 PUSH2 0x45 SWAP2 SWAP1 PUSH2 0x103 JUMP JUMPDEST PUSH2 0x60 JUMP JUMPDEST PUSH1 0x40 MLOAD PUSH2 0x57 SWAP2 SWAP1 PUSH2 0x181 JUMP JUMPDEST PUSH1 0x40 MLOAD DUP1 SWAP2 SUB SWAP1 RETURN JUMPDEST PUSH1 0x0 SWAP4 SWAP3 POP POP POP JUMP JUMPDEST PUSH1 0x0 PUSH2 0x7C PUSH2 0x77 DUP5 PUSH2 0x1C1 JUMP JUMPDEST PUSH2 0x19C JUMP JUMPDEST SWAP1 POP DUP3 DUP2 MSTORE PUSH1 0x20 DUP2 ADD DUP5 DUP5 DUP5 ADD GT ISZERO PUSH2 0x98 JUMPI PUSH2 0x97 PUSH2 0x2AC JUMP JUMPDEST JUMPDEST PUSH2 0xA3 DUP5 DUP3 DUP6 PUSH2 0x238 JUMP JUMPDEST POP SWAP4 SWAP3 POP POP POP JUMP JUMPDEST PUSH1 0x0 DUP2 CALLDATALOAD SWAP1 POP PUSH2 0xBA DUP2 PUSH2 0x2CC JUMP JUMPDEST SWAP3 SWAP2 POP POP JUMP JUMPDEST PUSH1 0x0 DUP3 PUSH1 0x1F DUP4 ADD SLT PUSH2 0xD5 JUMPI PUSH2 0xD4 PUSH2 0x2A7 JUMP JUMPDEST JUMPDEST DUP2 CALLDATALOAD PUSH2 0xE5 DUP5 DUP3 PUSH1 0x20 DUP7 ADD PUSH2 0x69 JUMP JUMPDEST SWAP2 POP POP SWAP3 SWAP2 POP POP JUMP JUMPDEST PUSH1 0x0 DUP2 CALLDATALOAD SWAP1 POP PUSH2 0xFD DUP2 PUSH2 0x2E3 JUMP JUMPDEST SWAP3 SWAP2 POP POP JUMP JUMPDEST PUSH1 0x0 DUP1 PUSH1 0x0 PUSH1 0x60 DUP5 DUP7 SUB SLT ISZERO PUSH2 0x11C JUMPI PUSH2 0x11B PUSH2 0x2B6 JUMP JUMPDEST JUMPDEST PUSH1 0x0 DUP5 ADD CALLDATALOAD PUSH8 0xFFFFFFFFFFFFFFFF DUP2 GT ISZERO PUSH2 0x13A JUMPI PUSH2 0x139 PUSH2 0x2B1 JUMP JUMPDEST JUMPDEST PUSH2 0x146 DUP7 DUP3 DUP8 ADD PUSH2 0xC0 JUMP JUMPDEST SWAP4 POP POP PUSH1 0x20 PUSH2 0x157 DUP7 DUP3 DUP8 ADD PUSH2 0xEE JUMP JUMPDEST SWAP3 POP POP PUSH1 0x40 PUSH2 0x168 DUP7 DUP3 DUP8 ADD PUSH2 0xAB JUMP JUMPDEST SWAP2 POP POP SWAP3 POP SWAP3 POP SWAP3 JUMP JUMPDEST PUSH2 0x17B DUP2 PUSH2 0x204 JUMP JUMPDEST DUP3 MSTORE POP POP JUMP JUMPDEST PUSH1 0x0 PUSH1 0x20 DUP3 ADD SWAP1 POP PUSH2 0x196 PUSH1 0x0 DUP4 ADD DUP5 PUSH2 0x172 JUMP JUMPDEST SWAP3 SWAP2 POP POP JUMP JUMPDEST PUSH1 0x0 PUSH2 0x1A6 PUSH2 0x1B7 JUMP JUMPDEST SWAP1 POP PUSH2 0x1B2 DUP3 DUP3 PUSH2 0x247 JUMP JUMPDEST SWAP2 SWAP1 POP JUMP JUMPDEST PUSH1 0x0 PUSH1 0x40 MLOAD SWAP1 POP SWAP1 JUMP JUMPDEST PUSH1 0x0 PUSH8 0xFFFFFFFFFFFFFFFF DUP3 GT ISZERO PUSH2 0x1DC JUMPI PUSH2 0x1DB PUSH2 0x278 JUMP JUMPDEST JUMPDEST PUSH2 0x1E5 DUP3 PUSH2 0x2BB JUMP JUMPDEST SWAP1 POP PUSH1 0x20 DUP2 ADD SWAP1 POP SWAP2 SWAP1 POP JUMP JUMPDEST PUSH1 0x0 PUSH2 0x1FD DUP3 PUSH2 0x20E JUMP JUMPDEST SWAP1 POP SWAP2 SWAP1 POP JUMP JUMPDEST PUSH1 0x0 DUP2 SWAP1 POP SWAP2 SWAP1 POP JUMP JUMPDEST PUSH1 0x0 PUSH20 0xFFFFFFFFFFFFFFFFFFFFFFFFFFFFFFFFFFFFFFFF DUP3 AND SWAP1 POP SWAP2 SWAP1 POP JUMP JUMPDEST PUSH1 0x0 DUP2 SWAP1 POP SWAP2 SWAP1 POP JUMP JUMPDEST DUP3 DUP2 DUP4 CALLDATACOPY PUSH1 0x0 DUP4 DUP4 ADD MSTORE POP POP POP JUMP JUMPDEST PUSH2 0x250 DUP3 PUSH2 0x2BB JUMP JUMPDEST DUP2 ADD DUP2 DUP2 LT PUSH8 0xFFFFFFFFFFFFFFFF DUP3 GT OR ISZERO PUSH2 0x26F JUMPI PUSH2 0x26E PUSH2 0x278 JUMP JUMPDEST JUMPDEST DUP1 PUSH1 0x40 MSTORE POP POP POP JUMP JUMPDEST PUSH32 0x4E487B7100000000000000000000000000000000000000000000000000000000 PUSH1 0x0 MSTORE PUSH1 0x41 PUSH1 0x4 MSTORE PUSH1 0x24 PUSH1 0x0 REVERT JUMPDEST PUSH1 0x0 DUP1 REVERT JUMPDEST PUSH1 0x0 DUP1 REVERT JUMPDEST PUSH1 0x0 DUP1 REVERT JUMPDEST PUSH1 0x0 DUP1 REVERT JUMPDEST PUSH1 0x0 PUSH1 0x1F NOT PUSH1 0x1F DUP4 ADD AND SWAP1 POP SWAP2 SWAP1 POP JUMP JUMPDEST PUSH2 0x2D5 DUP2 PUSH2 0x1F2 JUMP JUMPDEST DUP2 EQ PUSH2 0x2E0 JUMPI PUSH1 0x0 DUP1 REVERT JUMPDEST POP JUMP JUMPDEST PUSH2 0x2EC DUP2 PUSH2 0x22E JUMP JUMPDEST DUP2 EQ PUSH2 0x2F7 JUMPI PUSH1 0x0 DUP1 REVERT JUMPDEST POP JUMP INVALID LOG2 PUSH5 0x6970667358 0x22 SLT KECCAK256 SLOAD 0x28 DUP4 JUMP 0x29 0xD5 0xF AND 0x2A 0xE8 0x27 PUSH14 0x3E7DC87FCEFACC87C5DD9FB9FAE9 0xBE 0x4A SUB MSIZE 0xC6 ADDMOD PUSH5 0x736F6C6343 STOP ADDMOD SMOD STOP CALLER "
				},
				"gasEstimates": {
					"creation": {
						"codeDepositCost": "163200",
						"executionCost": "208",
						"totalCost": "163408"
					},
					"external": {
						"hash(string,uint256,address)": "infinite"
					}
				},
				"methodIdentifiers": {
					"hash(string,uint256,address)": "5dda416e"
				}
			},
			"storageLayout": {
				"storage": [],
				"types": null
			},
			"userdoc": {
				"kind": "user",
				"methods": {},
				"version": 1
			}
		}
	}
}