{
	"contracts/Event.sol": {
		"Event": {
			"abi": [
				{
					"anonymous": false,
					"inputs": [
						{
							"indexed": true,
							"internalType": "address",
							"name": "",
							"type": "address"
						}
					],
					"name": "IndexedLog",
					"type": "event"
				},
				{
					"anonymous": false,
					"inputs": [
						{
							"indexed": false,
							"internalType": "string",
							"name": "message",
							"type": "string"
						},
						{
							"indexed": false,
							"internalType": "uint256",
							"name": "val",
							"type": "uint256"
						}
					],
					"name": "Log",
					"type": "event"
				},
				{
					"inputs": [],
					"name": "example",
					"outputs": [],
					"stateMutability": "nonpayable",
					"type": "function"
				}
			],
			"devdoc": {
				"kind": "dev",
				"methods": {},
				"version": 1
			},
			"evm": {
				"assembly": "    /* \"contracts/Event.sol\":60:238  contract Event {\r... */\n  mstore(0x40, 0x80)\n  callvalue\n  dup1\n  iszero\n  tag_1\n  jumpi\n  0x00\n  dup1\n  revert\ntag_1:\n  pop\n  dataSize(sub_0)\n  dup1\n  dataOffset(sub_0)\n  0x00\n  codecopy\n  0x00\n  return\nstop\n\nsub_0: assembly {\n        /* \"contracts/Event.sol\":60:238  contract Event {\r... */\n      mstore(0x40, 0x80)\n      callvalue\n      dup1\n      iszero\n      tag_1\n      jumpi\n      0x00\n      dup1\n      revert\n    tag_1:\n      pop\n      jumpi(tag_2, lt(calldatasize, 0x04))\n      shr(0xe0, calldataload(0x00))\n      dup1\n      0x54353f2f\n      eq\n      tag_3\n      jumpi\n    tag_2:\n      0x00\n      dup1\n      revert\n        /* \"contracts/Event.sol\":167:235  function example() external {\r... */\n    tag_3:\n      tag_4\n      tag_5\n      jump\t// in\n    tag_4:\n      stop\n    tag_5:\n        /* \"contracts/Event.sol\":211:227  Log(\"Foo\", 1234) */\n      0xdd970dd9b5bfe707922155b058a407655cb18288b807e2216442bca8ad83d6b5\n        /* \"contracts/Event.sol\":222:226  1234 */\n      0x04d2\n        /* \"contracts/Event.sol\":211:227  Log(\"Foo\", 1234) */\n      mload(0x40)\n      tag_7\n      swap2\n      swap1\n      tag_8\n      jump\t// in\n    tag_7:\n      mload(0x40)\n      dup1\n      swap2\n      sub\n      swap1\n      log1\n        /* \"contracts/Event.sol\":167:235  function example() external {\r... */\n      jump\t// out\n        /* \"#utility.yul\":7:160   */\n    tag_10:\n        /* \"#utility.yul\":105:153   */\n      tag_12\n        /* \"#utility.yul\":147:152   */\n      dup2\n        /* \"#utility.yul\":105:153   */\n      tag_13\n      jump\t// in\n    tag_12:\n        /* \"#utility.yul\":100:103   */\n      dup3\n        /* \"#utility.yul\":93:154   */\n      mstore\n        /* \"#utility.yul\":7:160   */\n      pop\n      pop\n      jump\t// out\n        /* \"#utility.yul\":166:531   */\n    tag_14:\n        /* \"#utility.yul\":308:311   */\n      0x00\n        /* \"#utility.yul\":329:395   */\n      tag_16\n        /* \"#utility.yul\":393:394   */\n      0x03\n        /* \"#utility.yul\":388:391   */\n      dup4\n        /* \"#utility.yul\":329:395   */\n      tag_17\n      jump\t// in\n    tag_16:\n        /* \"#utility.yul\":322:395   */\n      swap2\n      pop\n        /* \"#utility.yul\":404:497   */\n      tag_18\n        /* \"#utility.yul\":493:496   */\n      dup3\n        /* \"#utility.yul\":404:497   */\n      tag_19\n      jump\t// in\n    tag_18:\n        /* \"#utility.yul\":522:524   */\n      0x20\n        /* \"#utility.yul\":517:520   */\n      dup3\n        /* \"#utility.yul\":513:525   */\n      add\n        /* \"#utility.yul\":506:525   */\n      swap1\n      pop\n        /* \"#utility.yul\":166:531   */\n      swap2\n      swap1\n      pop\n      jump\t// out\n        /* \"#utility.yul\":537:1088   */\n    tag_8:\n        /* \"#utility.yul\":742:746   */\n      0x00\n        /* \"#utility.yul\":780:782   */\n      0x40\n        /* \"#utility.yul\":769:778   */\n      dup3\n        /* \"#utility.yul\":765:783   */\n      add\n        /* \"#utility.yul\":757:783   */\n      swap1\n      pop\n        /* \"#utility.yul\":829:838   */\n      dup2\n        /* \"#utility.yul\":823:827   */\n      dup2\n        /* \"#utility.yul\":819:839   */\n      sub\n        /* \"#utility.yul\":815:816   */\n      0x00\n        /* \"#utility.yul\":804:813   */\n      dup4\n        /* \"#utility.yul\":800:817   */\n      add\n        /* \"#utility.yul\":793:840   */\n      mstore\n        /* \"#utility.yul\":857:988   */\n      tag_21\n        /* \"#utility.yul\":983:987   */\n      dup2\n        /* \"#utility.yul\":857:988   */\n      tag_14\n      jump\t// in\n    tag_21:\n        /* \"#utility.yul\":849:988   */\n      swap1\n      pop\n        /* \"#utility.yul\":998:1081   */\n      tag_22\n        /* \"#utility.yul\":1077:1079   */\n      0x20\n        /* \"#utility.yul\":1066:1075   */\n      dup4\n        /* \"#utility.yul\":1062:1080   */\n      add\n        /* \"#utility.yul\":1053:1059   */\n      dup5\n        /* \"#utility.yul\":998:1081   */\n      tag_10\n      jump\t// in\n    tag_22:\n        /* \"#utility.yul\":537:1088   */\n      swap3\n      swap2\n      pop\n      pop\n      jump\t// out\n        /* \"#utility.yul\":1094:1263   */\n    tag_17:\n        /* \"#utility.yul\":1178:1189   */\n      0x00\n        /* \"#utility.yul\":1212:1218   */\n      dup3\n        /* \"#utility.yul\":1207:1210   */\n      dup3\n        /* \"#utility.yul\":1200:1219   */\n      mstore\n        /* \"#utility.yul\":1252:1256   */\n      0x20\n        /* \"#utility.yul\":1247:1250   */\n      dup3\n        /* \"#utility.yul\":1243:1257   */\n      add\n        /* \"#utility.yul\":1228:1257   */\n      swap1\n      pop\n        /* \"#utility.yul\":1094:1263   */\n      swap3\n      swap2\n      pop\n      pop\n      jump\t// out\n        /* \"#utility.yul\":1269:1346   */\n    tag_24:\n        /* \"#utility.yul\":1306:1313   */\n      0x00\n        /* \"#utility.yul\":1335:1340   */\n      dup2\n        /* \"#utility.yul\":1324:1340   */\n      swap1\n      pop\n        /* \"#utility.yul\":1269:1346   */\n      swap2\n      swap1\n      pop\n      jump\t// out\n        /* \"#utility.yul\":1352:1476   */\n    tag_13:\n        /* \"#utility.yul\":1413:1422   */\n      0x00\n        /* \"#utility.yul\":1446:1470   */\n      tag_27\n        /* \"#utility.yul\":1464:1469   */\n      dup3\n        /* \"#utility.yul\":1446:1470   */\n      tag_24\n      jump\t// in\n    tag_27:\n        /* \"#utility.yul\":1433:1470   */\n      swap1\n      pop\n        /* \"#utility.yul\":1352:1476   */\n      swap2\n      swap1\n      pop\n      jump\t// out\n        /* \"#utility.yul\":1482:1635   */\n    tag_19:\n        /* \"#utility.yul\":1622:1627   */\n      0x466f6f0000000000000000000000000000000000000000000000000000000000\n        /* \"#utility.yul\":1618:1619   */\n      0x00\n        /* \"#utility.yul\":1610:1616   */\n      dup3\n        /* \"#utility.yul\":1606:1620   */\n      add\n        /* \"#utility.yul\":1599:1628   */\n      mstore\n        /* \"#utility.yul\":1482:1635   */\n      pop\n      jump\t// out\n\n    auxdata: 0xa2646970667358221220f8778bdd8c8111f334e57c55ff1fd052037e08d93ed0c847669e330818dc96d164736f6c63430008070033\n}\n",
				"bytecode": {
					"linkReferences": {},
					"object": "608060405234801561001057600080fd5b50610161806100206000396000f3fe608060405234801561001057600080fd5b506004361061002b5760003560e01c806354353f2f14610030575b600080fd5b61003861003a565b005b7fdd970dd9b5bfe707922155b058a407655cb18288b807e2216442bca8ad83d6b56104d260405161006b91906100a7565b60405180910390a1565b61007e816100f0565b82525050565b60006100916003836100d5565b915061009c82610102565b602082019050919050565b600060408201905081810360008301526100c081610084565b90506100cf6020830184610075565b92915050565b600082825260208201905092915050565b6000819050919050565b60006100fb826100e6565b9050919050565b7f466f6f000000000000000000000000000000000000000000000000000000000060008201525056fea2646970667358221220f8778bdd8c8111f334e57c55ff1fd052037e08d93ed0c847669e330818dc96d164736f6c63430008070033",
					"opcodes": "PUSH1 0x80 PUSH1 0x40 MSTORE CALLVALUE DUP1 ISZERO PUSH2 0x10 JUMPI PUSH1 0x0 DUP1 REVERT JUMPDEST POP PUSH2 0x161 DUP1 PUSH2 0x20 PUSH1 0x0 CODECOPY PUSH1 0x0 RETURN INVALID PUSH1 0x80 PUSH1 0x40 MSTORE CALLVALUE DUP1 ISZERO PUSH2 0x10 JUMPI PUSH1 0x0 DUP1 REVERT JUMPDEST POP PUSH1 0x4 CALLDATASIZE LT PUSH2 0x2B JUMPI PUSH1 0x0 CALLDATALOAD PUSH1 0xE0 SHR DUP1 PUSH4 0x54353F2F EQ PUSH2 0x30 JUMPI JUMPDEST PUSH1 0x0 DUP1 REVERT JUMPDEST PUSH2 0x38 PUSH2 0x3A JUMP JUMPDEST STOP JUMPDEST PUSH32 0xDD970DD9B5BFE707922155B058A407655CB18288B807E2216442BCA8AD83D6B5 PUSH2 0x4D2 PUSH1 0x40 MLOAD PUSH2 0x6B SWAP2 SWAP1 PUSH2 0xA7 JUMP JUMPDEST PUSH1 0x40 MLOAD DUP1 SWAP2 SUB SWAP1 LOG1 JUMP JUMPDEST PUSH2 0x7E DUP2 PUSH2 0xF0 JUMP JUMPDEST DUP3 MSTORE POP POP JUMP JUMPDEST PUSH1 0x0 PUSH2 0x91 PUSH1 0x3 DUP4 PUSH2 0xD5 JUMP JUMPDEST SWAP2 POP PUSH2 0x9C DUP3 PUSH2 0x102 JUMP JUMPDEST PUSH1 0x20 DUP3 ADD SWAP1 POP SWAP2 SWAP1 POP JUMP JUMPDEST PUSH1 0x0 PUSH1 0x40 DUP3 ADD SWAP1 POP DUP2 DUP2 SUB PUSH1 0x0 DUP4 ADD MSTORE PUSH2 0xC0 DUP2 PUSH2 0x84 JUMP JUMPDEST SWAP1 POP PUSH2 0xCF PUSH1 0x20 DUP4 ADD DUP5 PUSH2 0x75 JUMP JUMPDEST SWAP3 SWAP2 POP POP JUMP JUMPDEST PUSH1 0x0 DUP3 DUP3 MSTORE PUSH1 0x20 DUP3 ADD SWAP1 POP SWAP3 SWAP2 POP POP JUMP JUMPDEST PUSH1 0x0 DUP2 SWAP1 POP SWAP2 SWAP1 POP JUMP JUMPDEST PUSH1 0x0 PUSH2 0xFB DUP3 PUSH2 0xE6 JUMP JUMPDEST SWAP1 POP SWAP2 SWAP1 POP JUMP JUMPDEST PUSH32 0x466F6F0000000000000000000000000000000000000000000000000000000000 PUSH1 0x0 DUP3 ADD MSTORE POP JUMP INVALID LOG2 PUSH5 0x6970667358 0x22 SLT KECCAK256 0xF8 PUSH24 0x8BDD8C8111F334E57C55FF1FD052037E08D93ED0C847669E CALLER ADDMOD XOR 0xDC SWAP7 0xD1 PUSH5 0x736F6C6343 STOP ADDMOD SMOD STOP CALLER "
				},
				"gasEstimates": {
					"creation": {
						"codeDepositCost": "70600",
						"executionCost": "123",
						"totalCost": "70723"
					},
					"external": {
						"example()": "2326"
					}
				},
				"methodIdentifiers": {
					"example()": "54353f2f"
				}
			},
			"storageLayout": {
				"storage": [],
				"types": null
			},
			"userdoc": {
				"kind": "user",
				"methods": {},
				"version": 1
			}
		}
	}
}