{
	"contracts/Send.sol": {
		"SendEther": {
			"abi": [
				{
					"inputs": [],
					"stateMutability": "payable",
					"type": "constructor"
				},
				{
					"inputs": [],
					"name": "sendViaCallback",
					"outputs": [],
					"stateMutability": "payable",
					"type": "function"
				},
				{
					"inputs": [],
					"name": "sendViaSend",
					"outputs": [],
					"stateMutability": "payable",
					"type": "function"
				},
				{
					"inputs": [],
					"name": "sendViaTransfer",
					"outputs": [],
					"stateMutability": "payable",
					"type": "function"
				},
				{
					"stateMutability": "payable",
					"type": "receive"
				}
			],
			"devdoc": {
				"kind": "dev",
				"methods": {},
				"version": 1
			},
			"evm": {
				"assembly": "    /* \"contracts/Send.sol\":189:437  contract SendEther {\r... */\n  mstore(0x40, 0x80)\n  dataSize(sub_0)\n  dup1\n  dataOffset(sub_0)\n  0x00\n  codecopy\n  0x00\n  return\nstop\n\nsub_0: assembly {\n        /* \"contracts/Send.sol\":189:437  contract SendEther {\r... */\n      mstore(0x40, 0x80)\n      jumpi(tag_1, lt(calldatasize, 0x04))\n      shr(0xe0, calldataload(0x00))\n      dup1\n      0xc0d60517\n      eq\n      tag_3\n      jumpi\n      dup1\n      0xe84326d6\n      eq\n      tag_4\n      jumpi\n      dup1\n      0xecf262d7\n      eq\n      tag_5\n      jumpi\n      jump(tag_2)\n    tag_1:\n      jumpi(tag_2, calldatasize)\n      stop\n    tag_2:\n      0x00\n      dup1\n      revert\n        /* \"contracts/Send.sol\":338:380  function sendViaSend() external payable {} */\n    tag_3:\n      tag_8\n      tag_9\n      jump\t// in\n    tag_8:\n      stop\n        /* \"contracts/Send.sol\":284:330  function sendViaTransfer() external payable {} */\n    tag_4:\n      tag_10\n      tag_11\n      jump\t// in\n    tag_10:\n      stop\n        /* \"contracts/Send.sol\":388:434  function sendViaCallback() external payable {} */\n    tag_5:\n      tag_12\n      tag_13\n      jump\t// in\n    tag_12:\n      stop\n        /* \"contracts/Send.sol\":338:380  function sendViaSend() external payable {} */\n    tag_9:\n      jump\t// out\n        /* \"contracts/Send.sol\":284:330  function sendViaTransfer() external payable {} */\n    tag_11:\n      jump\t// out\n        /* \"contracts/Send.sol\":388:434  function sendViaCallback() external payable {} */\n    tag_13:\n      jump\t// out\n\n    auxdata: 0xa2646970667358221220508c59e8852917186dd35b4fdf91826680a2c0a9582a274aeda31ca3fe380b5164736f6c63430008070033\n}\n",
				"bytecode": {
					"linkReferences": {},
					"object": "60806040526092806100126000396000f3fe60806040526004361060335760003560e01c8063c0d6051714603e578063e84326d6146046578063ecf262d714604e576039565b36603957005b600080fd5b60446056565b005b604c6058565b005b6054605a565b005b565b565b56fea2646970667358221220508c59e8852917186dd35b4fdf91826680a2c0a9582a274aeda31ca3fe380b5164736f6c63430008070033",
					"opcodes": "PUSH1 0x80 PUSH1 0x40 MSTORE PUSH1 0x92 DUP1 PUSH2 0x12 PUSH1 0x0 CODECOPY PUSH1 0x0 RETURN INVALID PUSH1 0x80 PUSH1 0x40 MSTORE PUSH1 0x4 CALLDATASIZE LT PUSH1 0x33 JUMPI PUSH1 0x0 CALLDATALOAD PUSH1 0xE0 SHR DUP1 PUSH4 0xC0D60517 EQ PUSH1 0x3E JUMPI DUP1 PUSH4 0xE84326D6 EQ PUSH1 0x46 JUMPI DUP1 PUSH4 0xECF262D7 EQ PUSH1 0x4E JUMPI PUSH1 0x39 JUMP JUMPDEST CALLDATASIZE PUSH1 0x39 JUMPI STOP JUMPDEST PUSH1 0x0 DUP1 REVERT JUMPDEST PUSH1 0x44 PUSH1 0x56 JUMP JUMPDEST STOP JUMPDEST PUSH1 0x4C PUSH1 0x58 JUMP JUMPDEST STOP JUMPDEST PUSH1 0x54 PUSH1 0x5A JUMP JUMPDEST STOP JUMPDEST JUMP JUMPDEST JUMP JUMPDEST JUMP INVALID LOG2 PUSH5 0x6970667358 0x22 SLT KECCAK256 POP DUP13 MSIZE 0xE8 DUP6 0x29 OR XOR PUSH14 0xD35B4FDF91826680A2C0A9582A27 0x4A 0xED LOG3 SHR LOG3 INVALID CODESIZE SIGNEXTEND MLOAD PUSH5 0x736F6C6343 STOP ADDMOD SMOD STOP CALLER "
				},
				"gasEstimates": {
					"creation": {
						"codeDepositCost": "29200",
						"executionCost": "57",
						"totalCost": "29257"
					},
					"external": {
						"sendViaCallback()": "142",
						"sendViaSend()": "98",
						"sendViaTransfer()": "120"
					}
				},
				"methodIdentifiers": {
					"sendViaCallback()": "ecf262d7",
					"sendViaSend()": "c0d60517",
					"sendViaTransfer()": "e84326d6"
				}
			},
			"storageLayout": {
				"storage": [],
				"types": null
			},
			"userdoc": {
				"kind": "user",
				"methods": {},
				"version": 1
			}
		}
	}
}