{
	"contracts/Create2.sol": {
		"Create2Factory": {
			"abi": [
				{
					"anonymous": false,
					"inputs": [
						{
							"indexed": false,
							"internalType": "address",
							"name": "addr",
							"type": "address"
						}
					],
					"name": "Deploy",
					"type": "event"
				},
				{
					"inputs": [
						{
							"internalType": "uint256",
							"name": "_salt",
							"type": "uint256"
						}
					],
					"name": "deploy",
					"outputs": [],
					"stateMutability": "nonpayable",
					"type": "function"
				},
				{
					"inputs": [
						{
							"internalType": "bytes",
							"name": "bytecode",
							"type": "bytes"
						},
						{
							"internalType": "uint256",
							"name": "_salt",
							"type": "uint256"
						}
					],
					"name": "getAddress",
					"outputs": [
						{
							"internalType": "address",
							"name": "",
							"type": "address"
						}
					],
					"stateMutability": "view",
					"type": "function"
				},
				{
					"inputs": [],
					"name": "getBytecode",
					"outputs": [
						{
							"internalType": "bytes",
							"name": "",
							"type": "bytes"
						}
					],
					"stateMutability": "pure",
					"type": "function"
				}
			],
			"devdoc": {
				"kind": "dev",
				"methods": {},
				"version": 1
			},
			"evm": {
				"assembly": "    /* \"contracts/Create2.sol\":181:829  contract Create2Factory {... */\n  mstore(0x40, 0x80)\n  callvalue\n  dup1\n  iszero\n  tag_1\n  jumpi\n  0x00\n  dup1\n  revert\ntag_1:\n  pop\n  dataSize(sub_0)\n  dup1\n  dataOffset(sub_0)\n  0x00\n  codecopy\n  0x00\n  return\nstop\n\nsub_0: assembly {\n        /* \"contracts/Create2.sol\":181:829  contract Create2Factory {... */\n      mstore(0x40, 0x80)\n      callvalue\n      dup1\n      iszero\n      tag_1\n      jumpi\n      0x00\n      dup1\n      revert\n    tag_1:\n      pop\n      jumpi(tag_2, lt(calldatasize, 0x04))\n      shr(0xe0, calldataload(0x00))\n      dup1\n      0x52c7420d\n      eq\n      tag_3\n      jumpi\n      dup1\n      0x94ca2cb5\n      eq\n      tag_4\n      jumpi\n      dup1\n      0xa5e38751\n      eq\n      tag_5\n      jumpi\n    tag_2:\n      0x00\n      dup1\n      revert\n        /* \"contracts/Create2.sol\":767:827  function getBytecode() public pure returns (bytes memory) {} */\n    tag_3:\n      tag_6\n      tag_7\n      jump\t// in\n    tag_6:\n      mload(0x40)\n      tag_8\n      swap2\n      swap1\n      tag_9\n      jump\t// in\n    tag_8:\n      mload(0x40)\n      dup1\n      swap2\n      sub\n      swap1\n      return\n        /* \"contracts/Create2.sol\":455:761  function getAddress(bytes memory bytecode, uint256 _salt) public view returns (address)... */\n    tag_4:\n      tag_10\n      0x04\n      dup1\n      calldatasize\n      sub\n      dup2\n      add\n      swap1\n      tag_11\n      swap2\n      swap1\n      tag_12\n      jump\t// in\n    tag_11:\n      tag_13\n      jump\t// in\n    tag_10:\n      mload(0x40)\n      tag_14\n      swap2\n      swap1\n      tag_15\n      jump\t// in\n    tag_14:\n      mload(0x40)\n      dup1\n      swap2\n      sub\n      swap1\n      return\n        /* \"contracts/Create2.sol\":244:449  function deploy(uint256 _salt) external {... */\n    tag_5:\n      tag_16\n      0x04\n      dup1\n      calldatasize\n      sub\n      dup2\n      add\n      swap1\n      tag_17\n      swap2\n      swap1\n      tag_18\n      jump\t// in\n    tag_17:\n      tag_19\n      jump\t// in\n    tag_16:\n      stop\n        /* \"contracts/Create2.sol\":767:827  function getBytecode() public pure returns (bytes memory) {} */\n    tag_7:\n        /* \"contracts/Create2.sol\":811:823  bytes memory */\n      0x60\n        /* \"contracts/Create2.sol\":767:827  function getBytecode() public pure returns (bytes memory) {} */\n      swap1\n      jump\t// out\n        /* \"contracts/Create2.sol\":455:761  function getAddress(bytes memory bytecode, uint256 _salt) public view returns (address)... */\n    tag_13:\n        /* \"contracts/Create2.sol\":534:541  address */\n      0x00\n        /* \"contracts/Create2.sol\":557:569  bytes32 hash */\n      dup1\n        /* \"contracts/Create2.sol\":636:640  0xff */\n      0xff\n        /* \"contracts/Create2.sol\":629:641  bytes1(0xff) */\n      0xf8\n      shl\n        /* \"contracts/Create2.sol\":651:655  this */\n      address\n        /* \"contracts/Create2.sol\":658:663  _salt */\n      dup5\n        /* \"contracts/Create2.sol\":675:683  bytecode */\n      dup7\n        /* \"contracts/Create2.sol\":665:684  keccak256(bytecode) */\n      dup1\n      mload\n      swap1\n      0x20\n      add\n      keccak256\n        /* \"contracts/Create2.sol\":595:698  abi.encodePacked(... */\n      add(0x20, mload(0x40))\n      tag_22\n      swap5\n      swap4\n      swap3\n      swap2\n      swap1\n      tag_23\n      jump\t// in\n    tag_22:\n      mload(0x40)\n      0x20\n      dup2\n      dup4\n      sub\n      sub\n      dup2\n      mstore\n      swap1\n      0x40\n      mstore\n        /* \"contracts/Create2.sol\":572:708  keccak256(... */\n      dup1\n      mload\n      swap1\n      0x20\n      add\n      keccak256\n        /* \"contracts/Create2.sol\":557:708  bytes32 hash = keccak256(... */\n      swap1\n      pop\n        /* \"contracts/Create2.sol\":747:751  hash */\n      dup1\n        /* \"contracts/Create2.sol\":742:752  uint(hash) */\n      0x00\n      shr\n        /* \"contracts/Create2.sol\":719:754  return address(uint160(uint(hash))) */\n      swap2\n      pop\n      pop\n        /* \"contracts/Create2.sol\":455:761  function getAddress(bytes memory bytecode, uint256 _salt) public view returns (address)... */\n      swap3\n      swap2\n      pop\n      pop\n      jump\t// out\n        /* \"contracts/Create2.sol\":244:449  function deploy(uint256 _salt) external {... */\n    tag_19:\n        /* \"contracts/Create2.sol\":294:321  DeployWithCreate2 _contract */\n      0x00\n        /* \"contracts/Create2.sol\":373:378  _salt */\n      dup2\n        /* \"contracts/Create2.sol\":365:379  bytes32(_salt) */\n      0x00\n      shl\n        /* \"contracts/Create2.sol\":390:400  msg.sender */\n      caller\n        /* \"contracts/Create2.sol\":324:401  new DeployWithCreate2{... */\n      mload(0x40)\n      tag_25\n      swap1\n      tag_26\n      jump\t// in\n    tag_25:\n      tag_27\n      swap2\n      swap1\n      tag_15\n      jump\t// in\n    tag_27:\n      dup2\n      swap1\n      mload(0x40)\n      dup1\n      swap2\n      sub\n      swap1\n      0x00\n      create2\n      swap1\n      pop\n      dup1\n      iszero\n      dup1\n      iszero\n      tag_28\n      jumpi\n      returndatasize\n      0x00\n      dup1\n      returndatacopy\n      revert(0x00, returndatasize)\n    tag_28:\n      pop\n        /* \"contracts/Create2.sol\":294:401  DeployWithCreate2 _contract = new DeployWithCreate2{... */\n      swap1\n      pop\n        /* \"contracts/Create2.sol\":416:442  Deploy(address(_contract)) */\n      0x55ea6c6b31543d8e2ec6a72f71a79c0f4b72ed0d4757172b043d8f4f4cd84848\n        /* \"contracts/Create2.sol\":431:440  _contract */\n      dup2\n        /* \"contracts/Create2.sol\":416:442  Deploy(address(_contract)) */\n      mload(0x40)\n      tag_29\n      swap2\n      swap1\n      tag_15\n      jump\t// in\n    tag_29:\n      mload(0x40)\n      dup1\n      swap2\n      sub\n      swap1\n      log1\n        /* \"contracts/Create2.sol\":284:449  {... */\n      pop\n        /* \"contracts/Create2.sol\":244:449  function deploy(uint256 _salt) external {... */\n      pop\n      jump\t// out\n    tag_26:\n      dataSize(sub_0)\n      dup1\n      dataOffset(sub_0)\n      dup4\n      codecopy\n      add\n      swap1\n      jump\t// out\n        /* \"#utility.yul\":7:105   */\n    tag_30:\n        /* \"#utility.yul\":58:64   */\n      0x00\n        /* \"#utility.yul\":92:97   */\n      dup2\n        /* \"#utility.yul\":86:98   */\n      mload\n        /* \"#utility.yul\":76:98   */\n      swap1\n      pop\n        /* \"#utility.yul\":7:105   */\n      swap2\n      swap1\n      pop\n      jump\t// out\n        /* \"#utility.yul\":111:279   */\n    tag_31:\n        /* \"#utility.yul\":194:205   */\n      0x00\n        /* \"#utility.yul\":228:234   */\n      dup3\n        /* \"#utility.yul\":223:226   */\n      dup3\n        /* \"#utility.yul\":216:235   */\n      mstore\n        /* \"#utility.yul\":268:272   */\n      0x20\n        /* \"#utility.yul\":263:266   */\n      dup3\n        /* \"#utility.yul\":259:273   */\n      add\n        /* \"#utility.yul\":244:273   */\n      swap1\n      pop\n        /* \"#utility.yul\":111:279   */\n      swap3\n      swap2\n      pop\n      pop\n      jump\t// out\n        /* \"#utility.yul\":285:531   */\n    tag_32:\n        /* \"#utility.yul\":366:367   */\n      0x00\n        /* \"#utility.yul\":376:489   */\n    tag_69:\n        /* \"#utility.yul\":390:396   */\n      dup4\n        /* \"#utility.yul\":387:388   */\n      dup2\n        /* \"#utility.yul\":384:397   */\n      lt\n        /* \"#utility.yul\":376:489   */\n      iszero\n      tag_71\n      jumpi\n        /* \"#utility.yul\":475:476   */\n      dup1\n        /* \"#utility.yul\":470:473   */\n      dup3\n        /* \"#utility.yul\":466:477   */\n      add\n        /* \"#utility.yul\":460:478   */\n      mload\n        /* \"#utility.yul\":456:457   */\n      dup2\n        /* \"#utility.yul\":451:454   */\n      dup5\n        /* \"#utility.yul\":447:458   */\n      add\n        /* \"#utility.yul\":440:479   */\n      mstore\n        /* \"#utility.yul\":412:414   */\n      0x20\n        /* \"#utility.yul\":409:410   */\n      dup2\n        /* \"#utility.yul\":405:415   */\n      add\n        /* \"#utility.yul\":400:415   */\n      swap1\n      pop\n        /* \"#utility.yul\":376:489   */\n      jump(tag_69)\n    tag_71:\n        /* \"#utility.yul\":523:524   */\n      0x00\n        /* \"#utility.yul\":514:520   */\n      dup5\n        /* \"#utility.yul\":509:512   */\n      dup5\n        /* \"#utility.yul\":505:521   */\n      add\n        /* \"#utility.yul\":498:525   */\n      mstore\n        /* \"#utility.yul\":347:531   */\n      pop\n        /* \"#utility.yul\":285:531   */\n      pop\n      pop\n      pop\n      jump\t// out\n        /* \"#utility.yul\":537:639   */\n    tag_33:\n        /* \"#utility.yul\":578:584   */\n      0x00\n        /* \"#utility.yul\":629:631   */\n      0x1f\n        /* \"#utility.yul\":625:632   */\n      not\n        /* \"#utility.yul\":620:622   */\n      0x1f\n        /* \"#utility.yul\":613:618   */\n      dup4\n        /* \"#utility.yul\":609:623   */\n      add\n        /* \"#utility.yul\":605:633   */\n      and\n        /* \"#utility.yul\":595:633   */\n      swap1\n      pop\n        /* \"#utility.yul\":537:639   */\n      swap2\n      swap1\n      pop\n      jump\t// out\n        /* \"#utility.yul\":645:1018   */\n    tag_34:\n        /* \"#utility.yul\":731:734   */\n      0x00\n        /* \"#utility.yul\":759:797   */\n      tag_74\n        /* \"#utility.yul\":791:796   */\n      dup3\n        /* \"#utility.yul\":759:797   */\n      tag_30\n      jump\t// in\n    tag_74:\n        /* \"#utility.yul\":813:883   */\n      tag_75\n        /* \"#utility.yul\":876:882   */\n      dup2\n        /* \"#utility.yul\":871:874   */\n      dup6\n        /* \"#utility.yul\":813:883   */\n      tag_31\n      jump\t// in\n    tag_75:\n        /* \"#utility.yul\":806:883   */\n      swap4\n      pop\n        /* \"#utility.yul\":892:957   */\n      tag_76\n        /* \"#utility.yul\":950:956   */\n      dup2\n        /* \"#utility.yul\":945:948   */\n      dup6\n        /* \"#utility.yul\":938:942   */\n      0x20\n        /* \"#utility.yul\":931:936   */\n      dup7\n        /* \"#utility.yul\":927:943   */\n      add\n        /* \"#utility.yul\":892:957   */\n      tag_32\n      jump\t// in\n    tag_76:\n        /* \"#utility.yul\":982:1011   */\n      tag_77\n        /* \"#utility.yul\":1004:1010   */\n      dup2\n        /* \"#utility.yul\":982:1011   */\n      tag_33\n      jump\t// in\n    tag_77:\n        /* \"#utility.yul\":977:980   */\n      dup5\n        /* \"#utility.yul\":973:1012   */\n      add\n        /* \"#utility.yul\":966:1012   */\n      swap2\n      pop\n        /* \"#utility.yul\":735:1018   */\n      pop\n        /* \"#utility.yul\":645:1018   */\n      swap3\n      swap2\n      pop\n      pop\n      jump\t// out\n        /* \"#utility.yul\":1024:1333   */\n    tag_9:\n        /* \"#utility.yul\":1135:1139   */\n      0x00\n        /* \"#utility.yul\":1173:1175   */\n      0x20\n        /* \"#utility.yul\":1162:1171   */\n      dup3\n        /* \"#utility.yul\":1158:1176   */\n      add\n        /* \"#utility.yul\":1150:1176   */\n      swap1\n      pop\n        /* \"#utility.yul\":1222:1231   */\n      dup2\n        /* \"#utility.yul\":1216:1220   */\n      dup2\n        /* \"#utility.yul\":1212:1232   */\n      sub\n        /* \"#utility.yul\":1208:1209   */\n      0x00\n        /* \"#utility.yul\":1197:1206   */\n      dup4\n        /* \"#utility.yul\":1193:1210   */\n      add\n        /* \"#utility.yul\":1186:1233   */\n      mstore\n        /* \"#utility.yul\":1250:1326   */\n      tag_79\n        /* \"#utility.yul\":1321:1325   */\n      dup2\n        /* \"#utility.yul\":1312:1318   */\n      dup5\n        /* \"#utility.yul\":1250:1326   */\n      tag_34\n      jump\t// in\n    tag_79:\n        /* \"#utility.yul\":1242:1326   */\n      swap1\n      pop\n        /* \"#utility.yul\":1024:1333   */\n      swap3\n      swap2\n      pop\n      pop\n      jump\t// out\n        /* \"#utility.yul\":1339:1414   */\n    tag_35:\n        /* \"#utility.yul\":1372:1378   */\n      0x00\n        /* \"#utility.yul\":1405:1407   */\n      0x40\n        /* \"#utility.yul\":1399:1408   */\n      mload\n        /* \"#utility.yul\":1389:1408   */\n      swap1\n      pop\n        /* \"#utility.yul\":1339:1414   */\n      swap1\n      jump\t// out\n        /* \"#utility.yul\":1420:1537   */\n    tag_36:\n        /* \"#utility.yul\":1529:1530   */\n      0x00\n        /* \"#utility.yul\":1526:1527   */\n      dup1\n        /* \"#utility.yul\":1519:1531   */\n      revert\n        /* \"#utility.yul\":1543:1660   */\n    tag_37:\n        /* \"#utility.yul\":1652:1653   */\n      0x00\n        /* \"#utility.yul\":1649:1650   */\n      dup1\n        /* \"#utility.yul\":1642:1654   */\n      revert\n        /* \"#utility.yul\":1666:1783   */\n    tag_38:\n        /* \"#utility.yul\":1775:1776   */\n      0x00\n        /* \"#utility.yul\":1772:1773   */\n      dup1\n        /* \"#utility.yul\":1765:1777   */\n      revert\n        /* \"#utility.yul\":1789:1906   */\n    tag_39:\n        /* \"#utility.yul\":1898:1899   */\n      0x00\n        /* \"#utility.yul\":1895:1896   */\n      dup1\n        /* \"#utility.yul\":1888:1900   */\n      revert\n        /* \"#utility.yul\":1912:2092   */\n    tag_40:\n        /* \"#utility.yul\":1960:2037   */\n      0x4e487b7100000000000000000000000000000000000000000000000000000000\n        /* \"#utility.yul\":1957:1958   */\n      0x00\n        /* \"#utility.yul\":1950:2038   */\n      mstore\n        /* \"#utility.yul\":2057:2061   */\n      0x41\n        /* \"#utility.yul\":2054:2055   */\n      0x04\n        /* \"#utility.yul\":2047:2062   */\n      mstore\n        /* \"#utility.yul\":2081:2085   */\n      0x24\n        /* \"#utility.yul\":2078:2079   */\n      0x00\n        /* \"#utility.yul\":2071:2086   */\n      revert\n        /* \"#utility.yul\":2098:2379   */\n    tag_41:\n        /* \"#utility.yul\":2181:2208   */\n      tag_87\n        /* \"#utility.yul\":2203:2207   */\n      dup3\n        /* \"#utility.yul\":2181:2208   */\n      tag_33\n      jump\t// in\n    tag_87:\n        /* \"#utility.yul\":2173:2179   */\n      dup2\n        /* \"#utility.yul\":2169:2209   */\n      add\n        /* \"#utility.yul\":2311:2317   */\n      dup2\n        /* \"#utility.yul\":2299:2309   */\n      dup2\n        /* \"#utility.yul\":2296:2318   */\n      lt\n        /* \"#utility.yul\":2275:2293   */\n      0xffffffffffffffff\n        /* \"#utility.yul\":2263:2273   */\n      dup3\n        /* \"#utility.yul\":2260:2294   */\n      gt\n        /* \"#utility.yul\":2257:2319   */\n      or\n        /* \"#utility.yul\":2254:2342   */\n      iszero\n      tag_88\n      jumpi\n        /* \"#utility.yul\":2322:2340   */\n      tag_89\n      tag_40\n      jump\t// in\n    tag_89:\n        /* \"#utility.yul\":2254:2342   */\n    tag_88:\n        /* \"#utility.yul\":2362:2372   */\n      dup1\n        /* \"#utility.yul\":2358:2360   */\n      0x40\n        /* \"#utility.yul\":2351:2373   */\n      mstore\n        /* \"#utility.yul\":2141:2379   */\n      pop\n        /* \"#utility.yul\":2098:2379   */\n      pop\n      pop\n      jump\t// out\n        /* \"#utility.yul\":2385:2514   */\n    tag_42:\n        /* \"#utility.yul\":2419:2425   */\n      0x00\n        /* \"#utility.yul\":2446:2466   */\n      tag_91\n      tag_35\n      jump\t// in\n    tag_91:\n        /* \"#utility.yul\":2436:2466   */\n      swap1\n      pop\n        /* \"#utility.yul\":2475:2508   */\n      tag_92\n        /* \"#utility.yul\":2503:2507   */\n      dup3\n        /* \"#utility.yul\":2495:2501   */\n      dup3\n        /* \"#utility.yul\":2475:2508   */\n      tag_41\n      jump\t// in\n    tag_92:\n        /* \"#utility.yul\":2385:2514   */\n      swap2\n      swap1\n      pop\n      jump\t// out\n        /* \"#utility.yul\":2520:2827   */\n    tag_43:\n        /* \"#utility.yul\":2581:2585   */\n      0x00\n        /* \"#utility.yul\":2671:2689   */\n      0xffffffffffffffff\n        /* \"#utility.yul\":2663:2669   */\n      dup3\n        /* \"#utility.yul\":2660:2690   */\n      gt\n        /* \"#utility.yul\":2657:2713   */\n      iszero\n      tag_94\n      jumpi\n        /* \"#utility.yul\":2693:2711   */\n      tag_95\n      tag_40\n      jump\t// in\n    tag_95:\n        /* \"#utility.yul\":2657:2713   */\n    tag_94:\n        /* \"#utility.yul\":2731:2760   */\n      tag_96\n        /* \"#utility.yul\":2753:2759   */\n      dup3\n        /* \"#utility.yul\":2731:2760   */\n      tag_33\n      jump\t// in\n    tag_96:\n        /* \"#utility.yul\":2723:2760   */\n      swap1\n      pop\n        /* \"#utility.yul\":2815:2819   */\n      0x20\n        /* \"#utility.yul\":2809:2813   */\n      dup2\n        /* \"#utility.yul\":2805:2820   */\n      add\n        /* \"#utility.yul\":2797:2820   */\n      swap1\n      pop\n        /* \"#utility.yul\":2520:2827   */\n      swap2\n      swap1\n      pop\n      jump\t// out\n        /* \"#utility.yul\":2833:2979   */\n    tag_44:\n        /* \"#utility.yul\":2930:2936   */\n      dup3\n        /* \"#utility.yul\":2925:2928   */\n      dup2\n        /* \"#utility.yul\":2920:2923   */\n      dup4\n        /* \"#utility.yul\":2907:2937   */\n      calldatacopy\n        /* \"#utility.yul\":2971:2972   */\n      0x00\n        /* \"#utility.yul\":2962:2968   */\n      dup4\n        /* \"#utility.yul\":2957:2960   */\n      dup4\n        /* \"#utility.yul\":2953:2969   */\n      add\n        /* \"#utility.yul\":2946:2973   */\n      mstore\n        /* \"#utility.yul\":2833:2979   */\n      pop\n      pop\n      pop\n      jump\t// out\n        /* \"#utility.yul\":2985:3408   */\n    tag_45:\n        /* \"#utility.yul\":3062:3067   */\n      0x00\n        /* \"#utility.yul\":3087:3152   */\n      tag_99\n        /* \"#utility.yul\":3103:3151   */\n      tag_100\n        /* \"#utility.yul\":3144:3150   */\n      dup5\n        /* \"#utility.yul\":3103:3151   */\n      tag_43\n      jump\t// in\n    tag_100:\n        /* \"#utility.yul\":3087:3152   */\n      tag_42\n      jump\t// in\n    tag_99:\n        /* \"#utility.yul\":3078:3152   */\n      swap1\n      pop\n        /* \"#utility.yul\":3175:3181   */\n      dup3\n        /* \"#utility.yul\":3168:3173   */\n      dup2\n        /* \"#utility.yul\":3161:3182   */\n      mstore\n        /* \"#utility.yul\":3213:3217   */\n      0x20\n        /* \"#utility.yul\":3206:3211   */\n      dup2\n        /* \"#utility.yul\":3202:3218   */\n      add\n        /* \"#utility.yul\":3251:3254   */\n      dup5\n        /* \"#utility.yul\":3242:3248   */\n      dup5\n        /* \"#utility.yul\":3237:3240   */\n      dup5\n        /* \"#utility.yul\":3233:3249   */\n      add\n        /* \"#utility.yul\":3230:3255   */\n      gt\n        /* \"#utility.yul\":3227:3339   */\n      iszero\n      tag_101\n      jumpi\n        /* \"#utility.yul\":3258:3337   */\n      tag_102\n      tag_39\n      jump\t// in\n    tag_102:\n        /* \"#utility.yul\":3227:3339   */\n    tag_101:\n        /* \"#utility.yul\":3348:3402   */\n      tag_103\n        /* \"#utility.yul\":3395:3401   */\n      dup5\n        /* \"#utility.yul\":3390:3393   */\n      dup3\n        /* \"#utility.yul\":3385:3388   */\n      dup6\n        /* \"#utility.yul\":3348:3402   */\n      tag_44\n      jump\t// in\n    tag_103:\n        /* \"#utility.yul\":3068:3408   */\n      pop\n        /* \"#utility.yul\":2985:3408   */\n      swap4\n      swap3\n      pop\n      pop\n      pop\n      jump\t// out\n        /* \"#utility.yul\":3427:3765   */\n    tag_46:\n        /* \"#utility.yul\":3482:3487   */\n      0x00\n        /* \"#utility.yul\":3531:3534   */\n      dup3\n        /* \"#utility.yul\":3524:3528   */\n      0x1f\n        /* \"#utility.yul\":3516:3522   */\n      dup4\n        /* \"#utility.yul\":3512:3529   */\n      add\n        /* \"#utility.yul\":3508:3535   */\n      slt\n        /* \"#utility.yul\":3498:3620   */\n      tag_105\n      jumpi\n        /* \"#utility.yul\":3539:3618   */\n      tag_106\n      tag_38\n      jump\t// in\n    tag_106:\n        /* \"#utility.yul\":3498:3620   */\n    tag_105:\n        /* \"#utility.yul\":3656:3662   */\n      dup2\n        /* \"#utility.yul\":3643:3663   */\n      calldataload\n        /* \"#utility.yul\":3681:3759   */\n      tag_107\n        /* \"#utility.yul\":3755:3758   */\n      dup5\n        /* \"#utility.yul\":3747:3753   */\n      dup3\n        /* \"#utility.yul\":3740:3744   */\n      0x20\n        /* \"#utility.yul\":3732:3738   */\n      dup7\n        /* \"#utility.yul\":3728:3745   */\n      add\n        /* \"#utility.yul\":3681:3759   */\n      tag_45\n      jump\t// in\n    tag_107:\n        /* \"#utility.yul\":3672:3759   */\n      swap2\n      pop\n        /* \"#utility.yul\":3488:3765   */\n      pop\n        /* \"#utility.yul\":3427:3765   */\n      swap3\n      swap2\n      pop\n      pop\n      jump\t// out\n        /* \"#utility.yul\":3771:3848   */\n    tag_47:\n        /* \"#utility.yul\":3808:3815   */\n      0x00\n        /* \"#utility.yul\":3837:3842   */\n      dup2\n        /* \"#utility.yul\":3826:3842   */\n      swap1\n      pop\n        /* \"#utility.yul\":3771:3848   */\n      swap2\n      swap1\n      pop\n      jump\t// out\n        /* \"#utility.yul\":3854:3976   */\n    tag_48:\n        /* \"#utility.yul\":3927:3951   */\n      tag_110\n        /* \"#utility.yul\":3945:3950   */\n      dup2\n        /* \"#utility.yul\":3927:3951   */\n      tag_47\n      jump\t// in\n    tag_110:\n        /* \"#utility.yul\":3920:3925   */\n      dup2\n        /* \"#utility.yul\":3917:3952   */\n      eq\n        /* \"#utility.yul\":3907:3970   */\n      tag_111\n      jumpi\n        /* \"#utility.yul\":3966:3967   */\n      0x00\n        /* \"#utility.yul\":3963:3964   */\n      dup1\n        /* \"#utility.yul\":3956:3968   */\n      revert\n        /* \"#utility.yul\":3907:3970   */\n    tag_111:\n        /* \"#utility.yul\":3854:3976   */\n      pop\n      jump\t// out\n        /* \"#utility.yul\":3982:4121   */\n    tag_49:\n        /* \"#utility.yul\":4028:4033   */\n      0x00\n        /* \"#utility.yul\":4066:4072   */\n      dup2\n        /* \"#utility.yul\":4053:4073   */\n      calldataload\n        /* \"#utility.yul\":4044:4073   */\n      swap1\n      pop\n        /* \"#utility.yul\":4082:4115   */\n      tag_113\n        /* \"#utility.yul\":4109:4114   */\n      dup2\n        /* \"#utility.yul\":4082:4115   */\n      tag_48\n      jump\t// in\n    tag_113:\n        /* \"#utility.yul\":3982:4121   */\n      swap3\n      swap2\n      pop\n      pop\n      jump\t// out\n        /* \"#utility.yul\":4127:4779   */\n    tag_12:\n        /* \"#utility.yul\":4204:4210   */\n      0x00\n        /* \"#utility.yul\":4212:4218   */\n      dup1\n        /* \"#utility.yul\":4261:4263   */\n      0x40\n        /* \"#utility.yul\":4249:4258   */\n      dup4\n        /* \"#utility.yul\":4240:4247   */\n      dup6\n        /* \"#utility.yul\":4236:4259   */\n      sub\n        /* \"#utility.yul\":4232:4264   */\n      slt\n        /* \"#utility.yul\":4229:4348   */\n      iszero\n      tag_115\n      jumpi\n        /* \"#utility.yul\":4267:4346   */\n      tag_116\n      tag_36\n      jump\t// in\n    tag_116:\n        /* \"#utility.yul\":4229:4348   */\n    tag_115:\n        /* \"#utility.yul\":4415:4416   */\n      0x00\n        /* \"#utility.yul\":4404:4413   */\n      dup4\n        /* \"#utility.yul\":4400:4417   */\n      add\n        /* \"#utility.yul\":4387:4418   */\n      calldataload\n        /* \"#utility.yul\":4445:4463   */\n      0xffffffffffffffff\n        /* \"#utility.yul\":4437:4443   */\n      dup2\n        /* \"#utility.yul\":4434:4464   */\n      gt\n        /* \"#utility.yul\":4431:4548   */\n      iszero\n      tag_117\n      jumpi\n        /* \"#utility.yul\":4467:4546   */\n      tag_118\n      tag_37\n      jump\t// in\n    tag_118:\n        /* \"#utility.yul\":4431:4548   */\n    tag_117:\n        /* \"#utility.yul\":4572:4634   */\n      tag_119\n        /* \"#utility.yul\":4626:4633   */\n      dup6\n        /* \"#utility.yul\":4617:4623   */\n      dup3\n        /* \"#utility.yul\":4606:4615   */\n      dup7\n        /* \"#utility.yul\":4602:4624   */\n      add\n        /* \"#utility.yul\":4572:4634   */\n      tag_46\n      jump\t// in\n    tag_119:\n        /* \"#utility.yul\":4562:4634   */\n      swap3\n      pop\n        /* \"#utility.yul\":4358:4644   */\n      pop\n        /* \"#utility.yul\":4683:4685   */\n      0x20\n        /* \"#utility.yul\":4709:4762   */\n      tag_120\n        /* \"#utility.yul\":4754:4761   */\n      dup6\n        /* \"#utility.yul\":4745:4751   */\n      dup3\n        /* \"#utility.yul\":4734:4743   */\n      dup7\n        /* \"#utility.yul\":4730:4752   */\n      add\n        /* \"#utility.yul\":4709:4762   */\n      tag_49\n      jump\t// in\n    tag_120:\n        /* \"#utility.yul\":4699:4762   */\n      swap2\n      pop\n        /* \"#utility.yul\":4654:4772   */\n      pop\n        /* \"#utility.yul\":4127:4779   */\n      swap3\n      pop\n      swap3\n      swap1\n      pop\n      jump\t// out\n        /* \"#utility.yul\":4785:4911   */\n    tag_50:\n        /* \"#utility.yul\":4822:4829   */\n      0x00\n        /* \"#utility.yul\":4862:4904   */\n      0xffffffffffffffffffffffffffffffffffffffff\n        /* \"#utility.yul\":4855:4860   */\n      dup3\n        /* \"#utility.yul\":4851:4905   */\n      and\n        /* \"#utility.yul\":4840:4905   */\n      swap1\n      pop\n        /* \"#utility.yul\":4785:4911   */\n      swap2\n      swap1\n      pop\n      jump\t// out\n        /* \"#utility.yul\":4917:5013   */\n    tag_51:\n        /* \"#utility.yul\":4954:4961   */\n      0x00\n        /* \"#utility.yul\":4983:5007   */\n      tag_123\n        /* \"#utility.yul\":5001:5006   */\n      dup3\n        /* \"#utility.yul\":4983:5007   */\n      tag_50\n      jump\t// in\n    tag_123:\n        /* \"#utility.yul\":4972:5007   */\n      swap1\n      pop\n        /* \"#utility.yul\":4917:5013   */\n      swap2\n      swap1\n      pop\n      jump\t// out\n        /* \"#utility.yul\":5019:5137   */\n    tag_52:\n        /* \"#utility.yul\":5106:5130   */\n      tag_125\n        /* \"#utility.yul\":5124:5129   */\n      dup2\n        /* \"#utility.yul\":5106:5130   */\n      tag_51\n      jump\t// in\n    tag_125:\n        /* \"#utility.yul\":5101:5104   */\n      dup3\n        /* \"#utility.yul\":5094:5131   */\n      mstore\n        /* \"#utility.yul\":5019:5137   */\n      pop\n      pop\n      jump\t// out\n        /* \"#utility.yul\":5143:5365   */\n    tag_15:\n        /* \"#utility.yul\":5236:5240   */\n      0x00\n        /* \"#utility.yul\":5274:5276   */\n      0x20\n        /* \"#utility.yul\":5263:5272   */\n      dup3\n        /* \"#utility.yul\":5259:5277   */\n      add\n        /* \"#utility.yul\":5251:5277   */\n      swap1\n      pop\n        /* \"#utility.yul\":5287:5358   */\n      tag_127\n        /* \"#utility.yul\":5355:5356   */\n      0x00\n        /* \"#utility.yul\":5344:5353   */\n      dup4\n        /* \"#utility.yul\":5340:5357   */\n      add\n        /* \"#utility.yul\":5331:5337   */\n      dup5\n        /* \"#utility.yul\":5287:5358   */\n      tag_52\n      jump\t// in\n    tag_127:\n        /* \"#utility.yul\":5143:5365   */\n      swap3\n      swap2\n      pop\n      pop\n      jump\t// out\n        /* \"#utility.yul\":5371:5700   */\n    tag_18:\n        /* \"#utility.yul\":5430:5436   */\n      0x00\n        /* \"#utility.yul\":5479:5481   */\n      0x20\n        /* \"#utility.yul\":5467:5476   */\n      dup3\n        /* \"#utility.yul\":5458:5465   */\n      dup5\n        /* \"#utility.yul\":5454:5477   */\n      sub\n        /* \"#utility.yul\":5450:5482   */\n      slt\n        /* \"#utility.yul\":5447:5566   */\n      iszero\n      tag_129\n      jumpi\n        /* \"#utility.yul\":5485:5564   */\n      tag_130\n      tag_36\n      jump\t// in\n    tag_130:\n        /* \"#utility.yul\":5447:5566   */\n    tag_129:\n        /* \"#utility.yul\":5605:5606   */\n      0x00\n        /* \"#utility.yul\":5630:5683   */\n      tag_131\n        /* \"#utility.yul\":5675:5682   */\n      dup5\n        /* \"#utility.yul\":5666:5672   */\n      dup3\n        /* \"#utility.yul\":5655:5664   */\n      dup6\n        /* \"#utility.yul\":5651:5673   */\n      add\n        /* \"#utility.yul\":5630:5683   */\n      tag_49\n      jump\t// in\n    tag_131:\n        /* \"#utility.yul\":5620:5683   */\n      swap2\n      pop\n        /* \"#utility.yul\":5576:5693   */\n      pop\n        /* \"#utility.yul\":5371:5700   */\n      swap3\n      swap2\n      pop\n      pop\n      jump\t// out\n        /* \"#utility.yul\":5706:5855   */\n    tag_53:\n        /* \"#utility.yul\":5742:5749   */\n      0x00\n        /* \"#utility.yul\":5782:5848   */\n      0xff00000000000000000000000000000000000000000000000000000000000000\n        /* \"#utility.yul\":5775:5780   */\n      dup3\n        /* \"#utility.yul\":5771:5849   */\n      and\n        /* \"#utility.yul\":5760:5849   */\n      swap1\n      pop\n        /* \"#utility.yul\":5706:5855   */\n      swap2\n      swap1\n      pop\n      jump\t// out\n        /* \"#utility.yul\":5861:5939   */\n    tag_54:\n        /* \"#utility.yul\":5899:5906   */\n      0x00\n        /* \"#utility.yul\":5928:5933   */\n      dup2\n        /* \"#utility.yul\":5917:5933   */\n      swap1\n      pop\n        /* \"#utility.yul\":5861:5939   */\n      swap2\n      swap1\n      pop\n      jump\t// out\n        /* \"#utility.yul\":5945:6098   */\n    tag_55:\n        /* \"#utility.yul\":6048:6091   */\n      tag_135\n        /* \"#utility.yul\":6067:6090   */\n      tag_136\n        /* \"#utility.yul\":6084:6089   */\n      dup3\n        /* \"#utility.yul\":6067:6090   */\n      tag_53\n      jump\t// in\n    tag_136:\n        /* \"#utility.yul\":6048:6091   */\n      tag_54\n      jump\t// in\n    tag_135:\n        /* \"#utility.yul\":6043:6046   */\n      dup3\n        /* \"#utility.yul\":6036:6092   */\n      mstore\n        /* \"#utility.yul\":5945:6098   */\n      pop\n      pop\n      jump\t// out\n        /* \"#utility.yul\":6104:6198   */\n    tag_56:\n        /* \"#utility.yul\":6137:6145   */\n      0x00\n        /* \"#utility.yul\":6185:6190   */\n      dup2\n        /* \"#utility.yul\":6181:6183   */\n      0x60\n        /* \"#utility.yul\":6177:6191   */\n      shl\n        /* \"#utility.yul\":6156:6191   */\n      swap1\n      pop\n        /* \"#utility.yul\":6104:6198   */\n      swap2\n      swap1\n      pop\n      jump\t// out\n        /* \"#utility.yul\":6204:6298   */\n    tag_57:\n        /* \"#utility.yul\":6243:6250   */\n      0x00\n        /* \"#utility.yul\":6272:6292   */\n      tag_139\n        /* \"#utility.yul\":6286:6291   */\n      dup3\n        /* \"#utility.yul\":6272:6292   */\n      tag_56\n      jump\t// in\n    tag_139:\n        /* \"#utility.yul\":6261:6292   */\n      swap1\n      pop\n        /* \"#utility.yul\":6204:6298   */\n      swap2\n      swap1\n      pop\n      jump\t// out\n        /* \"#utility.yul\":6304:6404   */\n    tag_58:\n        /* \"#utility.yul\":6343:6350   */\n      0x00\n        /* \"#utility.yul\":6372:6398   */\n      tag_141\n        /* \"#utility.yul\":6392:6397   */\n      dup3\n        /* \"#utility.yul\":6372:6398   */\n      tag_57\n      jump\t// in\n    tag_141:\n        /* \"#utility.yul\":6361:6398   */\n      swap1\n      pop\n        /* \"#utility.yul\":6304:6404   */\n      swap2\n      swap1\n      pop\n      jump\t// out\n        /* \"#utility.yul\":6410:6567   */\n    tag_59:\n        /* \"#utility.yul\":6515:6560   */\n      tag_143\n        /* \"#utility.yul\":6535:6559   */\n      tag_144\n        /* \"#utility.yul\":6553:6558   */\n      dup3\n        /* \"#utility.yul\":6535:6559   */\n      tag_51\n      jump\t// in\n    tag_144:\n        /* \"#utility.yul\":6515:6560   */\n      tag_58\n      jump\t// in\n    tag_143:\n        /* \"#utility.yul\":6510:6513   */\n      dup3\n        /* \"#utility.yul\":6503:6561   */\n      mstore\n        /* \"#utility.yul\":6410:6567   */\n      pop\n      pop\n      jump\t// out\n        /* \"#utility.yul\":6573:6652   */\n    tag_60:\n        /* \"#utility.yul\":6612:6619   */\n      0x00\n        /* \"#utility.yul\":6641:6646   */\n      dup2\n        /* \"#utility.yul\":6630:6646   */\n      swap1\n      pop\n        /* \"#utility.yul\":6573:6652   */\n      swap2\n      swap1\n      pop\n      jump\t// out\n        /* \"#utility.yul\":6658:6815   */\n    tag_61:\n        /* \"#utility.yul\":6763:6808   */\n      tag_147\n        /* \"#utility.yul\":6783:6807   */\n      tag_148\n        /* \"#utility.yul\":6801:6806   */\n      dup3\n        /* \"#utility.yul\":6783:6807   */\n      tag_47\n      jump\t// in\n    tag_148:\n        /* \"#utility.yul\":6763:6808   */\n      tag_60\n      jump\t// in\n    tag_147:\n        /* \"#utility.yul\":6758:6761   */\n      dup3\n        /* \"#utility.yul\":6751:6809   */\n      mstore\n        /* \"#utility.yul\":6658:6815   */\n      pop\n      pop\n      jump\t// out\n        /* \"#utility.yul\":6821:6898   */\n    tag_62:\n        /* \"#utility.yul\":6858:6865   */\n      0x00\n        /* \"#utility.yul\":6887:6892   */\n      dup2\n        /* \"#utility.yul\":6876:6892   */\n      swap1\n      pop\n        /* \"#utility.yul\":6821:6898   */\n      swap2\n      swap1\n      pop\n      jump\t// out\n        /* \"#utility.yul\":6904:6983   */\n    tag_63:\n        /* \"#utility.yul\":6943:6950   */\n      0x00\n        /* \"#utility.yul\":6972:6977   */\n      dup2\n        /* \"#utility.yul\":6961:6977   */\n      swap1\n      pop\n        /* \"#utility.yul\":6904:6983   */\n      swap2\n      swap1\n      pop\n      jump\t// out\n        /* \"#utility.yul\":6989:7146   */\n    tag_64:\n        /* \"#utility.yul\":7094:7139   */\n      tag_152\n        /* \"#utility.yul\":7114:7138   */\n      tag_153\n        /* \"#utility.yul\":7132:7137   */\n      dup3\n        /* \"#utility.yul\":7114:7138   */\n      tag_62\n      jump\t// in\n    tag_153:\n        /* \"#utility.yul\":7094:7139   */\n      tag_63\n      jump\t// in\n    tag_152:\n        /* \"#utility.yul\":7089:7092   */\n      dup3\n        /* \"#utility.yul\":7082:7140   */\n      mstore\n        /* \"#utility.yul\":6989:7146   */\n      pop\n      pop\n      jump\t// out\n        /* \"#utility.yul\":7152:7826   */\n    tag_23:\n        /* \"#utility.yul\":7346:7349   */\n      0x00\n        /* \"#utility.yul\":7361:7434   */\n      tag_155\n        /* \"#utility.yul\":7430:7433   */\n      dup3\n        /* \"#utility.yul\":7421:7427   */\n      dup8\n        /* \"#utility.yul\":7361:7434   */\n      tag_55\n      jump\t// in\n    tag_155:\n        /* \"#utility.yul\":7459:7460   */\n      0x01\n        /* \"#utility.yul\":7454:7457   */\n      dup3\n        /* \"#utility.yul\":7450:7461   */\n      add\n        /* \"#utility.yul\":7443:7461   */\n      swap2\n      pop\n        /* \"#utility.yul\":7471:7546   */\n      tag_156\n        /* \"#utility.yul\":7542:7545   */\n      dup3\n        /* \"#utility.yul\":7533:7539   */\n      dup7\n        /* \"#utility.yul\":7471:7546   */\n      tag_59\n      jump\t// in\n    tag_156:\n        /* \"#utility.yul\":7571:7573   */\n      0x14\n        /* \"#utility.yul\":7566:7569   */\n      dup3\n        /* \"#utility.yul\":7562:7574   */\n      add\n        /* \"#utility.yul\":7555:7574   */\n      swap2\n      pop\n        /* \"#utility.yul\":7584:7659   */\n      tag_157\n        /* \"#utility.yul\":7655:7658   */\n      dup3\n        /* \"#utility.yul\":7646:7652   */\n      dup6\n        /* \"#utility.yul\":7584:7659   */\n      tag_61\n      jump\t// in\n    tag_157:\n        /* \"#utility.yul\":7684:7686   */\n      0x20\n        /* \"#utility.yul\":7679:7682   */\n      dup3\n        /* \"#utility.yul\":7675:7687   */\n      add\n        /* \"#utility.yul\":7668:7687   */\n      swap2\n      pop\n        /* \"#utility.yul\":7697:7772   */\n      tag_158\n        /* \"#utility.yul\":7768:7771   */\n      dup3\n        /* \"#utility.yul\":7759:7765   */\n      dup5\n        /* \"#utility.yul\":7697:7772   */\n      tag_64\n      jump\t// in\n    tag_158:\n        /* \"#utility.yul\":7797:7799   */\n      0x20\n        /* \"#utility.yul\":7792:7795   */\n      dup3\n        /* \"#utility.yul\":7788:7800   */\n      add\n        /* \"#utility.yul\":7781:7800   */\n      swap2\n      pop\n        /* \"#utility.yul\":7817:7820   */\n      dup2\n        /* \"#utility.yul\":7810:7820   */\n      swap1\n      pop\n        /* \"#utility.yul\":7152:7826   */\n      swap6\n      swap5\n      pop\n      pop\n      pop\n      pop\n      pop\n      jump\t// out\n    stop\n\n    sub_0: assembly {\n            /* \"contracts/Create2.sol\":58:179  contract DeployWithCreate2 {... */\n          mstore(0x40, 0x80)\n            /* \"contracts/Create2.sol\":118:177  constructor(address _owner) {... */\n          callvalue\n          dup1\n          iszero\n          tag_1\n          jumpi\n          0x00\n          dup1\n          revert\n        tag_1:\n          pop\n          mload(0x40)\n          sub(codesize, bytecodeSize)\n          dup1\n          bytecodeSize\n          dup4\n          codecopy\n          dup2\n          dup2\n          add\n          0x40\n          mstore\n          dup2\n          add\n          swap1\n          tag_2\n          swap2\n          swap1\n          tag_3\n          jump\t// in\n        tag_2:\n            /* \"contracts/Create2.sol\":164:170  _owner */\n          dup1\n            /* \"contracts/Create2.sol\":156:161  owner */\n          0x00\n          dup1\n            /* \"contracts/Create2.sol\":156:170  owner = _owner */\n          0x0100\n          exp\n          dup2\n          sload\n          dup2\n          0xffffffffffffffffffffffffffffffffffffffff\n          mul\n          not\n          and\n          swap1\n          dup4\n          0xffffffffffffffffffffffffffffffffffffffff\n          and\n          mul\n          or\n          swap1\n          sstore\n          pop\n            /* \"contracts/Create2.sol\":118:177  constructor(address _owner) {... */\n          pop\n            /* \"contracts/Create2.sol\":58:179  contract DeployWithCreate2 {... */\n          jump(tag_6)\n            /* \"#utility.yul\":88:205   */\n        tag_8:\n            /* \"#utility.yul\":197:198   */\n          0x00\n            /* \"#utility.yul\":194:195   */\n          dup1\n            /* \"#utility.yul\":187:199   */\n          revert\n            /* \"#utility.yul\":334:460   */\n        tag_10:\n            /* \"#utility.yul\":371:378   */\n          0x00\n            /* \"#utility.yul\":411:453   */\n          0xffffffffffffffffffffffffffffffffffffffff\n            /* \"#utility.yul\":404:409   */\n          dup3\n            /* \"#utility.yul\":400:454   */\n          and\n            /* \"#utility.yul\":389:454   */\n          swap1\n          pop\n            /* \"#utility.yul\":334:460   */\n          swap2\n          swap1\n          pop\n          jump\t// out\n            /* \"#utility.yul\":466:562   */\n        tag_11:\n            /* \"#utility.yul\":503:510   */\n          0x00\n            /* \"#utility.yul\":532:556   */\n          tag_20\n            /* \"#utility.yul\":550:555   */\n          dup3\n            /* \"#utility.yul\":532:556   */\n          tag_10\n          jump\t// in\n        tag_20:\n            /* \"#utility.yul\":521:556   */\n          swap1\n          pop\n            /* \"#utility.yul\":466:562   */\n          swap2\n          swap1\n          pop\n          jump\t// out\n            /* \"#utility.yul\":568:690   */\n        tag_12:\n            /* \"#utility.yul\":641:665   */\n          tag_22\n            /* \"#utility.yul\":659:664   */\n          dup2\n            /* \"#utility.yul\":641:665   */\n          tag_11\n          jump\t// in\n        tag_22:\n            /* \"#utility.yul\":634:639   */\n          dup2\n            /* \"#utility.yul\":631:666   */\n          eq\n            /* \"#utility.yul\":621:684   */\n          tag_23\n          jumpi\n            /* \"#utility.yul\":680:681   */\n          0x00\n            /* \"#utility.yul\":677:678   */\n          dup1\n            /* \"#utility.yul\":670:682   */\n          revert\n            /* \"#utility.yul\":621:684   */\n        tag_23:\n            /* \"#utility.yul\":568:690   */\n          pop\n          jump\t// out\n            /* \"#utility.yul\":696:839   */\n        tag_13:\n            /* \"#utility.yul\":753:758   */\n          0x00\n            /* \"#utility.yul\":784:790   */\n          dup2\n            /* \"#utility.yul\":778:791   */\n          mload\n            /* \"#utility.yul\":769:791   */\n          swap1\n          pop\n            /* \"#utility.yul\":800:833   */\n          tag_25\n            /* \"#utility.yul\":827:832   */\n          dup2\n            /* \"#utility.yul\":800:833   */\n          tag_12\n          jump\t// in\n        tag_25:\n            /* \"#utility.yul\":696:839   */\n          swap3\n          swap2\n          pop\n          pop\n          jump\t// out\n            /* \"#utility.yul\":845:1196   */\n        tag_3:\n            /* \"#utility.yul\":915:921   */\n          0x00\n            /* \"#utility.yul\":964:966   */\n          0x20\n            /* \"#utility.yul\":952:961   */\n          dup3\n            /* \"#utility.yul\":943:950   */\n          dup5\n            /* \"#utility.yul\":939:962   */\n          sub\n            /* \"#utility.yul\":935:967   */\n          slt\n            /* \"#utility.yul\":932:1051   */\n          iszero\n          tag_27\n          jumpi\n            /* \"#utility.yul\":970:1049   */\n          tag_28\n          tag_8\n          jump\t// in\n        tag_28:\n            /* \"#utility.yul\":932:1051   */\n        tag_27:\n            /* \"#utility.yul\":1090:1091   */\n          0x00\n            /* \"#utility.yul\":1115:1179   */\n          tag_29\n            /* \"#utility.yul\":1171:1178   */\n          dup5\n            /* \"#utility.yul\":1162:1168   */\n          dup3\n            /* \"#utility.yul\":1151:1160   */\n          dup6\n            /* \"#utility.yul\":1147:1169   */\n          add\n            /* \"#utility.yul\":1115:1179   */\n          tag_13\n          jump\t// in\n        tag_29:\n            /* \"#utility.yul\":1105:1179   */\n          swap2\n          pop\n            /* \"#utility.yul\":1061:1189   */\n          pop\n            /* \"#utility.yul\":845:1196   */\n          swap3\n          swap2\n          pop\n          pop\n          jump\t// out\n            /* \"contracts/Create2.sol\":58:179  contract DeployWithCreate2 {... */\n        tag_6:\n          dataSize(sub_0)\n          dup1\n          dataOffset(sub_0)\n          0x00\n          codecopy\n          0x00\n          return\n        stop\n\n        sub_0: assembly {\n                /* \"contracts/Create2.sol\":58:179  contract DeployWithCreate2 {... */\n              mstore(0x40, 0x80)\n              callvalue\n              dup1\n              iszero\n              tag_1\n              jumpi\n              0x00\n              dup1\n              revert\n            tag_1:\n              pop\n              jumpi(tag_2, lt(calldatasize, 0x04))\n              shr(0xe0, calldataload(0x00))\n              dup1\n              0x8da5cb5b\n              eq\n              tag_3\n              jumpi\n            tag_2:\n              0x00\n              dup1\n              revert\n                /* \"contracts/Create2.sol\":91:111  address public owner */\n            tag_3:\n              tag_4\n              tag_5\n              jump\t// in\n            tag_4:\n              mload(0x40)\n              tag_6\n              swap2\n              swap1\n              tag_7\n              jump\t// in\n            tag_6:\n              mload(0x40)\n              dup1\n              swap2\n              sub\n              swap1\n              return\n            tag_5:\n              0x00\n              dup1\n              sload\n              swap1\n              0x0100\n              exp\n              swap1\n              div\n              0xffffffffffffffffffffffffffffffffffffffff\n              and\n              dup2\n              jump\t// out\n                /* \"#utility.yul\":7:133   */\n            tag_8:\n                /* \"#utility.yul\":44:51   */\n              0x00\n                /* \"#utility.yul\":84:126   */\n              0xffffffffffffffffffffffffffffffffffffffff\n                /* \"#utility.yul\":77:82   */\n              dup3\n                /* \"#utility.yul\":73:127   */\n              and\n                /* \"#utility.yul\":62:127   */\n              swap1\n              pop\n                /* \"#utility.yul\":7:133   */\n              swap2\n              swap1\n              pop\n              jump\t// out\n                /* \"#utility.yul\":139:235   */\n            tag_9:\n                /* \"#utility.yul\":176:183   */\n              0x00\n                /* \"#utility.yul\":205:229   */\n              tag_14\n                /* \"#utility.yul\":223:228   */\n              dup3\n                /* \"#utility.yul\":205:229   */\n              tag_8\n              jump\t// in\n            tag_14:\n                /* \"#utility.yul\":194:229   */\n              swap1\n              pop\n                /* \"#utility.yul\":139:235   */\n              swap2\n              swap1\n              pop\n              jump\t// out\n                /* \"#utility.yul\":241:359   */\n            tag_10:\n                /* \"#utility.yul\":328:352   */\n              tag_16\n                /* \"#utility.yul\":346:351   */\n              dup2\n                /* \"#utility.yul\":328:352   */\n              tag_9\n              jump\t// in\n            tag_16:\n                /* \"#utility.yul\":323:326   */\n              dup3\n                /* \"#utility.yul\":316:353   */\n              mstore\n                /* \"#utility.yul\":241:359   */\n              pop\n              pop\n              jump\t// out\n                /* \"#utility.yul\":365:587   */\n            tag_7:\n                /* \"#utility.yul\":458:462   */\n              0x00\n                /* \"#utility.yul\":496:498   */\n              0x20\n                /* \"#utility.yul\":485:494   */\n              dup3\n                /* \"#utility.yul\":481:499   */\n              add\n                /* \"#utility.yul\":473:499   */\n              swap1\n              pop\n                /* \"#utility.yul\":509:580   */\n              tag_18\n                /* \"#utility.yul\":577:578   */\n              0x00\n                /* \"#utility.yul\":566:575   */\n              dup4\n                /* \"#utility.yul\":562:579   */\n              add\n                /* \"#utility.yul\":553:559   */\n              dup5\n                /* \"#utility.yul\":509:580   */\n              tag_10\n              jump\t// in\n            tag_18:\n                /* \"#utility.yul\":365:587   */\n              swap3\n              swap2\n              pop\n              pop\n              jump\t// out\n\n            auxdata: 0xa26469706673582212201f788d0a99813aaba8e920e585f01d71dfac15f755cc40a0f64de02381d54a0b64736f6c63430008110033\n        }\n    }\n\n    auxdata: 0xa2646970667358221220f3a6424a8764f5833f8c71a42fb5013eaf08a1d41a588b98bc753b4298c224fb64736f6c63430008110033\n}\n",
				"bytecode": {
					"linkReferences": {},
					"object": "608060405234801561001057600080fd5b5061080f806100206000396000f3fe608060405234801561001057600080fd5b50600436106100415760003560e01c806352c7420d1461004657806394ca2cb514610064578063a5e3875114610094575b600080fd5b61004e6100b0565b60405161005b9190610217565b60405180910390f35b61007e600480360381019061007991906103b8565b6100b5565b60405161008b9190610455565b60405180910390f35b6100ae60048036038101906100a99190610470565b6100ff565b005b606090565b60008060ff60f81b308486805190602001206040516020016100da949392919061057e565b6040516020818303038152906040528051906020012090508060001c91505092915050565b60008160001b336040516101129061017a565b61011c9190610455565b8190604051809103906000f590508015801561013c573d6000803e3d6000fd5b5090507f55ea6c6b31543d8e2ec6a72f71a79c0f4b72ed0d4757172b043d8f4f4cd848488160405161016e9190610455565b60405180910390a15050565b61020d806105cd83390190565b600081519050919050565b600082825260208201905092915050565b60005b838110156101c15780820151818401526020810190506101a6565b60008484015250505050565b6000601f19601f8301169050919050565b60006101e982610187565b6101f38185610192565b93506102038185602086016101a3565b61020c816101cd565b840191505092915050565b6000602082019050818103600083015261023181846101de565b905092915050565b6000604051905090565b600080fd5b600080fd5b600080fd5b600080fd5b7f4e487b7100000000000000000000000000000000000000000000000000000000600052604160045260246000fd5b61028f826101cd565b810181811067ffffffffffffffff821117156102ae576102ad610257565b5b80604052505050565b60006102c1610239565b90506102cd8282610286565b919050565b600067ffffffffffffffff8211156102ed576102ec610257565b5b6102f6826101cd565b9050602081019050919050565b82818337600083830152505050565b6000610325610320846102d2565b6102b7565b90508281526020810184848401111561034157610340610252565b5b61034c848285610303565b509392505050565b600082601f8301126103695761036861024d565b5b8135610379848260208601610312565b91505092915050565b6000819050919050565b61039581610382565b81146103a057600080fd5b50565b6000813590506103b28161038c565b92915050565b600080604083850312156103cf576103ce610243565b5b600083013567ffffffffffffffff8111156103ed576103ec610248565b5b6103f985828601610354565b925050602061040a858286016103a3565b9150509250929050565b600073ffffffffffffffffffffffffffffffffffffffff82169050919050565b600061043f82610414565b9050919050565b61044f81610434565b82525050565b600060208201905061046a6000830184610446565b92915050565b60006020828403121561048657610485610243565b5b6000610494848285016103a3565b91505092915050565b60007fff0000000000000000000000000000000000000000000000000000000000000082169050919050565b6000819050919050565b6104e46104df8261049d565b6104c9565b82525050565b60008160601b9050919050565b6000610502826104ea565b9050919050565b6000610514826104f7565b9050919050565b61052c61052782610434565b610509565b82525050565b6000819050919050565b61054d61054882610382565b610532565b82525050565b6000819050919050565b6000819050919050565b61057861057382610553565b61055d565b82525050565b600061058a82876104d3565b60018201915061059a828661051b565b6014820191506105aa828561053c565b6020820191506105ba8284610567565b6020820191508190509594505050505056fe608060405234801561001057600080fd5b5060405161020d38038061020d833981810160405281019061003291906100db565b806000806101000a81548173ffffffffffffffffffffffffffffffffffffffff021916908373ffffffffffffffffffffffffffffffffffffffff16021790555050610108565b600080fd5b600073ffffffffffffffffffffffffffffffffffffffff82169050919050565b60006100a88261007d565b9050919050565b6100b88161009d565b81146100c357600080fd5b50565b6000815190506100d5816100af565b92915050565b6000602082840312156100f1576100f0610078565b5b60006100ff848285016100c6565b91505092915050565b60f7806101166000396000f3fe6080604052348015600f57600080fd5b506004361060285760003560e01c80638da5cb5b14602d575b600080fd5b60336047565b604051603e919060a8565b60405180910390f35b60008054906101000a900473ffffffffffffffffffffffffffffffffffffffff1681565b600073ffffffffffffffffffffffffffffffffffffffff82169050919050565b6000609482606b565b9050919050565b60a281608b565b82525050565b600060208201905060bb6000830184609b565b9291505056fea26469706673582212201f788d0a99813aaba8e920e585f01d71dfac15f755cc40a0f64de02381d54a0b64736f6c63430008110033a2646970667358221220f3a6424a8764f5833f8c71a42fb5013eaf08a1d41a588b98bc753b4298c224fb64736f6c63430008110033",
					"opcodes": "PUSH1 0x80 PUSH1 0x40 MSTORE CALLVALUE DUP1 ISZERO PUSH2 0x10 JUMPI PUSH1 0x0 DUP1 REVERT JUMPDEST POP PUSH2 0x80F DUP1 PUSH2 0x20 PUSH1 0x0 CODECOPY PUSH1 0x0 RETURN INVALID PUSH1 0x80 PUSH1 0x40 MSTORE CALLVALUE DUP1 ISZERO PUSH2 0x10 JUMPI PUSH1 0x0 DUP1 REVERT JUMPDEST POP PUSH1 0x4 CALLDATASIZE LT PUSH2 0x41 JUMPI PUSH1 0x0 CALLDATALOAD PUSH1 0xE0 SHR DUP1 PUSH4 0x52C7420D EQ PUSH2 0x46 JUMPI DUP1 PUSH4 0x94CA2CB5 EQ PUSH2 0x64 JUMPI DUP1 PUSH4 0xA5E38751 EQ PUSH2 0x94 JUMPI JUMPDEST PUSH1 0x0 DUP1 REVERT JUMPDEST PUSH2 0x4E PUSH2 0xB0 JUMP JUMPDEST PUSH1 0x40 MLOAD PUSH2 0x5B SWAP2 SWAP1 PUSH2 0x217 JUMP JUMPDEST PUSH1 0x40 MLOAD DUP1 SWAP2 SUB SWAP1 RETURN JUMPDEST PUSH2 0x7E PUSH1 0x4 DUP1 CALLDATASIZE SUB DUP2 ADD SWAP1 PUSH2 0x79 SWAP2 SWAP1 PUSH2 0x3B8 JUMP JUMPDEST PUSH2 0xB5 JUMP JUMPDEST PUSH1 0x40 MLOAD PUSH2 0x8B SWAP2 SWAP1 PUSH2 0x455 JUMP JUMPDEST PUSH1 0x40 MLOAD DUP1 SWAP2 SUB SWAP1 RETURN JUMPDEST PUSH2 0xAE PUSH1 0x4 DUP1 CALLDATASIZE SUB DUP2 ADD SWAP1 PUSH2 0xA9 SWAP2 SWAP1 PUSH2 0x470 JUMP JUMPDEST PUSH2 0xFF JUMP JUMPDEST STOP JUMPDEST PUSH1 0x60 SWAP1 JUMP JUMPDEST PUSH1 0x0 DUP1 PUSH1 0xFF PUSH1 0xF8 SHL ADDRESS DUP5 DUP7 DUP1 MLOAD SWAP1 PUSH1 0x20 ADD KECCAK256 PUSH1 0x40 MLOAD PUSH1 0x20 ADD PUSH2 0xDA SWAP5 SWAP4 SWAP3 SWAP2 SWAP1 PUSH2 0x57E JUMP JUMPDEST PUSH1 0x40 MLOAD PUSH1 0x20 DUP2 DUP4 SUB SUB DUP2 MSTORE SWAP1 PUSH1 0x40 MSTORE DUP1 MLOAD SWAP1 PUSH1 0x20 ADD KECCAK256 SWAP1 POP DUP1 PUSH1 0x0 SHR SWAP2 POP POP SWAP3 SWAP2 POP POP JUMP JUMPDEST PUSH1 0x0 DUP2 PUSH1 0x0 SHL CALLER PUSH1 0x40 MLOAD PUSH2 0x112 SWAP1 PUSH2 0x17A JUMP JUMPDEST PUSH2 0x11C SWAP2 SWAP1 PUSH2 0x455 JUMP JUMPDEST DUP2 SWAP1 PUSH1 0x40 MLOAD DUP1 SWAP2 SUB SWAP1 PUSH1 0x0 CREATE2 SWAP1 POP DUP1 ISZERO DUP1 ISZERO PUSH2 0x13C JUMPI RETURNDATASIZE PUSH1 0x0 DUP1 RETURNDATACOPY RETURNDATASIZE PUSH1 0x0 REVERT JUMPDEST POP SWAP1 POP PUSH32 0x55EA6C6B31543D8E2EC6A72F71A79C0F4B72ED0D4757172B043D8F4F4CD84848 DUP2 PUSH1 0x40 MLOAD PUSH2 0x16E SWAP2 SWAP1 PUSH2 0x455 JUMP JUMPDEST PUSH1 0x40 MLOAD DUP1 SWAP2 SUB SWAP1 LOG1 POP POP JUMP JUMPDEST PUSH2 0x20D DUP1 PUSH2 0x5CD DUP4 CODECOPY ADD SWAP1 JUMP JUMPDEST PUSH1 0x0 DUP2 MLOAD SWAP1 POP SWAP2 SWAP1 POP JUMP JUMPDEST PUSH1 0x0 DUP3 DUP3 MSTORE PUSH1 0x20 DUP3 ADD SWAP1 POP SWAP3 SWAP2 POP POP JUMP JUMPDEST PUSH1 0x0 JUMPDEST DUP4 DUP2 LT ISZERO PUSH2 0x1C1 JUMPI DUP1 DUP3 ADD MLOAD DUP2 DUP5 ADD MSTORE PUSH1 0x20 DUP2 ADD SWAP1 POP PUSH2 0x1A6 JUMP JUMPDEST PUSH1 0x0 DUP5 DUP5 ADD MSTORE POP POP POP POP JUMP JUMPDEST PUSH1 0x0 PUSH1 0x1F NOT PUSH1 0x1F DUP4 ADD AND SWAP1 POP SWAP2 SWAP1 POP JUMP JUMPDEST PUSH1 0x0 PUSH2 0x1E9 DUP3 PUSH2 0x187 JUMP JUMPDEST PUSH2 0x1F3 DUP2 DUP6 PUSH2 0x192 JUMP JUMPDEST SWAP4 POP PUSH2 0x203 DUP2 DUP6 PUSH1 0x20 DUP7 ADD PUSH2 0x1A3 JUMP JUMPDEST PUSH2 0x20C DUP2 PUSH2 0x1CD JUMP JUMPDEST DUP5 ADD SWAP2 POP POP SWAP3 SWAP2 POP POP JUMP JUMPDEST PUSH1 0x0 PUSH1 0x20 DUP3 ADD SWAP1 POP DUP2 DUP2 SUB PUSH1 0x0 DUP4 ADD MSTORE PUSH2 0x231 DUP2 DUP5 PUSH2 0x1DE JUMP JUMPDEST SWAP1 POP SWAP3 SWAP2 POP POP JUMP JUMPDEST PUSH1 0x0 PUSH1 0x40 MLOAD SWAP1 POP SWAP1 JUMP JUMPDEST PUSH1 0x0 DUP1 REVERT JUMPDEST PUSH1 0x0 DUP1 REVERT JUMPDEST PUSH1 0x0 DUP1 REVERT JUMPDEST PUSH1 0x0 DUP1 REVERT JUMPDEST PUSH32 0x4E487B7100000000000000000000000000000000000000000000000000000000 PUSH1 0x0 MSTORE PUSH1 0x41 PUSH1 0x4 MSTORE PUSH1 0x24 PUSH1 0x0 REVERT JUMPDEST PUSH2 0x28F DUP3 PUSH2 0x1CD JUMP JUMPDEST DUP2 ADD DUP2 DUP2 LT PUSH8 0xFFFFFFFFFFFFFFFF DUP3 GT OR ISZERO PUSH2 0x2AE JUMPI PUSH2 0x2AD PUSH2 0x257 JUMP JUMPDEST JUMPDEST DUP1 PUSH1 0x40 MSTORE POP POP POP JUMP JUMPDEST PUSH1 0x0 PUSH2 0x2C1 PUSH2 0x239 JUMP JUMPDEST SWAP1 POP PUSH2 0x2CD DUP3 DUP3 PUSH2 0x286 JUMP JUMPDEST SWAP2 SWAP1 POP JUMP JUMPDEST PUSH1 0x0 PUSH8 0xFFFFFFFFFFFFFFFF DUP3 GT ISZERO PUSH2 0x2ED JUMPI PUSH2 0x2EC PUSH2 0x257 JUMP JUMPDEST JUMPDEST PUSH2 0x2F6 DUP3 PUSH2 0x1CD JUMP JUMPDEST SWAP1 POP PUSH1 0x20 DUP2 ADD SWAP1 POP SWAP2 SWAP1 POP JUMP JUMPDEST DUP3 DUP2 DUP4 CALLDATACOPY PUSH1 0x0 DUP4 DUP4 ADD MSTORE POP POP POP JUMP JUMPDEST PUSH1 0x0 PUSH2 0x325 PUSH2 0x320 DUP5 PUSH2 0x2D2 JUMP JUMPDEST PUSH2 0x2B7 JUMP JUMPDEST SWAP1 POP DUP3 DUP2 MSTORE PUSH1 0x20 DUP2 ADD DUP5 DUP5 DUP5 ADD GT ISZERO PUSH2 0x341 JUMPI PUSH2 0x340 PUSH2 0x252 JUMP JUMPDEST JUMPDEST PUSH2 0x34C DUP5 DUP3 DUP6 PUSH2 0x303 JUMP JUMPDEST POP SWAP4 SWAP3 POP POP POP JUMP JUMPDEST PUSH1 0x0 DUP3 PUSH1 0x1F DUP4 ADD SLT PUSH2 0x369 JUMPI PUSH2 0x368 PUSH2 0x24D JUMP JUMPDEST JUMPDEST DUP2 CALLDATALOAD PUSH2 0x379 DUP5 DUP3 PUSH1 0x20 DUP7 ADD PUSH2 0x312 JUMP JUMPDEST SWAP2 POP POP SWAP3 SWAP2 POP POP JUMP JUMPDEST PUSH1 0x0 DUP2 SWAP1 POP SWAP2 SWAP1 POP JUMP JUMPDEST PUSH2 0x395 DUP2 PUSH2 0x382 JUMP JUMPDEST DUP2 EQ PUSH2 0x3A0 JUMPI PUSH1 0x0 DUP1 REVERT JUMPDEST POP JUMP JUMPDEST PUSH1 0x0 DUP2 CALLDATALOAD SWAP1 POP PUSH2 0x3B2 DUP2 PUSH2 0x38C JUMP JUMPDEST SWAP3 SWAP2 POP POP JUMP JUMPDEST PUSH1 0x0 DUP1 PUSH1 0x40 DUP4 DUP6 SUB SLT ISZERO PUSH2 0x3CF JUMPI PUSH2 0x3CE PUSH2 0x243 JUMP JUMPDEST JUMPDEST PUSH1 0x0 DUP4 ADD CALLDATALOAD PUSH8 0xFFFFFFFFFFFFFFFF DUP2 GT ISZERO PUSH2 0x3ED JUMPI PUSH2 0x3EC PUSH2 0x248 JUMP JUMPDEST JUMPDEST PUSH2 0x3F9 DUP6 DUP3 DUP7 ADD PUSH2 0x354 JUMP JUMPDEST SWAP3 POP POP PUSH1 0x20 PUSH2 0x40A DUP6 DUP3 DUP7 ADD PUSH2 0x3A3 JUMP JUMPDEST SWAP2 POP POP SWAP3 POP SWAP3 SWAP1 POP JUMP JUMPDEST PUSH1 0x0 PUSH20 0xFFFFFFFFFFFFFFFFFFFFFFFFFFFFFFFFFFFFFFFF DUP3 AND SWAP1 POP SWAP2 SWAP1 POP JUMP JUMPDEST PUSH1 0x0 PUSH2 0x43F DUP3 PUSH2 0x414 JUMP JUMPDEST SWAP1 POP SWAP2 SWAP1 POP JUMP JUMPDEST PUSH2 0x44F DUP2 PUSH2 0x434 JUMP JUMPDEST DUP3 MSTORE POP POP JUMP JUMPDEST PUSH1 0x0 PUSH1 0x20 DUP3 ADD SWAP1 POP PUSH2 0x46A PUSH1 0x0 DUP4 ADD DUP5 PUSH2 0x446 JUMP JUMPDEST SWAP3 SWAP2 POP POP JUMP JUMPDEST PUSH1 0x0 PUSH1 0x20 DUP3 DUP5 SUB SLT ISZERO PUSH2 0x486 JUMPI PUSH2 0x485 PUSH2 0x243 JUMP JUMPDEST JUMPDEST PUSH1 0x0 PUSH2 0x494 DUP5 DUP3 DUP6 ADD PUSH2 0x3A3 JUMP JUMPDEST SWAP2 POP POP SWAP3 SWAP2 POP POP JUMP JUMPDEST PUSH1 0x0 PUSH32 0xFF00000000000000000000000000000000000000000000000000000000000000 DUP3 AND SWAP1 POP SWAP2 SWAP1 POP JUMP JUMPDEST PUSH1 0x0 DUP2 SWAP1 POP SWAP2 SWAP1 POP JUMP JUMPDEST PUSH2 0x4E4 PUSH2 0x4DF DUP3 PUSH2 0x49D JUMP JUMPDEST PUSH2 0x4C9 JUMP JUMPDEST DUP3 MSTORE POP POP JUMP JUMPDEST PUSH1 0x0 DUP2 PUSH1 0x60 SHL SWAP1 POP SWAP2 SWAP1 POP JUMP JUMPDEST PUSH1 0x0 PUSH2 0x502 DUP3 PUSH2 0x4EA JUMP JUMPDEST SWAP1 POP SWAP2 SWAP1 POP JUMP JUMPDEST PUSH1 0x0 PUSH2 0x514 DUP3 PUSH2 0x4F7 JUMP JUMPDEST SWAP1 POP SWAP2 SWAP1 POP JUMP JUMPDEST PUSH2 0x52C PUSH2 0x527 DUP3 PUSH2 0x434 JUMP JUMPDEST PUSH2 0x509 JUMP JUMPDEST DUP3 MSTORE POP POP JUMP JUMPDEST PUSH1 0x0 DUP2 SWAP1 POP SWAP2 SWAP1 POP JUMP JUMPDEST PUSH2 0x54D PUSH2 0x548 DUP3 PUSH2 0x382 JUMP JUMPDEST PUSH2 0x532 JUMP JUMPDEST DUP3 MSTORE POP POP JUMP JUMPDEST PUSH1 0x0 DUP2 SWAP1 POP SWAP2 SWAP1 POP JUMP JUMPDEST PUSH1 0x0 DUP2 SWAP1 POP SWAP2 SWAP1 POP JUMP JUMPDEST PUSH2 0x578 PUSH2 0x573 DUP3 PUSH2 0x553 JUMP JUMPDEST PUSH2 0x55D JUMP JUMPDEST DUP3 MSTORE POP POP JUMP JUMPDEST PUSH1 0x0 PUSH2 0x58A DUP3 DUP8 PUSH2 0x4D3 JUMP JUMPDEST PUSH1 0x1 DUP3 ADD SWAP2 POP PUSH2 0x59A DUP3 DUP7 PUSH2 0x51B JUMP JUMPDEST PUSH1 0x14 DUP3 ADD SWAP2 POP PUSH2 0x5AA DUP3 DUP6 PUSH2 0x53C JUMP JUMPDEST PUSH1 0x20 DUP3 ADD SWAP2 POP PUSH2 0x5BA DUP3 DUP5 PUSH2 0x567 JUMP JUMPDEST PUSH1 0x20 DUP3 ADD SWAP2 POP DUP2 SWAP1 POP SWAP6 SWAP5 POP POP POP POP POP JUMP INVALID PUSH1 0x80 PUSH1 0x40 MSTORE CALLVALUE DUP1 ISZERO PUSH2 0x10 JUMPI PUSH1 0x0 DUP1 REVERT JUMPDEST POP PUSH1 0x40 MLOAD PUSH2 0x20D CODESIZE SUB DUP1 PUSH2 0x20D DUP4 CODECOPY DUP2 DUP2 ADD PUSH1 0x40 MSTORE DUP2 ADD SWAP1 PUSH2 0x32 SWAP2 SWAP1 PUSH2 0xDB JUMP JUMPDEST DUP1 PUSH1 0x0 DUP1 PUSH2 0x100 EXP DUP2 SLOAD DUP2 PUSH20 0xFFFFFFFFFFFFFFFFFFFFFFFFFFFFFFFFFFFFFFFF MUL NOT AND SWAP1 DUP4 PUSH20 0xFFFFFFFFFFFFFFFFFFFFFFFFFFFFFFFFFFFFFFFF AND MUL OR SWAP1 SSTORE POP POP PUSH2 0x108 JUMP JUMPDEST PUSH1 0x0 DUP1 REVERT JUMPDEST PUSH1 0x0 PUSH20 0xFFFFFFFFFFFFFFFFFFFFFFFFFFFFFFFFFFFFFFFF DUP3 AND SWAP1 POP SWAP2 SWAP1 POP JUMP JUMPDEST PUSH1 0x0 PUSH2 0xA8 DUP3 PUSH2 0x7D JUMP JUMPDEST SWAP1 POP SWAP2 SWAP1 POP JUMP JUMPDEST PUSH2 0xB8 DUP2 PUSH2 0x9D JUMP JUMPDEST DUP2 EQ PUSH2 0xC3 JUMPI PUSH1 0x0 DUP1 REVERT JUMPDEST POP JUMP JUMPDEST PUSH1 0x0 DUP2 MLOAD SWAP1 POP PUSH2 0xD5 DUP2 PUSH2 0xAF JUMP JUMPDEST SWAP3 SWAP2 POP POP JUMP JUMPDEST PUSH1 0x0 PUSH1 0x20 DUP3 DUP5 SUB SLT ISZERO PUSH2 0xF1 JUMPI PUSH2 0xF0 PUSH2 0x78 JUMP JUMPDEST JUMPDEST PUSH1 0x0 PUSH2 0xFF DUP5 DUP3 DUP6 ADD PUSH2 0xC6 JUMP JUMPDEST SWAP2 POP POP SWAP3 SWAP2 POP POP JUMP JUMPDEST PUSH1 0xF7 DUP1 PUSH2 0x116 PUSH1 0x0 CODECOPY PUSH1 0x0 RETURN INVALID PUSH1 0x80 PUSH1 0x40 MSTORE CALLVALUE DUP1 ISZERO PUSH1 0xF JUMPI PUSH1 0x0 DUP1 REVERT JUMPDEST POP PUSH1 0x4 CALLDATASIZE LT PUSH1 0x28 JUMPI PUSH1 0x0 CALLDATALOAD PUSH1 0xE0 SHR DUP1 PUSH4 0x8DA5CB5B EQ PUSH1 0x2D JUMPI JUMPDEST PUSH1 0x0 DUP1 REVERT JUMPDEST PUSH1 0x33 PUSH1 0x47 JUMP JUMPDEST PUSH1 0x40 MLOAD PUSH1 0x3E SWAP2 SWAP1 PUSH1 0xA8 JUMP JUMPDEST PUSH1 0x40 MLOAD DUP1 SWAP2 SUB SWAP1 RETURN JUMPDEST PUSH1 0x0 DUP1 SLOAD SWAP1 PUSH2 0x100 EXP SWAP1 DIV PUSH20 0xFFFFFFFFFFFFFFFFFFFFFFFFFFFFFFFFFFFFFFFF AND DUP2 JUMP JUMPDEST PUSH1 0x0 PUSH20 0xFFFFFFFFFFFFFFFFFFFFFFFFFFFFFFFFFFFFFFFF DUP3 AND SWAP1 POP SWAP2 SWAP1 POP JUMP JUMPDEST PUSH1 0x0 PUSH1 0x94 DUP3 PUSH1 0x6B JUMP JUMPDEST SWAP1 POP SWAP2 SWAP1 POP JUMP JUMPDEST PUSH1 0xA2 DUP2 PUSH1 0x8B JUMP JUMPDEST DUP3 MSTORE POP POP JUMP JUMPDEST PUSH1 0x0 PUSH1 0x20 DUP3 ADD SWAP1 POP PUSH1 0xBB PUSH1 0x0 DUP4 ADD DUP5 PUSH1 0x9B JUMP JUMPDEST SWAP3 SWAP2 POP POP JUMP INVALID LOG2 PUSH5 0x6970667358 0x22 SLT KECCAK256 0x1F PUSH25 0x8D0A99813AABA8E920E585F01D71DFAC15F755CC40A0F64DE0 0x23 DUP2 0xD5 0x4A SIGNEXTEND PUSH5 0x736F6C6343 STOP ADDMOD GT STOP CALLER LOG2 PUSH5 0x6970667358 0x22 SLT KECCAK256 RETURN 0xA6 TIMESTAMP 0x4A DUP8 PUSH5 0xF5833F8C71 LOG4 0x2F 0xB5 ADD RETURNDATACOPY 0xAF ADDMOD LOG1 0xD4 BYTE PC DUP12 SWAP9 0xBC PUSH22 0x3B4298C224FB64736F6C634300081100330000000000 "
				},
				"gasEstimates": {
					"creation": {
						"codeDepositCost": "412600",
						"executionCost": "449",
						"totalCost": "413049"
					},
					"external": {
						"deploy(uint256)": "infinite",
						"getAddress(bytes,uint256)": "infinite",
						"getBytecode()": "infinite"
					}
				},
				"methodIdentifiers": {
					"deploy(uint256)": "a5e38751",
					"getAddress(bytes,uint256)": "94ca2cb5",
					"getBytecode()": "52c7420d"
				}
			},
			"storageLayout": {
				"storage": [],
				"types": null
			},
			"userdoc": {
				"kind": "user",
				"methods": {},
				"version": 1
			}
		}
	}
}