{
	"contracts/CallOtherContracts.sol": {
		"CallTestContract": {
			"abi": [
				{
					"inputs": [
						{
							"internalType": "contract TestContract",
							"name": "_test",
							"type": "address"
						}
					],
					"name": "getX",
					"outputs": [
						{
							"internalType": "uint256",
							"name": "x",
							"type": "uint256"
						}
					],
					"stateMutability": "view",
					"type": "function"
				},
				{
					"inputs": [
						{
							"internalType": "contract TestContract",
							"name": "_test",
							"type": "address"
						},
						{
							"internalType": "uint256",
							"name": "_x",
							"type": "uint256"
						}
					],
					"name": "setX",
					"outputs": [],
					"stateMutability": "nonpayable",
					"type": "function"
				},
				{
					"inputs": [
						{
							"internalType": "address",
							"name": "_test",
							"type": "address"
						},
						{
							"internalType": "uint256",
							"name": "_x",
							"type": "uint256"
						}
					],
					"name": "setXAndSendEther",
					"outputs": [],
					"stateMutability": "payable",
					"type": "function"
				}
			],
			"devdoc": {
				"kind": "dev",
				"methods": {},
				"version": 1
			},
			"evm": {
				"assembly": "    /* \"contracts/CallOtherContracts.sol\":60:442  contract CallTestContract {\r... */\n  mstore(0x40, 0x80)\n  callvalue\n  dup1\n  iszero\n  tag_1\n  jumpi\n  0x00\n  dup1\n  revert\ntag_1:\n  pop\n  dataSize(sub_0)\n  dup1\n  dataOffset(sub_0)\n  0x00\n  codecopy\n  0x00\n  return\nstop\n\nsub_0: assembly {\n        /* \"contracts/CallOtherContracts.sol\":60:442  contract CallTestContract {\r... */\n      mstore(0x40, 0x80)\n      jumpi(tag_1, lt(calldatasize, 0x04))\n      shr(0xe0, calldataload(0x00))\n      dup1\n      0x27a9f474\n      eq\n      tag_2\n      jumpi\n      dup1\n      0x4a2ad99f\n      eq\n      tag_3\n      jumpi\n      dup1\n      0x7c94c8ca\n      eq\n      tag_4\n      jumpi\n    tag_1:\n      0x00\n      dup1\n      revert\n        /* \"contracts/CallOtherContracts.sol\":293:439  function setXAndSendEther(address _test, uint _x) external payable {\r... */\n    tag_2:\n      tag_5\n      0x04\n      dup1\n      calldatasize\n      sub\n      dup2\n      add\n      swap1\n      tag_6\n      swap2\n      swap1\n      tag_7\n      jump\t// in\n    tag_6:\n      tag_8\n      jump\t// in\n    tag_5:\n      stop\n        /* \"contracts/CallOtherContracts.sol\":93:177  function setX(TestContract _test, uint _x) external {\r... */\n    tag_3:\n      callvalue\n      dup1\n      iszero\n      tag_9\n      jumpi\n      0x00\n      dup1\n      revert\n    tag_9:\n      pop\n      tag_10\n      0x04\n      dup1\n      calldatasize\n      sub\n      dup2\n      add\n      swap1\n      tag_11\n      swap2\n      swap1\n      tag_12\n      jump\t// in\n    tag_11:\n      tag_13\n      jump\t// in\n    tag_10:\n      stop\n        /* \"contracts/CallOtherContracts.sol\":185:285  function getX(TestContract _test) external view returns (uint x) {\r... */\n    tag_4:\n      callvalue\n      dup1\n      iszero\n      tag_14\n      jumpi\n      0x00\n      dup1\n      revert\n    tag_14:\n      pop\n      tag_15\n      0x04\n      dup1\n      calldatasize\n      sub\n      dup2\n      add\n      swap1\n      tag_16\n      swap2\n      swap1\n      tag_17\n      jump\t// in\n    tag_16:\n      tag_18\n      jump\t// in\n    tag_15:\n      mload(0x40)\n      tag_19\n      swap2\n      swap1\n      tag_20\n      jump\t// in\n    tag_19:\n      mload(0x40)\n      dup1\n      swap2\n      sub\n      swap1\n      return\n        /* \"contracts/CallOtherContracts.sol\":293:439  function setXAndSendEther(address _test, uint _x) external payable {\r... */\n    tag_8:\n        /* \"contracts/CallOtherContracts.sol\":383:388  _test */\n      dup2\n        /* \"contracts/CallOtherContracts.sol\":370:409  TestContract(_test).setXandReceiveEther */\n      0xffffffffffffffffffffffffffffffffffffffff\n      and\n      0x02f42be9\n        /* \"contracts/CallOtherContracts.sol\":417:426  msg.value */\n      callvalue\n        /* \"contracts/CallOtherContracts.sol\":428:430  _x */\n      dup4\n        /* \"contracts/CallOtherContracts.sol\":370:431  TestContract(_test).setXandReceiveEther{value: msg.value}(_x) */\n      mload(0x40)\n      dup4\n      0xffffffff\n      and\n      0xe0\n      shl\n      dup2\n      mstore\n      0x04\n      add\n      tag_22\n      swap2\n      swap1\n      tag_20\n      jump\t// in\n    tag_22:\n      0x00\n      mload(0x40)\n      dup1\n      dup4\n      sub\n      dup2\n      dup6\n      dup9\n      dup1\n      extcodesize\n      iszero\n      dup1\n      iszero\n      tag_23\n      jumpi\n      0x00\n      dup1\n      revert\n    tag_23:\n      pop\n      gas\n      call\n      iszero\n      dup1\n      iszero\n      tag_25\n      jumpi\n      returndatasize\n      0x00\n      dup1\n      returndatacopy\n      revert(0x00, returndatasize)\n    tag_25:\n      pop\n      pop\n      pop\n      pop\n      pop\n        /* \"contracts/CallOtherContracts.sol\":293:439  function setXAndSendEther(address _test, uint _x) external payable {\r... */\n      pop\n      pop\n      jump\t// out\n        /* \"contracts/CallOtherContracts.sol\":93:177  function setX(TestContract _test, uint _x) external {\r... */\n    tag_13:\n        /* \"contracts/CallOtherContracts.sol\":155:160  _test */\n      dup2\n        /* \"contracts/CallOtherContracts.sol\":155:165  _test.setX */\n      0xffffffffffffffffffffffffffffffffffffffff\n      and\n      0x4018d9aa\n        /* \"contracts/CallOtherContracts.sol\":166:168  _x */\n      dup3\n        /* \"contracts/CallOtherContracts.sol\":155:169  _test.setX(_x) */\n      mload(0x40)\n      dup3\n      0xffffffff\n      and\n      0xe0\n      shl\n      dup2\n      mstore\n      0x04\n      add\n      tag_27\n      swap2\n      swap1\n      tag_20\n      jump\t// in\n    tag_27:\n      0x00\n      mload(0x40)\n      dup1\n      dup4\n      sub\n      dup2\n      0x00\n      dup8\n      dup1\n      extcodesize\n      iszero\n      dup1\n      iszero\n      tag_28\n      jumpi\n      0x00\n      dup1\n      revert\n    tag_28:\n      pop\n      gas\n      call\n      iszero\n      dup1\n      iszero\n      tag_30\n      jumpi\n      returndatasize\n      0x00\n      dup1\n      returndatacopy\n      revert(0x00, returndatasize)\n    tag_30:\n      pop\n      pop\n      pop\n      pop\n        /* \"contracts/CallOtherContracts.sol\":93:177  function setX(TestContract _test, uint _x) external {\r... */\n      pop\n      pop\n      jump\t// out\n        /* \"contracts/CallOtherContracts.sol\":185:285  function getX(TestContract _test) external view returns (uint x) {\r... */\n    tag_18:\n        /* \"contracts/CallOtherContracts.sol\":242:248  uint x */\n      0x00\n        /* \"contracts/CallOtherContracts.sol\":265:270  _test */\n      dup2\n        /* \"contracts/CallOtherContracts.sol\":265:275  _test.getX */\n      0xffffffffffffffffffffffffffffffffffffffff\n      and\n      0x5197c7aa\n        /* \"contracts/CallOtherContracts.sol\":265:277  _test.getX() */\n      mload(0x40)\n      dup2\n      0xffffffff\n      and\n      0xe0\n      shl\n      dup2\n      mstore\n      0x04\n      add\n      0x20\n      mload(0x40)\n      dup1\n      dup4\n      sub\n      dup2\n      dup7\n      dup1\n      extcodesize\n      iszero\n      dup1\n      iszero\n      tag_32\n      jumpi\n      0x00\n      dup1\n      revert\n    tag_32:\n      pop\n      gas\n      staticcall\n      iszero\n      dup1\n      iszero\n      tag_34\n      jumpi\n      returndatasize\n      0x00\n      dup1\n      returndatacopy\n      revert(0x00, returndatasize)\n    tag_34:\n      pop\n      pop\n      pop\n      pop\n      mload(0x40)\n      returndatasize\n      not(0x1f)\n      0x1f\n      dup3\n      add\n      and\n      dup3\n      add\n      dup1\n      0x40\n      mstore\n      pop\n      dup2\n      add\n      swap1\n      tag_35\n      swap2\n      swap1\n      tag_36\n      jump\t// in\n    tag_35:\n        /* \"contracts/CallOtherContracts.sol\":261:277  x = _test.getX() */\n      swap1\n      pop\n        /* \"contracts/CallOtherContracts.sol\":185:285  function getX(TestContract _test) external view returns (uint x) {\r... */\n      swap2\n      swap1\n      pop\n      jump\t// out\n        /* \"#utility.yul\":7:146   */\n    tag_38:\n        /* \"#utility.yul\":53:58   */\n      0x00\n        /* \"#utility.yul\":91:97   */\n      dup2\n        /* \"#utility.yul\":78:98   */\n      calldataload\n        /* \"#utility.yul\":69:98   */\n      swap1\n      pop\n        /* \"#utility.yul\":107:140   */\n      tag_40\n        /* \"#utility.yul\":134:139   */\n      dup2\n        /* \"#utility.yul\":107:140   */\n      tag_41\n      jump\t// in\n    tag_40:\n        /* \"#utility.yul\":7:146   */\n      swap3\n      swap2\n      pop\n      pop\n      jump\t// out\n        /* \"#utility.yul\":152:331   */\n    tag_42:\n        /* \"#utility.yul\":218:223   */\n      0x00\n        /* \"#utility.yul\":256:262   */\n      dup2\n        /* \"#utility.yul\":243:263   */\n      calldataload\n        /* \"#utility.yul\":234:263   */\n      swap1\n      pop\n        /* \"#utility.yul\":272:325   */\n      tag_44\n        /* \"#utility.yul\":319:324   */\n      dup2\n        /* \"#utility.yul\":272:325   */\n      tag_45\n      jump\t// in\n    tag_44:\n        /* \"#utility.yul\":152:331   */\n      swap3\n      swap2\n      pop\n      pop\n      jump\t// out\n        /* \"#utility.yul\":337:476   */\n    tag_46:\n        /* \"#utility.yul\":383:388   */\n      0x00\n        /* \"#utility.yul\":421:427   */\n      dup2\n        /* \"#utility.yul\":408:428   */\n      calldataload\n        /* \"#utility.yul\":399:428   */\n      swap1\n      pop\n        /* \"#utility.yul\":437:470   */\n      tag_48\n        /* \"#utility.yul\":464:469   */\n      dup2\n        /* \"#utility.yul\":437:470   */\n      tag_49\n      jump\t// in\n    tag_48:\n        /* \"#utility.yul\":337:476   */\n      swap3\n      swap2\n      pop\n      pop\n      jump\t// out\n        /* \"#utility.yul\":482:625   */\n    tag_50:\n        /* \"#utility.yul\":539:544   */\n      0x00\n        /* \"#utility.yul\":570:576   */\n      dup2\n        /* \"#utility.yul\":564:577   */\n      mload\n        /* \"#utility.yul\":555:577   */\n      swap1\n      pop\n        /* \"#utility.yul\":586:619   */\n      tag_52\n        /* \"#utility.yul\":613:618   */\n      dup2\n        /* \"#utility.yul\":586:619   */\n      tag_49\n      jump\t// in\n    tag_52:\n        /* \"#utility.yul\":482:625   */\n      swap3\n      swap2\n      pop\n      pop\n      jump\t// out\n        /* \"#utility.yul\":631:1105   */\n    tag_7:\n        /* \"#utility.yul\":699:705   */\n      0x00\n        /* \"#utility.yul\":707:713   */\n      dup1\n        /* \"#utility.yul\":756:758   */\n      0x40\n        /* \"#utility.yul\":744:753   */\n      dup4\n        /* \"#utility.yul\":735:742   */\n      dup6\n        /* \"#utility.yul\":731:754   */\n      sub\n        /* \"#utility.yul\":727:759   */\n      slt\n        /* \"#utility.yul\":724:843   */\n      iszero\n      tag_54\n      jumpi\n        /* \"#utility.yul\":762:841   */\n      tag_55\n      tag_56\n      jump\t// in\n    tag_55:\n        /* \"#utility.yul\":724:843   */\n    tag_54:\n        /* \"#utility.yul\":882:883   */\n      0x00\n        /* \"#utility.yul\":907:960   */\n      tag_57\n        /* \"#utility.yul\":952:959   */\n      dup6\n        /* \"#utility.yul\":943:949   */\n      dup3\n        /* \"#utility.yul\":932:941   */\n      dup7\n        /* \"#utility.yul\":928:950   */\n      add\n        /* \"#utility.yul\":907:960   */\n      tag_38\n      jump\t// in\n    tag_57:\n        /* \"#utility.yul\":897:960   */\n      swap3\n      pop\n        /* \"#utility.yul\":853:970   */\n      pop\n        /* \"#utility.yul\":1009:1011   */\n      0x20\n        /* \"#utility.yul\":1035:1088   */\n      tag_58\n        /* \"#utility.yul\":1080:1087   */\n      dup6\n        /* \"#utility.yul\":1071:1077   */\n      dup3\n        /* \"#utility.yul\":1060:1069   */\n      dup7\n        /* \"#utility.yul\":1056:1078   */\n      add\n        /* \"#utility.yul\":1035:1088   */\n      tag_46\n      jump\t// in\n    tag_58:\n        /* \"#utility.yul\":1025:1088   */\n      swap2\n      pop\n        /* \"#utility.yul\":980:1098   */\n      pop\n        /* \"#utility.yul\":631:1105   */\n      swap3\n      pop\n      swap3\n      swap1\n      pop\n      jump\t// out\n        /* \"#utility.yul\":1111:1480   */\n    tag_17:\n        /* \"#utility.yul\":1190:1196   */\n      0x00\n        /* \"#utility.yul\":1239:1241   */\n      0x20\n        /* \"#utility.yul\":1227:1236   */\n      dup3\n        /* \"#utility.yul\":1218:1225   */\n      dup5\n        /* \"#utility.yul\":1214:1237   */\n      sub\n        /* \"#utility.yul\":1210:1242   */\n      slt\n        /* \"#utility.yul\":1207:1326   */\n      iszero\n      tag_60\n      jumpi\n        /* \"#utility.yul\":1245:1324   */\n      tag_61\n      tag_56\n      jump\t// in\n    tag_61:\n        /* \"#utility.yul\":1207:1326   */\n    tag_60:\n        /* \"#utility.yul\":1365:1366   */\n      0x00\n        /* \"#utility.yul\":1390:1463   */\n      tag_62\n        /* \"#utility.yul\":1455:1462   */\n      dup5\n        /* \"#utility.yul\":1446:1452   */\n      dup3\n        /* \"#utility.yul\":1435:1444   */\n      dup6\n        /* \"#utility.yul\":1431:1453   */\n      add\n        /* \"#utility.yul\":1390:1463   */\n      tag_42\n      jump\t// in\n    tag_62:\n        /* \"#utility.yul\":1380:1463   */\n      swap2\n      pop\n        /* \"#utility.yul\":1336:1473   */\n      pop\n        /* \"#utility.yul\":1111:1480   */\n      swap3\n      swap2\n      pop\n      pop\n      jump\t// out\n        /* \"#utility.yul\":1486:2000   */\n    tag_12:\n        /* \"#utility.yul\":1574:1580   */\n      0x00\n        /* \"#utility.yul\":1582:1588   */\n      dup1\n        /* \"#utility.yul\":1631:1633   */\n      0x40\n        /* \"#utility.yul\":1619:1628   */\n      dup4\n        /* \"#utility.yul\":1610:1617   */\n      dup6\n        /* \"#utility.yul\":1606:1629   */\n      sub\n        /* \"#utility.yul\":1602:1634   */\n      slt\n        /* \"#utility.yul\":1599:1718   */\n      iszero\n      tag_64\n      jumpi\n        /* \"#utility.yul\":1637:1716   */\n      tag_65\n      tag_56\n      jump\t// in\n    tag_65:\n        /* \"#utility.yul\":1599:1718   */\n    tag_64:\n        /* \"#utility.yul\":1757:1758   */\n      0x00\n        /* \"#utility.yul\":1782:1855   */\n      tag_66\n        /* \"#utility.yul\":1847:1854   */\n      dup6\n        /* \"#utility.yul\":1838:1844   */\n      dup3\n        /* \"#utility.yul\":1827:1836   */\n      dup7\n        /* \"#utility.yul\":1823:1845   */\n      add\n        /* \"#utility.yul\":1782:1855   */\n      tag_42\n      jump\t// in\n    tag_66:\n        /* \"#utility.yul\":1772:1855   */\n      swap3\n      pop\n        /* \"#utility.yul\":1728:1865   */\n      pop\n        /* \"#utility.yul\":1904:1906   */\n      0x20\n        /* \"#utility.yul\":1930:1983   */\n      tag_67\n        /* \"#utility.yul\":1975:1982   */\n      dup6\n        /* \"#utility.yul\":1966:1972   */\n      dup3\n        /* \"#utility.yul\":1955:1964   */\n      dup7\n        /* \"#utility.yul\":1951:1973   */\n      add\n        /* \"#utility.yul\":1930:1983   */\n      tag_46\n      jump\t// in\n    tag_67:\n        /* \"#utility.yul\":1920:1983   */\n      swap2\n      pop\n        /* \"#utility.yul\":1875:1993   */\n      pop\n        /* \"#utility.yul\":1486:2000   */\n      swap3\n      pop\n      swap3\n      swap1\n      pop\n      jump\t// out\n        /* \"#utility.yul\":2006:2357   */\n    tag_36:\n        /* \"#utility.yul\":2076:2082   */\n      0x00\n        /* \"#utility.yul\":2125:2127   */\n      0x20\n        /* \"#utility.yul\":2113:2122   */\n      dup3\n        /* \"#utility.yul\":2104:2111   */\n      dup5\n        /* \"#utility.yul\":2100:2123   */\n      sub\n        /* \"#utility.yul\":2096:2128   */\n      slt\n        /* \"#utility.yul\":2093:2212   */\n      iszero\n      tag_69\n      jumpi\n        /* \"#utility.yul\":2131:2210   */\n      tag_70\n      tag_56\n      jump\t// in\n    tag_70:\n        /* \"#utility.yul\":2093:2212   */\n    tag_69:\n        /* \"#utility.yul\":2251:2252   */\n      0x00\n        /* \"#utility.yul\":2276:2340   */\n      tag_71\n        /* \"#utility.yul\":2332:2339   */\n      dup5\n        /* \"#utility.yul\":2323:2329   */\n      dup3\n        /* \"#utility.yul\":2312:2321   */\n      dup6\n        /* \"#utility.yul\":2308:2330   */\n      add\n        /* \"#utility.yul\":2276:2340   */\n      tag_50\n      jump\t// in\n    tag_71:\n        /* \"#utility.yul\":2266:2340   */\n      swap2\n      pop\n        /* \"#utility.yul\":2222:2350   */\n      pop\n        /* \"#utility.yul\":2006:2357   */\n      swap3\n      swap2\n      pop\n      pop\n      jump\t// out\n        /* \"#utility.yul\":2363:2481   */\n    tag_72:\n        /* \"#utility.yul\":2450:2474   */\n      tag_74\n        /* \"#utility.yul\":2468:2473   */\n      dup2\n        /* \"#utility.yul\":2450:2474   */\n      tag_75\n      jump\t// in\n    tag_74:\n        /* \"#utility.yul\":2445:2448   */\n      dup3\n        /* \"#utility.yul\":2438:2475   */\n      mstore\n        /* \"#utility.yul\":2363:2481   */\n      pop\n      pop\n      jump\t// out\n        /* \"#utility.yul\":2487:2709   */\n    tag_20:\n        /* \"#utility.yul\":2580:2584   */\n      0x00\n        /* \"#utility.yul\":2618:2620   */\n      0x20\n        /* \"#utility.yul\":2607:2616   */\n      dup3\n        /* \"#utility.yul\":2603:2621   */\n      add\n        /* \"#utility.yul\":2595:2621   */\n      swap1\n      pop\n        /* \"#utility.yul\":2631:2702   */\n      tag_77\n        /* \"#utility.yul\":2699:2700   */\n      0x00\n        /* \"#utility.yul\":2688:2697   */\n      dup4\n        /* \"#utility.yul\":2684:2701   */\n      add\n        /* \"#utility.yul\":2675:2681   */\n      dup5\n        /* \"#utility.yul\":2631:2702   */\n      tag_72\n      jump\t// in\n    tag_77:\n        /* \"#utility.yul\":2487:2709   */\n      swap3\n      swap2\n      pop\n      pop\n      jump\t// out\n        /* \"#utility.yul\":2796:2892   */\n    tag_80:\n        /* \"#utility.yul\":2833:2840   */\n      0x00\n        /* \"#utility.yul\":2862:2886   */\n      tag_82\n        /* \"#utility.yul\":2880:2885   */\n      dup3\n        /* \"#utility.yul\":2862:2886   */\n      tag_83\n      jump\t// in\n    tag_82:\n        /* \"#utility.yul\":2851:2886   */\n      swap1\n      pop\n        /* \"#utility.yul\":2796:2892   */\n      swap2\n      swap1\n      pop\n      jump\t// out\n        /* \"#utility.yul\":2898:3014   */\n    tag_84:\n        /* \"#utility.yul\":2955:2962   */\n      0x00\n        /* \"#utility.yul\":2984:3008   */\n      tag_86\n        /* \"#utility.yul\":3002:3007   */\n      dup3\n        /* \"#utility.yul\":2984:3008   */\n      tag_80\n      jump\t// in\n    tag_86:\n        /* \"#utility.yul\":2973:3008   */\n      swap1\n      pop\n        /* \"#utility.yul\":2898:3014   */\n      swap2\n      swap1\n      pop\n      jump\t// out\n        /* \"#utility.yul\":3020:3146   */\n    tag_83:\n        /* \"#utility.yul\":3057:3064   */\n      0x00\n        /* \"#utility.yul\":3097:3139   */\n      0xffffffffffffffffffffffffffffffffffffffff\n        /* \"#utility.yul\":3090:3095   */\n      dup3\n        /* \"#utility.yul\":3086:3140   */\n      and\n        /* \"#utility.yul\":3075:3140   */\n      swap1\n      pop\n        /* \"#utility.yul\":3020:3146   */\n      swap2\n      swap1\n      pop\n      jump\t// out\n        /* \"#utility.yul\":3152:3229   */\n    tag_75:\n        /* \"#utility.yul\":3189:3196   */\n      0x00\n        /* \"#utility.yul\":3218:3223   */\n      dup2\n        /* \"#utility.yul\":3207:3223   */\n      swap1\n      pop\n        /* \"#utility.yul\":3152:3229   */\n      swap2\n      swap1\n      pop\n      jump\t// out\n        /* \"#utility.yul\":3358:3475   */\n    tag_56:\n        /* \"#utility.yul\":3467:3468   */\n      0x00\n        /* \"#utility.yul\":3464:3465   */\n      dup1\n        /* \"#utility.yul\":3457:3469   */\n      revert\n        /* \"#utility.yul\":3481:3603   */\n    tag_41:\n        /* \"#utility.yul\":3554:3578   */\n      tag_93\n        /* \"#utility.yul\":3572:3577   */\n      dup2\n        /* \"#utility.yul\":3554:3578   */\n      tag_80\n      jump\t// in\n    tag_93:\n        /* \"#utility.yul\":3547:3552   */\n      dup2\n        /* \"#utility.yul\":3544:3579   */\n      eq\n        /* \"#utility.yul\":3534:3597   */\n      tag_94\n      jumpi\n        /* \"#utility.yul\":3593:3594   */\n      0x00\n        /* \"#utility.yul\":3590:3591   */\n      dup1\n        /* \"#utility.yul\":3583:3595   */\n      revert\n        /* \"#utility.yul\":3534:3597   */\n    tag_94:\n        /* \"#utility.yul\":3481:3603   */\n      pop\n      jump\t// out\n        /* \"#utility.yul\":3609:3771   */\n    tag_45:\n        /* \"#utility.yul\":3702:3746   */\n      tag_96\n        /* \"#utility.yul\":3740:3745   */\n      dup2\n        /* \"#utility.yul\":3702:3746   */\n      tag_84\n      jump\t// in\n    tag_96:\n        /* \"#utility.yul\":3695:3700   */\n      dup2\n        /* \"#utility.yul\":3692:3747   */\n      eq\n        /* \"#utility.yul\":3682:3765   */\n      tag_97\n      jumpi\n        /* \"#utility.yul\":3761:3762   */\n      0x00\n        /* \"#utility.yul\":3758:3759   */\n      dup1\n        /* \"#utility.yul\":3751:3763   */\n      revert\n        /* \"#utility.yul\":3682:3765   */\n    tag_97:\n        /* \"#utility.yul\":3609:3771   */\n      pop\n      jump\t// out\n        /* \"#utility.yul\":3777:3899   */\n    tag_49:\n        /* \"#utility.yul\":3850:3874   */\n      tag_99\n        /* \"#utility.yul\":3868:3873   */\n      dup2\n        /* \"#utility.yul\":3850:3874   */\n      tag_75\n      jump\t// in\n    tag_99:\n        /* \"#utility.yul\":3843:3848   */\n      dup2\n        /* \"#utility.yul\":3840:3875   */\n      eq\n        /* \"#utility.yul\":3830:3893   */\n      tag_100\n      jumpi\n        /* \"#utility.yul\":3889:3890   */\n      0x00\n        /* \"#utility.yul\":3886:3887   */\n      dup1\n        /* \"#utility.yul\":3879:3891   */\n      revert\n        /* \"#utility.yul\":3830:3893   */\n    tag_100:\n        /* \"#utility.yul\":3777:3899   */\n      pop\n      jump\t// out\n\n    auxdata: 0xa26469706673582212202b45d67fa7de7704b20efc0735c5b3648ba358327643cfa3abe6ad2abcd1d50164736f6c63430008070033\n}\n",
				"bytecode": {
					"linkReferences": {},
					"object": "608060405234801561001057600080fd5b50610447806100206000396000f3fe6080604052600436106100345760003560e01c806327a9f474146100395780634a2ad99f146100555780637c94c8ca1461007e575b600080fd5b610053600480360381019061004e9190610275565b6100bb565b005b34801561006157600080fd5b5061007c600480360381019061007791906102e2565b61012b565b005b34801561008a57600080fd5b506100a560048036038101906100a091906102b5565b61019a565b6040516100b2919061035e565b60405180910390f35b8173ffffffffffffffffffffffffffffffffffffffff166302f42be934836040518363ffffffff1660e01b81526004016100f5919061035e565b6000604051808303818588803b15801561010e57600080fd5b505af1158015610122573d6000803e3d6000fd5b50505050505050565b8173ffffffffffffffffffffffffffffffffffffffff16634018d9aa826040518263ffffffff1660e01b8152600401610164919061035e565b600060405180830381600087803b15801561017e57600080fd5b505af1158015610192573d6000803e3d6000fd5b505050505050565b60008173ffffffffffffffffffffffffffffffffffffffff16635197c7aa6040518163ffffffff1660e01b815260040160206040518083038186803b1580156101e257600080fd5b505afa1580156101f6573d6000803e3d6000fd5b505050506040513d601f19601f8201168201806040525081019061021a9190610322565b9050919050565b600081359050610230816103cc565b92915050565b600081359050610245816103e3565b92915050565b60008135905061025a816103fa565b92915050565b60008151905061026f816103fa565b92915050565b6000806040838503121561028c5761028b6103c7565b5b600061029a85828601610221565b92505060206102ab8582860161024b565b9150509250929050565b6000602082840312156102cb576102ca6103c7565b5b60006102d984828501610236565b91505092915050565b600080604083850312156102f9576102f86103c7565b5b600061030785828601610236565b92505060206103188582860161024b565b9150509250929050565b600060208284031215610338576103376103c7565b5b600061034684828501610260565b91505092915050565b610358816103bd565b82525050565b6000602082019050610373600083018461034f565b92915050565b60006103848261039d565b9050919050565b600061039682610379565b9050919050565b600073ffffffffffffffffffffffffffffffffffffffff82169050919050565b6000819050919050565b600080fd5b6103d581610379565b81146103e057600080fd5b50565b6103ec8161038b565b81146103f757600080fd5b50565b610403816103bd565b811461040e57600080fd5b5056fea26469706673582212202b45d67fa7de7704b20efc0735c5b3648ba358327643cfa3abe6ad2abcd1d50164736f6c63430008070033",
					"opcodes": "PUSH1 0x80 PUSH1 0x40 MSTORE CALLVALUE DUP1 ISZERO PUSH2 0x10 JUMPI PUSH1 0x0 DUP1 REVERT JUMPDEST POP PUSH2 0x447 DUP1 PUSH2 0x20 PUSH1 0x0 CODECOPY PUSH1 0x0 RETURN INVALID PUSH1 0x80 PUSH1 0x40 MSTORE PUSH1 0x4 CALLDATASIZE LT PUSH2 0x34 JUMPI PUSH1 0x0 CALLDATALOAD PUSH1 0xE0 SHR DUP1 PUSH4 0x27A9F474 EQ PUSH2 0x39 JUMPI DUP1 PUSH4 0x4A2AD99F EQ PUSH2 0x55 JUMPI DUP1 PUSH4 0x7C94C8CA EQ PUSH2 0x7E JUMPI JUMPDEST PUSH1 0x0 DUP1 REVERT JUMPDEST PUSH2 0x53 PUSH1 0x4 DUP1 CALLDATASIZE SUB DUP2 ADD SWAP1 PUSH2 0x4E SWAP2 SWAP1 PUSH2 0x275 JUMP JUMPDEST PUSH2 0xBB JUMP JUMPDEST STOP JUMPDEST CALLVALUE DUP1 ISZERO PUSH2 0x61 JUMPI PUSH1 0x0 DUP1 REVERT JUMPDEST POP PUSH2 0x7C PUSH1 0x4 DUP1 CALLDATASIZE SUB DUP2 ADD SWAP1 PUSH2 0x77 SWAP2 SWAP1 PUSH2 0x2E2 JUMP JUMPDEST PUSH2 0x12B JUMP JUMPDEST STOP JUMPDEST CALLVALUE DUP1 ISZERO PUSH2 0x8A JUMPI PUSH1 0x0 DUP1 REVERT JUMPDEST POP PUSH2 0xA5 PUSH1 0x4 DUP1 CALLDATASIZE SUB DUP2 ADD SWAP1 PUSH2 0xA0 SWAP2 SWAP1 PUSH2 0x2B5 JUMP JUMPDEST PUSH2 0x19A JUMP JUMPDEST PUSH1 0x40 MLOAD PUSH2 0xB2 SWAP2 SWAP1 PUSH2 0x35E JUMP JUMPDEST PUSH1 0x40 MLOAD DUP1 SWAP2 SUB SWAP1 RETURN JUMPDEST DUP2 PUSH20 0xFFFFFFFFFFFFFFFFFFFFFFFFFFFFFFFFFFFFFFFF AND PUSH4 0x2F42BE9 CALLVALUE DUP4 PUSH1 0x40 MLOAD DUP4 PUSH4 0xFFFFFFFF AND PUSH1 0xE0 SHL DUP2 MSTORE PUSH1 0x4 ADD PUSH2 0xF5 SWAP2 SWAP1 PUSH2 0x35E JUMP JUMPDEST PUSH1 0x0 PUSH1 0x40 MLOAD DUP1 DUP4 SUB DUP2 DUP6 DUP9 DUP1 EXTCODESIZE ISZERO DUP1 ISZERO PUSH2 0x10E JUMPI PUSH1 0x0 DUP1 REVERT JUMPDEST POP GAS CALL ISZERO DUP1 ISZERO PUSH2 0x122 JUMPI RETURNDATASIZE PUSH1 0x0 DUP1 RETURNDATACOPY RETURNDATASIZE PUSH1 0x0 REVERT JUMPDEST POP POP POP POP POP POP POP JUMP JUMPDEST DUP2 PUSH20 0xFFFFFFFFFFFFFFFFFFFFFFFFFFFFFFFFFFFFFFFF AND PUSH4 0x4018D9AA DUP3 PUSH1 0x40 MLOAD DUP3 PUSH4 0xFFFFFFFF AND PUSH1 0xE0 SHL DUP2 MSTORE PUSH1 0x4 ADD PUSH2 0x164 SWAP2 SWAP1 PUSH2 0x35E JUMP JUMPDEST PUSH1 0x0 PUSH1 0x40 MLOAD DUP1 DUP4 SUB DUP2 PUSH1 0x0 DUP8 DUP1 EXTCODESIZE ISZERO DUP1 ISZERO PUSH2 0x17E JUMPI PUSH1 0x0 DUP1 REVERT JUMPDEST POP GAS CALL ISZERO DUP1 ISZERO PUSH2 0x192 JUMPI RETURNDATASIZE PUSH1 0x0 DUP1 RETURNDATACOPY RETURNDATASIZE PUSH1 0x0 REVERT JUMPDEST POP POP POP POP POP POP JUMP JUMPDEST PUSH1 0x0 DUP2 PUSH20 0xFFFFFFFFFFFFFFFFFFFFFFFFFFFFFFFFFFFFFFFF AND PUSH4 0x5197C7AA PUSH1 0x40 MLOAD DUP2 PUSH4 0xFFFFFFFF AND PUSH1 0xE0 SHL DUP2 MSTORE PUSH1 0x4 ADD PUSH1 0x20 PUSH1 0x40 MLOAD DUP1 DUP4 SUB DUP2 DUP7 DUP1 EXTCODESIZE ISZERO DUP1 ISZERO PUSH2 0x1E2 JUMPI PUSH1 0x0 DUP1 REVERT JUMPDEST POP GAS STATICCALL ISZERO DUP1 ISZERO PUSH2 0x1F6 JUMPI RETURNDATASIZE PUSH1 0x0 DUP1 RETURNDATACOPY RETURNDATASIZE PUSH1 0x0 REVERT JUMPDEST POP POP POP POP PUSH1 0x40 MLOAD RETURNDATASIZE PUSH1 0x1F NOT PUSH1 0x1F DUP3 ADD AND DUP3 ADD DUP1 PUSH1 0x40 MSTORE POP DUP2 ADD SWAP1 PUSH2 0x21A SWAP2 SWAP1 PUSH2 0x322 JUMP JUMPDEST SWAP1 POP SWAP2 SWAP1 POP JUMP JUMPDEST PUSH1 0x0 DUP2 CALLDATALOAD SWAP1 POP PUSH2 0x230 DUP2 PUSH2 0x3CC JUMP JUMPDEST SWAP3 SWAP2 POP POP JUMP JUMPDEST PUSH1 0x0 DUP2 CALLDATALOAD SWAP1 POP PUSH2 0x245 DUP2 PUSH2 0x3E3 JUMP JUMPDEST SWAP3 SWAP2 POP POP JUMP JUMPDEST PUSH1 0x0 DUP2 CALLDATALOAD SWAP1 POP PUSH2 0x25A DUP2 PUSH2 0x3FA JUMP JUMPDEST SWAP3 SWAP2 POP POP JUMP JUMPDEST PUSH1 0x0 DUP2 MLOAD SWAP1 POP PUSH2 0x26F DUP2 PUSH2 0x3FA JUMP JUMPDEST SWAP3 SWAP2 POP POP JUMP JUMPDEST PUSH1 0x0 DUP1 PUSH1 0x40 DUP4 DUP6 SUB SLT ISZERO PUSH2 0x28C JUMPI PUSH2 0x28B PUSH2 0x3C7 JUMP JUMPDEST JUMPDEST PUSH1 0x0 PUSH2 0x29A DUP6 DUP3 DUP7 ADD PUSH2 0x221 JUMP JUMPDEST SWAP3 POP POP PUSH1 0x20 PUSH2 0x2AB DUP6 DUP3 DUP7 ADD PUSH2 0x24B JUMP JUMPDEST SWAP2 POP POP SWAP3 POP SWAP3 SWAP1 POP JUMP JUMPDEST PUSH1 0x0 PUSH1 0x20 DUP3 DUP5 SUB SLT ISZERO PUSH2 0x2CB JUMPI PUSH2 0x2CA PUSH2 0x3C7 JUMP JUMPDEST JUMPDEST PUSH1 0x0 PUSH2 0x2D9 DUP5 DUP3 DUP6 ADD PUSH2 0x236 JUMP JUMPDEST SWAP2 POP POP SWAP3 SWAP2 POP POP JUMP JUMPDEST PUSH1 0x0 DUP1 PUSH1 0x40 DUP4 DUP6 SUB SLT ISZERO PUSH2 0x2F9 JUMPI PUSH2 0x2F8 PUSH2 0x3C7 JUMP JUMPDEST JUMPDEST PUSH1 0x0 PUSH2 0x307 DUP6 DUP3 DUP7 ADD PUSH2 0x236 JUMP JUMPDEST SWAP3 POP POP PUSH1 0x20 PUSH2 0x318 DUP6 DUP3 DUP7 ADD PUSH2 0x24B JUMP JUMPDEST SWAP2 POP POP SWAP3 POP SWAP3 SWAP1 POP JUMP JUMPDEST PUSH1 0x0 PUSH1 0x20 DUP3 DUP5 SUB SLT ISZERO PUSH2 0x338 JUMPI PUSH2 0x337 PUSH2 0x3C7 JUMP JUMPDEST JUMPDEST PUSH1 0x0 PUSH2 0x346 DUP5 DUP3 DUP6 ADD PUSH2 0x260 JUMP JUMPDEST SWAP2 POP POP SWAP3 SWAP2 POP POP JUMP JUMPDEST PUSH2 0x358 DUP2 PUSH2 0x3BD JUMP JUMPDEST DUP3 MSTORE POP POP JUMP JUMPDEST PUSH1 0x0 PUSH1 0x20 DUP3 ADD SWAP1 POP PUSH2 0x373 PUSH1 0x0 DUP4 ADD DUP5 PUSH2 0x34F JUMP JUMPDEST SWAP3 SWAP2 POP POP JUMP JUMPDEST PUSH1 0x0 PUSH2 0x384 DUP3 PUSH2 0x39D JUMP JUMPDEST SWAP1 POP SWAP2 SWAP1 POP JUMP JUMPDEST PUSH1 0x0 PUSH2 0x396 DUP3 PUSH2 0x379 JUMP JUMPDEST SWAP1 POP SWAP2 SWAP1 POP JUMP JUMPDEST PUSH1 0x0 PUSH20 0xFFFFFFFFFFFFFFFFFFFFFFFFFFFFFFFFFFFFFFFF DUP3 AND SWAP1 POP SWAP2 SWAP1 POP JUMP JUMPDEST PUSH1 0x0 DUP2 SWAP1 POP SWAP2 SWAP1 POP JUMP JUMPDEST PUSH1 0x0 DUP1 REVERT JUMPDEST PUSH2 0x3D5 DUP2 PUSH2 0x379 JUMP JUMPDEST DUP2 EQ PUSH2 0x3E0 JUMPI PUSH1 0x0 DUP1 REVERT JUMPDEST POP JUMP JUMPDEST PUSH2 0x3EC DUP2 PUSH2 0x38B JUMP JUMPDEST DUP2 EQ PUSH2 0x3F7 JUMPI PUSH1 0x0 DUP1 REVERT JUMPDEST POP JUMP JUMPDEST PUSH2 0x403 DUP2 PUSH2 0x3BD JUMP JUMPDEST DUP2 EQ PUSH2 0x40E JUMPI PUSH1 0x0 DUP1 REVERT JUMPDEST POP JUMP INVALID LOG2 PUSH5 0x6970667358 0x22 SLT KECCAK256 0x2B GASLIMIT 0xD6 PUSH32 0xA7DE7704B20EFC0735C5B3648BA358327643CFA3ABE6AD2ABCD1D50164736F6C PUSH4 0x43000807 STOP CALLER "
				},
				"gasEstimates": {
					"creation": {
						"codeDepositCost": "219000",
						"executionCost": "263",
						"totalCost": "219263"
					},
					"external": {
						"getX(address)": "infinite",
						"setX(address,uint256)": "infinite",
						"setXAndSendEther(address,uint256)": "infinite"
					}
				},
				"methodIdentifiers": {
					"getX(address)": "7c94c8ca",
					"setX(address,uint256)": "4a2ad99f",
					"setXAndSendEther(address,uint256)": "27a9f474"
				}
			},
			"storageLayout": {
				"storage": [],
				"types": null
			},
			"userdoc": {
				"kind": "user",
				"methods": {},
				"version": 1
			}
		}
	}
}