{
	"contracts/Sig.sol": {
		"VerifySig": {
			"abi": [
				{
					"inputs": [
						{
							"internalType": "bytes",
							"name": "_sig",
							"type": "bytes"
						}
					],
					"name": "_split",
					"outputs": [
						{
							"internalType": "bytes32",
							"name": "r",
							"type": "bytes32"
						},
						{
							"internalType": "bytes32",
							"name": "s",
							"type": "bytes32"
						},
						{
							"internalType": "uint8",
							"name": "v",
							"type": "uint8"
						}
					],
					"stateMutability": "pure",
					"type": "function"
				},
				{
					"inputs": [
						{
							"internalType": "bytes32",
							"name": "_messageHash",
							"type": "bytes32"
						}
					],
					"name": "getEthSignedMessageHash",
					"outputs": [
						{
							"internalType": "bytes32",
							"name": "",
							"type": "bytes32"
						}
					],
					"stateMutability": "pure",
					"type": "function"
				},
				{
					"inputs": [
						{
							"internalType": "string",
							"name": "_message",
							"type": "string"
						}
					],
					"name": "getMessageHash",
					"outputs": [
						{
							"internalType": "bytes32",
							"name": "",
							"type": "bytes32"
						}
					],
					"stateMutability": "pure",
					"type": "function"
				},
				{
					"inputs": [
						{
							"internalType": "bytes32",
							"name": "_ethSignedMessageHash",
							"type": "bytes32"
						},
						{
							"internalType": "bytes",
							"name": "_sig",
							"type": "bytes"
						}
					],
					"name": "recover",
					"outputs": [
						{
							"internalType": "address",
							"name": "",
							"type": "address"
						}
					],
					"stateMutability": "pure",
					"type": "function"
				},
				{
					"inputs": [
						{
							"internalType": "address",
							"name": "_signer",
							"type": "address"
						},
						{
							"internalType": "string",
							"name": "_message",
							"type": "string"
						},
						{
							"internalType": "bytes",
							"name": "_sig",
							"type": "bytes"
						}
					],
					"name": "verify",
					"outputs": [
						{
							"internalType": "bool",
							"name": "",
							"type": "bool"
						}
					],
					"stateMutability": "pure",
					"type": "function"
				}
			],
			"devdoc": {
				"kind": "dev",
				"methods": {},
				"version": 1
			},
			"evm": {
				"assembly": "    /* \"contracts/Sig.sol\":206:1758  contract VerifySig {\r... */\n  mstore(0x40, 0x80)\n  callvalue\n  dup1\n  iszero\n  tag_1\n  jumpi\n  0x00\n  dup1\n  revert\ntag_1:\n  pop\n  dataSize(sub_0)\n  dup1\n  dataOffset(sub_0)\n  0x00\n  codecopy\n  0x00\n  return\nstop\n\nsub_0: assembly {\n        /* \"contracts/Sig.sol\":206:1758  contract VerifySig {\r... */\n      mstore(0x40, 0x80)\n      callvalue\n      dup1\n      iszero\n      tag_1\n      jumpi\n      0x00\n      dup1\n      revert\n    tag_1:\n      pop\n      jumpi(tag_2, lt(calldatasize, 0x04))\n      shr(0xe0, calldataload(0x00))\n      dup1\n      0x19045a25\n      eq\n      tag_3\n      jumpi\n      dup1\n      0x2dd34f0f\n      eq\n      tag_4\n      jumpi\n      dup1\n      0xb446f3b2\n      eq\n      tag_5\n      jumpi\n      dup1\n      0xe15a245a\n      eq\n      tag_6\n      jumpi\n      dup1\n      0xfa540801\n      eq\n      tag_7\n      jumpi\n    tag_2:\n      0x00\n      dup1\n      revert\n        /* \"contracts/Sig.sol\":947:1229  function recover(bytes32 _ethSignedMessageHash, bytes memory _sig)\r... */\n    tag_3:\n      tag_8\n      0x04\n      dup1\n      calldatasize\n      sub\n      dup2\n      add\n      swap1\n      tag_9\n      swap2\n      swap1\n      tag_10\n      jump\t// in\n    tag_9:\n      tag_11\n      jump\t// in\n    tag_8:\n      mload(0x40)\n      tag_12\n      swap2\n      swap1\n      tag_13\n      jump\t// in\n    tag_12:\n      mload(0x40)\n      dup1\n      swap2\n      sub\n      swap1\n      return\n        /* \"contracts/Sig.sol\":234:553  function verify(address _signer, string memory _message, bytes memory _sig) \r... */\n    tag_4:\n      tag_14\n      0x04\n      dup1\n      calldatasize\n      sub\n      dup2\n      add\n      swap1\n      tag_15\n      swap2\n      swap1\n      tag_16\n      jump\t// in\n    tag_15:\n      tag_17\n      jump\t// in\n    tag_14:\n      mload(0x40)\n      tag_18\n      swap2\n      swap1\n      tag_19\n      jump\t// in\n    tag_18:\n      mload(0x40)\n      dup1\n      swap2\n      sub\n      swap1\n      return\n        /* \"contracts/Sig.sol\":561:702  function getMessageHash(string memory _message) public pure returns (bytes32) {\r... */\n    tag_5:\n      tag_20\n      0x04\n      dup1\n      calldatasize\n      sub\n      dup2\n      add\n      swap1\n      tag_21\n      swap2\n      swap1\n      tag_22\n      jump\t// in\n    tag_21:\n      tag_23\n      jump\t// in\n    tag_20:\n      mload(0x40)\n      tag_24\n      swap2\n      swap1\n      tag_25\n      jump\t// in\n    tag_24:\n      mload(0x40)\n      dup1\n      swap2\n      sub\n      swap1\n      return\n        /* \"contracts/Sig.sol\":1237:1755  function _split(bytes memory _sig) \r... */\n    tag_6:\n      tag_26\n      0x04\n      dup1\n      calldatasize\n      sub\n      dup2\n      add\n      swap1\n      tag_27\n      swap2\n      swap1\n      tag_28\n      jump\t// in\n    tag_27:\n      tag_29\n      jump\t// in\n    tag_26:\n      mload(0x40)\n      tag_30\n      swap4\n      swap3\n      swap2\n      swap1\n      tag_31\n      jump\t// in\n    tag_30:\n      mload(0x40)\n      dup1\n      swap2\n      sub\n      swap1\n      return\n        /* \"contracts/Sig.sol\":710:939  function getEthSignedMessageHash(bytes32 _messageHash) public pure returns (bytes32) {\r... */\n    tag_7:\n      tag_32\n      0x04\n      dup1\n      calldatasize\n      sub\n      dup2\n      add\n      swap1\n      tag_33\n      swap2\n      swap1\n      tag_34\n      jump\t// in\n    tag_33:\n      tag_35\n      jump\t// in\n    tag_32:\n      mload(0x40)\n      tag_36\n      swap2\n      swap1\n      tag_25\n      jump\t// in\n    tag_36:\n      mload(0x40)\n      dup1\n      swap2\n      sub\n      swap1\n      return\n        /* \"contracts/Sig.sol\":947:1229  function recover(bytes32 _ethSignedMessageHash, bytes memory _sig)\r... */\n    tag_11:\n        /* \"contracts/Sig.sol\":1044:1051  address */\n      0x00\n        /* \"contracts/Sig.sol\":1094:1103  bytes32 r */\n      dup1\n        /* \"contracts/Sig.sol\":1105:1114  bytes32 s */\n      0x00\n        /* \"contracts/Sig.sol\":1116:1123  uint8 v */\n      dup1\n        /* \"contracts/Sig.sol\":1127:1139  _split(_sig) */\n      tag_38\n        /* \"contracts/Sig.sol\":1134:1138  _sig */\n      dup6\n        /* \"contracts/Sig.sol\":1127:1133  _split */\n      tag_29\n        /* \"contracts/Sig.sol\":1127:1139  _split(_sig) */\n      jump\t// in\n    tag_38:\n        /* \"contracts/Sig.sol\":1093:1139  (bytes32 r, bytes32 s, uint8 v) = _split(_sig) */\n      swap3\n      pop\n      swap3\n      pop\n      swap3\n      pop\n        /* \"contracts/Sig.sol\":1165:1206  ecrecover(_ethSignedMessageHash, v, r, s) */\n      0x01\n        /* \"contracts/Sig.sol\":1175:1196  _ethSignedMessageHash */\n      dup7\n        /* \"contracts/Sig.sol\":1198:1199  v */\n      dup3\n        /* \"contracts/Sig.sol\":1201:1202  r */\n      dup6\n        /* \"contracts/Sig.sol\":1204:1205  s */\n      dup6\n        /* \"contracts/Sig.sol\":1165:1206  ecrecover(_ethSignedMessageHash, v, r, s) */\n      mload(0x40)\n      0x00\n      dup2\n      mstore\n      0x20\n      add\n      0x40\n      mstore\n      mload(0x40)\n      tag_39\n      swap5\n      swap4\n      swap3\n      swap2\n      swap1\n      tag_40\n      jump\t// in\n    tag_39:\n      0x20\n      mload(0x40)\n      0x20\n      dup2\n      sub\n      swap1\n      dup1\n      dup5\n      sub\n      swap1\n      dup6\n      gas\n      staticcall\n      iszero\n      dup1\n      iszero\n      tag_42\n      jumpi\n      returndatasize\n      0x00\n      dup1\n      returndatacopy\n      revert(0x00, returndatasize)\n    tag_42:\n      pop\n      pop\n      pop\n      mload(sub(mload(0x40), 0x20))\n        /* \"contracts/Sig.sol\":1158:1206  return ecrecover(_ethSignedMessageHash, v, r, s) */\n      swap4\n      pop\n      pop\n      pop\n      pop\n        /* \"contracts/Sig.sol\":947:1229  function recover(bytes32 _ethSignedMessageHash, bytes memory _sig)\r... */\n      swap3\n      swap2\n      pop\n      pop\n      jump\t// out\n        /* \"contracts/Sig.sol\":234:553  function verify(address _signer, string memory _message, bytes memory _sig) \r... */\n    tag_17:\n        /* \"contracts/Sig.sol\":339:343  bool */\n      0x00\n        /* \"contracts/Sig.sol\":362:381  bytes32 messageHash */\n      dup1\n        /* \"contracts/Sig.sol\":384:408  getMessageHash(_message) */\n      tag_44\n        /* \"contracts/Sig.sol\":399:407  _message */\n      dup5\n        /* \"contracts/Sig.sol\":384:398  getMessageHash */\n      tag_23\n        /* \"contracts/Sig.sol\":384:408  getMessageHash(_message) */\n      jump\t// in\n    tag_44:\n        /* \"contracts/Sig.sol\":362:408  bytes32 messageHash = getMessageHash(_message) */\n      swap1\n      pop\n        /* \"contracts/Sig.sol\":419:447  bytes32 ethSignedMessageHash */\n      0x00\n        /* \"contracts/Sig.sol\":450:486  getEthSignedMessageHash(messageHash) */\n      tag_45\n        /* \"contracts/Sig.sol\":474:485  messageHash */\n      dup3\n        /* \"contracts/Sig.sol\":450:473  getEthSignedMessageHash */\n      tag_35\n        /* \"contracts/Sig.sol\":450:486  getEthSignedMessageHash(messageHash) */\n      jump\t// in\n    tag_45:\n        /* \"contracts/Sig.sol\":419:486  bytes32 ethSignedMessageHash = getEthSignedMessageHash(messageHash) */\n      swap1\n      pop\n        /* \"contracts/Sig.sol\":538:545  _signer */\n      dup6\n        /* \"contracts/Sig.sol\":499:545  recover(ethSignedMessageHash, _sig) == _signer */\n      0xffffffffffffffffffffffffffffffffffffffff\n      and\n        /* \"contracts/Sig.sol\":499:534  recover(ethSignedMessageHash, _sig) */\n      tag_46\n        /* \"contracts/Sig.sol\":507:527  ethSignedMessageHash */\n      dup3\n        /* \"contracts/Sig.sol\":529:533  _sig */\n      dup7\n        /* \"contracts/Sig.sol\":499:506  recover */\n      tag_11\n        /* \"contracts/Sig.sol\":499:534  recover(ethSignedMessageHash, _sig) */\n      jump\t// in\n    tag_46:\n        /* \"contracts/Sig.sol\":499:545  recover(ethSignedMessageHash, _sig) == _signer */\n      pop\n      pop\n        /* \"contracts/Sig.sol\":351:553  {\r... */\n      pop\n      pop\n        /* \"contracts/Sig.sol\":234:553  function verify(address _signer, string memory _message, bytes memory _sig) \r... */\n      swap4\n      swap3\n      pop\n      pop\n      pop\n      jump\t// out\n        /* \"contracts/Sig.sol\":561:702  function getMessageHash(string memory _message) public pure returns (bytes32) {\r... */\n    tag_23:\n        /* \"contracts/Sig.sol\":630:637  bytes32 */\n      0x00\n        /* \"contracts/Sig.sol\":684:692  _message */\n      dup2\n        /* \"contracts/Sig.sol\":667:693  abi.encodePacked(_message) */\n      add(0x20, mload(0x40))\n      tag_48\n      swap2\n      swap1\n      tag_49\n      jump\t// in\n    tag_48:\n      mload(0x40)\n      0x20\n      dup2\n      dup4\n      sub\n      sub\n      dup2\n      mstore\n      swap1\n      0x40\n      mstore\n        /* \"contracts/Sig.sol\":657:694  keccak256(abi.encodePacked(_message)) */\n      dup1\n      mload\n      swap1\n      0x20\n      add\n      keccak256\n        /* \"contracts/Sig.sol\":650:694  return keccak256(abi.encodePacked(_message)) */\n      swap1\n      pop\n        /* \"contracts/Sig.sol\":561:702  function getMessageHash(string memory _message) public pure returns (bytes32) {\r... */\n      swap2\n      swap1\n      pop\n      jump\t// out\n        /* \"contracts/Sig.sol\":1237:1755  function _split(bytes memory _sig) \r... */\n    tag_29:\n        /* \"contracts/Sig.sol\":1303:1312  bytes32 r */\n      0x00\n        /* \"contracts/Sig.sol\":1314:1323  bytes32 s */\n      dup1\n        /* \"contracts/Sig.sol\":1325:1332  uint8 v */\n      0x00\n        /* \"contracts/Sig.sol\":1373:1375  65 */\n      0x41\n        /* \"contracts/Sig.sol\":1358:1362  _sig */\n      dup5\n        /* \"contracts/Sig.sol\":1358:1369  _sig.length */\n      mload\n        /* \"contracts/Sig.sol\":1358:1375  _sig.length == 65 */\n      eq\n        /* \"contracts/Sig.sol\":1350:1404  require(_sig.length == 65, \"invalid signature length\") */\n      tag_51\n      jumpi\n      mload(0x40)\n      0x08c379a000000000000000000000000000000000000000000000000000000000\n      dup2\n      mstore\n      0x04\n      add\n      tag_52\n      swap1\n      tag_53\n      jump\t// in\n    tag_52:\n      mload(0x40)\n      dup1\n      swap2\n      sub\n      swap1\n      revert\n    tag_51:\n        /* \"contracts/Sig.sol\":1589:1591  32 */\n      0x20\n        /* \"contracts/Sig.sol\":1583:1587  _sig */\n      dup5\n        /* \"contracts/Sig.sol\":1579:1592  add(_sig, 32) */\n      add\n        /* \"contracts/Sig.sol\":1573:1593  mload(add(_sig, 32)) */\n      mload\n        /* \"contracts/Sig.sol\":1568:1593  r := mload(add(_sig, 32)) */\n      swap3\n      pop\n        /* \"contracts/Sig.sol\":1633:1635  64 */\n      0x40\n        /* \"contracts/Sig.sol\":1627:1631  _sig */\n      dup5\n        /* \"contracts/Sig.sol\":1623:1636  add(_sig, 64) */\n      add\n        /* \"contracts/Sig.sol\":1617:1637  mload(add(_sig, 64)) */\n      mload\n        /* \"contracts/Sig.sol\":1612:1637  s := mload(add(_sig, 64)) */\n      swap2\n      pop\n        /* \"contracts/Sig.sol\":1680:1682  96 */\n      0x60\n        /* \"contracts/Sig.sol\":1674:1678  _sig */\n      dup5\n        /* \"contracts/Sig.sol\":1670:1683  add(_sig, 96) */\n      add\n        /* \"contracts/Sig.sol\":1664:1684  mload(add(_sig, 96)) */\n      mload\n        /* \"contracts/Sig.sol\":1661:1662  0 */\n      0x00\n        /* \"contracts/Sig.sol\":1656:1685  byte(0, mload(add(_sig, 96))) */\n      byte\n        /* \"contracts/Sig.sol\":1651:1685  v := byte(0, mload(add(_sig, 96))) */\n      swap1\n      pop\n        /* \"contracts/Sig.sol\":1237:1755  function _split(bytes memory _sig) \r... */\n      swap2\n      swap4\n      swap1\n      swap3\n      pop\n      jump\t// out\n        /* \"contracts/Sig.sol\":710:939  function getEthSignedMessageHash(bytes32 _messageHash) public pure returns (bytes32) {\r... */\n    tag_35:\n        /* \"contracts/Sig.sol\":786:793  bytes32 */\n      0x00\n        /* \"contracts/Sig.sol\":903:915  _messageHash */\n      dup2\n        /* \"contracts/Sig.sol\":823:930  abi.encodePacked(\r... */\n      add(0x20, mload(0x40))\n      tag_55\n      swap2\n      swap1\n      tag_56\n      jump\t// in\n    tag_55:\n      mload(0x40)\n      0x20\n      dup2\n      dup4\n      sub\n      sub\n      dup2\n      mstore\n      swap1\n      0x40\n      mstore\n        /* \"contracts/Sig.sol\":813:931  keccak256(abi.encodePacked(\r... */\n      dup1\n      mload\n      swap1\n      0x20\n      add\n      keccak256\n        /* \"contracts/Sig.sol\":806:931  return keccak256(abi.encodePacked(\r... */\n      swap1\n      pop\n        /* \"contracts/Sig.sol\":710:939  function getEthSignedMessageHash(bytes32 _messageHash) public pure returns (bytes32) {\r... */\n      swap2\n      swap1\n      pop\n      jump\t// out\n        /* \"#utility.yul\":7:417   */\n    tag_58:\n        /* \"#utility.yul\":84:89   */\n      0x00\n        /* \"#utility.yul\":109:174   */\n      tag_60\n        /* \"#utility.yul\":125:173   */\n      tag_61\n        /* \"#utility.yul\":166:172   */\n      dup5\n        /* \"#utility.yul\":125:173   */\n      tag_62\n      jump\t// in\n    tag_61:\n        /* \"#utility.yul\":109:174   */\n      tag_63\n      jump\t// in\n    tag_60:\n        /* \"#utility.yul\":100:174   */\n      swap1\n      pop\n        /* \"#utility.yul\":197:203   */\n      dup3\n        /* \"#utility.yul\":190:195   */\n      dup2\n        /* \"#utility.yul\":183:204   */\n      mstore\n        /* \"#utility.yul\":235:239   */\n      0x20\n        /* \"#utility.yul\":228:233   */\n      dup2\n        /* \"#utility.yul\":224:240   */\n      add\n        /* \"#utility.yul\":273:276   */\n      dup5\n        /* \"#utility.yul\":264:270   */\n      dup5\n        /* \"#utility.yul\":259:262   */\n      dup5\n        /* \"#utility.yul\":255:271   */\n      add\n        /* \"#utility.yul\":252:277   */\n      gt\n        /* \"#utility.yul\":249:361   */\n      iszero\n      tag_64\n      jumpi\n        /* \"#utility.yul\":280:359   */\n      tag_65\n      tag_66\n      jump\t// in\n    tag_65:\n        /* \"#utility.yul\":249:361   */\n    tag_64:\n        /* \"#utility.yul\":370:411   */\n      tag_67\n        /* \"#utility.yul\":404:410   */\n      dup5\n        /* \"#utility.yul\":399:402   */\n      dup3\n        /* \"#utility.yul\":394:397   */\n      dup6\n        /* \"#utility.yul\":370:411   */\n      tag_68\n      jump\t// in\n    tag_67:\n        /* \"#utility.yul\":90:417   */\n      pop\n        /* \"#utility.yul\":7:417   */\n      swap4\n      swap3\n      pop\n      pop\n      pop\n      jump\t// out\n        /* \"#utility.yul\":423:835   */\n    tag_69:\n        /* \"#utility.yul\":501:506   */\n      0x00\n        /* \"#utility.yul\":526:592   */\n      tag_71\n        /* \"#utility.yul\":542:591   */\n      tag_72\n        /* \"#utility.yul\":584:590   */\n      dup5\n        /* \"#utility.yul\":542:591   */\n      tag_73\n      jump\t// in\n    tag_72:\n        /* \"#utility.yul\":526:592   */\n      tag_63\n      jump\t// in\n    tag_71:\n        /* \"#utility.yul\":517:592   */\n      swap1\n      pop\n        /* \"#utility.yul\":615:621   */\n      dup3\n        /* \"#utility.yul\":608:613   */\n      dup2\n        /* \"#utility.yul\":601:622   */\n      mstore\n        /* \"#utility.yul\":653:657   */\n      0x20\n        /* \"#utility.yul\":646:651   */\n      dup2\n        /* \"#utility.yul\":642:658   */\n      add\n        /* \"#utility.yul\":691:694   */\n      dup5\n        /* \"#utility.yul\":682:688   */\n      dup5\n        /* \"#utility.yul\":677:680   */\n      dup5\n        /* \"#utility.yul\":673:689   */\n      add\n        /* \"#utility.yul\":670:695   */\n      gt\n        /* \"#utility.yul\":667:779   */\n      iszero\n      tag_74\n      jumpi\n        /* \"#utility.yul\":698:777   */\n      tag_75\n      tag_66\n      jump\t// in\n    tag_75:\n        /* \"#utility.yul\":667:779   */\n    tag_74:\n        /* \"#utility.yul\":788:829   */\n      tag_76\n        /* \"#utility.yul\":822:828   */\n      dup5\n        /* \"#utility.yul\":817:820   */\n      dup3\n        /* \"#utility.yul\":812:815   */\n      dup6\n        /* \"#utility.yul\":788:829   */\n      tag_68\n      jump\t// in\n    tag_76:\n        /* \"#utility.yul\":507:835   */\n      pop\n        /* \"#utility.yul\":423:835   */\n      swap4\n      swap3\n      pop\n      pop\n      pop\n      jump\t// out\n        /* \"#utility.yul\":841:980   */\n    tag_77:\n        /* \"#utility.yul\":887:892   */\n      0x00\n        /* \"#utility.yul\":925:931   */\n      dup2\n        /* \"#utility.yul\":912:932   */\n      calldataload\n        /* \"#utility.yul\":903:932   */\n      swap1\n      pop\n        /* \"#utility.yul\":941:974   */\n      tag_79\n        /* \"#utility.yul\":968:973   */\n      dup2\n        /* \"#utility.yul\":941:974   */\n      tag_80\n      jump\t// in\n    tag_79:\n        /* \"#utility.yul\":841:980   */\n      swap3\n      swap2\n      pop\n      pop\n      jump\t// out\n        /* \"#utility.yul\":986:1125   */\n    tag_81:\n        /* \"#utility.yul\":1032:1037   */\n      0x00\n        /* \"#utility.yul\":1070:1076   */\n      dup2\n        /* \"#utility.yul\":1057:1077   */\n      calldataload\n        /* \"#utility.yul\":1048:1077   */\n      swap1\n      pop\n        /* \"#utility.yul\":1086:1119   */\n      tag_83\n        /* \"#utility.yul\":1113:1118   */\n      dup2\n        /* \"#utility.yul\":1086:1119   */\n      tag_84\n      jump\t// in\n    tag_83:\n        /* \"#utility.yul\":986:1125   */\n      swap3\n      swap2\n      pop\n      pop\n      jump\t// out\n        /* \"#utility.yul\":1144:1482   */\n    tag_85:\n        /* \"#utility.yul\":1199:1204   */\n      0x00\n        /* \"#utility.yul\":1248:1251   */\n      dup3\n        /* \"#utility.yul\":1241:1245   */\n      0x1f\n        /* \"#utility.yul\":1233:1239   */\n      dup4\n        /* \"#utility.yul\":1229:1246   */\n      add\n        /* \"#utility.yul\":1225:1252   */\n      slt\n        /* \"#utility.yul\":1215:1337   */\n      tag_87\n      jumpi\n        /* \"#utility.yul\":1256:1335   */\n      tag_88\n      tag_89\n      jump\t// in\n    tag_88:\n        /* \"#utility.yul\":1215:1337   */\n    tag_87:\n        /* \"#utility.yul\":1373:1379   */\n      dup2\n        /* \"#utility.yul\":1360:1380   */\n      calldataload\n        /* \"#utility.yul\":1398:1476   */\n      tag_90\n        /* \"#utility.yul\":1472:1475   */\n      dup5\n        /* \"#utility.yul\":1464:1470   */\n      dup3\n        /* \"#utility.yul\":1457:1461   */\n      0x20\n        /* \"#utility.yul\":1449:1455   */\n      dup7\n        /* \"#utility.yul\":1445:1462   */\n      add\n        /* \"#utility.yul\":1398:1476   */\n      tag_58\n      jump\t// in\n    tag_90:\n        /* \"#utility.yul\":1389:1476   */\n      swap2\n      pop\n        /* \"#utility.yul\":1205:1482   */\n      pop\n        /* \"#utility.yul\":1144:1482   */\n      swap3\n      swap2\n      pop\n      pop\n      jump\t// out\n        /* \"#utility.yul\":1502:1842   */\n    tag_91:\n        /* \"#utility.yul\":1558:1563   */\n      0x00\n        /* \"#utility.yul\":1607:1610   */\n      dup3\n        /* \"#utility.yul\":1600:1604   */\n      0x1f\n        /* \"#utility.yul\":1592:1598   */\n      dup4\n        /* \"#utility.yul\":1588:1605   */\n      add\n        /* \"#utility.yul\":1584:1611   */\n      slt\n        /* \"#utility.yul\":1574:1696   */\n      tag_93\n      jumpi\n        /* \"#utility.yul\":1615:1694   */\n      tag_94\n      tag_89\n      jump\t// in\n    tag_94:\n        /* \"#utility.yul\":1574:1696   */\n    tag_93:\n        /* \"#utility.yul\":1732:1738   */\n      dup2\n        /* \"#utility.yul\":1719:1739   */\n      calldataload\n        /* \"#utility.yul\":1757:1836   */\n      tag_95\n        /* \"#utility.yul\":1832:1835   */\n      dup5\n        /* \"#utility.yul\":1824:1830   */\n      dup3\n        /* \"#utility.yul\":1817:1821   */\n      0x20\n        /* \"#utility.yul\":1809:1815   */\n      dup7\n        /* \"#utility.yul\":1805:1822   */\n      add\n        /* \"#utility.yul\":1757:1836   */\n      tag_69\n      jump\t// in\n    tag_95:\n        /* \"#utility.yul\":1748:1836   */\n      swap2\n      pop\n        /* \"#utility.yul\":1564:1842   */\n      pop\n        /* \"#utility.yul\":1502:1842   */\n      swap3\n      swap2\n      pop\n      pop\n      jump\t// out\n        /* \"#utility.yul\":1848:2825   */\n    tag_16:\n        /* \"#utility.yul\":1944:1950   */\n      0x00\n        /* \"#utility.yul\":1952:1958   */\n      dup1\n        /* \"#utility.yul\":1960:1966   */\n      0x00\n        /* \"#utility.yul\":2009:2011   */\n      0x60\n        /* \"#utility.yul\":1997:2006   */\n      dup5\n        /* \"#utility.yul\":1988:1995   */\n      dup7\n        /* \"#utility.yul\":1984:2007   */\n      sub\n        /* \"#utility.yul\":1980:2012   */\n      slt\n        /* \"#utility.yul\":1977:2096   */\n      iszero\n      tag_97\n      jumpi\n        /* \"#utility.yul\":2015:2094   */\n      tag_98\n      tag_99\n      jump\t// in\n    tag_98:\n        /* \"#utility.yul\":1977:2096   */\n    tag_97:\n        /* \"#utility.yul\":2135:2136   */\n      0x00\n        /* \"#utility.yul\":2160:2213   */\n      tag_100\n        /* \"#utility.yul\":2205:2212   */\n      dup7\n        /* \"#utility.yul\":2196:2202   */\n      dup3\n        /* \"#utility.yul\":2185:2194   */\n      dup8\n        /* \"#utility.yul\":2181:2203   */\n      add\n        /* \"#utility.yul\":2160:2213   */\n      tag_77\n      jump\t// in\n    tag_100:\n        /* \"#utility.yul\":2150:2213   */\n      swap4\n      pop\n        /* \"#utility.yul\":2106:2223   */\n      pop\n        /* \"#utility.yul\":2290:2292   */\n      0x20\n        /* \"#utility.yul\":2279:2288   */\n      dup5\n        /* \"#utility.yul\":2275:2293   */\n      add\n        /* \"#utility.yul\":2262:2294   */\n      calldataload\n        /* \"#utility.yul\":2321:2339   */\n      0xffffffffffffffff\n        /* \"#utility.yul\":2313:2319   */\n      dup2\n        /* \"#utility.yul\":2310:2340   */\n      gt\n        /* \"#utility.yul\":2307:2424   */\n      iszero\n      tag_101\n      jumpi\n        /* \"#utility.yul\":2343:2422   */\n      tag_102\n      tag_103\n      jump\t// in\n    tag_102:\n        /* \"#utility.yul\":2307:2424   */\n    tag_101:\n        /* \"#utility.yul\":2448:2511   */\n      tag_104\n        /* \"#utility.yul\":2503:2510   */\n      dup7\n        /* \"#utility.yul\":2494:2500   */\n      dup3\n        /* \"#utility.yul\":2483:2492   */\n      dup8\n        /* \"#utility.yul\":2479:2501   */\n      add\n        /* \"#utility.yul\":2448:2511   */\n      tag_91\n      jump\t// in\n    tag_104:\n        /* \"#utility.yul\":2438:2511   */\n      swap3\n      pop\n        /* \"#utility.yul\":2233:2521   */\n      pop\n        /* \"#utility.yul\":2588:2590   */\n      0x40\n        /* \"#utility.yul\":2577:2586   */\n      dup5\n        /* \"#utility.yul\":2573:2591   */\n      add\n        /* \"#utility.yul\":2560:2592   */\n      calldataload\n        /* \"#utility.yul\":2619:2637   */\n      0xffffffffffffffff\n        /* \"#utility.yul\":2611:2617   */\n      dup2\n        /* \"#utility.yul\":2608:2638   */\n      gt\n        /* \"#utility.yul\":2605:2722   */\n      iszero\n      tag_105\n      jumpi\n        /* \"#utility.yul\":2641:2720   */\n      tag_106\n      tag_103\n      jump\t// in\n    tag_106:\n        /* \"#utility.yul\":2605:2722   */\n    tag_105:\n        /* \"#utility.yul\":2746:2808   */\n      tag_107\n        /* \"#utility.yul\":2800:2807   */\n      dup7\n        /* \"#utility.yul\":2791:2797   */\n      dup3\n        /* \"#utility.yul\":2780:2789   */\n      dup8\n        /* \"#utility.yul\":2776:2798   */\n      add\n        /* \"#utility.yul\":2746:2808   */\n      tag_85\n      jump\t// in\n    tag_107:\n        /* \"#utility.yul\":2736:2808   */\n      swap2\n      pop\n        /* \"#utility.yul\":2531:2818   */\n      pop\n        /* \"#utility.yul\":1848:2825   */\n      swap3\n      pop\n      swap3\n      pop\n      swap3\n      jump\t// out\n        /* \"#utility.yul\":2831:3160   */\n    tag_34:\n        /* \"#utility.yul\":2890:2896   */\n      0x00\n        /* \"#utility.yul\":2939:2941   */\n      0x20\n        /* \"#utility.yul\":2927:2936   */\n      dup3\n        /* \"#utility.yul\":2918:2925   */\n      dup5\n        /* \"#utility.yul\":2914:2937   */\n      sub\n        /* \"#utility.yul\":2910:2942   */\n      slt\n        /* \"#utility.yul\":2907:3026   */\n      iszero\n      tag_109\n      jumpi\n        /* \"#utility.yul\":2945:3024   */\n      tag_110\n      tag_99\n      jump\t// in\n    tag_110:\n        /* \"#utility.yul\":2907:3026   */\n    tag_109:\n        /* \"#utility.yul\":3065:3066   */\n      0x00\n        /* \"#utility.yul\":3090:3143   */\n      tag_111\n        /* \"#utility.yul\":3135:3142   */\n      dup5\n        /* \"#utility.yul\":3126:3132   */\n      dup3\n        /* \"#utility.yul\":3115:3124   */\n      dup6\n        /* \"#utility.yul\":3111:3133   */\n      add\n        /* \"#utility.yul\":3090:3143   */\n      tag_81\n      jump\t// in\n    tag_111:\n        /* \"#utility.yul\":3080:3143   */\n      swap2\n      pop\n        /* \"#utility.yul\":3036:3153   */\n      pop\n        /* \"#utility.yul\":2831:3160   */\n      swap3\n      swap2\n      pop\n      pop\n      jump\t// out\n        /* \"#utility.yul\":3166:3818   */\n    tag_10:\n        /* \"#utility.yul\":3243:3249   */\n      0x00\n        /* \"#utility.yul\":3251:3257   */\n      dup1\n        /* \"#utility.yul\":3300:3302   */\n      0x40\n        /* \"#utility.yul\":3288:3297   */\n      dup4\n        /* \"#utility.yul\":3279:3286   */\n      dup6\n        /* \"#utility.yul\":3275:3298   */\n      sub\n        /* \"#utility.yul\":3271:3303   */\n      slt\n        /* \"#utility.yul\":3268:3387   */\n      iszero\n      tag_113\n      jumpi\n        /* \"#utility.yul\":3306:3385   */\n      tag_114\n      tag_99\n      jump\t// in\n    tag_114:\n        /* \"#utility.yul\":3268:3387   */\n    tag_113:\n        /* \"#utility.yul\":3426:3427   */\n      0x00\n        /* \"#utility.yul\":3451:3504   */\n      tag_115\n        /* \"#utility.yul\":3496:3503   */\n      dup6\n        /* \"#utility.yul\":3487:3493   */\n      dup3\n        /* \"#utility.yul\":3476:3485   */\n      dup7\n        /* \"#utility.yul\":3472:3494   */\n      add\n        /* \"#utility.yul\":3451:3504   */\n      tag_81\n      jump\t// in\n    tag_115:\n        /* \"#utility.yul\":3441:3504   */\n      swap3\n      pop\n        /* \"#utility.yul\":3397:3514   */\n      pop\n        /* \"#utility.yul\":3581:3583   */\n      0x20\n        /* \"#utility.yul\":3570:3579   */\n      dup4\n        /* \"#utility.yul\":3566:3584   */\n      add\n        /* \"#utility.yul\":3553:3585   */\n      calldataload\n        /* \"#utility.yul\":3612:3630   */\n      0xffffffffffffffff\n        /* \"#utility.yul\":3604:3610   */\n      dup2\n        /* \"#utility.yul\":3601:3631   */\n      gt\n        /* \"#utility.yul\":3598:3715   */\n      iszero\n      tag_116\n      jumpi\n        /* \"#utility.yul\":3634:3713   */\n      tag_117\n      tag_103\n      jump\t// in\n    tag_117:\n        /* \"#utility.yul\":3598:3715   */\n    tag_116:\n        /* \"#utility.yul\":3739:3801   */\n      tag_118\n        /* \"#utility.yul\":3793:3800   */\n      dup6\n        /* \"#utility.yul\":3784:3790   */\n      dup3\n        /* \"#utility.yul\":3773:3782   */\n      dup7\n        /* \"#utility.yul\":3769:3791   */\n      add\n        /* \"#utility.yul\":3739:3801   */\n      tag_85\n      jump\t// in\n    tag_118:\n        /* \"#utility.yul\":3729:3801   */\n      swap2\n      pop\n        /* \"#utility.yul\":3524:3811   */\n      pop\n        /* \"#utility.yul\":3166:3818   */\n      swap3\n      pop\n      swap3\n      swap1\n      pop\n      jump\t// out\n        /* \"#utility.yul\":3824:4331   */\n    tag_28:\n        /* \"#utility.yul\":3892:3898   */\n      0x00\n        /* \"#utility.yul\":3941:3943   */\n      0x20\n        /* \"#utility.yul\":3929:3938   */\n      dup3\n        /* \"#utility.yul\":3920:3927   */\n      dup5\n        /* \"#utility.yul\":3916:3939   */\n      sub\n        /* \"#utility.yul\":3912:3944   */\n      slt\n        /* \"#utility.yul\":3909:4028   */\n      iszero\n      tag_120\n      jumpi\n        /* \"#utility.yul\":3947:4026   */\n      tag_121\n      tag_99\n      jump\t// in\n    tag_121:\n        /* \"#utility.yul\":3909:4028   */\n    tag_120:\n        /* \"#utility.yul\":4095:4096   */\n      0x00\n        /* \"#utility.yul\":4084:4093   */\n      dup3\n        /* \"#utility.yul\":4080:4097   */\n      add\n        /* \"#utility.yul\":4067:4098   */\n      calldataload\n        /* \"#utility.yul\":4125:4143   */\n      0xffffffffffffffff\n        /* \"#utility.yul\":4117:4123   */\n      dup2\n        /* \"#utility.yul\":4114:4144   */\n      gt\n        /* \"#utility.yul\":4111:4228   */\n      iszero\n      tag_122\n      jumpi\n        /* \"#utility.yul\":4147:4226   */\n      tag_123\n      tag_103\n      jump\t// in\n    tag_123:\n        /* \"#utility.yul\":4111:4228   */\n    tag_122:\n        /* \"#utility.yul\":4252:4314   */\n      tag_124\n        /* \"#utility.yul\":4306:4313   */\n      dup5\n        /* \"#utility.yul\":4297:4303   */\n      dup3\n        /* \"#utility.yul\":4286:4295   */\n      dup6\n        /* \"#utility.yul\":4282:4304   */\n      add\n        /* \"#utility.yul\":4252:4314   */\n      tag_85\n      jump\t// in\n    tag_124:\n        /* \"#utility.yul\":4242:4314   */\n      swap2\n      pop\n        /* \"#utility.yul\":4038:4324   */\n      pop\n        /* \"#utility.yul\":3824:4331   */\n      swap3\n      swap2\n      pop\n      pop\n      jump\t// out\n        /* \"#utility.yul\":4337:4846   */\n    tag_22:\n        /* \"#utility.yul\":4406:4412   */\n      0x00\n        /* \"#utility.yul\":4455:4457   */\n      0x20\n        /* \"#utility.yul\":4443:4452   */\n      dup3\n        /* \"#utility.yul\":4434:4441   */\n      dup5\n        /* \"#utility.yul\":4430:4453   */\n      sub\n        /* \"#utility.yul\":4426:4458   */\n      slt\n        /* \"#utility.yul\":4423:4542   */\n      iszero\n      tag_126\n      jumpi\n        /* \"#utility.yul\":4461:4540   */\n      tag_127\n      tag_99\n      jump\t// in\n    tag_127:\n        /* \"#utility.yul\":4423:4542   */\n    tag_126:\n        /* \"#utility.yul\":4609:4610   */\n      0x00\n        /* \"#utility.yul\":4598:4607   */\n      dup3\n        /* \"#utility.yul\":4594:4611   */\n      add\n        /* \"#utility.yul\":4581:4612   */\n      calldataload\n        /* \"#utility.yul\":4639:4657   */\n      0xffffffffffffffff\n        /* \"#utility.yul\":4631:4637   */\n      dup2\n        /* \"#utility.yul\":4628:4658   */\n      gt\n        /* \"#utility.yul\":4625:4742   */\n      iszero\n      tag_128\n      jumpi\n        /* \"#utility.yul\":4661:4740   */\n      tag_129\n      tag_103\n      jump\t// in\n    tag_129:\n        /* \"#utility.yul\":4625:4742   */\n    tag_128:\n        /* \"#utility.yul\":4766:4829   */\n      tag_130\n        /* \"#utility.yul\":4821:4828   */\n      dup5\n        /* \"#utility.yul\":4812:4818   */\n      dup3\n        /* \"#utility.yul\":4801:4810   */\n      dup6\n        /* \"#utility.yul\":4797:4819   */\n      add\n        /* \"#utility.yul\":4766:4829   */\n      tag_91\n      jump\t// in\n    tag_130:\n        /* \"#utility.yul\":4756:4829   */\n      swap2\n      pop\n        /* \"#utility.yul\":4552:4839   */\n      pop\n        /* \"#utility.yul\":4337:4846   */\n      swap3\n      swap2\n      pop\n      pop\n      jump\t// out\n        /* \"#utility.yul\":4852:4970   */\n    tag_131:\n        /* \"#utility.yul\":4939:4963   */\n      tag_133\n        /* \"#utility.yul\":4957:4962   */\n      dup2\n        /* \"#utility.yul\":4939:4963   */\n      tag_134\n      jump\t// in\n    tag_133:\n        /* \"#utility.yul\":4934:4937   */\n      dup3\n        /* \"#utility.yul\":4927:4964   */\n      mstore\n        /* \"#utility.yul\":4852:4970   */\n      pop\n      pop\n      jump\t// out\n        /* \"#utility.yul\":4976:5085   */\n    tag_135:\n        /* \"#utility.yul\":5057:5078   */\n      tag_137\n        /* \"#utility.yul\":5072:5077   */\n      dup2\n        /* \"#utility.yul\":5057:5078   */\n      tag_138\n      jump\t// in\n    tag_137:\n        /* \"#utility.yul\":5052:5055   */\n      dup3\n        /* \"#utility.yul\":5045:5079   */\n      mstore\n        /* \"#utility.yul\":4976:5085   */\n      pop\n      pop\n      jump\t// out\n        /* \"#utility.yul\":5091:5209   */\n    tag_139:\n        /* \"#utility.yul\":5178:5202   */\n      tag_141\n        /* \"#utility.yul\":5196:5201   */\n      dup2\n        /* \"#utility.yul\":5178:5202   */\n      tag_142\n      jump\t// in\n    tag_141:\n        /* \"#utility.yul\":5173:5176   */\n      dup3\n        /* \"#utility.yul\":5166:5203   */\n      mstore\n        /* \"#utility.yul\":5091:5209   */\n      pop\n      pop\n      jump\t// out\n        /* \"#utility.yul\":5215:5372   */\n    tag_143:\n        /* \"#utility.yul\":5320:5365   */\n      tag_145\n        /* \"#utility.yul\":5340:5364   */\n      tag_146\n        /* \"#utility.yul\":5358:5363   */\n      dup3\n        /* \"#utility.yul\":5340:5364   */\n      tag_142\n      jump\t// in\n    tag_146:\n        /* \"#utility.yul\":5320:5365   */\n      tag_147\n      jump\t// in\n    tag_145:\n        /* \"#utility.yul\":5315:5318   */\n      dup3\n        /* \"#utility.yul\":5308:5366   */\n      mstore\n        /* \"#utility.yul\":5215:5372   */\n      pop\n      pop\n      jump\t// out\n        /* \"#utility.yul\":5378:5755   */\n    tag_148:\n        /* \"#utility.yul\":5484:5487   */\n      0x00\n        /* \"#utility.yul\":5512:5551   */\n      tag_150\n        /* \"#utility.yul\":5545:5550   */\n      dup3\n        /* \"#utility.yul\":5512:5551   */\n      tag_151\n      jump\t// in\n    tag_150:\n        /* \"#utility.yul\":5567:5656   */\n      tag_152\n        /* \"#utility.yul\":5649:5655   */\n      dup2\n        /* \"#utility.yul\":5644:5647   */\n      dup6\n        /* \"#utility.yul\":5567:5656   */\n      tag_153\n      jump\t// in\n    tag_152:\n        /* \"#utility.yul\":5560:5656   */\n      swap4\n      pop\n        /* \"#utility.yul\":5665:5717   */\n      tag_154\n        /* \"#utility.yul\":5710:5716   */\n      dup2\n        /* \"#utility.yul\":5705:5708   */\n      dup6\n        /* \"#utility.yul\":5698:5702   */\n      0x20\n        /* \"#utility.yul\":5691:5696   */\n      dup7\n        /* \"#utility.yul\":5687:5703   */\n      add\n        /* \"#utility.yul\":5665:5717   */\n      tag_155\n      jump\t// in\n    tag_154:\n        /* \"#utility.yul\":5742:5748   */\n      dup1\n        /* \"#utility.yul\":5737:5740   */\n      dup5\n        /* \"#utility.yul\":5733:5749   */\n      add\n        /* \"#utility.yul\":5726:5749   */\n      swap2\n      pop\n        /* \"#utility.yul\":5488:5755   */\n      pop\n        /* \"#utility.yul\":5378:5755   */\n      swap3\n      swap2\n      pop\n      pop\n      jump\t// out\n        /* \"#utility.yul\":5761:6163   */\n    tag_156:\n        /* \"#utility.yul\":5921:5924   */\n      0x00\n        /* \"#utility.yul\":5942:6027   */\n      tag_158\n        /* \"#utility.yul\":6024:6026   */\n      0x1c\n        /* \"#utility.yul\":6019:6022   */\n      dup4\n        /* \"#utility.yul\":5942:6027   */\n      tag_153\n      jump\t// in\n    tag_158:\n        /* \"#utility.yul\":5935:6027   */\n      swap2\n      pop\n        /* \"#utility.yul\":6036:6129   */\n      tag_159\n        /* \"#utility.yul\":6125:6128   */\n      dup3\n        /* \"#utility.yul\":6036:6129   */\n      tag_160\n      jump\t// in\n    tag_159:\n        /* \"#utility.yul\":6154:6156   */\n      0x1c\n        /* \"#utility.yul\":6149:6152   */\n      dup3\n        /* \"#utility.yul\":6145:6157   */\n      add\n        /* \"#utility.yul\":6138:6157   */\n      swap1\n      pop\n        /* \"#utility.yul\":5761:6163   */\n      swap2\n      swap1\n      pop\n      jump\t// out\n        /* \"#utility.yul\":6169:6535   */\n    tag_161:\n        /* \"#utility.yul\":6311:6314   */\n      0x00\n        /* \"#utility.yul\":6332:6399   */\n      tag_163\n        /* \"#utility.yul\":6396:6398   */\n      0x18\n        /* \"#utility.yul\":6391:6394   */\n      dup4\n        /* \"#utility.yul\":6332:6399   */\n      tag_164\n      jump\t// in\n    tag_163:\n        /* \"#utility.yul\":6325:6399   */\n      swap2\n      pop\n        /* \"#utility.yul\":6408:6501   */\n      tag_165\n        /* \"#utility.yul\":6497:6500   */\n      dup3\n        /* \"#utility.yul\":6408:6501   */\n      tag_166\n      jump\t// in\n    tag_165:\n        /* \"#utility.yul\":6526:6528   */\n      0x20\n        /* \"#utility.yul\":6521:6524   */\n      dup3\n        /* \"#utility.yul\":6517:6529   */\n      add\n        /* \"#utility.yul\":6510:6529   */\n      swap1\n      pop\n        /* \"#utility.yul\":6169:6535   */\n      swap2\n      swap1\n      pop\n      jump\t// out\n        /* \"#utility.yul\":6541:6653   */\n    tag_167:\n        /* \"#utility.yul\":6624:6646   */\n      tag_169\n        /* \"#utility.yul\":6640:6645   */\n      dup2\n        /* \"#utility.yul\":6624:6646   */\n      tag_170\n      jump\t// in\n    tag_169:\n        /* \"#utility.yul\":6619:6622   */\n      dup3\n        /* \"#utility.yul\":6612:6647   */\n      mstore\n        /* \"#utility.yul\":6541:6653   */\n      pop\n      pop\n      jump\t// out\n        /* \"#utility.yul\":6659:6934   */\n    tag_49:\n        /* \"#utility.yul\":6791:6794   */\n      0x00\n        /* \"#utility.yul\":6813:6908   */\n      tag_172\n        /* \"#utility.yul\":6904:6907   */\n      dup3\n        /* \"#utility.yul\":6895:6901   */\n      dup5\n        /* \"#utility.yul\":6813:6908   */\n      tag_148\n      jump\t// in\n    tag_172:\n        /* \"#utility.yul\":6806:6908   */\n      swap2\n      pop\n        /* \"#utility.yul\":6925:6928   */\n      dup2\n        /* \"#utility.yul\":6918:6928   */\n      swap1\n      pop\n        /* \"#utility.yul\":6659:6934   */\n      swap3\n      swap2\n      pop\n      pop\n      jump\t// out\n        /* \"#utility.yul\":6940:7462   */\n    tag_56:\n        /* \"#utility.yul\":7153:7156   */\n      0x00\n        /* \"#utility.yul\":7175:7323   */\n      tag_174\n        /* \"#utility.yul\":7319:7322   */\n      dup3\n        /* \"#utility.yul\":7175:7323   */\n      tag_156\n      jump\t// in\n    tag_174:\n        /* \"#utility.yul\":7168:7323   */\n      swap2\n      pop\n        /* \"#utility.yul\":7333:7408   */\n      tag_175\n        /* \"#utility.yul\":7404:7407   */\n      dup3\n        /* \"#utility.yul\":7395:7401   */\n      dup5\n        /* \"#utility.yul\":7333:7408   */\n      tag_143\n      jump\t// in\n    tag_175:\n        /* \"#utility.yul\":7433:7435   */\n      0x20\n        /* \"#utility.yul\":7428:7431   */\n      dup3\n        /* \"#utility.yul\":7424:7436   */\n      add\n        /* \"#utility.yul\":7417:7436   */\n      swap2\n      pop\n        /* \"#utility.yul\":7453:7456   */\n      dup2\n        /* \"#utility.yul\":7446:7456   */\n      swap1\n      pop\n        /* \"#utility.yul\":6940:7462   */\n      swap3\n      swap2\n      pop\n      pop\n      jump\t// out\n        /* \"#utility.yul\":7468:7690   */\n    tag_13:\n        /* \"#utility.yul\":7561:7565   */\n      0x00\n        /* \"#utility.yul\":7599:7601   */\n      0x20\n        /* \"#utility.yul\":7588:7597   */\n      dup3\n        /* \"#utility.yul\":7584:7602   */\n      add\n        /* \"#utility.yul\":7576:7602   */\n      swap1\n      pop\n        /* \"#utility.yul\":7612:7683   */\n      tag_177\n        /* \"#utility.yul\":7680:7681   */\n      0x00\n        /* \"#utility.yul\":7669:7678   */\n      dup4\n        /* \"#utility.yul\":7665:7682   */\n      add\n        /* \"#utility.yul\":7656:7662   */\n      dup5\n        /* \"#utility.yul\":7612:7683   */\n      tag_131\n      jump\t// in\n    tag_177:\n        /* \"#utility.yul\":7468:7690   */\n      swap3\n      swap2\n      pop\n      pop\n      jump\t// out\n        /* \"#utility.yul\":7696:7906   */\n    tag_19:\n        /* \"#utility.yul\":7783:7787   */\n      0x00\n        /* \"#utility.yul\":7821:7823   */\n      0x20\n        /* \"#utility.yul\":7810:7819   */\n      dup3\n        /* \"#utility.yul\":7806:7824   */\n      add\n        /* \"#utility.yul\":7798:7824   */\n      swap1\n      pop\n        /* \"#utility.yul\":7834:7899   */\n      tag_179\n        /* \"#utility.yul\":7896:7897   */\n      0x00\n        /* \"#utility.yul\":7885:7894   */\n      dup4\n        /* \"#utility.yul\":7881:7898   */\n      add\n        /* \"#utility.yul\":7872:7878   */\n      dup5\n        /* \"#utility.yul\":7834:7899   */\n      tag_135\n      jump\t// in\n    tag_179:\n        /* \"#utility.yul\":7696:7906   */\n      swap3\n      swap2\n      pop\n      pop\n      jump\t// out\n        /* \"#utility.yul\":7912:8134   */\n    tag_25:\n        /* \"#utility.yul\":8005:8009   */\n      0x00\n        /* \"#utility.yul\":8043:8045   */\n      0x20\n        /* \"#utility.yul\":8032:8041   */\n      dup3\n        /* \"#utility.yul\":8028:8046   */\n      add\n        /* \"#utility.yul\":8020:8046   */\n      swap1\n      pop\n        /* \"#utility.yul\":8056:8127   */\n      tag_181\n        /* \"#utility.yul\":8124:8125   */\n      0x00\n        /* \"#utility.yul\":8113:8122   */\n      dup4\n        /* \"#utility.yul\":8109:8126   */\n      add\n        /* \"#utility.yul\":8100:8106   */\n      dup5\n        /* \"#utility.yul\":8056:8127   */\n      tag_139\n      jump\t// in\n    tag_181:\n        /* \"#utility.yul\":7912:8134   */\n      swap3\n      swap2\n      pop\n      pop\n      jump\t// out\n        /* \"#utility.yul\":8140:8574   */\n    tag_31:\n        /* \"#utility.yul\":8285:8289   */\n      0x00\n        /* \"#utility.yul\":8323:8325   */\n      0x60\n        /* \"#utility.yul\":8312:8321   */\n      dup3\n        /* \"#utility.yul\":8308:8326   */\n      add\n        /* \"#utility.yul\":8300:8326   */\n      swap1\n      pop\n        /* \"#utility.yul\":8336:8407   */\n      tag_183\n        /* \"#utility.yul\":8404:8405   */\n      0x00\n        /* \"#utility.yul\":8393:8402   */\n      dup4\n        /* \"#utility.yul\":8389:8406   */\n      add\n        /* \"#utility.yul\":8380:8386   */\n      dup7\n        /* \"#utility.yul\":8336:8407   */\n      tag_139\n      jump\t// in\n    tag_183:\n        /* \"#utility.yul\":8417:8489   */\n      tag_184\n        /* \"#utility.yul\":8485:8487   */\n      0x20\n        /* \"#utility.yul\":8474:8483   */\n      dup4\n        /* \"#utility.yul\":8470:8488   */\n      add\n        /* \"#utility.yul\":8461:8467   */\n      dup6\n        /* \"#utility.yul\":8417:8489   */\n      tag_139\n      jump\t// in\n    tag_184:\n        /* \"#utility.yul\":8499:8567   */\n      tag_185\n        /* \"#utility.yul\":8563:8565   */\n      0x40\n        /* \"#utility.yul\":8552:8561   */\n      dup4\n        /* \"#utility.yul\":8548:8566   */\n      add\n        /* \"#utility.yul\":8539:8545   */\n      dup5\n        /* \"#utility.yul\":8499:8567   */\n      tag_167\n      jump\t// in\n    tag_185:\n        /* \"#utility.yul\":8140:8574   */\n      swap5\n      swap4\n      pop\n      pop\n      pop\n      pop\n      jump\t// out\n        /* \"#utility.yul\":8580:9125   */\n    tag_40:\n        /* \"#utility.yul\":8753:8757   */\n      0x00\n        /* \"#utility.yul\":8791:8794   */\n      0x80\n        /* \"#utility.yul\":8780:8789   */\n      dup3\n        /* \"#utility.yul\":8776:8795   */\n      add\n        /* \"#utility.yul\":8768:8795   */\n      swap1\n      pop\n        /* \"#utility.yul\":8805:8876   */\n      tag_187\n        /* \"#utility.yul\":8873:8874   */\n      0x00\n        /* \"#utility.yul\":8862:8871   */\n      dup4\n        /* \"#utility.yul\":8858:8875   */\n      add\n        /* \"#utility.yul\":8849:8855   */\n      dup8\n        /* \"#utility.yul\":8805:8876   */\n      tag_139\n      jump\t// in\n    tag_187:\n        /* \"#utility.yul\":8886:8954   */\n      tag_188\n        /* \"#utility.yul\":8950:8952   */\n      0x20\n        /* \"#utility.yul\":8939:8948   */\n      dup4\n        /* \"#utility.yul\":8935:8953   */\n      add\n        /* \"#utility.yul\":8926:8932   */\n      dup7\n        /* \"#utility.yul\":8886:8954   */\n      tag_167\n      jump\t// in\n    tag_188:\n        /* \"#utility.yul\":8964:9036   */\n      tag_189\n        /* \"#utility.yul\":9032:9034   */\n      0x40\n        /* \"#utility.yul\":9021:9030   */\n      dup4\n        /* \"#utility.yul\":9017:9035   */\n      add\n        /* \"#utility.yul\":9008:9014   */\n      dup6\n        /* \"#utility.yul\":8964:9036   */\n      tag_139\n      jump\t// in\n    tag_189:\n        /* \"#utility.yul\":9046:9118   */\n      tag_190\n        /* \"#utility.yul\":9114:9116   */\n      0x60\n        /* \"#utility.yul\":9103:9112   */\n      dup4\n        /* \"#utility.yul\":9099:9117   */\n      add\n        /* \"#utility.yul\":9090:9096   */\n      dup5\n        /* \"#utility.yul\":9046:9118   */\n      tag_139\n      jump\t// in\n    tag_190:\n        /* \"#utility.yul\":8580:9125   */\n      swap6\n      swap5\n      pop\n      pop\n      pop\n      pop\n      pop\n      jump\t// out\n        /* \"#utility.yul\":9131:9550   */\n    tag_53:\n        /* \"#utility.yul\":9297:9301   */\n      0x00\n        /* \"#utility.yul\":9335:9337   */\n      0x20\n        /* \"#utility.yul\":9324:9333   */\n      dup3\n        /* \"#utility.yul\":9320:9338   */\n      add\n        /* \"#utility.yul\":9312:9338   */\n      swap1\n      pop\n        /* \"#utility.yul\":9384:9393   */\n      dup2\n        /* \"#utility.yul\":9378:9382   */\n      dup2\n        /* \"#utility.yul\":9374:9394   */\n      sub\n        /* \"#utility.yul\":9370:9371   */\n      0x00\n        /* \"#utility.yul\":9359:9368   */\n      dup4\n        /* \"#utility.yul\":9355:9372   */\n      add\n        /* \"#utility.yul\":9348:9395   */\n      mstore\n        /* \"#utility.yul\":9412:9543   */\n      tag_192\n        /* \"#utility.yul\":9538:9542   */\n      dup2\n        /* \"#utility.yul\":9412:9543   */\n      tag_161\n      jump\t// in\n    tag_192:\n        /* \"#utility.yul\":9404:9543   */\n      swap1\n      pop\n        /* \"#utility.yul\":9131:9550   */\n      swap2\n      swap1\n      pop\n      jump\t// out\n        /* \"#utility.yul\":9556:9685   */\n    tag_63:\n        /* \"#utility.yul\":9590:9596   */\n      0x00\n        /* \"#utility.yul\":9617:9637   */\n      tag_194\n      tag_195\n      jump\t// in\n    tag_194:\n        /* \"#utility.yul\":9607:9637   */\n      swap1\n      pop\n        /* \"#utility.yul\":9646:9679   */\n      tag_196\n        /* \"#utility.yul\":9674:9678   */\n      dup3\n        /* \"#utility.yul\":9666:9672   */\n      dup3\n        /* \"#utility.yul\":9646:9679   */\n      tag_197\n      jump\t// in\n    tag_196:\n        /* \"#utility.yul\":9556:9685   */\n      swap2\n      swap1\n      pop\n      jump\t// out\n        /* \"#utility.yul\":9691:9766   */\n    tag_195:\n        /* \"#utility.yul\":9724:9730   */\n      0x00\n        /* \"#utility.yul\":9757:9759   */\n      0x40\n        /* \"#utility.yul\":9751:9760   */\n      mload\n        /* \"#utility.yul\":9741:9760   */\n      swap1\n      pop\n        /* \"#utility.yul\":9691:9766   */\n      swap1\n      jump\t// out\n        /* \"#utility.yul\":9772:10079   */\n    tag_62:\n        /* \"#utility.yul\":9833:9837   */\n      0x00\n        /* \"#utility.yul\":9923:9941   */\n      0xffffffffffffffff\n        /* \"#utility.yul\":9915:9921   */\n      dup3\n        /* \"#utility.yul\":9912:9942   */\n      gt\n        /* \"#utility.yul\":9909:9965   */\n      iszero\n      tag_200\n      jumpi\n        /* \"#utility.yul\":9945:9963   */\n      tag_201\n      tag_202\n      jump\t// in\n    tag_201:\n        /* \"#utility.yul\":9909:9965   */\n    tag_200:\n        /* \"#utility.yul\":9983:10012   */\n      tag_203\n        /* \"#utility.yul\":10005:10011   */\n      dup3\n        /* \"#utility.yul\":9983:10012   */\n      tag_204\n      jump\t// in\n    tag_203:\n        /* \"#utility.yul\":9975:10012   */\n      swap1\n      pop\n        /* \"#utility.yul\":10067:10071   */\n      0x20\n        /* \"#utility.yul\":10061:10065   */\n      dup2\n        /* \"#utility.yul\":10057:10072   */\n      add\n        /* \"#utility.yul\":10049:10072   */\n      swap1\n      pop\n        /* \"#utility.yul\":9772:10079   */\n      swap2\n      swap1\n      pop\n      jump\t// out\n        /* \"#utility.yul\":10085:10393   */\n    tag_73:\n        /* \"#utility.yul\":10147:10151   */\n      0x00\n        /* \"#utility.yul\":10237:10255   */\n      0xffffffffffffffff\n        /* \"#utility.yul\":10229:10235   */\n      dup3\n        /* \"#utility.yul\":10226:10256   */\n      gt\n        /* \"#utility.yul\":10223:10279   */\n      iszero\n      tag_206\n      jumpi\n        /* \"#utility.yul\":10259:10277   */\n      tag_207\n      tag_202\n      jump\t// in\n    tag_207:\n        /* \"#utility.yul\":10223:10279   */\n    tag_206:\n        /* \"#utility.yul\":10297:10326   */\n      tag_208\n        /* \"#utility.yul\":10319:10325   */\n      dup3\n        /* \"#utility.yul\":10297:10326   */\n      tag_204\n      jump\t// in\n    tag_208:\n        /* \"#utility.yul\":10289:10326   */\n      swap1\n      pop\n        /* \"#utility.yul\":10381:10385   */\n      0x20\n        /* \"#utility.yul\":10375:10379   */\n      dup2\n        /* \"#utility.yul\":10371:10386   */\n      add\n        /* \"#utility.yul\":10363:10386   */\n      swap1\n      pop\n        /* \"#utility.yul\":10085:10393   */\n      swap2\n      swap1\n      pop\n      jump\t// out\n        /* \"#utility.yul\":10399:10498   */\n    tag_151:\n        /* \"#utility.yul\":10451:10457   */\n      0x00\n        /* \"#utility.yul\":10485:10490   */\n      dup2\n        /* \"#utility.yul\":10479:10491   */\n      mload\n        /* \"#utility.yul\":10469:10491   */\n      swap1\n      pop\n        /* \"#utility.yul\":10399:10498   */\n      swap2\n      swap1\n      pop\n      jump\t// out\n        /* \"#utility.yul\":10504:10673   */\n    tag_164:\n        /* \"#utility.yul\":10588:10599   */\n      0x00\n        /* \"#utility.yul\":10622:10628   */\n      dup3\n        /* \"#utility.yul\":10617:10620   */\n      dup3\n        /* \"#utility.yul\":10610:10629   */\n      mstore\n        /* \"#utility.yul\":10662:10666   */\n      0x20\n        /* \"#utility.yul\":10657:10660   */\n      dup3\n        /* \"#utility.yul\":10653:10667   */\n      add\n        /* \"#utility.yul\":10638:10667   */\n      swap1\n      pop\n        /* \"#utility.yul\":10504:10673   */\n      swap3\n      swap2\n      pop\n      pop\n      jump\t// out\n        /* \"#utility.yul\":10679:10827   */\n    tag_153:\n        /* \"#utility.yul\":10781:10792   */\n      0x00\n        /* \"#utility.yul\":10818:10821   */\n      dup2\n        /* \"#utility.yul\":10803:10821   */\n      swap1\n      pop\n        /* \"#utility.yul\":10679:10827   */\n      swap3\n      swap2\n      pop\n      pop\n      jump\t// out\n        /* \"#utility.yul\":10833:10929   */\n    tag_134:\n        /* \"#utility.yul\":10870:10877   */\n      0x00\n        /* \"#utility.yul\":10899:10923   */\n      tag_213\n        /* \"#utility.yul\":10917:10922   */\n      dup3\n        /* \"#utility.yul\":10899:10923   */\n      tag_214\n      jump\t// in\n    tag_213:\n        /* \"#utility.yul\":10888:10923   */\n      swap1\n      pop\n        /* \"#utility.yul\":10833:10929   */\n      swap2\n      swap1\n      pop\n      jump\t// out\n        /* \"#utility.yul\":10935:11025   */\n    tag_138:\n        /* \"#utility.yul\":10969:10976   */\n      0x00\n        /* \"#utility.yul\":11012:11017   */\n      dup2\n        /* \"#utility.yul\":11005:11018   */\n      iszero\n        /* \"#utility.yul\":10998:11019   */\n      iszero\n        /* \"#utility.yul\":10987:11019   */\n      swap1\n      pop\n        /* \"#utility.yul\":10935:11025   */\n      swap2\n      swap1\n      pop\n      jump\t// out\n        /* \"#utility.yul\":11031:11108   */\n    tag_142:\n        /* \"#utility.yul\":11068:11075   */\n      0x00\n        /* \"#utility.yul\":11097:11102   */\n      dup2\n        /* \"#utility.yul\":11086:11102   */\n      swap1\n      pop\n        /* \"#utility.yul\":11031:11108   */\n      swap2\n      swap1\n      pop\n      jump\t// out\n        /* \"#utility.yul\":11114:11240   */\n    tag_214:\n        /* \"#utility.yul\":11151:11158   */\n      0x00\n        /* \"#utility.yul\":11191:11233   */\n      0xffffffffffffffffffffffffffffffffffffffff\n        /* \"#utility.yul\":11184:11189   */\n      dup3\n        /* \"#utility.yul\":11180:11234   */\n      and\n        /* \"#utility.yul\":11169:11234   */\n      swap1\n      pop\n        /* \"#utility.yul\":11114:11240   */\n      swap2\n      swap1\n      pop\n      jump\t// out\n        /* \"#utility.yul\":11246:11332   */\n    tag_170:\n        /* \"#utility.yul\":11281:11288   */\n      0x00\n        /* \"#utility.yul\":11321:11325   */\n      0xff\n        /* \"#utility.yul\":11314:11319   */\n      dup3\n        /* \"#utility.yul\":11310:11326   */\n      and\n        /* \"#utility.yul\":11299:11326   */\n      swap1\n      pop\n        /* \"#utility.yul\":11246:11332   */\n      swap2\n      swap1\n      pop\n      jump\t// out\n        /* \"#utility.yul\":11338:11492   */\n    tag_68:\n        /* \"#utility.yul\":11422:11428   */\n      dup3\n        /* \"#utility.yul\":11417:11420   */\n      dup2\n        /* \"#utility.yul\":11412:11415   */\n      dup4\n        /* \"#utility.yul\":11399:11429   */\n      calldatacopy\n        /* \"#utility.yul\":11484:11485   */\n      0x00\n        /* \"#utility.yul\":11475:11481   */\n      dup4\n        /* \"#utility.yul\":11470:11473   */\n      dup4\n        /* \"#utility.yul\":11466:11482   */\n      add\n        /* \"#utility.yul\":11459:11486   */\n      mstore\n        /* \"#utility.yul\":11338:11492   */\n      pop\n      pop\n      pop\n      jump\t// out\n        /* \"#utility.yul\":11498:11805   */\n    tag_155:\n        /* \"#utility.yul\":11566:11567   */\n      0x00\n        /* \"#utility.yul\":11576:11689   */\n    tag_221:\n        /* \"#utility.yul\":11590:11596   */\n      dup4\n        /* \"#utility.yul\":11587:11588   */\n      dup2\n        /* \"#utility.yul\":11584:11597   */\n      lt\n        /* \"#utility.yul\":11576:11689   */\n      iszero\n      tag_223\n      jumpi\n        /* \"#utility.yul\":11675:11676   */\n      dup1\n        /* \"#utility.yul\":11670:11673   */\n      dup3\n        /* \"#utility.yul\":11666:11677   */\n      add\n        /* \"#utility.yul\":11660:11678   */\n      mload\n        /* \"#utility.yul\":11656:11657   */\n      dup2\n        /* \"#utility.yul\":11651:11654   */\n      dup5\n        /* \"#utility.yul\":11647:11658   */\n      add\n        /* \"#utility.yul\":11640:11679   */\n      mstore\n        /* \"#utility.yul\":11612:11614   */\n      0x20\n        /* \"#utility.yul\":11609:11610   */\n      dup2\n        /* \"#utility.yul\":11605:11615   */\n      add\n        /* \"#utility.yul\":11600:11615   */\n      swap1\n      pop\n        /* \"#utility.yul\":11576:11689   */\n      jump(tag_221)\n    tag_223:\n        /* \"#utility.yul\":11707:11713   */\n      dup4\n        /* \"#utility.yul\":11704:11705   */\n      dup2\n        /* \"#utility.yul\":11701:11714   */\n      gt\n        /* \"#utility.yul\":11698:11799   */\n      iszero\n      tag_224\n      jumpi\n        /* \"#utility.yul\":11787:11788   */\n      0x00\n        /* \"#utility.yul\":11778:11784   */\n      dup5\n        /* \"#utility.yul\":11773:11776   */\n      dup5\n        /* \"#utility.yul\":11769:11785   */\n      add\n        /* \"#utility.yul\":11762:11789   */\n      mstore\n        /* \"#utility.yul\":11698:11799   */\n    tag_224:\n        /* \"#utility.yul\":11547:11805   */\n      pop\n        /* \"#utility.yul\":11498:11805   */\n      pop\n      pop\n      pop\n      jump\t// out\n        /* \"#utility.yul\":11811:12092   */\n    tag_197:\n        /* \"#utility.yul\":11894:11921   */\n      tag_226\n        /* \"#utility.yul\":11916:11920   */\n      dup3\n        /* \"#utility.yul\":11894:11921   */\n      tag_204\n      jump\t// in\n    tag_226:\n        /* \"#utility.yul\":11886:11892   */\n      dup2\n        /* \"#utility.yul\":11882:11922   */\n      add\n        /* \"#utility.yul\":12024:12030   */\n      dup2\n        /* \"#utility.yul\":12012:12022   */\n      dup2\n        /* \"#utility.yul\":12009:12031   */\n      lt\n        /* \"#utility.yul\":11988:12006   */\n      0xffffffffffffffff\n        /* \"#utility.yul\":11976:11986   */\n      dup3\n        /* \"#utility.yul\":11973:12007   */\n      gt\n        /* \"#utility.yul\":11970:12032   */\n      or\n        /* \"#utility.yul\":11967:12055   */\n      iszero\n      tag_227\n      jumpi\n        /* \"#utility.yul\":12035:12053   */\n      tag_228\n      tag_202\n      jump\t// in\n    tag_228:\n        /* \"#utility.yul\":11967:12055   */\n    tag_227:\n        /* \"#utility.yul\":12075:12085   */\n      dup1\n        /* \"#utility.yul\":12071:12073   */\n      0x40\n        /* \"#utility.yul\":12064:12086   */\n      mstore\n        /* \"#utility.yul\":11854:12092   */\n      pop\n        /* \"#utility.yul\":11811:12092   */\n      pop\n      pop\n      jump\t// out\n        /* \"#utility.yul\":12098:12177   */\n    tag_147:\n        /* \"#utility.yul\":12137:12144   */\n      0x00\n        /* \"#utility.yul\":12166:12171   */\n      dup2\n        /* \"#utility.yul\":12155:12171   */\n      swap1\n      pop\n        /* \"#utility.yul\":12098:12177   */\n      swap2\n      swap1\n      pop\n      jump\t// out\n        /* \"#utility.yul\":12183:12363   */\n    tag_202:\n        /* \"#utility.yul\":12231:12308   */\n      0x4e487b7100000000000000000000000000000000000000000000000000000000\n        /* \"#utility.yul\":12228:12229   */\n      0x00\n        /* \"#utility.yul\":12221:12309   */\n      mstore\n        /* \"#utility.yul\":12328:12332   */\n      0x41\n        /* \"#utility.yul\":12325:12326   */\n      0x04\n        /* \"#utility.yul\":12318:12333   */\n      mstore\n        /* \"#utility.yul\":12352:12356   */\n      0x24\n        /* \"#utility.yul\":12349:12350   */\n      0x00\n        /* \"#utility.yul\":12342:12357   */\n      revert\n        /* \"#utility.yul\":12369:12486   */\n    tag_89:\n        /* \"#utility.yul\":12478:12479   */\n      0x00\n        /* \"#utility.yul\":12475:12476   */\n      dup1\n        /* \"#utility.yul\":12468:12480   */\n      revert\n        /* \"#utility.yul\":12492:12609   */\n    tag_66:\n        /* \"#utility.yul\":12601:12602   */\n      0x00\n        /* \"#utility.yul\":12598:12599   */\n      dup1\n        /* \"#utility.yul\":12591:12603   */\n      revert\n        /* \"#utility.yul\":12615:12732   */\n    tag_103:\n        /* \"#utility.yul\":12724:12725   */\n      0x00\n        /* \"#utility.yul\":12721:12722   */\n      dup1\n        /* \"#utility.yul\":12714:12726   */\n      revert\n        /* \"#utility.yul\":12738:12855   */\n    tag_99:\n        /* \"#utility.yul\":12847:12848   */\n      0x00\n        /* \"#utility.yul\":12844:12845   */\n      dup1\n        /* \"#utility.yul\":12837:12849   */\n      revert\n        /* \"#utility.yul\":12861:12963   */\n    tag_204:\n        /* \"#utility.yul\":12902:12908   */\n      0x00\n        /* \"#utility.yul\":12953:12955   */\n      0x1f\n        /* \"#utility.yul\":12949:12956   */\n      not\n        /* \"#utility.yul\":12944:12946   */\n      0x1f\n        /* \"#utility.yul\":12937:12942   */\n      dup4\n        /* \"#utility.yul\":12933:12947   */\n      add\n        /* \"#utility.yul\":12929:12957   */\n      and\n        /* \"#utility.yul\":12919:12957   */\n      swap1\n      pop\n        /* \"#utility.yul\":12861:12963   */\n      swap2\n      swap1\n      pop\n      jump\t// out\n        /* \"#utility.yul\":12969:13183   */\n    tag_160:\n        /* \"#utility.yul\":13109:13175   */\n      0x19457468657265756d205369676e6564204d6573736167653a0a333200000000\n        /* \"#utility.yul\":13105:13106   */\n      0x00\n        /* \"#utility.yul\":13097:13103   */\n      dup3\n        /* \"#utility.yul\":13093:13107   */\n      add\n        /* \"#utility.yul\":13086:13176   */\n      mstore\n        /* \"#utility.yul\":12969:13183   */\n      pop\n      jump\t// out\n        /* \"#utility.yul\":13189:13363   */\n    tag_166:\n        /* \"#utility.yul\":13329:13355   */\n      0x696e76616c6964207369676e6174757265206c656e6774680000000000000000\n        /* \"#utility.yul\":13325:13326   */\n      0x00\n        /* \"#utility.yul\":13317:13323   */\n      dup3\n        /* \"#utility.yul\":13313:13327   */\n      add\n        /* \"#utility.yul\":13306:13356   */\n      mstore\n        /* \"#utility.yul\":13189:13363   */\n      pop\n      jump\t// out\n        /* \"#utility.yul\":13369:13491   */\n    tag_80:\n        /* \"#utility.yul\":13442:13466   */\n      tag_239\n        /* \"#utility.yul\":13460:13465   */\n      dup2\n        /* \"#utility.yul\":13442:13466   */\n      tag_134\n      jump\t// in\n    tag_239:\n        /* \"#utility.yul\":13435:13440   */\n      dup2\n        /* \"#utility.yul\":13432:13467   */\n      eq\n        /* \"#utility.yul\":13422:13485   */\n      tag_240\n      jumpi\n        /* \"#utility.yul\":13481:13482   */\n      0x00\n        /* \"#utility.yul\":13478:13479   */\n      dup1\n        /* \"#utility.yul\":13471:13483   */\n      revert\n        /* \"#utility.yul\":13422:13485   */\n    tag_240:\n        /* \"#utility.yul\":13369:13491   */\n      pop\n      jump\t// out\n        /* \"#utility.yul\":13497:13619   */\n    tag_84:\n        /* \"#utility.yul\":13570:13594   */\n      tag_242\n        /* \"#utility.yul\":13588:13593   */\n      dup2\n        /* \"#utility.yul\":13570:13594   */\n      tag_142\n      jump\t// in\n    tag_242:\n        /* \"#utility.yul\":13563:13568   */\n      dup2\n        /* \"#utility.yul\":13560:13595   */\n      eq\n        /* \"#utility.yul\":13550:13613   */\n      tag_243\n      jumpi\n        /* \"#utility.yul\":13609:13610   */\n      0x00\n        /* \"#utility.yul\":13606:13607   */\n      dup1\n        /* \"#utility.yul\":13599:13611   */\n      revert\n        /* \"#utility.yul\":13550:13613   */\n    tag_243:\n        /* \"#utility.yul\":13497:13619   */\n      pop\n      jump\t// out\n\n    auxdata: 0xa26469706673582212201a0e4904be1ed0cba797e34d7d0fbf10582e36b436169440d81411809c99ea3864736f6c63430008070033\n}\n",
				"bytecode": {
					"linkReferences": {},
					"object": "608060405234801561001057600080fd5b506109fa806100206000396000f3fe608060405234801561001057600080fd5b50600436106100575760003560e01c806319045a251461005c5780632dd34f0f1461008c578063b446f3b2146100bc578063e15a245a146100ec578063fa5408011461011e575b600080fd5b6100766004803603810190610071919061048e565b61014e565b6040516100839190610683565b60405180910390f35b6100a660048036038101906100a191906103d6565b6101bd565b6040516100b3919061069e565b60405180910390f35b6100d660048036038101906100d19190610533565b610204565b6040516100e391906106b9565b60405180910390f35b610106600480360381019061010191906104ea565b610234565b604051610115939291906106d4565b60405180910390f35b61013860048036038101906101339190610461565b61029c565b60405161014591906106b9565b60405180910390f35b60008060008061015d85610234565b92509250925060018682858560405160008152602001604052604051610186949392919061070b565b6020604051602081039080840390855afa1580156101a8573d6000803e3d6000fd5b50505060206040510351935050505092915050565b6000806101c984610204565b905060006101d68261029c565b90508573ffffffffffffffffffffffffffffffffffffffff166101f9828661014e565b505050509392505050565b6000816040516020016102179190610646565b604051602081830303815290604052805190602001209050919050565b6000806000604184511461027d576040517f08c379a000000000000000000000000000000000000000000000000000000000815260040161027490610750565b60405180910390fd5b6020840151925060408401519150606084015160001a90509193909250565b6000816040516020016102af919061065d565b604051602081830303815290604052805190602001209050919050565b60006102df6102da84610795565b610770565b9050828152602081018484840111156102fb576102fa610924565b5b610306848285610873565b509392505050565b600061032161031c846107c6565b610770565b90508281526020810184848401111561033d5761033c610924565b5b610348848285610873565b509392505050565b60008135905061035f81610996565b92915050565b600081359050610374816109ad565b92915050565b600082601f83011261038f5761038e61091f565b5b813561039f8482602086016102cc565b91505092915050565b600082601f8301126103bd576103bc61091f565b5b81356103cd84826020860161030e565b91505092915050565b6000806000606084860312156103ef576103ee61092e565b5b60006103fd86828701610350565b935050602084013567ffffffffffffffff81111561041e5761041d610929565b5b61042a868287016103a8565b925050604084013567ffffffffffffffff81111561044b5761044a610929565b5b6104578682870161037a565b9150509250925092565b6000602082840312156104775761047661092e565b5b600061048584828501610365565b91505092915050565b600080604083850312156104a5576104a461092e565b5b60006104b385828601610365565b925050602083013567ffffffffffffffff8111156104d4576104d3610929565b5b6104e08582860161037a565b9150509250929050565b600060208284031215610500576104ff61092e565b5b600082013567ffffffffffffffff81111561051e5761051d610929565b5b61052a8482850161037a565b91505092915050565b6000602082840312156105495761054861092e565b5b600082013567ffffffffffffffff81111561056757610566610929565b5b610573848285016103a8565b91505092915050565b6105858161081e565b82525050565b61059481610830565b82525050565b6105a38161083c565b82525050565b6105ba6105b58261083c565b6108e6565b82525050565b60006105cb826107f7565b6105d58185610813565b93506105e5818560208601610882565b80840191505092915050565b60006105fe601c83610813565b915061060982610944565b601c82019050919050565b6000610621601883610802565b915061062c8261096d565b602082019050919050565b61064081610866565b82525050565b600061065282846105c0565b915081905092915050565b6000610668826105f1565b915061067482846105a9565b60208201915081905092915050565b6000602082019050610698600083018461057c565b92915050565b60006020820190506106b3600083018461058b565b92915050565b60006020820190506106ce600083018461059a565b92915050565b60006060820190506106e9600083018661059a565b6106f6602083018561059a565b6107036040830184610637565b949350505050565b6000608082019050610720600083018761059a565b61072d6020830186610637565b61073a604083018561059a565b610747606083018461059a565b95945050505050565b6000602082019050818103600083015261076981610614565b9050919050565b600061077a61078b565b905061078682826108b5565b919050565b6000604051905090565b600067ffffffffffffffff8211156107b0576107af6108f0565b5b6107b982610933565b9050602081019050919050565b600067ffffffffffffffff8211156107e1576107e06108f0565b5b6107ea82610933565b9050602081019050919050565b600081519050919050565b600082825260208201905092915050565b600081905092915050565b600061082982610846565b9050919050565b60008115159050919050565b6000819050919050565b600073ffffffffffffffffffffffffffffffffffffffff82169050919050565b600060ff82169050919050565b82818337600083830152505050565b60005b838110156108a0578082015181840152602081019050610885565b838111156108af576000848401525b50505050565b6108be82610933565b810181811067ffffffffffffffff821117156108dd576108dc6108f0565b5b80604052505050565b6000819050919050565b7f4e487b7100000000000000000000000000000000000000000000000000000000600052604160045260246000fd5b600080fd5b600080fd5b600080fd5b600080fd5b6000601f19601f8301169050919050565b7f19457468657265756d205369676e6564204d6573736167653a0a333200000000600082015250565b7f696e76616c6964207369676e6174757265206c656e6774680000000000000000600082015250565b61099f8161081e565b81146109aa57600080fd5b50565b6109b68161083c565b81146109c157600080fd5b5056fea26469706673582212201a0e4904be1ed0cba797e34d7d0fbf10582e36b436169440d81411809c99ea3864736f6c63430008070033",
					"opcodes": "PUSH1 0x80 PUSH1 0x40 MSTORE CALLVALUE DUP1 ISZERO PUSH2 0x10 JUMPI PUSH1 0x0 DUP1 REVERT JUMPDEST POP PUSH2 0x9FA DUP1 PUSH2 0x20 PUSH1 0x0 CODECOPY PUSH1 0x0 RETURN INVALID PUSH1 0x80 PUSH1 0x40 MSTORE CALLVALUE DUP1 ISZERO PUSH2 0x10 JUMPI PUSH1 0x0 DUP1 REVERT JUMPDEST POP PUSH1 0x4 CALLDATASIZE LT PUSH2 0x57 JUMPI PUSH1 0x0 CALLDATALOAD PUSH1 0xE0 SHR DUP1 PUSH4 0x19045A25 EQ PUSH2 0x5C JUMPI DUP1 PUSH4 0x2DD34F0F EQ PUSH2 0x8C JUMPI DUP1 PUSH4 0xB446F3B2 EQ PUSH2 0xBC JUMPI DUP1 PUSH4 0xE15A245A EQ PUSH2 0xEC JUMPI DUP1 PUSH4 0xFA540801 EQ PUSH2 0x11E JUMPI JUMPDEST PUSH1 0x0 DUP1 REVERT JUMPDEST PUSH2 0x76 PUSH1 0x4 DUP1 CALLDATASIZE SUB DUP2 ADD SWAP1 PUSH2 0x71 SWAP2 SWAP1 PUSH2 0x48E JUMP JUMPDEST PUSH2 0x14E JUMP JUMPDEST PUSH1 0x40 MLOAD PUSH2 0x83 SWAP2 SWAP1 PUSH2 0x683 JUMP JUMPDEST PUSH1 0x40 MLOAD DUP1 SWAP2 SUB SWAP1 RETURN JUMPDEST PUSH2 0xA6 PUSH1 0x4 DUP1 CALLDATASIZE SUB DUP2 ADD SWAP1 PUSH2 0xA1 SWAP2 SWAP1 PUSH2 0x3D6 JUMP JUMPDEST PUSH2 0x1BD JUMP JUMPDEST PUSH1 0x40 MLOAD PUSH2 0xB3 SWAP2 SWAP1 PUSH2 0x69E JUMP JUMPDEST PUSH1 0x40 MLOAD DUP1 SWAP2 SUB SWAP1 RETURN JUMPDEST PUSH2 0xD6 PUSH1 0x4 DUP1 CALLDATASIZE SUB DUP2 ADD SWAP1 PUSH2 0xD1 SWAP2 SWAP1 PUSH2 0x533 JUMP JUMPDEST PUSH2 0x204 JUMP JUMPDEST PUSH1 0x40 MLOAD PUSH2 0xE3 SWAP2 SWAP1 PUSH2 0x6B9 JUMP JUMPDEST PUSH1 0x40 MLOAD DUP1 SWAP2 SUB SWAP1 RETURN JUMPDEST PUSH2 0x106 PUSH1 0x4 DUP1 CALLDATASIZE SUB DUP2 ADD SWAP1 PUSH2 0x101 SWAP2 SWAP1 PUSH2 0x4EA JUMP JUMPDEST PUSH2 0x234 JUMP JUMPDEST PUSH1 0x40 MLOAD PUSH2 0x115 SWAP4 SWAP3 SWAP2 SWAP1 PUSH2 0x6D4 JUMP JUMPDEST PUSH1 0x40 MLOAD DUP1 SWAP2 SUB SWAP1 RETURN JUMPDEST PUSH2 0x138 PUSH1 0x4 DUP1 CALLDATASIZE SUB DUP2 ADD SWAP1 PUSH2 0x133 SWAP2 SWAP1 PUSH2 0x461 JUMP JUMPDEST PUSH2 0x29C JUMP JUMPDEST PUSH1 0x40 MLOAD PUSH2 0x145 SWAP2 SWAP1 PUSH2 0x6B9 JUMP JUMPDEST PUSH1 0x40 MLOAD DUP1 SWAP2 SUB SWAP1 RETURN JUMPDEST PUSH1 0x0 DUP1 PUSH1 0x0 DUP1 PUSH2 0x15D DUP6 PUSH2 0x234 JUMP JUMPDEST SWAP3 POP SWAP3 POP SWAP3 POP PUSH1 0x1 DUP7 DUP3 DUP6 DUP6 PUSH1 0x40 MLOAD PUSH1 0x0 DUP2 MSTORE PUSH1 0x20 ADD PUSH1 0x40 MSTORE PUSH1 0x40 MLOAD PUSH2 0x186 SWAP5 SWAP4 SWAP3 SWAP2 SWAP1 PUSH2 0x70B JUMP JUMPDEST PUSH1 0x20 PUSH1 0x40 MLOAD PUSH1 0x20 DUP2 SUB SWAP1 DUP1 DUP5 SUB SWAP1 DUP6 GAS STATICCALL ISZERO DUP1 ISZERO PUSH2 0x1A8 JUMPI RETURNDATASIZE PUSH1 0x0 DUP1 RETURNDATACOPY RETURNDATASIZE PUSH1 0x0 REVERT JUMPDEST POP POP POP PUSH1 0x20 PUSH1 0x40 MLOAD SUB MLOAD SWAP4 POP POP POP POP SWAP3 SWAP2 POP POP JUMP JUMPDEST PUSH1 0x0 DUP1 PUSH2 0x1C9 DUP5 PUSH2 0x204 JUMP JUMPDEST SWAP1 POP PUSH1 0x0 PUSH2 0x1D6 DUP3 PUSH2 0x29C JUMP JUMPDEST SWAP1 POP DUP6 PUSH20 0xFFFFFFFFFFFFFFFFFFFFFFFFFFFFFFFFFFFFFFFF AND PUSH2 0x1F9 DUP3 DUP7 PUSH2 0x14E JUMP JUMPDEST POP POP POP POP SWAP4 SWAP3 POP POP POP JUMP JUMPDEST PUSH1 0x0 DUP2 PUSH1 0x40 MLOAD PUSH1 0x20 ADD PUSH2 0x217 SWAP2 SWAP1 PUSH2 0x646 JUMP JUMPDEST PUSH1 0x40 MLOAD PUSH1 0x20 DUP2 DUP4 SUB SUB DUP2 MSTORE SWAP1 PUSH1 0x40 MSTORE DUP1 MLOAD SWAP1 PUSH1 0x20 ADD KECCAK256 SWAP1 POP SWAP2 SWAP1 POP JUMP JUMPDEST PUSH1 0x0 DUP1 PUSH1 0x0 PUSH1 0x41 DUP5 MLOAD EQ PUSH2 0x27D JUMPI PUSH1 0x40 MLOAD PUSH32 0x8C379A000000000000000000000000000000000000000000000000000000000 DUP2 MSTORE PUSH1 0x4 ADD PUSH2 0x274 SWAP1 PUSH2 0x750 JUMP JUMPDEST PUSH1 0x40 MLOAD DUP1 SWAP2 SUB SWAP1 REVERT JUMPDEST PUSH1 0x20 DUP5 ADD MLOAD SWAP3 POP PUSH1 0x40 DUP5 ADD MLOAD SWAP2 POP PUSH1 0x60 DUP5 ADD MLOAD PUSH1 0x0 BYTE SWAP1 POP SWAP2 SWAP4 SWAP1 SWAP3 POP JUMP JUMPDEST PUSH1 0x0 DUP2 PUSH1 0x40 MLOAD PUSH1 0x20 ADD PUSH2 0x2AF SWAP2 SWAP1 PUSH2 0x65D JUMP JUMPDEST PUSH1 0x40 MLOAD PUSH1 0x20 DUP2 DUP4 SUB SUB DUP2 MSTORE SWAP1 PUSH1 0x40 MSTORE DUP1 MLOAD SWAP1 PUSH1 0x20 ADD KECCAK256 SWAP1 POP SWAP2 SWAP1 POP JUMP JUMPDEST PUSH1 0x0 PUSH2 0x2DF PUSH2 0x2DA DUP5 PUSH2 0x795 JUMP JUMPDEST PUSH2 0x770 JUMP JUMPDEST SWAP1 POP DUP3 DUP2 MSTORE PUSH1 0x20 DUP2 ADD DUP5 DUP5 DUP5 ADD GT ISZERO PUSH2 0x2FB JUMPI PUSH2 0x2FA PUSH2 0x924 JUMP JUMPDEST JUMPDEST PUSH2 0x306 DUP5 DUP3 DUP6 PUSH2 0x873 JUMP JUMPDEST POP SWAP4 SWAP3 POP POP POP JUMP JUMPDEST PUSH1 0x0 PUSH2 0x321 PUSH2 0x31C DUP5 PUSH2 0x7C6 JUMP JUMPDEST PUSH2 0x770 JUMP JUMPDEST SWAP1 POP DUP3 DUP2 MSTORE PUSH1 0x20 DUP2 ADD DUP5 DUP5 DUP5 ADD GT ISZERO PUSH2 0x33D JUMPI PUSH2 0x33C PUSH2 0x924 JUMP JUMPDEST JUMPDEST PUSH2 0x348 DUP5 DUP3 DUP6 PUSH2 0x873 JUMP JUMPDEST POP SWAP4 SWAP3 POP POP POP JUMP JUMPDEST PUSH1 0x0 DUP2 CALLDATALOAD SWAP1 POP PUSH2 0x35F DUP2 PUSH2 0x996 JUMP JUMPDEST SWAP3 SWAP2 POP POP JUMP JUMPDEST PUSH1 0x0 DUP2 CALLDATALOAD SWAP1 POP PUSH2 0x374 DUP2 PUSH2 0x9AD JUMP JUMPDEST SWAP3 SWAP2 POP POP JUMP JUMPDEST PUSH1 0x0 DUP3 PUSH1 0x1F DUP4 ADD SLT PUSH2 0x38F JUMPI PUSH2 0x38E PUSH2 0x91F JUMP JUMPDEST JUMPDEST DUP2 CALLDATALOAD PUSH2 0x39F DUP5 DUP3 PUSH1 0x20 DUP7 ADD PUSH2 0x2CC JUMP JUMPDEST SWAP2 POP POP SWAP3 SWAP2 POP POP JUMP JUMPDEST PUSH1 0x0 DUP3 PUSH1 0x1F DUP4 ADD SLT PUSH2 0x3BD JUMPI PUSH2 0x3BC PUSH2 0x91F JUMP JUMPDEST JUMPDEST DUP2 CALLDATALOAD PUSH2 0x3CD DUP5 DUP3 PUSH1 0x20 DUP7 ADD PUSH2 0x30E JUMP JUMPDEST SWAP2 POP POP SWAP3 SWAP2 POP POP JUMP JUMPDEST PUSH1 0x0 DUP1 PUSH1 0x0 PUSH1 0x60 DUP5 DUP7 SUB SLT ISZERO PUSH2 0x3EF JUMPI PUSH2 0x3EE PUSH2 0x92E JUMP JUMPDEST JUMPDEST PUSH1 0x0 PUSH2 0x3FD DUP7 DUP3 DUP8 ADD PUSH2 0x350 JUMP JUMPDEST SWAP4 POP POP PUSH1 0x20 DUP5 ADD CALLDATALOAD PUSH8 0xFFFFFFFFFFFFFFFF DUP2 GT ISZERO PUSH2 0x41E JUMPI PUSH2 0x41D PUSH2 0x929 JUMP JUMPDEST JUMPDEST PUSH2 0x42A DUP7 DUP3 DUP8 ADD PUSH2 0x3A8 JUMP JUMPDEST SWAP3 POP POP PUSH1 0x40 DUP5 ADD CALLDATALOAD PUSH8 0xFFFFFFFFFFFFFFFF DUP2 GT ISZERO PUSH2 0x44B JUMPI PUSH2 0x44A PUSH2 0x929 JUMP JUMPDEST JUMPDEST PUSH2 0x457 DUP7 DUP3 DUP8 ADD PUSH2 0x37A JUMP JUMPDEST SWAP2 POP POP SWAP3 POP SWAP3 POP SWAP3 JUMP JUMPDEST PUSH1 0x0 PUSH1 0x20 DUP3 DUP5 SUB SLT ISZERO PUSH2 0x477 JUMPI PUSH2 0x476 PUSH2 0x92E JUMP JUMPDEST JUMPDEST PUSH1 0x0 PUSH2 0x485 DUP5 DUP3 DUP6 ADD PUSH2 0x365 JUMP JUMPDEST SWAP2 POP POP SWAP3 SWAP2 POP POP JUMP JUMPDEST PUSH1 0x0 DUP1 PUSH1 0x40 DUP4 DUP6 SUB SLT ISZERO PUSH2 0x4A5 JUMPI PUSH2 0x4A4 PUSH2 0x92E JUMP JUMPDEST JUMPDEST PUSH1 0x0 PUSH2 0x4B3 DUP6 DUP3 DUP7 ADD PUSH2 0x365 JUMP JUMPDEST SWAP3 POP POP PUSH1 0x20 DUP4 ADD CALLDATALOAD PUSH8 0xFFFFFFFFFFFFFFFF DUP2 GT ISZERO PUSH2 0x4D4 JUMPI PUSH2 0x4D3 PUSH2 0x929 JUMP JUMPDEST JUMPDEST PUSH2 0x4E0 DUP6 DUP3 DUP7 ADD PUSH2 0x37A JUMP JUMPDEST SWAP2 POP POP SWAP3 POP SWAP3 SWAP1 POP JUMP JUMPDEST PUSH1 0x0 PUSH1 0x20 DUP3 DUP5 SUB SLT ISZERO PUSH2 0x500 JUMPI PUSH2 0x4FF PUSH2 0x92E JUMP JUMPDEST JUMPDEST PUSH1 0x0 DUP3 ADD CALLDATALOAD PUSH8 0xFFFFFFFFFFFFFFFF DUP2 GT ISZERO PUSH2 0x51E JUMPI PUSH2 0x51D PUSH2 0x929 JUMP JUMPDEST JUMPDEST PUSH2 0x52A DUP5 DUP3 DUP6 ADD PUSH2 0x37A JUMP JUMPDEST SWAP2 POP POP SWAP3 SWAP2 POP POP JUMP JUMPDEST PUSH1 0x0 PUSH1 0x20 DUP3 DUP5 SUB SLT ISZERO PUSH2 0x549 JUMPI PUSH2 0x548 PUSH2 0x92E JUMP JUMPDEST JUMPDEST PUSH1 0x0 DUP3 ADD CALLDATALOAD PUSH8 0xFFFFFFFFFFFFFFFF DUP2 GT ISZERO PUSH2 0x567 JUMPI PUSH2 0x566 PUSH2 0x929 JUMP JUMPDEST JUMPDEST PUSH2 0x573 DUP5 DUP3 DUP6 ADD PUSH2 0x3A8 JUMP JUMPDEST SWAP2 POP POP SWAP3 SWAP2 POP POP JUMP JUMPDEST PUSH2 0x585 DUP2 PUSH2 0x81E JUMP JUMPDEST DUP3 MSTORE POP POP JUMP JUMPDEST PUSH2 0x594 DUP2 PUSH2 0x830 JUMP JUMPDEST DUP3 MSTORE POP POP JUMP JUMPDEST PUSH2 0x5A3 DUP2 PUSH2 0x83C JUMP JUMPDEST DUP3 MSTORE POP POP JUMP JUMPDEST PUSH2 0x5BA PUSH2 0x5B5 DUP3 PUSH2 0x83C JUMP JUMPDEST PUSH2 0x8E6 JUMP JUMPDEST DUP3 MSTORE POP POP JUMP JUMPDEST PUSH1 0x0 PUSH2 0x5CB DUP3 PUSH2 0x7F7 JUMP JUMPDEST PUSH2 0x5D5 DUP2 DUP6 PUSH2 0x813 JUMP JUMPDEST SWAP4 POP PUSH2 0x5E5 DUP2 DUP6 PUSH1 0x20 DUP7 ADD PUSH2 0x882 JUMP JUMPDEST DUP1 DUP5 ADD SWAP2 POP POP SWAP3 SWAP2 POP POP JUMP JUMPDEST PUSH1 0x0 PUSH2 0x5FE PUSH1 0x1C DUP4 PUSH2 0x813 JUMP JUMPDEST SWAP2 POP PUSH2 0x609 DUP3 PUSH2 0x944 JUMP JUMPDEST PUSH1 0x1C DUP3 ADD SWAP1 POP SWAP2 SWAP1 POP JUMP JUMPDEST PUSH1 0x0 PUSH2 0x621 PUSH1 0x18 DUP4 PUSH2 0x802 JUMP JUMPDEST SWAP2 POP PUSH2 0x62C DUP3 PUSH2 0x96D JUMP JUMPDEST PUSH1 0x20 DUP3 ADD SWAP1 POP SWAP2 SWAP1 POP JUMP JUMPDEST PUSH2 0x640 DUP2 PUSH2 0x866 JUMP JUMPDEST DUP3 MSTORE POP POP JUMP JUMPDEST PUSH1 0x0 PUSH2 0x652 DUP3 DUP5 PUSH2 0x5C0 JUMP JUMPDEST SWAP2 POP DUP2 SWAP1 POP SWAP3 SWAP2 POP POP JUMP JUMPDEST PUSH1 0x0 PUSH2 0x668 DUP3 PUSH2 0x5F1 JUMP JUMPDEST SWAP2 POP PUSH2 0x674 DUP3 DUP5 PUSH2 0x5A9 JUMP JUMPDEST PUSH1 0x20 DUP3 ADD SWAP2 POP DUP2 SWAP1 POP SWAP3 SWAP2 POP POP JUMP JUMPDEST PUSH1 0x0 PUSH1 0x20 DUP3 ADD SWAP1 POP PUSH2 0x698 PUSH1 0x0 DUP4 ADD DUP5 PUSH2 0x57C JUMP JUMPDEST SWAP3 SWAP2 POP POP JUMP JUMPDEST PUSH1 0x0 PUSH1 0x20 DUP3 ADD SWAP1 POP PUSH2 0x6B3 PUSH1 0x0 DUP4 ADD DUP5 PUSH2 0x58B JUMP JUMPDEST SWAP3 SWAP2 POP POP JUMP JUMPDEST PUSH1 0x0 PUSH1 0x20 DUP3 ADD SWAP1 POP PUSH2 0x6CE PUSH1 0x0 DUP4 ADD DUP5 PUSH2 0x59A JUMP JUMPDEST SWAP3 SWAP2 POP POP JUMP JUMPDEST PUSH1 0x0 PUSH1 0x60 DUP3 ADD SWAP1 POP PUSH2 0x6E9 PUSH1 0x0 DUP4 ADD DUP7 PUSH2 0x59A JUMP JUMPDEST PUSH2 0x6F6 PUSH1 0x20 DUP4 ADD DUP6 PUSH2 0x59A JUMP JUMPDEST PUSH2 0x703 PUSH1 0x40 DUP4 ADD DUP5 PUSH2 0x637 JUMP JUMPDEST SWAP5 SWAP4 POP POP POP POP JUMP JUMPDEST PUSH1 0x0 PUSH1 0x80 DUP3 ADD SWAP1 POP PUSH2 0x720 PUSH1 0x0 DUP4 ADD DUP8 PUSH2 0x59A JUMP JUMPDEST PUSH2 0x72D PUSH1 0x20 DUP4 ADD DUP7 PUSH2 0x637 JUMP JUMPDEST PUSH2 0x73A PUSH1 0x40 DUP4 ADD DUP6 PUSH2 0x59A JUMP JUMPDEST PUSH2 0x747 PUSH1 0x60 DUP4 ADD DUP5 PUSH2 0x59A JUMP JUMPDEST SWAP6 SWAP5 POP POP POP POP POP JUMP JUMPDEST PUSH1 0x0 PUSH1 0x20 DUP3 ADD SWAP1 POP DUP2 DUP2 SUB PUSH1 0x0 DUP4 ADD MSTORE PUSH2 0x769 DUP2 PUSH2 0x614 JUMP JUMPDEST SWAP1 POP SWAP2 SWAP1 POP JUMP JUMPDEST PUSH1 0x0 PUSH2 0x77A PUSH2 0x78B JUMP JUMPDEST SWAP1 POP PUSH2 0x786 DUP3 DUP3 PUSH2 0x8B5 JUMP JUMPDEST SWAP2 SWAP1 POP JUMP JUMPDEST PUSH1 0x0 PUSH1 0x40 MLOAD SWAP1 POP SWAP1 JUMP JUMPDEST PUSH1 0x0 PUSH8 0xFFFFFFFFFFFFFFFF DUP3 GT ISZERO PUSH2 0x7B0 JUMPI PUSH2 0x7AF PUSH2 0x8F0 JUMP JUMPDEST JUMPDEST PUSH2 0x7B9 DUP3 PUSH2 0x933 JUMP JUMPDEST SWAP1 POP PUSH1 0x20 DUP2 ADD SWAP1 POP SWAP2 SWAP1 POP JUMP JUMPDEST PUSH1 0x0 PUSH8 0xFFFFFFFFFFFFFFFF DUP3 GT ISZERO PUSH2 0x7E1 JUMPI PUSH2 0x7E0 PUSH2 0x8F0 JUMP JUMPDEST JUMPDEST PUSH2 0x7EA DUP3 PUSH2 0x933 JUMP JUMPDEST SWAP1 POP PUSH1 0x20 DUP2 ADD SWAP1 POP SWAP2 SWAP1 POP JUMP JUMPDEST PUSH1 0x0 DUP2 MLOAD SWAP1 POP SWAP2 SWAP1 POP JUMP JUMPDEST PUSH1 0x0 DUP3 DUP3 MSTORE PUSH1 0x20 DUP3 ADD SWAP1 POP SWAP3 SWAP2 POP POP JUMP JUMPDEST PUSH1 0x0 DUP2 SWAP1 POP SWAP3 SWAP2 POP POP JUMP JUMPDEST PUSH1 0x0 PUSH2 0x829 DUP3 PUSH2 0x846 JUMP JUMPDEST SWAP1 POP SWAP2 SWAP1 POP JUMP JUMPDEST PUSH1 0x0 DUP2 ISZERO ISZERO SWAP1 POP SWAP2 SWAP1 POP JUMP JUMPDEST PUSH1 0x0 DUP2 SWAP1 POP SWAP2 SWAP1 POP JUMP JUMPDEST PUSH1 0x0 PUSH20 0xFFFFFFFFFFFFFFFFFFFFFFFFFFFFFFFFFFFFFFFF DUP3 AND SWAP1 POP SWAP2 SWAP1 POP JUMP JUMPDEST PUSH1 0x0 PUSH1 0xFF DUP3 AND SWAP1 POP SWAP2 SWAP1 POP JUMP JUMPDEST DUP3 DUP2 DUP4 CALLDATACOPY PUSH1 0x0 DUP4 DUP4 ADD MSTORE POP POP POP JUMP JUMPDEST PUSH1 0x0 JUMPDEST DUP4 DUP2 LT ISZERO PUSH2 0x8A0 JUMPI DUP1 DUP3 ADD MLOAD DUP2 DUP5 ADD MSTORE PUSH1 0x20 DUP2 ADD SWAP1 POP PUSH2 0x885 JUMP JUMPDEST DUP4 DUP2 GT ISZERO PUSH2 0x8AF JUMPI PUSH1 0x0 DUP5 DUP5 ADD MSTORE JUMPDEST POP POP POP POP JUMP JUMPDEST PUSH2 0x8BE DUP3 PUSH2 0x933 JUMP JUMPDEST DUP2 ADD DUP2 DUP2 LT PUSH8 0xFFFFFFFFFFFFFFFF DUP3 GT OR ISZERO PUSH2 0x8DD JUMPI PUSH2 0x8DC PUSH2 0x8F0 JUMP JUMPDEST JUMPDEST DUP1 PUSH1 0x40 MSTORE POP POP POP JUMP JUMPDEST PUSH1 0x0 DUP2 SWAP1 POP SWAP2 SWAP1 POP JUMP JUMPDEST PUSH32 0x4E487B7100000000000000000000000000000000000000000000000000000000 PUSH1 0x0 MSTORE PUSH1 0x41 PUSH1 0x4 MSTORE PUSH1 0x24 PUSH1 0x0 REVERT JUMPDEST PUSH1 0x0 DUP1 REVERT JUMPDEST PUSH1 0x0 DUP1 REVERT JUMPDEST PUSH1 0x0 DUP1 REVERT JUMPDEST PUSH1 0x0 DUP1 REVERT JUMPDEST PUSH1 0x0 PUSH1 0x1F NOT PUSH1 0x1F DUP4 ADD AND SWAP1 POP SWAP2 SWAP1 POP JUMP JUMPDEST PUSH32 0x19457468657265756D205369676E6564204D6573736167653A0A333200000000 PUSH1 0x0 DUP3 ADD MSTORE POP JUMP JUMPDEST PUSH32 0x696E76616C6964207369676E6174757265206C656E6774680000000000000000 PUSH1 0x0 DUP3 ADD MSTORE POP JUMP JUMPDEST PUSH2 0x99F DUP2 PUSH2 0x81E JUMP JUMPDEST DUP2 EQ PUSH2 0x9AA JUMPI PUSH1 0x0 DUP1 REVERT JUMPDEST POP JUMP JUMPDEST PUSH2 0x9B6 DUP2 PUSH2 0x83C JUMP JUMPDEST DUP2 EQ PUSH2 0x9C1 JUMPI PUSH1 0x0 DUP1 REVERT JUMPDEST POP JUMP INVALID LOG2 PUSH5 0x6970667358 0x22 SLT KECCAK256 BYTE 0xE 0x49 DIV 0xBE 0x1E 0xD0 0xCB 0xA7 SWAP8 0xE3 0x4D PUSH30 0xFBF10582E36B436169440D81411809C99EA3864736F6C63430008070033 "
				},
				"gasEstimates": {
					"creation": {
						"codeDepositCost": "510800",
						"executionCost": "543",
						"totalCost": "511343"
					},
					"external": {
						"_split(bytes)": "infinite",
						"getEthSignedMessageHash(bytes32)": "infinite",
						"getMessageHash(string)": "infinite",
						"recover(bytes32,bytes)": "infinite",
						"verify(address,string,bytes)": "infinite"
					}
				},
				"methodIdentifiers": {
					"_split(bytes)": "e15a245a",
					"getEthSignedMessageHash(bytes32)": "fa540801",
					"getMessageHash(string)": "b446f3b2",
					"recover(bytes32,bytes)": "19045a25",
					"verify(address,string,bytes)": "2dd34f0f"
				}
			},
			"storageLayout": {
				"storage": [],
				"types": null
			},
			"userdoc": {
				"kind": "user",
				"methods": {},
				"version": 1
			}
		}
	}
}