{
	"contracts/Sig.sol": {
		"VerifySig": {
			"abi": [
				{
					"inputs": [
						{
							"internalType": "address",
							"name": "_signer",
							"type": "address"
						},
						{
							"internalType": "string",
							"name": "message",
							"type": "string"
						},
						{
							"internalType": "bytes",
							"name": "_sig",
							"type": "bytes"
						}
					],
					"name": "verify",
					"outputs": [],
					"stateMutability": "nonpayable",
					"type": "function"
				}
			],
			"devdoc": {
				"kind": "dev",
				"methods": {},
				"version": 1
			},
			"evm": {
				"assembly": "    /* \"contracts/Sig.sol\":206:332  contract VerifySig {\r... */\n  mstore(0x40, 0x80)\n  callvalue\n  dup1\n  iszero\n  tag_1\n  jumpi\n  0x00\n  dup1\n  revert\ntag_1:\n  pop\n  dataSize(sub_0)\n  dup1\n  dataOffset(sub_0)\n  0x00\n  codecopy\n  0x00\n  return\nstop\n\nsub_0: assembly {\n        /* \"contracts/Sig.sol\":206:332  contract VerifySig {\r... */\n      mstore(0x40, 0x80)\n      callvalue\n      dup1\n      iszero\n      tag_1\n      jumpi\n      0x00\n      dup1\n      revert\n    tag_1:\n      pop\n      jumpi(tag_2, lt(calldatasize, 0x04))\n      shr(0xe0, calldataload(0x00))\n      dup1\n      0x2dd34f0f\n      eq\n      tag_3\n      jumpi\n    tag_2:\n      0x00\n      dup1\n      revert\n        /* \"contracts/Sig.sol\":234:329  function verify(address _signer, string memory message, bytes memory _sig) external  {\r... */\n    tag_3:\n      tag_4\n      0x04\n      dup1\n      calldatasize\n      sub\n      dup2\n      add\n      swap1\n      tag_5\n      swap2\n      swap1\n      tag_6\n      jump\t// in\n    tag_5:\n      tag_7\n      jump\t// in\n    tag_4:\n      stop\n    tag_7:\n      pop\n      pop\n      pop\n      jump\t// out\n        /* \"#utility.yul\":7:417   */\n    tag_10:\n        /* \"#utility.yul\":84:89   */\n      0x00\n        /* \"#utility.yul\":109:174   */\n      tag_12\n        /* \"#utility.yul\":125:173   */\n      tag_13\n        /* \"#utility.yul\":166:172   */\n      dup5\n        /* \"#utility.yul\":125:173   */\n      tag_14\n      jump\t// in\n    tag_13:\n        /* \"#utility.yul\":109:174   */\n      tag_15\n      jump\t// in\n    tag_12:\n        /* \"#utility.yul\":100:174   */\n      swap1\n      pop\n        /* \"#utility.yul\":197:203   */\n      dup3\n        /* \"#utility.yul\":190:195   */\n      dup2\n        /* \"#utility.yul\":183:204   */\n      mstore\n        /* \"#utility.yul\":235:239   */\n      0x20\n        /* \"#utility.yul\":228:233   */\n      dup2\n        /* \"#utility.yul\":224:240   */\n      add\n        /* \"#utility.yul\":273:276   */\n      dup5\n        /* \"#utility.yul\":264:270   */\n      dup5\n        /* \"#utility.yul\":259:262   */\n      dup5\n        /* \"#utility.yul\":255:271   */\n      add\n        /* \"#utility.yul\":252:277   */\n      gt\n        /* \"#utility.yul\":249:361   */\n      iszero\n      tag_16\n      jumpi\n        /* \"#utility.yul\":280:359   */\n      tag_17\n      tag_18\n      jump\t// in\n    tag_17:\n        /* \"#utility.yul\":249:361   */\n    tag_16:\n        /* \"#utility.yul\":370:411   */\n      tag_19\n        /* \"#utility.yul\":404:410   */\n      dup5\n        /* \"#utility.yul\":399:402   */\n      dup3\n        /* \"#utility.yul\":394:397   */\n      dup6\n        /* \"#utility.yul\":370:411   */\n      tag_20\n      jump\t// in\n    tag_19:\n        /* \"#utility.yul\":90:417   */\n      pop\n        /* \"#utility.yul\":7:417   */\n      swap4\n      swap3\n      pop\n      pop\n      pop\n      jump\t// out\n        /* \"#utility.yul\":423:835   */\n    tag_21:\n        /* \"#utility.yul\":501:506   */\n      0x00\n        /* \"#utility.yul\":526:592   */\n      tag_23\n        /* \"#utility.yul\":542:591   */\n      tag_24\n        /* \"#utility.yul\":584:590   */\n      dup5\n        /* \"#utility.yul\":542:591   */\n      tag_25\n      jump\t// in\n    tag_24:\n        /* \"#utility.yul\":526:592   */\n      tag_15\n      jump\t// in\n    tag_23:\n        /* \"#utility.yul\":517:592   */\n      swap1\n      pop\n        /* \"#utility.yul\":615:621   */\n      dup3\n        /* \"#utility.yul\":608:613   */\n      dup2\n        /* \"#utility.yul\":601:622   */\n      mstore\n        /* \"#utility.yul\":653:657   */\n      0x20\n        /* \"#utility.yul\":646:651   */\n      dup2\n        /* \"#utility.yul\":642:658   */\n      add\n        /* \"#utility.yul\":691:694   */\n      dup5\n        /* \"#utility.yul\":682:688   */\n      dup5\n        /* \"#utility.yul\":677:680   */\n      dup5\n        /* \"#utility.yul\":673:689   */\n      add\n        /* \"#utility.yul\":670:695   */\n      gt\n        /* \"#utility.yul\":667:779   */\n      iszero\n      tag_26\n      jumpi\n        /* \"#utility.yul\":698:777   */\n      tag_27\n      tag_18\n      jump\t// in\n    tag_27:\n        /* \"#utility.yul\":667:779   */\n    tag_26:\n        /* \"#utility.yul\":788:829   */\n      tag_28\n        /* \"#utility.yul\":822:828   */\n      dup5\n        /* \"#utility.yul\":817:820   */\n      dup3\n        /* \"#utility.yul\":812:815   */\n      dup6\n        /* \"#utility.yul\":788:829   */\n      tag_20\n      jump\t// in\n    tag_28:\n        /* \"#utility.yul\":507:835   */\n      pop\n        /* \"#utility.yul\":423:835   */\n      swap4\n      swap3\n      pop\n      pop\n      pop\n      jump\t// out\n        /* \"#utility.yul\":841:980   */\n    tag_29:\n        /* \"#utility.yul\":887:892   */\n      0x00\n        /* \"#utility.yul\":925:931   */\n      dup2\n        /* \"#utility.yul\":912:932   */\n      calldataload\n        /* \"#utility.yul\":903:932   */\n      swap1\n      pop\n        /* \"#utility.yul\":941:974   */\n      tag_31\n        /* \"#utility.yul\":968:973   */\n      dup2\n        /* \"#utility.yul\":941:974   */\n      tag_32\n      jump\t// in\n    tag_31:\n        /* \"#utility.yul\":841:980   */\n      swap3\n      swap2\n      pop\n      pop\n      jump\t// out\n        /* \"#utility.yul\":999:1337   */\n    tag_33:\n        /* \"#utility.yul\":1054:1059   */\n      0x00\n        /* \"#utility.yul\":1103:1106   */\n      dup3\n        /* \"#utility.yul\":1096:1100   */\n      0x1f\n        /* \"#utility.yul\":1088:1094   */\n      dup4\n        /* \"#utility.yul\":1084:1101   */\n      add\n        /* \"#utility.yul\":1080:1107   */\n      slt\n        /* \"#utility.yul\":1070:1192   */\n      tag_35\n      jumpi\n        /* \"#utility.yul\":1111:1190   */\n      tag_36\n      tag_37\n      jump\t// in\n    tag_36:\n        /* \"#utility.yul\":1070:1192   */\n    tag_35:\n        /* \"#utility.yul\":1228:1234   */\n      dup2\n        /* \"#utility.yul\":1215:1235   */\n      calldataload\n        /* \"#utility.yul\":1253:1331   */\n      tag_38\n        /* \"#utility.yul\":1327:1330   */\n      dup5\n        /* \"#utility.yul\":1319:1325   */\n      dup3\n        /* \"#utility.yul\":1312:1316   */\n      0x20\n        /* \"#utility.yul\":1304:1310   */\n      dup7\n        /* \"#utility.yul\":1300:1317   */\n      add\n        /* \"#utility.yul\":1253:1331   */\n      tag_10\n      jump\t// in\n    tag_38:\n        /* \"#utility.yul\":1244:1331   */\n      swap2\n      pop\n        /* \"#utility.yul\":1060:1337   */\n      pop\n        /* \"#utility.yul\":999:1337   */\n      swap3\n      swap2\n      pop\n      pop\n      jump\t// out\n        /* \"#utility.yul\":1357:1697   */\n    tag_39:\n        /* \"#utility.yul\":1413:1418   */\n      0x00\n        /* \"#utility.yul\":1462:1465   */\n      dup3\n        /* \"#utility.yul\":1455:1459   */\n      0x1f\n        /* \"#utility.yul\":1447:1453   */\n      dup4\n        /* \"#utility.yul\":1443:1460   */\n      add\n        /* \"#utility.yul\":1439:1466   */\n      slt\n        /* \"#utility.yul\":1429:1551   */\n      tag_41\n      jumpi\n        /* \"#utility.yul\":1470:1549   */\n      tag_42\n      tag_37\n      jump\t// in\n    tag_42:\n        /* \"#utility.yul\":1429:1551   */\n    tag_41:\n        /* \"#utility.yul\":1587:1593   */\n      dup2\n        /* \"#utility.yul\":1574:1594   */\n      calldataload\n        /* \"#utility.yul\":1612:1691   */\n      tag_43\n        /* \"#utility.yul\":1687:1690   */\n      dup5\n        /* \"#utility.yul\":1679:1685   */\n      dup3\n        /* \"#utility.yul\":1672:1676   */\n      0x20\n        /* \"#utility.yul\":1664:1670   */\n      dup7\n        /* \"#utility.yul\":1660:1677   */\n      add\n        /* \"#utility.yul\":1612:1691   */\n      tag_21\n      jump\t// in\n    tag_43:\n        /* \"#utility.yul\":1603:1691   */\n      swap2\n      pop\n        /* \"#utility.yul\":1419:1697   */\n      pop\n        /* \"#utility.yul\":1357:1697   */\n      swap3\n      swap2\n      pop\n      pop\n      jump\t// out\n        /* \"#utility.yul\":1703:2680   */\n    tag_6:\n        /* \"#utility.yul\":1799:1805   */\n      0x00\n        /* \"#utility.yul\":1807:1813   */\n      dup1\n        /* \"#utility.yul\":1815:1821   */\n      0x00\n        /* \"#utility.yul\":1864:1866   */\n      0x60\n        /* \"#utility.yul\":1852:1861   */\n      dup5\n        /* \"#utility.yul\":1843:1850   */\n      dup7\n        /* \"#utility.yul\":1839:1862   */\n      sub\n        /* \"#utility.yul\":1835:1867   */\n      slt\n        /* \"#utility.yul\":1832:1951   */\n      iszero\n      tag_45\n      jumpi\n        /* \"#utility.yul\":1870:1949   */\n      tag_46\n      tag_47\n      jump\t// in\n    tag_46:\n        /* \"#utility.yul\":1832:1951   */\n    tag_45:\n        /* \"#utility.yul\":1990:1991   */\n      0x00\n        /* \"#utility.yul\":2015:2068   */\n      tag_48\n        /* \"#utility.yul\":2060:2067   */\n      dup7\n        /* \"#utility.yul\":2051:2057   */\n      dup3\n        /* \"#utility.yul\":2040:2049   */\n      dup8\n        /* \"#utility.yul\":2036:2058   */\n      add\n        /* \"#utility.yul\":2015:2068   */\n      tag_29\n      jump\t// in\n    tag_48:\n        /* \"#utility.yul\":2005:2068   */\n      swap4\n      pop\n        /* \"#utility.yul\":1961:2078   */\n      pop\n        /* \"#utility.yul\":2145:2147   */\n      0x20\n        /* \"#utility.yul\":2134:2143   */\n      dup5\n        /* \"#utility.yul\":2130:2148   */\n      add\n        /* \"#utility.yul\":2117:2149   */\n      calldataload\n        /* \"#utility.yul\":2176:2194   */\n      0xffffffffffffffff\n        /* \"#utility.yul\":2168:2174   */\n      dup2\n        /* \"#utility.yul\":2165:2195   */\n      gt\n        /* \"#utility.yul\":2162:2279   */\n      iszero\n      tag_49\n      jumpi\n        /* \"#utility.yul\":2198:2277   */\n      tag_50\n      tag_51\n      jump\t// in\n    tag_50:\n        /* \"#utility.yul\":2162:2279   */\n    tag_49:\n        /* \"#utility.yul\":2303:2366   */\n      tag_52\n        /* \"#utility.yul\":2358:2365   */\n      dup7\n        /* \"#utility.yul\":2349:2355   */\n      dup3\n        /* \"#utility.yul\":2338:2347   */\n      dup8\n        /* \"#utility.yul\":2334:2356   */\n      add\n        /* \"#utility.yul\":2303:2366   */\n      tag_39\n      jump\t// in\n    tag_52:\n        /* \"#utility.yul\":2293:2366   */\n      swap3\n      pop\n        /* \"#utility.yul\":2088:2376   */\n      pop\n        /* \"#utility.yul\":2443:2445   */\n      0x40\n        /* \"#utility.yul\":2432:2441   */\n      dup5\n        /* \"#utility.yul\":2428:2446   */\n      add\n        /* \"#utility.yul\":2415:2447   */\n      calldataload\n        /* \"#utility.yul\":2474:2492   */\n      0xffffffffffffffff\n        /* \"#utility.yul\":2466:2472   */\n      dup2\n        /* \"#utility.yul\":2463:2493   */\n      gt\n        /* \"#utility.yul\":2460:2577   */\n      iszero\n      tag_53\n      jumpi\n        /* \"#utility.yul\":2496:2575   */\n      tag_54\n      tag_51\n      jump\t// in\n    tag_54:\n        /* \"#utility.yul\":2460:2577   */\n    tag_53:\n        /* \"#utility.yul\":2601:2663   */\n      tag_55\n        /* \"#utility.yul\":2655:2662   */\n      dup7\n        /* \"#utility.yul\":2646:2652   */\n      dup3\n        /* \"#utility.yul\":2635:2644   */\n      dup8\n        /* \"#utility.yul\":2631:2653   */\n      add\n        /* \"#utility.yul\":2601:2663   */\n      tag_33\n      jump\t// in\n    tag_55:\n        /* \"#utility.yul\":2591:2663   */\n      swap2\n      pop\n        /* \"#utility.yul\":2386:2673   */\n      pop\n        /* \"#utility.yul\":1703:2680   */\n      swap3\n      pop\n      swap3\n      pop\n      swap3\n      jump\t// out\n        /* \"#utility.yul\":2686:2815   */\n    tag_15:\n        /* \"#utility.yul\":2720:2726   */\n      0x00\n        /* \"#utility.yul\":2747:2767   */\n      tag_57\n      tag_58\n      jump\t// in\n    tag_57:\n        /* \"#utility.yul\":2737:2767   */\n      swap1\n      pop\n        /* \"#utility.yul\":2776:2809   */\n      tag_59\n        /* \"#utility.yul\":2804:2808   */\n      dup3\n        /* \"#utility.yul\":2796:2802   */\n      dup3\n        /* \"#utility.yul\":2776:2809   */\n      tag_60\n      jump\t// in\n    tag_59:\n        /* \"#utility.yul\":2686:2815   */\n      swap2\n      swap1\n      pop\n      jump\t// out\n        /* \"#utility.yul\":2821:2896   */\n    tag_58:\n        /* \"#utility.yul\":2854:2860   */\n      0x00\n        /* \"#utility.yul\":2887:2889   */\n      0x40\n        /* \"#utility.yul\":2881:2890   */\n      mload\n        /* \"#utility.yul\":2871:2890   */\n      swap1\n      pop\n        /* \"#utility.yul\":2821:2896   */\n      swap1\n      jump\t// out\n        /* \"#utility.yul\":2902:3209   */\n    tag_14:\n        /* \"#utility.yul\":2963:2967   */\n      0x00\n        /* \"#utility.yul\":3053:3071   */\n      0xffffffffffffffff\n        /* \"#utility.yul\":3045:3051   */\n      dup3\n        /* \"#utility.yul\":3042:3072   */\n      gt\n        /* \"#utility.yul\":3039:3095   */\n      iszero\n      tag_63\n      jumpi\n        /* \"#utility.yul\":3075:3093   */\n      tag_64\n      tag_65\n      jump\t// in\n    tag_64:\n        /* \"#utility.yul\":3039:3095   */\n    tag_63:\n        /* \"#utility.yul\":3113:3142   */\n      tag_66\n        /* \"#utility.yul\":3135:3141   */\n      dup3\n        /* \"#utility.yul\":3113:3142   */\n      tag_67\n      jump\t// in\n    tag_66:\n        /* \"#utility.yul\":3105:3142   */\n      swap1\n      pop\n        /* \"#utility.yul\":3197:3201   */\n      0x20\n        /* \"#utility.yul\":3191:3195   */\n      dup2\n        /* \"#utility.yul\":3187:3202   */\n      add\n        /* \"#utility.yul\":3179:3202   */\n      swap1\n      pop\n        /* \"#utility.yul\":2902:3209   */\n      swap2\n      swap1\n      pop\n      jump\t// out\n        /* \"#utility.yul\":3215:3523   */\n    tag_25:\n        /* \"#utility.yul\":3277:3281   */\n      0x00\n        /* \"#utility.yul\":3367:3385   */\n      0xffffffffffffffff\n        /* \"#utility.yul\":3359:3365   */\n      dup3\n        /* \"#utility.yul\":3356:3386   */\n      gt\n        /* \"#utility.yul\":3353:3409   */\n      iszero\n      tag_69\n      jumpi\n        /* \"#utility.yul\":3389:3407   */\n      tag_70\n      tag_65\n      jump\t// in\n    tag_70:\n        /* \"#utility.yul\":3353:3409   */\n    tag_69:\n        /* \"#utility.yul\":3427:3456   */\n      tag_71\n        /* \"#utility.yul\":3449:3455   */\n      dup3\n        /* \"#utility.yul\":3427:3456   */\n      tag_67\n      jump\t// in\n    tag_71:\n        /* \"#utility.yul\":3419:3456   */\n      swap1\n      pop\n        /* \"#utility.yul\":3511:3515   */\n      0x20\n        /* \"#utility.yul\":3505:3509   */\n      dup2\n        /* \"#utility.yul\":3501:3516   */\n      add\n        /* \"#utility.yul\":3493:3516   */\n      swap1\n      pop\n        /* \"#utility.yul\":3215:3523   */\n      swap2\n      swap1\n      pop\n      jump\t// out\n        /* \"#utility.yul\":3529:3625   */\n    tag_72:\n        /* \"#utility.yul\":3566:3573   */\n      0x00\n        /* \"#utility.yul\":3595:3619   */\n      tag_74\n        /* \"#utility.yul\":3613:3618   */\n      dup3\n        /* \"#utility.yul\":3595:3619   */\n      tag_75\n      jump\t// in\n    tag_74:\n        /* \"#utility.yul\":3584:3619   */\n      swap1\n      pop\n        /* \"#utility.yul\":3529:3625   */\n      swap2\n      swap1\n      pop\n      jump\t// out\n        /* \"#utility.yul\":3631:3757   */\n    tag_75:\n        /* \"#utility.yul\":3668:3675   */\n      0x00\n        /* \"#utility.yul\":3708:3750   */\n      0xffffffffffffffffffffffffffffffffffffffff\n        /* \"#utility.yul\":3701:3706   */\n      dup3\n        /* \"#utility.yul\":3697:3751   */\n      and\n        /* \"#utility.yul\":3686:3751   */\n      swap1\n      pop\n        /* \"#utility.yul\":3631:3757   */\n      swap2\n      swap1\n      pop\n      jump\t// out\n        /* \"#utility.yul\":3763:3917   */\n    tag_20:\n        /* \"#utility.yul\":3847:3853   */\n      dup3\n        /* \"#utility.yul\":3842:3845   */\n      dup2\n        /* \"#utility.yul\":3837:3840   */\n      dup4\n        /* \"#utility.yul\":3824:3854   */\n      calldatacopy\n        /* \"#utility.yul\":3909:3910   */\n      0x00\n        /* \"#utility.yul\":3900:3906   */\n      dup4\n        /* \"#utility.yul\":3895:3898   */\n      dup4\n        /* \"#utility.yul\":3891:3907   */\n      add\n        /* \"#utility.yul\":3884:3911   */\n      mstore\n        /* \"#utility.yul\":3763:3917   */\n      pop\n      pop\n      pop\n      jump\t// out\n        /* \"#utility.yul\":3923:4204   */\n    tag_60:\n        /* \"#utility.yul\":4006:4033   */\n      tag_79\n        /* \"#utility.yul\":4028:4032   */\n      dup3\n        /* \"#utility.yul\":4006:4033   */\n      tag_67\n      jump\t// in\n    tag_79:\n        /* \"#utility.yul\":3998:4004   */\n      dup2\n        /* \"#utility.yul\":3994:4034   */\n      add\n        /* \"#utility.yul\":4136:4142   */\n      dup2\n        /* \"#utility.yul\":4124:4134   */\n      dup2\n        /* \"#utility.yul\":4121:4143   */\n      lt\n        /* \"#utility.yul\":4100:4118   */\n      0xffffffffffffffff\n        /* \"#utility.yul\":4088:4098   */\n      dup3\n        /* \"#utility.yul\":4085:4119   */\n      gt\n        /* \"#utility.yul\":4082:4144   */\n      or\n        /* \"#utility.yul\":4079:4167   */\n      iszero\n      tag_80\n      jumpi\n        /* \"#utility.yul\":4147:4165   */\n      tag_81\n      tag_65\n      jump\t// in\n    tag_81:\n        /* \"#utility.yul\":4079:4167   */\n    tag_80:\n        /* \"#utility.yul\":4187:4197   */\n      dup1\n        /* \"#utility.yul\":4183:4185   */\n      0x40\n        /* \"#utility.yul\":4176:4198   */\n      mstore\n        /* \"#utility.yul\":3966:4204   */\n      pop\n        /* \"#utility.yul\":3923:4204   */\n      pop\n      pop\n      jump\t// out\n        /* \"#utility.yul\":4210:4390   */\n    tag_65:\n        /* \"#utility.yul\":4258:4335   */\n      0x4e487b7100000000000000000000000000000000000000000000000000000000\n        /* \"#utility.yul\":4255:4256   */\n      0x00\n        /* \"#utility.yul\":4248:4336   */\n      mstore\n        /* \"#utility.yul\":4355:4359   */\n      0x41\n        /* \"#utility.yul\":4352:4353   */\n      0x04\n        /* \"#utility.yul\":4345:4360   */\n      mstore\n        /* \"#utility.yul\":4379:4383   */\n      0x24\n        /* \"#utility.yul\":4376:4377   */\n      0x00\n        /* \"#utility.yul\":4369:4384   */\n      revert\n        /* \"#utility.yul\":4396:4513   */\n    tag_37:\n        /* \"#utility.yul\":4505:4506   */\n      0x00\n        /* \"#utility.yul\":4502:4503   */\n      dup1\n        /* \"#utility.yul\":4495:4507   */\n      revert\n        /* \"#utility.yul\":4519:4636   */\n    tag_18:\n        /* \"#utility.yul\":4628:4629   */\n      0x00\n        /* \"#utility.yul\":4625:4626   */\n      dup1\n        /* \"#utility.yul\":4618:4630   */\n      revert\n        /* \"#utility.yul\":4642:4759   */\n    tag_51:\n        /* \"#utility.yul\":4751:4752   */\n      0x00\n        /* \"#utility.yul\":4748:4749   */\n      dup1\n        /* \"#utility.yul\":4741:4753   */\n      revert\n        /* \"#utility.yul\":4765:4882   */\n    tag_47:\n        /* \"#utility.yul\":4874:4875   */\n      0x00\n        /* \"#utility.yul\":4871:4872   */\n      dup1\n        /* \"#utility.yul\":4864:4876   */\n      revert\n        /* \"#utility.yul\":4888:4990   */\n    tag_67:\n        /* \"#utility.yul\":4929:4935   */\n      0x00\n        /* \"#utility.yul\":4980:4982   */\n      0x1f\n        /* \"#utility.yul\":4976:4983   */\n      not\n        /* \"#utility.yul\":4971:4973   */\n      0x1f\n        /* \"#utility.yul\":4964:4969   */\n      dup4\n        /* \"#utility.yul\":4960:4974   */\n      add\n        /* \"#utility.yul\":4956:4984   */\n      and\n        /* \"#utility.yul\":4946:4984   */\n      swap1\n      pop\n        /* \"#utility.yul\":4888:4990   */\n      swap2\n      swap1\n      pop\n      jump\t// out\n        /* \"#utility.yul\":4996:5118   */\n    tag_32:\n        /* \"#utility.yul\":5069:5093   */\n      tag_89\n        /* \"#utility.yul\":5087:5092   */\n      dup2\n        /* \"#utility.yul\":5069:5093   */\n      tag_72\n      jump\t// in\n    tag_89:\n        /* \"#utility.yul\":5062:5067   */\n      dup2\n        /* \"#utility.yul\":5059:5094   */\n      eq\n        /* \"#utility.yul\":5049:5112   */\n      tag_90\n      jumpi\n        /* \"#utility.yul\":5108:5109   */\n      0x00\n        /* \"#utility.yul\":5105:5106   */\n      dup1\n        /* \"#utility.yul\":5098:5110   */\n      revert\n        /* \"#utility.yul\":5049:5112   */\n    tag_90:\n        /* \"#utility.yul\":4996:5118   */\n      pop\n      jump\t// out\n\n    auxdata: 0xa26469706673582212204b7297562f32ab25f67528bf7d469f5e8b44b7a0df63ec6f6a9618e8aa90202064736f6c63430008070033\n}\n",
				"bytecode": {
					"linkReferences": {},
					"object": "608060405234801561001057600080fd5b5061036b806100206000396000f3fe608060405234801561001057600080fd5b506004361061002b5760003560e01c80632dd34f0f14610030575b600080fd5b61004a60048036038101906100459190610146565b61004c565b005b505050565b600061006461005f846101f6565b6101d1565b9050828152602081018484840111156100805761007f6102fe565b5b61008b84828561028a565b509392505050565b60006100a66100a184610227565b6101d1565b9050828152602081018484840111156100c2576100c16102fe565b5b6100cd84828561028a565b509392505050565b6000813590506100e48161031e565b92915050565b600082601f8301126100ff576100fe6102f9565b5b813561010f848260208601610051565b91505092915050565b600082601f83011261012d5761012c6102f9565b5b813561013d848260208601610093565b91505092915050565b60008060006060848603121561015f5761015e610308565b5b600061016d868287016100d5565b935050602084013567ffffffffffffffff81111561018e5761018d610303565b5b61019a86828701610118565b925050604084013567ffffffffffffffff8111156101bb576101ba610303565b5b6101c7868287016100ea565b9150509250925092565b60006101db6101ec565b90506101e78282610299565b919050565b6000604051905090565b600067ffffffffffffffff821115610211576102106102ca565b5b61021a8261030d565b9050602081019050919050565b600067ffffffffffffffff821115610242576102416102ca565b5b61024b8261030d565b9050602081019050919050565b60006102638261026a565b9050919050565b600073ffffffffffffffffffffffffffffffffffffffff82169050919050565b82818337600083830152505050565b6102a28261030d565b810181811067ffffffffffffffff821117156102c1576102c06102ca565b5b80604052505050565b7f4e487b7100000000000000000000000000000000000000000000000000000000600052604160045260246000fd5b600080fd5b600080fd5b600080fd5b600080fd5b6000601f19601f8301169050919050565b61032781610258565b811461033257600080fd5b5056fea26469706673582212204b7297562f32ab25f67528bf7d469f5e8b44b7a0df63ec6f6a9618e8aa90202064736f6c63430008070033",
					"opcodes": "PUSH1 0x80 PUSH1 0x40 MSTORE CALLVALUE DUP1 ISZERO PUSH2 0x10 JUMPI PUSH1 0x0 DUP1 REVERT JUMPDEST POP PUSH2 0x36B DUP1 PUSH2 0x20 PUSH1 0x0 CODECOPY PUSH1 0x0 RETURN INVALID PUSH1 0x80 PUSH1 0x40 MSTORE CALLVALUE DUP1 ISZERO PUSH2 0x10 JUMPI PUSH1 0x0 DUP1 REVERT JUMPDEST POP PUSH1 0x4 CALLDATASIZE LT PUSH2 0x2B JUMPI PUSH1 0x0 CALLDATALOAD PUSH1 0xE0 SHR DUP1 PUSH4 0x2DD34F0F EQ PUSH2 0x30 JUMPI JUMPDEST PUSH1 0x0 DUP1 REVERT JUMPDEST PUSH2 0x4A PUSH1 0x4 DUP1 CALLDATASIZE SUB DUP2 ADD SWAP1 PUSH2 0x45 SWAP2 SWAP1 PUSH2 0x146 JUMP JUMPDEST PUSH2 0x4C JUMP JUMPDEST STOP JUMPDEST POP POP POP JUMP JUMPDEST PUSH1 0x0 PUSH2 0x64 PUSH2 0x5F DUP5 PUSH2 0x1F6 JUMP JUMPDEST PUSH2 0x1D1 JUMP JUMPDEST SWAP1 POP DUP3 DUP2 MSTORE PUSH1 0x20 DUP2 ADD DUP5 DUP5 DUP5 ADD GT ISZERO PUSH2 0x80 JUMPI PUSH2 0x7F PUSH2 0x2FE JUMP JUMPDEST JUMPDEST PUSH2 0x8B DUP5 DUP3 DUP6 PUSH2 0x28A JUMP JUMPDEST POP SWAP4 SWAP3 POP POP POP JUMP JUMPDEST PUSH1 0x0 PUSH2 0xA6 PUSH2 0xA1 DUP5 PUSH2 0x227 JUMP JUMPDEST PUSH2 0x1D1 JUMP JUMPDEST SWAP1 POP DUP3 DUP2 MSTORE PUSH1 0x20 DUP2 ADD DUP5 DUP5 DUP5 ADD GT ISZERO PUSH2 0xC2 JUMPI PUSH2 0xC1 PUSH2 0x2FE JUMP JUMPDEST JUMPDEST PUSH2 0xCD DUP5 DUP3 DUP6 PUSH2 0x28A JUMP JUMPDEST POP SWAP4 SWAP3 POP POP POP JUMP JUMPDEST PUSH1 0x0 DUP2 CALLDATALOAD SWAP1 POP PUSH2 0xE4 DUP2 PUSH2 0x31E JUMP JUMPDEST SWAP3 SWAP2 POP POP JUMP JUMPDEST PUSH1 0x0 DUP3 PUSH1 0x1F DUP4 ADD SLT PUSH2 0xFF JUMPI PUSH2 0xFE PUSH2 0x2F9 JUMP JUMPDEST JUMPDEST DUP2 CALLDATALOAD PUSH2 0x10F DUP5 DUP3 PUSH1 0x20 DUP7 ADD PUSH2 0x51 JUMP JUMPDEST SWAP2 POP POP SWAP3 SWAP2 POP POP JUMP JUMPDEST PUSH1 0x0 DUP3 PUSH1 0x1F DUP4 ADD SLT PUSH2 0x12D JUMPI PUSH2 0x12C PUSH2 0x2F9 JUMP JUMPDEST JUMPDEST DUP2 CALLDATALOAD PUSH2 0x13D DUP5 DUP3 PUSH1 0x20 DUP7 ADD PUSH2 0x93 JUMP JUMPDEST SWAP2 POP POP SWAP3 SWAP2 POP POP JUMP JUMPDEST PUSH1 0x0 DUP1 PUSH1 0x0 PUSH1 0x60 DUP5 DUP7 SUB SLT ISZERO PUSH2 0x15F JUMPI PUSH2 0x15E PUSH2 0x308 JUMP JUMPDEST JUMPDEST PUSH1 0x0 PUSH2 0x16D DUP7 DUP3 DUP8 ADD PUSH2 0xD5 JUMP JUMPDEST SWAP4 POP POP PUSH1 0x20 DUP5 ADD CALLDATALOAD PUSH8 0xFFFFFFFFFFFFFFFF DUP2 GT ISZERO PUSH2 0x18E JUMPI PUSH2 0x18D PUSH2 0x303 JUMP JUMPDEST JUMPDEST PUSH2 0x19A DUP7 DUP3 DUP8 ADD PUSH2 0x118 JUMP JUMPDEST SWAP3 POP POP PUSH1 0x40 DUP5 ADD CALLDATALOAD PUSH8 0xFFFFFFFFFFFFFFFF DUP2 GT ISZERO PUSH2 0x1BB JUMPI PUSH2 0x1BA PUSH2 0x303 JUMP JUMPDEST JUMPDEST PUSH2 0x1C7 DUP7 DUP3 DUP8 ADD PUSH2 0xEA JUMP JUMPDEST SWAP2 POP POP SWAP3 POP SWAP3 POP SWAP3 JUMP JUMPDEST PUSH1 0x0 PUSH2 0x1DB PUSH2 0x1EC JUMP JUMPDEST SWAP1 POP PUSH2 0x1E7 DUP3 DUP3 PUSH2 0x299 JUMP JUMPDEST SWAP2 SWAP1 POP JUMP JUMPDEST PUSH1 0x0 PUSH1 0x40 MLOAD SWAP1 POP SWAP1 JUMP JUMPDEST PUSH1 0x0 PUSH8 0xFFFFFFFFFFFFFFFF DUP3 GT ISZERO PUSH2 0x211 JUMPI PUSH2 0x210 PUSH2 0x2CA JUMP JUMPDEST JUMPDEST PUSH2 0x21A DUP3 PUSH2 0x30D JUMP JUMPDEST SWAP1 POP PUSH1 0x20 DUP2 ADD SWAP1 POP SWAP2 SWAP1 POP JUMP JUMPDEST PUSH1 0x0 PUSH8 0xFFFFFFFFFFFFFFFF DUP3 GT ISZERO PUSH2 0x242 JUMPI PUSH2 0x241 PUSH2 0x2CA JUMP JUMPDEST JUMPDEST PUSH2 0x24B DUP3 PUSH2 0x30D JUMP JUMPDEST SWAP1 POP PUSH1 0x20 DUP2 ADD SWAP1 POP SWAP2 SWAP1 POP JUMP JUMPDEST PUSH1 0x0 PUSH2 0x263 DUP3 PUSH2 0x26A JUMP JUMPDEST SWAP1 POP SWAP2 SWAP1 POP JUMP JUMPDEST PUSH1 0x0 PUSH20 0xFFFFFFFFFFFFFFFFFFFFFFFFFFFFFFFFFFFFFFFF DUP3 AND SWAP1 POP SWAP2 SWAP1 POP JUMP JUMPDEST DUP3 DUP2 DUP4 CALLDATACOPY PUSH1 0x0 DUP4 DUP4 ADD MSTORE POP POP POP JUMP JUMPDEST PUSH2 0x2A2 DUP3 PUSH2 0x30D JUMP JUMPDEST DUP2 ADD DUP2 DUP2 LT PUSH8 0xFFFFFFFFFFFFFFFF DUP3 GT OR ISZERO PUSH2 0x2C1 JUMPI PUSH2 0x2C0 PUSH2 0x2CA JUMP JUMPDEST JUMPDEST DUP1 PUSH1 0x40 MSTORE POP POP POP JUMP JUMPDEST PUSH32 0x4E487B7100000000000000000000000000000000000000000000000000000000 PUSH1 0x0 MSTORE PUSH1 0x41 PUSH1 0x4 MSTORE PUSH1 0x24 PUSH1 0x0 REVERT JUMPDEST PUSH1 0x0 DUP1 REVERT JUMPDEST PUSH1 0x0 DUP1 REVERT JUMPDEST PUSH1 0x0 DUP1 REVERT JUMPDEST PUSH1 0x0 DUP1 REVERT JUMPDEST PUSH1 0x0 PUSH1 0x1F NOT PUSH1 0x1F DUP4 ADD AND SWAP1 POP SWAP2 SWAP1 POP JUMP JUMPDEST PUSH2 0x327 DUP2 PUSH2 0x258 JUMP JUMPDEST DUP2 EQ PUSH2 0x332 JUMPI PUSH1 0x0 DUP1 REVERT JUMPDEST POP JUMP INVALID LOG2 PUSH5 0x6970667358 0x22 SLT KECCAK256 0x4B PUSH19 0x97562F32AB25F67528BF7D469F5E8B44B7A0DF PUSH4 0xEC6F6A96 XOR 0xE8 0xAA SWAP1 KECCAK256 KECCAK256 PUSH5 0x736F6C6343 STOP ADDMOD SMOD STOP CALLER "
				},
				"gasEstimates": {
					"creation": {
						"codeDepositCost": "175000",
						"executionCost": "220",
						"totalCost": "175220"
					},
					"external": {
						"verify(address,string,bytes)": "infinite"
					}
				},
				"methodIdentifiers": {
					"verify(address,string,bytes)": "2dd34f0f"
				}
			},
			"storageLayout": {
				"storage": [],
				"types": null
			},
			"userdoc": {
				"kind": "user",
				"methods": {},
				"version": 1
			}
		}
	}
}