{
	"contracts/CrowdFund.sol": {
		"CrowdFund": {
			"abi": [
				{
					"inputs": [
						{
							"internalType": "uint256",
							"name": "_id",
							"type": "uint256"
						}
					],
					"name": "cancel",
					"outputs": [],
					"stateMutability": "nonpayable",
					"type": "function"
				},
				{
					"inputs": [
						{
							"internalType": "uint256",
							"name": "_id",
							"type": "uint256"
						}
					],
					"name": "claim",
					"outputs": [],
					"stateMutability": "nonpayable",
					"type": "function"
				},
				{
					"inputs": [
						{
							"internalType": "uint256",
							"name": "goal",
							"type": "uint256"
						},
						{
							"internalType": "uint256",
							"name": "_startAt",
							"type": "uint256"
						},
						{
							"internalType": "uint256",
							"name": "_endAt",
							"type": "uint256"
						}
					],
					"name": "launch",
					"outputs": [],
					"stateMutability": "nonpayable",
					"type": "function"
				},
				{
					"inputs": [
						{
							"internalType": "uint256",
							"name": "_id",
							"type": "uint256"
						},
						{
							"internalType": "uint256",
							"name": "_amount",
							"type": "uint256"
						}
					],
					"name": "pledge",
					"outputs": [],
					"stateMutability": "nonpayable",
					"type": "function"
				},
				{
					"inputs": [
						{
							"internalType": "uint256",
							"name": "_id",
							"type": "uint256"
						}
					],
					"name": "refund",
					"outputs": [],
					"stateMutability": "nonpayable",
					"type": "function"
				},
				{
					"inputs": [
						{
							"internalType": "uint256",
							"name": "_id",
							"type": "uint256"
						},
						{
							"internalType": "uint256",
							"name": "_amount",
							"type": "uint256"
						}
					],
					"name": "unpledge",
					"outputs": [],
					"stateMutability": "nonpayable",
					"type": "function"
				}
			],
			"devdoc": {
				"kind": "dev",
				"methods": {},
				"version": 1
			},
			"evm": {
				"assembly": "    /* \"contracts/CrowdFund.sol\":61:505  contract CrowdFund {... */\n  mstore(0x40, 0x80)\n  callvalue\n  dup1\n  iszero\n  tag_1\n  jumpi\n  0x00\n  dup1\n  revert\ntag_1:\n  pop\n  dataSize(sub_0)\n  dup1\n  dataOffset(sub_0)\n  0x00\n  codecopy\n  0x00\n  return\nstop\n\nsub_0: assembly {\n        /* \"contracts/CrowdFund.sol\":61:505  contract CrowdFund {... */\n      mstore(0x40, 0x80)\n      callvalue\n      dup1\n      iszero\n      tag_1\n      jumpi\n      0x00\n      dup1\n      revert\n    tag_1:\n      pop\n      jumpi(tag_2, lt(calldatasize, 0x04))\n      shr(0xe0, calldataload(0x00))\n      dup1\n      0x278ecde1\n      eq\n      tag_3\n      jumpi\n      dup1\n      0x379607f5\n      eq\n      tag_4\n      jumpi\n      dup1\n      0x40e58ee5\n      eq\n      tag_5\n      jumpi\n      dup1\n      0x711853ab\n      eq\n      tag_6\n      jumpi\n      dup1\n      0x8736c179\n      eq\n      tag_7\n      jumpi\n      dup1\n      0xfde327be\n      eq\n      tag_8\n      jumpi\n    tag_2:\n      0x00\n      dup1\n      revert\n        /* \"contracts/CrowdFund.sol\":445:498  function refund(uint _id) external {... */\n    tag_3:\n      tag_9\n      0x04\n      dup1\n      calldatasize\n      sub\n      dup2\n      add\n      swap1\n      tag_10\n      swap2\n      swap1\n      tag_11\n      jump\t// in\n    tag_10:\n      tag_12\n      jump\t// in\n    tag_9:\n      stop\n        /* \"contracts/CrowdFund.sol\":393:437  function claim(uint _id) external {... */\n    tag_4:\n      tag_13\n      0x04\n      dup1\n      calldatasize\n      sub\n      dup2\n      add\n      swap1\n      tag_14\n      swap2\n      swap1\n      tag_11\n      jump\t// in\n    tag_14:\n      tag_15\n      jump\t// in\n    tag_13:\n      stop\n        /* \"contracts/CrowdFund.sol\":204:249  function cancel(uint _id) external {... */\n    tag_5:\n      tag_16\n      0x04\n      dup1\n      calldatasize\n      sub\n      dup2\n      add\n      swap1\n      tag_17\n      swap2\n      swap1\n      tag_11\n      jump\t// in\n    tag_17:\n      tag_18\n      jump\t// in\n    tag_16:\n      stop\n        /* \"contracts/CrowdFund.sol\":324:385  function unpledge(uint _id, uint _amount) external {... */\n    tag_6:\n      tag_19\n      0x04\n      dup1\n      calldatasize\n      sub\n      dup2\n      add\n      swap1\n      tag_20\n      swap2\n      swap1\n      tag_21\n      jump\t// in\n    tag_20:\n      tag_22\n      jump\t// in\n    tag_19:\n      stop\n        /* \"contracts/CrowdFund.sol\":87:196  function launch (... */\n    tag_7:\n      tag_23\n      0x04\n      dup1\n      calldatasize\n      sub\n      dup2\n      add\n      swap1\n      tag_24\n      swap2\n      swap1\n      tag_25\n      jump\t// in\n    tag_24:\n      tag_26\n      jump\t// in\n    tag_23:\n      stop\n        /* \"contracts/CrowdFund.sol\":257:316  function pledge(uint _id, uint _amount) external {... */\n    tag_8:\n      tag_27\n      0x04\n      dup1\n      calldatasize\n      sub\n      dup2\n      add\n      swap1\n      tag_28\n      swap2\n      swap1\n      tag_21\n      jump\t// in\n    tag_28:\n      tag_29\n      jump\t// in\n    tag_27:\n      stop\n        /* \"contracts/CrowdFund.sol\":445:498  function refund(uint _id) external {... */\n    tag_12:\n      pop\n      jump\t// out\n        /* \"contracts/CrowdFund.sol\":393:437  function claim(uint _id) external {... */\n    tag_15:\n      pop\n      jump\t// out\n        /* \"contracts/CrowdFund.sol\":204:249  function cancel(uint _id) external {... */\n    tag_18:\n      pop\n      jump\t// out\n        /* \"contracts/CrowdFund.sol\":324:385  function unpledge(uint _id, uint _amount) external {... */\n    tag_22:\n      pop\n      pop\n      jump\t// out\n        /* \"contracts/CrowdFund.sol\":87:196  function launch (... */\n    tag_26:\n      pop\n      pop\n      pop\n      jump\t// out\n        /* \"contracts/CrowdFund.sol\":257:316  function pledge(uint _id, uint _amount) external {... */\n    tag_29:\n      pop\n      pop\n      jump\t// out\n        /* \"#utility.yul\":88:205   */\n    tag_37:\n        /* \"#utility.yul\":197:198   */\n      0x00\n        /* \"#utility.yul\":194:195   */\n      dup1\n        /* \"#utility.yul\":187:199   */\n      revert\n        /* \"#utility.yul\":334:411   */\n    tag_39:\n        /* \"#utility.yul\":371:378   */\n      0x00\n        /* \"#utility.yul\":400:405   */\n      dup2\n        /* \"#utility.yul\":389:405   */\n      swap1\n      pop\n        /* \"#utility.yul\":334:411   */\n      swap2\n      swap1\n      pop\n      jump\t// out\n        /* \"#utility.yul\":417:539   */\n    tag_40:\n        /* \"#utility.yul\":490:514   */\n      tag_48\n        /* \"#utility.yul\":508:513   */\n      dup2\n        /* \"#utility.yul\":490:514   */\n      tag_39\n      jump\t// in\n    tag_48:\n        /* \"#utility.yul\":483:488   */\n      dup2\n        /* \"#utility.yul\":480:515   */\n      eq\n        /* \"#utility.yul\":470:533   */\n      tag_49\n      jumpi\n        /* \"#utility.yul\":529:530   */\n      0x00\n        /* \"#utility.yul\":526:527   */\n      dup1\n        /* \"#utility.yul\":519:531   */\n      revert\n        /* \"#utility.yul\":470:533   */\n    tag_49:\n        /* \"#utility.yul\":417:539   */\n      pop\n      jump\t// out\n        /* \"#utility.yul\":545:684   */\n    tag_41:\n        /* \"#utility.yul\":591:596   */\n      0x00\n        /* \"#utility.yul\":629:635   */\n      dup2\n        /* \"#utility.yul\":616:636   */\n      calldataload\n        /* \"#utility.yul\":607:636   */\n      swap1\n      pop\n        /* \"#utility.yul\":645:678   */\n      tag_51\n        /* \"#utility.yul\":672:677   */\n      dup2\n        /* \"#utility.yul\":645:678   */\n      tag_40\n      jump\t// in\n    tag_51:\n        /* \"#utility.yul\":545:684   */\n      swap3\n      swap2\n      pop\n      pop\n      jump\t// out\n        /* \"#utility.yul\":690:1019   */\n    tag_11:\n        /* \"#utility.yul\":749:755   */\n      0x00\n        /* \"#utility.yul\":798:800   */\n      0x20\n        /* \"#utility.yul\":786:795   */\n      dup3\n        /* \"#utility.yul\":777:784   */\n      dup5\n        /* \"#utility.yul\":773:796   */\n      sub\n        /* \"#utility.yul\":769:801   */\n      slt\n        /* \"#utility.yul\":766:885   */\n      iszero\n      tag_53\n      jumpi\n        /* \"#utility.yul\":804:883   */\n      tag_54\n      tag_37\n      jump\t// in\n    tag_54:\n        /* \"#utility.yul\":766:885   */\n    tag_53:\n        /* \"#utility.yul\":924:925   */\n      0x00\n        /* \"#utility.yul\":949:1002   */\n      tag_55\n        /* \"#utility.yul\":994:1001   */\n      dup5\n        /* \"#utility.yul\":985:991   */\n      dup3\n        /* \"#utility.yul\":974:983   */\n      dup6\n        /* \"#utility.yul\":970:992   */\n      add\n        /* \"#utility.yul\":949:1002   */\n      tag_41\n      jump\t// in\n    tag_55:\n        /* \"#utility.yul\":939:1002   */\n      swap2\n      pop\n        /* \"#utility.yul\":895:1012   */\n      pop\n        /* \"#utility.yul\":690:1019   */\n      swap3\n      swap2\n      pop\n      pop\n      jump\t// out\n        /* \"#utility.yul\":1025:1499   */\n    tag_21:\n        /* \"#utility.yul\":1093:1099   */\n      0x00\n        /* \"#utility.yul\":1101:1107   */\n      dup1\n        /* \"#utility.yul\":1150:1152   */\n      0x40\n        /* \"#utility.yul\":1138:1147   */\n      dup4\n        /* \"#utility.yul\":1129:1136   */\n      dup6\n        /* \"#utility.yul\":1125:1148   */\n      sub\n        /* \"#utility.yul\":1121:1153   */\n      slt\n        /* \"#utility.yul\":1118:1237   */\n      iszero\n      tag_57\n      jumpi\n        /* \"#utility.yul\":1156:1235   */\n      tag_58\n      tag_37\n      jump\t// in\n    tag_58:\n        /* \"#utility.yul\":1118:1237   */\n    tag_57:\n        /* \"#utility.yul\":1276:1277   */\n      0x00\n        /* \"#utility.yul\":1301:1354   */\n      tag_59\n        /* \"#utility.yul\":1346:1353   */\n      dup6\n        /* \"#utility.yul\":1337:1343   */\n      dup3\n        /* \"#utility.yul\":1326:1335   */\n      dup7\n        /* \"#utility.yul\":1322:1344   */\n      add\n        /* \"#utility.yul\":1301:1354   */\n      tag_41\n      jump\t// in\n    tag_59:\n        /* \"#utility.yul\":1291:1354   */\n      swap3\n      pop\n        /* \"#utility.yul\":1247:1364   */\n      pop\n        /* \"#utility.yul\":1403:1405   */\n      0x20\n        /* \"#utility.yul\":1429:1482   */\n      tag_60\n        /* \"#utility.yul\":1474:1481   */\n      dup6\n        /* \"#utility.yul\":1465:1471   */\n      dup3\n        /* \"#utility.yul\":1454:1463   */\n      dup7\n        /* \"#utility.yul\":1450:1472   */\n      add\n        /* \"#utility.yul\":1429:1482   */\n      tag_41\n      jump\t// in\n    tag_60:\n        /* \"#utility.yul\":1419:1482   */\n      swap2\n      pop\n        /* \"#utility.yul\":1374:1492   */\n      pop\n        /* \"#utility.yul\":1025:1499   */\n      swap3\n      pop\n      swap3\n      swap1\n      pop\n      jump\t// out\n        /* \"#utility.yul\":1505:2124   */\n    tag_25:\n        /* \"#utility.yul\":1582:1588   */\n      0x00\n        /* \"#utility.yul\":1590:1596   */\n      dup1\n        /* \"#utility.yul\":1598:1604   */\n      0x00\n        /* \"#utility.yul\":1647:1649   */\n      0x60\n        /* \"#utility.yul\":1635:1644   */\n      dup5\n        /* \"#utility.yul\":1626:1633   */\n      dup7\n        /* \"#utility.yul\":1622:1645   */\n      sub\n        /* \"#utility.yul\":1618:1650   */\n      slt\n        /* \"#utility.yul\":1615:1734   */\n      iszero\n      tag_62\n      jumpi\n        /* \"#utility.yul\":1653:1732   */\n      tag_63\n      tag_37\n      jump\t// in\n    tag_63:\n        /* \"#utility.yul\":1615:1734   */\n    tag_62:\n        /* \"#utility.yul\":1773:1774   */\n      0x00\n        /* \"#utility.yul\":1798:1851   */\n      tag_64\n        /* \"#utility.yul\":1843:1850   */\n      dup7\n        /* \"#utility.yul\":1834:1840   */\n      dup3\n        /* \"#utility.yul\":1823:1832   */\n      dup8\n        /* \"#utility.yul\":1819:1841   */\n      add\n        /* \"#utility.yul\":1798:1851   */\n      tag_41\n      jump\t// in\n    tag_64:\n        /* \"#utility.yul\":1788:1851   */\n      swap4\n      pop\n        /* \"#utility.yul\":1744:1861   */\n      pop\n        /* \"#utility.yul\":1900:1902   */\n      0x20\n        /* \"#utility.yul\":1926:1979   */\n      tag_65\n        /* \"#utility.yul\":1971:1978   */\n      dup7\n        /* \"#utility.yul\":1962:1968   */\n      dup3\n        /* \"#utility.yul\":1951:1960   */\n      dup8\n        /* \"#utility.yul\":1947:1969   */\n      add\n        /* \"#utility.yul\":1926:1979   */\n      tag_41\n      jump\t// in\n    tag_65:\n        /* \"#utility.yul\":1916:1979   */\n      swap3\n      pop\n        /* \"#utility.yul\":1871:1989   */\n      pop\n        /* \"#utility.yul\":2028:2030   */\n      0x40\n        /* \"#utility.yul\":2054:2107   */\n      tag_66\n        /* \"#utility.yul\":2099:2106   */\n      dup7\n        /* \"#utility.yul\":2090:2096   */\n      dup3\n        /* \"#utility.yul\":2079:2088   */\n      dup8\n        /* \"#utility.yul\":2075:2097   */\n      add\n        /* \"#utility.yul\":2054:2107   */\n      tag_41\n      jump\t// in\n    tag_66:\n        /* \"#utility.yul\":2044:2107   */\n      swap2\n      pop\n        /* \"#utility.yul\":1999:2117   */\n      pop\n        /* \"#utility.yul\":1505:2124   */\n      swap3\n      pop\n      swap3\n      pop\n      swap3\n      jump\t// out\n\n    auxdata: 0xa264697066735822122030d2035cde6b0ac253aa1c6e39a45eb2670889aefe6f0b5bd6e008e0e73998d964736f6c63430008110033\n}\n",
				"bytecode": {
					"linkReferences": {},
					"object": "608060405234801561001057600080fd5b50610256806100206000396000f3fe608060405234801561001057600080fd5b50600436106100625760003560e01c8063278ecde114610067578063379607f51461008357806340e58ee51461009f578063711853ab146100bb5780638736c179146100d7578063fde327be146100f3575b600080fd5b610081600480360381019061007c9190610160565b61010f565b005b61009d60048036038101906100989190610160565b610112565b005b6100b960048036038101906100b49190610160565b610115565b005b6100d560048036038101906100d0919061018d565b610118565b005b6100f160048036038101906100ec91906101cd565b61011c565b005b61010d6004803603810190610108919061018d565b610121565b005b50565b50565b50565b5050565b505050565b5050565b600080fd5b6000819050919050565b61013d8161012a565b811461014857600080fd5b50565b60008135905061015a81610134565b92915050565b60006020828403121561017657610175610125565b5b60006101848482850161014b565b91505092915050565b600080604083850312156101a4576101a3610125565b5b60006101b28582860161014b565b92505060206101c38582860161014b565b9150509250929050565b6000806000606084860312156101e6576101e5610125565b5b60006101f48682870161014b565b93505060206102058682870161014b565b92505060406102168682870161014b565b915050925092509256fea264697066735822122030d2035cde6b0ac253aa1c6e39a45eb2670889aefe6f0b5bd6e008e0e73998d964736f6c63430008110033",
					"opcodes": "PUSH1 0x80 PUSH1 0x40 MSTORE CALLVALUE DUP1 ISZERO PUSH2 0x10 JUMPI PUSH1 0x0 DUP1 REVERT JUMPDEST POP PUSH2 0x256 DUP1 PUSH2 0x20 PUSH1 0x0 CODECOPY PUSH1 0x0 RETURN INVALID PUSH1 0x80 PUSH1 0x40 MSTORE CALLVALUE DUP1 ISZERO PUSH2 0x10 JUMPI PUSH1 0x0 DUP1 REVERT JUMPDEST POP PUSH1 0x4 CALLDATASIZE LT PUSH2 0x62 JUMPI PUSH1 0x0 CALLDATALOAD PUSH1 0xE0 SHR DUP1 PUSH4 0x278ECDE1 EQ PUSH2 0x67 JUMPI DUP1 PUSH4 0x379607F5 EQ PUSH2 0x83 JUMPI DUP1 PUSH4 0x40E58EE5 EQ PUSH2 0x9F JUMPI DUP1 PUSH4 0x711853AB EQ PUSH2 0xBB JUMPI DUP1 PUSH4 0x8736C179 EQ PUSH2 0xD7 JUMPI DUP1 PUSH4 0xFDE327BE EQ PUSH2 0xF3 JUMPI JUMPDEST PUSH1 0x0 DUP1 REVERT JUMPDEST PUSH2 0x81 PUSH1 0x4 DUP1 CALLDATASIZE SUB DUP2 ADD SWAP1 PUSH2 0x7C SWAP2 SWAP1 PUSH2 0x160 JUMP JUMPDEST PUSH2 0x10F JUMP JUMPDEST STOP JUMPDEST PUSH2 0x9D PUSH1 0x4 DUP1 CALLDATASIZE SUB DUP2 ADD SWAP1 PUSH2 0x98 SWAP2 SWAP1 PUSH2 0x160 JUMP JUMPDEST PUSH2 0x112 JUMP JUMPDEST STOP JUMPDEST PUSH2 0xB9 PUSH1 0x4 DUP1 CALLDATASIZE SUB DUP2 ADD SWAP1 PUSH2 0xB4 SWAP2 SWAP1 PUSH2 0x160 JUMP JUMPDEST PUSH2 0x115 JUMP JUMPDEST STOP JUMPDEST PUSH2 0xD5 PUSH1 0x4 DUP1 CALLDATASIZE SUB DUP2 ADD SWAP1 PUSH2 0xD0 SWAP2 SWAP1 PUSH2 0x18D JUMP JUMPDEST PUSH2 0x118 JUMP JUMPDEST STOP JUMPDEST PUSH2 0xF1 PUSH1 0x4 DUP1 CALLDATASIZE SUB DUP2 ADD SWAP1 PUSH2 0xEC SWAP2 SWAP1 PUSH2 0x1CD JUMP JUMPDEST PUSH2 0x11C JUMP JUMPDEST STOP JUMPDEST PUSH2 0x10D PUSH1 0x4 DUP1 CALLDATASIZE SUB DUP2 ADD SWAP1 PUSH2 0x108 SWAP2 SWAP1 PUSH2 0x18D JUMP JUMPDEST PUSH2 0x121 JUMP JUMPDEST STOP JUMPDEST POP JUMP JUMPDEST POP JUMP JUMPDEST POP JUMP JUMPDEST POP POP JUMP JUMPDEST POP POP POP JUMP JUMPDEST POP POP JUMP JUMPDEST PUSH1 0x0 DUP1 REVERT JUMPDEST PUSH1 0x0 DUP2 SWAP1 POP SWAP2 SWAP1 POP JUMP JUMPDEST PUSH2 0x13D DUP2 PUSH2 0x12A JUMP JUMPDEST DUP2 EQ PUSH2 0x148 JUMPI PUSH1 0x0 DUP1 REVERT JUMPDEST POP JUMP JUMPDEST PUSH1 0x0 DUP2 CALLDATALOAD SWAP1 POP PUSH2 0x15A DUP2 PUSH2 0x134 JUMP JUMPDEST SWAP3 SWAP2 POP POP JUMP JUMPDEST PUSH1 0x0 PUSH1 0x20 DUP3 DUP5 SUB SLT ISZERO PUSH2 0x176 JUMPI PUSH2 0x175 PUSH2 0x125 JUMP JUMPDEST JUMPDEST PUSH1 0x0 PUSH2 0x184 DUP5 DUP3 DUP6 ADD PUSH2 0x14B JUMP JUMPDEST SWAP2 POP POP SWAP3 SWAP2 POP POP JUMP JUMPDEST PUSH1 0x0 DUP1 PUSH1 0x40 DUP4 DUP6 SUB SLT ISZERO PUSH2 0x1A4 JUMPI PUSH2 0x1A3 PUSH2 0x125 JUMP JUMPDEST JUMPDEST PUSH1 0x0 PUSH2 0x1B2 DUP6 DUP3 DUP7 ADD PUSH2 0x14B JUMP JUMPDEST SWAP3 POP POP PUSH1 0x20 PUSH2 0x1C3 DUP6 DUP3 DUP7 ADD PUSH2 0x14B JUMP JUMPDEST SWAP2 POP POP SWAP3 POP SWAP3 SWAP1 POP JUMP JUMPDEST PUSH1 0x0 DUP1 PUSH1 0x0 PUSH1 0x60 DUP5 DUP7 SUB SLT ISZERO PUSH2 0x1E6 JUMPI PUSH2 0x1E5 PUSH2 0x125 JUMP JUMPDEST JUMPDEST PUSH1 0x0 PUSH2 0x1F4 DUP7 DUP3 DUP8 ADD PUSH2 0x14B JUMP JUMPDEST SWAP4 POP POP PUSH1 0x20 PUSH2 0x205 DUP7 DUP3 DUP8 ADD PUSH2 0x14B JUMP JUMPDEST SWAP3 POP POP PUSH1 0x40 PUSH2 0x216 DUP7 DUP3 DUP8 ADD PUSH2 0x14B JUMP JUMPDEST SWAP2 POP POP SWAP3 POP SWAP3 POP SWAP3 JUMP INVALID LOG2 PUSH5 0x6970667358 0x22 SLT KECCAK256 ADDRESS 0xD2 SUB 0x5C 0xDE PUSH12 0xAC253AA1C6E39A45EB26708 DUP10 0xAE INVALID PUSH16 0xB5BD6E008E0E73998D964736F6C6343 STOP ADDMOD GT STOP CALLER "
				},
				"gasEstimates": {
					"creation": {
						"codeDepositCost": "119600",
						"executionCost": "165",
						"totalCost": "119765"
					},
					"external": {
						"cancel(uint256)": "428",
						"claim(uint256)": "406",
						"launch(uint256,uint256,uint256)": "infinite",
						"pledge(uint256,uint256)": "infinite",
						"refund(uint256)": "384",
						"unpledge(uint256,uint256)": "infinite"
					}
				},
				"methodIdentifiers": {
					"cancel(uint256)": "40e58ee5",
					"claim(uint256)": "379607f5",
					"launch(uint256,uint256,uint256)": "8736c179",
					"pledge(uint256,uint256)": "fde327be",
					"refund(uint256)": "278ecde1",
					"unpledge(uint256,uint256)": "711853ab"
				}
			},
			"storageLayout": {
				"storage": [],
				"types": null
			},
			"userdoc": {
				"kind": "user",
				"methods": {},
				"version": 1
			}
		}
	}
}