{
	"contracts/CallOtherContracts.sol": {
		"CallTestContract": {
			"abi": [
				{
					"inputs": [
						{
							"internalType": "contract TestContract",
							"name": "_test",
							"type": "address"
						}
					],
					"name": "getX",
					"outputs": [
						{
							"internalType": "uint256",
							"name": "x",
							"type": "uint256"
						}
					],
					"stateMutability": "view",
					"type": "function"
				},
				{
					"inputs": [
						{
							"internalType": "contract TestContract",
							"name": "_test",
							"type": "address"
						}
					],
					"name": "getXAndValue",
					"outputs": [
						{
							"internalType": "uint256",
							"name": "x",
							"type": "uint256"
						}
					],
					"stateMutability": "view",
					"type": "function"
				},
				{
					"inputs": [
						{
							"internalType": "contract TestContract",
							"name": "_test",
							"type": "address"
						},
						{
							"internalType": "uint256",
							"name": "_x",
							"type": "uint256"
						}
					],
					"name": "setX",
					"outputs": [],
					"stateMutability": "nonpayable",
					"type": "function"
				},
				{
					"inputs": [
						{
							"internalType": "address",
							"name": "_test",
							"type": "address"
						},
						{
							"internalType": "uint256",
							"name": "_x",
							"type": "uint256"
						}
					],
					"name": "setXAndSendEther",
					"outputs": [],
					"stateMutability": "payable",
					"type": "function"
				}
			],
			"devdoc": {
				"kind": "dev",
				"methods": {},
				"version": 1
			},
			"evm": {
				"assembly": "    /* \"contracts/CallOtherContracts.sol\":60:560  contract CallTestContract {\r... */\n  mstore(0x40, 0x80)\n  callvalue\n  dup1\n  iszero\n  tag_1\n  jumpi\n  0x00\n  dup1\n  revert\ntag_1:\n  pop\n  dataSize(sub_0)\n  dup1\n  dataOffset(sub_0)\n  0x00\n  codecopy\n  0x00\n  return\nstop\n\nsub_0: assembly {\n        /* \"contracts/CallOtherContracts.sol\":60:560  contract CallTestContract {\r... */\n      mstore(0x40, 0x80)\n      jumpi(tag_1, lt(calldatasize, 0x04))\n      shr(0xe0, calldataload(0x00))\n      dup1\n      0x27a9f474\n      eq\n      tag_2\n      jumpi\n      dup1\n      0x4a2ad99f\n      eq\n      tag_3\n      jumpi\n      dup1\n      0x7c94c8ca\n      eq\n      tag_4\n      jumpi\n      dup1\n      0xb0620948\n      eq\n      tag_5\n      jumpi\n    tag_1:\n      0x00\n      dup1\n      revert\n        /* \"contracts/CallOtherContracts.sol\":293:439  function setXAndSendEther(address _test, uint _x) external payable {\r... */\n    tag_2:\n      tag_6\n      0x04\n      dup1\n      calldatasize\n      sub\n      dup2\n      add\n      swap1\n      tag_7\n      swap2\n      swap1\n      tag_8\n      jump\t// in\n    tag_7:\n      tag_9\n      jump\t// in\n    tag_6:\n      stop\n        /* \"contracts/CallOtherContracts.sol\":93:177  function setX(TestContract _test, uint _x) external {\r... */\n    tag_3:\n      callvalue\n      dup1\n      iszero\n      tag_10\n      jumpi\n      0x00\n      dup1\n      revert\n    tag_10:\n      pop\n      tag_11\n      0x04\n      dup1\n      calldatasize\n      sub\n      dup2\n      add\n      swap1\n      tag_12\n      swap2\n      swap1\n      tag_13\n      jump\t// in\n    tag_12:\n      tag_14\n      jump\t// in\n    tag_11:\n      stop\n        /* \"contracts/CallOtherContracts.sol\":185:285  function getX(TestContract _test) external view returns (uint x) {\r... */\n    tag_4:\n      callvalue\n      dup1\n      iszero\n      tag_15\n      jumpi\n      0x00\n      dup1\n      revert\n    tag_15:\n      pop\n      tag_16\n      0x04\n      dup1\n      calldatasize\n      sub\n      dup2\n      add\n      swap1\n      tag_17\n      swap2\n      swap1\n      tag_18\n      jump\t// in\n    tag_17:\n      tag_19\n      jump\t// in\n    tag_16:\n      mload(0x40)\n      tag_20\n      swap2\n      swap1\n      tag_21\n      jump\t// in\n    tag_20:\n      mload(0x40)\n      dup1\n      swap2\n      sub\n      swap1\n      return\n        /* \"contracts/CallOtherContracts.sol\":447:555  function getXAndValue(TestContract _test) external view returns (uint x) {\r... */\n    tag_5:\n      callvalue\n      dup1\n      iszero\n      tag_22\n      jumpi\n      0x00\n      dup1\n      revert\n    tag_22:\n      pop\n      tag_23\n      0x04\n      dup1\n      calldatasize\n      sub\n      dup2\n      add\n      swap1\n      tag_24\n      swap2\n      swap1\n      tag_18\n      jump\t// in\n    tag_24:\n      tag_25\n      jump\t// in\n    tag_23:\n      mload(0x40)\n      tag_26\n      swap2\n      swap1\n      tag_21\n      jump\t// in\n    tag_26:\n      mload(0x40)\n      dup1\n      swap2\n      sub\n      swap1\n      return\n        /* \"contracts/CallOtherContracts.sol\":293:439  function setXAndSendEther(address _test, uint _x) external payable {\r... */\n    tag_9:\n        /* \"contracts/CallOtherContracts.sol\":383:388  _test */\n      dup2\n        /* \"contracts/CallOtherContracts.sol\":370:409  TestContract(_test).setXandReceiveEther */\n      0xffffffffffffffffffffffffffffffffffffffff\n      and\n      0x02f42be9\n        /* \"contracts/CallOtherContracts.sol\":417:426  msg.value */\n      callvalue\n        /* \"contracts/CallOtherContracts.sol\":428:430  _x */\n      dup4\n        /* \"contracts/CallOtherContracts.sol\":370:431  TestContract(_test).setXandReceiveEther{value: msg.value}(_x) */\n      mload(0x40)\n      dup4\n      0xffffffff\n      and\n      0xe0\n      shl\n      dup2\n      mstore\n      0x04\n      add\n      tag_28\n      swap2\n      swap1\n      tag_21\n      jump\t// in\n    tag_28:\n      0x00\n      mload(0x40)\n      dup1\n      dup4\n      sub\n      dup2\n      dup6\n      dup9\n      dup1\n      extcodesize\n      iszero\n      dup1\n      iszero\n      tag_29\n      jumpi\n      0x00\n      dup1\n      revert\n    tag_29:\n      pop\n      gas\n      call\n      iszero\n      dup1\n      iszero\n      tag_31\n      jumpi\n      returndatasize\n      0x00\n      dup1\n      returndatacopy\n      revert(0x00, returndatasize)\n    tag_31:\n      pop\n      pop\n      pop\n      pop\n      pop\n        /* \"contracts/CallOtherContracts.sol\":293:439  function setXAndSendEther(address _test, uint _x) external payable {\r... */\n      pop\n      pop\n      jump\t// out\n        /* \"contracts/CallOtherContracts.sol\":93:177  function setX(TestContract _test, uint _x) external {\r... */\n    tag_14:\n        /* \"contracts/CallOtherContracts.sol\":155:160  _test */\n      dup2\n        /* \"contracts/CallOtherContracts.sol\":155:165  _test.setX */\n      0xffffffffffffffffffffffffffffffffffffffff\n      and\n      0x4018d9aa\n        /* \"contracts/CallOtherContracts.sol\":166:168  _x */\n      dup3\n        /* \"contracts/CallOtherContracts.sol\":155:169  _test.setX(_x) */\n      mload(0x40)\n      dup3\n      0xffffffff\n      and\n      0xe0\n      shl\n      dup2\n      mstore\n      0x04\n      add\n      tag_33\n      swap2\n      swap1\n      tag_21\n      jump\t// in\n    tag_33:\n      0x00\n      mload(0x40)\n      dup1\n      dup4\n      sub\n      dup2\n      0x00\n      dup8\n      dup1\n      extcodesize\n      iszero\n      dup1\n      iszero\n      tag_34\n      jumpi\n      0x00\n      dup1\n      revert\n    tag_34:\n      pop\n      gas\n      call\n      iszero\n      dup1\n      iszero\n      tag_36\n      jumpi\n      returndatasize\n      0x00\n      dup1\n      returndatacopy\n      revert(0x00, returndatasize)\n    tag_36:\n      pop\n      pop\n      pop\n      pop\n        /* \"contracts/CallOtherContracts.sol\":93:177  function setX(TestContract _test, uint _x) external {\r... */\n      pop\n      pop\n      jump\t// out\n        /* \"contracts/CallOtherContracts.sol\":185:285  function getX(TestContract _test) external view returns (uint x) {\r... */\n    tag_19:\n        /* \"contracts/CallOtherContracts.sol\":242:248  uint x */\n      0x00\n        /* \"contracts/CallOtherContracts.sol\":265:270  _test */\n      dup2\n        /* \"contracts/CallOtherContracts.sol\":265:275  _test.getX */\n      0xffffffffffffffffffffffffffffffffffffffff\n      and\n      0x5197c7aa\n        /* \"contracts/CallOtherContracts.sol\":265:277  _test.getX() */\n      mload(0x40)\n      dup2\n      0xffffffff\n      and\n      0xe0\n      shl\n      dup2\n      mstore\n      0x04\n      add\n      0x20\n      mload(0x40)\n      dup1\n      dup4\n      sub\n      dup2\n      dup7\n      dup1\n      extcodesize\n      iszero\n      dup1\n      iszero\n      tag_38\n      jumpi\n      0x00\n      dup1\n      revert\n    tag_38:\n      pop\n      gas\n      staticcall\n      iszero\n      dup1\n      iszero\n      tag_40\n      jumpi\n      returndatasize\n      0x00\n      dup1\n      returndatacopy\n      revert(0x00, returndatasize)\n    tag_40:\n      pop\n      pop\n      pop\n      pop\n      mload(0x40)\n      returndatasize\n      not(0x1f)\n      0x1f\n      dup3\n      add\n      and\n      dup3\n      add\n      dup1\n      0x40\n      mstore\n      pop\n      dup2\n      add\n      swap1\n      tag_41\n      swap2\n      swap1\n      tag_42\n      jump\t// in\n    tag_41:\n        /* \"contracts/CallOtherContracts.sol\":261:277  x = _test.getX() */\n      swap1\n      pop\n        /* \"contracts/CallOtherContracts.sol\":185:285  function getX(TestContract _test) external view returns (uint x) {\r... */\n      swap2\n      swap1\n      pop\n      jump\t// out\n        /* \"contracts/CallOtherContracts.sol\":447:555  function getXAndValue(TestContract _test) external view returns (uint x) {\r... */\n    tag_25:\n        /* \"contracts/CallOtherContracts.sol\":512:518  uint x */\n      0x00\n        /* \"contracts/CallOtherContracts.sol\":535:540  _test */\n      dup2\n        /* \"contracts/CallOtherContracts.sol\":535:545  _test.getX */\n      0xffffffffffffffffffffffffffffffffffffffff\n      and\n      0x5197c7aa\n        /* \"contracts/CallOtherContracts.sol\":535:547  _test.getX() */\n      mload(0x40)\n      dup2\n      0xffffffff\n      and\n      0xe0\n      shl\n      dup2\n      mstore\n      0x04\n      add\n      0x20\n      mload(0x40)\n      dup1\n      dup4\n      sub\n      dup2\n      dup7\n      dup1\n      extcodesize\n      iszero\n      dup1\n      iszero\n      tag_44\n      jumpi\n      0x00\n      dup1\n      revert\n    tag_44:\n      pop\n      gas\n      staticcall\n      iszero\n      dup1\n      iszero\n      tag_46\n      jumpi\n      returndatasize\n      0x00\n      dup1\n      returndatacopy\n      revert(0x00, returndatasize)\n    tag_46:\n      pop\n      pop\n      pop\n      pop\n      mload(0x40)\n      returndatasize\n      not(0x1f)\n      0x1f\n      dup3\n      add\n      and\n      dup3\n      add\n      dup1\n      0x40\n      mstore\n      pop\n      dup2\n      add\n      swap1\n      tag_47\n      swap2\n      swap1\n      tag_42\n      jump\t// in\n    tag_47:\n        /* \"contracts/CallOtherContracts.sol\":531:547  x = _test.getX() */\n      swap1\n      pop\n        /* \"contracts/CallOtherContracts.sol\":447:555  function getXAndValue(TestContract _test) external view returns (uint x) {\r... */\n      swap2\n      swap1\n      pop\n      jump\t// out\n        /* \"#utility.yul\":7:146   */\n    tag_49:\n        /* \"#utility.yul\":53:58   */\n      0x00\n        /* \"#utility.yul\":91:97   */\n      dup2\n        /* \"#utility.yul\":78:98   */\n      calldataload\n        /* \"#utility.yul\":69:98   */\n      swap1\n      pop\n        /* \"#utility.yul\":107:140   */\n      tag_51\n        /* \"#utility.yul\":134:139   */\n      dup2\n        /* \"#utility.yul\":107:140   */\n      tag_52\n      jump\t// in\n    tag_51:\n        /* \"#utility.yul\":7:146   */\n      swap3\n      swap2\n      pop\n      pop\n      jump\t// out\n        /* \"#utility.yul\":152:331   */\n    tag_53:\n        /* \"#utility.yul\":218:223   */\n      0x00\n        /* \"#utility.yul\":256:262   */\n      dup2\n        /* \"#utility.yul\":243:263   */\n      calldataload\n        /* \"#utility.yul\":234:263   */\n      swap1\n      pop\n        /* \"#utility.yul\":272:325   */\n      tag_55\n        /* \"#utility.yul\":319:324   */\n      dup2\n        /* \"#utility.yul\":272:325   */\n      tag_56\n      jump\t// in\n    tag_55:\n        /* \"#utility.yul\":152:331   */\n      swap3\n      swap2\n      pop\n      pop\n      jump\t// out\n        /* \"#utility.yul\":337:476   */\n    tag_57:\n        /* \"#utility.yul\":383:388   */\n      0x00\n        /* \"#utility.yul\":421:427   */\n      dup2\n        /* \"#utility.yul\":408:428   */\n      calldataload\n        /* \"#utility.yul\":399:428   */\n      swap1\n      pop\n        /* \"#utility.yul\":437:470   */\n      tag_59\n        /* \"#utility.yul\":464:469   */\n      dup2\n        /* \"#utility.yul\":437:470   */\n      tag_60\n      jump\t// in\n    tag_59:\n        /* \"#utility.yul\":337:476   */\n      swap3\n      swap2\n      pop\n      pop\n      jump\t// out\n        /* \"#utility.yul\":482:625   */\n    tag_61:\n        /* \"#utility.yul\":539:544   */\n      0x00\n        /* \"#utility.yul\":570:576   */\n      dup2\n        /* \"#utility.yul\":564:577   */\n      mload\n        /* \"#utility.yul\":555:577   */\n      swap1\n      pop\n        /* \"#utility.yul\":586:619   */\n      tag_63\n        /* \"#utility.yul\":613:618   */\n      dup2\n        /* \"#utility.yul\":586:619   */\n      tag_60\n      jump\t// in\n    tag_63:\n        /* \"#utility.yul\":482:625   */\n      swap3\n      swap2\n      pop\n      pop\n      jump\t// out\n        /* \"#utility.yul\":631:1105   */\n    tag_8:\n        /* \"#utility.yul\":699:705   */\n      0x00\n        /* \"#utility.yul\":707:713   */\n      dup1\n        /* \"#utility.yul\":756:758   */\n      0x40\n        /* \"#utility.yul\":744:753   */\n      dup4\n        /* \"#utility.yul\":735:742   */\n      dup6\n        /* \"#utility.yul\":731:754   */\n      sub\n        /* \"#utility.yul\":727:759   */\n      slt\n        /* \"#utility.yul\":724:843   */\n      iszero\n      tag_65\n      jumpi\n        /* \"#utility.yul\":762:841   */\n      tag_66\n      tag_67\n      jump\t// in\n    tag_66:\n        /* \"#utility.yul\":724:843   */\n    tag_65:\n        /* \"#utility.yul\":882:883   */\n      0x00\n        /* \"#utility.yul\":907:960   */\n      tag_68\n        /* \"#utility.yul\":952:959   */\n      dup6\n        /* \"#utility.yul\":943:949   */\n      dup3\n        /* \"#utility.yul\":932:941   */\n      dup7\n        /* \"#utility.yul\":928:950   */\n      add\n        /* \"#utility.yul\":907:960   */\n      tag_49\n      jump\t// in\n    tag_68:\n        /* \"#utility.yul\":897:960   */\n      swap3\n      pop\n        /* \"#utility.yul\":853:970   */\n      pop\n        /* \"#utility.yul\":1009:1011   */\n      0x20\n        /* \"#utility.yul\":1035:1088   */\n      tag_69\n        /* \"#utility.yul\":1080:1087   */\n      dup6\n        /* \"#utility.yul\":1071:1077   */\n      dup3\n        /* \"#utility.yul\":1060:1069   */\n      dup7\n        /* \"#utility.yul\":1056:1078   */\n      add\n        /* \"#utility.yul\":1035:1088   */\n      tag_57\n      jump\t// in\n    tag_69:\n        /* \"#utility.yul\":1025:1088   */\n      swap2\n      pop\n        /* \"#utility.yul\":980:1098   */\n      pop\n        /* \"#utility.yul\":631:1105   */\n      swap3\n      pop\n      swap3\n      swap1\n      pop\n      jump\t// out\n        /* \"#utility.yul\":1111:1480   */\n    tag_18:\n        /* \"#utility.yul\":1190:1196   */\n      0x00\n        /* \"#utility.yul\":1239:1241   */\n      0x20\n        /* \"#utility.yul\":1227:1236   */\n      dup3\n        /* \"#utility.yul\":1218:1225   */\n      dup5\n        /* \"#utility.yul\":1214:1237   */\n      sub\n        /* \"#utility.yul\":1210:1242   */\n      slt\n        /* \"#utility.yul\":1207:1326   */\n      iszero\n      tag_71\n      jumpi\n        /* \"#utility.yul\":1245:1324   */\n      tag_72\n      tag_67\n      jump\t// in\n    tag_72:\n        /* \"#utility.yul\":1207:1326   */\n    tag_71:\n        /* \"#utility.yul\":1365:1366   */\n      0x00\n        /* \"#utility.yul\":1390:1463   */\n      tag_73\n        /* \"#utility.yul\":1455:1462   */\n      dup5\n        /* \"#utility.yul\":1446:1452   */\n      dup3\n        /* \"#utility.yul\":1435:1444   */\n      dup6\n        /* \"#utility.yul\":1431:1453   */\n      add\n        /* \"#utility.yul\":1390:1463   */\n      tag_53\n      jump\t// in\n    tag_73:\n        /* \"#utility.yul\":1380:1463   */\n      swap2\n      pop\n        /* \"#utility.yul\":1336:1473   */\n      pop\n        /* \"#utility.yul\":1111:1480   */\n      swap3\n      swap2\n      pop\n      pop\n      jump\t// out\n        /* \"#utility.yul\":1486:2000   */\n    tag_13:\n        /* \"#utility.yul\":1574:1580   */\n      0x00\n        /* \"#utility.yul\":1582:1588   */\n      dup1\n        /* \"#utility.yul\":1631:1633   */\n      0x40\n        /* \"#utility.yul\":1619:1628   */\n      dup4\n        /* \"#utility.yul\":1610:1617   */\n      dup6\n        /* \"#utility.yul\":1606:1629   */\n      sub\n        /* \"#utility.yul\":1602:1634   */\n      slt\n        /* \"#utility.yul\":1599:1718   */\n      iszero\n      tag_75\n      jumpi\n        /* \"#utility.yul\":1637:1716   */\n      tag_76\n      tag_67\n      jump\t// in\n    tag_76:\n        /* \"#utility.yul\":1599:1718   */\n    tag_75:\n        /* \"#utility.yul\":1757:1758   */\n      0x00\n        /* \"#utility.yul\":1782:1855   */\n      tag_77\n        /* \"#utility.yul\":1847:1854   */\n      dup6\n        /* \"#utility.yul\":1838:1844   */\n      dup3\n        /* \"#utility.yul\":1827:1836   */\n      dup7\n        /* \"#utility.yul\":1823:1845   */\n      add\n        /* \"#utility.yul\":1782:1855   */\n      tag_53\n      jump\t// in\n    tag_77:\n        /* \"#utility.yul\":1772:1855   */\n      swap3\n      pop\n        /* \"#utility.yul\":1728:1865   */\n      pop\n        /* \"#utility.yul\":1904:1906   */\n      0x20\n        /* \"#utility.yul\":1930:1983   */\n      tag_78\n        /* \"#utility.yul\":1975:1982   */\n      dup6\n        /* \"#utility.yul\":1966:1972   */\n      dup3\n        /* \"#utility.yul\":1955:1964   */\n      dup7\n        /* \"#utility.yul\":1951:1973   */\n      add\n        /* \"#utility.yul\":1930:1983   */\n      tag_57\n      jump\t// in\n    tag_78:\n        /* \"#utility.yul\":1920:1983   */\n      swap2\n      pop\n        /* \"#utility.yul\":1875:1993   */\n      pop\n        /* \"#utility.yul\":1486:2000   */\n      swap3\n      pop\n      swap3\n      swap1\n      pop\n      jump\t// out\n        /* \"#utility.yul\":2006:2357   */\n    tag_42:\n        /* \"#utility.yul\":2076:2082   */\n      0x00\n        /* \"#utility.yul\":2125:2127   */\n      0x20\n        /* \"#utility.yul\":2113:2122   */\n      dup3\n        /* \"#utility.yul\":2104:2111   */\n      dup5\n        /* \"#utility.yul\":2100:2123   */\n      sub\n        /* \"#utility.yul\":2096:2128   */\n      slt\n        /* \"#utility.yul\":2093:2212   */\n      iszero\n      tag_80\n      jumpi\n        /* \"#utility.yul\":2131:2210   */\n      tag_81\n      tag_67\n      jump\t// in\n    tag_81:\n        /* \"#utility.yul\":2093:2212   */\n    tag_80:\n        /* \"#utility.yul\":2251:2252   */\n      0x00\n        /* \"#utility.yul\":2276:2340   */\n      tag_82\n        /* \"#utility.yul\":2332:2339   */\n      dup5\n        /* \"#utility.yul\":2323:2329   */\n      dup3\n        /* \"#utility.yul\":2312:2321   */\n      dup6\n        /* \"#utility.yul\":2308:2330   */\n      add\n        /* \"#utility.yul\":2276:2340   */\n      tag_61\n      jump\t// in\n    tag_82:\n        /* \"#utility.yul\":2266:2340   */\n      swap2\n      pop\n        /* \"#utility.yul\":2222:2350   */\n      pop\n        /* \"#utility.yul\":2006:2357   */\n      swap3\n      swap2\n      pop\n      pop\n      jump\t// out\n        /* \"#utility.yul\":2363:2481   */\n    tag_83:\n        /* \"#utility.yul\":2450:2474   */\n      tag_85\n        /* \"#utility.yul\":2468:2473   */\n      dup2\n        /* \"#utility.yul\":2450:2474   */\n      tag_86\n      jump\t// in\n    tag_85:\n        /* \"#utility.yul\":2445:2448   */\n      dup3\n        /* \"#utility.yul\":2438:2475   */\n      mstore\n        /* \"#utility.yul\":2363:2481   */\n      pop\n      pop\n      jump\t// out\n        /* \"#utility.yul\":2487:2709   */\n    tag_21:\n        /* \"#utility.yul\":2580:2584   */\n      0x00\n        /* \"#utility.yul\":2618:2620   */\n      0x20\n        /* \"#utility.yul\":2607:2616   */\n      dup3\n        /* \"#utility.yul\":2603:2621   */\n      add\n        /* \"#utility.yul\":2595:2621   */\n      swap1\n      pop\n        /* \"#utility.yul\":2631:2702   */\n      tag_88\n        /* \"#utility.yul\":2699:2700   */\n      0x00\n        /* \"#utility.yul\":2688:2697   */\n      dup4\n        /* \"#utility.yul\":2684:2701   */\n      add\n        /* \"#utility.yul\":2675:2681   */\n      dup5\n        /* \"#utility.yul\":2631:2702   */\n      tag_83\n      jump\t// in\n    tag_88:\n        /* \"#utility.yul\":2487:2709   */\n      swap3\n      swap2\n      pop\n      pop\n      jump\t// out\n        /* \"#utility.yul\":2796:2892   */\n    tag_91:\n        /* \"#utility.yul\":2833:2840   */\n      0x00\n        /* \"#utility.yul\":2862:2886   */\n      tag_93\n        /* \"#utility.yul\":2880:2885   */\n      dup3\n        /* \"#utility.yul\":2862:2886   */\n      tag_94\n      jump\t// in\n    tag_93:\n        /* \"#utility.yul\":2851:2886   */\n      swap1\n      pop\n        /* \"#utility.yul\":2796:2892   */\n      swap2\n      swap1\n      pop\n      jump\t// out\n        /* \"#utility.yul\":2898:3014   */\n    tag_95:\n        /* \"#utility.yul\":2955:2962   */\n      0x00\n        /* \"#utility.yul\":2984:3008   */\n      tag_97\n        /* \"#utility.yul\":3002:3007   */\n      dup3\n        /* \"#utility.yul\":2984:3008   */\n      tag_91\n      jump\t// in\n    tag_97:\n        /* \"#utility.yul\":2973:3008   */\n      swap1\n      pop\n        /* \"#utility.yul\":2898:3014   */\n      swap2\n      swap1\n      pop\n      jump\t// out\n        /* \"#utility.yul\":3020:3146   */\n    tag_94:\n        /* \"#utility.yul\":3057:3064   */\n      0x00\n        /* \"#utility.yul\":3097:3139   */\n      0xffffffffffffffffffffffffffffffffffffffff\n        /* \"#utility.yul\":3090:3095   */\n      dup3\n        /* \"#utility.yul\":3086:3140   */\n      and\n        /* \"#utility.yul\":3075:3140   */\n      swap1\n      pop\n        /* \"#utility.yul\":3020:3146   */\n      swap2\n      swap1\n      pop\n      jump\t// out\n        /* \"#utility.yul\":3152:3229   */\n    tag_86:\n        /* \"#utility.yul\":3189:3196   */\n      0x00\n        /* \"#utility.yul\":3218:3223   */\n      dup2\n        /* \"#utility.yul\":3207:3223   */\n      swap1\n      pop\n        /* \"#utility.yul\":3152:3229   */\n      swap2\n      swap1\n      pop\n      jump\t// out\n        /* \"#utility.yul\":3358:3475   */\n    tag_67:\n        /* \"#utility.yul\":3467:3468   */\n      0x00\n        /* \"#utility.yul\":3464:3465   */\n      dup1\n        /* \"#utility.yul\":3457:3469   */\n      revert\n        /* \"#utility.yul\":3481:3603   */\n    tag_52:\n        /* \"#utility.yul\":3554:3578   */\n      tag_104\n        /* \"#utility.yul\":3572:3577   */\n      dup2\n        /* \"#utility.yul\":3554:3578   */\n      tag_91\n      jump\t// in\n    tag_104:\n        /* \"#utility.yul\":3547:3552   */\n      dup2\n        /* \"#utility.yul\":3544:3579   */\n      eq\n        /* \"#utility.yul\":3534:3597   */\n      tag_105\n      jumpi\n        /* \"#utility.yul\":3593:3594   */\n      0x00\n        /* \"#utility.yul\":3590:3591   */\n      dup1\n        /* \"#utility.yul\":3583:3595   */\n      revert\n        /* \"#utility.yul\":3534:3597   */\n    tag_105:\n        /* \"#utility.yul\":3481:3603   */\n      pop\n      jump\t// out\n        /* \"#utility.yul\":3609:3771   */\n    tag_56:\n        /* \"#utility.yul\":3702:3746   */\n      tag_107\n        /* \"#utility.yul\":3740:3745   */\n      dup2\n        /* \"#utility.yul\":3702:3746   */\n      tag_95\n      jump\t// in\n    tag_107:\n        /* \"#utility.yul\":3695:3700   */\n      dup2\n        /* \"#utility.yul\":3692:3747   */\n      eq\n        /* \"#utility.yul\":3682:3765   */\n      tag_108\n      jumpi\n        /* \"#utility.yul\":3761:3762   */\n      0x00\n        /* \"#utility.yul\":3758:3759   */\n      dup1\n        /* \"#utility.yul\":3751:3763   */\n      revert\n        /* \"#utility.yul\":3682:3765   */\n    tag_108:\n        /* \"#utility.yul\":3609:3771   */\n      pop\n      jump\t// out\n        /* \"#utility.yul\":3777:3899   */\n    tag_60:\n        /* \"#utility.yul\":3850:3874   */\n      tag_110\n        /* \"#utility.yul\":3868:3873   */\n      dup2\n        /* \"#utility.yul\":3850:3874   */\n      tag_86\n      jump\t// in\n    tag_110:\n        /* \"#utility.yul\":3843:3848   */\n      dup2\n        /* \"#utility.yul\":3840:3875   */\n      eq\n        /* \"#utility.yul\":3830:3893   */\n      tag_111\n      jumpi\n        /* \"#utility.yul\":3889:3890   */\n      0x00\n        /* \"#utility.yul\":3886:3887   */\n      dup1\n        /* \"#utility.yul\":3879:3891   */\n      revert\n        /* \"#utility.yul\":3830:3893   */\n    tag_111:\n        /* \"#utility.yul\":3777:3899   */\n      pop\n      jump\t// out\n\n    auxdata: 0xa2646970667358221220cde1fb328ab62a38a7cde59c3fc1d432a7e6b03150cae3a6c8b5cae907644e6d64736f6c63430008070033\n}\n",
				"bytecode": {
					"linkReferences": {},
					"object": "608060405234801561001057600080fd5b50610516806100206000396000f3fe60806040526004361061003f5760003560e01c806327a9f474146100445780634a2ad99f146100605780637c94c8ca14610089578063b0620948146100c6575b600080fd5b61005e60048036038101906100599190610344565b610103565b005b34801561006c57600080fd5b50610087600480360381019061008291906103b1565b610173565b005b34801561009557600080fd5b506100b060048036038101906100ab9190610384565b6101e2565b6040516100bd919061042d565b60405180910390f35b3480156100d257600080fd5b506100ed60048036038101906100e89190610384565b610269565b6040516100fa919061042d565b60405180910390f35b8173ffffffffffffffffffffffffffffffffffffffff166302f42be934836040518363ffffffff1660e01b815260040161013d919061042d565b6000604051808303818588803b15801561015657600080fd5b505af115801561016a573d6000803e3d6000fd5b50505050505050565b8173ffffffffffffffffffffffffffffffffffffffff16634018d9aa826040518263ffffffff1660e01b81526004016101ac919061042d565b600060405180830381600087803b1580156101c657600080fd5b505af11580156101da573d6000803e3d6000fd5b505050505050565b60008173ffffffffffffffffffffffffffffffffffffffff16635197c7aa6040518163ffffffff1660e01b815260040160206040518083038186803b15801561022a57600080fd5b505afa15801561023e573d6000803e3d6000fd5b505050506040513d601f19601f8201168201806040525081019061026291906103f1565b9050919050565b60008173ffffffffffffffffffffffffffffffffffffffff16635197c7aa6040518163ffffffff1660e01b815260040160206040518083038186803b1580156102b157600080fd5b505afa1580156102c5573d6000803e3d6000fd5b505050506040513d601f19601f820116820180604052508101906102e991906103f1565b9050919050565b6000813590506102ff8161049b565b92915050565b600081359050610314816104b2565b92915050565b600081359050610329816104c9565b92915050565b60008151905061033e816104c9565b92915050565b6000806040838503121561035b5761035a610496565b5b6000610369858286016102f0565b925050602061037a8582860161031a565b9150509250929050565b60006020828403121561039a57610399610496565b5b60006103a884828501610305565b91505092915050565b600080604083850312156103c8576103c7610496565b5b60006103d685828601610305565b92505060206103e78582860161031a565b9150509250929050565b60006020828403121561040757610406610496565b5b60006104158482850161032f565b91505092915050565b6104278161048c565b82525050565b6000602082019050610442600083018461041e565b92915050565b60006104538261046c565b9050919050565b600061046582610448565b9050919050565b600073ffffffffffffffffffffffffffffffffffffffff82169050919050565b6000819050919050565b600080fd5b6104a481610448565b81146104af57600080fd5b50565b6104bb8161045a565b81146104c657600080fd5b50565b6104d28161048c565b81146104dd57600080fd5b5056fea2646970667358221220cde1fb328ab62a38a7cde59c3fc1d432a7e6b03150cae3a6c8b5cae907644e6d64736f6c63430008070033",
					"opcodes": "PUSH1 0x80 PUSH1 0x40 MSTORE CALLVALUE DUP1 ISZERO PUSH2 0x10 JUMPI PUSH1 0x0 DUP1 REVERT JUMPDEST POP PUSH2 0x516 DUP1 PUSH2 0x20 PUSH1 0x0 CODECOPY PUSH1 0x0 RETURN INVALID PUSH1 0x80 PUSH1 0x40 MSTORE PUSH1 0x4 CALLDATASIZE LT PUSH2 0x3F JUMPI PUSH1 0x0 CALLDATALOAD PUSH1 0xE0 SHR DUP1 PUSH4 0x27A9F474 EQ PUSH2 0x44 JUMPI DUP1 PUSH4 0x4A2AD99F EQ PUSH2 0x60 JUMPI DUP1 PUSH4 0x7C94C8CA EQ PUSH2 0x89 JUMPI DUP1 PUSH4 0xB0620948 EQ PUSH2 0xC6 JUMPI JUMPDEST PUSH1 0x0 DUP1 REVERT JUMPDEST PUSH2 0x5E PUSH1 0x4 DUP1 CALLDATASIZE SUB DUP2 ADD SWAP1 PUSH2 0x59 SWAP2 SWAP1 PUSH2 0x344 JUMP JUMPDEST PUSH2 0x103 JUMP JUMPDEST STOP JUMPDEST CALLVALUE DUP1 ISZERO PUSH2 0x6C JUMPI PUSH1 0x0 DUP1 REVERT JUMPDEST POP PUSH2 0x87 PUSH1 0x4 DUP1 CALLDATASIZE SUB DUP2 ADD SWAP1 PUSH2 0x82 SWAP2 SWAP1 PUSH2 0x3B1 JUMP JUMPDEST PUSH2 0x173 JUMP JUMPDEST STOP JUMPDEST CALLVALUE DUP1 ISZERO PUSH2 0x95 JUMPI PUSH1 0x0 DUP1 REVERT JUMPDEST POP PUSH2 0xB0 PUSH1 0x4 DUP1 CALLDATASIZE SUB DUP2 ADD SWAP1 PUSH2 0xAB SWAP2 SWAP1 PUSH2 0x384 JUMP JUMPDEST PUSH2 0x1E2 JUMP JUMPDEST PUSH1 0x40 MLOAD PUSH2 0xBD SWAP2 SWAP1 PUSH2 0x42D JUMP JUMPDEST PUSH1 0x40 MLOAD DUP1 SWAP2 SUB SWAP1 RETURN JUMPDEST CALLVALUE DUP1 ISZERO PUSH2 0xD2 JUMPI PUSH1 0x0 DUP1 REVERT JUMPDEST POP PUSH2 0xED PUSH1 0x4 DUP1 CALLDATASIZE SUB DUP2 ADD SWAP1 PUSH2 0xE8 SWAP2 SWAP1 PUSH2 0x384 JUMP JUMPDEST PUSH2 0x269 JUMP JUMPDEST PUSH1 0x40 MLOAD PUSH2 0xFA SWAP2 SWAP1 PUSH2 0x42D JUMP JUMPDEST PUSH1 0x40 MLOAD DUP1 SWAP2 SUB SWAP1 RETURN JUMPDEST DUP2 PUSH20 0xFFFFFFFFFFFFFFFFFFFFFFFFFFFFFFFFFFFFFFFF AND PUSH4 0x2F42BE9 CALLVALUE DUP4 PUSH1 0x40 MLOAD DUP4 PUSH4 0xFFFFFFFF AND PUSH1 0xE0 SHL DUP2 MSTORE PUSH1 0x4 ADD PUSH2 0x13D SWAP2 SWAP1 PUSH2 0x42D JUMP JUMPDEST PUSH1 0x0 PUSH1 0x40 MLOAD DUP1 DUP4 SUB DUP2 DUP6 DUP9 DUP1 EXTCODESIZE ISZERO DUP1 ISZERO PUSH2 0x156 JUMPI PUSH1 0x0 DUP1 REVERT JUMPDEST POP GAS CALL ISZERO DUP1 ISZERO PUSH2 0x16A JUMPI RETURNDATASIZE PUSH1 0x0 DUP1 RETURNDATACOPY RETURNDATASIZE PUSH1 0x0 REVERT JUMPDEST POP POP POP POP POP POP POP JUMP JUMPDEST DUP2 PUSH20 0xFFFFFFFFFFFFFFFFFFFFFFFFFFFFFFFFFFFFFFFF AND PUSH4 0x4018D9AA DUP3 PUSH1 0x40 MLOAD DUP3 PUSH4 0xFFFFFFFF AND PUSH1 0xE0 SHL DUP2 MSTORE PUSH1 0x4 ADD PUSH2 0x1AC SWAP2 SWAP1 PUSH2 0x42D JUMP JUMPDEST PUSH1 0x0 PUSH1 0x40 MLOAD DUP1 DUP4 SUB DUP2 PUSH1 0x0 DUP8 DUP1 EXTCODESIZE ISZERO DUP1 ISZERO PUSH2 0x1C6 JUMPI PUSH1 0x0 DUP1 REVERT JUMPDEST POP GAS CALL ISZERO DUP1 ISZERO PUSH2 0x1DA JUMPI RETURNDATASIZE PUSH1 0x0 DUP1 RETURNDATACOPY RETURNDATASIZE PUSH1 0x0 REVERT JUMPDEST POP POP POP POP POP POP JUMP JUMPDEST PUSH1 0x0 DUP2 PUSH20 0xFFFFFFFFFFFFFFFFFFFFFFFFFFFFFFFFFFFFFFFF AND PUSH4 0x5197C7AA PUSH1 0x40 MLOAD DUP2 PUSH4 0xFFFFFFFF AND PUSH1 0xE0 SHL DUP2 MSTORE PUSH1 0x4 ADD PUSH1 0x20 PUSH1 0x40 MLOAD DUP1 DUP4 SUB DUP2 DUP7 DUP1 EXTCODESIZE ISZERO DUP1 ISZERO PUSH2 0x22A JUMPI PUSH1 0x0 DUP1 REVERT JUMPDEST POP GAS STATICCALL ISZERO DUP1 ISZERO PUSH2 0x23E JUMPI RETURNDATASIZE PUSH1 0x0 DUP1 RETURNDATACOPY RETURNDATASIZE PUSH1 0x0 REVERT JUMPDEST POP POP POP POP PUSH1 0x40 MLOAD RETURNDATASIZE PUSH1 0x1F NOT PUSH1 0x1F DUP3 ADD AND DUP3 ADD DUP1 PUSH1 0x40 MSTORE POP DUP2 ADD SWAP1 PUSH2 0x262 SWAP2 SWAP1 PUSH2 0x3F1 JUMP JUMPDEST SWAP1 POP SWAP2 SWAP1 POP JUMP JUMPDEST PUSH1 0x0 DUP2 PUSH20 0xFFFFFFFFFFFFFFFFFFFFFFFFFFFFFFFFFFFFFFFF AND PUSH4 0x5197C7AA PUSH1 0x40 MLOAD DUP2 PUSH4 0xFFFFFFFF AND PUSH1 0xE0 SHL DUP2 MSTORE PUSH1 0x4 ADD PUSH1 0x20 PUSH1 0x40 MLOAD DUP1 DUP4 SUB DUP2 DUP7 DUP1 EXTCODESIZE ISZERO DUP1 ISZERO PUSH2 0x2B1 JUMPI PUSH1 0x0 DUP1 REVERT JUMPDEST POP GAS STATICCALL ISZERO DUP1 ISZERO PUSH2 0x2C5 JUMPI RETURNDATASIZE PUSH1 0x0 DUP1 RETURNDATACOPY RETURNDATASIZE PUSH1 0x0 REVERT JUMPDEST POP POP POP POP PUSH1 0x40 MLOAD RETURNDATASIZE PUSH1 0x1F NOT PUSH1 0x1F DUP3 ADD AND DUP3 ADD DUP1 PUSH1 0x40 MSTORE POP DUP2 ADD SWAP1 PUSH2 0x2E9 SWAP2 SWAP1 PUSH2 0x3F1 JUMP JUMPDEST SWAP1 POP SWAP2 SWAP1 POP JUMP JUMPDEST PUSH1 0x0 DUP2 CALLDATALOAD SWAP1 POP PUSH2 0x2FF DUP2 PUSH2 0x49B JUMP JUMPDEST SWAP3 SWAP2 POP POP JUMP JUMPDEST PUSH1 0x0 DUP2 CALLDATALOAD SWAP1 POP PUSH2 0x314 DUP2 PUSH2 0x4B2 JUMP JUMPDEST SWAP3 SWAP2 POP POP JUMP JUMPDEST PUSH1 0x0 DUP2 CALLDATALOAD SWAP1 POP PUSH2 0x329 DUP2 PUSH2 0x4C9 JUMP JUMPDEST SWAP3 SWAP2 POP POP JUMP JUMPDEST PUSH1 0x0 DUP2 MLOAD SWAP1 POP PUSH2 0x33E DUP2 PUSH2 0x4C9 JUMP JUMPDEST SWAP3 SWAP2 POP POP JUMP JUMPDEST PUSH1 0x0 DUP1 PUSH1 0x40 DUP4 DUP6 SUB SLT ISZERO PUSH2 0x35B JUMPI PUSH2 0x35A PUSH2 0x496 JUMP JUMPDEST JUMPDEST PUSH1 0x0 PUSH2 0x369 DUP6 DUP3 DUP7 ADD PUSH2 0x2F0 JUMP JUMPDEST SWAP3 POP POP PUSH1 0x20 PUSH2 0x37A DUP6 DUP3 DUP7 ADD PUSH2 0x31A JUMP JUMPDEST SWAP2 POP POP SWAP3 POP SWAP3 SWAP1 POP JUMP JUMPDEST PUSH1 0x0 PUSH1 0x20 DUP3 DUP5 SUB SLT ISZERO PUSH2 0x39A JUMPI PUSH2 0x399 PUSH2 0x496 JUMP JUMPDEST JUMPDEST PUSH1 0x0 PUSH2 0x3A8 DUP5 DUP3 DUP6 ADD PUSH2 0x305 JUMP JUMPDEST SWAP2 POP POP SWAP3 SWAP2 POP POP JUMP JUMPDEST PUSH1 0x0 DUP1 PUSH1 0x40 DUP4 DUP6 SUB SLT ISZERO PUSH2 0x3C8 JUMPI PUSH2 0x3C7 PUSH2 0x496 JUMP JUMPDEST JUMPDEST PUSH1 0x0 PUSH2 0x3D6 DUP6 DUP3 DUP7 ADD PUSH2 0x305 JUMP JUMPDEST SWAP3 POP POP PUSH1 0x20 PUSH2 0x3E7 DUP6 DUP3 DUP7 ADD PUSH2 0x31A JUMP JUMPDEST SWAP2 POP POP SWAP3 POP SWAP3 SWAP1 POP JUMP JUMPDEST PUSH1 0x0 PUSH1 0x20 DUP3 DUP5 SUB SLT ISZERO PUSH2 0x407 JUMPI PUSH2 0x406 PUSH2 0x496 JUMP JUMPDEST JUMPDEST PUSH1 0x0 PUSH2 0x415 DUP5 DUP3 DUP6 ADD PUSH2 0x32F JUMP JUMPDEST SWAP2 POP POP SWAP3 SWAP2 POP POP JUMP JUMPDEST PUSH2 0x427 DUP2 PUSH2 0x48C JUMP JUMPDEST DUP3 MSTORE POP POP JUMP JUMPDEST PUSH1 0x0 PUSH1 0x20 DUP3 ADD SWAP1 POP PUSH2 0x442 PUSH1 0x0 DUP4 ADD DUP5 PUSH2 0x41E JUMP JUMPDEST SWAP3 SWAP2 POP POP JUMP JUMPDEST PUSH1 0x0 PUSH2 0x453 DUP3 PUSH2 0x46C JUMP JUMPDEST SWAP1 POP SWAP2 SWAP1 POP JUMP JUMPDEST PUSH1 0x0 PUSH2 0x465 DUP3 PUSH2 0x448 JUMP JUMPDEST SWAP1 POP SWAP2 SWAP1 POP JUMP JUMPDEST PUSH1 0x0 PUSH20 0xFFFFFFFFFFFFFFFFFFFFFFFFFFFFFFFFFFFFFFFF DUP3 AND SWAP1 POP SWAP2 SWAP1 POP JUMP JUMPDEST PUSH1 0x0 DUP2 SWAP1 POP SWAP2 SWAP1 POP JUMP JUMPDEST PUSH1 0x0 DUP1 REVERT JUMPDEST PUSH2 0x4A4 DUP2 PUSH2 0x448 JUMP JUMPDEST DUP2 EQ PUSH2 0x4AF JUMPI PUSH1 0x0 DUP1 REVERT JUMPDEST POP JUMP JUMPDEST PUSH2 0x4BB DUP2 PUSH2 0x45A JUMP JUMPDEST DUP2 EQ PUSH2 0x4C6 JUMPI PUSH1 0x0 DUP1 REVERT JUMPDEST POP JUMP JUMPDEST PUSH2 0x4D2 DUP2 PUSH2 0x48C JUMP JUMPDEST DUP2 EQ PUSH2 0x4DD JUMPI PUSH1 0x0 DUP1 REVERT JUMPDEST POP JUMP INVALID LOG2 PUSH5 0x6970667358 0x22 SLT KECCAK256 0xCD 0xE1 0xFB ORIGIN DUP11 0xB6 0x2A CODESIZE 0xA7 0xCD 0xE5 SWAP13 EXTCODEHASH 0xC1 0xD4 ORIGIN 0xA7 0xE6 0xB0 BALANCE POP 0xCA 0xE3 0xA6 0xC8 0xB5 0xCA 0xE9 SMOD PUSH5 0x4E6D64736F PUSH13 0x63430008070033000000000000 "
				},
				"gasEstimates": {
					"creation": {
						"codeDepositCost": "260400",
						"executionCost": "300",
						"totalCost": "260700"
					},
					"external": {
						"getX(address)": "infinite",
						"getXAndValue(address)": "infinite",
						"setX(address,uint256)": "infinite",
						"setXAndSendEther(address,uint256)": "infinite"
					}
				},
				"methodIdentifiers": {
					"getX(address)": "7c94c8ca",
					"getXAndValue(address)": "b0620948",
					"setX(address,uint256)": "4a2ad99f",
					"setXAndSendEther(address,uint256)": "27a9f474"
				}
			},
			"storageLayout": {
				"storage": [],
				"types": null
			},
			"userdoc": {
				"kind": "user",
				"methods": {},
				"version": 1
			}
		}
	}
}