{
	"contracts/DataLocations.sol": {
		"DataLocations": {
			"abi": [
				{
					"inputs": [
						{
							"internalType": "uint256[]",
							"name": "y",
							"type": "uint256[]"
						},
						{
							"internalType": "string",
							"name": "s",
							"type": "string"
						}
					],
					"name": "examples",
					"outputs": [],
					"stateMutability": "nonpayable",
					"type": "function"
				},
				{
					"inputs": [
						{
							"internalType": "address",
							"name": "",
							"type": "address"
						}
					],
					"name": "myStructs",
					"outputs": [
						{
							"internalType": "uint256",
							"name": "foo",
							"type": "uint256"
						},
						{
							"internalType": "string",
							"name": "text",
							"type": "string"
						}
					],
					"stateMutability": "view",
					"type": "function"
				}
			],
			"devdoc": {
				"kind": "dev",
				"methods": {},
				"version": 1
			},
			"evm": {
				"assembly": "    /* \"contracts/DataLocations.sol\":279:859  contract DataLocations {\r... */\n  mstore(0x40, 0x80)\n  callvalue\n  dup1\n  iszero\n  tag_1\n  jumpi\n  0x00\n  dup1\n  revert\ntag_1:\n  pop\n  dataSize(sub_0)\n  dup1\n  dataOffset(sub_0)\n  0x00\n  codecopy\n  0x00\n  return\nstop\n\nsub_0: assembly {\n        /* \"contracts/DataLocations.sol\":279:859  contract DataLocations {\r... */\n      mstore(0x40, 0x80)\n      callvalue\n      dup1\n      iszero\n      tag_1\n      jumpi\n      0x00\n      dup1\n      revert\n    tag_1:\n      pop\n      jumpi(tag_2, lt(calldatasize, 0x04))\n      shr(0xe0, calldataload(0x00))\n      dup1\n      0xb43c5d33\n      eq\n      tag_3\n      jumpi\n      dup1\n      0xfc277a95\n      eq\n      tag_4\n      jumpi\n    tag_2:\n      0x00\n      dup1\n      revert\n        /* \"contracts/DataLocations.sol\":382:427  mapping(address => MyStruct) public myStructs */\n    tag_3:\n      tag_5\n      0x04\n      dup1\n      calldatasize\n      sub\n      dup2\n      add\n      swap1\n      tag_6\n      swap2\n      swap1\n      tag_7\n      jump\t// in\n    tag_6:\n      tag_8\n      jump\t// in\n    tag_5:\n      mload(0x40)\n      tag_9\n      swap3\n      swap2\n      swap1\n      tag_10\n      jump\t// in\n    tag_9:\n      mload(0x40)\n      dup1\n      swap2\n      sub\n      swap1\n      return\n        /* \"contracts/DataLocations.sol\":437:856  function examples(uint[] memory y, string memory s) external {\r... */\n    tag_4:\n      tag_11\n      0x04\n      dup1\n      calldatasize\n      sub\n      dup2\n      add\n      swap1\n      tag_12\n      swap2\n      swap1\n      tag_13\n      jump\t// in\n    tag_12:\n      tag_14\n      jump\t// in\n    tag_11:\n      stop\n        /* \"contracts/DataLocations.sol\":382:427  mapping(address => MyStruct) public myStructs */\n    tag_8:\n      mstore(0x20, 0x00)\n      dup1\n      0x00\n      mstore\n      keccak256(0x00, 0x40)\n      0x00\n      swap2\n      pop\n      swap1\n      pop\n      dup1\n      0x00\n      add\n      sload\n      swap1\n      dup1\n      0x01\n      add\n      dup1\n      sload\n      tag_15\n      swap1\n      tag_16\n      jump\t// in\n    tag_15:\n      dup1\n      0x1f\n      add\n      0x20\n      dup1\n      swap2\n      div\n      mul\n      0x20\n      add\n      mload(0x40)\n      swap1\n      dup2\n      add\n      0x40\n      mstore\n      dup1\n      swap3\n      swap2\n      swap1\n      dup2\n      dup2\n      mstore\n      0x20\n      add\n      dup3\n      dup1\n      sload\n      tag_17\n      swap1\n      tag_16\n      jump\t// in\n    tag_17:\n      dup1\n      iszero\n      tag_18\n      jumpi\n      dup1\n      0x1f\n      lt\n      tag_19\n      jumpi\n      0x0100\n      dup1\n      dup4\n      sload\n      div\n      mul\n      dup4\n      mstore\n      swap2\n      0x20\n      add\n      swap2\n      jump(tag_18)\n    tag_19:\n      dup3\n      add\n      swap2\n      swap1\n      0x00\n      mstore\n      keccak256(0x00, 0x20)\n      swap1\n    tag_20:\n      dup2\n      sload\n      dup2\n      mstore\n      swap1\n      0x01\n      add\n      swap1\n      0x20\n      add\n      dup1\n      dup4\n      gt\n      tag_20\n      jumpi\n      dup3\n      swap1\n      sub\n      0x1f\n      and\n      dup3\n      add\n      swap2\n    tag_18:\n      pop\n      pop\n      pop\n      pop\n      pop\n      swap1\n      pop\n      dup3\n      jump\t// out\n        /* \"contracts/DataLocations.sol\":437:856  function examples(uint[] memory y, string memory s) external {\r... */\n    tag_14:\n        /* \"contracts/DataLocations.sol\":533:566  MyStruct({foo: 123, text: \"bar\"}) */\n      mload(0x40)\n      dup1\n      0x40\n      add\n      0x40\n      mstore\n      dup1\n        /* \"contracts/DataLocations.sol\":548:551  123 */\n      0x7b\n        /* \"contracts/DataLocations.sol\":533:566  MyStruct({foo: 123, text: \"bar\"}) */\n      dup2\n      mstore\n      0x20\n      add\n      mload(0x40)\n      dup1\n      0x40\n      add\n      0x40\n      mstore\n      dup1\n      0x03\n      dup2\n      mstore\n      0x20\n      add\n      0x6261720000000000000000000000000000000000000000000000000000000000\n      dup2\n      mstore\n      pop\n      dup2\n      mstore\n      pop\n        /* \"contracts/DataLocations.sol\":509:518  myStructs */\n      0x00\n        /* \"contracts/DataLocations.sol\":509:530  myStructs[msg.sender] */\n      dup1\n        /* \"contracts/DataLocations.sol\":519:529  msg.sender */\n      caller\n        /* \"contracts/DataLocations.sol\":509:530  myStructs[msg.sender] */\n      0xffffffffffffffffffffffffffffffffffffffff\n      and\n      0xffffffffffffffffffffffffffffffffffffffff\n      and\n      dup2\n      mstore\n      0x20\n      add\n      swap1\n      dup2\n      mstore\n      0x20\n      add\n      0x00\n      keccak256\n        /* \"contracts/DataLocations.sol\":509:566  myStructs[msg.sender] = MyStruct({foo: 123, text: \"bar\"}) */\n      0x00\n      dup3\n      add\n      mload\n      dup2\n      0x00\n      add\n      sstore\n      0x20\n      dup3\n      add\n      mload\n      dup2\n      0x01\n      add\n      swap1\n      dup1\n      mload\n      swap1\n      0x20\n      add\n      swap1\n      tag_22\n      swap3\n      swap2\n      swap1\n      tag_23\n      jump\t// in\n    tag_22:\n      pop\n      swap1\n      pop\n      pop\n        /* \"contracts/DataLocations.sol\":579:604  MyStruct storage myStruct */\n      0x00\n        /* \"contracts/DataLocations.sol\":607:616  myStructs */\n      dup1\n        /* \"contracts/DataLocations.sol\":607:628  myStructs[msg.sender] */\n      0x00\n        /* \"contracts/DataLocations.sol\":617:627  msg.sender */\n      caller\n        /* \"contracts/DataLocations.sol\":607:628  myStructs[msg.sender] */\n      0xffffffffffffffffffffffffffffffffffffffff\n      and\n      0xffffffffffffffffffffffffffffffffffffffff\n      and\n      dup2\n      mstore\n      0x20\n      add\n      swap1\n      dup2\n      mstore\n      0x20\n      add\n      0x00\n      keccak256\n        /* \"contracts/DataLocations.sol\":579:628  MyStruct storage myStruct = myStructs[msg.sender] */\n      swap1\n      pop\n        /* \"contracts/DataLocations.sol\":639:660  myStruct.text = \"foo\" */\n      mload(0x40)\n      dup1\n      0x40\n      add\n      0x40\n      mstore\n      dup1\n      0x03\n      dup2\n      mstore\n      0x20\n      add\n      0x666f6f0000000000000000000000000000000000000000000000000000000000\n      dup2\n      mstore\n      pop\n        /* \"contracts/DataLocations.sol\":639:647  myStruct */\n      dup2\n        /* \"contracts/DataLocations.sol\":639:652  myStruct.text */\n      0x01\n      add\n        /* \"contracts/DataLocations.sol\":639:660  myStruct.text = \"foo\" */\n      swap1\n      dup1\n      mload\n      swap1\n      0x20\n      add\n      swap1\n      tag_24\n      swap3\n      swap2\n      swap1\n      tag_23\n      jump\t// in\n    tag_24:\n      pop\n        /* \"contracts/DataLocations.sol\":673:697  MyStruct memory readOnly */\n      0x00\n        /* \"contracts/DataLocations.sol\":700:709  myStructs */\n      dup1\n        /* \"contracts/DataLocations.sol\":700:721  myStructs[msg.sender] */\n      0x00\n        /* \"contracts/DataLocations.sol\":710:720  msg.sender */\n      caller\n        /* \"contracts/DataLocations.sol\":700:721  myStructs[msg.sender] */\n      0xffffffffffffffffffffffffffffffffffffffff\n      and\n      0xffffffffffffffffffffffffffffffffffffffff\n      and\n      dup2\n      mstore\n      0x20\n      add\n      swap1\n      dup2\n      mstore\n      0x20\n      add\n      0x00\n      keccak256\n        /* \"contracts/DataLocations.sol\":673:721  MyStruct memory readOnly = myStructs[msg.sender] */\n      mload(0x40)\n      dup1\n      0x40\n      add\n      0x40\n      mstore\n      swap1\n      dup2\n      0x00\n      dup3\n      add\n      sload\n      dup2\n      mstore\n      0x20\n      add\n      0x01\n      dup3\n      add\n      dup1\n      sload\n      tag_25\n      swap1\n      tag_16\n      jump\t// in\n    tag_25:\n      dup1\n      0x1f\n      add\n      0x20\n      dup1\n      swap2\n      div\n      mul\n      0x20\n      add\n      mload(0x40)\n      swap1\n      dup2\n      add\n      0x40\n      mstore\n      dup1\n      swap3\n      swap2\n      swap1\n      dup2\n      dup2\n      mstore\n      0x20\n      add\n      dup3\n      dup1\n      sload\n      tag_26\n      swap1\n      tag_16\n      jump\t// in\n    tag_26:\n      dup1\n      iszero\n      tag_27\n      jumpi\n      dup1\n      0x1f\n      lt\n      tag_28\n      jumpi\n      0x0100\n      dup1\n      dup4\n      sload\n      div\n      mul\n      dup4\n      mstore\n      swap2\n      0x20\n      add\n      swap2\n      jump(tag_27)\n    tag_28:\n      dup3\n      add\n      swap2\n      swap1\n      0x00\n      mstore\n      keccak256(0x00, 0x20)\n      swap1\n    tag_29:\n      dup2\n      sload\n      dup2\n      mstore\n      swap1\n      0x01\n      add\n      swap1\n      0x20\n      add\n      dup1\n      dup4\n      gt\n      tag_29\n      jumpi\n      dup3\n      swap1\n      sub\n      0x1f\n      and\n      dup3\n      add\n      swap2\n    tag_27:\n      pop\n      pop\n      pop\n      pop\n      pop\n      dup2\n      mstore\n      pop\n      pop\n      swap1\n      pop\n        /* \"contracts/DataLocations.sol\":747:750  456 */\n      0x01c8\n        /* \"contracts/DataLocations.sol\":732:740  readOnly */\n      dup2\n        /* \"contracts/DataLocations.sol\":732:744  readOnly.foo */\n      0x00\n      add\n        /* \"contracts/DataLocations.sol\":732:750  readOnly.foo = 456 */\n      dup2\n      dup2\n      mstore\n      pop\n      pop\n        /* \"contracts/DataLocations.sol\":498:856  {\r... */\n      pop\n      pop\n        /* \"contracts/DataLocations.sol\":437:856  function examples(uint[] memory y, string memory s) external {\r... */\n      pop\n      pop\n      jump\t// out\n    tag_23:\n      dup3\n      dup1\n      sload\n      tag_30\n      swap1\n      tag_16\n      jump\t// in\n    tag_30:\n      swap1\n      0x00\n      mstore\n      keccak256(0x00, 0x20)\n      swap1\n      0x1f\n      add\n      0x20\n      swap1\n      div\n      dup2\n      add\n      swap3\n      dup3\n      tag_32\n      jumpi\n      0x00\n      dup6\n      sstore\n      jump(tag_31)\n    tag_32:\n      dup3\n      0x1f\n      lt\n      tag_33\n      jumpi\n      dup1\n      mload\n      not(0xff)\n      and\n      dup4\n      dup1\n      add\n      or\n      dup6\n      sstore\n      jump(tag_31)\n    tag_33:\n      dup3\n      dup1\n      add\n      0x01\n      add\n      dup6\n      sstore\n      dup3\n      iszero\n      tag_31\n      jumpi\n      swap2\n      dup3\n      add\n    tag_34:\n      dup3\n      dup2\n      gt\n      iszero\n      tag_35\n      jumpi\n      dup3\n      mload\n      dup3\n      sstore\n      swap2\n      0x20\n      add\n      swap2\n      swap1\n      0x01\n      add\n      swap1\n      jump(tag_34)\n    tag_35:\n    tag_31:\n      pop\n      swap1\n      pop\n      tag_36\n      swap2\n      swap1\n      tag_37\n      jump\t// in\n    tag_36:\n      pop\n      swap1\n      jump\t// out\n    tag_37:\n    tag_38:\n      dup1\n      dup3\n      gt\n      iszero\n      tag_39\n      jumpi\n      0x00\n      dup2\n      0x00\n      swap1\n      sstore\n      pop\n      0x01\n      add\n      jump(tag_38)\n    tag_39:\n      pop\n      swap1\n      jump\t// out\n        /* \"#utility.yul\":24:746   */\n    tag_41:\n        /* \"#utility.yul\":120:125   */\n      0x00\n        /* \"#utility.yul\":145:226   */\n      tag_43\n        /* \"#utility.yul\":161:225   */\n      tag_44\n        /* \"#utility.yul\":218:224   */\n      dup5\n        /* \"#utility.yul\":161:225   */\n      tag_45\n      jump\t// in\n    tag_44:\n        /* \"#utility.yul\":145:226   */\n      tag_46\n      jump\t// in\n    tag_43:\n        /* \"#utility.yul\":136:226   */\n      swap1\n      pop\n        /* \"#utility.yul\":246:251   */\n      dup1\n        /* \"#utility.yul\":275:281   */\n      dup4\n        /* \"#utility.yul\":268:273   */\n      dup3\n        /* \"#utility.yul\":261:282   */\n      mstore\n        /* \"#utility.yul\":309:313   */\n      0x20\n        /* \"#utility.yul\":302:307   */\n      dup3\n        /* \"#utility.yul\":298:314   */\n      add\n        /* \"#utility.yul\":291:314   */\n      swap1\n      pop\n        /* \"#utility.yul\":335:341   */\n      dup3\n        /* \"#utility.yul\":385:388   */\n      dup6\n        /* \"#utility.yul\":377:381   */\n      0x20\n        /* \"#utility.yul\":369:375   */\n      dup7\n        /* \"#utility.yul\":365:382   */\n      mul\n        /* \"#utility.yul\":360:363   */\n      dup3\n        /* \"#utility.yul\":356:383   */\n      add\n        /* \"#utility.yul\":353:389   */\n      gt\n        /* \"#utility.yul\":350:493   */\n      iszero\n      tag_47\n      jumpi\n        /* \"#utility.yul\":404:483   */\n      tag_48\n      tag_49\n      jump\t// in\n    tag_48:\n        /* \"#utility.yul\":350:493   */\n    tag_47:\n        /* \"#utility.yul\":517:518   */\n      0x00\n        /* \"#utility.yul\":502:740   */\n    tag_50:\n        /* \"#utility.yul\":527:533   */\n      dup6\n        /* \"#utility.yul\":524:525   */\n      dup2\n        /* \"#utility.yul\":521:534   */\n      lt\n        /* \"#utility.yul\":502:740   */\n      iszero\n      tag_52\n      jumpi\n        /* \"#utility.yul\":595:598   */\n      dup2\n        /* \"#utility.yul\":624:661   */\n      tag_53\n        /* \"#utility.yul\":657:660   */\n      dup9\n        /* \"#utility.yul\":645:655   */\n      dup3\n        /* \"#utility.yul\":624:661   */\n      tag_54\n      jump\t// in\n    tag_53:\n        /* \"#utility.yul\":619:622   */\n      dup5\n        /* \"#utility.yul\":612:662   */\n      mstore\n        /* \"#utility.yul\":691:695   */\n      0x20\n        /* \"#utility.yul\":686:689   */\n      dup5\n        /* \"#utility.yul\":682:696   */\n      add\n        /* \"#utility.yul\":675:696   */\n      swap4\n      pop\n        /* \"#utility.yul\":725:729   */\n      0x20\n        /* \"#utility.yul\":720:723   */\n      dup4\n        /* \"#utility.yul\":716:730   */\n      add\n        /* \"#utility.yul\":709:730   */\n      swap3\n      pop\n        /* \"#utility.yul\":562:740   */\n      pop\n        /* \"#utility.yul\":549:550   */\n      0x01\n        /* \"#utility.yul\":546:547   */\n      dup2\n        /* \"#utility.yul\":542:551   */\n      add\n        /* \"#utility.yul\":537:551   */\n      swap1\n      pop\n        /* \"#utility.yul\":502:740   */\n      jump(tag_50)\n    tag_52:\n        /* \"#utility.yul\":506:520   */\n      pop\n        /* \"#utility.yul\":126:746   */\n      pop\n      pop\n        /* \"#utility.yul\":24:746   */\n      swap4\n      swap3\n      pop\n      pop\n      pop\n      jump\t// out\n        /* \"#utility.yul\":752:1164   */\n    tag_55:\n        /* \"#utility.yul\":830:835   */\n      0x00\n        /* \"#utility.yul\":855:921   */\n      tag_57\n        /* \"#utility.yul\":871:920   */\n      tag_58\n        /* \"#utility.yul\":913:919   */\n      dup5\n        /* \"#utility.yul\":871:920   */\n      tag_59\n      jump\t// in\n    tag_58:\n        /* \"#utility.yul\":855:921   */\n      tag_46\n      jump\t// in\n    tag_57:\n        /* \"#utility.yul\":846:921   */\n      swap1\n      pop\n        /* \"#utility.yul\":944:950   */\n      dup3\n        /* \"#utility.yul\":937:942   */\n      dup2\n        /* \"#utility.yul\":930:951   */\n      mstore\n        /* \"#utility.yul\":982:986   */\n      0x20\n        /* \"#utility.yul\":975:980   */\n      dup2\n        /* \"#utility.yul\":971:987   */\n      add\n        /* \"#utility.yul\":1020:1023   */\n      dup5\n        /* \"#utility.yul\":1011:1017   */\n      dup5\n        /* \"#utility.yul\":1006:1009   */\n      dup5\n        /* \"#utility.yul\":1002:1018   */\n      add\n        /* \"#utility.yul\":999:1024   */\n      gt\n        /* \"#utility.yul\":996:1108   */\n      iszero\n      tag_60\n      jumpi\n        /* \"#utility.yul\":1027:1106   */\n      tag_61\n      tag_62\n      jump\t// in\n    tag_61:\n        /* \"#utility.yul\":996:1108   */\n    tag_60:\n        /* \"#utility.yul\":1117:1158   */\n      tag_63\n        /* \"#utility.yul\":1151:1157   */\n      dup5\n        /* \"#utility.yul\":1146:1149   */\n      dup3\n        /* \"#utility.yul\":1141:1144   */\n      dup6\n        /* \"#utility.yul\":1117:1158   */\n      tag_64\n      jump\t// in\n    tag_63:\n        /* \"#utility.yul\":836:1164   */\n      pop\n        /* \"#utility.yul\":752:1164   */\n      swap4\n      swap3\n      pop\n      pop\n      pop\n      jump\t// out\n        /* \"#utility.yul\":1170:1309   */\n    tag_65:\n        /* \"#utility.yul\":1216:1221   */\n      0x00\n        /* \"#utility.yul\":1254:1260   */\n      dup2\n        /* \"#utility.yul\":1241:1261   */\n      calldataload\n        /* \"#utility.yul\":1232:1261   */\n      swap1\n      pop\n        /* \"#utility.yul\":1270:1303   */\n      tag_67\n        /* \"#utility.yul\":1297:1302   */\n      dup2\n        /* \"#utility.yul\":1270:1303   */\n      tag_68\n      jump\t// in\n    tag_67:\n        /* \"#utility.yul\":1170:1309   */\n      swap3\n      swap2\n      pop\n      pop\n      jump\t// out\n        /* \"#utility.yul\":1332:1702   */\n    tag_69:\n        /* \"#utility.yul\":1403:1408   */\n      0x00\n        /* \"#utility.yul\":1452:1455   */\n      dup3\n        /* \"#utility.yul\":1445:1449   */\n      0x1f\n        /* \"#utility.yul\":1437:1443   */\n      dup4\n        /* \"#utility.yul\":1433:1450   */\n      add\n        /* \"#utility.yul\":1429:1456   */\n      slt\n        /* \"#utility.yul\":1419:1541   */\n      tag_71\n      jumpi\n        /* \"#utility.yul\":1460:1539   */\n      tag_72\n      tag_73\n      jump\t// in\n    tag_72:\n        /* \"#utility.yul\":1419:1541   */\n    tag_71:\n        /* \"#utility.yul\":1577:1583   */\n      dup2\n        /* \"#utility.yul\":1564:1584   */\n      calldataload\n        /* \"#utility.yul\":1602:1696   */\n      tag_74\n        /* \"#utility.yul\":1692:1695   */\n      dup5\n        /* \"#utility.yul\":1684:1690   */\n      dup3\n        /* \"#utility.yul\":1677:1681   */\n      0x20\n        /* \"#utility.yul\":1669:1675   */\n      dup7\n        /* \"#utility.yul\":1665:1682   */\n      add\n        /* \"#utility.yul\":1602:1696   */\n      tag_41\n      jump\t// in\n    tag_74:\n        /* \"#utility.yul\":1593:1696   */\n      swap2\n      pop\n        /* \"#utility.yul\":1409:1702   */\n      pop\n        /* \"#utility.yul\":1332:1702   */\n      swap3\n      swap2\n      pop\n      pop\n      jump\t// out\n        /* \"#utility.yul\":1722:2062   */\n    tag_75:\n        /* \"#utility.yul\":1778:1783   */\n      0x00\n        /* \"#utility.yul\":1827:1830   */\n      dup3\n        /* \"#utility.yul\":1820:1824   */\n      0x1f\n        /* \"#utility.yul\":1812:1818   */\n      dup4\n        /* \"#utility.yul\":1808:1825   */\n      add\n        /* \"#utility.yul\":1804:1831   */\n      slt\n        /* \"#utility.yul\":1794:1916   */\n      tag_77\n      jumpi\n        /* \"#utility.yul\":1835:1914   */\n      tag_78\n      tag_73\n      jump\t// in\n    tag_78:\n        /* \"#utility.yul\":1794:1916   */\n    tag_77:\n        /* \"#utility.yul\":1952:1958   */\n      dup2\n        /* \"#utility.yul\":1939:1959   */\n      calldataload\n        /* \"#utility.yul\":1977:2056   */\n      tag_79\n        /* \"#utility.yul\":2052:2055   */\n      dup5\n        /* \"#utility.yul\":2044:2050   */\n      dup3\n        /* \"#utility.yul\":2037:2041   */\n      0x20\n        /* \"#utility.yul\":2029:2035   */\n      dup7\n        /* \"#utility.yul\":2025:2042   */\n      add\n        /* \"#utility.yul\":1977:2056   */\n      tag_55\n      jump\t// in\n    tag_79:\n        /* \"#utility.yul\":1968:2056   */\n      swap2\n      pop\n        /* \"#utility.yul\":1784:2062   */\n      pop\n        /* \"#utility.yul\":1722:2062   */\n      swap3\n      swap2\n      pop\n      pop\n      jump\t// out\n        /* \"#utility.yul\":2068:2207   */\n    tag_54:\n        /* \"#utility.yul\":2114:2119   */\n      0x00\n        /* \"#utility.yul\":2152:2158   */\n      dup2\n        /* \"#utility.yul\":2139:2159   */\n      calldataload\n        /* \"#utility.yul\":2130:2159   */\n      swap1\n      pop\n        /* \"#utility.yul\":2168:2201   */\n      tag_81\n        /* \"#utility.yul\":2195:2200   */\n      dup2\n        /* \"#utility.yul\":2168:2201   */\n      tag_82\n      jump\t// in\n    tag_81:\n        /* \"#utility.yul\":2068:2207   */\n      swap3\n      swap2\n      pop\n      pop\n      jump\t// out\n        /* \"#utility.yul\":2213:2542   */\n    tag_7:\n        /* \"#utility.yul\":2272:2278   */\n      0x00\n        /* \"#utility.yul\":2321:2323   */\n      0x20\n        /* \"#utility.yul\":2309:2318   */\n      dup3\n        /* \"#utility.yul\":2300:2307   */\n      dup5\n        /* \"#utility.yul\":2296:2319   */\n      sub\n        /* \"#utility.yul\":2292:2324   */\n      slt\n        /* \"#utility.yul\":2289:2408   */\n      iszero\n      tag_84\n      jumpi\n        /* \"#utility.yul\":2327:2406   */\n      tag_85\n      tag_86\n      jump\t// in\n    tag_85:\n        /* \"#utility.yul\":2289:2408   */\n    tag_84:\n        /* \"#utility.yul\":2447:2448   */\n      0x00\n        /* \"#utility.yul\":2472:2525   */\n      tag_87\n        /* \"#utility.yul\":2517:2524   */\n      dup5\n        /* \"#utility.yul\":2508:2514   */\n      dup3\n        /* \"#utility.yul\":2497:2506   */\n      dup6\n        /* \"#utility.yul\":2493:2515   */\n      add\n        /* \"#utility.yul\":2472:2525   */\n      tag_65\n      jump\t// in\n    tag_87:\n        /* \"#utility.yul\":2462:2525   */\n      swap2\n      pop\n        /* \"#utility.yul\":2418:2535   */\n      pop\n        /* \"#utility.yul\":2213:2542   */\n      swap3\n      swap2\n      pop\n      pop\n      jump\t// out\n        /* \"#utility.yul\":2548:3412   */\n    tag_13:\n        /* \"#utility.yul\":2651:2657   */\n      0x00\n        /* \"#utility.yul\":2659:2665   */\n      dup1\n        /* \"#utility.yul\":2708:2710   */\n      0x40\n        /* \"#utility.yul\":2696:2705   */\n      dup4\n        /* \"#utility.yul\":2687:2694   */\n      dup6\n        /* \"#utility.yul\":2683:2706   */\n      sub\n        /* \"#utility.yul\":2679:2711   */\n      slt\n        /* \"#utility.yul\":2676:2795   */\n      iszero\n      tag_89\n      jumpi\n        /* \"#utility.yul\":2714:2793   */\n      tag_90\n      tag_86\n      jump\t// in\n    tag_90:\n        /* \"#utility.yul\":2676:2795   */\n    tag_89:\n        /* \"#utility.yul\":2862:2863   */\n      0x00\n        /* \"#utility.yul\":2851:2860   */\n      dup4\n        /* \"#utility.yul\":2847:2864   */\n      add\n        /* \"#utility.yul\":2834:2865   */\n      calldataload\n        /* \"#utility.yul\":2892:2910   */\n      0xffffffffffffffff\n        /* \"#utility.yul\":2884:2890   */\n      dup2\n        /* \"#utility.yul\":2881:2911   */\n      gt\n        /* \"#utility.yul\":2878:2995   */\n      iszero\n      tag_91\n      jumpi\n        /* \"#utility.yul\":2914:2993   */\n      tag_92\n      tag_93\n      jump\t// in\n    tag_92:\n        /* \"#utility.yul\":2878:2995   */\n    tag_91:\n        /* \"#utility.yul\":3019:3097   */\n      tag_94\n        /* \"#utility.yul\":3089:3096   */\n      dup6\n        /* \"#utility.yul\":3080:3086   */\n      dup3\n        /* \"#utility.yul\":3069:3078   */\n      dup7\n        /* \"#utility.yul\":3065:3087   */\n      add\n        /* \"#utility.yul\":3019:3097   */\n      tag_69\n      jump\t// in\n    tag_94:\n        /* \"#utility.yul\":3009:3097   */\n      swap3\n      pop\n        /* \"#utility.yul\":2805:3107   */\n      pop\n        /* \"#utility.yul\":3174:3176   */\n      0x20\n        /* \"#utility.yul\":3163:3172   */\n      dup4\n        /* \"#utility.yul\":3159:3177   */\n      add\n        /* \"#utility.yul\":3146:3178   */\n      calldataload\n        /* \"#utility.yul\":3205:3223   */\n      0xffffffffffffffff\n        /* \"#utility.yul\":3197:3203   */\n      dup2\n        /* \"#utility.yul\":3194:3224   */\n      gt\n        /* \"#utility.yul\":3191:3308   */\n      iszero\n      tag_95\n      jumpi\n        /* \"#utility.yul\":3227:3306   */\n      tag_96\n      tag_93\n      jump\t// in\n    tag_96:\n        /* \"#utility.yul\":3191:3308   */\n    tag_95:\n        /* \"#utility.yul\":3332:3395   */\n      tag_97\n        /* \"#utility.yul\":3387:3394   */\n      dup6\n        /* \"#utility.yul\":3378:3384   */\n      dup3\n        /* \"#utility.yul\":3367:3376   */\n      dup7\n        /* \"#utility.yul\":3363:3385   */\n      add\n        /* \"#utility.yul\":3332:3395   */\n      tag_75\n      jump\t// in\n    tag_97:\n        /* \"#utility.yul\":3322:3395   */\n      swap2\n      pop\n        /* \"#utility.yul\":3117:3405   */\n      pop\n        /* \"#utility.yul\":2548:3412   */\n      swap3\n      pop\n      swap3\n      swap1\n      pop\n      jump\t// out\n        /* \"#utility.yul\":3418:3782   */\n    tag_98:\n        /* \"#utility.yul\":3506:3509   */\n      0x00\n        /* \"#utility.yul\":3534:3573   */\n      tag_100\n        /* \"#utility.yul\":3567:3572   */\n      dup3\n        /* \"#utility.yul\":3534:3573   */\n      tag_101\n      jump\t// in\n    tag_100:\n        /* \"#utility.yul\":3589:3660   */\n      tag_102\n        /* \"#utility.yul\":3653:3659   */\n      dup2\n        /* \"#utility.yul\":3648:3651   */\n      dup6\n        /* \"#utility.yul\":3589:3660   */\n      tag_103\n      jump\t// in\n    tag_102:\n        /* \"#utility.yul\":3582:3660   */\n      swap4\n      pop\n        /* \"#utility.yul\":3669:3721   */\n      tag_104\n        /* \"#utility.yul\":3714:3720   */\n      dup2\n        /* \"#utility.yul\":3709:3712   */\n      dup6\n        /* \"#utility.yul\":3702:3706   */\n      0x20\n        /* \"#utility.yul\":3695:3700   */\n      dup7\n        /* \"#utility.yul\":3691:3707   */\n      add\n        /* \"#utility.yul\":3669:3721   */\n      tag_105\n      jump\t// in\n    tag_104:\n        /* \"#utility.yul\":3746:3775   */\n      tag_106\n        /* \"#utility.yul\":3768:3774   */\n      dup2\n        /* \"#utility.yul\":3746:3775   */\n      tag_107\n      jump\t// in\n    tag_106:\n        /* \"#utility.yul\":3741:3744   */\n      dup5\n        /* \"#utility.yul\":3737:3776   */\n      add\n        /* \"#utility.yul\":3730:3776   */\n      swap2\n      pop\n        /* \"#utility.yul\":3510:3782   */\n      pop\n        /* \"#utility.yul\":3418:3782   */\n      swap3\n      swap2\n      pop\n      pop\n      jump\t// out\n        /* \"#utility.yul\":3788:3906   */\n    tag_108:\n        /* \"#utility.yul\":3875:3899   */\n      tag_110\n        /* \"#utility.yul\":3893:3898   */\n      dup2\n        /* \"#utility.yul\":3875:3899   */\n      tag_111\n      jump\t// in\n    tag_110:\n        /* \"#utility.yul\":3870:3873   */\n      dup3\n        /* \"#utility.yul\":3863:3900   */\n      mstore\n        /* \"#utility.yul\":3788:3906   */\n      pop\n      pop\n      jump\t// out\n        /* \"#utility.yul\":3912:4335   */\n    tag_10:\n        /* \"#utility.yul\":4053:4057   */\n      0x00\n        /* \"#utility.yul\":4091:4093   */\n      0x40\n        /* \"#utility.yul\":4080:4089   */\n      dup3\n        /* \"#utility.yul\":4076:4094   */\n      add\n        /* \"#utility.yul\":4068:4094   */\n      swap1\n      pop\n        /* \"#utility.yul\":4104:4175   */\n      tag_113\n        /* \"#utility.yul\":4172:4173   */\n      0x00\n        /* \"#utility.yul\":4161:4170   */\n      dup4\n        /* \"#utility.yul\":4157:4174   */\n      add\n        /* \"#utility.yul\":4148:4154   */\n      dup6\n        /* \"#utility.yul\":4104:4175   */\n      tag_108\n      jump\t// in\n    tag_113:\n        /* \"#utility.yul\":4222:4231   */\n      dup2\n        /* \"#utility.yul\":4216:4220   */\n      dup2\n        /* \"#utility.yul\":4212:4232   */\n      sub\n        /* \"#utility.yul\":4207:4209   */\n      0x20\n        /* \"#utility.yul\":4196:4205   */\n      dup4\n        /* \"#utility.yul\":4192:4210   */\n      add\n        /* \"#utility.yul\":4185:4233   */\n      mstore\n        /* \"#utility.yul\":4250:4328   */\n      tag_114\n        /* \"#utility.yul\":4323:4327   */\n      dup2\n        /* \"#utility.yul\":4314:4320   */\n      dup5\n        /* \"#utility.yul\":4250:4328   */\n      tag_98\n      jump\t// in\n    tag_114:\n        /* \"#utility.yul\":4242:4328   */\n      swap1\n      pop\n        /* \"#utility.yul\":3912:4335   */\n      swap4\n      swap3\n      pop\n      pop\n      pop\n      jump\t// out\n        /* \"#utility.yul\":4341:4470   */\n    tag_46:\n        /* \"#utility.yul\":4375:4381   */\n      0x00\n        /* \"#utility.yul\":4402:4422   */\n      tag_116\n      tag_117\n      jump\t// in\n    tag_116:\n        /* \"#utility.yul\":4392:4422   */\n      swap1\n      pop\n        /* \"#utility.yul\":4431:4464   */\n      tag_118\n        /* \"#utility.yul\":4459:4463   */\n      dup3\n        /* \"#utility.yul\":4451:4457   */\n      dup3\n        /* \"#utility.yul\":4431:4464   */\n      tag_119\n      jump\t// in\n    tag_118:\n        /* \"#utility.yul\":4341:4470   */\n      swap2\n      swap1\n      pop\n      jump\t// out\n        /* \"#utility.yul\":4476:4551   */\n    tag_117:\n        /* \"#utility.yul\":4509:4515   */\n      0x00\n        /* \"#utility.yul\":4542:4544   */\n      0x40\n        /* \"#utility.yul\":4536:4545   */\n      mload\n        /* \"#utility.yul\":4526:4545   */\n      swap1\n      pop\n        /* \"#utility.yul\":4476:4551   */\n      swap1\n      jump\t// out\n        /* \"#utility.yul\":4557:4868   */\n    tag_45:\n        /* \"#utility.yul\":4634:4638   */\n      0x00\n        /* \"#utility.yul\":4724:4742   */\n      0xffffffffffffffff\n        /* \"#utility.yul\":4716:4722   */\n      dup3\n        /* \"#utility.yul\":4713:4743   */\n      gt\n        /* \"#utility.yul\":4710:4766   */\n      iszero\n      tag_122\n      jumpi\n        /* \"#utility.yul\":4746:4764   */\n      tag_123\n      tag_124\n      jump\t// in\n    tag_123:\n        /* \"#utility.yul\":4710:4766   */\n    tag_122:\n        /* \"#utility.yul\":4796:4800   */\n      0x20\n        /* \"#utility.yul\":4788:4794   */\n      dup3\n        /* \"#utility.yul\":4784:4801   */\n      mul\n        /* \"#utility.yul\":4776:4801   */\n      swap1\n      pop\n        /* \"#utility.yul\":4856:4860   */\n      0x20\n        /* \"#utility.yul\":4850:4854   */\n      dup2\n        /* \"#utility.yul\":4846:4861   */\n      add\n        /* \"#utility.yul\":4838:4861   */\n      swap1\n      pop\n        /* \"#utility.yul\":4557:4868   */\n      swap2\n      swap1\n      pop\n      jump\t// out\n        /* \"#utility.yul\":4874:5182   */\n    tag_59:\n        /* \"#utility.yul\":4936:4940   */\n      0x00\n        /* \"#utility.yul\":5026:5044   */\n      0xffffffffffffffff\n        /* \"#utility.yul\":5018:5024   */\n      dup3\n        /* \"#utility.yul\":5015:5045   */\n      gt\n        /* \"#utility.yul\":5012:5068   */\n      iszero\n      tag_126\n      jumpi\n        /* \"#utility.yul\":5048:5066   */\n      tag_127\n      tag_124\n      jump\t// in\n    tag_127:\n        /* \"#utility.yul\":5012:5068   */\n    tag_126:\n        /* \"#utility.yul\":5086:5115   */\n      tag_128\n        /* \"#utility.yul\":5108:5114   */\n      dup3\n        /* \"#utility.yul\":5086:5115   */\n      tag_107\n      jump\t// in\n    tag_128:\n        /* \"#utility.yul\":5078:5115   */\n      swap1\n      pop\n        /* \"#utility.yul\":5170:5174   */\n      0x20\n        /* \"#utility.yul\":5164:5168   */\n      dup2\n        /* \"#utility.yul\":5160:5175   */\n      add\n        /* \"#utility.yul\":5152:5175   */\n      swap1\n      pop\n        /* \"#utility.yul\":4874:5182   */\n      swap2\n      swap1\n      pop\n      jump\t// out\n        /* \"#utility.yul\":5188:5287   */\n    tag_101:\n        /* \"#utility.yul\":5240:5246   */\n      0x00\n        /* \"#utility.yul\":5274:5279   */\n      dup2\n        /* \"#utility.yul\":5268:5280   */\n      mload\n        /* \"#utility.yul\":5258:5280   */\n      swap1\n      pop\n        /* \"#utility.yul\":5188:5287   */\n      swap2\n      swap1\n      pop\n      jump\t// out\n        /* \"#utility.yul\":5293:5462   */\n    tag_103:\n        /* \"#utility.yul\":5377:5388   */\n      0x00\n        /* \"#utility.yul\":5411:5417   */\n      dup3\n        /* \"#utility.yul\":5406:5409   */\n      dup3\n        /* \"#utility.yul\":5399:5418   */\n      mstore\n        /* \"#utility.yul\":5451:5455   */\n      0x20\n        /* \"#utility.yul\":5446:5449   */\n      dup3\n        /* \"#utility.yul\":5442:5456   */\n      add\n        /* \"#utility.yul\":5427:5456   */\n      swap1\n      pop\n        /* \"#utility.yul\":5293:5462   */\n      swap3\n      swap2\n      pop\n      pop\n      jump\t// out\n        /* \"#utility.yul\":5468:5564   */\n    tag_131:\n        /* \"#utility.yul\":5505:5512   */\n      0x00\n        /* \"#utility.yul\":5534:5558   */\n      tag_133\n        /* \"#utility.yul\":5552:5557   */\n      dup3\n        /* \"#utility.yul\":5534:5558   */\n      tag_134\n      jump\t// in\n    tag_133:\n        /* \"#utility.yul\":5523:5558   */\n      swap1\n      pop\n        /* \"#utility.yul\":5468:5564   */\n      swap2\n      swap1\n      pop\n      jump\t// out\n        /* \"#utility.yul\":5570:5696   */\n    tag_134:\n        /* \"#utility.yul\":5607:5614   */\n      0x00\n        /* \"#utility.yul\":5647:5689   */\n      0xffffffffffffffffffffffffffffffffffffffff\n        /* \"#utility.yul\":5640:5645   */\n      dup3\n        /* \"#utility.yul\":5636:5690   */\n      and\n        /* \"#utility.yul\":5625:5690   */\n      swap1\n      pop\n        /* \"#utility.yul\":5570:5696   */\n      swap2\n      swap1\n      pop\n      jump\t// out\n        /* \"#utility.yul\":5702:5779   */\n    tag_111:\n        /* \"#utility.yul\":5739:5746   */\n      0x00\n        /* \"#utility.yul\":5768:5773   */\n      dup2\n        /* \"#utility.yul\":5757:5773   */\n      swap1\n      pop\n        /* \"#utility.yul\":5702:5779   */\n      swap2\n      swap1\n      pop\n      jump\t// out\n        /* \"#utility.yul\":5785:5939   */\n    tag_64:\n        /* \"#utility.yul\":5869:5875   */\n      dup3\n        /* \"#utility.yul\":5864:5867   */\n      dup2\n        /* \"#utility.yul\":5859:5862   */\n      dup4\n        /* \"#utility.yul\":5846:5876   */\n      calldatacopy\n        /* \"#utility.yul\":5931:5932   */\n      0x00\n        /* \"#utility.yul\":5922:5928   */\n      dup4\n        /* \"#utility.yul\":5917:5920   */\n      dup4\n        /* \"#utility.yul\":5913:5929   */\n      add\n        /* \"#utility.yul\":5906:5933   */\n      mstore\n        /* \"#utility.yul\":5785:5939   */\n      pop\n      pop\n      pop\n      jump\t// out\n        /* \"#utility.yul\":5945:6252   */\n    tag_105:\n        /* \"#utility.yul\":6013:6014   */\n      0x00\n        /* \"#utility.yul\":6023:6136   */\n    tag_139:\n        /* \"#utility.yul\":6037:6043   */\n      dup4\n        /* \"#utility.yul\":6034:6035   */\n      dup2\n        /* \"#utility.yul\":6031:6044   */\n      lt\n        /* \"#utility.yul\":6023:6136   */\n      iszero\n      tag_141\n      jumpi\n        /* \"#utility.yul\":6122:6123   */\n      dup1\n        /* \"#utility.yul\":6117:6120   */\n      dup3\n        /* \"#utility.yul\":6113:6124   */\n      add\n        /* \"#utility.yul\":6107:6125   */\n      mload\n        /* \"#utility.yul\":6103:6104   */\n      dup2\n        /* \"#utility.yul\":6098:6101   */\n      dup5\n        /* \"#utility.yul\":6094:6105   */\n      add\n        /* \"#utility.yul\":6087:6126   */\n      mstore\n        /* \"#utility.yul\":6059:6061   */\n      0x20\n        /* \"#utility.yul\":6056:6057   */\n      dup2\n        /* \"#utility.yul\":6052:6062   */\n      add\n        /* \"#utility.yul\":6047:6062   */\n      swap1\n      pop\n        /* \"#utility.yul\":6023:6136   */\n      jump(tag_139)\n    tag_141:\n        /* \"#utility.yul\":6154:6160   */\n      dup4\n        /* \"#utility.yul\":6151:6152   */\n      dup2\n        /* \"#utility.yul\":6148:6161   */\n      gt\n        /* \"#utility.yul\":6145:6246   */\n      iszero\n      tag_142\n      jumpi\n        /* \"#utility.yul\":6234:6235   */\n      0x00\n        /* \"#utility.yul\":6225:6231   */\n      dup5\n        /* \"#utility.yul\":6220:6223   */\n      dup5\n        /* \"#utility.yul\":6216:6232   */\n      add\n        /* \"#utility.yul\":6209:6236   */\n      mstore\n        /* \"#utility.yul\":6145:6246   */\n    tag_142:\n        /* \"#utility.yul\":5994:6252   */\n      pop\n        /* \"#utility.yul\":5945:6252   */\n      pop\n      pop\n      pop\n      jump\t// out\n        /* \"#utility.yul\":6258:6578   */\n    tag_16:\n        /* \"#utility.yul\":6302:6308   */\n      0x00\n        /* \"#utility.yul\":6339:6340   */\n      0x02\n        /* \"#utility.yul\":6333:6337   */\n      dup3\n        /* \"#utility.yul\":6329:6341   */\n      div\n        /* \"#utility.yul\":6319:6341   */\n      swap1\n      pop\n        /* \"#utility.yul\":6386:6387   */\n      0x01\n        /* \"#utility.yul\":6380:6384   */\n      dup3\n        /* \"#utility.yul\":6376:6388   */\n      and\n        /* \"#utility.yul\":6407:6425   */\n      dup1\n        /* \"#utility.yul\":6397:6478   */\n      tag_144\n      jumpi\n        /* \"#utility.yul\":6463:6467   */\n      0x7f\n        /* \"#utility.yul\":6455:6461   */\n      dup3\n        /* \"#utility.yul\":6451:6468   */\n      and\n        /* \"#utility.yul\":6441:6468   */\n      swap2\n      pop\n        /* \"#utility.yul\":6397:6478   */\n    tag_144:\n        /* \"#utility.yul\":6525:6527   */\n      0x20\n        /* \"#utility.yul\":6517:6523   */\n      dup3\n        /* \"#utility.yul\":6514:6528   */\n      lt\n        /* \"#utility.yul\":6494:6512   */\n      dup2\n        /* \"#utility.yul\":6491:6529   */\n      eq\n        /* \"#utility.yul\":6488:6572   */\n      iszero\n      tag_145\n      jumpi\n        /* \"#utility.yul\":6544:6562   */\n      tag_146\n      tag_147\n      jump\t// in\n    tag_146:\n        /* \"#utility.yul\":6488:6572   */\n    tag_145:\n        /* \"#utility.yul\":6309:6578   */\n      pop\n        /* \"#utility.yul\":6258:6578   */\n      swap2\n      swap1\n      pop\n      jump\t// out\n        /* \"#utility.yul\":6584:6865   */\n    tag_119:\n        /* \"#utility.yul\":6667:6694   */\n      tag_149\n        /* \"#utility.yul\":6689:6693   */\n      dup3\n        /* \"#utility.yul\":6667:6694   */\n      tag_107\n      jump\t// in\n    tag_149:\n        /* \"#utility.yul\":6659:6665   */\n      dup2\n        /* \"#utility.yul\":6655:6695   */\n      add\n        /* \"#utility.yul\":6797:6803   */\n      dup2\n        /* \"#utility.yul\":6785:6795   */\n      dup2\n        /* \"#utility.yul\":6782:6804   */\n      lt\n        /* \"#utility.yul\":6761:6779   */\n      0xffffffffffffffff\n        /* \"#utility.yul\":6749:6759   */\n      dup3\n        /* \"#utility.yul\":6746:6780   */\n      gt\n        /* \"#utility.yul\":6743:6805   */\n      or\n        /* \"#utility.yul\":6740:6828   */\n      iszero\n      tag_150\n      jumpi\n        /* \"#utility.yul\":6808:6826   */\n      tag_151\n      tag_124\n      jump\t// in\n    tag_151:\n        /* \"#utility.yul\":6740:6828   */\n    tag_150:\n        /* \"#utility.yul\":6848:6858   */\n      dup1\n        /* \"#utility.yul\":6844:6846   */\n      0x40\n        /* \"#utility.yul\":6837:6859   */\n      mstore\n        /* \"#utility.yul\":6627:6865   */\n      pop\n        /* \"#utility.yul\":6584:6865   */\n      pop\n      pop\n      jump\t// out\n        /* \"#utility.yul\":6871:7051   */\n    tag_147:\n        /* \"#utility.yul\":6919:6996   */\n      0x4e487b7100000000000000000000000000000000000000000000000000000000\n        /* \"#utility.yul\":6916:6917   */\n      0x00\n        /* \"#utility.yul\":6909:6997   */\n      mstore\n        /* \"#utility.yul\":7016:7020   */\n      0x22\n        /* \"#utility.yul\":7013:7014   */\n      0x04\n        /* \"#utility.yul\":7006:7021   */\n      mstore\n        /* \"#utility.yul\":7040:7044   */\n      0x24\n        /* \"#utility.yul\":7037:7038   */\n      0x00\n        /* \"#utility.yul\":7030:7045   */\n      revert\n        /* \"#utility.yul\":7057:7237   */\n    tag_124:\n        /* \"#utility.yul\":7105:7182   */\n      0x4e487b7100000000000000000000000000000000000000000000000000000000\n        /* \"#utility.yul\":7102:7103   */\n      0x00\n        /* \"#utility.yul\":7095:7183   */\n      mstore\n        /* \"#utility.yul\":7202:7206   */\n      0x41\n        /* \"#utility.yul\":7199:7200   */\n      0x04\n        /* \"#utility.yul\":7192:7207   */\n      mstore\n        /* \"#utility.yul\":7226:7230   */\n      0x24\n        /* \"#utility.yul\":7223:7224   */\n      0x00\n        /* \"#utility.yul\":7216:7231   */\n      revert\n        /* \"#utility.yul\":7243:7360   */\n    tag_73:\n        /* \"#utility.yul\":7352:7353   */\n      0x00\n        /* \"#utility.yul\":7349:7350   */\n      dup1\n        /* \"#utility.yul\":7342:7354   */\n      revert\n        /* \"#utility.yul\":7366:7483   */\n    tag_49:\n        /* \"#utility.yul\":7475:7476   */\n      0x00\n        /* \"#utility.yul\":7472:7473   */\n      dup1\n        /* \"#utility.yul\":7465:7477   */\n      revert\n        /* \"#utility.yul\":7489:7606   */\n    tag_62:\n        /* \"#utility.yul\":7598:7599   */\n      0x00\n        /* \"#utility.yul\":7595:7596   */\n      dup1\n        /* \"#utility.yul\":7588:7600   */\n      revert\n        /* \"#utility.yul\":7612:7729   */\n    tag_93:\n        /* \"#utility.yul\":7721:7722   */\n      0x00\n        /* \"#utility.yul\":7718:7719   */\n      dup1\n        /* \"#utility.yul\":7711:7723   */\n      revert\n        /* \"#utility.yul\":7735:7852   */\n    tag_86:\n        /* \"#utility.yul\":7844:7845   */\n      0x00\n        /* \"#utility.yul\":7841:7842   */\n      dup1\n        /* \"#utility.yul\":7834:7846   */\n      revert\n        /* \"#utility.yul\":7858:7960   */\n    tag_107:\n        /* \"#utility.yul\":7899:7905   */\n      0x00\n        /* \"#utility.yul\":7950:7952   */\n      0x1f\n        /* \"#utility.yul\":7946:7953   */\n      not\n        /* \"#utility.yul\":7941:7943   */\n      0x1f\n        /* \"#utility.yul\":7934:7939   */\n      dup4\n        /* \"#utility.yul\":7930:7944   */\n      add\n        /* \"#utility.yul\":7926:7954   */\n      and\n        /* \"#utility.yul\":7916:7954   */\n      swap1\n      pop\n        /* \"#utility.yul\":7858:7960   */\n      swap2\n      swap1\n      pop\n      jump\t// out\n        /* \"#utility.yul\":7966:8088   */\n    tag_68:\n        /* \"#utility.yul\":8039:8063   */\n      tag_161\n        /* \"#utility.yul\":8057:8062   */\n      dup2\n        /* \"#utility.yul\":8039:8063   */\n      tag_131\n      jump\t// in\n    tag_161:\n        /* \"#utility.yul\":8032:8037   */\n      dup2\n        /* \"#utility.yul\":8029:8064   */\n      eq\n        /* \"#utility.yul\":8019:8082   */\n      tag_162\n      jumpi\n        /* \"#utility.yul\":8078:8079   */\n      0x00\n        /* \"#utility.yul\":8075:8076   */\n      dup1\n        /* \"#utility.yul\":8068:8080   */\n      revert\n        /* \"#utility.yul\":8019:8082   */\n    tag_162:\n        /* \"#utility.yul\":7966:8088   */\n      pop\n      jump\t// out\n        /* \"#utility.yul\":8094:8216   */\n    tag_82:\n        /* \"#utility.yul\":8167:8191   */\n      tag_164\n        /* \"#utility.yul\":8185:8190   */\n      dup2\n        /* \"#utility.yul\":8167:8191   */\n      tag_111\n      jump\t// in\n    tag_164:\n        /* \"#utility.yul\":8160:8165   */\n      dup2\n        /* \"#utility.yul\":8157:8192   */\n      eq\n        /* \"#utility.yul\":8147:8210   */\n      tag_165\n      jumpi\n        /* \"#utility.yul\":8206:8207   */\n      0x00\n        /* \"#utility.yul\":8203:8204   */\n      dup1\n        /* \"#utility.yul\":8196:8208   */\n      revert\n        /* \"#utility.yul\":8147:8210   */\n    tag_165:\n        /* \"#utility.yul\":8094:8216   */\n      pop\n      jump\t// out\n\n    auxdata: 0xa2646970667358221220da349c5dd5ca69c6b1f54b5303db49638c95133458d2c4b5beeff6f0f4f77aab64736f6c63430008070033\n}\n",
				"bytecode": {
					"linkReferences": {},
					"object": "608060405234801561001057600080fd5b506108d5806100206000396000f3fe608060405234801561001057600080fd5b50600436106100365760003560e01c8063b43c5d331461003b578063fc277a951461006c575b600080fd5b6100556004803603810190610050919061054d565b610088565b60405161006392919061063a565b60405180910390f35b6100866004803603810190610081919061057a565b610134565b005b60006020528060005260406000206000915090508060000154908060010180546100b190610786565b80601f01602080910402602001604051908101604052809291908181526020018280546100dd90610786565b801561012a5780601f106100ff5761010080835404028352916020019161012a565b820191906000526020600020905b81548152906001019060200180831161010d57829003601f168201915b5050505050905082565b6040518060400160405280607b81526020016040518060400160405280600381526020017f62617200000000000000000000000000000000000000000000000000000000008152508152506000803373ffffffffffffffffffffffffffffffffffffffff1673ffffffffffffffffffffffffffffffffffffffff1681526020019081526020016000206000820151816000015560208201518160010190805190602001906101e3929190610372565b5090505060008060003373ffffffffffffffffffffffffffffffffffffffff1673ffffffffffffffffffffffffffffffffffffffff16815260200190815260200160002090506040518060400160405280600381526020017f666f6f0000000000000000000000000000000000000000000000000000000000815250816001019080519060200190610276929190610372565b5060008060003373ffffffffffffffffffffffffffffffffffffffff1673ffffffffffffffffffffffffffffffffffffffff168152602001908152602001600020604051806040016040529081600082015481526020016001820180546102dc90610786565b80601f016020809104026020016040519081016040528092919081815260200182805461030890610786565b80156103555780601f1061032a57610100808354040283529160200191610355565b820191906000526020600020905b81548152906001019060200180831161033857829003601f168201915b50505050508152505090506101c881600001818152505050505050565b82805461037e90610786565b90600052602060002090601f0160209004810192826103a057600085556103e7565b82601f106103b957805160ff19168380011785556103e7565b828001600101855582156103e7579182015b828111156103e65782518255916020019190600101906103cb565b5b5090506103f491906103f8565b5090565b5b808211156104115760008160009055506001016103f9565b5090565b60006104286104238461068f565b61066a565b9050808382526020820190508285602086028201111561044b5761044a61084c565b5b60005b8581101561047b57816104618882610538565b84526020840193506020830192505060018101905061044e565b5050509392505050565b6000610498610493846106bb565b61066a565b9050828152602081018484840111156104b4576104b3610851565b5b6104bf848285610744565b509392505050565b6000813590506104d681610871565b92915050565b600082601f8301126104f1576104f0610847565b5b8135610501848260208601610415565b91505092915050565b600082601f83011261051f5761051e610847565b5b813561052f848260208601610485565b91505092915050565b60008135905061054781610888565b92915050565b6000602082840312156105635761056261085b565b5b6000610571848285016104c7565b91505092915050565b600080604083850312156105915761059061085b565b5b600083013567ffffffffffffffff8111156105af576105ae610856565b5b6105bb858286016104dc565b925050602083013567ffffffffffffffff8111156105dc576105db610856565b5b6105e88582860161050a565b9150509250929050565b60006105fd826106ec565b61060781856106f7565b9350610617818560208601610753565b61062081610860565b840191505092915050565b6106348161073a565b82525050565b600060408201905061064f600083018561062b565b818103602083015261066181846105f2565b90509392505050565b6000610674610685565b905061068082826107b8565b919050565b6000604051905090565b600067ffffffffffffffff8211156106aa576106a9610818565b5b602082029050602081019050919050565b600067ffffffffffffffff8211156106d6576106d5610818565b5b6106df82610860565b9050602081019050919050565b600081519050919050565b600082825260208201905092915050565b60006107138261071a565b9050919050565b600073ffffffffffffffffffffffffffffffffffffffff82169050919050565b6000819050919050565b82818337600083830152505050565b60005b83811015610771578082015181840152602081019050610756565b83811115610780576000848401525b50505050565b6000600282049050600182168061079e57607f821691505b602082108114156107b2576107b16107e9565b5b50919050565b6107c182610860565b810181811067ffffffffffffffff821117156107e0576107df610818565b5b80604052505050565b7f4e487b7100000000000000000000000000000000000000000000000000000000600052602260045260246000fd5b7f4e487b7100000000000000000000000000000000000000000000000000000000600052604160045260246000fd5b600080fd5b600080fd5b600080fd5b600080fd5b600080fd5b6000601f19601f8301169050919050565b61087a81610708565b811461088557600080fd5b50565b6108918161073a565b811461089c57600080fd5b5056fea2646970667358221220da349c5dd5ca69c6b1f54b5303db49638c95133458d2c4b5beeff6f0f4f77aab64736f6c63430008070033",
					"opcodes": "PUSH1 0x80 PUSH1 0x40 MSTORE CALLVALUE DUP1 ISZERO PUSH2 0x10 JUMPI PUSH1 0x0 DUP1 REVERT JUMPDEST POP PUSH2 0x8D5 DUP1 PUSH2 0x20 PUSH1 0x0 CODECOPY PUSH1 0x0 RETURN INVALID PUSH1 0x80 PUSH1 0x40 MSTORE CALLVALUE DUP1 ISZERO PUSH2 0x10 JUMPI PUSH1 0x0 DUP1 REVERT JUMPDEST POP PUSH1 0x4 CALLDATASIZE LT PUSH2 0x36 JUMPI PUSH1 0x0 CALLDATALOAD PUSH1 0xE0 SHR DUP1 PUSH4 0xB43C5D33 EQ PUSH2 0x3B JUMPI DUP1 PUSH4 0xFC277A95 EQ PUSH2 0x6C JUMPI JUMPDEST PUSH1 0x0 DUP1 REVERT JUMPDEST PUSH2 0x55 PUSH1 0x4 DUP1 CALLDATASIZE SUB DUP2 ADD SWAP1 PUSH2 0x50 SWAP2 SWAP1 PUSH2 0x54D JUMP JUMPDEST PUSH2 0x88 JUMP JUMPDEST PUSH1 0x40 MLOAD PUSH2 0x63 SWAP3 SWAP2 SWAP1 PUSH2 0x63A JUMP JUMPDEST PUSH1 0x40 MLOAD DUP1 SWAP2 SUB SWAP1 RETURN JUMPDEST PUSH2 0x86 PUSH1 0x4 DUP1 CALLDATASIZE SUB DUP2 ADD SWAP1 PUSH2 0x81 SWAP2 SWAP1 PUSH2 0x57A JUMP JUMPDEST PUSH2 0x134 JUMP JUMPDEST STOP JUMPDEST PUSH1 0x0 PUSH1 0x20 MSTORE DUP1 PUSH1 0x0 MSTORE PUSH1 0x40 PUSH1 0x0 KECCAK256 PUSH1 0x0 SWAP2 POP SWAP1 POP DUP1 PUSH1 0x0 ADD SLOAD SWAP1 DUP1 PUSH1 0x1 ADD DUP1 SLOAD PUSH2 0xB1 SWAP1 PUSH2 0x786 JUMP JUMPDEST DUP1 PUSH1 0x1F ADD PUSH1 0x20 DUP1 SWAP2 DIV MUL PUSH1 0x20 ADD PUSH1 0x40 MLOAD SWAP1 DUP2 ADD PUSH1 0x40 MSTORE DUP1 SWAP3 SWAP2 SWAP1 DUP2 DUP2 MSTORE PUSH1 0x20 ADD DUP3 DUP1 SLOAD PUSH2 0xDD SWAP1 PUSH2 0x786 JUMP JUMPDEST DUP1 ISZERO PUSH2 0x12A JUMPI DUP1 PUSH1 0x1F LT PUSH2 0xFF JUMPI PUSH2 0x100 DUP1 DUP4 SLOAD DIV MUL DUP4 MSTORE SWAP2 PUSH1 0x20 ADD SWAP2 PUSH2 0x12A JUMP JUMPDEST DUP3 ADD SWAP2 SWAP1 PUSH1 0x0 MSTORE PUSH1 0x20 PUSH1 0x0 KECCAK256 SWAP1 JUMPDEST DUP2 SLOAD DUP2 MSTORE SWAP1 PUSH1 0x1 ADD SWAP1 PUSH1 0x20 ADD DUP1 DUP4 GT PUSH2 0x10D JUMPI DUP3 SWAP1 SUB PUSH1 0x1F AND DUP3 ADD SWAP2 JUMPDEST POP POP POP POP POP SWAP1 POP DUP3 JUMP JUMPDEST PUSH1 0x40 MLOAD DUP1 PUSH1 0x40 ADD PUSH1 0x40 MSTORE DUP1 PUSH1 0x7B DUP2 MSTORE PUSH1 0x20 ADD PUSH1 0x40 MLOAD DUP1 PUSH1 0x40 ADD PUSH1 0x40 MSTORE DUP1 PUSH1 0x3 DUP2 MSTORE PUSH1 0x20 ADD PUSH32 0x6261720000000000000000000000000000000000000000000000000000000000 DUP2 MSTORE POP DUP2 MSTORE POP PUSH1 0x0 DUP1 CALLER PUSH20 0xFFFFFFFFFFFFFFFFFFFFFFFFFFFFFFFFFFFFFFFF AND PUSH20 0xFFFFFFFFFFFFFFFFFFFFFFFFFFFFFFFFFFFFFFFF AND DUP2 MSTORE PUSH1 0x20 ADD SWAP1 DUP2 MSTORE PUSH1 0x20 ADD PUSH1 0x0 KECCAK256 PUSH1 0x0 DUP3 ADD MLOAD DUP2 PUSH1 0x0 ADD SSTORE PUSH1 0x20 DUP3 ADD MLOAD DUP2 PUSH1 0x1 ADD SWAP1 DUP1 MLOAD SWAP1 PUSH1 0x20 ADD SWAP1 PUSH2 0x1E3 SWAP3 SWAP2 SWAP1 PUSH2 0x372 JUMP JUMPDEST POP SWAP1 POP POP PUSH1 0x0 DUP1 PUSH1 0x0 CALLER PUSH20 0xFFFFFFFFFFFFFFFFFFFFFFFFFFFFFFFFFFFFFFFF AND PUSH20 0xFFFFFFFFFFFFFFFFFFFFFFFFFFFFFFFFFFFFFFFF AND DUP2 MSTORE PUSH1 0x20 ADD SWAP1 DUP2 MSTORE PUSH1 0x20 ADD PUSH1 0x0 KECCAK256 SWAP1 POP PUSH1 0x40 MLOAD DUP1 PUSH1 0x40 ADD PUSH1 0x40 MSTORE DUP1 PUSH1 0x3 DUP2 MSTORE PUSH1 0x20 ADD PUSH32 0x666F6F0000000000000000000000000000000000000000000000000000000000 DUP2 MSTORE POP DUP2 PUSH1 0x1 ADD SWAP1 DUP1 MLOAD SWAP1 PUSH1 0x20 ADD SWAP1 PUSH2 0x276 SWAP3 SWAP2 SWAP1 PUSH2 0x372 JUMP JUMPDEST POP PUSH1 0x0 DUP1 PUSH1 0x0 CALLER PUSH20 0xFFFFFFFFFFFFFFFFFFFFFFFFFFFFFFFFFFFFFFFF AND PUSH20 0xFFFFFFFFFFFFFFFFFFFFFFFFFFFFFFFFFFFFFFFF AND DUP2 MSTORE PUSH1 0x20 ADD SWAP1 DUP2 MSTORE PUSH1 0x20 ADD PUSH1 0x0 KECCAK256 PUSH1 0x40 MLOAD DUP1 PUSH1 0x40 ADD PUSH1 0x40 MSTORE SWAP1 DUP2 PUSH1 0x0 DUP3 ADD SLOAD DUP2 MSTORE PUSH1 0x20 ADD PUSH1 0x1 DUP3 ADD DUP1 SLOAD PUSH2 0x2DC SWAP1 PUSH2 0x786 JUMP JUMPDEST DUP1 PUSH1 0x1F ADD PUSH1 0x20 DUP1 SWAP2 DIV MUL PUSH1 0x20 ADD PUSH1 0x40 MLOAD SWAP1 DUP2 ADD PUSH1 0x40 MSTORE DUP1 SWAP3 SWAP2 SWAP1 DUP2 DUP2 MSTORE PUSH1 0x20 ADD DUP3 DUP1 SLOAD PUSH2 0x308 SWAP1 PUSH2 0x786 JUMP JUMPDEST DUP1 ISZERO PUSH2 0x355 JUMPI DUP1 PUSH1 0x1F LT PUSH2 0x32A JUMPI PUSH2 0x100 DUP1 DUP4 SLOAD DIV MUL DUP4 MSTORE SWAP2 PUSH1 0x20 ADD SWAP2 PUSH2 0x355 JUMP JUMPDEST DUP3 ADD SWAP2 SWAP1 PUSH1 0x0 MSTORE PUSH1 0x20 PUSH1 0x0 KECCAK256 SWAP1 JUMPDEST DUP2 SLOAD DUP2 MSTORE SWAP1 PUSH1 0x1 ADD SWAP1 PUSH1 0x20 ADD DUP1 DUP4 GT PUSH2 0x338 JUMPI DUP3 SWAP1 SUB PUSH1 0x1F AND DUP3 ADD SWAP2 JUMPDEST POP POP POP POP POP DUP2 MSTORE POP POP SWAP1 POP PUSH2 0x1C8 DUP2 PUSH1 0x0 ADD DUP2 DUP2 MSTORE POP POP POP POP POP POP JUMP JUMPDEST DUP3 DUP1 SLOAD PUSH2 0x37E SWAP1 PUSH2 0x786 JUMP JUMPDEST SWAP1 PUSH1 0x0 MSTORE PUSH1 0x20 PUSH1 0x0 KECCAK256 SWAP1 PUSH1 0x1F ADD PUSH1 0x20 SWAP1 DIV DUP2 ADD SWAP3 DUP3 PUSH2 0x3A0 JUMPI PUSH1 0x0 DUP6 SSTORE PUSH2 0x3E7 JUMP JUMPDEST DUP3 PUSH1 0x1F LT PUSH2 0x3B9 JUMPI DUP1 MLOAD PUSH1 0xFF NOT AND DUP4 DUP1 ADD OR DUP6 SSTORE PUSH2 0x3E7 JUMP JUMPDEST DUP3 DUP1 ADD PUSH1 0x1 ADD DUP6 SSTORE DUP3 ISZERO PUSH2 0x3E7 JUMPI SWAP2 DUP3 ADD JUMPDEST DUP3 DUP2 GT ISZERO PUSH2 0x3E6 JUMPI DUP3 MLOAD DUP3 SSTORE SWAP2 PUSH1 0x20 ADD SWAP2 SWAP1 PUSH1 0x1 ADD SWAP1 PUSH2 0x3CB JUMP JUMPDEST JUMPDEST POP SWAP1 POP PUSH2 0x3F4 SWAP2 SWAP1 PUSH2 0x3F8 JUMP JUMPDEST POP SWAP1 JUMP JUMPDEST JUMPDEST DUP1 DUP3 GT ISZERO PUSH2 0x411 JUMPI PUSH1 0x0 DUP2 PUSH1 0x0 SWAP1 SSTORE POP PUSH1 0x1 ADD PUSH2 0x3F9 JUMP JUMPDEST POP SWAP1 JUMP JUMPDEST PUSH1 0x0 PUSH2 0x428 PUSH2 0x423 DUP5 PUSH2 0x68F JUMP JUMPDEST PUSH2 0x66A JUMP JUMPDEST SWAP1 POP DUP1 DUP4 DUP3 MSTORE PUSH1 0x20 DUP3 ADD SWAP1 POP DUP3 DUP6 PUSH1 0x20 DUP7 MUL DUP3 ADD GT ISZERO PUSH2 0x44B JUMPI PUSH2 0x44A PUSH2 0x84C JUMP JUMPDEST JUMPDEST PUSH1 0x0 JUMPDEST DUP6 DUP2 LT ISZERO PUSH2 0x47B JUMPI DUP2 PUSH2 0x461 DUP9 DUP3 PUSH2 0x538 JUMP JUMPDEST DUP5 MSTORE PUSH1 0x20 DUP5 ADD SWAP4 POP PUSH1 0x20 DUP4 ADD SWAP3 POP POP PUSH1 0x1 DUP2 ADD SWAP1 POP PUSH2 0x44E JUMP JUMPDEST POP POP POP SWAP4 SWAP3 POP POP POP JUMP JUMPDEST PUSH1 0x0 PUSH2 0x498 PUSH2 0x493 DUP5 PUSH2 0x6BB JUMP JUMPDEST PUSH2 0x66A JUMP JUMPDEST SWAP1 POP DUP3 DUP2 MSTORE PUSH1 0x20 DUP2 ADD DUP5 DUP5 DUP5 ADD GT ISZERO PUSH2 0x4B4 JUMPI PUSH2 0x4B3 PUSH2 0x851 JUMP JUMPDEST JUMPDEST PUSH2 0x4BF DUP5 DUP3 DUP6 PUSH2 0x744 JUMP JUMPDEST POP SWAP4 SWAP3 POP POP POP JUMP JUMPDEST PUSH1 0x0 DUP2 CALLDATALOAD SWAP1 POP PUSH2 0x4D6 DUP2 PUSH2 0x871 JUMP JUMPDEST SWAP3 SWAP2 POP POP JUMP JUMPDEST PUSH1 0x0 DUP3 PUSH1 0x1F DUP4 ADD SLT PUSH2 0x4F1 JUMPI PUSH2 0x4F0 PUSH2 0x847 JUMP JUMPDEST JUMPDEST DUP2 CALLDATALOAD PUSH2 0x501 DUP5 DUP3 PUSH1 0x20 DUP7 ADD PUSH2 0x415 JUMP JUMPDEST SWAP2 POP POP SWAP3 SWAP2 POP POP JUMP JUMPDEST PUSH1 0x0 DUP3 PUSH1 0x1F DUP4 ADD SLT PUSH2 0x51F JUMPI PUSH2 0x51E PUSH2 0x847 JUMP JUMPDEST JUMPDEST DUP2 CALLDATALOAD PUSH2 0x52F DUP5 DUP3 PUSH1 0x20 DUP7 ADD PUSH2 0x485 JUMP JUMPDEST SWAP2 POP POP SWAP3 SWAP2 POP POP JUMP JUMPDEST PUSH1 0x0 DUP2 CALLDATALOAD SWAP1 POP PUSH2 0x547 DUP2 PUSH2 0x888 JUMP JUMPDEST SWAP3 SWAP2 POP POP JUMP JUMPDEST PUSH1 0x0 PUSH1 0x20 DUP3 DUP5 SUB SLT ISZERO PUSH2 0x563 JUMPI PUSH2 0x562 PUSH2 0x85B JUMP JUMPDEST JUMPDEST PUSH1 0x0 PUSH2 0x571 DUP5 DUP3 DUP6 ADD PUSH2 0x4C7 JUMP JUMPDEST SWAP2 POP POP SWAP3 SWAP2 POP POP JUMP JUMPDEST PUSH1 0x0 DUP1 PUSH1 0x40 DUP4 DUP6 SUB SLT ISZERO PUSH2 0x591 JUMPI PUSH2 0x590 PUSH2 0x85B JUMP JUMPDEST JUMPDEST PUSH1 0x0 DUP4 ADD CALLDATALOAD PUSH8 0xFFFFFFFFFFFFFFFF DUP2 GT ISZERO PUSH2 0x5AF JUMPI PUSH2 0x5AE PUSH2 0x856 JUMP JUMPDEST JUMPDEST PUSH2 0x5BB DUP6 DUP3 DUP7 ADD PUSH2 0x4DC JUMP JUMPDEST SWAP3 POP POP PUSH1 0x20 DUP4 ADD CALLDATALOAD PUSH8 0xFFFFFFFFFFFFFFFF DUP2 GT ISZERO PUSH2 0x5DC JUMPI PUSH2 0x5DB PUSH2 0x856 JUMP JUMPDEST JUMPDEST PUSH2 0x5E8 DUP6 DUP3 DUP7 ADD PUSH2 0x50A JUMP JUMPDEST SWAP2 POP POP SWAP3 POP SWAP3 SWAP1 POP JUMP JUMPDEST PUSH1 0x0 PUSH2 0x5FD DUP3 PUSH2 0x6EC JUMP JUMPDEST PUSH2 0x607 DUP2 DUP6 PUSH2 0x6F7 JUMP JUMPDEST SWAP4 POP PUSH2 0x617 DUP2 DUP6 PUSH1 0x20 DUP7 ADD PUSH2 0x753 JUMP JUMPDEST PUSH2 0x620 DUP2 PUSH2 0x860 JUMP JUMPDEST DUP5 ADD SWAP2 POP POP SWAP3 SWAP2 POP POP JUMP JUMPDEST PUSH2 0x634 DUP2 PUSH2 0x73A JUMP JUMPDEST DUP3 MSTORE POP POP JUMP JUMPDEST PUSH1 0x0 PUSH1 0x40 DUP3 ADD SWAP1 POP PUSH2 0x64F PUSH1 0x0 DUP4 ADD DUP6 PUSH2 0x62B JUMP JUMPDEST DUP2 DUP2 SUB PUSH1 0x20 DUP4 ADD MSTORE PUSH2 0x661 DUP2 DUP5 PUSH2 0x5F2 JUMP JUMPDEST SWAP1 POP SWAP4 SWAP3 POP POP POP JUMP JUMPDEST PUSH1 0x0 PUSH2 0x674 PUSH2 0x685 JUMP JUMPDEST SWAP1 POP PUSH2 0x680 DUP3 DUP3 PUSH2 0x7B8 JUMP JUMPDEST SWAP2 SWAP1 POP JUMP JUMPDEST PUSH1 0x0 PUSH1 0x40 MLOAD SWAP1 POP SWAP1 JUMP JUMPDEST PUSH1 0x0 PUSH8 0xFFFFFFFFFFFFFFFF DUP3 GT ISZERO PUSH2 0x6AA JUMPI PUSH2 0x6A9 PUSH2 0x818 JUMP JUMPDEST JUMPDEST PUSH1 0x20 DUP3 MUL SWAP1 POP PUSH1 0x20 DUP2 ADD SWAP1 POP SWAP2 SWAP1 POP JUMP JUMPDEST PUSH1 0x0 PUSH8 0xFFFFFFFFFFFFFFFF DUP3 GT ISZERO PUSH2 0x6D6 JUMPI PUSH2 0x6D5 PUSH2 0x818 JUMP JUMPDEST JUMPDEST PUSH2 0x6DF DUP3 PUSH2 0x860 JUMP JUMPDEST SWAP1 POP PUSH1 0x20 DUP2 ADD SWAP1 POP SWAP2 SWAP1 POP JUMP JUMPDEST PUSH1 0x0 DUP2 MLOAD SWAP1 POP SWAP2 SWAP1 POP JUMP JUMPDEST PUSH1 0x0 DUP3 DUP3 MSTORE PUSH1 0x20 DUP3 ADD SWAP1 POP SWAP3 SWAP2 POP POP JUMP JUMPDEST PUSH1 0x0 PUSH2 0x713 DUP3 PUSH2 0x71A JUMP JUMPDEST SWAP1 POP SWAP2 SWAP1 POP JUMP JUMPDEST PUSH1 0x0 PUSH20 0xFFFFFFFFFFFFFFFFFFFFFFFFFFFFFFFFFFFFFFFF DUP3 AND SWAP1 POP SWAP2 SWAP1 POP JUMP JUMPDEST PUSH1 0x0 DUP2 SWAP1 POP SWAP2 SWAP1 POP JUMP JUMPDEST DUP3 DUP2 DUP4 CALLDATACOPY PUSH1 0x0 DUP4 DUP4 ADD MSTORE POP POP POP JUMP JUMPDEST PUSH1 0x0 JUMPDEST DUP4 DUP2 LT ISZERO PUSH2 0x771 JUMPI DUP1 DUP3 ADD MLOAD DUP2 DUP5 ADD MSTORE PUSH1 0x20 DUP2 ADD SWAP1 POP PUSH2 0x756 JUMP JUMPDEST DUP4 DUP2 GT ISZERO PUSH2 0x780 JUMPI PUSH1 0x0 DUP5 DUP5 ADD MSTORE JUMPDEST POP POP POP POP JUMP JUMPDEST PUSH1 0x0 PUSH1 0x2 DUP3 DIV SWAP1 POP PUSH1 0x1 DUP3 AND DUP1 PUSH2 0x79E JUMPI PUSH1 0x7F DUP3 AND SWAP2 POP JUMPDEST PUSH1 0x20 DUP3 LT DUP2 EQ ISZERO PUSH2 0x7B2 JUMPI PUSH2 0x7B1 PUSH2 0x7E9 JUMP JUMPDEST JUMPDEST POP SWAP2 SWAP1 POP JUMP JUMPDEST PUSH2 0x7C1 DUP3 PUSH2 0x860 JUMP JUMPDEST DUP2 ADD DUP2 DUP2 LT PUSH8 0xFFFFFFFFFFFFFFFF DUP3 GT OR ISZERO PUSH2 0x7E0 JUMPI PUSH2 0x7DF PUSH2 0x818 JUMP JUMPDEST JUMPDEST DUP1 PUSH1 0x40 MSTORE POP POP POP JUMP JUMPDEST PUSH32 0x4E487B7100000000000000000000000000000000000000000000000000000000 PUSH1 0x0 MSTORE PUSH1 0x22 PUSH1 0x4 MSTORE PUSH1 0x24 PUSH1 0x0 REVERT JUMPDEST PUSH32 0x4E487B7100000000000000000000000000000000000000000000000000000000 PUSH1 0x0 MSTORE PUSH1 0x41 PUSH1 0x4 MSTORE PUSH1 0x24 PUSH1 0x0 REVERT JUMPDEST PUSH1 0x0 DUP1 REVERT JUMPDEST PUSH1 0x0 DUP1 REVERT JUMPDEST PUSH1 0x0 DUP1 REVERT JUMPDEST PUSH1 0x0 DUP1 REVERT JUMPDEST PUSH1 0x0 DUP1 REVERT JUMPDEST PUSH1 0x0 PUSH1 0x1F NOT PUSH1 0x1F DUP4 ADD AND SWAP1 POP SWAP2 SWAP1 POP JUMP JUMPDEST PUSH2 0x87A DUP2 PUSH2 0x708 JUMP JUMPDEST DUP2 EQ PUSH2 0x885 JUMPI PUSH1 0x0 DUP1 REVERT JUMPDEST POP JUMP JUMPDEST PUSH2 0x891 DUP2 PUSH2 0x73A JUMP JUMPDEST DUP2 EQ PUSH2 0x89C JUMPI PUSH1 0x0 DUP1 REVERT JUMPDEST POP JUMP INVALID LOG2 PUSH5 0x6970667358 0x22 SLT KECCAK256 0xDA CALLVALUE SWAP13 0x5D 0xD5 0xCA PUSH10 0xC6B1F54B5303DB49638C SWAP6 SGT CALLVALUE PC 0xD2 0xC4 0xB5 0xBE 0xEF 0xF6 CREATE DELEGATECALL 0xF7 PUSH27 0xAB64736F6C63430008070033000000000000000000000000000000 "
				},
				"gasEstimates": {
					"creation": {
						"codeDepositCost": "452200",
						"executionCost": "486",
						"totalCost": "452686"
					},
					"external": {
						"examples(uint256[],string)": "infinite",
						"myStructs(address)": "infinite"
					}
				},
				"methodIdentifiers": {
					"examples(uint256[],string)": "fc277a95",
					"myStructs(address)": "b43c5d33"
				}
			},
			"storageLayout": {
				"storage": [
					{
						"astId": 11,
						"contract": "contracts/DataLocations.sol:DataLocations",
						"label": "myStructs",
						"offset": 0,
						"slot": "0",
						"type": "t_mapping(t_address,t_struct(MyStruct)6_storage)"
					}
				],
				"types": {
					"t_address": {
						"encoding": "inplace",
						"label": "address",
						"numberOfBytes": "20"
					},
					"t_mapping(t_address,t_struct(MyStruct)6_storage)": {
						"encoding": "mapping",
						"key": "t_address",
						"label": "mapping(address => struct DataLocations.MyStruct)",
						"numberOfBytes": "32",
						"value": "t_struct(MyStruct)6_storage"
					},
					"t_string_storage": {
						"encoding": "bytes",
						"label": "string",
						"numberOfBytes": "32"
					},
					"t_struct(MyStruct)6_storage": {
						"encoding": "inplace",
						"label": "struct DataLocations.MyStruct",
						"members": [
							{
								"astId": 3,
								"contract": "contracts/DataLocations.sol:DataLocations",
								"label": "foo",
								"offset": 0,
								"slot": "0",
								"type": "t_uint256"
							},
							{
								"astId": 5,
								"contract": "contracts/DataLocations.sol:DataLocations",
								"label": "text",
								"offset": 0,
								"slot": "1",
								"type": "t_string_storage"
							}
						],
						"numberOfBytes": "64"
					},
					"t_uint256": {
						"encoding": "inplace",
						"label": "uint256",
						"numberOfBytes": "32"
					}
				}
			},
			"userdoc": {
				"kind": "user",
				"methods": {},
				"version": 1
			}
		}
	}
}