{
	"contracts/EnglishAuction.sol": {
		"EnglishAuction": {
			"abi": [
				{
					"inputs": [
						{
							"internalType": "address",
							"name": "_nft",
							"type": "address"
						},
						{
							"internalType": "uint256",
							"name": "_nftId",
							"type": "uint256"
						},
						{
							"internalType": "uint256",
							"name": "_startingBid",
							"type": "uint256"
						}
					],
					"stateMutability": "nonpayable",
					"type": "constructor"
				},
				{
					"anonymous": false,
					"inputs": [],
					"name": "Start",
					"type": "event"
				},
				{
					"inputs": [],
					"name": "bid",
					"outputs": [],
					"stateMutability": "payable",
					"type": "function"
				},
				{
					"inputs": [
						{
							"internalType": "address",
							"name": "",
							"type": "address"
						}
					],
					"name": "bids",
					"outputs": [
						{
							"internalType": "uint256",
							"name": "",
							"type": "uint256"
						}
					],
					"stateMutability": "view",
					"type": "function"
				},
				{
					"inputs": [],
					"name": "endAt",
					"outputs": [
						{
							"internalType": "uint32",
							"name": "",
							"type": "uint32"
						}
					],
					"stateMutability": "view",
					"type": "function"
				},
				{
					"inputs": [],
					"name": "ended",
					"outputs": [
						{
							"internalType": "bool",
							"name": "",
							"type": "bool"
						}
					],
					"stateMutability": "view",
					"type": "function"
				},
				{
					"inputs": [],
					"name": "highestBid",
					"outputs": [
						{
							"internalType": "uint256",
							"name": "",
							"type": "uint256"
						}
					],
					"stateMutability": "view",
					"type": "function"
				},
				{
					"inputs": [],
					"name": "highestBidder",
					"outputs": [
						{
							"internalType": "address",
							"name": "",
							"type": "address"
						}
					],
					"stateMutability": "view",
					"type": "function"
				},
				{
					"inputs": [],
					"name": "nft",
					"outputs": [
						{
							"internalType": "contract IERC721",
							"name": "",
							"type": "address"
						}
					],
					"stateMutability": "view",
					"type": "function"
				},
				{
					"inputs": [],
					"name": "nftId",
					"outputs": [
						{
							"internalType": "uint256",
							"name": "",
							"type": "uint256"
						}
					],
					"stateMutability": "view",
					"type": "function"
				},
				{
					"inputs": [],
					"name": "seller",
					"outputs": [
						{
							"internalType": "address",
							"name": "",
							"type": "address"
						}
					],
					"stateMutability": "view",
					"type": "function"
				},
				{
					"inputs": [],
					"name": "start",
					"outputs": [],
					"stateMutability": "nonpayable",
					"type": "function"
				},
				{
					"inputs": [],
					"name": "started",
					"outputs": [
						{
							"internalType": "bool",
							"name": "",
							"type": "bool"
						}
					],
					"stateMutability": "view",
					"type": "function"
				}
			],
			"devdoc": {
				"kind": "dev",
				"methods": {},
				"version": 1
			},
			"evm": {
				"assembly": "    /* \"contracts/EnglishAuction.sol\":200:1493  contract EnglishAuction {... */\n  mstore(0x40, 0xe0)\n    /* \"contracts/EnglishAuction.sol\":549:779  constructor(... */\n  callvalue\n  dup1\n  iszero\n  tag_1\n  jumpi\n  0x00\n  dup1\n  revert\ntag_1:\n  pop\n  mload(0x40)\n  sub(codesize, bytecodeSize)\n  dup1\n  bytecodeSize\n  dup4\n  codecopy\n  dup2\n  dup2\n  add\n  0x40\n  mstore\n  dup2\n  add\n  swap1\n  tag_2\n  swap2\n  swap1\n  tag_3\n  jump\t// in\ntag_2:\n    /* \"contracts/EnglishAuction.sol\":666:670  _nft */\n  dup3\n    /* \"contracts/EnglishAuction.sol\":652:671  nft = IERC721(_nft) */\n  0xffffffffffffffffffffffffffffffffffffffff\n  and\n  0x80\n  dup2\n  0xffffffffffffffffffffffffffffffffffffffff\n  and\n  dup2\n  mstore\n  pop\n  pop\n    /* \"contracts/EnglishAuction.sol\":690:696  _nftId */\n  dup2\n    /* \"contracts/EnglishAuction.sol\":682:696  nftId = _nftId */\n  0xa0\n  dup2\n  dup2\n  mstore\n  pop\n  pop\n    /* \"contracts/EnglishAuction.sol\":724:734  msg.sender */\n  caller\n    /* \"contracts/EnglishAuction.sol\":707:735  seller = payable(msg.sender) */\n  0xffffffffffffffffffffffffffffffffffffffff\n  and\n  0xc0\n  dup2\n  0xffffffffffffffffffffffffffffffffffffffff\n  and\n  dup2\n  mstore\n  pop\n  pop\n    /* \"contracts/EnglishAuction.sol\":759:771  _startingBid */\n  dup1\n    /* \"contracts/EnglishAuction.sol\":746:756  highestBid */\n  0x01\n    /* \"contracts/EnglishAuction.sol\":746:771  highestBid = _startingBid */\n  dup2\n  swap1\n  sstore\n  pop\n    /* \"contracts/EnglishAuction.sol\":549:779  constructor(... */\n  pop\n  pop\n  pop\n    /* \"contracts/EnglishAuction.sol\":200:1493  contract EnglishAuction {... */\n  jump(tag_6)\n    /* \"#utility.yul\":88:205   */\ntag_8:\n    /* \"#utility.yul\":197:198   */\n  0x00\n    /* \"#utility.yul\":194:195   */\n  dup1\n    /* \"#utility.yul\":187:199   */\n  revert\n    /* \"#utility.yul\":334:460   */\ntag_10:\n    /* \"#utility.yul\":371:378   */\n  0x00\n    /* \"#utility.yul\":411:453   */\n  0xffffffffffffffffffffffffffffffffffffffff\n    /* \"#utility.yul\":404:409   */\n  dup3\n    /* \"#utility.yul\":400:454   */\n  and\n    /* \"#utility.yul\":389:454   */\n  swap1\n  pop\n    /* \"#utility.yul\":334:460   */\n  swap2\n  swap1\n  pop\n  jump\t// out\n    /* \"#utility.yul\":466:562   */\ntag_11:\n    /* \"#utility.yul\":503:510   */\n  0x00\n    /* \"#utility.yul\":532:556   */\n  tag_23\n    /* \"#utility.yul\":550:555   */\n  dup3\n    /* \"#utility.yul\":532:556   */\n  tag_10\n  jump\t// in\ntag_23:\n    /* \"#utility.yul\":521:556   */\n  swap1\n  pop\n    /* \"#utility.yul\":466:562   */\n  swap2\n  swap1\n  pop\n  jump\t// out\n    /* \"#utility.yul\":568:690   */\ntag_12:\n    /* \"#utility.yul\":641:665   */\n  tag_25\n    /* \"#utility.yul\":659:664   */\n  dup2\n    /* \"#utility.yul\":641:665   */\n  tag_11\n  jump\t// in\ntag_25:\n    /* \"#utility.yul\":634:639   */\n  dup2\n    /* \"#utility.yul\":631:666   */\n  eq\n    /* \"#utility.yul\":621:684   */\n  tag_26\n  jumpi\n    /* \"#utility.yul\":680:681   */\n  0x00\n    /* \"#utility.yul\":677:678   */\n  dup1\n    /* \"#utility.yul\":670:682   */\n  revert\n    /* \"#utility.yul\":621:684   */\ntag_26:\n    /* \"#utility.yul\":568:690   */\n  pop\n  jump\t// out\n    /* \"#utility.yul\":696:839   */\ntag_13:\n    /* \"#utility.yul\":753:758   */\n  0x00\n    /* \"#utility.yul\":784:790   */\n  dup2\n    /* \"#utility.yul\":778:791   */\n  mload\n    /* \"#utility.yul\":769:791   */\n  swap1\n  pop\n    /* \"#utility.yul\":800:833   */\n  tag_28\n    /* \"#utility.yul\":827:832   */\n  dup2\n    /* \"#utility.yul\":800:833   */\n  tag_12\n  jump\t// in\ntag_28:\n    /* \"#utility.yul\":696:839   */\n  swap3\n  swap2\n  pop\n  pop\n  jump\t// out\n    /* \"#utility.yul\":845:922   */\ntag_14:\n    /* \"#utility.yul\":882:889   */\n  0x00\n    /* \"#utility.yul\":911:916   */\n  dup2\n    /* \"#utility.yul\":900:916   */\n  swap1\n  pop\n    /* \"#utility.yul\":845:922   */\n  swap2\n  swap1\n  pop\n  jump\t// out\n    /* \"#utility.yul\":928:1050   */\ntag_15:\n    /* \"#utility.yul\":1001:1025   */\n  tag_31\n    /* \"#utility.yul\":1019:1024   */\n  dup2\n    /* \"#utility.yul\":1001:1025   */\n  tag_14\n  jump\t// in\ntag_31:\n    /* \"#utility.yul\":994:999   */\n  dup2\n    /* \"#utility.yul\":991:1026   */\n  eq\n    /* \"#utility.yul\":981:1044   */\n  tag_32\n  jumpi\n    /* \"#utility.yul\":1040:1041   */\n  0x00\n    /* \"#utility.yul\":1037:1038   */\n  dup1\n    /* \"#utility.yul\":1030:1042   */\n  revert\n    /* \"#utility.yul\":981:1044   */\ntag_32:\n    /* \"#utility.yul\":928:1050   */\n  pop\n  jump\t// out\n    /* \"#utility.yul\":1056:1199   */\ntag_16:\n    /* \"#utility.yul\":1113:1118   */\n  0x00\n    /* \"#utility.yul\":1144:1150   */\n  dup2\n    /* \"#utility.yul\":1138:1151   */\n  mload\n    /* \"#utility.yul\":1129:1151   */\n  swap1\n  pop\n    /* \"#utility.yul\":1160:1193   */\n  tag_34\n    /* \"#utility.yul\":1187:1192   */\n  dup2\n    /* \"#utility.yul\":1160:1193   */\n  tag_15\n  jump\t// in\ntag_34:\n    /* \"#utility.yul\":1056:1199   */\n  swap3\n  swap2\n  pop\n  pop\n  jump\t// out\n    /* \"#utility.yul\":1205:1868   */\ntag_3:\n    /* \"#utility.yul\":1293:1299   */\n  0x00\n    /* \"#utility.yul\":1301:1307   */\n  dup1\n    /* \"#utility.yul\":1309:1315   */\n  0x00\n    /* \"#utility.yul\":1358:1360   */\n  0x60\n    /* \"#utility.yul\":1346:1355   */\n  dup5\n    /* \"#utility.yul\":1337:1344   */\n  dup7\n    /* \"#utility.yul\":1333:1356   */\n  sub\n    /* \"#utility.yul\":1329:1361   */\n  slt\n    /* \"#utility.yul\":1326:1445   */\n  iszero\n  tag_36\n  jumpi\n    /* \"#utility.yul\":1364:1443   */\n  tag_37\n  tag_8\n  jump\t// in\ntag_37:\n    /* \"#utility.yul\":1326:1445   */\ntag_36:\n    /* \"#utility.yul\":1484:1485   */\n  0x00\n    /* \"#utility.yul\":1509:1573   */\n  tag_38\n    /* \"#utility.yul\":1565:1572   */\n  dup7\n    /* \"#utility.yul\":1556:1562   */\n  dup3\n    /* \"#utility.yul\":1545:1554   */\n  dup8\n    /* \"#utility.yul\":1541:1563   */\n  add\n    /* \"#utility.yul\":1509:1573   */\n  tag_13\n  jump\t// in\ntag_38:\n    /* \"#utility.yul\":1499:1573   */\n  swap4\n  pop\n    /* \"#utility.yul\":1455:1583   */\n  pop\n    /* \"#utility.yul\":1622:1624   */\n  0x20\n    /* \"#utility.yul\":1648:1712   */\n  tag_39\n    /* \"#utility.yul\":1704:1711   */\n  dup7\n    /* \"#utility.yul\":1695:1701   */\n  dup3\n    /* \"#utility.yul\":1684:1693   */\n  dup8\n    /* \"#utility.yul\":1680:1702   */\n  add\n    /* \"#utility.yul\":1648:1712   */\n  tag_16\n  jump\t// in\ntag_39:\n    /* \"#utility.yul\":1638:1712   */\n  swap3\n  pop\n    /* \"#utility.yul\":1593:1722   */\n  pop\n    /* \"#utility.yul\":1761:1763   */\n  0x40\n    /* \"#utility.yul\":1787:1851   */\n  tag_40\n    /* \"#utility.yul\":1843:1850   */\n  dup7\n    /* \"#utility.yul\":1834:1840   */\n  dup3\n    /* \"#utility.yul\":1823:1832   */\n  dup8\n    /* \"#utility.yul\":1819:1841   */\n  add\n    /* \"#utility.yul\":1787:1851   */\n  tag_16\n  jump\t// in\ntag_40:\n    /* \"#utility.yul\":1777:1851   */\n  swap2\n  pop\n    /* \"#utility.yul\":1732:1861   */\n  pop\n    /* \"#utility.yul\":1205:1868   */\n  swap3\n  pop\n  swap3\n  pop\n  swap3\n  jump\t// out\n    /* \"contracts/EnglishAuction.sol\":200:1493  contract EnglishAuction {... */\ntag_6:\n  mload(0x80)\n  mload(0xa0)\n  mload(0xc0)\n  codecopy(0x00, dataOffset(sub_0), dataSize(sub_0))\n  0x00\n  assignImmutable(\"0x731dc163f73d31d8c68f9917ce4ff967753939f70432973c04fd2c2a48148607\")\n  0x00\n  assignImmutable(\"0x8fef2229291b68be841adf029e58b87f39ba144b2d3b0af1760243d0a9bc6a1c\")\n  0x00\n  assignImmutable(\"0x277ab82e5a4641341820a4a2933a62c1de997e42e92548657ae21b3728d580fe\")\n  return(0x00, dataSize(sub_0))\nstop\n\nsub_0: assembly {\n        /* \"contracts/EnglishAuction.sol\":200:1493  contract EnglishAuction {... */\n      mstore(0x40, 0x80)\n      jumpi(tag_1, lt(calldatasize, 0x04))\n      shr(0xe0, calldataload(0x00))\n      dup1\n      0x62ea82db\n      gt\n      tag_13\n      jumpi\n      dup1\n      0x62ea82db\n      eq\n      tag_7\n      jumpi\n      dup1\n      0x7cc3ae8c\n      eq\n      tag_8\n      jumpi\n      dup1\n      0x91f90157\n      eq\n      tag_9\n      jumpi\n      dup1\n      0xbe9a6555\n      eq\n      tag_10\n      jumpi\n      dup1\n      0xc6bc5182\n      eq\n      tag_11\n      jumpi\n      dup1\n      0xd57bde79\n      eq\n      tag_12\n      jumpi\n      jump(tag_1)\n    tag_13:\n      dup1\n      0x08551a53\n      eq\n      tag_2\n      jumpi\n      dup1\n      0x12fa6feb\n      eq\n      tag_3\n      jumpi\n      dup1\n      0x1998aeef\n      eq\n      tag_4\n      jumpi\n      dup1\n      0x1f2698ab\n      eq\n      tag_5\n      jumpi\n      dup1\n      0x47ccca02\n      eq\n      tag_6\n      jumpi\n    tag_1:\n      0x00\n      dup1\n      revert\n        /* \"contracts/EnglishAuction.sol\":324:355  address public immutable seller */\n    tag_2:\n      callvalue\n      dup1\n      iszero\n      tag_14\n      jumpi\n      0x00\n      dup1\n      revert\n    tag_14:\n      pop\n      tag_15\n      tag_16\n      jump\t// in\n    tag_15:\n      mload(0x40)\n      tag_17\n      swap2\n      swap1\n      tag_18\n      jump\t// in\n    tag_17:\n      mload(0x40)\n      dup1\n      swap2\n      sub\n      swap1\n      return\n        /* \"contracts/EnglishAuction.sol\":414:431  bool public ended */\n    tag_3:\n      callvalue\n      dup1\n      iszero\n      tag_19\n      jumpi\n      0x00\n      dup1\n      revert\n    tag_19:\n      pop\n      tag_20\n      tag_21\n      jump\t// in\n    tag_20:\n      mload(0x40)\n      tag_22\n      swap2\n      swap1\n      tag_23\n      jump\t// in\n    tag_22:\n      mload(0x40)\n      dup1\n      swap2\n      sub\n      swap1\n      return\n        /* \"contracts/EnglishAuction.sol\":1100:1490  function bid() external payable {... */\n    tag_4:\n      tag_24\n      tag_25\n      jump\t// in\n    tag_24:\n      stop\n        /* \"contracts/EnglishAuction.sol\":388:407  bool public started */\n    tag_5:\n      callvalue\n      dup1\n      iszero\n      tag_26\n      jumpi\n      0x00\n      dup1\n      revert\n    tag_26:\n      pop\n      tag_27\n      tag_28\n      jump\t// in\n    tag_27:\n      mload(0x40)\n      tag_29\n      swap2\n      swap1\n      tag_23\n      jump\t// in\n    tag_29:\n      mload(0x40)\n      dup1\n      swap2\n      sub\n      swap1\n      return\n        /* \"contracts/EnglishAuction.sol\":253:281  IERC721 public immutable nft */\n    tag_6:\n      callvalue\n      dup1\n      iszero\n      tag_30\n      jumpi\n      0x00\n      dup1\n      revert\n    tag_30:\n      pop\n      tag_31\n      tag_32\n      jump\t// in\n    tag_31:\n      mload(0x40)\n      tag_33\n      swap2\n      swap1\n      tag_34\n      jump\t// in\n    tag_33:\n      mload(0x40)\n      dup1\n      swap2\n      sub\n      swap1\n      return\n        /* \"contracts/EnglishAuction.sol\":504:540  mapping(address => uint) public bids */\n    tag_7:\n      callvalue\n      dup1\n      iszero\n      tag_35\n      jumpi\n      0x00\n      dup1\n      revert\n    tag_35:\n      pop\n      tag_36\n      0x04\n      dup1\n      calldatasize\n      sub\n      dup2\n      add\n      swap1\n      tag_37\n      swap2\n      swap1\n      tag_38\n      jump\t// in\n    tag_37:\n      tag_39\n      jump\t// in\n    tag_36:\n      mload(0x40)\n      tag_40\n      swap2\n      swap1\n      tag_41\n      jump\t// in\n    tag_40:\n      mload(0x40)\n      dup1\n      swap2\n      sub\n      swap1\n      return\n        /* \"contracts/EnglishAuction.sol\":362:381  uint32 public endAt */\n    tag_8:\n      callvalue\n      dup1\n      iszero\n      tag_42\n      jumpi\n      0x00\n      dup1\n      revert\n    tag_42:\n      pop\n      tag_43\n      tag_44\n      jump\t// in\n    tag_43:\n      mload(0x40)\n      tag_45\n      swap2\n      swap1\n      tag_46\n      jump\t// in\n    tag_45:\n      mload(0x40)\n      dup1\n      swap2\n      sub\n      swap1\n      return\n        /* \"contracts/EnglishAuction.sol\":440:468  address public highestBidder */\n    tag_9:\n      callvalue\n      dup1\n      iszero\n      tag_47\n      jumpi\n      0x00\n      dup1\n      revert\n    tag_47:\n      pop\n      tag_48\n      tag_49\n      jump\t// in\n    tag_48:\n      mload(0x40)\n      tag_50\n      swap2\n      swap1\n      tag_18\n      jump\t// in\n    tag_50:\n      mload(0x40)\n      dup1\n      swap2\n      sub\n      swap1\n      return\n        /* \"contracts/EnglishAuction.sol\":787:1092  function start() external {... */\n    tag_10:\n      callvalue\n      dup1\n      iszero\n      tag_51\n      jumpi\n      0x00\n      dup1\n      revert\n    tag_51:\n      pop\n      tag_52\n      tag_53\n      jump\t// in\n    tag_52:\n      stop\n        /* \"contracts/EnglishAuction.sol\":288:315  uint public immutable nftId */\n    tag_11:\n      callvalue\n      dup1\n      iszero\n      tag_54\n      jumpi\n      0x00\n      dup1\n      revert\n    tag_54:\n      pop\n      tag_55\n      tag_56\n      jump\t// in\n    tag_55:\n      mload(0x40)\n      tag_57\n      swap2\n      swap1\n      tag_41\n      jump\t// in\n    tag_57:\n      mload(0x40)\n      dup1\n      swap2\n      sub\n      swap1\n      return\n        /* \"contracts/EnglishAuction.sol\":475:497  uint public highestBid */\n    tag_12:\n      callvalue\n      dup1\n      iszero\n      tag_58\n      jumpi\n      0x00\n      dup1\n      revert\n    tag_58:\n      pop\n      tag_59\n      tag_60\n      jump\t// in\n    tag_59:\n      mload(0x40)\n      tag_61\n      swap2\n      swap1\n      tag_41\n      jump\t// in\n    tag_61:\n      mload(0x40)\n      dup1\n      swap2\n      sub\n      swap1\n      return\n        /* \"contracts/EnglishAuction.sol\":324:355  address public immutable seller */\n    tag_16:\n      immutable(\"0x731dc163f73d31d8c68f9917ce4ff967753939f70432973c04fd2c2a48148607\")\n      dup2\n      jump\t// out\n        /* \"contracts/EnglishAuction.sol\":414:431  bool public ended */\n    tag_21:\n      0x00\n      0x05\n      swap1\n      sload\n      swap1\n      0x0100\n      exp\n      swap1\n      div\n      0xff\n      and\n      dup2\n      jump\t// out\n        /* \"contracts/EnglishAuction.sol\":1100:1490  function bid() external payable {... */\n    tag_25:\n        /* \"contracts/EnglishAuction.sol\":1151:1158  started */\n      0x00\n      0x04\n      swap1\n      sload\n      swap1\n      0x0100\n      exp\n      swap1\n      div\n      0xff\n      and\n        /* \"contracts/EnglishAuction.sol\":1143:1174  require(started, \"not started\") */\n      tag_63\n      jumpi\n      mload(0x40)\n      0x08c379a000000000000000000000000000000000000000000000000000000000\n      dup2\n      mstore\n      0x04\n      add\n      tag_64\n      swap1\n      tag_65\n      jump\t// in\n    tag_64:\n      mload(0x40)\n      dup1\n      swap2\n      sub\n      swap1\n      revert\n    tag_63:\n        /* \"contracts/EnglishAuction.sol\":1211:1216  endAt */\n      0x00\n      dup1\n      sload\n      swap1\n      0x0100\n      exp\n      swap1\n      div\n      0xffffffff\n      and\n        /* \"contracts/EnglishAuction.sol\":1193:1216  block.timestamp < endAt */\n      0xffffffff\n      and\n        /* \"contracts/EnglishAuction.sol\":1193:1208  block.timestamp */\n      timestamp\n        /* \"contracts/EnglishAuction.sol\":1193:1216  block.timestamp < endAt */\n      lt\n        /* \"contracts/EnglishAuction.sol\":1185:1226  require(block.timestamp < endAt, \"ended\") */\n      tag_66\n      jumpi\n      mload(0x40)\n      0x08c379a000000000000000000000000000000000000000000000000000000000\n      dup2\n      mstore\n      0x04\n      add\n      tag_67\n      swap1\n      tag_68\n      jump\t// in\n    tag_67:\n      mload(0x40)\n      dup1\n      swap2\n      sub\n      swap1\n      revert\n    tag_66:\n        /* \"contracts/EnglishAuction.sol\":1257:1267  highestBid */\n      sload(0x01)\n        /* \"contracts/EnglishAuction.sol\":1245:1254  msg.value */\n      callvalue\n        /* \"contracts/EnglishAuction.sol\":1245:1267  msg.value > highestBid */\n      gt\n        /* \"contracts/EnglishAuction.sol\":1237:1291  require(msg.value > highestBid, \"value < highest bid\") */\n      tag_69\n      jumpi\n      mload(0x40)\n      0x08c379a000000000000000000000000000000000000000000000000000000000\n      dup2\n      mstore\n      0x04\n      add\n      tag_70\n      swap1\n      tag_71\n      jump\t// in\n    tag_70:\n      mload(0x40)\n      dup1\n      swap2\n      sub\n      swap1\n      revert\n    tag_69:\n        /* \"contracts/EnglishAuction.sol\":1333:1334  0 */\n      0x00\n        /* \"contracts/EnglishAuction.sol\":1308:1335  highestBidder != address(0) */\n      0xffffffffffffffffffffffffffffffffffffffff\n      and\n        /* \"contracts/EnglishAuction.sol\":1308:1321  highestBidder */\n      0x00\n      0x06\n      swap1\n      sload\n      swap1\n      0x0100\n      exp\n      swap1\n      div\n      0xffffffffffffffffffffffffffffffffffffffff\n      and\n        /* \"contracts/EnglishAuction.sol\":1308:1335  highestBidder != address(0) */\n      0xffffffffffffffffffffffffffffffffffffffff\n      and\n      eq\n        /* \"contracts/EnglishAuction.sol\":1304:1397  if (highestBidder != address(0)) {... */\n      tag_72\n      jumpi\n        /* \"contracts/EnglishAuction.sol\":1375:1385  highestBid */\n      sload(0x01)\n        /* \"contracts/EnglishAuction.sol\":1352:1356  bids */\n      0x02\n        /* \"contracts/EnglishAuction.sol\":1352:1371  bids[highestBidder] */\n      0x00\n        /* \"contracts/EnglishAuction.sol\":1357:1370  highestBidder */\n      dup1\n      0x06\n      swap1\n      sload\n      swap1\n      0x0100\n      exp\n      swap1\n      div\n      0xffffffffffffffffffffffffffffffffffffffff\n      and\n        /* \"contracts/EnglishAuction.sol\":1352:1371  bids[highestBidder] */\n      0xffffffffffffffffffffffffffffffffffffffff\n      and\n      0xffffffffffffffffffffffffffffffffffffffff\n      and\n      dup2\n      mstore\n      0x20\n      add\n      swap1\n      dup2\n      mstore\n      0x20\n      add\n      0x00\n      keccak256\n      0x00\n        /* \"contracts/EnglishAuction.sol\":1352:1385  bids[highestBidder] += highestBid */\n      dup3\n      dup3\n      sload\n      tag_73\n      swap2\n      swap1\n      tag_74\n      jump\t// in\n    tag_73:\n      swap3\n      pop\n      pop\n      dup2\n      swap1\n      sstore\n      pop\n        /* \"contracts/EnglishAuction.sol\":1304:1397  if (highestBidder != address(0)) {... */\n    tag_72:\n        /* \"contracts/EnglishAuction.sol\":1432:1441  msg.value */\n      callvalue\n        /* \"contracts/EnglishAuction.sol\":1419:1429  highestBid */\n      0x01\n        /* \"contracts/EnglishAuction.sol\":1419:1441  highestBid = msg.value */\n      dup2\n      swap1\n      sstore\n      pop\n        /* \"contracts/EnglishAuction.sol\":1468:1478  msg.sender */\n      caller\n        /* \"contracts/EnglishAuction.sol\":1452:1465  highestBidder */\n      0x00\n      0x06\n        /* \"contracts/EnglishAuction.sol\":1452:1478  highestBidder = msg.sender */\n      0x0100\n      exp\n      dup2\n      sload\n      dup2\n      0xffffffffffffffffffffffffffffffffffffffff\n      mul\n      not\n      and\n      swap1\n      dup4\n      0xffffffffffffffffffffffffffffffffffffffff\n      and\n      mul\n      or\n      swap1\n      sstore\n      pop\n        /* \"contracts/EnglishAuction.sol\":1100:1490  function bid() external payable {... */\n      jump\t// out\n        /* \"contracts/EnglishAuction.sol\":388:407  bool public started */\n    tag_28:\n      0x00\n      0x04\n      swap1\n      sload\n      swap1\n      0x0100\n      exp\n      swap1\n      div\n      0xff\n      and\n      dup2\n      jump\t// out\n        /* \"contracts/EnglishAuction.sol\":253:281  IERC721 public immutable nft */\n    tag_32:\n      immutable(\"0x277ab82e5a4641341820a4a2933a62c1de997e42e92548657ae21b3728d580fe\")\n      dup2\n      jump\t// out\n        /* \"contracts/EnglishAuction.sol\":504:540  mapping(address => uint) public bids */\n    tag_39:\n      mstore(0x20, 0x02)\n      dup1\n      0x00\n      mstore\n      keccak256(0x00, 0x40)\n      0x00\n      swap2\n      pop\n      swap1\n      pop\n      sload\n      dup2\n      jump\t// out\n        /* \"contracts/EnglishAuction.sol\":362:381  uint32 public endAt */\n    tag_44:\n      0x00\n      dup1\n      sload\n      swap1\n      0x0100\n      exp\n      swap1\n      div\n      0xffffffff\n      and\n      dup2\n      jump\t// out\n        /* \"contracts/EnglishAuction.sol\":440:468  address public highestBidder */\n    tag_49:\n      0x00\n      0x06\n      swap1\n      sload\n      swap1\n      0x0100\n      exp\n      swap1\n      div\n      0xffffffffffffffffffffffffffffffffffffffff\n      and\n      dup2\n      jump\t// out\n        /* \"contracts/EnglishAuction.sol\":787:1092  function start() external {... */\n    tag_53:\n        /* \"contracts/EnglishAuction.sol\":846:852  seller */\n      immutable(\"0x731dc163f73d31d8c68f9917ce4ff967753939f70432973c04fd2c2a48148607\")\n        /* \"contracts/EnglishAuction.sol\":832:852  msg.sender == seller */\n      0xffffffffffffffffffffffffffffffffffffffff\n      and\n        /* \"contracts/EnglishAuction.sol\":832:842  msg.sender */\n      caller\n        /* \"contracts/EnglishAuction.sol\":832:852  msg.sender == seller */\n      0xffffffffffffffffffffffffffffffffffffffff\n      and\n      eq\n        /* \"contracts/EnglishAuction.sol\":824:867  require(msg.sender == seller, \"not seller\") */\n      tag_76\n      jumpi\n      mload(0x40)\n      0x08c379a000000000000000000000000000000000000000000000000000000000\n      dup2\n      mstore\n      0x04\n      add\n      tag_77\n      swap1\n      tag_78\n      jump\t// in\n    tag_77:\n      mload(0x40)\n      dup1\n      swap2\n      sub\n      swap1\n      revert\n    tag_76:\n        /* \"contracts/EnglishAuction.sol\":887:894  started */\n      0x00\n      0x04\n      swap1\n      sload\n      swap1\n      0x0100\n      exp\n      swap1\n      div\n      0xff\n      and\n        /* \"contracts/EnglishAuction.sol\":886:894  !started */\n      iszero\n        /* \"contracts/EnglishAuction.sol\":878:906  require(!started, \"started\") */\n      tag_79\n      jumpi\n      mload(0x40)\n      0x08c379a000000000000000000000000000000000000000000000000000000000\n      dup2\n      mstore\n      0x04\n      add\n      tag_80\n      swap1\n      tag_81\n      jump\t// in\n    tag_80:\n      mload(0x40)\n      dup1\n      swap2\n      sub\n      swap1\n      revert\n    tag_79:\n        /* \"contracts/EnglishAuction.sol\":929:933  true */\n      0x01\n        /* \"contracts/EnglishAuction.sol\":919:926  started */\n      0x00\n      0x04\n        /* \"contracts/EnglishAuction.sol\":919:933  started = true */\n      0x0100\n      exp\n      dup2\n      sload\n      dup2\n      0xff\n      mul\n      not\n      and\n      swap1\n      dup4\n      iszero\n      iszero\n      mul\n      or\n      swap1\n      sstore\n      pop\n        /* \"contracts/EnglishAuction.sol\":977:979  60 */\n      0x3c\n        /* \"contracts/EnglishAuction.sol\":959:974  block.timestamp */\n      timestamp\n        /* \"contracts/EnglishAuction.sol\":959:979  block.timestamp + 60 */\n      tag_82\n      swap2\n      swap1\n      tag_74\n      jump\t// in\n    tag_82:\n        /* \"contracts/EnglishAuction.sol\":944:949  endAt */\n      0x00\n      dup1\n        /* \"contracts/EnglishAuction.sol\":944:980  endAt = uint32(block.timestamp + 60) */\n      0x0100\n      exp\n      dup2\n      sload\n      dup2\n      0xffffffff\n      mul\n      not\n      and\n      swap1\n      dup4\n      0xffffffff\n      and\n      mul\n      or\n      swap1\n      sstore\n      pop\n        /* \"contracts/EnglishAuction.sol\":1013:1016  nft */\n      immutable(\"0x277ab82e5a4641341820a4a2933a62c1de997e42e92548657ae21b3728d580fe\")\n        /* \"contracts/EnglishAuction.sol\":1013:1029  nft.transferFrom */\n      0xffffffffffffffffffffffffffffffffffffffff\n      and\n      0x23b872dd\n        /* \"contracts/EnglishAuction.sol\":1030:1036  seller */\n      immutable(\"0x731dc163f73d31d8c68f9917ce4ff967753939f70432973c04fd2c2a48148607\")\n        /* \"contracts/EnglishAuction.sol\":1046:1050  this */\n      address\n        /* \"contracts/EnglishAuction.sol\":1053:1058  nftId */\n      immutable(\"0x8fef2229291b68be841adf029e58b87f39ba144b2d3b0af1760243d0a9bc6a1c\")\n        /* \"contracts/EnglishAuction.sol\":1013:1059  nft.transferFrom(seller, address(this), nftId) */\n      mload(0x40)\n      dup5\n      0xffffffff\n      and\n      0xe0\n      shl\n      dup2\n      mstore\n      0x04\n      add\n      tag_83\n      swap4\n      swap3\n      swap2\n      swap1\n      tag_84\n      jump\t// in\n    tag_83:\n      0x00\n      mload(0x40)\n      dup1\n      dup4\n      sub\n      dup2\n      0x00\n      dup8\n      dup1\n      extcodesize\n      iszero\n      dup1\n      iszero\n      tag_85\n      jumpi\n      0x00\n      dup1\n      revert\n    tag_85:\n      pop\n      gas\n      call\n      iszero\n      dup1\n      iszero\n      tag_87\n      jumpi\n      returndatasize\n      0x00\n      dup1\n      returndatacopy\n      revert(0x00, returndatasize)\n    tag_87:\n      pop\n      pop\n      pop\n      pop\n        /* \"contracts/EnglishAuction.sol\":1077:1084  Start() */\n      0x1b55ba3aa851a46be3b365aee5b5c140edd620d578922f3e8466d2cbd96f954b\n      mload(0x40)\n      mload(0x40)\n      dup1\n      swap2\n      sub\n      swap1\n      log1\n        /* \"contracts/EnglishAuction.sol\":787:1092  function start() external {... */\n      jump\t// out\n        /* \"contracts/EnglishAuction.sol\":288:315  uint public immutable nftId */\n    tag_56:\n      immutable(\"0x8fef2229291b68be841adf029e58b87f39ba144b2d3b0af1760243d0a9bc6a1c\")\n      dup2\n      jump\t// out\n        /* \"contracts/EnglishAuction.sol\":475:497  uint public highestBid */\n    tag_60:\n      sload(0x01)\n      dup2\n      jump\t// out\n        /* \"#utility.yul\":7:133   */\n    tag_88:\n        /* \"#utility.yul\":44:51   */\n      0x00\n        /* \"#utility.yul\":84:126   */\n      0xffffffffffffffffffffffffffffffffffffffff\n        /* \"#utility.yul\":77:82   */\n      dup3\n        /* \"#utility.yul\":73:127   */\n      and\n        /* \"#utility.yul\":62:127   */\n      swap1\n      pop\n        /* \"#utility.yul\":7:133   */\n      swap2\n      swap1\n      pop\n      jump\t// out\n        /* \"#utility.yul\":139:235   */\n    tag_89:\n        /* \"#utility.yul\":176:183   */\n      0x00\n        /* \"#utility.yul\":205:229   */\n      tag_122\n        /* \"#utility.yul\":223:228   */\n      dup3\n        /* \"#utility.yul\":205:229   */\n      tag_88\n      jump\t// in\n    tag_122:\n        /* \"#utility.yul\":194:229   */\n      swap1\n      pop\n        /* \"#utility.yul\":139:235   */\n      swap2\n      swap1\n      pop\n      jump\t// out\n        /* \"#utility.yul\":241:359   */\n    tag_90:\n        /* \"#utility.yul\":328:352   */\n      tag_124\n        /* \"#utility.yul\":346:351   */\n      dup2\n        /* \"#utility.yul\":328:352   */\n      tag_89\n      jump\t// in\n    tag_124:\n        /* \"#utility.yul\":323:326   */\n      dup3\n        /* \"#utility.yul\":316:353   */\n      mstore\n        /* \"#utility.yul\":241:359   */\n      pop\n      pop\n      jump\t// out\n        /* \"#utility.yul\":365:587   */\n    tag_18:\n        /* \"#utility.yul\":458:462   */\n      0x00\n        /* \"#utility.yul\":496:498   */\n      0x20\n        /* \"#utility.yul\":485:494   */\n      dup3\n        /* \"#utility.yul\":481:499   */\n      add\n        /* \"#utility.yul\":473:499   */\n      swap1\n      pop\n        /* \"#utility.yul\":509:580   */\n      tag_126\n        /* \"#utility.yul\":577:578   */\n      0x00\n        /* \"#utility.yul\":566:575   */\n      dup4\n        /* \"#utility.yul\":562:579   */\n      add\n        /* \"#utility.yul\":553:559   */\n      dup5\n        /* \"#utility.yul\":509:580   */\n      tag_90\n      jump\t// in\n    tag_126:\n        /* \"#utility.yul\":365:587   */\n      swap3\n      swap2\n      pop\n      pop\n      jump\t// out\n        /* \"#utility.yul\":593:683   */\n    tag_91:\n        /* \"#utility.yul\":627:634   */\n      0x00\n        /* \"#utility.yul\":670:675   */\n      dup2\n        /* \"#utility.yul\":663:676   */\n      iszero\n        /* \"#utility.yul\":656:677   */\n      iszero\n        /* \"#utility.yul\":645:677   */\n      swap1\n      pop\n        /* \"#utility.yul\":593:683   */\n      swap2\n      swap1\n      pop\n      jump\t// out\n        /* \"#utility.yul\":689:798   */\n    tag_92:\n        /* \"#utility.yul\":770:791   */\n      tag_129\n        /* \"#utility.yul\":785:790   */\n      dup2\n        /* \"#utility.yul\":770:791   */\n      tag_91\n      jump\t// in\n    tag_129:\n        /* \"#utility.yul\":765:768   */\n      dup3\n        /* \"#utility.yul\":758:792   */\n      mstore\n        /* \"#utility.yul\":689:798   */\n      pop\n      pop\n      jump\t// out\n        /* \"#utility.yul\":804:1014   */\n    tag_23:\n        /* \"#utility.yul\":891:895   */\n      0x00\n        /* \"#utility.yul\":929:931   */\n      0x20\n        /* \"#utility.yul\":918:927   */\n      dup3\n        /* \"#utility.yul\":914:932   */\n      add\n        /* \"#utility.yul\":906:932   */\n      swap1\n      pop\n        /* \"#utility.yul\":942:1007   */\n      tag_131\n        /* \"#utility.yul\":1004:1005   */\n      0x00\n        /* \"#utility.yul\":993:1002   */\n      dup4\n        /* \"#utility.yul\":989:1006   */\n      add\n        /* \"#utility.yul\":980:986   */\n      dup5\n        /* \"#utility.yul\":942:1007   */\n      tag_92\n      jump\t// in\n    tag_131:\n        /* \"#utility.yul\":804:1014   */\n      swap3\n      swap2\n      pop\n      pop\n      jump\t// out\n        /* \"#utility.yul\":1020:1080   */\n    tag_93:\n        /* \"#utility.yul\":1048:1051   */\n      0x00\n        /* \"#utility.yul\":1069:1074   */\n      dup2\n        /* \"#utility.yul\":1062:1074   */\n      swap1\n      pop\n        /* \"#utility.yul\":1020:1080   */\n      swap2\n      swap1\n      pop\n      jump\t// out\n        /* \"#utility.yul\":1086:1228   */\n    tag_94:\n        /* \"#utility.yul\":1136:1145   */\n      0x00\n        /* \"#utility.yul\":1169:1222   */\n      tag_134\n        /* \"#utility.yul\":1187:1221   */\n      tag_135\n        /* \"#utility.yul\":1196:1220   */\n      tag_136\n        /* \"#utility.yul\":1214:1219   */\n      dup5\n        /* \"#utility.yul\":1196:1220   */\n      tag_88\n      jump\t// in\n    tag_136:\n        /* \"#utility.yul\":1187:1221   */\n      tag_93\n      jump\t// in\n    tag_135:\n        /* \"#utility.yul\":1169:1222   */\n      tag_88\n      jump\t// in\n    tag_134:\n        /* \"#utility.yul\":1156:1222   */\n      swap1\n      pop\n        /* \"#utility.yul\":1086:1228   */\n      swap2\n      swap1\n      pop\n      jump\t// out\n        /* \"#utility.yul\":1234:1360   */\n    tag_95:\n        /* \"#utility.yul\":1284:1293   */\n      0x00\n        /* \"#utility.yul\":1317:1354   */\n      tag_138\n        /* \"#utility.yul\":1348:1353   */\n      dup3\n        /* \"#utility.yul\":1317:1354   */\n      tag_94\n      jump\t// in\n    tag_138:\n        /* \"#utility.yul\":1304:1354   */\n      swap1\n      pop\n        /* \"#utility.yul\":1234:1360   */\n      swap2\n      swap1\n      pop\n      jump\t// out\n        /* \"#utility.yul\":1366:1506   */\n    tag_96:\n        /* \"#utility.yul\":1430:1439   */\n      0x00\n        /* \"#utility.yul\":1463:1500   */\n      tag_140\n        /* \"#utility.yul\":1494:1499   */\n      dup3\n        /* \"#utility.yul\":1463:1500   */\n      tag_95\n      jump\t// in\n    tag_140:\n        /* \"#utility.yul\":1450:1500   */\n      swap1\n      pop\n        /* \"#utility.yul\":1366:1506   */\n      swap2\n      swap1\n      pop\n      jump\t// out\n        /* \"#utility.yul\":1512:1671   */\n    tag_97:\n        /* \"#utility.yul\":1613:1664   */\n      tag_142\n        /* \"#utility.yul\":1658:1663   */\n      dup2\n        /* \"#utility.yul\":1613:1664   */\n      tag_96\n      jump\t// in\n    tag_142:\n        /* \"#utility.yul\":1608:1611   */\n      dup3\n        /* \"#utility.yul\":1601:1665   */\n      mstore\n        /* \"#utility.yul\":1512:1671   */\n      pop\n      pop\n      jump\t// out\n        /* \"#utility.yul\":1677:1927   */\n    tag_34:\n        /* \"#utility.yul\":1784:1788   */\n      0x00\n        /* \"#utility.yul\":1822:1824   */\n      0x20\n        /* \"#utility.yul\":1811:1820   */\n      dup3\n        /* \"#utility.yul\":1807:1825   */\n      add\n        /* \"#utility.yul\":1799:1825   */\n      swap1\n      pop\n        /* \"#utility.yul\":1835:1920   */\n      tag_144\n        /* \"#utility.yul\":1917:1918   */\n      0x00\n        /* \"#utility.yul\":1906:1915   */\n      dup4\n        /* \"#utility.yul\":1902:1919   */\n      add\n        /* \"#utility.yul\":1893:1899   */\n      dup5\n        /* \"#utility.yul\":1835:1920   */\n      tag_97\n      jump\t// in\n    tag_144:\n        /* \"#utility.yul\":1677:1927   */\n      swap3\n      swap2\n      pop\n      pop\n      jump\t// out\n        /* \"#utility.yul\":2014:2131   */\n    tag_99:\n        /* \"#utility.yul\":2123:2124   */\n      0x00\n        /* \"#utility.yul\":2120:2121   */\n      dup1\n        /* \"#utility.yul\":2113:2125   */\n      revert\n        /* \"#utility.yul\":2260:2382   */\n    tag_101:\n        /* \"#utility.yul\":2333:2357   */\n      tag_149\n        /* \"#utility.yul\":2351:2356   */\n      dup2\n        /* \"#utility.yul\":2333:2357   */\n      tag_89\n      jump\t// in\n    tag_149:\n        /* \"#utility.yul\":2326:2331   */\n      dup2\n        /* \"#utility.yul\":2323:2358   */\n      eq\n        /* \"#utility.yul\":2313:2376   */\n      tag_150\n      jumpi\n        /* \"#utility.yul\":2372:2373   */\n      0x00\n        /* \"#utility.yul\":2369:2370   */\n      dup1\n        /* \"#utility.yul\":2362:2374   */\n      revert\n        /* \"#utility.yul\":2313:2376   */\n    tag_150:\n        /* \"#utility.yul\":2260:2382   */\n      pop\n      jump\t// out\n        /* \"#utility.yul\":2388:2527   */\n    tag_102:\n        /* \"#utility.yul\":2434:2439   */\n      0x00\n        /* \"#utility.yul\":2472:2478   */\n      dup2\n        /* \"#utility.yul\":2459:2479   */\n      calldataload\n        /* \"#utility.yul\":2450:2479   */\n      swap1\n      pop\n        /* \"#utility.yul\":2488:2521   */\n      tag_152\n        /* \"#utility.yul\":2515:2520   */\n      dup2\n        /* \"#utility.yul\":2488:2521   */\n      tag_101\n      jump\t// in\n    tag_152:\n        /* \"#utility.yul\":2388:2527   */\n      swap3\n      swap2\n      pop\n      pop\n      jump\t// out\n        /* \"#utility.yul\":2533:2862   */\n    tag_38:\n        /* \"#utility.yul\":2592:2598   */\n      0x00\n        /* \"#utility.yul\":2641:2643   */\n      0x20\n        /* \"#utility.yul\":2629:2638   */\n      dup3\n        /* \"#utility.yul\":2620:2627   */\n      dup5\n        /* \"#utility.yul\":2616:2639   */\n      sub\n        /* \"#utility.yul\":2612:2644   */\n      slt\n        /* \"#utility.yul\":2609:2728   */\n      iszero\n      tag_154\n      jumpi\n        /* \"#utility.yul\":2647:2726   */\n      tag_155\n      tag_99\n      jump\t// in\n    tag_155:\n        /* \"#utility.yul\":2609:2728   */\n    tag_154:\n        /* \"#utility.yul\":2767:2768   */\n      0x00\n        /* \"#utility.yul\":2792:2845   */\n      tag_156\n        /* \"#utility.yul\":2837:2844   */\n      dup5\n        /* \"#utility.yul\":2828:2834   */\n      dup3\n        /* \"#utility.yul\":2817:2826   */\n      dup6\n        /* \"#utility.yul\":2813:2835   */\n      add\n        /* \"#utility.yul\":2792:2845   */\n      tag_102\n      jump\t// in\n    tag_156:\n        /* \"#utility.yul\":2782:2845   */\n      swap2\n      pop\n        /* \"#utility.yul\":2738:2855   */\n      pop\n        /* \"#utility.yul\":2533:2862   */\n      swap3\n      swap2\n      pop\n      pop\n      jump\t// out\n        /* \"#utility.yul\":2868:2945   */\n    tag_103:\n        /* \"#utility.yul\":2905:2912   */\n      0x00\n        /* \"#utility.yul\":2934:2939   */\n      dup2\n        /* \"#utility.yul\":2923:2939   */\n      swap1\n      pop\n        /* \"#utility.yul\":2868:2945   */\n      swap2\n      swap1\n      pop\n      jump\t// out\n        /* \"#utility.yul\":2951:3069   */\n    tag_104:\n        /* \"#utility.yul\":3038:3062   */\n      tag_159\n        /* \"#utility.yul\":3056:3061   */\n      dup2\n        /* \"#utility.yul\":3038:3062   */\n      tag_103\n      jump\t// in\n    tag_159:\n        /* \"#utility.yul\":3033:3036   */\n      dup3\n        /* \"#utility.yul\":3026:3063   */\n      mstore\n        /* \"#utility.yul\":2951:3069   */\n      pop\n      pop\n      jump\t// out\n        /* \"#utility.yul\":3075:3297   */\n    tag_41:\n        /* \"#utility.yul\":3168:3172   */\n      0x00\n        /* \"#utility.yul\":3206:3208   */\n      0x20\n        /* \"#utility.yul\":3195:3204   */\n      dup3\n        /* \"#utility.yul\":3191:3209   */\n      add\n        /* \"#utility.yul\":3183:3209   */\n      swap1\n      pop\n        /* \"#utility.yul\":3219:3290   */\n      tag_161\n        /* \"#utility.yul\":3287:3288   */\n      0x00\n        /* \"#utility.yul\":3276:3285   */\n      dup4\n        /* \"#utility.yul\":3272:3289   */\n      add\n        /* \"#utility.yul\":3263:3269   */\n      dup5\n        /* \"#utility.yul\":3219:3290   */\n      tag_104\n      jump\t// in\n    tag_161:\n        /* \"#utility.yul\":3075:3297   */\n      swap3\n      swap2\n      pop\n      pop\n      jump\t// out\n        /* \"#utility.yul\":3303:3396   */\n    tag_105:\n        /* \"#utility.yul\":3339:3346   */\n      0x00\n        /* \"#utility.yul\":3379:3389   */\n      0xffffffff\n        /* \"#utility.yul\":3372:3377   */\n      dup3\n        /* \"#utility.yul\":3368:3390   */\n      and\n        /* \"#utility.yul\":3357:3390   */\n      swap1\n      pop\n        /* \"#utility.yul\":3303:3396   */\n      swap2\n      swap1\n      pop\n      jump\t// out\n        /* \"#utility.yul\":3402:3517   */\n    tag_106:\n        /* \"#utility.yul\":3487:3510   */\n      tag_164\n        /* \"#utility.yul\":3504:3509   */\n      dup2\n        /* \"#utility.yul\":3487:3510   */\n      tag_105\n      jump\t// in\n    tag_164:\n        /* \"#utility.yul\":3482:3485   */\n      dup3\n        /* \"#utility.yul\":3475:3511   */\n      mstore\n        /* \"#utility.yul\":3402:3517   */\n      pop\n      pop\n      jump\t// out\n        /* \"#utility.yul\":3523:3741   */\n    tag_46:\n        /* \"#utility.yul\":3614:3618   */\n      0x00\n        /* \"#utility.yul\":3652:3654   */\n      0x20\n        /* \"#utility.yul\":3641:3650   */\n      dup3\n        /* \"#utility.yul\":3637:3655   */\n      add\n        /* \"#utility.yul\":3629:3655   */\n      swap1\n      pop\n        /* \"#utility.yul\":3665:3734   */\n      tag_166\n        /* \"#utility.yul\":3731:3732   */\n      0x00\n        /* \"#utility.yul\":3720:3729   */\n      dup4\n        /* \"#utility.yul\":3716:3733   */\n      add\n        /* \"#utility.yul\":3707:3713   */\n      dup5\n        /* \"#utility.yul\":3665:3734   */\n      tag_106\n      jump\t// in\n    tag_166:\n        /* \"#utility.yul\":3523:3741   */\n      swap3\n      swap2\n      pop\n      pop\n      jump\t// out\n        /* \"#utility.yul\":3747:3916   */\n    tag_107:\n        /* \"#utility.yul\":3831:3842   */\n      0x00\n        /* \"#utility.yul\":3865:3871   */\n      dup3\n        /* \"#utility.yul\":3860:3863   */\n      dup3\n        /* \"#utility.yul\":3853:3872   */\n      mstore\n        /* \"#utility.yul\":3905:3909   */\n      0x20\n        /* \"#utility.yul\":3900:3903   */\n      dup3\n        /* \"#utility.yul\":3896:3910   */\n      add\n        /* \"#utility.yul\":3881:3910   */\n      swap1\n      pop\n        /* \"#utility.yul\":3747:3916   */\n      swap3\n      swap2\n      pop\n      pop\n      jump\t// out\n        /* \"#utility.yul\":3922:4083   */\n    tag_108:\n        /* \"#utility.yul\":4062:4075   */\n      0x6e6f742073746172746564000000000000000000000000000000000000000000\n        /* \"#utility.yul\":4058:4059   */\n      0x00\n        /* \"#utility.yul\":4050:4056   */\n      dup3\n        /* \"#utility.yul\":4046:4060   */\n      add\n        /* \"#utility.yul\":4039:4076   */\n      mstore\n        /* \"#utility.yul\":3922:4083   */\n      pop\n      jump\t// out\n        /* \"#utility.yul\":4089:4455   */\n    tag_109:\n        /* \"#utility.yul\":4231:4234   */\n      0x00\n        /* \"#utility.yul\":4252:4319   */\n      tag_170\n        /* \"#utility.yul\":4316:4318   */\n      0x0b\n        /* \"#utility.yul\":4311:4314   */\n      dup4\n        /* \"#utility.yul\":4252:4319   */\n      tag_107\n      jump\t// in\n    tag_170:\n        /* \"#utility.yul\":4245:4319   */\n      swap2\n      pop\n        /* \"#utility.yul\":4328:4421   */\n      tag_171\n        /* \"#utility.yul\":4417:4420   */\n      dup3\n        /* \"#utility.yul\":4328:4421   */\n      tag_108\n      jump\t// in\n    tag_171:\n        /* \"#utility.yul\":4446:4448   */\n      0x20\n        /* \"#utility.yul\":4441:4444   */\n      dup3\n        /* \"#utility.yul\":4437:4449   */\n      add\n        /* \"#utility.yul\":4430:4449   */\n      swap1\n      pop\n        /* \"#utility.yul\":4089:4455   */\n      swap2\n      swap1\n      pop\n      jump\t// out\n        /* \"#utility.yul\":4461:4880   */\n    tag_65:\n        /* \"#utility.yul\":4627:4631   */\n      0x00\n        /* \"#utility.yul\":4665:4667   */\n      0x20\n        /* \"#utility.yul\":4654:4663   */\n      dup3\n        /* \"#utility.yul\":4650:4668   */\n      add\n        /* \"#utility.yul\":4642:4668   */\n      swap1\n      pop\n        /* \"#utility.yul\":4714:4723   */\n      dup2\n        /* \"#utility.yul\":4708:4712   */\n      dup2\n        /* \"#utility.yul\":4704:4724   */\n      sub\n        /* \"#utility.yul\":4700:4701   */\n      0x00\n        /* \"#utility.yul\":4689:4698   */\n      dup4\n        /* \"#utility.yul\":4685:4702   */\n      add\n        /* \"#utility.yul\":4678:4725   */\n      mstore\n        /* \"#utility.yul\":4742:4873   */\n      tag_173\n        /* \"#utility.yul\":4868:4872   */\n      dup2\n        /* \"#utility.yul\":4742:4873   */\n      tag_109\n      jump\t// in\n    tag_173:\n        /* \"#utility.yul\":4734:4873   */\n      swap1\n      pop\n        /* \"#utility.yul\":4461:4880   */\n      swap2\n      swap1\n      pop\n      jump\t// out\n        /* \"#utility.yul\":4886:5041   */\n    tag_110:\n        /* \"#utility.yul\":5026:5033   */\n      0x656e646564000000000000000000000000000000000000000000000000000000\n        /* \"#utility.yul\":5022:5023   */\n      0x00\n        /* \"#utility.yul\":5014:5020   */\n      dup3\n        /* \"#utility.yul\":5010:5024   */\n      add\n        /* \"#utility.yul\":5003:5034   */\n      mstore\n        /* \"#utility.yul\":4886:5041   */\n      pop\n      jump\t// out\n        /* \"#utility.yul\":5047:5412   */\n    tag_111:\n        /* \"#utility.yul\":5189:5192   */\n      0x00\n        /* \"#utility.yul\":5210:5276   */\n      tag_176\n        /* \"#utility.yul\":5274:5275   */\n      0x05\n        /* \"#utility.yul\":5269:5272   */\n      dup4\n        /* \"#utility.yul\":5210:5276   */\n      tag_107\n      jump\t// in\n    tag_176:\n        /* \"#utility.yul\":5203:5276   */\n      swap2\n      pop\n        /* \"#utility.yul\":5285:5378   */\n      tag_177\n        /* \"#utility.yul\":5374:5377   */\n      dup3\n        /* \"#utility.yul\":5285:5378   */\n      tag_110\n      jump\t// in\n    tag_177:\n        /* \"#utility.yul\":5403:5405   */\n      0x20\n        /* \"#utility.yul\":5398:5401   */\n      dup3\n        /* \"#utility.yul\":5394:5406   */\n      add\n        /* \"#utility.yul\":5387:5406   */\n      swap1\n      pop\n        /* \"#utility.yul\":5047:5412   */\n      swap2\n      swap1\n      pop\n      jump\t// out\n        /* \"#utility.yul\":5418:5837   */\n    tag_68:\n        /* \"#utility.yul\":5584:5588   */\n      0x00\n        /* \"#utility.yul\":5622:5624   */\n      0x20\n        /* \"#utility.yul\":5611:5620   */\n      dup3\n        /* \"#utility.yul\":5607:5625   */\n      add\n        /* \"#utility.yul\":5599:5625   */\n      swap1\n      pop\n        /* \"#utility.yul\":5671:5680   */\n      dup2\n        /* \"#utility.yul\":5665:5669   */\n      dup2\n        /* \"#utility.yul\":5661:5681   */\n      sub\n        /* \"#utility.yul\":5657:5658   */\n      0x00\n        /* \"#utility.yul\":5646:5655   */\n      dup4\n        /* \"#utility.yul\":5642:5659   */\n      add\n        /* \"#utility.yul\":5635:5682   */\n      mstore\n        /* \"#utility.yul\":5699:5830   */\n      tag_179\n        /* \"#utility.yul\":5825:5829   */\n      dup2\n        /* \"#utility.yul\":5699:5830   */\n      tag_111\n      jump\t// in\n    tag_179:\n        /* \"#utility.yul\":5691:5830   */\n      swap1\n      pop\n        /* \"#utility.yul\":5418:5837   */\n      swap2\n      swap1\n      pop\n      jump\t// out\n        /* \"#utility.yul\":5843:6012   */\n    tag_112:\n        /* \"#utility.yul\":5983:6004   */\n      0x76616c7565203c20686967686573742062696400000000000000000000000000\n        /* \"#utility.yul\":5979:5980   */\n      0x00\n        /* \"#utility.yul\":5971:5977   */\n      dup3\n        /* \"#utility.yul\":5967:5981   */\n      add\n        /* \"#utility.yul\":5960:6005   */\n      mstore\n        /* \"#utility.yul\":5843:6012   */\n      pop\n      jump\t// out\n        /* \"#utility.yul\":6018:6384   */\n    tag_113:\n        /* \"#utility.yul\":6160:6163   */\n      0x00\n        /* \"#utility.yul\":6181:6248   */\n      tag_182\n        /* \"#utility.yul\":6245:6247   */\n      0x13\n        /* \"#utility.yul\":6240:6243   */\n      dup4\n        /* \"#utility.yul\":6181:6248   */\n      tag_107\n      jump\t// in\n    tag_182:\n        /* \"#utility.yul\":6174:6248   */\n      swap2\n      pop\n        /* \"#utility.yul\":6257:6350   */\n      tag_183\n        /* \"#utility.yul\":6346:6349   */\n      dup3\n        /* \"#utility.yul\":6257:6350   */\n      tag_112\n      jump\t// in\n    tag_183:\n        /* \"#utility.yul\":6375:6377   */\n      0x20\n        /* \"#utility.yul\":6370:6373   */\n      dup3\n        /* \"#utility.yul\":6366:6378   */\n      add\n        /* \"#utility.yul\":6359:6378   */\n      swap1\n      pop\n        /* \"#utility.yul\":6018:6384   */\n      swap2\n      swap1\n      pop\n      jump\t// out\n        /* \"#utility.yul\":6390:6809   */\n    tag_71:\n        /* \"#utility.yul\":6556:6560   */\n      0x00\n        /* \"#utility.yul\":6594:6596   */\n      0x20\n        /* \"#utility.yul\":6583:6592   */\n      dup3\n        /* \"#utility.yul\":6579:6597   */\n      add\n        /* \"#utility.yul\":6571:6597   */\n      swap1\n      pop\n        /* \"#utility.yul\":6643:6652   */\n      dup2\n        /* \"#utility.yul\":6637:6641   */\n      dup2\n        /* \"#utility.yul\":6633:6653   */\n      sub\n        /* \"#utility.yul\":6629:6630   */\n      0x00\n        /* \"#utility.yul\":6618:6627   */\n      dup4\n        /* \"#utility.yul\":6614:6631   */\n      add\n        /* \"#utility.yul\":6607:6654   */\n      mstore\n        /* \"#utility.yul\":6671:6802   */\n      tag_185\n        /* \"#utility.yul\":6797:6801   */\n      dup2\n        /* \"#utility.yul\":6671:6802   */\n      tag_113\n      jump\t// in\n    tag_185:\n        /* \"#utility.yul\":6663:6802   */\n      swap1\n      pop\n        /* \"#utility.yul\":6390:6809   */\n      swap2\n      swap1\n      pop\n      jump\t// out\n        /* \"#utility.yul\":6815:6995   */\n    tag_114:\n        /* \"#utility.yul\":6863:6940   */\n      0x4e487b7100000000000000000000000000000000000000000000000000000000\n        /* \"#utility.yul\":6860:6861   */\n      0x00\n        /* \"#utility.yul\":6853:6941   */\n      mstore\n        /* \"#utility.yul\":6960:6964   */\n      0x11\n        /* \"#utility.yul\":6957:6958   */\n      0x04\n        /* \"#utility.yul\":6950:6965   */\n      mstore\n        /* \"#utility.yul\":6984:6988   */\n      0x24\n        /* \"#utility.yul\":6981:6982   */\n      0x00\n        /* \"#utility.yul\":6974:6989   */\n      revert\n        /* \"#utility.yul\":7001:7192   */\n    tag_74:\n        /* \"#utility.yul\":7041:7044   */\n      0x00\n        /* \"#utility.yul\":7060:7080   */\n      tag_188\n        /* \"#utility.yul\":7078:7079   */\n      dup3\n        /* \"#utility.yul\":7060:7080   */\n      tag_103\n      jump\t// in\n    tag_188:\n        /* \"#utility.yul\":7055:7080   */\n      swap2\n      pop\n        /* \"#utility.yul\":7094:7114   */\n      tag_189\n        /* \"#utility.yul\":7112:7113   */\n      dup4\n        /* \"#utility.yul\":7094:7114   */\n      tag_103\n      jump\t// in\n    tag_189:\n        /* \"#utility.yul\":7089:7114   */\n      swap3\n      pop\n        /* \"#utility.yul\":7137:7138   */\n      dup3\n        /* \"#utility.yul\":7134:7135   */\n      dup3\n        /* \"#utility.yul\":7130:7139   */\n      add\n        /* \"#utility.yul\":7123:7139   */\n      swap1\n      pop\n        /* \"#utility.yul\":7158:7161   */\n      dup1\n        /* \"#utility.yul\":7155:7156   */\n      dup3\n        /* \"#utility.yul\":7152:7162   */\n      gt\n        /* \"#utility.yul\":7149:7185   */\n      iszero\n      tag_190\n      jumpi\n        /* \"#utility.yul\":7165:7183   */\n      tag_191\n      tag_114\n      jump\t// in\n    tag_191:\n        /* \"#utility.yul\":7149:7185   */\n    tag_190:\n        /* \"#utility.yul\":7001:7192   */\n      swap3\n      swap2\n      pop\n      pop\n      jump\t// out\n        /* \"#utility.yul\":7198:7358   */\n    tag_115:\n        /* \"#utility.yul\":7338:7350   */\n      0x6e6f742073656c6c657200000000000000000000000000000000000000000000\n        /* \"#utility.yul\":7334:7335   */\n      0x00\n        /* \"#utility.yul\":7326:7332   */\n      dup3\n        /* \"#utility.yul\":7322:7336   */\n      add\n        /* \"#utility.yul\":7315:7351   */\n      mstore\n        /* \"#utility.yul\":7198:7358   */\n      pop\n      jump\t// out\n        /* \"#utility.yul\":7364:7730   */\n    tag_116:\n        /* \"#utility.yul\":7506:7509   */\n      0x00\n        /* \"#utility.yul\":7527:7594   */\n      tag_194\n        /* \"#utility.yul\":7591:7593   */\n      0x0a\n        /* \"#utility.yul\":7586:7589   */\n      dup4\n        /* \"#utility.yul\":7527:7594   */\n      tag_107\n      jump\t// in\n    tag_194:\n        /* \"#utility.yul\":7520:7594   */\n      swap2\n      pop\n        /* \"#utility.yul\":7603:7696   */\n      tag_195\n        /* \"#utility.yul\":7692:7695   */\n      dup3\n        /* \"#utility.yul\":7603:7696   */\n      tag_115\n      jump\t// in\n    tag_195:\n        /* \"#utility.yul\":7721:7723   */\n      0x20\n        /* \"#utility.yul\":7716:7719   */\n      dup3\n        /* \"#utility.yul\":7712:7724   */\n      add\n        /* \"#utility.yul\":7705:7724   */\n      swap1\n      pop\n        /* \"#utility.yul\":7364:7730   */\n      swap2\n      swap1\n      pop\n      jump\t// out\n        /* \"#utility.yul\":7736:8155   */\n    tag_78:\n        /* \"#utility.yul\":7902:7906   */\n      0x00\n        /* \"#utility.yul\":7940:7942   */\n      0x20\n        /* \"#utility.yul\":7929:7938   */\n      dup3\n        /* \"#utility.yul\":7925:7943   */\n      add\n        /* \"#utility.yul\":7917:7943   */\n      swap1\n      pop\n        /* \"#utility.yul\":7989:7998   */\n      dup2\n        /* \"#utility.yul\":7983:7987   */\n      dup2\n        /* \"#utility.yul\":7979:7999   */\n      sub\n        /* \"#utility.yul\":7975:7976   */\n      0x00\n        /* \"#utility.yul\":7964:7973   */\n      dup4\n        /* \"#utility.yul\":7960:7977   */\n      add\n        /* \"#utility.yul\":7953:8000   */\n      mstore\n        /* \"#utility.yul\":8017:8148   */\n      tag_197\n        /* \"#utility.yul\":8143:8147   */\n      dup2\n        /* \"#utility.yul\":8017:8148   */\n      tag_116\n      jump\t// in\n    tag_197:\n        /* \"#utility.yul\":8009:8148   */\n      swap1\n      pop\n        /* \"#utility.yul\":7736:8155   */\n      swap2\n      swap1\n      pop\n      jump\t// out\n        /* \"#utility.yul\":8161:8318   */\n    tag_117:\n        /* \"#utility.yul\":8301:8310   */\n      0x7374617274656400000000000000000000000000000000000000000000000000\n        /* \"#utility.yul\":8297:8298   */\n      0x00\n        /* \"#utility.yul\":8289:8295   */\n      dup3\n        /* \"#utility.yul\":8285:8299   */\n      add\n        /* \"#utility.yul\":8278:8311   */\n      mstore\n        /* \"#utility.yul\":8161:8318   */\n      pop\n      jump\t// out\n        /* \"#utility.yul\":8324:8689   */\n    tag_118:\n        /* \"#utility.yul\":8466:8469   */\n      0x00\n        /* \"#utility.yul\":8487:8553   */\n      tag_200\n        /* \"#utility.yul\":8551:8552   */\n      0x07\n        /* \"#utility.yul\":8546:8549   */\n      dup4\n        /* \"#utility.yul\":8487:8553   */\n      tag_107\n      jump\t// in\n    tag_200:\n        /* \"#utility.yul\":8480:8553   */\n      swap2\n      pop\n        /* \"#utility.yul\":8562:8655   */\n      tag_201\n        /* \"#utility.yul\":8651:8654   */\n      dup3\n        /* \"#utility.yul\":8562:8655   */\n      tag_117\n      jump\t// in\n    tag_201:\n        /* \"#utility.yul\":8680:8682   */\n      0x20\n        /* \"#utility.yul\":8675:8678   */\n      dup3\n        /* \"#utility.yul\":8671:8683   */\n      add\n        /* \"#utility.yul\":8664:8683   */\n      swap1\n      pop\n        /* \"#utility.yul\":8324:8689   */\n      swap2\n      swap1\n      pop\n      jump\t// out\n        /* \"#utility.yul\":8695:9114   */\n    tag_81:\n        /* \"#utility.yul\":8861:8865   */\n      0x00\n        /* \"#utility.yul\":8899:8901   */\n      0x20\n        /* \"#utility.yul\":8888:8897   */\n      dup3\n        /* \"#utility.yul\":8884:8902   */\n      add\n        /* \"#utility.yul\":8876:8902   */\n      swap1\n      pop\n        /* \"#utility.yul\":8948:8957   */\n      dup2\n        /* \"#utility.yul\":8942:8946   */\n      dup2\n        /* \"#utility.yul\":8938:8958   */\n      sub\n        /* \"#utility.yul\":8934:8935   */\n      0x00\n        /* \"#utility.yul\":8923:8932   */\n      dup4\n        /* \"#utility.yul\":8919:8936   */\n      add\n        /* \"#utility.yul\":8912:8959   */\n      mstore\n        /* \"#utility.yul\":8976:9107   */\n      tag_203\n        /* \"#utility.yul\":9102:9106   */\n      dup2\n        /* \"#utility.yul\":8976:9107   */\n      tag_118\n      jump\t// in\n    tag_203:\n        /* \"#utility.yul\":8968:9107   */\n      swap1\n      pop\n        /* \"#utility.yul\":8695:9114   */\n      swap2\n      swap1\n      pop\n      jump\t// out\n        /* \"#utility.yul\":9120:9562   */\n    tag_84:\n        /* \"#utility.yul\":9269:9273   */\n      0x00\n        /* \"#utility.yul\":9307:9309   */\n      0x60\n        /* \"#utility.yul\":9296:9305   */\n      dup3\n        /* \"#utility.yul\":9292:9310   */\n      add\n        /* \"#utility.yul\":9284:9310   */\n      swap1\n      pop\n        /* \"#utility.yul\":9320:9391   */\n      tag_205\n        /* \"#utility.yul\":9388:9389   */\n      0x00\n        /* \"#utility.yul\":9377:9386   */\n      dup4\n        /* \"#utility.yul\":9373:9390   */\n      add\n        /* \"#utility.yul\":9364:9370   */\n      dup7\n        /* \"#utility.yul\":9320:9391   */\n      tag_90\n      jump\t// in\n    tag_205:\n        /* \"#utility.yul\":9401:9473   */\n      tag_206\n        /* \"#utility.yul\":9469:9471   */\n      0x20\n        /* \"#utility.yul\":9458:9467   */\n      dup4\n        /* \"#utility.yul\":9454:9472   */\n      add\n        /* \"#utility.yul\":9445:9451   */\n      dup6\n        /* \"#utility.yul\":9401:9473   */\n      tag_90\n      jump\t// in\n    tag_206:\n        /* \"#utility.yul\":9483:9555   */\n      tag_207\n        /* \"#utility.yul\":9551:9553   */\n      0x40\n        /* \"#utility.yul\":9540:9549   */\n      dup4\n        /* \"#utility.yul\":9536:9554   */\n      add\n        /* \"#utility.yul\":9527:9533   */\n      dup5\n        /* \"#utility.yul\":9483:9555   */\n      tag_104\n      jump\t// in\n    tag_207:\n        /* \"#utility.yul\":9120:9562   */\n      swap5\n      swap4\n      pop\n      pop\n      pop\n      pop\n      jump\t// out\n\n    auxdata: 0xa264697066735822122089783bcbbae17e3185d9d38f4ee15225f2ce717aab544789c747ad7a91b715ae64736f6c63430008110033\n}\n",
				"bytecode": {
					"linkReferences": {},
					"object": "60e06040523480156200001157600080fd5b5060405162000e4138038062000e4183398181016040528101906200003791906200015c565b8273ffffffffffffffffffffffffffffffffffffffff1660808173ffffffffffffffffffffffffffffffffffffffff16815250508160a081815250503373ffffffffffffffffffffffffffffffffffffffff1660c08173ffffffffffffffffffffffffffffffffffffffff168152505080600181905550505050620001b8565b600080fd5b600073ffffffffffffffffffffffffffffffffffffffff82169050919050565b6000620000e982620000bc565b9050919050565b620000fb81620000dc565b81146200010757600080fd5b50565b6000815190506200011b81620000f0565b92915050565b6000819050919050565b620001368162000121565b81146200014257600080fd5b50565b60008151905062000156816200012b565b92915050565b600080600060608486031215620001785762000177620000b7565b5b600062000188868287016200010a565b93505060206200019b8682870162000145565b9250506040620001ae8682870162000145565b9150509250925092565b60805160a05160c051610c3d62000204600039600081816102590152818161051e015261067f0152600081816106a101526107400152600081816104a801526106430152610c3d6000f3fe60806040526004361061009c5760003560e01c806362ea82db1161006457806362ea82db146101575780637cc3ae8c1461019457806391f90157146101bf578063be9a6555146101ea578063c6bc518214610201578063d57bde791461022c5761009c565b806308551a53146100a157806312fa6feb146100cc5780631998aeef146100f75780631f2698ab1461010157806347ccca021461012c575b600080fd5b3480156100ad57600080fd5b506100b6610257565b6040516100c391906107a9565b60405180910390f35b3480156100d857600080fd5b506100e161027b565b6040516100ee91906107df565b60405180910390f35b6100ff61028e565b005b34801561010d57600080fd5b50610116610493565b60405161012391906107df565b60405180910390f35b34801561013857600080fd5b506101416104a6565b60405161014e9190610859565b60405180910390f35b34801561016357600080fd5b5061017e600480360381019061017991906108a5565b6104ca565b60405161018b91906108eb565b60405180910390f35b3480156101a057600080fd5b506101a96104e2565b6040516101b69190610925565b60405180910390f35b3480156101cb57600080fd5b506101d46104f6565b6040516101e191906107a9565b60405180910390f35b3480156101f657600080fd5b506101ff61051c565b005b34801561020d57600080fd5b5061021661073e565b60405161022391906108eb565b60405180910390f35b34801561023857600080fd5b50610241610762565b60405161024e91906108eb565b60405180910390f35b7f000000000000000000000000000000000000000000000000000000000000000081565b600060059054906101000a900460ff1681565b600060049054906101000a900460ff166102dd576040517f08c379a00000000000000000000000000000000000000000000000000000000081526004016102d49061099d565b60405180910390fd5b60008054906101000a900463ffffffff1663ffffffff164210610335576040517f08c379a000000000000000000000000000000000000000000000000000000000815260040161032c90610a09565b60405180910390fd5b6001543411610379576040517f08c379a000000000000000000000000000000000000000000000000000000000815260040161037090610a75565b60405180910390fd5b600073ffffffffffffffffffffffffffffffffffffffff16600060069054906101000a900473ffffffffffffffffffffffffffffffffffffffff1673ffffffffffffffffffffffffffffffffffffffff161461044957600154600260008060069054906101000a900473ffffffffffffffffffffffffffffffffffffffff1673ffffffffffffffffffffffffffffffffffffffff1673ffffffffffffffffffffffffffffffffffffffff16815260200190815260200160002060008282546104419190610ac4565b925050819055505b3460018190555033600060066101000a81548173ffffffffffffffffffffffffffffffffffffffff021916908373ffffffffffffffffffffffffffffffffffffffff160217905550565b600060049054906101000a900460ff1681565b7f000000000000000000000000000000000000000000000000000000000000000081565b60026020528060005260406000206000915090505481565b60008054906101000a900463ffffffff1681565b600060069054906101000a900473ffffffffffffffffffffffffffffffffffffffff1681565b7f000000000000000000000000000000000000000000000000000000000000000073ffffffffffffffffffffffffffffffffffffffff163373ffffffffffffffffffffffffffffffffffffffff16146105aa576040517f08c379a00000000000000000000000000000000000000000000000000000000081526004016105a190610b44565b60405180910390fd5b600060049054906101000a900460ff16156105fa576040517f08c379a00000000000000000000000000000000000000000000000000000000081526004016105f190610bb0565b60405180910390fd5b6001600060046101000a81548160ff021916908315150217905550603c426106229190610ac4565b6000806101000a81548163ffffffff021916908363ffffffff1602179055507f000000000000000000000000000000000000000000000000000000000000000073ffffffffffffffffffffffffffffffffffffffff166323b872dd7f0000000000000000000000000000000000000000000000000000000000000000307f00000000000000000000000000000000000000000000000000000000000000006040518463ffffffff1660e01b81526004016106de93929190610bd0565b600060405180830381600087803b1580156106f857600080fd5b505af115801561070c573d6000803e3d6000fd5b505050507f1b55ba3aa851a46be3b365aee5b5c140edd620d578922f3e8466d2cbd96f954b60405160405180910390a1565b7f000000000000000000000000000000000000000000000000000000000000000081565b60015481565b600073ffffffffffffffffffffffffffffffffffffffff82169050919050565b600061079382610768565b9050919050565b6107a381610788565b82525050565b60006020820190506107be600083018461079a565b92915050565b60008115159050919050565b6107d9816107c4565b82525050565b60006020820190506107f460008301846107d0565b92915050565b6000819050919050565b600061081f61081a61081584610768565b6107fa565b610768565b9050919050565b600061083182610804565b9050919050565b600061084382610826565b9050919050565b61085381610838565b82525050565b600060208201905061086e600083018461084a565b92915050565b600080fd5b61088281610788565b811461088d57600080fd5b50565b60008135905061089f81610879565b92915050565b6000602082840312156108bb576108ba610874565b5b60006108c984828501610890565b91505092915050565b6000819050919050565b6108e5816108d2565b82525050565b600060208201905061090060008301846108dc565b92915050565b600063ffffffff82169050919050565b61091f81610906565b82525050565b600060208201905061093a6000830184610916565b92915050565b600082825260208201905092915050565b7f6e6f742073746172746564000000000000000000000000000000000000000000600082015250565b6000610987600b83610940565b915061099282610951565b602082019050919050565b600060208201905081810360008301526109b68161097a565b9050919050565b7f656e646564000000000000000000000000000000000000000000000000000000600082015250565b60006109f3600583610940565b91506109fe826109bd565b602082019050919050565b60006020820190508181036000830152610a22816109e6565b9050919050565b7f76616c7565203c20686967686573742062696400000000000000000000000000600082015250565b6000610a5f601383610940565b9150610a6a82610a29565b602082019050919050565b60006020820190508181036000830152610a8e81610a52565b9050919050565b7f4e487b7100000000000000000000000000000000000000000000000000000000600052601160045260246000fd5b6000610acf826108d2565b9150610ada836108d2565b9250828201905080821115610af257610af1610a95565b5b92915050565b7f6e6f742073656c6c657200000000000000000000000000000000000000000000600082015250565b6000610b2e600a83610940565b9150610b3982610af8565b602082019050919050565b60006020820190508181036000830152610b5d81610b21565b9050919050565b7f7374617274656400000000000000000000000000000000000000000000000000600082015250565b6000610b9a600783610940565b9150610ba582610b64565b602082019050919050565b60006020820190508181036000830152610bc981610b8d565b9050919050565b6000606082019050610be5600083018661079a565b610bf2602083018561079a565b610bff60408301846108dc565b94935050505056fea264697066735822122089783bcbbae17e3185d9d38f4ee15225f2ce717aab544789c747ad7a91b715ae64736f6c63430008110033",
					"opcodes": "PUSH1 0xE0 PUSH1 0x40 MSTORE CALLVALUE DUP1 ISZERO PUSH3 0x11 JUMPI PUSH1 0x0 DUP1 REVERT JUMPDEST POP PUSH1 0x40 MLOAD PUSH3 0xE41 CODESIZE SUB DUP1 PUSH3 0xE41 DUP4 CODECOPY DUP2 DUP2 ADD PUSH1 0x40 MSTORE DUP2 ADD SWAP1 PUSH3 0x37 SWAP2 SWAP1 PUSH3 0x15C JUMP JUMPDEST DUP3 PUSH20 0xFFFFFFFFFFFFFFFFFFFFFFFFFFFFFFFFFFFFFFFF AND PUSH1 0x80 DUP2 PUSH20 0xFFFFFFFFFFFFFFFFFFFFFFFFFFFFFFFFFFFFFFFF AND DUP2 MSTORE POP POP DUP2 PUSH1 0xA0 DUP2 DUP2 MSTORE POP POP CALLER PUSH20 0xFFFFFFFFFFFFFFFFFFFFFFFFFFFFFFFFFFFFFFFF AND PUSH1 0xC0 DUP2 PUSH20 0xFFFFFFFFFFFFFFFFFFFFFFFFFFFFFFFFFFFFFFFF AND DUP2 MSTORE POP POP DUP1 PUSH1 0x1 DUP2 SWAP1 SSTORE POP POP POP POP PUSH3 0x1B8 JUMP JUMPDEST PUSH1 0x0 DUP1 REVERT JUMPDEST PUSH1 0x0 PUSH20 0xFFFFFFFFFFFFFFFFFFFFFFFFFFFFFFFFFFFFFFFF DUP3 AND SWAP1 POP SWAP2 SWAP1 POP JUMP JUMPDEST PUSH1 0x0 PUSH3 0xE9 DUP3 PUSH3 0xBC JUMP JUMPDEST SWAP1 POP SWAP2 SWAP1 POP JUMP JUMPDEST PUSH3 0xFB DUP2 PUSH3 0xDC JUMP JUMPDEST DUP2 EQ PUSH3 0x107 JUMPI PUSH1 0x0 DUP1 REVERT JUMPDEST POP JUMP JUMPDEST PUSH1 0x0 DUP2 MLOAD SWAP1 POP PUSH3 0x11B DUP2 PUSH3 0xF0 JUMP JUMPDEST SWAP3 SWAP2 POP POP JUMP JUMPDEST PUSH1 0x0 DUP2 SWAP1 POP SWAP2 SWAP1 POP JUMP JUMPDEST PUSH3 0x136 DUP2 PUSH3 0x121 JUMP JUMPDEST DUP2 EQ PUSH3 0x142 JUMPI PUSH1 0x0 DUP1 REVERT JUMPDEST POP JUMP JUMPDEST PUSH1 0x0 DUP2 MLOAD SWAP1 POP PUSH3 0x156 DUP2 PUSH3 0x12B JUMP JUMPDEST SWAP3 SWAP2 POP POP JUMP JUMPDEST PUSH1 0x0 DUP1 PUSH1 0x0 PUSH1 0x60 DUP5 DUP7 SUB SLT ISZERO PUSH3 0x178 JUMPI PUSH3 0x177 PUSH3 0xB7 JUMP JUMPDEST JUMPDEST PUSH1 0x0 PUSH3 0x188 DUP7 DUP3 DUP8 ADD PUSH3 0x10A JUMP JUMPDEST SWAP4 POP POP PUSH1 0x20 PUSH3 0x19B DUP7 DUP3 DUP8 ADD PUSH3 0x145 JUMP JUMPDEST SWAP3 POP POP PUSH1 0x40 PUSH3 0x1AE DUP7 DUP3 DUP8 ADD PUSH3 0x145 JUMP JUMPDEST SWAP2 POP POP SWAP3 POP SWAP3 POP SWAP3 JUMP JUMPDEST PUSH1 0x80 MLOAD PUSH1 0xA0 MLOAD PUSH1 0xC0 MLOAD PUSH2 0xC3D PUSH3 0x204 PUSH1 0x0 CODECOPY PUSH1 0x0 DUP2 DUP2 PUSH2 0x259 ADD MSTORE DUP2 DUP2 PUSH2 0x51E ADD MSTORE PUSH2 0x67F ADD MSTORE PUSH1 0x0 DUP2 DUP2 PUSH2 0x6A1 ADD MSTORE PUSH2 0x740 ADD MSTORE PUSH1 0x0 DUP2 DUP2 PUSH2 0x4A8 ADD MSTORE PUSH2 0x643 ADD MSTORE PUSH2 0xC3D PUSH1 0x0 RETURN INVALID PUSH1 0x80 PUSH1 0x40 MSTORE PUSH1 0x4 CALLDATASIZE LT PUSH2 0x9C JUMPI PUSH1 0x0 CALLDATALOAD PUSH1 0xE0 SHR DUP1 PUSH4 0x62EA82DB GT PUSH2 0x64 JUMPI DUP1 PUSH4 0x62EA82DB EQ PUSH2 0x157 JUMPI DUP1 PUSH4 0x7CC3AE8C EQ PUSH2 0x194 JUMPI DUP1 PUSH4 0x91F90157 EQ PUSH2 0x1BF JUMPI DUP1 PUSH4 0xBE9A6555 EQ PUSH2 0x1EA JUMPI DUP1 PUSH4 0xC6BC5182 EQ PUSH2 0x201 JUMPI DUP1 PUSH4 0xD57BDE79 EQ PUSH2 0x22C JUMPI PUSH2 0x9C JUMP JUMPDEST DUP1 PUSH4 0x8551A53 EQ PUSH2 0xA1 JUMPI DUP1 PUSH4 0x12FA6FEB EQ PUSH2 0xCC JUMPI DUP1 PUSH4 0x1998AEEF EQ PUSH2 0xF7 JUMPI DUP1 PUSH4 0x1F2698AB EQ PUSH2 0x101 JUMPI DUP1 PUSH4 0x47CCCA02 EQ PUSH2 0x12C JUMPI JUMPDEST PUSH1 0x0 DUP1 REVERT JUMPDEST CALLVALUE DUP1 ISZERO PUSH2 0xAD JUMPI PUSH1 0x0 DUP1 REVERT JUMPDEST POP PUSH2 0xB6 PUSH2 0x257 JUMP JUMPDEST PUSH1 0x40 MLOAD PUSH2 0xC3 SWAP2 SWAP1 PUSH2 0x7A9 JUMP JUMPDEST PUSH1 0x40 MLOAD DUP1 SWAP2 SUB SWAP1 RETURN JUMPDEST CALLVALUE DUP1 ISZERO PUSH2 0xD8 JUMPI PUSH1 0x0 DUP1 REVERT JUMPDEST POP PUSH2 0xE1 PUSH2 0x27B JUMP JUMPDEST PUSH1 0x40 MLOAD PUSH2 0xEE SWAP2 SWAP1 PUSH2 0x7DF JUMP JUMPDEST PUSH1 0x40 MLOAD DUP1 SWAP2 SUB SWAP1 RETURN JUMPDEST PUSH2 0xFF PUSH2 0x28E JUMP JUMPDEST STOP JUMPDEST CALLVALUE DUP1 ISZERO PUSH2 0x10D JUMPI PUSH1 0x0 DUP1 REVERT JUMPDEST POP PUSH2 0x116 PUSH2 0x493 JUMP JUMPDEST PUSH1 0x40 MLOAD PUSH2 0x123 SWAP2 SWAP1 PUSH2 0x7DF JUMP JUMPDEST PUSH1 0x40 MLOAD DUP1 SWAP2 SUB SWAP1 RETURN JUMPDEST CALLVALUE DUP1 ISZERO PUSH2 0x138 JUMPI PUSH1 0x0 DUP1 REVERT JUMPDEST POP PUSH2 0x141 PUSH2 0x4A6 JUMP JUMPDEST PUSH1 0x40 MLOAD PUSH2 0x14E SWAP2 SWAP1 PUSH2 0x859 JUMP JUMPDEST PUSH1 0x40 MLOAD DUP1 SWAP2 SUB SWAP1 RETURN JUMPDEST CALLVALUE DUP1 ISZERO PUSH2 0x163 JUMPI PUSH1 0x0 DUP1 REVERT JUMPDEST POP PUSH2 0x17E PUSH1 0x4 DUP1 CALLDATASIZE SUB DUP2 ADD SWAP1 PUSH2 0x179 SWAP2 SWAP1 PUSH2 0x8A5 JUMP JUMPDEST PUSH2 0x4CA JUMP JUMPDEST PUSH1 0x40 MLOAD PUSH2 0x18B SWAP2 SWAP1 PUSH2 0x8EB JUMP JUMPDEST PUSH1 0x40 MLOAD DUP1 SWAP2 SUB SWAP1 RETURN JUMPDEST CALLVALUE DUP1 ISZERO PUSH2 0x1A0 JUMPI PUSH1 0x0 DUP1 REVERT JUMPDEST POP PUSH2 0x1A9 PUSH2 0x4E2 JUMP JUMPDEST PUSH1 0x40 MLOAD PUSH2 0x1B6 SWAP2 SWAP1 PUSH2 0x925 JUMP JUMPDEST PUSH1 0x40 MLOAD DUP1 SWAP2 SUB SWAP1 RETURN JUMPDEST CALLVALUE DUP1 ISZERO PUSH2 0x1CB JUMPI PUSH1 0x0 DUP1 REVERT JUMPDEST POP PUSH2 0x1D4 PUSH2 0x4F6 JUMP JUMPDEST PUSH1 0x40 MLOAD PUSH2 0x1E1 SWAP2 SWAP1 PUSH2 0x7A9 JUMP JUMPDEST PUSH1 0x40 MLOAD DUP1 SWAP2 SUB SWAP1 RETURN JUMPDEST CALLVALUE DUP1 ISZERO PUSH2 0x1F6 JUMPI PUSH1 0x0 DUP1 REVERT JUMPDEST POP PUSH2 0x1FF PUSH2 0x51C JUMP JUMPDEST STOP JUMPDEST CALLVALUE DUP1 ISZERO PUSH2 0x20D JUMPI PUSH1 0x0 DUP1 REVERT JUMPDEST POP PUSH2 0x216 PUSH2 0x73E JUMP JUMPDEST PUSH1 0x40 MLOAD PUSH2 0x223 SWAP2 SWAP1 PUSH2 0x8EB JUMP JUMPDEST PUSH1 0x40 MLOAD DUP1 SWAP2 SUB SWAP1 RETURN JUMPDEST CALLVALUE DUP1 ISZERO PUSH2 0x238 JUMPI PUSH1 0x0 DUP1 REVERT JUMPDEST POP PUSH2 0x241 PUSH2 0x762 JUMP JUMPDEST PUSH1 0x40 MLOAD PUSH2 0x24E SWAP2 SWAP1 PUSH2 0x8EB JUMP JUMPDEST PUSH1 0x40 MLOAD DUP1 SWAP2 SUB SWAP1 RETURN JUMPDEST PUSH32 0x0 DUP2 JUMP JUMPDEST PUSH1 0x0 PUSH1 0x5 SWAP1 SLOAD SWAP1 PUSH2 0x100 EXP SWAP1 DIV PUSH1 0xFF AND DUP2 JUMP JUMPDEST PUSH1 0x0 PUSH1 0x4 SWAP1 SLOAD SWAP1 PUSH2 0x100 EXP SWAP1 DIV PUSH1 0xFF AND PUSH2 0x2DD JUMPI PUSH1 0x40 MLOAD PUSH32 0x8C379A000000000000000000000000000000000000000000000000000000000 DUP2 MSTORE PUSH1 0x4 ADD PUSH2 0x2D4 SWAP1 PUSH2 0x99D JUMP JUMPDEST PUSH1 0x40 MLOAD DUP1 SWAP2 SUB SWAP1 REVERT JUMPDEST PUSH1 0x0 DUP1 SLOAD SWAP1 PUSH2 0x100 EXP SWAP1 DIV PUSH4 0xFFFFFFFF AND PUSH4 0xFFFFFFFF AND TIMESTAMP LT PUSH2 0x335 JUMPI PUSH1 0x40 MLOAD PUSH32 0x8C379A000000000000000000000000000000000000000000000000000000000 DUP2 MSTORE PUSH1 0x4 ADD PUSH2 0x32C SWAP1 PUSH2 0xA09 JUMP JUMPDEST PUSH1 0x40 MLOAD DUP1 SWAP2 SUB SWAP1 REVERT JUMPDEST PUSH1 0x1 SLOAD CALLVALUE GT PUSH2 0x379 JUMPI PUSH1 0x40 MLOAD PUSH32 0x8C379A000000000000000000000000000000000000000000000000000000000 DUP2 MSTORE PUSH1 0x4 ADD PUSH2 0x370 SWAP1 PUSH2 0xA75 JUMP JUMPDEST PUSH1 0x40 MLOAD DUP1 SWAP2 SUB SWAP1 REVERT JUMPDEST PUSH1 0x0 PUSH20 0xFFFFFFFFFFFFFFFFFFFFFFFFFFFFFFFFFFFFFFFF AND PUSH1 0x0 PUSH1 0x6 SWAP1 SLOAD SWAP1 PUSH2 0x100 EXP SWAP1 DIV PUSH20 0xFFFFFFFFFFFFFFFFFFFFFFFFFFFFFFFFFFFFFFFF AND PUSH20 0xFFFFFFFFFFFFFFFFFFFFFFFFFFFFFFFFFFFFFFFF AND EQ PUSH2 0x449 JUMPI PUSH1 0x1 SLOAD PUSH1 0x2 PUSH1 0x0 DUP1 PUSH1 0x6 SWAP1 SLOAD SWAP1 PUSH2 0x100 EXP SWAP1 DIV PUSH20 0xFFFFFFFFFFFFFFFFFFFFFFFFFFFFFFFFFFFFFFFF AND PUSH20 0xFFFFFFFFFFFFFFFFFFFFFFFFFFFFFFFFFFFFFFFF AND PUSH20 0xFFFFFFFFFFFFFFFFFFFFFFFFFFFFFFFFFFFFFFFF AND DUP2 MSTORE PUSH1 0x20 ADD SWAP1 DUP2 MSTORE PUSH1 0x20 ADD PUSH1 0x0 KECCAK256 PUSH1 0x0 DUP3 DUP3 SLOAD PUSH2 0x441 SWAP2 SWAP1 PUSH2 0xAC4 JUMP JUMPDEST SWAP3 POP POP DUP2 SWAP1 SSTORE POP JUMPDEST CALLVALUE PUSH1 0x1 DUP2 SWAP1 SSTORE POP CALLER PUSH1 0x0 PUSH1 0x6 PUSH2 0x100 EXP DUP2 SLOAD DUP2 PUSH20 0xFFFFFFFFFFFFFFFFFFFFFFFFFFFFFFFFFFFFFFFF MUL NOT AND SWAP1 DUP4 PUSH20 0xFFFFFFFFFFFFFFFFFFFFFFFFFFFFFFFFFFFFFFFF AND MUL OR SWAP1 SSTORE POP JUMP JUMPDEST PUSH1 0x0 PUSH1 0x4 SWAP1 SLOAD SWAP1 PUSH2 0x100 EXP SWAP1 DIV PUSH1 0xFF AND DUP2 JUMP JUMPDEST PUSH32 0x0 DUP2 JUMP JUMPDEST PUSH1 0x2 PUSH1 0x20 MSTORE DUP1 PUSH1 0x0 MSTORE PUSH1 0x40 PUSH1 0x0 KECCAK256 PUSH1 0x0 SWAP2 POP SWAP1 POP SLOAD DUP2 JUMP JUMPDEST PUSH1 0x0 DUP1 SLOAD SWAP1 PUSH2 0x100 EXP SWAP1 DIV PUSH4 0xFFFFFFFF AND DUP2 JUMP JUMPDEST PUSH1 0x0 PUSH1 0x6 SWAP1 SLOAD SWAP1 PUSH2 0x100 EXP SWAP1 DIV PUSH20 0xFFFFFFFFFFFFFFFFFFFFFFFFFFFFFFFFFFFFFFFF AND DUP2 JUMP JUMPDEST PUSH32 0x0 PUSH20 0xFFFFFFFFFFFFFFFFFFFFFFFFFFFFFFFFFFFFFFFF AND CALLER PUSH20 0xFFFFFFFFFFFFFFFFFFFFFFFFFFFFFFFFFFFFFFFF AND EQ PUSH2 0x5AA JUMPI PUSH1 0x40 MLOAD PUSH32 0x8C379A000000000000000000000000000000000000000000000000000000000 DUP2 MSTORE PUSH1 0x4 ADD PUSH2 0x5A1 SWAP1 PUSH2 0xB44 JUMP JUMPDEST PUSH1 0x40 MLOAD DUP1 SWAP2 SUB SWAP1 REVERT JUMPDEST PUSH1 0x0 PUSH1 0x4 SWAP1 SLOAD SWAP1 PUSH2 0x100 EXP SWAP1 DIV PUSH1 0xFF AND ISZERO PUSH2 0x5FA JUMPI PUSH1 0x40 MLOAD PUSH32 0x8C379A000000000000000000000000000000000000000000000000000000000 DUP2 MSTORE PUSH1 0x4 ADD PUSH2 0x5F1 SWAP1 PUSH2 0xBB0 JUMP JUMPDEST PUSH1 0x40 MLOAD DUP1 SWAP2 SUB SWAP1 REVERT JUMPDEST PUSH1 0x1 PUSH1 0x0 PUSH1 0x4 PUSH2 0x100 EXP DUP2 SLOAD DUP2 PUSH1 0xFF MUL NOT AND SWAP1 DUP4 ISZERO ISZERO MUL OR SWAP1 SSTORE POP PUSH1 0x3C TIMESTAMP PUSH2 0x622 SWAP2 SWAP1 PUSH2 0xAC4 JUMP JUMPDEST PUSH1 0x0 DUP1 PUSH2 0x100 EXP DUP2 SLOAD DUP2 PUSH4 0xFFFFFFFF MUL NOT AND SWAP1 DUP4 PUSH4 0xFFFFFFFF AND MUL OR SWAP1 SSTORE POP PUSH32 0x0 PUSH20 0xFFFFFFFFFFFFFFFFFFFFFFFFFFFFFFFFFFFFFFFF AND PUSH4 0x23B872DD PUSH32 0x0 ADDRESS PUSH32 0x0 PUSH1 0x40 MLOAD DUP5 PUSH4 0xFFFFFFFF AND PUSH1 0xE0 SHL DUP2 MSTORE PUSH1 0x4 ADD PUSH2 0x6DE SWAP4 SWAP3 SWAP2 SWAP1 PUSH2 0xBD0 JUMP JUMPDEST PUSH1 0x0 PUSH1 0x40 MLOAD DUP1 DUP4 SUB DUP2 PUSH1 0x0 DUP8 DUP1 EXTCODESIZE ISZERO DUP1 ISZERO PUSH2 0x6F8 JUMPI PUSH1 0x0 DUP1 REVERT JUMPDEST POP GAS CALL ISZERO DUP1 ISZERO PUSH2 0x70C JUMPI RETURNDATASIZE PUSH1 0x0 DUP1 RETURNDATACOPY RETURNDATASIZE PUSH1 0x0 REVERT JUMPDEST POP POP POP POP PUSH32 0x1B55BA3AA851A46BE3B365AEE5B5C140EDD620D578922F3E8466D2CBD96F954B PUSH1 0x40 MLOAD PUSH1 0x40 MLOAD DUP1 SWAP2 SUB SWAP1 LOG1 JUMP JUMPDEST PUSH32 0x0 DUP2 JUMP JUMPDEST PUSH1 0x1 SLOAD DUP2 JUMP JUMPDEST PUSH1 0x0 PUSH20 0xFFFFFFFFFFFFFFFFFFFFFFFFFFFFFFFFFFFFFFFF DUP3 AND SWAP1 POP SWAP2 SWAP1 POP JUMP JUMPDEST PUSH1 0x0 PUSH2 0x793 DUP3 PUSH2 0x768 JUMP JUMPDEST SWAP1 POP SWAP2 SWAP1 POP JUMP JUMPDEST PUSH2 0x7A3 DUP2 PUSH2 0x788 JUMP JUMPDEST DUP3 MSTORE POP POP JUMP JUMPDEST PUSH1 0x0 PUSH1 0x20 DUP3 ADD SWAP1 POP PUSH2 0x7BE PUSH1 0x0 DUP4 ADD DUP5 PUSH2 0x79A JUMP JUMPDEST SWAP3 SWAP2 POP POP JUMP JUMPDEST PUSH1 0x0 DUP2 ISZERO ISZERO SWAP1 POP SWAP2 SWAP1 POP JUMP JUMPDEST PUSH2 0x7D9 DUP2 PUSH2 0x7C4 JUMP JUMPDEST DUP3 MSTORE POP POP JUMP JUMPDEST PUSH1 0x0 PUSH1 0x20 DUP3 ADD SWAP1 POP PUSH2 0x7F4 PUSH1 0x0 DUP4 ADD DUP5 PUSH2 0x7D0 JUMP JUMPDEST SWAP3 SWAP2 POP POP JUMP JUMPDEST PUSH1 0x0 DUP2 SWAP1 POP SWAP2 SWAP1 POP JUMP JUMPDEST PUSH1 0x0 PUSH2 0x81F PUSH2 0x81A PUSH2 0x815 DUP5 PUSH2 0x768 JUMP JUMPDEST PUSH2 0x7FA JUMP JUMPDEST PUSH2 0x768 JUMP JUMPDEST SWAP1 POP SWAP2 SWAP1 POP JUMP JUMPDEST PUSH1 0x0 PUSH2 0x831 DUP3 PUSH2 0x804 JUMP JUMPDEST SWAP1 POP SWAP2 SWAP1 POP JUMP JUMPDEST PUSH1 0x0 PUSH2 0x843 DUP3 PUSH2 0x826 JUMP JUMPDEST SWAP1 POP SWAP2 SWAP1 POP JUMP JUMPDEST PUSH2 0x853 DUP2 PUSH2 0x838 JUMP JUMPDEST DUP3 MSTORE POP POP JUMP JUMPDEST PUSH1 0x0 PUSH1 0x20 DUP3 ADD SWAP1 POP PUSH2 0x86E PUSH1 0x0 DUP4 ADD DUP5 PUSH2 0x84A JUMP JUMPDEST SWAP3 SWAP2 POP POP JUMP JUMPDEST PUSH1 0x0 DUP1 REVERT JUMPDEST PUSH2 0x882 DUP2 PUSH2 0x788 JUMP JUMPDEST DUP2 EQ PUSH2 0x88D JUMPI PUSH1 0x0 DUP1 REVERT JUMPDEST POP JUMP JUMPDEST PUSH1 0x0 DUP2 CALLDATALOAD SWAP1 POP PUSH2 0x89F DUP2 PUSH2 0x879 JUMP JUMPDEST SWAP3 SWAP2 POP POP JUMP JUMPDEST PUSH1 0x0 PUSH1 0x20 DUP3 DUP5 SUB SLT ISZERO PUSH2 0x8BB JUMPI PUSH2 0x8BA PUSH2 0x874 JUMP JUMPDEST JUMPDEST PUSH1 0x0 PUSH2 0x8C9 DUP5 DUP3 DUP6 ADD PUSH2 0x890 JUMP JUMPDEST SWAP2 POP POP SWAP3 SWAP2 POP POP JUMP JUMPDEST PUSH1 0x0 DUP2 SWAP1 POP SWAP2 SWAP1 POP JUMP JUMPDEST PUSH2 0x8E5 DUP2 PUSH2 0x8D2 JUMP JUMPDEST DUP3 MSTORE POP POP JUMP JUMPDEST PUSH1 0x0 PUSH1 0x20 DUP3 ADD SWAP1 POP PUSH2 0x900 PUSH1 0x0 DUP4 ADD DUP5 PUSH2 0x8DC JUMP JUMPDEST SWAP3 SWAP2 POP POP JUMP JUMPDEST PUSH1 0x0 PUSH4 0xFFFFFFFF DUP3 AND SWAP1 POP SWAP2 SWAP1 POP JUMP JUMPDEST PUSH2 0x91F DUP2 PUSH2 0x906 JUMP JUMPDEST DUP3 MSTORE POP POP JUMP JUMPDEST PUSH1 0x0 PUSH1 0x20 DUP3 ADD SWAP1 POP PUSH2 0x93A PUSH1 0x0 DUP4 ADD DUP5 PUSH2 0x916 JUMP JUMPDEST SWAP3 SWAP2 POP POP JUMP JUMPDEST PUSH1 0x0 DUP3 DUP3 MSTORE PUSH1 0x20 DUP3 ADD SWAP1 POP SWAP3 SWAP2 POP POP JUMP JUMPDEST PUSH32 0x6E6F742073746172746564000000000000000000000000000000000000000000 PUSH1 0x0 DUP3 ADD MSTORE POP JUMP JUMPDEST PUSH1 0x0 PUSH2 0x987 PUSH1 0xB DUP4 PUSH2 0x940 JUMP JUMPDEST SWAP2 POP PUSH2 0x992 DUP3 PUSH2 0x951 JUMP JUMPDEST PUSH1 0x20 DUP3 ADD SWAP1 POP SWAP2 SWAP1 POP JUMP JUMPDEST PUSH1 0x0 PUSH1 0x20 DUP3 ADD SWAP1 POP DUP2 DUP2 SUB PUSH1 0x0 DUP4 ADD MSTORE PUSH2 0x9B6 DUP2 PUSH2 0x97A JUMP JUMPDEST SWAP1 POP SWAP2 SWAP1 POP JUMP JUMPDEST PUSH32 0x656E646564000000000000000000000000000000000000000000000000000000 PUSH1 0x0 DUP3 ADD MSTORE POP JUMP JUMPDEST PUSH1 0x0 PUSH2 0x9F3 PUSH1 0x5 DUP4 PUSH2 0x940 JUMP JUMPDEST SWAP2 POP PUSH2 0x9FE DUP3 PUSH2 0x9BD JUMP JUMPDEST PUSH1 0x20 DUP3 ADD SWAP1 POP SWAP2 SWAP1 POP JUMP JUMPDEST PUSH1 0x0 PUSH1 0x20 DUP3 ADD SWAP1 POP DUP2 DUP2 SUB PUSH1 0x0 DUP4 ADD MSTORE PUSH2 0xA22 DUP2 PUSH2 0x9E6 JUMP JUMPDEST SWAP1 POP SWAP2 SWAP1 POP JUMP JUMPDEST PUSH32 0x76616C7565203C20686967686573742062696400000000000000000000000000 PUSH1 0x0 DUP3 ADD MSTORE POP JUMP JUMPDEST PUSH1 0x0 PUSH2 0xA5F PUSH1 0x13 DUP4 PUSH2 0x940 JUMP JUMPDEST SWAP2 POP PUSH2 0xA6A DUP3 PUSH2 0xA29 JUMP JUMPDEST PUSH1 0x20 DUP3 ADD SWAP1 POP SWAP2 SWAP1 POP JUMP JUMPDEST PUSH1 0x0 PUSH1 0x20 DUP3 ADD SWAP1 POP DUP2 DUP2 SUB PUSH1 0x0 DUP4 ADD MSTORE PUSH2 0xA8E DUP2 PUSH2 0xA52 JUMP JUMPDEST SWAP1 POP SWAP2 SWAP1 POP JUMP JUMPDEST PUSH32 0x4E487B7100000000000000000000000000000000000000000000000000000000 PUSH1 0x0 MSTORE PUSH1 0x11 PUSH1 0x4 MSTORE PUSH1 0x24 PUSH1 0x0 REVERT JUMPDEST PUSH1 0x0 PUSH2 0xACF DUP3 PUSH2 0x8D2 JUMP JUMPDEST SWAP2 POP PUSH2 0xADA DUP4 PUSH2 0x8D2 JUMP JUMPDEST SWAP3 POP DUP3 DUP3 ADD SWAP1 POP DUP1 DUP3 GT ISZERO PUSH2 0xAF2 JUMPI PUSH2 0xAF1 PUSH2 0xA95 JUMP JUMPDEST JUMPDEST SWAP3 SWAP2 POP POP JUMP JUMPDEST PUSH32 0x6E6F742073656C6C657200000000000000000000000000000000000000000000 PUSH1 0x0 DUP3 ADD MSTORE POP JUMP JUMPDEST PUSH1 0x0 PUSH2 0xB2E PUSH1 0xA DUP4 PUSH2 0x940 JUMP JUMPDEST SWAP2 POP PUSH2 0xB39 DUP3 PUSH2 0xAF8 JUMP JUMPDEST PUSH1 0x20 DUP3 ADD SWAP1 POP SWAP2 SWAP1 POP JUMP JUMPDEST PUSH1 0x0 PUSH1 0x20 DUP3 ADD SWAP1 POP DUP2 DUP2 SUB PUSH1 0x0 DUP4 ADD MSTORE PUSH2 0xB5D DUP2 PUSH2 0xB21 JUMP JUMPDEST SWAP1 POP SWAP2 SWAP1 POP JUMP JUMPDEST PUSH32 0x7374617274656400000000000000000000000000000000000000000000000000 PUSH1 0x0 DUP3 ADD MSTORE POP JUMP JUMPDEST PUSH1 0x0 PUSH2 0xB9A PUSH1 0x7 DUP4 PUSH2 0x940 JUMP JUMPDEST SWAP2 POP PUSH2 0xBA5 DUP3 PUSH2 0xB64 JUMP JUMPDEST PUSH1 0x20 DUP3 ADD SWAP1 POP SWAP2 SWAP1 POP JUMP JUMPDEST PUSH1 0x0 PUSH1 0x20 DUP3 ADD SWAP1 POP DUP2 DUP2 SUB PUSH1 0x0 DUP4 ADD MSTORE PUSH2 0xBC9 DUP2 PUSH2 0xB8D JUMP JUMPDEST SWAP1 POP SWAP2 SWAP1 POP JUMP JUMPDEST PUSH1 0x0 PUSH1 0x60 DUP3 ADD SWAP1 POP PUSH2 0xBE5 PUSH1 0x0 DUP4 ADD DUP7 PUSH2 0x79A JUMP JUMPDEST PUSH2 0xBF2 PUSH1 0x20 DUP4 ADD DUP6 PUSH2 0x79A JUMP JUMPDEST PUSH2 0xBFF PUSH1 0x40 DUP4 ADD DUP5 PUSH2 0x8DC JUMP JUMPDEST SWAP5 SWAP4 POP POP POP POP JUMP INVALID LOG2 PUSH5 0x6970667358 0x22 SLT KECCAK256 DUP10 PUSH25 0x3BCBBAE17E3185D9D38F4EE15225F2CE717AAB544789C747AD PUSH27 0x91B715AE64736F6C63430008110033000000000000000000000000 "
				},
				"gasEstimates": {
					"creation": {
						"codeDepositCost": "626600",
						"executionCost": "infinite",
						"totalCost": "infinite"
					},
					"external": {
						"bid()": "infinite",
						"bids(address)": "2814",
						"endAt()": "2490",
						"ended()": "2544",
						"highestBid()": "2539",
						"highestBidder()": "2608",
						"nft()": "infinite",
						"nftId()": "infinite",
						"seller()": "infinite",
						"start()": "infinite",
						"started()": "2588"
					}
				},
				"methodIdentifiers": {
					"bid()": "1998aeef",
					"bids(address)": "62ea82db",
					"endAt()": "7cc3ae8c",
					"ended()": "12fa6feb",
					"highestBid()": "d57bde79",
					"highestBidder()": "91f90157",
					"nft()": "47ccca02",
					"nftId()": "c6bc5182",
					"seller()": "08551a53",
					"start()": "be9a6555",
					"started()": "1f2698ab"
				}
			},
			"storageLayout": {
				"storage": [
					{
						"astId": 22,
						"contract": "contracts/EnglishAuction.sol:EnglishAuction",
						"label": "endAt",
						"offset": 0,
						"slot": "0",
						"type": "t_uint32"
					},
					{
						"astId": 24,
						"contract": "contracts/EnglishAuction.sol:EnglishAuction",
						"label": "started",
						"offset": 4,
						"slot": "0",
						"type": "t_bool"
					},
					{
						"astId": 26,
						"contract": "contracts/EnglishAuction.sol:EnglishAuction",
						"label": "ended",
						"offset": 5,
						"slot": "0",
						"type": "t_bool"
					},
					{
						"astId": 28,
						"contract": "contracts/EnglishAuction.sol:EnglishAuction",
						"label": "highestBidder",
						"offset": 6,
						"slot": "0",
						"type": "t_address"
					},
					{
						"astId": 30,
						"contract": "contracts/EnglishAuction.sol:EnglishAuction",
						"label": "highestBid",
						"offset": 0,
						"slot": "1",
						"type": "t_uint256"
					},
					{
						"astId": 34,
						"contract": "contracts/EnglishAuction.sol:EnglishAuction",
						"label": "bids",
						"offset": 0,
						"slot": "2",
						"type": "t_mapping(t_address,t_uint256)"
					}
				],
				"types": {
					"t_address": {
						"encoding": "inplace",
						"label": "address",
						"numberOfBytes": "20"
					},
					"t_bool": {
						"encoding": "inplace",
						"label": "bool",
						"numberOfBytes": "1"
					},
					"t_mapping(t_address,t_uint256)": {
						"encoding": "mapping",
						"key": "t_address",
						"label": "mapping(address => uint256)",
						"numberOfBytes": "32",
						"value": "t_uint256"
					},
					"t_uint256": {
						"encoding": "inplace",
						"label": "uint256",
						"numberOfBytes": "32"
					},
					"t_uint32": {
						"encoding": "inplace",
						"label": "uint32",
						"numberOfBytes": "4"
					}
				}
			},
			"userdoc": {
				"kind": "user",
				"methods": {},
				"version": 1
			}
		}
	}
}