{
	"contracts/ParentFunctions.sol": {
		"G": {
			"abi": [
				{
					"anonymous": false,
					"inputs": [
						{
							"indexed": false,
							"internalType": "string",
							"name": "message",
							"type": "string"
						}
					],
					"name": "Log",
					"type": "event"
				},
				{
					"inputs": [],
					"name": "bar",
					"outputs": [],
					"stateMutability": "nonpayable",
					"type": "function"
				},
				{
					"inputs": [],
					"name": "foo",
					"outputs": [],
					"stateMutability": "nonpayable",
					"type": "function"
				}
			],
			"devdoc": {
				"kind": "dev",
				"methods": {},
				"version": 1
			},
			"evm": {
				"assembly": "    /* \"contracts/ParentFunctions.sol\":549:774  contract G is E {\r... */\n  mstore(0x40, 0x80)\n  callvalue\n  dup1\n  iszero\n  tag_1\n  jumpi\n  0x00\n  dup1\n  revert\ntag_1:\n  pop\n  dataSize(sub_0)\n  dup1\n  dataOffset(sub_0)\n  0x00\n  codecopy\n  0x00\n  return\nstop\n\nsub_0: assembly {\n        /* \"contracts/ParentFunctions.sol\":549:774  contract G is E {\r... */\n      mstore(0x40, 0x80)\n      callvalue\n      dup1\n      iszero\n      tag_1\n      jumpi\n      0x00\n      dup1\n      revert\n    tag_1:\n      pop\n      jumpi(tag_2, lt(calldatasize, 0x04))\n      shr(0xe0, calldataload(0x00))\n      dup1\n      0xc2985578\n      eq\n      tag_3\n      jumpi\n      dup1\n      0xfebb0f7e\n      eq\n      tag_4\n      jumpi\n    tag_2:\n      0x00\n      dup1\n      revert\n        /* \"contracts/ParentFunctions.sol\":572:666  function foo() public virtual override {\r... */\n    tag_3:\n      tag_5\n      tag_6\n      jump\t// in\n    tag_5:\n      stop\n        /* \"contracts/ParentFunctions.sol\":674:771  function bar() public virtual override {\r... */\n    tag_4:\n      tag_7\n      tag_8\n      jump\t// in\n    tag_7:\n      stop\n        /* \"contracts/ParentFunctions.sol\":572:666  function foo() public virtual override {\r... */\n    tag_6:\n        /* \"contracts/ParentFunctions.sol\":628:639  Log(\".foo\") */\n      0xcf34ef537ac33ee1ac626ca1587a0a7e8e51561e5514f8cb36afa1c5102b3bab\n      mload(0x40)\n      tag_10\n      swap1\n      tag_11\n      jump\t// in\n    tag_10:\n      mload(0x40)\n      dup1\n      swap2\n      sub\n      swap1\n      log1\n        /* \"contracts/ParentFunctions.sol\":651:658  E.foo() */\n      tag_12\n        /* \"contracts/ParentFunctions.sol\":651:656  E.foo */\n      tag_13\n        /* \"contracts/ParentFunctions.sol\":651:658  E.foo() */\n      jump\t// in\n    tag_12:\n        /* \"contracts/ParentFunctions.sol\":572:666  function foo() public virtual override {\r... */\n      jump\t// out\n        /* \"contracts/ParentFunctions.sol\":674:771  function bar() public virtual override {\r... */\n    tag_8:\n        /* \"contracts/ParentFunctions.sol\":729:741  Log(\"F.bar\") */\n      0xcf34ef537ac33ee1ac626ca1587a0a7e8e51561e5514f8cb36afa1c5102b3bab\n      mload(0x40)\n      tag_15\n      swap1\n      tag_16\n      jump\t// in\n    tag_15:\n      mload(0x40)\n      dup1\n      swap2\n      sub\n      swap1\n      log1\n        /* \"contracts/ParentFunctions.sol\":752:763  super.bar() */\n      tag_17\n        /* \"contracts/ParentFunctions.sol\":752:761  super.bar */\n      tag_18\n        /* \"contracts/ParentFunctions.sol\":752:763  super.bar() */\n      jump\t// in\n    tag_17:\n        /* \"contracts/ParentFunctions.sol\":674:771  function bar() public virtual override {\r... */\n      jump\t// out\n        /* \"contracts/ParentFunctions.sol\":170:236  function foo() public virtual {\r... */\n    tag_13:\n        /* \"contracts/ParentFunctions.sol\":216:228  Log(\"E.foo\") */\n      0xcf34ef537ac33ee1ac626ca1587a0a7e8e51561e5514f8cb36afa1c5102b3bab\n      mload(0x40)\n      tag_20\n      swap1\n      tag_21\n      jump\t// in\n    tag_20:\n      mload(0x40)\n      dup1\n      swap2\n      sub\n      swap1\n      log1\n        /* \"contracts/ParentFunctions.sol\":170:236  function foo() public virtual {\r... */\n      jump\t// out\n        /* \"contracts/ParentFunctions.sol\":244:310  function bar() public virtual {\r... */\n    tag_18:\n        /* \"contracts/ParentFunctions.sol\":290:302  Log(\"E.bar\") */\n      0xcf34ef537ac33ee1ac626ca1587a0a7e8e51561e5514f8cb36afa1c5102b3bab\n      mload(0x40)\n      tag_23\n      swap1\n      tag_24\n      jump\t// in\n    tag_23:\n      mload(0x40)\n      dup1\n      swap2\n      sub\n      swap1\n      log1\n        /* \"contracts/ParentFunctions.sol\":244:310  function bar() public virtual {\r... */\n      jump\t// out\n        /* \"#utility.yul\":7:372   */\n    tag_26:\n        /* \"#utility.yul\":149:152   */\n      0x00\n        /* \"#utility.yul\":170:236   */\n      tag_28\n        /* \"#utility.yul\":234:235   */\n      0x05\n        /* \"#utility.yul\":229:232   */\n      dup4\n        /* \"#utility.yul\":170:236   */\n      tag_29\n      jump\t// in\n    tag_28:\n        /* \"#utility.yul\":163:236   */\n      swap2\n      pop\n        /* \"#utility.yul\":245:338   */\n      tag_30\n        /* \"#utility.yul\":334:337   */\n      dup3\n        /* \"#utility.yul\":245:338   */\n      tag_31\n      jump\t// in\n    tag_30:\n        /* \"#utility.yul\":363:365   */\n      0x20\n        /* \"#utility.yul\":358:361   */\n      dup3\n        /* \"#utility.yul\":354:366   */\n      add\n        /* \"#utility.yul\":347:366   */\n      swap1\n      pop\n        /* \"#utility.yul\":7:372   */\n      swap2\n      swap1\n      pop\n      jump\t// out\n        /* \"#utility.yul\":378:743   */\n    tag_32:\n        /* \"#utility.yul\":520:523   */\n      0x00\n        /* \"#utility.yul\":541:607   */\n      tag_34\n        /* \"#utility.yul\":605:606   */\n      0x05\n        /* \"#utility.yul\":600:603   */\n      dup4\n        /* \"#utility.yul\":541:607   */\n      tag_29\n      jump\t// in\n    tag_34:\n        /* \"#utility.yul\":534:607   */\n      swap2\n      pop\n        /* \"#utility.yul\":616:709   */\n      tag_35\n        /* \"#utility.yul\":705:708   */\n      dup3\n        /* \"#utility.yul\":616:709   */\n      tag_36\n      jump\t// in\n    tag_35:\n        /* \"#utility.yul\":734:736   */\n      0x20\n        /* \"#utility.yul\":729:732   */\n      dup3\n        /* \"#utility.yul\":725:737   */\n      add\n        /* \"#utility.yul\":718:737   */\n      swap1\n      pop\n        /* \"#utility.yul\":378:743   */\n      swap2\n      swap1\n      pop\n      jump\t// out\n        /* \"#utility.yul\":749:1114   */\n    tag_37:\n        /* \"#utility.yul\":891:894   */\n      0x00\n        /* \"#utility.yul\":912:978   */\n      tag_39\n        /* \"#utility.yul\":976:977   */\n      0x04\n        /* \"#utility.yul\":971:974   */\n      dup4\n        /* \"#utility.yul\":912:978   */\n      tag_29\n      jump\t// in\n    tag_39:\n        /* \"#utility.yul\":905:978   */\n      swap2\n      pop\n        /* \"#utility.yul\":987:1080   */\n      tag_40\n        /* \"#utility.yul\":1076:1079   */\n      dup3\n        /* \"#utility.yul\":987:1080   */\n      tag_41\n      jump\t// in\n    tag_40:\n        /* \"#utility.yul\":1105:1107   */\n      0x20\n        /* \"#utility.yul\":1100:1103   */\n      dup3\n        /* \"#utility.yul\":1096:1108   */\n      add\n        /* \"#utility.yul\":1089:1108   */\n      swap1\n      pop\n        /* \"#utility.yul\":749:1114   */\n      swap2\n      swap1\n      pop\n      jump\t// out\n        /* \"#utility.yul\":1120:1485   */\n    tag_42:\n        /* \"#utility.yul\":1262:1265   */\n      0x00\n        /* \"#utility.yul\":1283:1349   */\n      tag_44\n        /* \"#utility.yul\":1347:1348   */\n      0x05\n        /* \"#utility.yul\":1342:1345   */\n      dup4\n        /* \"#utility.yul\":1283:1349   */\n      tag_29\n      jump\t// in\n    tag_44:\n        /* \"#utility.yul\":1276:1349   */\n      swap2\n      pop\n        /* \"#utility.yul\":1358:1451   */\n      tag_45\n        /* \"#utility.yul\":1447:1450   */\n      dup3\n        /* \"#utility.yul\":1358:1451   */\n      tag_46\n      jump\t// in\n    tag_45:\n        /* \"#utility.yul\":1476:1478   */\n      0x20\n        /* \"#utility.yul\":1471:1474   */\n      dup3\n        /* \"#utility.yul\":1467:1479   */\n      add\n        /* \"#utility.yul\":1460:1479   */\n      swap1\n      pop\n        /* \"#utility.yul\":1120:1485   */\n      swap2\n      swap1\n      pop\n      jump\t// out\n        /* \"#utility.yul\":1491:1910   */\n    tag_16:\n        /* \"#utility.yul\":1657:1661   */\n      0x00\n        /* \"#utility.yul\":1695:1697   */\n      0x20\n        /* \"#utility.yul\":1684:1693   */\n      dup3\n        /* \"#utility.yul\":1680:1698   */\n      add\n        /* \"#utility.yul\":1672:1698   */\n      swap1\n      pop\n        /* \"#utility.yul\":1744:1753   */\n      dup2\n        /* \"#utility.yul\":1738:1742   */\n      dup2\n        /* \"#utility.yul\":1734:1754   */\n      sub\n        /* \"#utility.yul\":1730:1731   */\n      0x00\n        /* \"#utility.yul\":1719:1728   */\n      dup4\n        /* \"#utility.yul\":1715:1732   */\n      add\n        /* \"#utility.yul\":1708:1755   */\n      mstore\n        /* \"#utility.yul\":1772:1903   */\n      tag_48\n        /* \"#utility.yul\":1898:1902   */\n      dup2\n        /* \"#utility.yul\":1772:1903   */\n      tag_26\n      jump\t// in\n    tag_48:\n        /* \"#utility.yul\":1764:1903   */\n      swap1\n      pop\n        /* \"#utility.yul\":1491:1910   */\n      swap2\n      swap1\n      pop\n      jump\t// out\n        /* \"#utility.yul\":1916:2335   */\n    tag_21:\n        /* \"#utility.yul\":2082:2086   */\n      0x00\n        /* \"#utility.yul\":2120:2122   */\n      0x20\n        /* \"#utility.yul\":2109:2118   */\n      dup3\n        /* \"#utility.yul\":2105:2123   */\n      add\n        /* \"#utility.yul\":2097:2123   */\n      swap1\n      pop\n        /* \"#utility.yul\":2169:2178   */\n      dup2\n        /* \"#utility.yul\":2163:2167   */\n      dup2\n        /* \"#utility.yul\":2159:2179   */\n      sub\n        /* \"#utility.yul\":2155:2156   */\n      0x00\n        /* \"#utility.yul\":2144:2153   */\n      dup4\n        /* \"#utility.yul\":2140:2157   */\n      add\n        /* \"#utility.yul\":2133:2180   */\n      mstore\n        /* \"#utility.yul\":2197:2328   */\n      tag_50\n        /* \"#utility.yul\":2323:2327   */\n      dup2\n        /* \"#utility.yul\":2197:2328   */\n      tag_32\n      jump\t// in\n    tag_50:\n        /* \"#utility.yul\":2189:2328   */\n      swap1\n      pop\n        /* \"#utility.yul\":1916:2335   */\n      swap2\n      swap1\n      pop\n      jump\t// out\n        /* \"#utility.yul\":2341:2760   */\n    tag_11:\n        /* \"#utility.yul\":2507:2511   */\n      0x00\n        /* \"#utility.yul\":2545:2547   */\n      0x20\n        /* \"#utility.yul\":2534:2543   */\n      dup3\n        /* \"#utility.yul\":2530:2548   */\n      add\n        /* \"#utility.yul\":2522:2548   */\n      swap1\n      pop\n        /* \"#utility.yul\":2594:2603   */\n      dup2\n        /* \"#utility.yul\":2588:2592   */\n      dup2\n        /* \"#utility.yul\":2584:2604   */\n      sub\n        /* \"#utility.yul\":2580:2581   */\n      0x00\n        /* \"#utility.yul\":2569:2578   */\n      dup4\n        /* \"#utility.yul\":2565:2582   */\n      add\n        /* \"#utility.yul\":2558:2605   */\n      mstore\n        /* \"#utility.yul\":2622:2753   */\n      tag_52\n        /* \"#utility.yul\":2748:2752   */\n      dup2\n        /* \"#utility.yul\":2622:2753   */\n      tag_37\n      jump\t// in\n    tag_52:\n        /* \"#utility.yul\":2614:2753   */\n      swap1\n      pop\n        /* \"#utility.yul\":2341:2760   */\n      swap2\n      swap1\n      pop\n      jump\t// out\n        /* \"#utility.yul\":2766:3185   */\n    tag_24:\n        /* \"#utility.yul\":2932:2936   */\n      0x00\n        /* \"#utility.yul\":2970:2972   */\n      0x20\n        /* \"#utility.yul\":2959:2968   */\n      dup3\n        /* \"#utility.yul\":2955:2973   */\n      add\n        /* \"#utility.yul\":2947:2973   */\n      swap1\n      pop\n        /* \"#utility.yul\":3019:3028   */\n      dup2\n        /* \"#utility.yul\":3013:3017   */\n      dup2\n        /* \"#utility.yul\":3009:3029   */\n      sub\n        /* \"#utility.yul\":3005:3006   */\n      0x00\n        /* \"#utility.yul\":2994:3003   */\n      dup4\n        /* \"#utility.yul\":2990:3007   */\n      add\n        /* \"#utility.yul\":2983:3030   */\n      mstore\n        /* \"#utility.yul\":3047:3178   */\n      tag_54\n        /* \"#utility.yul\":3173:3177   */\n      dup2\n        /* \"#utility.yul\":3047:3178   */\n      tag_42\n      jump\t// in\n    tag_54:\n        /* \"#utility.yul\":3039:3178   */\n      swap1\n      pop\n        /* \"#utility.yul\":2766:3185   */\n      swap2\n      swap1\n      pop\n      jump\t// out\n        /* \"#utility.yul\":3191:3360   */\n    tag_29:\n        /* \"#utility.yul\":3275:3286   */\n      0x00\n        /* \"#utility.yul\":3309:3315   */\n      dup3\n        /* \"#utility.yul\":3304:3307   */\n      dup3\n        /* \"#utility.yul\":3297:3316   */\n      mstore\n        /* \"#utility.yul\":3349:3353   */\n      0x20\n        /* \"#utility.yul\":3344:3347   */\n      dup3\n        /* \"#utility.yul\":3340:3354   */\n      add\n        /* \"#utility.yul\":3325:3354   */\n      swap1\n      pop\n        /* \"#utility.yul\":3191:3360   */\n      swap3\n      swap2\n      pop\n      pop\n      jump\t// out\n        /* \"#utility.yul\":3366:3521   */\n    tag_31:\n        /* \"#utility.yul\":3506:3513   */\n      0x462e626172000000000000000000000000000000000000000000000000000000\n        /* \"#utility.yul\":3502:3503   */\n      0x00\n        /* \"#utility.yul\":3494:3500   */\n      dup3\n        /* \"#utility.yul\":3490:3504   */\n      add\n        /* \"#utility.yul\":3483:3514   */\n      mstore\n        /* \"#utility.yul\":3366:3521   */\n      pop\n      jump\t// out\n        /* \"#utility.yul\":3527:3682   */\n    tag_36:\n        /* \"#utility.yul\":3667:3674   */\n      0x452e666f6f000000000000000000000000000000000000000000000000000000\n        /* \"#utility.yul\":3663:3664   */\n      0x00\n        /* \"#utility.yul\":3655:3661   */\n      dup3\n        /* \"#utility.yul\":3651:3665   */\n      add\n        /* \"#utility.yul\":3644:3675   */\n      mstore\n        /* \"#utility.yul\":3527:3682   */\n      pop\n      jump\t// out\n        /* \"#utility.yul\":3688:3842   */\n    tag_41:\n        /* \"#utility.yul\":3828:3834   */\n      0x2e666f6f00000000000000000000000000000000000000000000000000000000\n        /* \"#utility.yul\":3824:3825   */\n      0x00\n        /* \"#utility.yul\":3816:3822   */\n      dup3\n        /* \"#utility.yul\":3812:3826   */\n      add\n        /* \"#utility.yul\":3805:3835   */\n      mstore\n        /* \"#utility.yul\":3688:3842   */\n      pop\n      jump\t// out\n        /* \"#utility.yul\":3848:4003   */\n    tag_46:\n        /* \"#utility.yul\":3988:3995   */\n      0x452e626172000000000000000000000000000000000000000000000000000000\n        /* \"#utility.yul\":3984:3985   */\n      0x00\n        /* \"#utility.yul\":3976:3982   */\n      dup3\n        /* \"#utility.yul\":3972:3986   */\n      add\n        /* \"#utility.yul\":3965:3996   */\n      mstore\n        /* \"#utility.yul\":3848:4003   */\n      pop\n      jump\t// out\n\n    auxdata: 0xa26469706673582212200d6f1331753f8bf2543c172dad66c8dd299e6292f7edd7eace72c2bc0518fa3164736f6c63430008070033\n}\n",
				"bytecode": {
					"linkReferences": {},
					"object": "608060405234801561001057600080fd5b50610332806100206000396000f3fe608060405234801561001057600080fd5b50600436106100365760003560e01c8063c29855781461003b578063febb0f7e14610045575b600080fd5b61004361004f565b005b61004d61008e565b005b7fcf34ef537ac33ee1ac626ca1587a0a7e8e51561e5514f8cb36afa1c5102b3bab60405161007c90610207565b60405180910390a161008c6100cd565b565b7fcf34ef537ac33ee1ac626ca1587a0a7e8e51561e5514f8cb36afa1c5102b3bab6040516100bb906101c7565b60405180910390a16100cb610104565b565b7fcf34ef537ac33ee1ac626ca1587a0a7e8e51561e5514f8cb36afa1c5102b3bab6040516100fa906101e7565b60405180910390a1565b7fcf34ef537ac33ee1ac626ca1587a0a7e8e51561e5514f8cb36afa1c5102b3bab60405161013190610227565b60405180910390a1565b6000610148600583610247565b915061015382610258565b602082019050919050565b600061016b600583610247565b915061017682610281565b602082019050919050565b600061018e600483610247565b9150610199826102aa565b602082019050919050565b60006101b1600583610247565b91506101bc826102d3565b602082019050919050565b600060208201905081810360008301526101e08161013b565b9050919050565b600060208201905081810360008301526102008161015e565b9050919050565b6000602082019050818103600083015261022081610181565b9050919050565b60006020820190508181036000830152610240816101a4565b9050919050565b600082825260208201905092915050565b7f462e626172000000000000000000000000000000000000000000000000000000600082015250565b7f452e666f6f000000000000000000000000000000000000000000000000000000600082015250565b7f2e666f6f00000000000000000000000000000000000000000000000000000000600082015250565b7f452e62617200000000000000000000000000000000000000000000000000000060008201525056fea26469706673582212200d6f1331753f8bf2543c172dad66c8dd299e6292f7edd7eace72c2bc0518fa3164736f6c63430008070033",
					"opcodes": "PUSH1 0x80 PUSH1 0x40 MSTORE CALLVALUE DUP1 ISZERO PUSH2 0x10 JUMPI PUSH1 0x0 DUP1 REVERT JUMPDEST POP PUSH2 0x332 DUP1 PUSH2 0x20 PUSH1 0x0 CODECOPY PUSH1 0x0 RETURN INVALID PUSH1 0x80 PUSH1 0x40 MSTORE CALLVALUE DUP1 ISZERO PUSH2 0x10 JUMPI PUSH1 0x0 DUP1 REVERT JUMPDEST POP PUSH1 0x4 CALLDATASIZE LT PUSH2 0x36 JUMPI PUSH1 0x0 CALLDATALOAD PUSH1 0xE0 SHR DUP1 PUSH4 0xC2985578 EQ PUSH2 0x3B JUMPI DUP1 PUSH4 0xFEBB0F7E EQ PUSH2 0x45 JUMPI JUMPDEST PUSH1 0x0 DUP1 REVERT JUMPDEST PUSH2 0x43 PUSH2 0x4F JUMP JUMPDEST STOP JUMPDEST PUSH2 0x4D PUSH2 0x8E JUMP JUMPDEST STOP JUMPDEST PUSH32 0xCF34EF537AC33EE1AC626CA1587A0A7E8E51561E5514F8CB36AFA1C5102B3BAB PUSH1 0x40 MLOAD PUSH2 0x7C SWAP1 PUSH2 0x207 JUMP JUMPDEST PUSH1 0x40 MLOAD DUP1 SWAP2 SUB SWAP1 LOG1 PUSH2 0x8C PUSH2 0xCD JUMP JUMPDEST JUMP JUMPDEST PUSH32 0xCF34EF537AC33EE1AC626CA1587A0A7E8E51561E5514F8CB36AFA1C5102B3BAB PUSH1 0x40 MLOAD PUSH2 0xBB SWAP1 PUSH2 0x1C7 JUMP JUMPDEST PUSH1 0x40 MLOAD DUP1 SWAP2 SUB SWAP1 LOG1 PUSH2 0xCB PUSH2 0x104 JUMP JUMPDEST JUMP JUMPDEST PUSH32 0xCF34EF537AC33EE1AC626CA1587A0A7E8E51561E5514F8CB36AFA1C5102B3BAB PUSH1 0x40 MLOAD PUSH2 0xFA SWAP1 PUSH2 0x1E7 JUMP JUMPDEST PUSH1 0x40 MLOAD DUP1 SWAP2 SUB SWAP1 LOG1 JUMP JUMPDEST PUSH32 0xCF34EF537AC33EE1AC626CA1587A0A7E8E51561E5514F8CB36AFA1C5102B3BAB PUSH1 0x40 MLOAD PUSH2 0x131 SWAP1 PUSH2 0x227 JUMP JUMPDEST PUSH1 0x40 MLOAD DUP1 SWAP2 SUB SWAP1 LOG1 JUMP JUMPDEST PUSH1 0x0 PUSH2 0x148 PUSH1 0x5 DUP4 PUSH2 0x247 JUMP JUMPDEST SWAP2 POP PUSH2 0x153 DUP3 PUSH2 0x258 JUMP JUMPDEST PUSH1 0x20 DUP3 ADD SWAP1 POP SWAP2 SWAP1 POP JUMP JUMPDEST PUSH1 0x0 PUSH2 0x16B PUSH1 0x5 DUP4 PUSH2 0x247 JUMP JUMPDEST SWAP2 POP PUSH2 0x176 DUP3 PUSH2 0x281 JUMP JUMPDEST PUSH1 0x20 DUP3 ADD SWAP1 POP SWAP2 SWAP1 POP JUMP JUMPDEST PUSH1 0x0 PUSH2 0x18E PUSH1 0x4 DUP4 PUSH2 0x247 JUMP JUMPDEST SWAP2 POP PUSH2 0x199 DUP3 PUSH2 0x2AA JUMP JUMPDEST PUSH1 0x20 DUP3 ADD SWAP1 POP SWAP2 SWAP1 POP JUMP JUMPDEST PUSH1 0x0 PUSH2 0x1B1 PUSH1 0x5 DUP4 PUSH2 0x247 JUMP JUMPDEST SWAP2 POP PUSH2 0x1BC DUP3 PUSH2 0x2D3 JUMP JUMPDEST PUSH1 0x20 DUP3 ADD SWAP1 POP SWAP2 SWAP1 POP JUMP JUMPDEST PUSH1 0x0 PUSH1 0x20 DUP3 ADD SWAP1 POP DUP2 DUP2 SUB PUSH1 0x0 DUP4 ADD MSTORE PUSH2 0x1E0 DUP2 PUSH2 0x13B JUMP JUMPDEST SWAP1 POP SWAP2 SWAP1 POP JUMP JUMPDEST PUSH1 0x0 PUSH1 0x20 DUP3 ADD SWAP1 POP DUP2 DUP2 SUB PUSH1 0x0 DUP4 ADD MSTORE PUSH2 0x200 DUP2 PUSH2 0x15E JUMP JUMPDEST SWAP1 POP SWAP2 SWAP1 POP JUMP JUMPDEST PUSH1 0x0 PUSH1 0x20 DUP3 ADD SWAP1 POP DUP2 DUP2 SUB PUSH1 0x0 DUP4 ADD MSTORE PUSH2 0x220 DUP2 PUSH2 0x181 JUMP JUMPDEST SWAP1 POP SWAP2 SWAP1 POP JUMP JUMPDEST PUSH1 0x0 PUSH1 0x20 DUP3 ADD SWAP1 POP DUP2 DUP2 SUB PUSH1 0x0 DUP4 ADD MSTORE PUSH2 0x240 DUP2 PUSH2 0x1A4 JUMP JUMPDEST SWAP1 POP SWAP2 SWAP1 POP JUMP JUMPDEST PUSH1 0x0 DUP3 DUP3 MSTORE PUSH1 0x20 DUP3 ADD SWAP1 POP SWAP3 SWAP2 POP POP JUMP JUMPDEST PUSH32 0x462E626172000000000000000000000000000000000000000000000000000000 PUSH1 0x0 DUP3 ADD MSTORE POP JUMP JUMPDEST PUSH32 0x452E666F6F000000000000000000000000000000000000000000000000000000 PUSH1 0x0 DUP3 ADD MSTORE POP JUMP JUMPDEST PUSH32 0x2E666F6F00000000000000000000000000000000000000000000000000000000 PUSH1 0x0 DUP3 ADD MSTORE POP JUMP JUMPDEST PUSH32 0x452E626172000000000000000000000000000000000000000000000000000000 PUSH1 0x0 DUP3 ADD MSTORE POP JUMP INVALID LOG2 PUSH5 0x6970667358 0x22 SLT KECCAK256 0xD PUSH16 0x1331753F8BF2543C172DAD66C8DD299E PUSH3 0x92F7ED 0xD7 0xEA 0xCE PUSH19 0xC2BC0518FA3164736F6C634300080700330000 "
				},
				"gasEstimates": {
					"creation": {
						"codeDepositCost": "163600",
						"executionCost": "208",
						"totalCost": "163808"
					},
					"external": {
						"bar()": "infinite",
						"foo()": "infinite"
					}
				},
				"methodIdentifiers": {
					"bar()": "febb0f7e",
					"foo()": "c2985578"
				}
			},
			"storageLayout": {
				"storage": [],
				"types": null
			},
			"userdoc": {
				"kind": "user",
				"methods": {},
				"version": 1
			}
		}
	}
}