{
	"contracts/EnglishAuction.sol": {
		"EnglishAuction": {
			"abi": [
				{
					"inputs": [
						{
							"internalType": "address",
							"name": "_nft",
							"type": "address"
						},
						{
							"internalType": "uint256",
							"name": "_nftId",
							"type": "uint256"
						},
						{
							"internalType": "uint256",
							"name": "_startingBid",
							"type": "uint256"
						}
					],
					"stateMutability": "nonpayable",
					"type": "constructor"
				},
				{
					"anonymous": false,
					"inputs": [
						{
							"indexed": true,
							"internalType": "address",
							"name": "sender",
							"type": "address"
						},
						{
							"indexed": false,
							"internalType": "uint256",
							"name": "amount",
							"type": "uint256"
						}
					],
					"name": "Bid",
					"type": "event"
				},
				{
					"anonymous": false,
					"inputs": [],
					"name": "Start",
					"type": "event"
				},
				{
					"inputs": [],
					"name": "bid",
					"outputs": [],
					"stateMutability": "payable",
					"type": "function"
				},
				{
					"inputs": [
						{
							"internalType": "address",
							"name": "",
							"type": "address"
						}
					],
					"name": "bids",
					"outputs": [
						{
							"internalType": "uint256",
							"name": "",
							"type": "uint256"
						}
					],
					"stateMutability": "view",
					"type": "function"
				},
				{
					"inputs": [],
					"name": "endAt",
					"outputs": [
						{
							"internalType": "uint32",
							"name": "",
							"type": "uint32"
						}
					],
					"stateMutability": "view",
					"type": "function"
				},
				{
					"inputs": [],
					"name": "ended",
					"outputs": [
						{
							"internalType": "bool",
							"name": "",
							"type": "bool"
						}
					],
					"stateMutability": "view",
					"type": "function"
				},
				{
					"inputs": [],
					"name": "highestBid",
					"outputs": [
						{
							"internalType": "uint256",
							"name": "",
							"type": "uint256"
						}
					],
					"stateMutability": "view",
					"type": "function"
				},
				{
					"inputs": [],
					"name": "highestBidder",
					"outputs": [
						{
							"internalType": "address",
							"name": "",
							"type": "address"
						}
					],
					"stateMutability": "view",
					"type": "function"
				},
				{
					"inputs": [],
					"name": "nft",
					"outputs": [
						{
							"internalType": "contract IERC721",
							"name": "",
							"type": "address"
						}
					],
					"stateMutability": "view",
					"type": "function"
				},
				{
					"inputs": [],
					"name": "nftId",
					"outputs": [
						{
							"internalType": "uint256",
							"name": "",
							"type": "uint256"
						}
					],
					"stateMutability": "view",
					"type": "function"
				},
				{
					"inputs": [],
					"name": "seller",
					"outputs": [
						{
							"internalType": "address",
							"name": "",
							"type": "address"
						}
					],
					"stateMutability": "view",
					"type": "function"
				},
				{
					"inputs": [],
					"name": "start",
					"outputs": [],
					"stateMutability": "nonpayable",
					"type": "function"
				},
				{
					"inputs": [],
					"name": "started",
					"outputs": [
						{
							"internalType": "bool",
							"name": "",
							"type": "bool"
						}
					],
					"stateMutability": "view",
					"type": "function"
				},
				{
					"inputs": [],
					"name": "withdraw",
					"outputs": [],
					"stateMutability": "nonpayable",
					"type": "function"
				}
			],
			"devdoc": {
				"kind": "dev",
				"methods": {},
				"version": 1
			},
			"evm": {
				"assembly": "    /* \"contracts/EnglishAuction.sol\":200:1712  contract EnglishAuction {... */\n  mstore(0x40, 0xe0)\n    /* \"contracts/EnglishAuction.sol\":604:834  constructor(... */\n  callvalue\n  dup1\n  iszero\n  tag_1\n  jumpi\n  0x00\n  dup1\n  revert\ntag_1:\n  pop\n  mload(0x40)\n  sub(codesize, bytecodeSize)\n  dup1\n  bytecodeSize\n  dup4\n  codecopy\n  dup2\n  dup2\n  add\n  0x40\n  mstore\n  dup2\n  add\n  swap1\n  tag_2\n  swap2\n  swap1\n  tag_3\n  jump\t// in\ntag_2:\n    /* \"contracts/EnglishAuction.sol\":721:725  _nft */\n  dup3\n    /* \"contracts/EnglishAuction.sol\":707:726  nft = IERC721(_nft) */\n  0xffffffffffffffffffffffffffffffffffffffff\n  and\n  0x80\n  dup2\n  0xffffffffffffffffffffffffffffffffffffffff\n  and\n  dup2\n  mstore\n  pop\n  pop\n    /* \"contracts/EnglishAuction.sol\":745:751  _nftId */\n  dup2\n    /* \"contracts/EnglishAuction.sol\":737:751  nftId = _nftId */\n  0xa0\n  dup2\n  dup2\n  mstore\n  pop\n  pop\n    /* \"contracts/EnglishAuction.sol\":779:789  msg.sender */\n  caller\n    /* \"contracts/EnglishAuction.sol\":762:790  seller = payable(msg.sender) */\n  0xffffffffffffffffffffffffffffffffffffffff\n  and\n  0xc0\n  dup2\n  0xffffffffffffffffffffffffffffffffffffffff\n  and\n  dup2\n  mstore\n  pop\n  pop\n    /* \"contracts/EnglishAuction.sol\":814:826  _startingBid */\n  dup1\n    /* \"contracts/EnglishAuction.sol\":801:811  highestBid */\n  0x01\n    /* \"contracts/EnglishAuction.sol\":801:826  highestBid = _startingBid */\n  dup2\n  swap1\n  sstore\n  pop\n    /* \"contracts/EnglishAuction.sol\":604:834  constructor(... */\n  pop\n  pop\n  pop\n    /* \"contracts/EnglishAuction.sol\":200:1712  contract EnglishAuction {... */\n  jump(tag_6)\n    /* \"#utility.yul\":88:205   */\ntag_8:\n    /* \"#utility.yul\":197:198   */\n  0x00\n    /* \"#utility.yul\":194:195   */\n  dup1\n    /* \"#utility.yul\":187:199   */\n  revert\n    /* \"#utility.yul\":334:460   */\ntag_10:\n    /* \"#utility.yul\":371:378   */\n  0x00\n    /* \"#utility.yul\":411:453   */\n  0xffffffffffffffffffffffffffffffffffffffff\n    /* \"#utility.yul\":404:409   */\n  dup3\n    /* \"#utility.yul\":400:454   */\n  and\n    /* \"#utility.yul\":389:454   */\n  swap1\n  pop\n    /* \"#utility.yul\":334:460   */\n  swap2\n  swap1\n  pop\n  jump\t// out\n    /* \"#utility.yul\":466:562   */\ntag_11:\n    /* \"#utility.yul\":503:510   */\n  0x00\n    /* \"#utility.yul\":532:556   */\n  tag_23\n    /* \"#utility.yul\":550:555   */\n  dup3\n    /* \"#utility.yul\":532:556   */\n  tag_10\n  jump\t// in\ntag_23:\n    /* \"#utility.yul\":521:556   */\n  swap1\n  pop\n    /* \"#utility.yul\":466:562   */\n  swap2\n  swap1\n  pop\n  jump\t// out\n    /* \"#utility.yul\":568:690   */\ntag_12:\n    /* \"#utility.yul\":641:665   */\n  tag_25\n    /* \"#utility.yul\":659:664   */\n  dup2\n    /* \"#utility.yul\":641:665   */\n  tag_11\n  jump\t// in\ntag_25:\n    /* \"#utility.yul\":634:639   */\n  dup2\n    /* \"#utility.yul\":631:666   */\n  eq\n    /* \"#utility.yul\":621:684   */\n  tag_26\n  jumpi\n    /* \"#utility.yul\":680:681   */\n  0x00\n    /* \"#utility.yul\":677:678   */\n  dup1\n    /* \"#utility.yul\":670:682   */\n  revert\n    /* \"#utility.yul\":621:684   */\ntag_26:\n    /* \"#utility.yul\":568:690   */\n  pop\n  jump\t// out\n    /* \"#utility.yul\":696:839   */\ntag_13:\n    /* \"#utility.yul\":753:758   */\n  0x00\n    /* \"#utility.yul\":784:790   */\n  dup2\n    /* \"#utility.yul\":778:791   */\n  mload\n    /* \"#utility.yul\":769:791   */\n  swap1\n  pop\n    /* \"#utility.yul\":800:833   */\n  tag_28\n    /* \"#utility.yul\":827:832   */\n  dup2\n    /* \"#utility.yul\":800:833   */\n  tag_12\n  jump\t// in\ntag_28:\n    /* \"#utility.yul\":696:839   */\n  swap3\n  swap2\n  pop\n  pop\n  jump\t// out\n    /* \"#utility.yul\":845:922   */\ntag_14:\n    /* \"#utility.yul\":882:889   */\n  0x00\n    /* \"#utility.yul\":911:916   */\n  dup2\n    /* \"#utility.yul\":900:916   */\n  swap1\n  pop\n    /* \"#utility.yul\":845:922   */\n  swap2\n  swap1\n  pop\n  jump\t// out\n    /* \"#utility.yul\":928:1050   */\ntag_15:\n    /* \"#utility.yul\":1001:1025   */\n  tag_31\n    /* \"#utility.yul\":1019:1024   */\n  dup2\n    /* \"#utility.yul\":1001:1025   */\n  tag_14\n  jump\t// in\ntag_31:\n    /* \"#utility.yul\":994:999   */\n  dup2\n    /* \"#utility.yul\":991:1026   */\n  eq\n    /* \"#utility.yul\":981:1044   */\n  tag_32\n  jumpi\n    /* \"#utility.yul\":1040:1041   */\n  0x00\n    /* \"#utility.yul\":1037:1038   */\n  dup1\n    /* \"#utility.yul\":1030:1042   */\n  revert\n    /* \"#utility.yul\":981:1044   */\ntag_32:\n    /* \"#utility.yul\":928:1050   */\n  pop\n  jump\t// out\n    /* \"#utility.yul\":1056:1199   */\ntag_16:\n    /* \"#utility.yul\":1113:1118   */\n  0x00\n    /* \"#utility.yul\":1144:1150   */\n  dup2\n    /* \"#utility.yul\":1138:1151   */\n  mload\n    /* \"#utility.yul\":1129:1151   */\n  swap1\n  pop\n    /* \"#utility.yul\":1160:1193   */\n  tag_34\n    /* \"#utility.yul\":1187:1192   */\n  dup2\n    /* \"#utility.yul\":1160:1193   */\n  tag_15\n  jump\t// in\ntag_34:\n    /* \"#utility.yul\":1056:1199   */\n  swap3\n  swap2\n  pop\n  pop\n  jump\t// out\n    /* \"#utility.yul\":1205:1868   */\ntag_3:\n    /* \"#utility.yul\":1293:1299   */\n  0x00\n    /* \"#utility.yul\":1301:1307   */\n  dup1\n    /* \"#utility.yul\":1309:1315   */\n  0x00\n    /* \"#utility.yul\":1358:1360   */\n  0x60\n    /* \"#utility.yul\":1346:1355   */\n  dup5\n    /* \"#utility.yul\":1337:1344   */\n  dup7\n    /* \"#utility.yul\":1333:1356   */\n  sub\n    /* \"#utility.yul\":1329:1361   */\n  slt\n    /* \"#utility.yul\":1326:1445   */\n  iszero\n  tag_36\n  jumpi\n    /* \"#utility.yul\":1364:1443   */\n  tag_37\n  tag_8\n  jump\t// in\ntag_37:\n    /* \"#utility.yul\":1326:1445   */\ntag_36:\n    /* \"#utility.yul\":1484:1485   */\n  0x00\n    /* \"#utility.yul\":1509:1573   */\n  tag_38\n    /* \"#utility.yul\":1565:1572   */\n  dup7\n    /* \"#utility.yul\":1556:1562   */\n  dup3\n    /* \"#utility.yul\":1545:1554   */\n  dup8\n    /* \"#utility.yul\":1541:1563   */\n  add\n    /* \"#utility.yul\":1509:1573   */\n  tag_13\n  jump\t// in\ntag_38:\n    /* \"#utility.yul\":1499:1573   */\n  swap4\n  pop\n    /* \"#utility.yul\":1455:1583   */\n  pop\n    /* \"#utility.yul\":1622:1624   */\n  0x20\n    /* \"#utility.yul\":1648:1712   */\n  tag_39\n    /* \"#utility.yul\":1704:1711   */\n  dup7\n    /* \"#utility.yul\":1695:1701   */\n  dup3\n    /* \"#utility.yul\":1684:1693   */\n  dup8\n    /* \"#utility.yul\":1680:1702   */\n  add\n    /* \"#utility.yul\":1648:1712   */\n  tag_16\n  jump\t// in\ntag_39:\n    /* \"#utility.yul\":1638:1712   */\n  swap3\n  pop\n    /* \"#utility.yul\":1593:1722   */\n  pop\n    /* \"#utility.yul\":1761:1763   */\n  0x40\n    /* \"#utility.yul\":1787:1851   */\n  tag_40\n    /* \"#utility.yul\":1843:1850   */\n  dup7\n    /* \"#utility.yul\":1834:1840   */\n  dup3\n    /* \"#utility.yul\":1823:1832   */\n  dup8\n    /* \"#utility.yul\":1819:1841   */\n  add\n    /* \"#utility.yul\":1787:1851   */\n  tag_16\n  jump\t// in\ntag_40:\n    /* \"#utility.yul\":1777:1851   */\n  swap2\n  pop\n    /* \"#utility.yul\":1732:1861   */\n  pop\n    /* \"#utility.yul\":1205:1868   */\n  swap3\n  pop\n  swap3\n  pop\n  swap3\n  jump\t// out\n    /* \"contracts/EnglishAuction.sol\":200:1712  contract EnglishAuction {... */\ntag_6:\n  mload(0x80)\n  mload(0xa0)\n  mload(0xc0)\n  codecopy(0x00, dataOffset(sub_0), dataSize(sub_0))\n  0x00\n  assignImmutable(\"0x9cce9eb03c9f29c6481fca9f0f942b15bef0bbbc47fda0ddb44df157019835d9\")\n  0x00\n  assignImmutable(\"0x6585423cb6456b1d4957f6454d2f004f0c4f58d53a00082412d5c2ef4b1b31fd\")\n  0x00\n  assignImmutable(\"0xd4d1a59767271eefdc7830a772b9732a11d503531d972ab8c981a6b1c0e666e5\")\n  return(0x00, dataSize(sub_0))\nstop\n\nsub_0: assembly {\n        /* \"contracts/EnglishAuction.sol\":200:1712  contract EnglishAuction {... */\n      mstore(0x40, 0x80)\n      jumpi(tag_1, lt(calldatasize, 0x04))\n      shr(0xe0, calldataload(0x00))\n      dup1\n      0x62ea82db\n      gt\n      tag_14\n      jumpi\n      dup1\n      0x62ea82db\n      eq\n      tag_8\n      jumpi\n      dup1\n      0x7cc3ae8c\n      eq\n      tag_9\n      jumpi\n      dup1\n      0x91f90157\n      eq\n      tag_10\n      jumpi\n      dup1\n      0xbe9a6555\n      eq\n      tag_11\n      jumpi\n      dup1\n      0xc6bc5182\n      eq\n      tag_12\n      jumpi\n      dup1\n      0xd57bde79\n      eq\n      tag_13\n      jumpi\n      jump(tag_1)\n    tag_14:\n      dup1\n      0x08551a53\n      eq\n      tag_2\n      jumpi\n      dup1\n      0x12fa6feb\n      eq\n      tag_3\n      jumpi\n      dup1\n      0x1998aeef\n      eq\n      tag_4\n      jumpi\n      dup1\n      0x1f2698ab\n      eq\n      tag_5\n      jumpi\n      dup1\n      0x3ccfd60b\n      eq\n      tag_6\n      jumpi\n      dup1\n      0x47ccca02\n      eq\n      tag_7\n      jumpi\n    tag_1:\n      0x00\n      dup1\n      revert\n        /* \"contracts/EnglishAuction.sol\":379:410  address public immutable seller */\n    tag_2:\n      callvalue\n      dup1\n      iszero\n      tag_15\n      jumpi\n      0x00\n      dup1\n      revert\n    tag_15:\n      pop\n      tag_16\n      tag_17\n      jump\t// in\n    tag_16:\n      mload(0x40)\n      tag_18\n      swap2\n      swap1\n      tag_19\n      jump\t// in\n    tag_18:\n      mload(0x40)\n      dup1\n      swap2\n      sub\n      swap1\n      return\n        /* \"contracts/EnglishAuction.sol\":469:486  bool public ended */\n    tag_3:\n      callvalue\n      dup1\n      iszero\n      tag_20\n      jumpi\n      0x00\n      dup1\n      revert\n    tag_20:\n      pop\n      tag_21\n      tag_22\n      jump\t// in\n    tag_21:\n      mload(0x40)\n      tag_23\n      swap2\n      swap1\n      tag_24\n      jump\t// in\n    tag_23:\n      mload(0x40)\n      dup1\n      swap2\n      sub\n      swap1\n      return\n        /* \"contracts/EnglishAuction.sol\":1155:1585  function bid() external payable {... */\n    tag_4:\n      tag_25\n      tag_26\n      jump\t// in\n    tag_25:\n      stop\n        /* \"contracts/EnglishAuction.sol\":443:462  bool public started */\n    tag_5:\n      callvalue\n      dup1\n      iszero\n      tag_27\n      jumpi\n      0x00\n      dup1\n      revert\n    tag_27:\n      pop\n      tag_28\n      tag_29\n      jump\t// in\n    tag_28:\n      mload(0x40)\n      tag_30\n      swap2\n      swap1\n      tag_24\n      jump\t// in\n    tag_30:\n      mload(0x40)\n      dup1\n      swap2\n      sub\n      swap1\n      return\n        /* \"contracts/EnglishAuction.sol\":1593:1709  function withdraw() external {... */\n    tag_6:\n      callvalue\n      dup1\n      iszero\n      tag_31\n      jumpi\n      0x00\n      dup1\n      revert\n    tag_31:\n      pop\n      tag_32\n      tag_33\n      jump\t// in\n    tag_32:\n      stop\n        /* \"contracts/EnglishAuction.sol\":308:336  IERC721 public immutable nft */\n    tag_7:\n      callvalue\n      dup1\n      iszero\n      tag_34\n      jumpi\n      0x00\n      dup1\n      revert\n    tag_34:\n      pop\n      tag_35\n      tag_36\n      jump\t// in\n    tag_35:\n      mload(0x40)\n      tag_37\n      swap2\n      swap1\n      tag_38\n      jump\t// in\n    tag_37:\n      mload(0x40)\n      dup1\n      swap2\n      sub\n      swap1\n      return\n        /* \"contracts/EnglishAuction.sol\":559:595  mapping(address => uint) public bids */\n    tag_8:\n      callvalue\n      dup1\n      iszero\n      tag_39\n      jumpi\n      0x00\n      dup1\n      revert\n    tag_39:\n      pop\n      tag_40\n      0x04\n      dup1\n      calldatasize\n      sub\n      dup2\n      add\n      swap1\n      tag_41\n      swap2\n      swap1\n      tag_42\n      jump\t// in\n    tag_41:\n      tag_43\n      jump\t// in\n    tag_40:\n      mload(0x40)\n      tag_44\n      swap2\n      swap1\n      tag_45\n      jump\t// in\n    tag_44:\n      mload(0x40)\n      dup1\n      swap2\n      sub\n      swap1\n      return\n        /* \"contracts/EnglishAuction.sol\":417:436  uint32 public endAt */\n    tag_9:\n      callvalue\n      dup1\n      iszero\n      tag_46\n      jumpi\n      0x00\n      dup1\n      revert\n    tag_46:\n      pop\n      tag_47\n      tag_48\n      jump\t// in\n    tag_47:\n      mload(0x40)\n      tag_49\n      swap2\n      swap1\n      tag_50\n      jump\t// in\n    tag_49:\n      mload(0x40)\n      dup1\n      swap2\n      sub\n      swap1\n      return\n        /* \"contracts/EnglishAuction.sol\":495:523  address public highestBidder */\n    tag_10:\n      callvalue\n      dup1\n      iszero\n      tag_51\n      jumpi\n      0x00\n      dup1\n      revert\n    tag_51:\n      pop\n      tag_52\n      tag_53\n      jump\t// in\n    tag_52:\n      mload(0x40)\n      tag_54\n      swap2\n      swap1\n      tag_19\n      jump\t// in\n    tag_54:\n      mload(0x40)\n      dup1\n      swap2\n      sub\n      swap1\n      return\n        /* \"contracts/EnglishAuction.sol\":842:1147  function start() external {... */\n    tag_11:\n      callvalue\n      dup1\n      iszero\n      tag_55\n      jumpi\n      0x00\n      dup1\n      revert\n    tag_55:\n      pop\n      tag_56\n      tag_57\n      jump\t// in\n    tag_56:\n      stop\n        /* \"contracts/EnglishAuction.sol\":343:370  uint public immutable nftId */\n    tag_12:\n      callvalue\n      dup1\n      iszero\n      tag_58\n      jumpi\n      0x00\n      dup1\n      revert\n    tag_58:\n      pop\n      tag_59\n      tag_60\n      jump\t// in\n    tag_59:\n      mload(0x40)\n      tag_61\n      swap2\n      swap1\n      tag_45\n      jump\t// in\n    tag_61:\n      mload(0x40)\n      dup1\n      swap2\n      sub\n      swap1\n      return\n        /* \"contracts/EnglishAuction.sol\":530:552  uint public highestBid */\n    tag_13:\n      callvalue\n      dup1\n      iszero\n      tag_62\n      jumpi\n      0x00\n      dup1\n      revert\n    tag_62:\n      pop\n      tag_63\n      tag_64\n      jump\t// in\n    tag_63:\n      mload(0x40)\n      tag_65\n      swap2\n      swap1\n      tag_45\n      jump\t// in\n    tag_65:\n      mload(0x40)\n      dup1\n      swap2\n      sub\n      swap1\n      return\n        /* \"contracts/EnglishAuction.sol\":379:410  address public immutable seller */\n    tag_17:\n      immutable(\"0x9cce9eb03c9f29c6481fca9f0f942b15bef0bbbc47fda0ddb44df157019835d9\")\n      dup2\n      jump\t// out\n        /* \"contracts/EnglishAuction.sol\":469:486  bool public ended */\n    tag_22:\n      0x00\n      0x05\n      swap1\n      sload\n      swap1\n      0x0100\n      exp\n      swap1\n      div\n      0xff\n      and\n      dup2\n      jump\t// out\n        /* \"contracts/EnglishAuction.sol\":1155:1585  function bid() external payable {... */\n    tag_26:\n        /* \"contracts/EnglishAuction.sol\":1206:1213  started */\n      0x00\n      0x04\n      swap1\n      sload\n      swap1\n      0x0100\n      exp\n      swap1\n      div\n      0xff\n      and\n        /* \"contracts/EnglishAuction.sol\":1198:1229  require(started, \"not started\") */\n      tag_67\n      jumpi\n      mload(0x40)\n      0x08c379a000000000000000000000000000000000000000000000000000000000\n      dup2\n      mstore\n      0x04\n      add\n      tag_68\n      swap1\n      tag_69\n      jump\t// in\n    tag_68:\n      mload(0x40)\n      dup1\n      swap2\n      sub\n      swap1\n      revert\n    tag_67:\n        /* \"contracts/EnglishAuction.sol\":1266:1271  endAt */\n      0x00\n      dup1\n      sload\n      swap1\n      0x0100\n      exp\n      swap1\n      div\n      0xffffffff\n      and\n        /* \"contracts/EnglishAuction.sol\":1248:1271  block.timestamp < endAt */\n      0xffffffff\n      and\n        /* \"contracts/EnglishAuction.sol\":1248:1263  block.timestamp */\n      timestamp\n        /* \"contracts/EnglishAuction.sol\":1248:1271  block.timestamp < endAt */\n      lt\n        /* \"contracts/EnglishAuction.sol\":1240:1281  require(block.timestamp < endAt, \"ended\") */\n      tag_70\n      jumpi\n      mload(0x40)\n      0x08c379a000000000000000000000000000000000000000000000000000000000\n      dup2\n      mstore\n      0x04\n      add\n      tag_71\n      swap1\n      tag_72\n      jump\t// in\n    tag_71:\n      mload(0x40)\n      dup1\n      swap2\n      sub\n      swap1\n      revert\n    tag_70:\n        /* \"contracts/EnglishAuction.sol\":1312:1322  highestBid */\n      sload(0x01)\n        /* \"contracts/EnglishAuction.sol\":1300:1309  msg.value */\n      callvalue\n        /* \"contracts/EnglishAuction.sol\":1300:1322  msg.value > highestBid */\n      gt\n        /* \"contracts/EnglishAuction.sol\":1292:1346  require(msg.value > highestBid, \"value < highest bid\") */\n      tag_73\n      jumpi\n      mload(0x40)\n      0x08c379a000000000000000000000000000000000000000000000000000000000\n      dup2\n      mstore\n      0x04\n      add\n      tag_74\n      swap1\n      tag_75\n      jump\t// in\n    tag_74:\n      mload(0x40)\n      dup1\n      swap2\n      sub\n      swap1\n      revert\n    tag_73:\n        /* \"contracts/EnglishAuction.sol\":1388:1389  0 */\n      0x00\n        /* \"contracts/EnglishAuction.sol\":1363:1390  highestBidder != address(0) */\n      0xffffffffffffffffffffffffffffffffffffffff\n      and\n        /* \"contracts/EnglishAuction.sol\":1363:1376  highestBidder */\n      0x00\n      0x06\n      swap1\n      sload\n      swap1\n      0x0100\n      exp\n      swap1\n      div\n      0xffffffffffffffffffffffffffffffffffffffff\n      and\n        /* \"contracts/EnglishAuction.sol\":1363:1390  highestBidder != address(0) */\n      0xffffffffffffffffffffffffffffffffffffffff\n      and\n      eq\n        /* \"contracts/EnglishAuction.sol\":1359:1452  if (highestBidder != address(0)) {... */\n      tag_76\n      jumpi\n        /* \"contracts/EnglishAuction.sol\":1430:1440  highestBid */\n      sload(0x01)\n        /* \"contracts/EnglishAuction.sol\":1407:1411  bids */\n      0x02\n        /* \"contracts/EnglishAuction.sol\":1407:1426  bids[highestBidder] */\n      0x00\n        /* \"contracts/EnglishAuction.sol\":1412:1425  highestBidder */\n      dup1\n      0x06\n      swap1\n      sload\n      swap1\n      0x0100\n      exp\n      swap1\n      div\n      0xffffffffffffffffffffffffffffffffffffffff\n      and\n        /* \"contracts/EnglishAuction.sol\":1407:1426  bids[highestBidder] */\n      0xffffffffffffffffffffffffffffffffffffffff\n      and\n      0xffffffffffffffffffffffffffffffffffffffff\n      and\n      dup2\n      mstore\n      0x20\n      add\n      swap1\n      dup2\n      mstore\n      0x20\n      add\n      0x00\n      keccak256\n      0x00\n        /* \"contracts/EnglishAuction.sol\":1407:1440  bids[highestBidder] += highestBid */\n      dup3\n      dup3\n      sload\n      tag_77\n      swap2\n      swap1\n      tag_78\n      jump\t// in\n    tag_77:\n      swap3\n      pop\n      pop\n      dup2\n      swap1\n      sstore\n      pop\n        /* \"contracts/EnglishAuction.sol\":1359:1452  if (highestBidder != address(0)) {... */\n    tag_76:\n        /* \"contracts/EnglishAuction.sol\":1487:1496  msg.value */\n      callvalue\n        /* \"contracts/EnglishAuction.sol\":1474:1484  highestBid */\n      0x01\n        /* \"contracts/EnglishAuction.sol\":1474:1496  highestBid = msg.value */\n      dup2\n      swap1\n      sstore\n      pop\n        /* \"contracts/EnglishAuction.sol\":1523:1533  msg.sender */\n      caller\n        /* \"contracts/EnglishAuction.sol\":1507:1520  highestBidder */\n      0x00\n      0x06\n        /* \"contracts/EnglishAuction.sol\":1507:1533  highestBidder = msg.sender */\n      0x0100\n      exp\n      dup2\n      sload\n      dup2\n      0xffffffffffffffffffffffffffffffffffffffff\n      mul\n      not\n      and\n      swap1\n      dup4\n      0xffffffffffffffffffffffffffffffffffffffff\n      and\n      mul\n      or\n      swap1\n      sstore\n      pop\n        /* \"contracts/EnglishAuction.sol\":1555:1565  msg.sender */\n      caller\n        /* \"contracts/EnglishAuction.sol\":1551:1577  Bid(msg.sender, msg.value) */\n      0xffffffffffffffffffffffffffffffffffffffff\n      and\n      0xe684a55f31b79eca403df938249029212a5925ec6be8012e099b45bc1019e5d2\n        /* \"contracts/EnglishAuction.sol\":1567:1576  msg.value */\n      callvalue\n        /* \"contracts/EnglishAuction.sol\":1551:1577  Bid(msg.sender, msg.value) */\n      mload(0x40)\n      tag_79\n      swap2\n      swap1\n      tag_45\n      jump\t// in\n    tag_79:\n      mload(0x40)\n      dup1\n      swap2\n      sub\n      swap1\n      log2\n        /* \"contracts/EnglishAuction.sol\":1155:1585  function bid() external payable {... */\n      jump\t// out\n        /* \"contracts/EnglishAuction.sol\":443:462  bool public started */\n    tag_29:\n      0x00\n      0x04\n      swap1\n      sload\n      swap1\n      0x0100\n      exp\n      swap1\n      div\n      0xff\n      and\n      dup2\n      jump\t// out\n        /* \"contracts/EnglishAuction.sol\":1593:1709  function withdraw() external {... */\n    tag_33:\n        /* \"contracts/EnglishAuction.sol\":1633:1641  uint bal */\n      0x00\n        /* \"contracts/EnglishAuction.sol\":1644:1648  bids */\n      0x02\n        /* \"contracts/EnglishAuction.sol\":1644:1660  bids[msg.sender] */\n      0x00\n        /* \"contracts/EnglishAuction.sol\":1649:1659  msg.sender */\n      caller\n        /* \"contracts/EnglishAuction.sol\":1644:1660  bids[msg.sender] */\n      0xffffffffffffffffffffffffffffffffffffffff\n      and\n      0xffffffffffffffffffffffffffffffffffffffff\n      and\n      dup2\n      mstore\n      0x20\n      add\n      swap1\n      dup2\n      mstore\n      0x20\n      add\n      0x00\n      keccak256\n      sload\n        /* \"contracts/EnglishAuction.sol\":1633:1660  uint bal = bids[msg.sender] */\n      swap1\n      pop\n        /* \"contracts/EnglishAuction.sol\":1690:1691  0 */\n      0x00\n        /* \"contracts/EnglishAuction.sol\":1671:1675  bids */\n      0x02\n        /* \"contracts/EnglishAuction.sol\":1671:1687  bids[msg.sender] */\n      0x00\n        /* \"contracts/EnglishAuction.sol\":1676:1686  msg.sender */\n      caller\n        /* \"contracts/EnglishAuction.sol\":1671:1687  bids[msg.sender] */\n      0xffffffffffffffffffffffffffffffffffffffff\n      and\n      0xffffffffffffffffffffffffffffffffffffffff\n      and\n      dup2\n      mstore\n      0x20\n      add\n      swap1\n      dup2\n      mstore\n      0x20\n      add\n      0x00\n      keccak256\n        /* \"contracts/EnglishAuction.sol\":1671:1691  bids[msg.sender] = 0 */\n      dup2\n      swap1\n      sstore\n      pop\n        /* \"contracts/EnglishAuction.sol\":1622:1709  {... */\n      pop\n        /* \"contracts/EnglishAuction.sol\":1593:1709  function withdraw() external {... */\n      jump\t// out\n        /* \"contracts/EnglishAuction.sol\":308:336  IERC721 public immutable nft */\n    tag_36:\n      immutable(\"0xd4d1a59767271eefdc7830a772b9732a11d503531d972ab8c981a6b1c0e666e5\")\n      dup2\n      jump\t// out\n        /* \"contracts/EnglishAuction.sol\":559:595  mapping(address => uint) public bids */\n    tag_43:\n      mstore(0x20, 0x02)\n      dup1\n      0x00\n      mstore\n      keccak256(0x00, 0x40)\n      0x00\n      swap2\n      pop\n      swap1\n      pop\n      sload\n      dup2\n      jump\t// out\n        /* \"contracts/EnglishAuction.sol\":417:436  uint32 public endAt */\n    tag_48:\n      0x00\n      dup1\n      sload\n      swap1\n      0x0100\n      exp\n      swap1\n      div\n      0xffffffff\n      and\n      dup2\n      jump\t// out\n        /* \"contracts/EnglishAuction.sol\":495:523  address public highestBidder */\n    tag_53:\n      0x00\n      0x06\n      swap1\n      sload\n      swap1\n      0x0100\n      exp\n      swap1\n      div\n      0xffffffffffffffffffffffffffffffffffffffff\n      and\n      dup2\n      jump\t// out\n        /* \"contracts/EnglishAuction.sol\":842:1147  function start() external {... */\n    tag_57:\n        /* \"contracts/EnglishAuction.sol\":901:907  seller */\n      immutable(\"0x9cce9eb03c9f29c6481fca9f0f942b15bef0bbbc47fda0ddb44df157019835d9\")\n        /* \"contracts/EnglishAuction.sol\":887:907  msg.sender == seller */\n      0xffffffffffffffffffffffffffffffffffffffff\n      and\n        /* \"contracts/EnglishAuction.sol\":887:897  msg.sender */\n      caller\n        /* \"contracts/EnglishAuction.sol\":887:907  msg.sender == seller */\n      0xffffffffffffffffffffffffffffffffffffffff\n      and\n      eq\n        /* \"contracts/EnglishAuction.sol\":879:922  require(msg.sender == seller, \"not seller\") */\n      tag_82\n      jumpi\n      mload(0x40)\n      0x08c379a000000000000000000000000000000000000000000000000000000000\n      dup2\n      mstore\n      0x04\n      add\n      tag_83\n      swap1\n      tag_84\n      jump\t// in\n    tag_83:\n      mload(0x40)\n      dup1\n      swap2\n      sub\n      swap1\n      revert\n    tag_82:\n        /* \"contracts/EnglishAuction.sol\":942:949  started */\n      0x00\n      0x04\n      swap1\n      sload\n      swap1\n      0x0100\n      exp\n      swap1\n      div\n      0xff\n      and\n        /* \"contracts/EnglishAuction.sol\":941:949  !started */\n      iszero\n        /* \"contracts/EnglishAuction.sol\":933:961  require(!started, \"started\") */\n      tag_85\n      jumpi\n      mload(0x40)\n      0x08c379a000000000000000000000000000000000000000000000000000000000\n      dup2\n      mstore\n      0x04\n      add\n      tag_86\n      swap1\n      tag_87\n      jump\t// in\n    tag_86:\n      mload(0x40)\n      dup1\n      swap2\n      sub\n      swap1\n      revert\n    tag_85:\n        /* \"contracts/EnglishAuction.sol\":984:988  true */\n      0x01\n        /* \"contracts/EnglishAuction.sol\":974:981  started */\n      0x00\n      0x04\n        /* \"contracts/EnglishAuction.sol\":974:988  started = true */\n      0x0100\n      exp\n      dup2\n      sload\n      dup2\n      0xff\n      mul\n      not\n      and\n      swap1\n      dup4\n      iszero\n      iszero\n      mul\n      or\n      swap1\n      sstore\n      pop\n        /* \"contracts/EnglishAuction.sol\":1032:1034  60 */\n      0x3c\n        /* \"contracts/EnglishAuction.sol\":1014:1029  block.timestamp */\n      timestamp\n        /* \"contracts/EnglishAuction.sol\":1014:1034  block.timestamp + 60 */\n      tag_88\n      swap2\n      swap1\n      tag_78\n      jump\t// in\n    tag_88:\n        /* \"contracts/EnglishAuction.sol\":999:1004  endAt */\n      0x00\n      dup1\n        /* \"contracts/EnglishAuction.sol\":999:1035  endAt = uint32(block.timestamp + 60) */\n      0x0100\n      exp\n      dup2\n      sload\n      dup2\n      0xffffffff\n      mul\n      not\n      and\n      swap1\n      dup4\n      0xffffffff\n      and\n      mul\n      or\n      swap1\n      sstore\n      pop\n        /* \"contracts/EnglishAuction.sol\":1068:1071  nft */\n      immutable(\"0xd4d1a59767271eefdc7830a772b9732a11d503531d972ab8c981a6b1c0e666e5\")\n        /* \"contracts/EnglishAuction.sol\":1068:1084  nft.transferFrom */\n      0xffffffffffffffffffffffffffffffffffffffff\n      and\n      0x23b872dd\n        /* \"contracts/EnglishAuction.sol\":1085:1091  seller */\n      immutable(\"0x9cce9eb03c9f29c6481fca9f0f942b15bef0bbbc47fda0ddb44df157019835d9\")\n        /* \"contracts/EnglishAuction.sol\":1101:1105  this */\n      address\n        /* \"contracts/EnglishAuction.sol\":1108:1113  nftId */\n      immutable(\"0x6585423cb6456b1d4957f6454d2f004f0c4f58d53a00082412d5c2ef4b1b31fd\")\n        /* \"contracts/EnglishAuction.sol\":1068:1114  nft.transferFrom(seller, address(this), nftId) */\n      mload(0x40)\n      dup5\n      0xffffffff\n      and\n      0xe0\n      shl\n      dup2\n      mstore\n      0x04\n      add\n      tag_89\n      swap4\n      swap3\n      swap2\n      swap1\n      tag_90\n      jump\t// in\n    tag_89:\n      0x00\n      mload(0x40)\n      dup1\n      dup4\n      sub\n      dup2\n      0x00\n      dup8\n      dup1\n      extcodesize\n      iszero\n      dup1\n      iszero\n      tag_91\n      jumpi\n      0x00\n      dup1\n      revert\n    tag_91:\n      pop\n      gas\n      call\n      iszero\n      dup1\n      iszero\n      tag_93\n      jumpi\n      returndatasize\n      0x00\n      dup1\n      returndatacopy\n      revert(0x00, returndatasize)\n    tag_93:\n      pop\n      pop\n      pop\n      pop\n        /* \"contracts/EnglishAuction.sol\":1132:1139  Start() */\n      0x1b55ba3aa851a46be3b365aee5b5c140edd620d578922f3e8466d2cbd96f954b\n      mload(0x40)\n      mload(0x40)\n      dup1\n      swap2\n      sub\n      swap1\n      log1\n        /* \"contracts/EnglishAuction.sol\":842:1147  function start() external {... */\n      jump\t// out\n        /* \"contracts/EnglishAuction.sol\":343:370  uint public immutable nftId */\n    tag_60:\n      immutable(\"0x6585423cb6456b1d4957f6454d2f004f0c4f58d53a00082412d5c2ef4b1b31fd\")\n      dup2\n      jump\t// out\n        /* \"contracts/EnglishAuction.sol\":530:552  uint public highestBid */\n    tag_64:\n      sload(0x01)\n      dup2\n      jump\t// out\n        /* \"#utility.yul\":7:133   */\n    tag_94:\n        /* \"#utility.yul\":44:51   */\n      0x00\n        /* \"#utility.yul\":84:126   */\n      0xffffffffffffffffffffffffffffffffffffffff\n        /* \"#utility.yul\":77:82   */\n      dup3\n        /* \"#utility.yul\":73:127   */\n      and\n        /* \"#utility.yul\":62:127   */\n      swap1\n      pop\n        /* \"#utility.yul\":7:133   */\n      swap2\n      swap1\n      pop\n      jump\t// out\n        /* \"#utility.yul\":139:235   */\n    tag_95:\n        /* \"#utility.yul\":176:183   */\n      0x00\n        /* \"#utility.yul\":205:229   */\n      tag_128\n        /* \"#utility.yul\":223:228   */\n      dup3\n        /* \"#utility.yul\":205:229   */\n      tag_94\n      jump\t// in\n    tag_128:\n        /* \"#utility.yul\":194:229   */\n      swap1\n      pop\n        /* \"#utility.yul\":139:235   */\n      swap2\n      swap1\n      pop\n      jump\t// out\n        /* \"#utility.yul\":241:359   */\n    tag_96:\n        /* \"#utility.yul\":328:352   */\n      tag_130\n        /* \"#utility.yul\":346:351   */\n      dup2\n        /* \"#utility.yul\":328:352   */\n      tag_95\n      jump\t// in\n    tag_130:\n        /* \"#utility.yul\":323:326   */\n      dup3\n        /* \"#utility.yul\":316:353   */\n      mstore\n        /* \"#utility.yul\":241:359   */\n      pop\n      pop\n      jump\t// out\n        /* \"#utility.yul\":365:587   */\n    tag_19:\n        /* \"#utility.yul\":458:462   */\n      0x00\n        /* \"#utility.yul\":496:498   */\n      0x20\n        /* \"#utility.yul\":485:494   */\n      dup3\n        /* \"#utility.yul\":481:499   */\n      add\n        /* \"#utility.yul\":473:499   */\n      swap1\n      pop\n        /* \"#utility.yul\":509:580   */\n      tag_132\n        /* \"#utility.yul\":577:578   */\n      0x00\n        /* \"#utility.yul\":566:575   */\n      dup4\n        /* \"#utility.yul\":562:579   */\n      add\n        /* \"#utility.yul\":553:559   */\n      dup5\n        /* \"#utility.yul\":509:580   */\n      tag_96\n      jump\t// in\n    tag_132:\n        /* \"#utility.yul\":365:587   */\n      swap3\n      swap2\n      pop\n      pop\n      jump\t// out\n        /* \"#utility.yul\":593:683   */\n    tag_97:\n        /* \"#utility.yul\":627:634   */\n      0x00\n        /* \"#utility.yul\":670:675   */\n      dup2\n        /* \"#utility.yul\":663:676   */\n      iszero\n        /* \"#utility.yul\":656:677   */\n      iszero\n        /* \"#utility.yul\":645:677   */\n      swap1\n      pop\n        /* \"#utility.yul\":593:683   */\n      swap2\n      swap1\n      pop\n      jump\t// out\n        /* \"#utility.yul\":689:798   */\n    tag_98:\n        /* \"#utility.yul\":770:791   */\n      tag_135\n        /* \"#utility.yul\":785:790   */\n      dup2\n        /* \"#utility.yul\":770:791   */\n      tag_97\n      jump\t// in\n    tag_135:\n        /* \"#utility.yul\":765:768   */\n      dup3\n        /* \"#utility.yul\":758:792   */\n      mstore\n        /* \"#utility.yul\":689:798   */\n      pop\n      pop\n      jump\t// out\n        /* \"#utility.yul\":804:1014   */\n    tag_24:\n        /* \"#utility.yul\":891:895   */\n      0x00\n        /* \"#utility.yul\":929:931   */\n      0x20\n        /* \"#utility.yul\":918:927   */\n      dup3\n        /* \"#utility.yul\":914:932   */\n      add\n        /* \"#utility.yul\":906:932   */\n      swap1\n      pop\n        /* \"#utility.yul\":942:1007   */\n      tag_137\n        /* \"#utility.yul\":1004:1005   */\n      0x00\n        /* \"#utility.yul\":993:1002   */\n      dup4\n        /* \"#utility.yul\":989:1006   */\n      add\n        /* \"#utility.yul\":980:986   */\n      dup5\n        /* \"#utility.yul\":942:1007   */\n      tag_98\n      jump\t// in\n    tag_137:\n        /* \"#utility.yul\":804:1014   */\n      swap3\n      swap2\n      pop\n      pop\n      jump\t// out\n        /* \"#utility.yul\":1020:1080   */\n    tag_99:\n        /* \"#utility.yul\":1048:1051   */\n      0x00\n        /* \"#utility.yul\":1069:1074   */\n      dup2\n        /* \"#utility.yul\":1062:1074   */\n      swap1\n      pop\n        /* \"#utility.yul\":1020:1080   */\n      swap2\n      swap1\n      pop\n      jump\t// out\n        /* \"#utility.yul\":1086:1228   */\n    tag_100:\n        /* \"#utility.yul\":1136:1145   */\n      0x00\n        /* \"#utility.yul\":1169:1222   */\n      tag_140\n        /* \"#utility.yul\":1187:1221   */\n      tag_141\n        /* \"#utility.yul\":1196:1220   */\n      tag_142\n        /* \"#utility.yul\":1214:1219   */\n      dup5\n        /* \"#utility.yul\":1196:1220   */\n      tag_94\n      jump\t// in\n    tag_142:\n        /* \"#utility.yul\":1187:1221   */\n      tag_99\n      jump\t// in\n    tag_141:\n        /* \"#utility.yul\":1169:1222   */\n      tag_94\n      jump\t// in\n    tag_140:\n        /* \"#utility.yul\":1156:1222   */\n      swap1\n      pop\n        /* \"#utility.yul\":1086:1228   */\n      swap2\n      swap1\n      pop\n      jump\t// out\n        /* \"#utility.yul\":1234:1360   */\n    tag_101:\n        /* \"#utility.yul\":1284:1293   */\n      0x00\n        /* \"#utility.yul\":1317:1354   */\n      tag_144\n        /* \"#utility.yul\":1348:1353   */\n      dup3\n        /* \"#utility.yul\":1317:1354   */\n      tag_100\n      jump\t// in\n    tag_144:\n        /* \"#utility.yul\":1304:1354   */\n      swap1\n      pop\n        /* \"#utility.yul\":1234:1360   */\n      swap2\n      swap1\n      pop\n      jump\t// out\n        /* \"#utility.yul\":1366:1506   */\n    tag_102:\n        /* \"#utility.yul\":1430:1439   */\n      0x00\n        /* \"#utility.yul\":1463:1500   */\n      tag_146\n        /* \"#utility.yul\":1494:1499   */\n      dup3\n        /* \"#utility.yul\":1463:1500   */\n      tag_101\n      jump\t// in\n    tag_146:\n        /* \"#utility.yul\":1450:1500   */\n      swap1\n      pop\n        /* \"#utility.yul\":1366:1506   */\n      swap2\n      swap1\n      pop\n      jump\t// out\n        /* \"#utility.yul\":1512:1671   */\n    tag_103:\n        /* \"#utility.yul\":1613:1664   */\n      tag_148\n        /* \"#utility.yul\":1658:1663   */\n      dup2\n        /* \"#utility.yul\":1613:1664   */\n      tag_102\n      jump\t// in\n    tag_148:\n        /* \"#utility.yul\":1608:1611   */\n      dup3\n        /* \"#utility.yul\":1601:1665   */\n      mstore\n        /* \"#utility.yul\":1512:1671   */\n      pop\n      pop\n      jump\t// out\n        /* \"#utility.yul\":1677:1927   */\n    tag_38:\n        /* \"#utility.yul\":1784:1788   */\n      0x00\n        /* \"#utility.yul\":1822:1824   */\n      0x20\n        /* \"#utility.yul\":1811:1820   */\n      dup3\n        /* \"#utility.yul\":1807:1825   */\n      add\n        /* \"#utility.yul\":1799:1825   */\n      swap1\n      pop\n        /* \"#utility.yul\":1835:1920   */\n      tag_150\n        /* \"#utility.yul\":1917:1918   */\n      0x00\n        /* \"#utility.yul\":1906:1915   */\n      dup4\n        /* \"#utility.yul\":1902:1919   */\n      add\n        /* \"#utility.yul\":1893:1899   */\n      dup5\n        /* \"#utility.yul\":1835:1920   */\n      tag_103\n      jump\t// in\n    tag_150:\n        /* \"#utility.yul\":1677:1927   */\n      swap3\n      swap2\n      pop\n      pop\n      jump\t// out\n        /* \"#utility.yul\":2014:2131   */\n    tag_105:\n        /* \"#utility.yul\":2123:2124   */\n      0x00\n        /* \"#utility.yul\":2120:2121   */\n      dup1\n        /* \"#utility.yul\":2113:2125   */\n      revert\n        /* \"#utility.yul\":2260:2382   */\n    tag_107:\n        /* \"#utility.yul\":2333:2357   */\n      tag_155\n        /* \"#utility.yul\":2351:2356   */\n      dup2\n        /* \"#utility.yul\":2333:2357   */\n      tag_95\n      jump\t// in\n    tag_155:\n        /* \"#utility.yul\":2326:2331   */\n      dup2\n        /* \"#utility.yul\":2323:2358   */\n      eq\n        /* \"#utility.yul\":2313:2376   */\n      tag_156\n      jumpi\n        /* \"#utility.yul\":2372:2373   */\n      0x00\n        /* \"#utility.yul\":2369:2370   */\n      dup1\n        /* \"#utility.yul\":2362:2374   */\n      revert\n        /* \"#utility.yul\":2313:2376   */\n    tag_156:\n        /* \"#utility.yul\":2260:2382   */\n      pop\n      jump\t// out\n        /* \"#utility.yul\":2388:2527   */\n    tag_108:\n        /* \"#utility.yul\":2434:2439   */\n      0x00\n        /* \"#utility.yul\":2472:2478   */\n      dup2\n        /* \"#utility.yul\":2459:2479   */\n      calldataload\n        /* \"#utility.yul\":2450:2479   */\n      swap1\n      pop\n        /* \"#utility.yul\":2488:2521   */\n      tag_158\n        /* \"#utility.yul\":2515:2520   */\n      dup2\n        /* \"#utility.yul\":2488:2521   */\n      tag_107\n      jump\t// in\n    tag_158:\n        /* \"#utility.yul\":2388:2527   */\n      swap3\n      swap2\n      pop\n      pop\n      jump\t// out\n        /* \"#utility.yul\":2533:2862   */\n    tag_42:\n        /* \"#utility.yul\":2592:2598   */\n      0x00\n        /* \"#utility.yul\":2641:2643   */\n      0x20\n        /* \"#utility.yul\":2629:2638   */\n      dup3\n        /* \"#utility.yul\":2620:2627   */\n      dup5\n        /* \"#utility.yul\":2616:2639   */\n      sub\n        /* \"#utility.yul\":2612:2644   */\n      slt\n        /* \"#utility.yul\":2609:2728   */\n      iszero\n      tag_160\n      jumpi\n        /* \"#utility.yul\":2647:2726   */\n      tag_161\n      tag_105\n      jump\t// in\n    tag_161:\n        /* \"#utility.yul\":2609:2728   */\n    tag_160:\n        /* \"#utility.yul\":2767:2768   */\n      0x00\n        /* \"#utility.yul\":2792:2845   */\n      tag_162\n        /* \"#utility.yul\":2837:2844   */\n      dup5\n        /* \"#utility.yul\":2828:2834   */\n      dup3\n        /* \"#utility.yul\":2817:2826   */\n      dup6\n        /* \"#utility.yul\":2813:2835   */\n      add\n        /* \"#utility.yul\":2792:2845   */\n      tag_108\n      jump\t// in\n    tag_162:\n        /* \"#utility.yul\":2782:2845   */\n      swap2\n      pop\n        /* \"#utility.yul\":2738:2855   */\n      pop\n        /* \"#utility.yul\":2533:2862   */\n      swap3\n      swap2\n      pop\n      pop\n      jump\t// out\n        /* \"#utility.yul\":2868:2945   */\n    tag_109:\n        /* \"#utility.yul\":2905:2912   */\n      0x00\n        /* \"#utility.yul\":2934:2939   */\n      dup2\n        /* \"#utility.yul\":2923:2939   */\n      swap1\n      pop\n        /* \"#utility.yul\":2868:2945   */\n      swap2\n      swap1\n      pop\n      jump\t// out\n        /* \"#utility.yul\":2951:3069   */\n    tag_110:\n        /* \"#utility.yul\":3038:3062   */\n      tag_165\n        /* \"#utility.yul\":3056:3061   */\n      dup2\n        /* \"#utility.yul\":3038:3062   */\n      tag_109\n      jump\t// in\n    tag_165:\n        /* \"#utility.yul\":3033:3036   */\n      dup3\n        /* \"#utility.yul\":3026:3063   */\n      mstore\n        /* \"#utility.yul\":2951:3069   */\n      pop\n      pop\n      jump\t// out\n        /* \"#utility.yul\":3075:3297   */\n    tag_45:\n        /* \"#utility.yul\":3168:3172   */\n      0x00\n        /* \"#utility.yul\":3206:3208   */\n      0x20\n        /* \"#utility.yul\":3195:3204   */\n      dup3\n        /* \"#utility.yul\":3191:3209   */\n      add\n        /* \"#utility.yul\":3183:3209   */\n      swap1\n      pop\n        /* \"#utility.yul\":3219:3290   */\n      tag_167\n        /* \"#utility.yul\":3287:3288   */\n      0x00\n        /* \"#utility.yul\":3276:3285   */\n      dup4\n        /* \"#utility.yul\":3272:3289   */\n      add\n        /* \"#utility.yul\":3263:3269   */\n      dup5\n        /* \"#utility.yul\":3219:3290   */\n      tag_110\n      jump\t// in\n    tag_167:\n        /* \"#utility.yul\":3075:3297   */\n      swap3\n      swap2\n      pop\n      pop\n      jump\t// out\n        /* \"#utility.yul\":3303:3396   */\n    tag_111:\n        /* \"#utility.yul\":3339:3346   */\n      0x00\n        /* \"#utility.yul\":3379:3389   */\n      0xffffffff\n        /* \"#utility.yul\":3372:3377   */\n      dup3\n        /* \"#utility.yul\":3368:3390   */\n      and\n        /* \"#utility.yul\":3357:3390   */\n      swap1\n      pop\n        /* \"#utility.yul\":3303:3396   */\n      swap2\n      swap1\n      pop\n      jump\t// out\n        /* \"#utility.yul\":3402:3517   */\n    tag_112:\n        /* \"#utility.yul\":3487:3510   */\n      tag_170\n        /* \"#utility.yul\":3504:3509   */\n      dup2\n        /* \"#utility.yul\":3487:3510   */\n      tag_111\n      jump\t// in\n    tag_170:\n        /* \"#utility.yul\":3482:3485   */\n      dup3\n        /* \"#utility.yul\":3475:3511   */\n      mstore\n        /* \"#utility.yul\":3402:3517   */\n      pop\n      pop\n      jump\t// out\n        /* \"#utility.yul\":3523:3741   */\n    tag_50:\n        /* \"#utility.yul\":3614:3618   */\n      0x00\n        /* \"#utility.yul\":3652:3654   */\n      0x20\n        /* \"#utility.yul\":3641:3650   */\n      dup3\n        /* \"#utility.yul\":3637:3655   */\n      add\n        /* \"#utility.yul\":3629:3655   */\n      swap1\n      pop\n        /* \"#utility.yul\":3665:3734   */\n      tag_172\n        /* \"#utility.yul\":3731:3732   */\n      0x00\n        /* \"#utility.yul\":3720:3729   */\n      dup4\n        /* \"#utility.yul\":3716:3733   */\n      add\n        /* \"#utility.yul\":3707:3713   */\n      dup5\n        /* \"#utility.yul\":3665:3734   */\n      tag_112\n      jump\t// in\n    tag_172:\n        /* \"#utility.yul\":3523:3741   */\n      swap3\n      swap2\n      pop\n      pop\n      jump\t// out\n        /* \"#utility.yul\":3747:3916   */\n    tag_113:\n        /* \"#utility.yul\":3831:3842   */\n      0x00\n        /* \"#utility.yul\":3865:3871   */\n      dup3\n        /* \"#utility.yul\":3860:3863   */\n      dup3\n        /* \"#utility.yul\":3853:3872   */\n      mstore\n        /* \"#utility.yul\":3905:3909   */\n      0x20\n        /* \"#utility.yul\":3900:3903   */\n      dup3\n        /* \"#utility.yul\":3896:3910   */\n      add\n        /* \"#utility.yul\":3881:3910   */\n      swap1\n      pop\n        /* \"#utility.yul\":3747:3916   */\n      swap3\n      swap2\n      pop\n      pop\n      jump\t// out\n        /* \"#utility.yul\":3922:4083   */\n    tag_114:\n        /* \"#utility.yul\":4062:4075   */\n      0x6e6f742073746172746564000000000000000000000000000000000000000000\n        /* \"#utility.yul\":4058:4059   */\n      0x00\n        /* \"#utility.yul\":4050:4056   */\n      dup3\n        /* \"#utility.yul\":4046:4060   */\n      add\n        /* \"#utility.yul\":4039:4076   */\n      mstore\n        /* \"#utility.yul\":3922:4083   */\n      pop\n      jump\t// out\n        /* \"#utility.yul\":4089:4455   */\n    tag_115:\n        /* \"#utility.yul\":4231:4234   */\n      0x00\n        /* \"#utility.yul\":4252:4319   */\n      tag_176\n        /* \"#utility.yul\":4316:4318   */\n      0x0b\n        /* \"#utility.yul\":4311:4314   */\n      dup4\n        /* \"#utility.yul\":4252:4319   */\n      tag_113\n      jump\t// in\n    tag_176:\n        /* \"#utility.yul\":4245:4319   */\n      swap2\n      pop\n        /* \"#utility.yul\":4328:4421   */\n      tag_177\n        /* \"#utility.yul\":4417:4420   */\n      dup3\n        /* \"#utility.yul\":4328:4421   */\n      tag_114\n      jump\t// in\n    tag_177:\n        /* \"#utility.yul\":4446:4448   */\n      0x20\n        /* \"#utility.yul\":4441:4444   */\n      dup3\n        /* \"#utility.yul\":4437:4449   */\n      add\n        /* \"#utility.yul\":4430:4449   */\n      swap1\n      pop\n        /* \"#utility.yul\":4089:4455   */\n      swap2\n      swap1\n      pop\n      jump\t// out\n        /* \"#utility.yul\":4461:4880   */\n    tag_69:\n        /* \"#utility.yul\":4627:4631   */\n      0x00\n        /* \"#utility.yul\":4665:4667   */\n      0x20\n        /* \"#utility.yul\":4654:4663   */\n      dup3\n        /* \"#utility.yul\":4650:4668   */\n      add\n        /* \"#utility.yul\":4642:4668   */\n      swap1\n      pop\n        /* \"#utility.yul\":4714:4723   */\n      dup2\n        /* \"#utility.yul\":4708:4712   */\n      dup2\n        /* \"#utility.yul\":4704:4724   */\n      sub\n        /* \"#utility.yul\":4700:4701   */\n      0x00\n        /* \"#utility.yul\":4689:4698   */\n      dup4\n        /* \"#utility.yul\":4685:4702   */\n      add\n        /* \"#utility.yul\":4678:4725   */\n      mstore\n        /* \"#utility.yul\":4742:4873   */\n      tag_179\n        /* \"#utility.yul\":4868:4872   */\n      dup2\n        /* \"#utility.yul\":4742:4873   */\n      tag_115\n      jump\t// in\n    tag_179:\n        /* \"#utility.yul\":4734:4873   */\n      swap1\n      pop\n        /* \"#utility.yul\":4461:4880   */\n      swap2\n      swap1\n      pop\n      jump\t// out\n        /* \"#utility.yul\":4886:5041   */\n    tag_116:\n        /* \"#utility.yul\":5026:5033   */\n      0x656e646564000000000000000000000000000000000000000000000000000000\n        /* \"#utility.yul\":5022:5023   */\n      0x00\n        /* \"#utility.yul\":5014:5020   */\n      dup3\n        /* \"#utility.yul\":5010:5024   */\n      add\n        /* \"#utility.yul\":5003:5034   */\n      mstore\n        /* \"#utility.yul\":4886:5041   */\n      pop\n      jump\t// out\n        /* \"#utility.yul\":5047:5412   */\n    tag_117:\n        /* \"#utility.yul\":5189:5192   */\n      0x00\n        /* \"#utility.yul\":5210:5276   */\n      tag_182\n        /* \"#utility.yul\":5274:5275   */\n      0x05\n        /* \"#utility.yul\":5269:5272   */\n      dup4\n        /* \"#utility.yul\":5210:5276   */\n      tag_113\n      jump\t// in\n    tag_182:\n        /* \"#utility.yul\":5203:5276   */\n      swap2\n      pop\n        /* \"#utility.yul\":5285:5378   */\n      tag_183\n        /* \"#utility.yul\":5374:5377   */\n      dup3\n        /* \"#utility.yul\":5285:5378   */\n      tag_116\n      jump\t// in\n    tag_183:\n        /* \"#utility.yul\":5403:5405   */\n      0x20\n        /* \"#utility.yul\":5398:5401   */\n      dup3\n        /* \"#utility.yul\":5394:5406   */\n      add\n        /* \"#utility.yul\":5387:5406   */\n      swap1\n      pop\n        /* \"#utility.yul\":5047:5412   */\n      swap2\n      swap1\n      pop\n      jump\t// out\n        /* \"#utility.yul\":5418:5837   */\n    tag_72:\n        /* \"#utility.yul\":5584:5588   */\n      0x00\n        /* \"#utility.yul\":5622:5624   */\n      0x20\n        /* \"#utility.yul\":5611:5620   */\n      dup3\n        /* \"#utility.yul\":5607:5625   */\n      add\n        /* \"#utility.yul\":5599:5625   */\n      swap1\n      pop\n        /* \"#utility.yul\":5671:5680   */\n      dup2\n        /* \"#utility.yul\":5665:5669   */\n      dup2\n        /* \"#utility.yul\":5661:5681   */\n      sub\n        /* \"#utility.yul\":5657:5658   */\n      0x00\n        /* \"#utility.yul\":5646:5655   */\n      dup4\n        /* \"#utility.yul\":5642:5659   */\n      add\n        /* \"#utility.yul\":5635:5682   */\n      mstore\n        /* \"#utility.yul\":5699:5830   */\n      tag_185\n        /* \"#utility.yul\":5825:5829   */\n      dup2\n        /* \"#utility.yul\":5699:5830   */\n      tag_117\n      jump\t// in\n    tag_185:\n        /* \"#utility.yul\":5691:5830   */\n      swap1\n      pop\n        /* \"#utility.yul\":5418:5837   */\n      swap2\n      swap1\n      pop\n      jump\t// out\n        /* \"#utility.yul\":5843:6012   */\n    tag_118:\n        /* \"#utility.yul\":5983:6004   */\n      0x76616c7565203c20686967686573742062696400000000000000000000000000\n        /* \"#utility.yul\":5979:5980   */\n      0x00\n        /* \"#utility.yul\":5971:5977   */\n      dup3\n        /* \"#utility.yul\":5967:5981   */\n      add\n        /* \"#utility.yul\":5960:6005   */\n      mstore\n        /* \"#utility.yul\":5843:6012   */\n      pop\n      jump\t// out\n        /* \"#utility.yul\":6018:6384   */\n    tag_119:\n        /* \"#utility.yul\":6160:6163   */\n      0x00\n        /* \"#utility.yul\":6181:6248   */\n      tag_188\n        /* \"#utility.yul\":6245:6247   */\n      0x13\n        /* \"#utility.yul\":6240:6243   */\n      dup4\n        /* \"#utility.yul\":6181:6248   */\n      tag_113\n      jump\t// in\n    tag_188:\n        /* \"#utility.yul\":6174:6248   */\n      swap2\n      pop\n        /* \"#utility.yul\":6257:6350   */\n      tag_189\n        /* \"#utility.yul\":6346:6349   */\n      dup3\n        /* \"#utility.yul\":6257:6350   */\n      tag_118\n      jump\t// in\n    tag_189:\n        /* \"#utility.yul\":6375:6377   */\n      0x20\n        /* \"#utility.yul\":6370:6373   */\n      dup3\n        /* \"#utility.yul\":6366:6378   */\n      add\n        /* \"#utility.yul\":6359:6378   */\n      swap1\n      pop\n        /* \"#utility.yul\":6018:6384   */\n      swap2\n      swap1\n      pop\n      jump\t// out\n        /* \"#utility.yul\":6390:6809   */\n    tag_75:\n        /* \"#utility.yul\":6556:6560   */\n      0x00\n        /* \"#utility.yul\":6594:6596   */\n      0x20\n        /* \"#utility.yul\":6583:6592   */\n      dup3\n        /* \"#utility.yul\":6579:6597   */\n      add\n        /* \"#utility.yul\":6571:6597   */\n      swap1\n      pop\n        /* \"#utility.yul\":6643:6652   */\n      dup2\n        /* \"#utility.yul\":6637:6641   */\n      dup2\n        /* \"#utility.yul\":6633:6653   */\n      sub\n        /* \"#utility.yul\":6629:6630   */\n      0x00\n        /* \"#utility.yul\":6618:6627   */\n      dup4\n        /* \"#utility.yul\":6614:6631   */\n      add\n        /* \"#utility.yul\":6607:6654   */\n      mstore\n        /* \"#utility.yul\":6671:6802   */\n      tag_191\n        /* \"#utility.yul\":6797:6801   */\n      dup2\n        /* \"#utility.yul\":6671:6802   */\n      tag_119\n      jump\t// in\n    tag_191:\n        /* \"#utility.yul\":6663:6802   */\n      swap1\n      pop\n        /* \"#utility.yul\":6390:6809   */\n      swap2\n      swap1\n      pop\n      jump\t// out\n        /* \"#utility.yul\":6815:6995   */\n    tag_120:\n        /* \"#utility.yul\":6863:6940   */\n      0x4e487b7100000000000000000000000000000000000000000000000000000000\n        /* \"#utility.yul\":6860:6861   */\n      0x00\n        /* \"#utility.yul\":6853:6941   */\n      mstore\n        /* \"#utility.yul\":6960:6964   */\n      0x11\n        /* \"#utility.yul\":6957:6958   */\n      0x04\n        /* \"#utility.yul\":6950:6965   */\n      mstore\n        /* \"#utility.yul\":6984:6988   */\n      0x24\n        /* \"#utility.yul\":6981:6982   */\n      0x00\n        /* \"#utility.yul\":6974:6989   */\n      revert\n        /* \"#utility.yul\":7001:7192   */\n    tag_78:\n        /* \"#utility.yul\":7041:7044   */\n      0x00\n        /* \"#utility.yul\":7060:7080   */\n      tag_194\n        /* \"#utility.yul\":7078:7079   */\n      dup3\n        /* \"#utility.yul\":7060:7080   */\n      tag_109\n      jump\t// in\n    tag_194:\n        /* \"#utility.yul\":7055:7080   */\n      swap2\n      pop\n        /* \"#utility.yul\":7094:7114   */\n      tag_195\n        /* \"#utility.yul\":7112:7113   */\n      dup4\n        /* \"#utility.yul\":7094:7114   */\n      tag_109\n      jump\t// in\n    tag_195:\n        /* \"#utility.yul\":7089:7114   */\n      swap3\n      pop\n        /* \"#utility.yul\":7137:7138   */\n      dup3\n        /* \"#utility.yul\":7134:7135   */\n      dup3\n        /* \"#utility.yul\":7130:7139   */\n      add\n        /* \"#utility.yul\":7123:7139   */\n      swap1\n      pop\n        /* \"#utility.yul\":7158:7161   */\n      dup1\n        /* \"#utility.yul\":7155:7156   */\n      dup3\n        /* \"#utility.yul\":7152:7162   */\n      gt\n        /* \"#utility.yul\":7149:7185   */\n      iszero\n      tag_196\n      jumpi\n        /* \"#utility.yul\":7165:7183   */\n      tag_197\n      tag_120\n      jump\t// in\n    tag_197:\n        /* \"#utility.yul\":7149:7185   */\n    tag_196:\n        /* \"#utility.yul\":7001:7192   */\n      swap3\n      swap2\n      pop\n      pop\n      jump\t// out\n        /* \"#utility.yul\":7198:7358   */\n    tag_121:\n        /* \"#utility.yul\":7338:7350   */\n      0x6e6f742073656c6c657200000000000000000000000000000000000000000000\n        /* \"#utility.yul\":7334:7335   */\n      0x00\n        /* \"#utility.yul\":7326:7332   */\n      dup3\n        /* \"#utility.yul\":7322:7336   */\n      add\n        /* \"#utility.yul\":7315:7351   */\n      mstore\n        /* \"#utility.yul\":7198:7358   */\n      pop\n      jump\t// out\n        /* \"#utility.yul\":7364:7730   */\n    tag_122:\n        /* \"#utility.yul\":7506:7509   */\n      0x00\n        /* \"#utility.yul\":7527:7594   */\n      tag_200\n        /* \"#utility.yul\":7591:7593   */\n      0x0a\n        /* \"#utility.yul\":7586:7589   */\n      dup4\n        /* \"#utility.yul\":7527:7594   */\n      tag_113\n      jump\t// in\n    tag_200:\n        /* \"#utility.yul\":7520:7594   */\n      swap2\n      pop\n        /* \"#utility.yul\":7603:7696   */\n      tag_201\n        /* \"#utility.yul\":7692:7695   */\n      dup3\n        /* \"#utility.yul\":7603:7696   */\n      tag_121\n      jump\t// in\n    tag_201:\n        /* \"#utility.yul\":7721:7723   */\n      0x20\n        /* \"#utility.yul\":7716:7719   */\n      dup3\n        /* \"#utility.yul\":7712:7724   */\n      add\n        /* \"#utility.yul\":7705:7724   */\n      swap1\n      pop\n        /* \"#utility.yul\":7364:7730   */\n      swap2\n      swap1\n      pop\n      jump\t// out\n        /* \"#utility.yul\":7736:8155   */\n    tag_84:\n        /* \"#utility.yul\":7902:7906   */\n      0x00\n        /* \"#utility.yul\":7940:7942   */\n      0x20\n        /* \"#utility.yul\":7929:7938   */\n      dup3\n        /* \"#utility.yul\":7925:7943   */\n      add\n        /* \"#utility.yul\":7917:7943   */\n      swap1\n      pop\n        /* \"#utility.yul\":7989:7998   */\n      dup2\n        /* \"#utility.yul\":7983:7987   */\n      dup2\n        /* \"#utility.yul\":7979:7999   */\n      sub\n        /* \"#utility.yul\":7975:7976   */\n      0x00\n        /* \"#utility.yul\":7964:7973   */\n      dup4\n        /* \"#utility.yul\":7960:7977   */\n      add\n        /* \"#utility.yul\":7953:8000   */\n      mstore\n        /* \"#utility.yul\":8017:8148   */\n      tag_203\n        /* \"#utility.yul\":8143:8147   */\n      dup2\n        /* \"#utility.yul\":8017:8148   */\n      tag_122\n      jump\t// in\n    tag_203:\n        /* \"#utility.yul\":8009:8148   */\n      swap1\n      pop\n        /* \"#utility.yul\":7736:8155   */\n      swap2\n      swap1\n      pop\n      jump\t// out\n        /* \"#utility.yul\":8161:8318   */\n    tag_123:\n        /* \"#utility.yul\":8301:8310   */\n      0x7374617274656400000000000000000000000000000000000000000000000000\n        /* \"#utility.yul\":8297:8298   */\n      0x00\n        /* \"#utility.yul\":8289:8295   */\n      dup3\n        /* \"#utility.yul\":8285:8299   */\n      add\n        /* \"#utility.yul\":8278:8311   */\n      mstore\n        /* \"#utility.yul\":8161:8318   */\n      pop\n      jump\t// out\n        /* \"#utility.yul\":8324:8689   */\n    tag_124:\n        /* \"#utility.yul\":8466:8469   */\n      0x00\n        /* \"#utility.yul\":8487:8553   */\n      tag_206\n        /* \"#utility.yul\":8551:8552   */\n      0x07\n        /* \"#utility.yul\":8546:8549   */\n      dup4\n        /* \"#utility.yul\":8487:8553   */\n      tag_113\n      jump\t// in\n    tag_206:\n        /* \"#utility.yul\":8480:8553   */\n      swap2\n      pop\n        /* \"#utility.yul\":8562:8655   */\n      tag_207\n        /* \"#utility.yul\":8651:8654   */\n      dup3\n        /* \"#utility.yul\":8562:8655   */\n      tag_123\n      jump\t// in\n    tag_207:\n        /* \"#utility.yul\":8680:8682   */\n      0x20\n        /* \"#utility.yul\":8675:8678   */\n      dup3\n        /* \"#utility.yul\":8671:8683   */\n      add\n        /* \"#utility.yul\":8664:8683   */\n      swap1\n      pop\n        /* \"#utility.yul\":8324:8689   */\n      swap2\n      swap1\n      pop\n      jump\t// out\n        /* \"#utility.yul\":8695:9114   */\n    tag_87:\n        /* \"#utility.yul\":8861:8865   */\n      0x00\n        /* \"#utility.yul\":8899:8901   */\n      0x20\n        /* \"#utility.yul\":8888:8897   */\n      dup3\n        /* \"#utility.yul\":8884:8902   */\n      add\n        /* \"#utility.yul\":8876:8902   */\n      swap1\n      pop\n        /* \"#utility.yul\":8948:8957   */\n      dup2\n        /* \"#utility.yul\":8942:8946   */\n      dup2\n        /* \"#utility.yul\":8938:8958   */\n      sub\n        /* \"#utility.yul\":8934:8935   */\n      0x00\n        /* \"#utility.yul\":8923:8932   */\n      dup4\n        /* \"#utility.yul\":8919:8936   */\n      add\n        /* \"#utility.yul\":8912:8959   */\n      mstore\n        /* \"#utility.yul\":8976:9107   */\n      tag_209\n        /* \"#utility.yul\":9102:9106   */\n      dup2\n        /* \"#utility.yul\":8976:9107   */\n      tag_124\n      jump\t// in\n    tag_209:\n        /* \"#utility.yul\":8968:9107   */\n      swap1\n      pop\n        /* \"#utility.yul\":8695:9114   */\n      swap2\n      swap1\n      pop\n      jump\t// out\n        /* \"#utility.yul\":9120:9562   */\n    tag_90:\n        /* \"#utility.yul\":9269:9273   */\n      0x00\n        /* \"#utility.yul\":9307:9309   */\n      0x60\n        /* \"#utility.yul\":9296:9305   */\n      dup3\n        /* \"#utility.yul\":9292:9310   */\n      add\n        /* \"#utility.yul\":9284:9310   */\n      swap1\n      pop\n        /* \"#utility.yul\":9320:9391   */\n      tag_211\n        /* \"#utility.yul\":9388:9389   */\n      0x00\n        /* \"#utility.yul\":9377:9386   */\n      dup4\n        /* \"#utility.yul\":9373:9390   */\n      add\n        /* \"#utility.yul\":9364:9370   */\n      dup7\n        /* \"#utility.yul\":9320:9391   */\n      tag_96\n      jump\t// in\n    tag_211:\n        /* \"#utility.yul\":9401:9473   */\n      tag_212\n        /* \"#utility.yul\":9469:9471   */\n      0x20\n        /* \"#utility.yul\":9458:9467   */\n      dup4\n        /* \"#utility.yul\":9454:9472   */\n      add\n        /* \"#utility.yul\":9445:9451   */\n      dup6\n        /* \"#utility.yul\":9401:9473   */\n      tag_96\n      jump\t// in\n    tag_212:\n        /* \"#utility.yul\":9483:9555   */\n      tag_213\n        /* \"#utility.yul\":9551:9553   */\n      0x40\n        /* \"#utility.yul\":9540:9549   */\n      dup4\n        /* \"#utility.yul\":9536:9554   */\n      add\n        /* \"#utility.yul\":9527:9533   */\n      dup5\n        /* \"#utility.yul\":9483:9555   */\n      tag_110\n      jump\t// in\n    tag_213:\n        /* \"#utility.yul\":9120:9562   */\n      swap5\n      swap4\n      pop\n      pop\n      pop\n      pop\n      jump\t// out\n\n    auxdata: 0xa2646970667358221220f19d1c0ca928dd94e7abfc960f3de8ea0692254796111f6459422c22a56c2dbc64736f6c63430008110033\n}\n",
				"bytecode": {
					"linkReferences": {},
					"object": "60e06040523480156200001157600080fd5b5060405162000f3d38038062000f3d83398181016040528101906200003791906200015c565b8273ffffffffffffffffffffffffffffffffffffffff1660808173ffffffffffffffffffffffffffffffffffffffff16815250508160a081815250503373ffffffffffffffffffffffffffffffffffffffff1660c08173ffffffffffffffffffffffffffffffffffffffff168152505080600181905550505050620001b8565b600080fd5b600073ffffffffffffffffffffffffffffffffffffffff82169050919050565b6000620000e982620000bc565b9050919050565b620000fb81620000dc565b81146200010757600080fd5b50565b6000815190506200011b81620000f0565b92915050565b6000819050919050565b620001368162000121565b81146200014257600080fd5b50565b60008151905062000156816200012b565b92915050565b600080600060608486031215620001785762000177620000b7565b5b600062000188868287016200010a565b93505060206200019b8682870162000145565b9250506040620001ae8682870162000145565b9150509250925092565b60805160a05160c051610d39620002046000396000818161027b0152818161061a015261077b01526000818161079d015261083c0152600081816105a4015261073f0152610d396000f3fe6080604052600436106100a75760003560e01c806362ea82db1161006457806362ea82db146101795780637cc3ae8c146101b657806391f90157146101e1578063be9a65551461020c578063c6bc518214610223578063d57bde791461024e576100a7565b806308551a53146100ac57806312fa6feb146100d75780631998aeef146101025780631f2698ab1461010c5780633ccfd60b1461013757806347ccca021461014e575b600080fd5b3480156100b857600080fd5b506100c1610279565b6040516100ce91906108a5565b60405180910390f35b3480156100e357600080fd5b506100ec61029d565b6040516100f991906108db565b60405180910390f35b61010a6102b0565b005b34801561011857600080fd5b50610121610503565b60405161012e91906108db565b60405180910390f35b34801561014357600080fd5b5061014c610516565b005b34801561015a57600080fd5b506101636105a2565b6040516101709190610955565b60405180910390f35b34801561018557600080fd5b506101a0600480360381019061019b91906109a1565b6105c6565b6040516101ad91906109e7565b60405180910390f35b3480156101c257600080fd5b506101cb6105de565b6040516101d89190610a21565b60405180910390f35b3480156101ed57600080fd5b506101f66105f2565b60405161020391906108a5565b60405180910390f35b34801561021857600080fd5b50610221610618565b005b34801561022f57600080fd5b5061023861083a565b60405161024591906109e7565b60405180910390f35b34801561025a57600080fd5b5061026361085e565b60405161027091906109e7565b60405180910390f35b7f000000000000000000000000000000000000000000000000000000000000000081565b600060059054906101000a900460ff1681565b600060049054906101000a900460ff166102ff576040517f08c379a00000000000000000000000000000000000000000000000000000000081526004016102f690610a99565b60405180910390fd5b60008054906101000a900463ffffffff1663ffffffff164210610357576040517f08c379a000000000000000000000000000000000000000000000000000000000815260040161034e90610b05565b60405180910390fd5b600154341161039b576040517f08c379a000000000000000000000000000000000000000000000000000000000815260040161039290610b71565b60405180910390fd5b600073ffffffffffffffffffffffffffffffffffffffff16600060069054906101000a900473ffffffffffffffffffffffffffffffffffffffff1673ffffffffffffffffffffffffffffffffffffffff161461046b57600154600260008060069054906101000a900473ffffffffffffffffffffffffffffffffffffffff1673ffffffffffffffffffffffffffffffffffffffff1673ffffffffffffffffffffffffffffffffffffffff16815260200190815260200160002060008282546104639190610bc0565b925050819055505b3460018190555033600060066101000a81548173ffffffffffffffffffffffffffffffffffffffff021916908373ffffffffffffffffffffffffffffffffffffffff1602179055503373ffffffffffffffffffffffffffffffffffffffff167fe684a55f31b79eca403df938249029212a5925ec6be8012e099b45bc1019e5d2346040516104f991906109e7565b60405180910390a2565b600060049054906101000a900460ff1681565b6000600260003373ffffffffffffffffffffffffffffffffffffffff1673ffffffffffffffffffffffffffffffffffffffff1681526020019081526020016000205490506000600260003373ffffffffffffffffffffffffffffffffffffffff1673ffffffffffffffffffffffffffffffffffffffff1681526020019081526020016000208190555050565b7f000000000000000000000000000000000000000000000000000000000000000081565b60026020528060005260406000206000915090505481565b60008054906101000a900463ffffffff1681565b600060069054906101000a900473ffffffffffffffffffffffffffffffffffffffff1681565b7f000000000000000000000000000000000000000000000000000000000000000073ffffffffffffffffffffffffffffffffffffffff163373ffffffffffffffffffffffffffffffffffffffff16146106a6576040517f08c379a000000000000000000000000000000000000000000000000000000000815260040161069d90610c40565b60405180910390fd5b600060049054906101000a900460ff16156106f6576040517f08c379a00000000000000000000000000000000000000000000000000000000081526004016106ed90610cac565b60405180910390fd5b6001600060046101000a81548160ff021916908315150217905550603c4261071e9190610bc0565b6000806101000a81548163ffffffff021916908363ffffffff1602179055507f000000000000000000000000000000000000000000000000000000000000000073ffffffffffffffffffffffffffffffffffffffff166323b872dd7f0000000000000000000000000000000000000000000000000000000000000000307f00000000000000000000000000000000000000000000000000000000000000006040518463ffffffff1660e01b81526004016107da93929190610ccc565b600060405180830381600087803b1580156107f457600080fd5b505af1158015610808573d6000803e3d6000fd5b505050507f1b55ba3aa851a46be3b365aee5b5c140edd620d578922f3e8466d2cbd96f954b60405160405180910390a1565b7f000000000000000000000000000000000000000000000000000000000000000081565b60015481565b600073ffffffffffffffffffffffffffffffffffffffff82169050919050565b600061088f82610864565b9050919050565b61089f81610884565b82525050565b60006020820190506108ba6000830184610896565b92915050565b60008115159050919050565b6108d5816108c0565b82525050565b60006020820190506108f060008301846108cc565b92915050565b6000819050919050565b600061091b61091661091184610864565b6108f6565b610864565b9050919050565b600061092d82610900565b9050919050565b600061093f82610922565b9050919050565b61094f81610934565b82525050565b600060208201905061096a6000830184610946565b92915050565b600080fd5b61097e81610884565b811461098957600080fd5b50565b60008135905061099b81610975565b92915050565b6000602082840312156109b7576109b6610970565b5b60006109c58482850161098c565b91505092915050565b6000819050919050565b6109e1816109ce565b82525050565b60006020820190506109fc60008301846109d8565b92915050565b600063ffffffff82169050919050565b610a1b81610a02565b82525050565b6000602082019050610a366000830184610a12565b92915050565b600082825260208201905092915050565b7f6e6f742073746172746564000000000000000000000000000000000000000000600082015250565b6000610a83600b83610a3c565b9150610a8e82610a4d565b602082019050919050565b60006020820190508181036000830152610ab281610a76565b9050919050565b7f656e646564000000000000000000000000000000000000000000000000000000600082015250565b6000610aef600583610a3c565b9150610afa82610ab9565b602082019050919050565b60006020820190508181036000830152610b1e81610ae2565b9050919050565b7f76616c7565203c20686967686573742062696400000000000000000000000000600082015250565b6000610b5b601383610a3c565b9150610b6682610b25565b602082019050919050565b60006020820190508181036000830152610b8a81610b4e565b9050919050565b7f4e487b7100000000000000000000000000000000000000000000000000000000600052601160045260246000fd5b6000610bcb826109ce565b9150610bd6836109ce565b9250828201905080821115610bee57610bed610b91565b5b92915050565b7f6e6f742073656c6c657200000000000000000000000000000000000000000000600082015250565b6000610c2a600a83610a3c565b9150610c3582610bf4565b602082019050919050565b60006020820190508181036000830152610c5981610c1d565b9050919050565b7f7374617274656400000000000000000000000000000000000000000000000000600082015250565b6000610c96600783610a3c565b9150610ca182610c60565b602082019050919050565b60006020820190508181036000830152610cc581610c89565b9050919050565b6000606082019050610ce16000830186610896565b610cee6020830185610896565b610cfb60408301846109d8565b94935050505056fea2646970667358221220f19d1c0ca928dd94e7abfc960f3de8ea0692254796111f6459422c22a56c2dbc64736f6c63430008110033",
					"opcodes": "PUSH1 0xE0 PUSH1 0x40 MSTORE CALLVALUE DUP1 ISZERO PUSH3 0x11 JUMPI PUSH1 0x0 DUP1 REVERT JUMPDEST POP PUSH1 0x40 MLOAD PUSH3 0xF3D CODESIZE SUB DUP1 PUSH3 0xF3D DUP4 CODECOPY DUP2 DUP2 ADD PUSH1 0x40 MSTORE DUP2 ADD SWAP1 PUSH3 0x37 SWAP2 SWAP1 PUSH3 0x15C JUMP JUMPDEST DUP3 PUSH20 0xFFFFFFFFFFFFFFFFFFFFFFFFFFFFFFFFFFFFFFFF AND PUSH1 0x80 DUP2 PUSH20 0xFFFFFFFFFFFFFFFFFFFFFFFFFFFFFFFFFFFFFFFF AND DUP2 MSTORE POP POP DUP2 PUSH1 0xA0 DUP2 DUP2 MSTORE POP POP CALLER PUSH20 0xFFFFFFFFFFFFFFFFFFFFFFFFFFFFFFFFFFFFFFFF AND PUSH1 0xC0 DUP2 PUSH20 0xFFFFFFFFFFFFFFFFFFFFFFFFFFFFFFFFFFFFFFFF AND DUP2 MSTORE POP POP DUP1 PUSH1 0x1 DUP2 SWAP1 SSTORE POP POP POP POP PUSH3 0x1B8 JUMP JUMPDEST PUSH1 0x0 DUP1 REVERT JUMPDEST PUSH1 0x0 PUSH20 0xFFFFFFFFFFFFFFFFFFFFFFFFFFFFFFFFFFFFFFFF DUP3 AND SWAP1 POP SWAP2 SWAP1 POP JUMP JUMPDEST PUSH1 0x0 PUSH3 0xE9 DUP3 PUSH3 0xBC JUMP JUMPDEST SWAP1 POP SWAP2 SWAP1 POP JUMP JUMPDEST PUSH3 0xFB DUP2 PUSH3 0xDC JUMP JUMPDEST DUP2 EQ PUSH3 0x107 JUMPI PUSH1 0x0 DUP1 REVERT JUMPDEST POP JUMP JUMPDEST PUSH1 0x0 DUP2 MLOAD SWAP1 POP PUSH3 0x11B DUP2 PUSH3 0xF0 JUMP JUMPDEST SWAP3 SWAP2 POP POP JUMP JUMPDEST PUSH1 0x0 DUP2 SWAP1 POP SWAP2 SWAP1 POP JUMP JUMPDEST PUSH3 0x136 DUP2 PUSH3 0x121 JUMP JUMPDEST DUP2 EQ PUSH3 0x142 JUMPI PUSH1 0x0 DUP1 REVERT JUMPDEST POP JUMP JUMPDEST PUSH1 0x0 DUP2 MLOAD SWAP1 POP PUSH3 0x156 DUP2 PUSH3 0x12B JUMP JUMPDEST SWAP3 SWAP2 POP POP JUMP JUMPDEST PUSH1 0x0 DUP1 PUSH1 0x0 PUSH1 0x60 DUP5 DUP7 SUB SLT ISZERO PUSH3 0x178 JUMPI PUSH3 0x177 PUSH3 0xB7 JUMP JUMPDEST JUMPDEST PUSH1 0x0 PUSH3 0x188 DUP7 DUP3 DUP8 ADD PUSH3 0x10A JUMP JUMPDEST SWAP4 POP POP PUSH1 0x20 PUSH3 0x19B DUP7 DUP3 DUP8 ADD PUSH3 0x145 JUMP JUMPDEST SWAP3 POP POP PUSH1 0x40 PUSH3 0x1AE DUP7 DUP3 DUP8 ADD PUSH3 0x145 JUMP JUMPDEST SWAP2 POP POP SWAP3 POP SWAP3 POP SWAP3 JUMP JUMPDEST PUSH1 0x80 MLOAD PUSH1 0xA0 MLOAD PUSH1 0xC0 MLOAD PUSH2 0xD39 PUSH3 0x204 PUSH1 0x0 CODECOPY PUSH1 0x0 DUP2 DUP2 PUSH2 0x27B ADD MSTORE DUP2 DUP2 PUSH2 0x61A ADD MSTORE PUSH2 0x77B ADD MSTORE PUSH1 0x0 DUP2 DUP2 PUSH2 0x79D ADD MSTORE PUSH2 0x83C ADD MSTORE PUSH1 0x0 DUP2 DUP2 PUSH2 0x5A4 ADD MSTORE PUSH2 0x73F ADD MSTORE PUSH2 0xD39 PUSH1 0x0 RETURN INVALID PUSH1 0x80 PUSH1 0x40 MSTORE PUSH1 0x4 CALLDATASIZE LT PUSH2 0xA7 JUMPI PUSH1 0x0 CALLDATALOAD PUSH1 0xE0 SHR DUP1 PUSH4 0x62EA82DB GT PUSH2 0x64 JUMPI DUP1 PUSH4 0x62EA82DB EQ PUSH2 0x179 JUMPI DUP1 PUSH4 0x7CC3AE8C EQ PUSH2 0x1B6 JUMPI DUP1 PUSH4 0x91F90157 EQ PUSH2 0x1E1 JUMPI DUP1 PUSH4 0xBE9A6555 EQ PUSH2 0x20C JUMPI DUP1 PUSH4 0xC6BC5182 EQ PUSH2 0x223 JUMPI DUP1 PUSH4 0xD57BDE79 EQ PUSH2 0x24E JUMPI PUSH2 0xA7 JUMP JUMPDEST DUP1 PUSH4 0x8551A53 EQ PUSH2 0xAC JUMPI DUP1 PUSH4 0x12FA6FEB EQ PUSH2 0xD7 JUMPI DUP1 PUSH4 0x1998AEEF EQ PUSH2 0x102 JUMPI DUP1 PUSH4 0x1F2698AB EQ PUSH2 0x10C JUMPI DUP1 PUSH4 0x3CCFD60B EQ PUSH2 0x137 JUMPI DUP1 PUSH4 0x47CCCA02 EQ PUSH2 0x14E JUMPI JUMPDEST PUSH1 0x0 DUP1 REVERT JUMPDEST CALLVALUE DUP1 ISZERO PUSH2 0xB8 JUMPI PUSH1 0x0 DUP1 REVERT JUMPDEST POP PUSH2 0xC1 PUSH2 0x279 JUMP JUMPDEST PUSH1 0x40 MLOAD PUSH2 0xCE SWAP2 SWAP1 PUSH2 0x8A5 JUMP JUMPDEST PUSH1 0x40 MLOAD DUP1 SWAP2 SUB SWAP1 RETURN JUMPDEST CALLVALUE DUP1 ISZERO PUSH2 0xE3 JUMPI PUSH1 0x0 DUP1 REVERT JUMPDEST POP PUSH2 0xEC PUSH2 0x29D JUMP JUMPDEST PUSH1 0x40 MLOAD PUSH2 0xF9 SWAP2 SWAP1 PUSH2 0x8DB JUMP JUMPDEST PUSH1 0x40 MLOAD DUP1 SWAP2 SUB SWAP1 RETURN JUMPDEST PUSH2 0x10A PUSH2 0x2B0 JUMP JUMPDEST STOP JUMPDEST CALLVALUE DUP1 ISZERO PUSH2 0x118 JUMPI PUSH1 0x0 DUP1 REVERT JUMPDEST POP PUSH2 0x121 PUSH2 0x503 JUMP JUMPDEST PUSH1 0x40 MLOAD PUSH2 0x12E SWAP2 SWAP1 PUSH2 0x8DB JUMP JUMPDEST PUSH1 0x40 MLOAD DUP1 SWAP2 SUB SWAP1 RETURN JUMPDEST CALLVALUE DUP1 ISZERO PUSH2 0x143 JUMPI PUSH1 0x0 DUP1 REVERT JUMPDEST POP PUSH2 0x14C PUSH2 0x516 JUMP JUMPDEST STOP JUMPDEST CALLVALUE DUP1 ISZERO PUSH2 0x15A JUMPI PUSH1 0x0 DUP1 REVERT JUMPDEST POP PUSH2 0x163 PUSH2 0x5A2 JUMP JUMPDEST PUSH1 0x40 MLOAD PUSH2 0x170 SWAP2 SWAP1 PUSH2 0x955 JUMP JUMPDEST PUSH1 0x40 MLOAD DUP1 SWAP2 SUB SWAP1 RETURN JUMPDEST CALLVALUE DUP1 ISZERO PUSH2 0x185 JUMPI PUSH1 0x0 DUP1 REVERT JUMPDEST POP PUSH2 0x1A0 PUSH1 0x4 DUP1 CALLDATASIZE SUB DUP2 ADD SWAP1 PUSH2 0x19B SWAP2 SWAP1 PUSH2 0x9A1 JUMP JUMPDEST PUSH2 0x5C6 JUMP JUMPDEST PUSH1 0x40 MLOAD PUSH2 0x1AD SWAP2 SWAP1 PUSH2 0x9E7 JUMP JUMPDEST PUSH1 0x40 MLOAD DUP1 SWAP2 SUB SWAP1 RETURN JUMPDEST CALLVALUE DUP1 ISZERO PUSH2 0x1C2 JUMPI PUSH1 0x0 DUP1 REVERT JUMPDEST POP PUSH2 0x1CB PUSH2 0x5DE JUMP JUMPDEST PUSH1 0x40 MLOAD PUSH2 0x1D8 SWAP2 SWAP1 PUSH2 0xA21 JUMP JUMPDEST PUSH1 0x40 MLOAD DUP1 SWAP2 SUB SWAP1 RETURN JUMPDEST CALLVALUE DUP1 ISZERO PUSH2 0x1ED JUMPI PUSH1 0x0 DUP1 REVERT JUMPDEST POP PUSH2 0x1F6 PUSH2 0x5F2 JUMP JUMPDEST PUSH1 0x40 MLOAD PUSH2 0x203 SWAP2 SWAP1 PUSH2 0x8A5 JUMP JUMPDEST PUSH1 0x40 MLOAD DUP1 SWAP2 SUB SWAP1 RETURN JUMPDEST CALLVALUE DUP1 ISZERO PUSH2 0x218 JUMPI PUSH1 0x0 DUP1 REVERT JUMPDEST POP PUSH2 0x221 PUSH2 0x618 JUMP JUMPDEST STOP JUMPDEST CALLVALUE DUP1 ISZERO PUSH2 0x22F JUMPI PUSH1 0x0 DUP1 REVERT JUMPDEST POP PUSH2 0x238 PUSH2 0x83A JUMP JUMPDEST PUSH1 0x40 MLOAD PUSH2 0x245 SWAP2 SWAP1 PUSH2 0x9E7 JUMP JUMPDEST PUSH1 0x40 MLOAD DUP1 SWAP2 SUB SWAP1 RETURN JUMPDEST CALLVALUE DUP1 ISZERO PUSH2 0x25A JUMPI PUSH1 0x0 DUP1 REVERT JUMPDEST POP PUSH2 0x263 PUSH2 0x85E JUMP JUMPDEST PUSH1 0x40 MLOAD PUSH2 0x270 SWAP2 SWAP1 PUSH2 0x9E7 JUMP JUMPDEST PUSH1 0x40 MLOAD DUP1 SWAP2 SUB SWAP1 RETURN JUMPDEST PUSH32 0x0 DUP2 JUMP JUMPDEST PUSH1 0x0 PUSH1 0x5 SWAP1 SLOAD SWAP1 PUSH2 0x100 EXP SWAP1 DIV PUSH1 0xFF AND DUP2 JUMP JUMPDEST PUSH1 0x0 PUSH1 0x4 SWAP1 SLOAD SWAP1 PUSH2 0x100 EXP SWAP1 DIV PUSH1 0xFF AND PUSH2 0x2FF JUMPI PUSH1 0x40 MLOAD PUSH32 0x8C379A000000000000000000000000000000000000000000000000000000000 DUP2 MSTORE PUSH1 0x4 ADD PUSH2 0x2F6 SWAP1 PUSH2 0xA99 JUMP JUMPDEST PUSH1 0x40 MLOAD DUP1 SWAP2 SUB SWAP1 REVERT JUMPDEST PUSH1 0x0 DUP1 SLOAD SWAP1 PUSH2 0x100 EXP SWAP1 DIV PUSH4 0xFFFFFFFF AND PUSH4 0xFFFFFFFF AND TIMESTAMP LT PUSH2 0x357 JUMPI PUSH1 0x40 MLOAD PUSH32 0x8C379A000000000000000000000000000000000000000000000000000000000 DUP2 MSTORE PUSH1 0x4 ADD PUSH2 0x34E SWAP1 PUSH2 0xB05 JUMP JUMPDEST PUSH1 0x40 MLOAD DUP1 SWAP2 SUB SWAP1 REVERT JUMPDEST PUSH1 0x1 SLOAD CALLVALUE GT PUSH2 0x39B JUMPI PUSH1 0x40 MLOAD PUSH32 0x8C379A000000000000000000000000000000000000000000000000000000000 DUP2 MSTORE PUSH1 0x4 ADD PUSH2 0x392 SWAP1 PUSH2 0xB71 JUMP JUMPDEST PUSH1 0x40 MLOAD DUP1 SWAP2 SUB SWAP1 REVERT JUMPDEST PUSH1 0x0 PUSH20 0xFFFFFFFFFFFFFFFFFFFFFFFFFFFFFFFFFFFFFFFF AND PUSH1 0x0 PUSH1 0x6 SWAP1 SLOAD SWAP1 PUSH2 0x100 EXP SWAP1 DIV PUSH20 0xFFFFFFFFFFFFFFFFFFFFFFFFFFFFFFFFFFFFFFFF AND PUSH20 0xFFFFFFFFFFFFFFFFFFFFFFFFFFFFFFFFFFFFFFFF AND EQ PUSH2 0x46B JUMPI PUSH1 0x1 SLOAD PUSH1 0x2 PUSH1 0x0 DUP1 PUSH1 0x6 SWAP1 SLOAD SWAP1 PUSH2 0x100 EXP SWAP1 DIV PUSH20 0xFFFFFFFFFFFFFFFFFFFFFFFFFFFFFFFFFFFFFFFF AND PUSH20 0xFFFFFFFFFFFFFFFFFFFFFFFFFFFFFFFFFFFFFFFF AND PUSH20 0xFFFFFFFFFFFFFFFFFFFFFFFFFFFFFFFFFFFFFFFF AND DUP2 MSTORE PUSH1 0x20 ADD SWAP1 DUP2 MSTORE PUSH1 0x20 ADD PUSH1 0x0 KECCAK256 PUSH1 0x0 DUP3 DUP3 SLOAD PUSH2 0x463 SWAP2 SWAP1 PUSH2 0xBC0 JUMP JUMPDEST SWAP3 POP POP DUP2 SWAP1 SSTORE POP JUMPDEST CALLVALUE PUSH1 0x1 DUP2 SWAP1 SSTORE POP CALLER PUSH1 0x0 PUSH1 0x6 PUSH2 0x100 EXP DUP2 SLOAD DUP2 PUSH20 0xFFFFFFFFFFFFFFFFFFFFFFFFFFFFFFFFFFFFFFFF MUL NOT AND SWAP1 DUP4 PUSH20 0xFFFFFFFFFFFFFFFFFFFFFFFFFFFFFFFFFFFFFFFF AND MUL OR SWAP1 SSTORE POP CALLER PUSH20 0xFFFFFFFFFFFFFFFFFFFFFFFFFFFFFFFFFFFFFFFF AND PUSH32 0xE684A55F31B79ECA403DF938249029212A5925EC6BE8012E099B45BC1019E5D2 CALLVALUE PUSH1 0x40 MLOAD PUSH2 0x4F9 SWAP2 SWAP1 PUSH2 0x9E7 JUMP JUMPDEST PUSH1 0x40 MLOAD DUP1 SWAP2 SUB SWAP1 LOG2 JUMP JUMPDEST PUSH1 0x0 PUSH1 0x4 SWAP1 SLOAD SWAP1 PUSH2 0x100 EXP SWAP1 DIV PUSH1 0xFF AND DUP2 JUMP JUMPDEST PUSH1 0x0 PUSH1 0x2 PUSH1 0x0 CALLER PUSH20 0xFFFFFFFFFFFFFFFFFFFFFFFFFFFFFFFFFFFFFFFF AND PUSH20 0xFFFFFFFFFFFFFFFFFFFFFFFFFFFFFFFFFFFFFFFF AND DUP2 MSTORE PUSH1 0x20 ADD SWAP1 DUP2 MSTORE PUSH1 0x20 ADD PUSH1 0x0 KECCAK256 SLOAD SWAP1 POP PUSH1 0x0 PUSH1 0x2 PUSH1 0x0 CALLER PUSH20 0xFFFFFFFFFFFFFFFFFFFFFFFFFFFFFFFFFFFFFFFF AND PUSH20 0xFFFFFFFFFFFFFFFFFFFFFFFFFFFFFFFFFFFFFFFF AND DUP2 MSTORE PUSH1 0x20 ADD SWAP1 DUP2 MSTORE PUSH1 0x20 ADD PUSH1 0x0 KECCAK256 DUP2 SWAP1 SSTORE POP POP JUMP JUMPDEST PUSH32 0x0 DUP2 JUMP JUMPDEST PUSH1 0x2 PUSH1 0x20 MSTORE DUP1 PUSH1 0x0 MSTORE PUSH1 0x40 PUSH1 0x0 KECCAK256 PUSH1 0x0 SWAP2 POP SWAP1 POP SLOAD DUP2 JUMP JUMPDEST PUSH1 0x0 DUP1 SLOAD SWAP1 PUSH2 0x100 EXP SWAP1 DIV PUSH4 0xFFFFFFFF AND DUP2 JUMP JUMPDEST PUSH1 0x0 PUSH1 0x6 SWAP1 SLOAD SWAP1 PUSH2 0x100 EXP SWAP1 DIV PUSH20 0xFFFFFFFFFFFFFFFFFFFFFFFFFFFFFFFFFFFFFFFF AND DUP2 JUMP JUMPDEST PUSH32 0x0 PUSH20 0xFFFFFFFFFFFFFFFFFFFFFFFFFFFFFFFFFFFFFFFF AND CALLER PUSH20 0xFFFFFFFFFFFFFFFFFFFFFFFFFFFFFFFFFFFFFFFF AND EQ PUSH2 0x6A6 JUMPI PUSH1 0x40 MLOAD PUSH32 0x8C379A000000000000000000000000000000000000000000000000000000000 DUP2 MSTORE PUSH1 0x4 ADD PUSH2 0x69D SWAP1 PUSH2 0xC40 JUMP JUMPDEST PUSH1 0x40 MLOAD DUP1 SWAP2 SUB SWAP1 REVERT JUMPDEST PUSH1 0x0 PUSH1 0x4 SWAP1 SLOAD SWAP1 PUSH2 0x100 EXP SWAP1 DIV PUSH1 0xFF AND ISZERO PUSH2 0x6F6 JUMPI PUSH1 0x40 MLOAD PUSH32 0x8C379A000000000000000000000000000000000000000000000000000000000 DUP2 MSTORE PUSH1 0x4 ADD PUSH2 0x6ED SWAP1 PUSH2 0xCAC JUMP JUMPDEST PUSH1 0x40 MLOAD DUP1 SWAP2 SUB SWAP1 REVERT JUMPDEST PUSH1 0x1 PUSH1 0x0 PUSH1 0x4 PUSH2 0x100 EXP DUP2 SLOAD DUP2 PUSH1 0xFF MUL NOT AND SWAP1 DUP4 ISZERO ISZERO MUL OR SWAP1 SSTORE POP PUSH1 0x3C TIMESTAMP PUSH2 0x71E SWAP2 SWAP1 PUSH2 0xBC0 JUMP JUMPDEST PUSH1 0x0 DUP1 PUSH2 0x100 EXP DUP2 SLOAD DUP2 PUSH4 0xFFFFFFFF MUL NOT AND SWAP1 DUP4 PUSH4 0xFFFFFFFF AND MUL OR SWAP1 SSTORE POP PUSH32 0x0 PUSH20 0xFFFFFFFFFFFFFFFFFFFFFFFFFFFFFFFFFFFFFFFF AND PUSH4 0x23B872DD PUSH32 0x0 ADDRESS PUSH32 0x0 PUSH1 0x40 MLOAD DUP5 PUSH4 0xFFFFFFFF AND PUSH1 0xE0 SHL DUP2 MSTORE PUSH1 0x4 ADD PUSH2 0x7DA SWAP4 SWAP3 SWAP2 SWAP1 PUSH2 0xCCC JUMP JUMPDEST PUSH1 0x0 PUSH1 0x40 MLOAD DUP1 DUP4 SUB DUP2 PUSH1 0x0 DUP8 DUP1 EXTCODESIZE ISZERO DUP1 ISZERO PUSH2 0x7F4 JUMPI PUSH1 0x0 DUP1 REVERT JUMPDEST POP GAS CALL ISZERO DUP1 ISZERO PUSH2 0x808 JUMPI RETURNDATASIZE PUSH1 0x0 DUP1 RETURNDATACOPY RETURNDATASIZE PUSH1 0x0 REVERT JUMPDEST POP POP POP POP PUSH32 0x1B55BA3AA851A46BE3B365AEE5B5C140EDD620D578922F3E8466D2CBD96F954B PUSH1 0x40 MLOAD PUSH1 0x40 MLOAD DUP1 SWAP2 SUB SWAP1 LOG1 JUMP JUMPDEST PUSH32 0x0 DUP2 JUMP JUMPDEST PUSH1 0x1 SLOAD DUP2 JUMP JUMPDEST PUSH1 0x0 PUSH20 0xFFFFFFFFFFFFFFFFFFFFFFFFFFFFFFFFFFFFFFFF DUP3 AND SWAP1 POP SWAP2 SWAP1 POP JUMP JUMPDEST PUSH1 0x0 PUSH2 0x88F DUP3 PUSH2 0x864 JUMP JUMPDEST SWAP1 POP SWAP2 SWAP1 POP JUMP JUMPDEST PUSH2 0x89F DUP2 PUSH2 0x884 JUMP JUMPDEST DUP3 MSTORE POP POP JUMP JUMPDEST PUSH1 0x0 PUSH1 0x20 DUP3 ADD SWAP1 POP PUSH2 0x8BA PUSH1 0x0 DUP4 ADD DUP5 PUSH2 0x896 JUMP JUMPDEST SWAP3 SWAP2 POP POP JUMP JUMPDEST PUSH1 0x0 DUP2 ISZERO ISZERO SWAP1 POP SWAP2 SWAP1 POP JUMP JUMPDEST PUSH2 0x8D5 DUP2 PUSH2 0x8C0 JUMP JUMPDEST DUP3 MSTORE POP POP JUMP JUMPDEST PUSH1 0x0 PUSH1 0x20 DUP3 ADD SWAP1 POP PUSH2 0x8F0 PUSH1 0x0 DUP4 ADD DUP5 PUSH2 0x8CC JUMP JUMPDEST SWAP3 SWAP2 POP POP JUMP JUMPDEST PUSH1 0x0 DUP2 SWAP1 POP SWAP2 SWAP1 POP JUMP JUMPDEST PUSH1 0x0 PUSH2 0x91B PUSH2 0x916 PUSH2 0x911 DUP5 PUSH2 0x864 JUMP JUMPDEST PUSH2 0x8F6 JUMP JUMPDEST PUSH2 0x864 JUMP JUMPDEST SWAP1 POP SWAP2 SWAP1 POP JUMP JUMPDEST PUSH1 0x0 PUSH2 0x92D DUP3 PUSH2 0x900 JUMP JUMPDEST SWAP1 POP SWAP2 SWAP1 POP JUMP JUMPDEST PUSH1 0x0 PUSH2 0x93F DUP3 PUSH2 0x922 JUMP JUMPDEST SWAP1 POP SWAP2 SWAP1 POP JUMP JUMPDEST PUSH2 0x94F DUP2 PUSH2 0x934 JUMP JUMPDEST DUP3 MSTORE POP POP JUMP JUMPDEST PUSH1 0x0 PUSH1 0x20 DUP3 ADD SWAP1 POP PUSH2 0x96A PUSH1 0x0 DUP4 ADD DUP5 PUSH2 0x946 JUMP JUMPDEST SWAP3 SWAP2 POP POP JUMP JUMPDEST PUSH1 0x0 DUP1 REVERT JUMPDEST PUSH2 0x97E DUP2 PUSH2 0x884 JUMP JUMPDEST DUP2 EQ PUSH2 0x989 JUMPI PUSH1 0x0 DUP1 REVERT JUMPDEST POP JUMP JUMPDEST PUSH1 0x0 DUP2 CALLDATALOAD SWAP1 POP PUSH2 0x99B DUP2 PUSH2 0x975 JUMP JUMPDEST SWAP3 SWAP2 POP POP JUMP JUMPDEST PUSH1 0x0 PUSH1 0x20 DUP3 DUP5 SUB SLT ISZERO PUSH2 0x9B7 JUMPI PUSH2 0x9B6 PUSH2 0x970 JUMP JUMPDEST JUMPDEST PUSH1 0x0 PUSH2 0x9C5 DUP5 DUP3 DUP6 ADD PUSH2 0x98C JUMP JUMPDEST SWAP2 POP POP SWAP3 SWAP2 POP POP JUMP JUMPDEST PUSH1 0x0 DUP2 SWAP1 POP SWAP2 SWAP1 POP JUMP JUMPDEST PUSH2 0x9E1 DUP2 PUSH2 0x9CE JUMP JUMPDEST DUP3 MSTORE POP POP JUMP JUMPDEST PUSH1 0x0 PUSH1 0x20 DUP3 ADD SWAP1 POP PUSH2 0x9FC PUSH1 0x0 DUP4 ADD DUP5 PUSH2 0x9D8 JUMP JUMPDEST SWAP3 SWAP2 POP POP JUMP JUMPDEST PUSH1 0x0 PUSH4 0xFFFFFFFF DUP3 AND SWAP1 POP SWAP2 SWAP1 POP JUMP JUMPDEST PUSH2 0xA1B DUP2 PUSH2 0xA02 JUMP JUMPDEST DUP3 MSTORE POP POP JUMP JUMPDEST PUSH1 0x0 PUSH1 0x20 DUP3 ADD SWAP1 POP PUSH2 0xA36 PUSH1 0x0 DUP4 ADD DUP5 PUSH2 0xA12 JUMP JUMPDEST SWAP3 SWAP2 POP POP JUMP JUMPDEST PUSH1 0x0 DUP3 DUP3 MSTORE PUSH1 0x20 DUP3 ADD SWAP1 POP SWAP3 SWAP2 POP POP JUMP JUMPDEST PUSH32 0x6E6F742073746172746564000000000000000000000000000000000000000000 PUSH1 0x0 DUP3 ADD MSTORE POP JUMP JUMPDEST PUSH1 0x0 PUSH2 0xA83 PUSH1 0xB DUP4 PUSH2 0xA3C JUMP JUMPDEST SWAP2 POP PUSH2 0xA8E DUP3 PUSH2 0xA4D JUMP JUMPDEST PUSH1 0x20 DUP3 ADD SWAP1 POP SWAP2 SWAP1 POP JUMP JUMPDEST PUSH1 0x0 PUSH1 0x20 DUP3 ADD SWAP1 POP DUP2 DUP2 SUB PUSH1 0x0 DUP4 ADD MSTORE PUSH2 0xAB2 DUP2 PUSH2 0xA76 JUMP JUMPDEST SWAP1 POP SWAP2 SWAP1 POP JUMP JUMPDEST PUSH32 0x656E646564000000000000000000000000000000000000000000000000000000 PUSH1 0x0 DUP3 ADD MSTORE POP JUMP JUMPDEST PUSH1 0x0 PUSH2 0xAEF PUSH1 0x5 DUP4 PUSH2 0xA3C JUMP JUMPDEST SWAP2 POP PUSH2 0xAFA DUP3 PUSH2 0xAB9 JUMP JUMPDEST PUSH1 0x20 DUP3 ADD SWAP1 POP SWAP2 SWAP1 POP JUMP JUMPDEST PUSH1 0x0 PUSH1 0x20 DUP3 ADD SWAP1 POP DUP2 DUP2 SUB PUSH1 0x0 DUP4 ADD MSTORE PUSH2 0xB1E DUP2 PUSH2 0xAE2 JUMP JUMPDEST SWAP1 POP SWAP2 SWAP1 POP JUMP JUMPDEST PUSH32 0x76616C7565203C20686967686573742062696400000000000000000000000000 PUSH1 0x0 DUP3 ADD MSTORE POP JUMP JUMPDEST PUSH1 0x0 PUSH2 0xB5B PUSH1 0x13 DUP4 PUSH2 0xA3C JUMP JUMPDEST SWAP2 POP PUSH2 0xB66 DUP3 PUSH2 0xB25 JUMP JUMPDEST PUSH1 0x20 DUP3 ADD SWAP1 POP SWAP2 SWAP1 POP JUMP JUMPDEST PUSH1 0x0 PUSH1 0x20 DUP3 ADD SWAP1 POP DUP2 DUP2 SUB PUSH1 0x0 DUP4 ADD MSTORE PUSH2 0xB8A DUP2 PUSH2 0xB4E JUMP JUMPDEST SWAP1 POP SWAP2 SWAP1 POP JUMP JUMPDEST PUSH32 0x4E487B7100000000000000000000000000000000000000000000000000000000 PUSH1 0x0 MSTORE PUSH1 0x11 PUSH1 0x4 MSTORE PUSH1 0x24 PUSH1 0x0 REVERT JUMPDEST PUSH1 0x0 PUSH2 0xBCB DUP3 PUSH2 0x9CE JUMP JUMPDEST SWAP2 POP PUSH2 0xBD6 DUP4 PUSH2 0x9CE JUMP JUMPDEST SWAP3 POP DUP3 DUP3 ADD SWAP1 POP DUP1 DUP3 GT ISZERO PUSH2 0xBEE JUMPI PUSH2 0xBED PUSH2 0xB91 JUMP JUMPDEST JUMPDEST SWAP3 SWAP2 POP POP JUMP JUMPDEST PUSH32 0x6E6F742073656C6C657200000000000000000000000000000000000000000000 PUSH1 0x0 DUP3 ADD MSTORE POP JUMP JUMPDEST PUSH1 0x0 PUSH2 0xC2A PUSH1 0xA DUP4 PUSH2 0xA3C JUMP JUMPDEST SWAP2 POP PUSH2 0xC35 DUP3 PUSH2 0xBF4 JUMP JUMPDEST PUSH1 0x20 DUP3 ADD SWAP1 POP SWAP2 SWAP1 POP JUMP JUMPDEST PUSH1 0x0 PUSH1 0x20 DUP3 ADD SWAP1 POP DUP2 DUP2 SUB PUSH1 0x0 DUP4 ADD MSTORE PUSH2 0xC59 DUP2 PUSH2 0xC1D JUMP JUMPDEST SWAP1 POP SWAP2 SWAP1 POP JUMP JUMPDEST PUSH32 0x7374617274656400000000000000000000000000000000000000000000000000 PUSH1 0x0 DUP3 ADD MSTORE POP JUMP JUMPDEST PUSH1 0x0 PUSH2 0xC96 PUSH1 0x7 DUP4 PUSH2 0xA3C JUMP JUMPDEST SWAP2 POP PUSH2 0xCA1 DUP3 PUSH2 0xC60 JUMP JUMPDEST PUSH1 0x20 DUP3 ADD SWAP1 POP SWAP2 SWAP1 POP JUMP JUMPDEST PUSH1 0x0 PUSH1 0x20 DUP3 ADD SWAP1 POP DUP2 DUP2 SUB PUSH1 0x0 DUP4 ADD MSTORE PUSH2 0xCC5 DUP2 PUSH2 0xC89 JUMP JUMPDEST SWAP1 POP SWAP2 SWAP1 POP JUMP JUMPDEST PUSH1 0x0 PUSH1 0x60 DUP3 ADD SWAP1 POP PUSH2 0xCE1 PUSH1 0x0 DUP4 ADD DUP7 PUSH2 0x896 JUMP JUMPDEST PUSH2 0xCEE PUSH1 0x20 DUP4 ADD DUP6 PUSH2 0x896 JUMP JUMPDEST PUSH2 0xCFB PUSH1 0x40 DUP4 ADD DUP5 PUSH2 0x9D8 JUMP JUMPDEST SWAP5 SWAP4 POP POP POP POP JUMP INVALID LOG2 PUSH5 0x6970667358 0x22 SLT KECCAK256 CALL SWAP14 SHR 0xC 0xA9 0x28 0xDD SWAP5 0xE7 0xAB 0xFC SWAP7 0xF RETURNDATASIZE 0xE8 0xEA MOD SWAP3 0x25 SELFBALANCE SWAP7 GT 0x1F PUSH5 0x59422C22A5 PUSH13 0x2DBC64736F6C63430008110033 "
				},
				"gasEstimates": {
					"creation": {
						"codeDepositCost": "677000",
						"executionCost": "infinite",
						"totalCost": "infinite"
					},
					"external": {
						"bid()": "infinite",
						"bids(address)": "2814",
						"endAt()": "2490",
						"ended()": "2544",
						"highestBid()": "2539",
						"highestBidder()": "2608",
						"nft()": "infinite",
						"nftId()": "infinite",
						"seller()": "infinite",
						"start()": "infinite",
						"started()": "2588",
						"withdraw()": "7538"
					}
				},
				"methodIdentifiers": {
					"bid()": "1998aeef",
					"bids(address)": "62ea82db",
					"endAt()": "7cc3ae8c",
					"ended()": "12fa6feb",
					"highestBid()": "d57bde79",
					"highestBidder()": "91f90157",
					"nft()": "47ccca02",
					"nftId()": "c6bc5182",
					"seller()": "08551a53",
					"start()": "be9a6555",
					"started()": "1f2698ab",
					"withdraw()": "3ccfd60b"
				}
			},
			"storageLayout": {
				"storage": [
					{
						"astId": 28,
						"contract": "contracts/EnglishAuction.sol:EnglishAuction",
						"label": "endAt",
						"offset": 0,
						"slot": "0",
						"type": "t_uint32"
					},
					{
						"astId": 30,
						"contract": "contracts/EnglishAuction.sol:EnglishAuction",
						"label": "started",
						"offset": 4,
						"slot": "0",
						"type": "t_bool"
					},
					{
						"astId": 32,
						"contract": "contracts/EnglishAuction.sol:EnglishAuction",
						"label": "ended",
						"offset": 5,
						"slot": "0",
						"type": "t_bool"
					},
					{
						"astId": 34,
						"contract": "contracts/EnglishAuction.sol:EnglishAuction",
						"label": "highestBidder",
						"offset": 6,
						"slot": "0",
						"type": "t_address"
					},
					{
						"astId": 36,
						"contract": "contracts/EnglishAuction.sol:EnglishAuction",
						"label": "highestBid",
						"offset": 0,
						"slot": "1",
						"type": "t_uint256"
					},
					{
						"astId": 40,
						"contract": "contracts/EnglishAuction.sol:EnglishAuction",
						"label": "bids",
						"offset": 0,
						"slot": "2",
						"type": "t_mapping(t_address,t_uint256)"
					}
				],
				"types": {
					"t_address": {
						"encoding": "inplace",
						"label": "address",
						"numberOfBytes": "20"
					},
					"t_bool": {
						"encoding": "inplace",
						"label": "bool",
						"numberOfBytes": "1"
					},
					"t_mapping(t_address,t_uint256)": {
						"encoding": "mapping",
						"key": "t_address",
						"label": "mapping(address => uint256)",
						"numberOfBytes": "32",
						"value": "t_uint256"
					},
					"t_uint256": {
						"encoding": "inplace",
						"label": "uint256",
						"numberOfBytes": "32"
					},
					"t_uint32": {
						"encoding": "inplace",
						"label": "uint32",
						"numberOfBytes": "4"
					}
				}
			},
			"userdoc": {
				"kind": "user",
				"methods": {},
				"version": 1
			}
		}
	}
}