{
	"contracts/CallOtherContracts.sol": {
		"CallTestContract": {
			"abi": [
				{
					"inputs": [
						{
							"internalType": "contract TestContract",
							"name": "_test",
							"type": "address"
						}
					],
					"name": "getX",
					"outputs": [
						{
							"internalType": "uint256",
							"name": "x",
							"type": "uint256"
						}
					],
					"stateMutability": "view",
					"type": "function"
				},
				{
					"inputs": [
						{
							"internalType": "address",
							"name": "_test",
							"type": "address"
						}
					],
					"name": "getXAndValue",
					"outputs": [
						{
							"internalType": "uint256",
							"name": "",
							"type": "uint256"
						},
						{
							"internalType": "uint256",
							"name": "",
							"type": "uint256"
						}
					],
					"stateMutability": "view",
					"type": "function"
				},
				{
					"inputs": [
						{
							"internalType": "contract TestContract",
							"name": "_test",
							"type": "address"
						},
						{
							"internalType": "uint256",
							"name": "_x",
							"type": "uint256"
						}
					],
					"name": "setX",
					"outputs": [],
					"stateMutability": "nonpayable",
					"type": "function"
				},
				{
					"inputs": [
						{
							"internalType": "address",
							"name": "_test",
							"type": "address"
						},
						{
							"internalType": "uint256",
							"name": "_x",
							"type": "uint256"
						}
					],
					"name": "setXAndSendEther",
					"outputs": [],
					"stateMutability": "payable",
					"type": "function"
				}
			],
			"devdoc": {
				"kind": "dev",
				"methods": {},
				"version": 1
			},
			"evm": {
				"assembly": "    /* \"contracts/CallOtherContracts.sol\":60:600  contract CallTestContract {\r... */\n  mstore(0x40, 0x80)\n  callvalue\n  dup1\n  iszero\n  tag_1\n  jumpi\n  0x00\n  dup1\n  revert\ntag_1:\n  pop\n  dataSize(sub_0)\n  dup1\n  dataOffset(sub_0)\n  0x00\n  codecopy\n  0x00\n  return\nstop\n\nsub_0: assembly {\n        /* \"contracts/CallOtherContracts.sol\":60:600  contract CallTestContract {\r... */\n      mstore(0x40, 0x80)\n      jumpi(tag_1, lt(calldatasize, 0x04))\n      shr(0xe0, calldataload(0x00))\n      dup1\n      0x27a9f474\n      eq\n      tag_2\n      jumpi\n      dup1\n      0x4a2ad99f\n      eq\n      tag_3\n      jumpi\n      dup1\n      0x7c94c8ca\n      eq\n      tag_4\n      jumpi\n      dup1\n      0xb0620948\n      eq\n      tag_5\n      jumpi\n    tag_1:\n      0x00\n      dup1\n      revert\n        /* \"contracts/CallOtherContracts.sol\":293:439  function setXAndSendEther(address _test, uint _x) external payable {\r... */\n    tag_2:\n      tag_6\n      0x04\n      dup1\n      calldatasize\n      sub\n      dup2\n      add\n      swap1\n      tag_7\n      swap2\n      swap1\n      tag_8\n      jump\t// in\n    tag_7:\n      tag_9\n      jump\t// in\n    tag_6:\n      stop\n        /* \"contracts/CallOtherContracts.sol\":93:177  function setX(TestContract _test, uint _x) external {\r... */\n    tag_3:\n      callvalue\n      dup1\n      iszero\n      tag_10\n      jumpi\n      0x00\n      dup1\n      revert\n    tag_10:\n      pop\n      tag_11\n      0x04\n      dup1\n      calldatasize\n      sub\n      dup2\n      add\n      swap1\n      tag_12\n      swap2\n      swap1\n      tag_13\n      jump\t// in\n    tag_12:\n      tag_14\n      jump\t// in\n    tag_11:\n      stop\n        /* \"contracts/CallOtherContracts.sol\":185:285  function getX(TestContract _test) external view returns (uint x) {\r... */\n    tag_4:\n      callvalue\n      dup1\n      iszero\n      tag_15\n      jumpi\n      0x00\n      dup1\n      revert\n    tag_15:\n      pop\n      tag_16\n      0x04\n      dup1\n      calldatasize\n      sub\n      dup2\n      add\n      swap1\n      tag_17\n      swap2\n      swap1\n      tag_18\n      jump\t// in\n    tag_17:\n      tag_19\n      jump\t// in\n    tag_16:\n      mload(0x40)\n      tag_20\n      swap2\n      swap1\n      tag_21\n      jump\t// in\n    tag_20:\n      mload(0x40)\n      dup1\n      swap2\n      sub\n      swap1\n      return\n        /* \"contracts/CallOtherContracts.sol\":447:595  function getXAndValue(address _test) external view returns (uint, uint) {\r... */\n    tag_5:\n      callvalue\n      dup1\n      iszero\n      tag_22\n      jumpi\n      0x00\n      dup1\n      revert\n    tag_22:\n      pop\n      tag_23\n      0x04\n      dup1\n      calldatasize\n      sub\n      dup2\n      add\n      swap1\n      tag_24\n      swap2\n      swap1\n      tag_25\n      jump\t// in\n    tag_24:\n      tag_26\n      jump\t// in\n    tag_23:\n      mload(0x40)\n      tag_27\n      swap3\n      swap2\n      swap1\n      tag_28\n      jump\t// in\n    tag_27:\n      mload(0x40)\n      dup1\n      swap2\n      sub\n      swap1\n      return\n        /* \"contracts/CallOtherContracts.sol\":293:439  function setXAndSendEther(address _test, uint _x) external payable {\r... */\n    tag_9:\n        /* \"contracts/CallOtherContracts.sol\":383:388  _test */\n      dup2\n        /* \"contracts/CallOtherContracts.sol\":370:409  TestContract(_test).setXandReceiveEther */\n      0xffffffffffffffffffffffffffffffffffffffff\n      and\n      0x02f42be9\n        /* \"contracts/CallOtherContracts.sol\":417:426  msg.value */\n      callvalue\n        /* \"contracts/CallOtherContracts.sol\":428:430  _x */\n      dup4\n        /* \"contracts/CallOtherContracts.sol\":370:431  TestContract(_test).setXandReceiveEther{value: msg.value}(_x) */\n      mload(0x40)\n      dup4\n      0xffffffff\n      and\n      0xe0\n      shl\n      dup2\n      mstore\n      0x04\n      add\n      tag_30\n      swap2\n      swap1\n      tag_21\n      jump\t// in\n    tag_30:\n      0x00\n      mload(0x40)\n      dup1\n      dup4\n      sub\n      dup2\n      dup6\n      dup9\n      dup1\n      extcodesize\n      iszero\n      dup1\n      iszero\n      tag_31\n      jumpi\n      0x00\n      dup1\n      revert\n    tag_31:\n      pop\n      gas\n      call\n      iszero\n      dup1\n      iszero\n      tag_33\n      jumpi\n      returndatasize\n      0x00\n      dup1\n      returndatacopy\n      revert(0x00, returndatasize)\n    tag_33:\n      pop\n      pop\n      pop\n      pop\n      pop\n        /* \"contracts/CallOtherContracts.sol\":293:439  function setXAndSendEther(address _test, uint _x) external payable {\r... */\n      pop\n      pop\n      jump\t// out\n        /* \"contracts/CallOtherContracts.sol\":93:177  function setX(TestContract _test, uint _x) external {\r... */\n    tag_14:\n        /* \"contracts/CallOtherContracts.sol\":155:160  _test */\n      dup2\n        /* \"contracts/CallOtherContracts.sol\":155:165  _test.setX */\n      0xffffffffffffffffffffffffffffffffffffffff\n      and\n      0x4018d9aa\n        /* \"contracts/CallOtherContracts.sol\":166:168  _x */\n      dup3\n        /* \"contracts/CallOtherContracts.sol\":155:169  _test.setX(_x) */\n      mload(0x40)\n      dup3\n      0xffffffff\n      and\n      0xe0\n      shl\n      dup2\n      mstore\n      0x04\n      add\n      tag_35\n      swap2\n      swap1\n      tag_21\n      jump\t// in\n    tag_35:\n      0x00\n      mload(0x40)\n      dup1\n      dup4\n      sub\n      dup2\n      0x00\n      dup8\n      dup1\n      extcodesize\n      iszero\n      dup1\n      iszero\n      tag_36\n      jumpi\n      0x00\n      dup1\n      revert\n    tag_36:\n      pop\n      gas\n      call\n      iszero\n      dup1\n      iszero\n      tag_38\n      jumpi\n      returndatasize\n      0x00\n      dup1\n      returndatacopy\n      revert(0x00, returndatasize)\n    tag_38:\n      pop\n      pop\n      pop\n      pop\n        /* \"contracts/CallOtherContracts.sol\":93:177  function setX(TestContract _test, uint _x) external {\r... */\n      pop\n      pop\n      jump\t// out\n        /* \"contracts/CallOtherContracts.sol\":185:285  function getX(TestContract _test) external view returns (uint x) {\r... */\n    tag_19:\n        /* \"contracts/CallOtherContracts.sol\":242:248  uint x */\n      0x00\n        /* \"contracts/CallOtherContracts.sol\":265:270  _test */\n      dup2\n        /* \"contracts/CallOtherContracts.sol\":265:275  _test.getX */\n      0xffffffffffffffffffffffffffffffffffffffff\n      and\n      0x5197c7aa\n        /* \"contracts/CallOtherContracts.sol\":265:277  _test.getX() */\n      mload(0x40)\n      dup2\n      0xffffffff\n      and\n      0xe0\n      shl\n      dup2\n      mstore\n      0x04\n      add\n      0x20\n      mload(0x40)\n      dup1\n      dup4\n      sub\n      dup2\n      dup7\n      dup1\n      extcodesize\n      iszero\n      dup1\n      iszero\n      tag_40\n      jumpi\n      0x00\n      dup1\n      revert\n    tag_40:\n      pop\n      gas\n      staticcall\n      iszero\n      dup1\n      iszero\n      tag_42\n      jumpi\n      returndatasize\n      0x00\n      dup1\n      returndatacopy\n      revert(0x00, returndatasize)\n    tag_42:\n      pop\n      pop\n      pop\n      pop\n      mload(0x40)\n      returndatasize\n      not(0x1f)\n      0x1f\n      dup3\n      add\n      and\n      dup3\n      add\n      dup1\n      0x40\n      mstore\n      pop\n      dup2\n      add\n      swap1\n      tag_43\n      swap2\n      swap1\n      tag_44\n      jump\t// in\n    tag_43:\n        /* \"contracts/CallOtherContracts.sol\":261:277  x = _test.getX() */\n      swap1\n      pop\n        /* \"contracts/CallOtherContracts.sol\":185:285  function getX(TestContract _test) external view returns (uint x) {\r... */\n      swap2\n      swap1\n      pop\n      jump\t// out\n        /* \"contracts/CallOtherContracts.sol\":447:595  function getXAndValue(address _test) external view returns (uint, uint) {\r... */\n    tag_26:\n        /* \"contracts/CallOtherContracts.sol\":507:511  uint */\n      0x00\n        /* \"contracts/CallOtherContracts.sol\":513:517  uint */\n      dup1\n        /* \"contracts/CallOtherContracts.sol\":531:537  uint x */\n      0x00\n        /* \"contracts/CallOtherContracts.sol\":539:549  uint value */\n      dup1\n        /* \"contracts/CallOtherContracts.sol\":566:571  _test */\n      dup5\n        /* \"contracts/CallOtherContracts.sol\":553:585  TestContract(_test).getXAndValue */\n      0xffffffffffffffffffffffffffffffffffffffff\n      and\n      0x2b5d6086\n        /* \"contracts/CallOtherContracts.sol\":553:587  TestContract(_test).getXAndValue() */\n      mload(0x40)\n      dup2\n      0xffffffff\n      and\n      0xe0\n      shl\n      dup2\n      mstore\n      0x04\n      add\n      0x40\n      dup1\n      mload\n      dup1\n      dup4\n      sub\n      dup2\n      dup7\n      dup1\n      extcodesize\n      iszero\n      dup1\n      iszero\n      tag_46\n      jumpi\n      0x00\n      dup1\n      revert\n    tag_46:\n      pop\n      gas\n      staticcall\n      iszero\n      dup1\n      iszero\n      tag_48\n      jumpi\n      returndatasize\n      0x00\n      dup1\n      returndatacopy\n      revert(0x00, returndatasize)\n    tag_48:\n      pop\n      pop\n      pop\n      pop\n      mload(0x40)\n      returndatasize\n      not(0x1f)\n      0x1f\n      dup3\n      add\n      and\n      dup3\n      add\n      dup1\n      0x40\n      mstore\n      pop\n      dup2\n      add\n      swap1\n      tag_49\n      swap2\n      swap1\n      tag_50\n      jump\t// in\n    tag_49:\n        /* \"contracts/CallOtherContracts.sol\":530:587  (uint x, uint value) = TestContract(_test).getXAndValue() */\n      swap2\n      pop\n      swap2\n      pop\n        /* \"contracts/CallOtherContracts.sol\":519:595  {\r... */\n      pop\n      pop\n        /* \"contracts/CallOtherContracts.sol\":447:595  function getXAndValue(address _test) external view returns (uint, uint) {\r... */\n      swap2\n      pop\n      swap2\n      jump\t// out\n        /* \"#utility.yul\":7:146   */\n    tag_52:\n        /* \"#utility.yul\":53:58   */\n      0x00\n        /* \"#utility.yul\":91:97   */\n      dup2\n        /* \"#utility.yul\":78:98   */\n      calldataload\n        /* \"#utility.yul\":69:98   */\n      swap1\n      pop\n        /* \"#utility.yul\":107:140   */\n      tag_54\n        /* \"#utility.yul\":134:139   */\n      dup2\n        /* \"#utility.yul\":107:140   */\n      tag_55\n      jump\t// in\n    tag_54:\n        /* \"#utility.yul\":7:146   */\n      swap3\n      swap2\n      pop\n      pop\n      jump\t// out\n        /* \"#utility.yul\":152:331   */\n    tag_56:\n        /* \"#utility.yul\":218:223   */\n      0x00\n        /* \"#utility.yul\":256:262   */\n      dup2\n        /* \"#utility.yul\":243:263   */\n      calldataload\n        /* \"#utility.yul\":234:263   */\n      swap1\n      pop\n        /* \"#utility.yul\":272:325   */\n      tag_58\n        /* \"#utility.yul\":319:324   */\n      dup2\n        /* \"#utility.yul\":272:325   */\n      tag_59\n      jump\t// in\n    tag_58:\n        /* \"#utility.yul\":152:331   */\n      swap3\n      swap2\n      pop\n      pop\n      jump\t// out\n        /* \"#utility.yul\":337:476   */\n    tag_60:\n        /* \"#utility.yul\":383:388   */\n      0x00\n        /* \"#utility.yul\":421:427   */\n      dup2\n        /* \"#utility.yul\":408:428   */\n      calldataload\n        /* \"#utility.yul\":399:428   */\n      swap1\n      pop\n        /* \"#utility.yul\":437:470   */\n      tag_62\n        /* \"#utility.yul\":464:469   */\n      dup2\n        /* \"#utility.yul\":437:470   */\n      tag_63\n      jump\t// in\n    tag_62:\n        /* \"#utility.yul\":337:476   */\n      swap3\n      swap2\n      pop\n      pop\n      jump\t// out\n        /* \"#utility.yul\":482:625   */\n    tag_64:\n        /* \"#utility.yul\":539:544   */\n      0x00\n        /* \"#utility.yul\":570:576   */\n      dup2\n        /* \"#utility.yul\":564:577   */\n      mload\n        /* \"#utility.yul\":555:577   */\n      swap1\n      pop\n        /* \"#utility.yul\":586:619   */\n      tag_66\n        /* \"#utility.yul\":613:618   */\n      dup2\n        /* \"#utility.yul\":586:619   */\n      tag_63\n      jump\t// in\n    tag_66:\n        /* \"#utility.yul\":482:625   */\n      swap3\n      swap2\n      pop\n      pop\n      jump\t// out\n        /* \"#utility.yul\":631:960   */\n    tag_25:\n        /* \"#utility.yul\":690:696   */\n      0x00\n        /* \"#utility.yul\":739:741   */\n      0x20\n        /* \"#utility.yul\":727:736   */\n      dup3\n        /* \"#utility.yul\":718:725   */\n      dup5\n        /* \"#utility.yul\":714:737   */\n      sub\n        /* \"#utility.yul\":710:742   */\n      slt\n        /* \"#utility.yul\":707:826   */\n      iszero\n      tag_68\n      jumpi\n        /* \"#utility.yul\":745:824   */\n      tag_69\n      tag_70\n      jump\t// in\n    tag_69:\n        /* \"#utility.yul\":707:826   */\n    tag_68:\n        /* \"#utility.yul\":865:866   */\n      0x00\n        /* \"#utility.yul\":890:943   */\n      tag_71\n        /* \"#utility.yul\":935:942   */\n      dup5\n        /* \"#utility.yul\":926:932   */\n      dup3\n        /* \"#utility.yul\":915:924   */\n      dup6\n        /* \"#utility.yul\":911:933   */\n      add\n        /* \"#utility.yul\":890:943   */\n      tag_52\n      jump\t// in\n    tag_71:\n        /* \"#utility.yul\":880:943   */\n      swap2\n      pop\n        /* \"#utility.yul\":836:953   */\n      pop\n        /* \"#utility.yul\":631:960   */\n      swap3\n      swap2\n      pop\n      pop\n      jump\t// out\n        /* \"#utility.yul\":966:1440   */\n    tag_8:\n        /* \"#utility.yul\":1034:1040   */\n      0x00\n        /* \"#utility.yul\":1042:1048   */\n      dup1\n        /* \"#utility.yul\":1091:1093   */\n      0x40\n        /* \"#utility.yul\":1079:1088   */\n      dup4\n        /* \"#utility.yul\":1070:1077   */\n      dup6\n        /* \"#utility.yul\":1066:1089   */\n      sub\n        /* \"#utility.yul\":1062:1094   */\n      slt\n        /* \"#utility.yul\":1059:1178   */\n      iszero\n      tag_73\n      jumpi\n        /* \"#utility.yul\":1097:1176   */\n      tag_74\n      tag_70\n      jump\t// in\n    tag_74:\n        /* \"#utility.yul\":1059:1178   */\n    tag_73:\n        /* \"#utility.yul\":1217:1218   */\n      0x00\n        /* \"#utility.yul\":1242:1295   */\n      tag_75\n        /* \"#utility.yul\":1287:1294   */\n      dup6\n        /* \"#utility.yul\":1278:1284   */\n      dup3\n        /* \"#utility.yul\":1267:1276   */\n      dup7\n        /* \"#utility.yul\":1263:1285   */\n      add\n        /* \"#utility.yul\":1242:1295   */\n      tag_52\n      jump\t// in\n    tag_75:\n        /* \"#utility.yul\":1232:1295   */\n      swap3\n      pop\n        /* \"#utility.yul\":1188:1305   */\n      pop\n        /* \"#utility.yul\":1344:1346   */\n      0x20\n        /* \"#utility.yul\":1370:1423   */\n      tag_76\n        /* \"#utility.yul\":1415:1422   */\n      dup6\n        /* \"#utility.yul\":1406:1412   */\n      dup3\n        /* \"#utility.yul\":1395:1404   */\n      dup7\n        /* \"#utility.yul\":1391:1413   */\n      add\n        /* \"#utility.yul\":1370:1423   */\n      tag_60\n      jump\t// in\n    tag_76:\n        /* \"#utility.yul\":1360:1423   */\n      swap2\n      pop\n        /* \"#utility.yul\":1315:1433   */\n      pop\n        /* \"#utility.yul\":966:1440   */\n      swap3\n      pop\n      swap3\n      swap1\n      pop\n      jump\t// out\n        /* \"#utility.yul\":1446:1815   */\n    tag_18:\n        /* \"#utility.yul\":1525:1531   */\n      0x00\n        /* \"#utility.yul\":1574:1576   */\n      0x20\n        /* \"#utility.yul\":1562:1571   */\n      dup3\n        /* \"#utility.yul\":1553:1560   */\n      dup5\n        /* \"#utility.yul\":1549:1572   */\n      sub\n        /* \"#utility.yul\":1545:1577   */\n      slt\n        /* \"#utility.yul\":1542:1661   */\n      iszero\n      tag_78\n      jumpi\n        /* \"#utility.yul\":1580:1659   */\n      tag_79\n      tag_70\n      jump\t// in\n    tag_79:\n        /* \"#utility.yul\":1542:1661   */\n    tag_78:\n        /* \"#utility.yul\":1700:1701   */\n      0x00\n        /* \"#utility.yul\":1725:1798   */\n      tag_80\n        /* \"#utility.yul\":1790:1797   */\n      dup5\n        /* \"#utility.yul\":1781:1787   */\n      dup3\n        /* \"#utility.yul\":1770:1779   */\n      dup6\n        /* \"#utility.yul\":1766:1788   */\n      add\n        /* \"#utility.yul\":1725:1798   */\n      tag_56\n      jump\t// in\n    tag_80:\n        /* \"#utility.yul\":1715:1798   */\n      swap2\n      pop\n        /* \"#utility.yul\":1671:1808   */\n      pop\n        /* \"#utility.yul\":1446:1815   */\n      swap3\n      swap2\n      pop\n      pop\n      jump\t// out\n        /* \"#utility.yul\":1821:2335   */\n    tag_13:\n        /* \"#utility.yul\":1909:1915   */\n      0x00\n        /* \"#utility.yul\":1917:1923   */\n      dup1\n        /* \"#utility.yul\":1966:1968   */\n      0x40\n        /* \"#utility.yul\":1954:1963   */\n      dup4\n        /* \"#utility.yul\":1945:1952   */\n      dup6\n        /* \"#utility.yul\":1941:1964   */\n      sub\n        /* \"#utility.yul\":1937:1969   */\n      slt\n        /* \"#utility.yul\":1934:2053   */\n      iszero\n      tag_82\n      jumpi\n        /* \"#utility.yul\":1972:2051   */\n      tag_83\n      tag_70\n      jump\t// in\n    tag_83:\n        /* \"#utility.yul\":1934:2053   */\n    tag_82:\n        /* \"#utility.yul\":2092:2093   */\n      0x00\n        /* \"#utility.yul\":2117:2190   */\n      tag_84\n        /* \"#utility.yul\":2182:2189   */\n      dup6\n        /* \"#utility.yul\":2173:2179   */\n      dup3\n        /* \"#utility.yul\":2162:2171   */\n      dup7\n        /* \"#utility.yul\":2158:2180   */\n      add\n        /* \"#utility.yul\":2117:2190   */\n      tag_56\n      jump\t// in\n    tag_84:\n        /* \"#utility.yul\":2107:2190   */\n      swap3\n      pop\n        /* \"#utility.yul\":2063:2200   */\n      pop\n        /* \"#utility.yul\":2239:2241   */\n      0x20\n        /* \"#utility.yul\":2265:2318   */\n      tag_85\n        /* \"#utility.yul\":2310:2317   */\n      dup6\n        /* \"#utility.yul\":2301:2307   */\n      dup3\n        /* \"#utility.yul\":2290:2299   */\n      dup7\n        /* \"#utility.yul\":2286:2308   */\n      add\n        /* \"#utility.yul\":2265:2318   */\n      tag_60\n      jump\t// in\n    tag_85:\n        /* \"#utility.yul\":2255:2318   */\n      swap2\n      pop\n        /* \"#utility.yul\":2210:2328   */\n      pop\n        /* \"#utility.yul\":1821:2335   */\n      swap3\n      pop\n      swap3\n      swap1\n      pop\n      jump\t// out\n        /* \"#utility.yul\":2341:2692   */\n    tag_44:\n        /* \"#utility.yul\":2411:2417   */\n      0x00\n        /* \"#utility.yul\":2460:2462   */\n      0x20\n        /* \"#utility.yul\":2448:2457   */\n      dup3\n        /* \"#utility.yul\":2439:2446   */\n      dup5\n        /* \"#utility.yul\":2435:2458   */\n      sub\n        /* \"#utility.yul\":2431:2463   */\n      slt\n        /* \"#utility.yul\":2428:2547   */\n      iszero\n      tag_87\n      jumpi\n        /* \"#utility.yul\":2466:2545   */\n      tag_88\n      tag_70\n      jump\t// in\n    tag_88:\n        /* \"#utility.yul\":2428:2547   */\n    tag_87:\n        /* \"#utility.yul\":2586:2587   */\n      0x00\n        /* \"#utility.yul\":2611:2675   */\n      tag_89\n        /* \"#utility.yul\":2667:2674   */\n      dup5\n        /* \"#utility.yul\":2658:2664   */\n      dup3\n        /* \"#utility.yul\":2647:2656   */\n      dup6\n        /* \"#utility.yul\":2643:2665   */\n      add\n        /* \"#utility.yul\":2611:2675   */\n      tag_64\n      jump\t// in\n    tag_89:\n        /* \"#utility.yul\":2601:2675   */\n      swap2\n      pop\n        /* \"#utility.yul\":2557:2685   */\n      pop\n        /* \"#utility.yul\":2341:2692   */\n      swap3\n      swap2\n      pop\n      pop\n      jump\t// out\n        /* \"#utility.yul\":2698:3205   */\n    tag_50:\n        /* \"#utility.yul\":2777:2783   */\n      0x00\n        /* \"#utility.yul\":2785:2791   */\n      dup1\n        /* \"#utility.yul\":2834:2836   */\n      0x40\n        /* \"#utility.yul\":2822:2831   */\n      dup4\n        /* \"#utility.yul\":2813:2820   */\n      dup6\n        /* \"#utility.yul\":2809:2832   */\n      sub\n        /* \"#utility.yul\":2805:2837   */\n      slt\n        /* \"#utility.yul\":2802:2921   */\n      iszero\n      tag_91\n      jumpi\n        /* \"#utility.yul\":2840:2919   */\n      tag_92\n      tag_70\n      jump\t// in\n    tag_92:\n        /* \"#utility.yul\":2802:2921   */\n    tag_91:\n        /* \"#utility.yul\":2960:2961   */\n      0x00\n        /* \"#utility.yul\":2985:3049   */\n      tag_93\n        /* \"#utility.yul\":3041:3048   */\n      dup6\n        /* \"#utility.yul\":3032:3038   */\n      dup3\n        /* \"#utility.yul\":3021:3030   */\n      dup7\n        /* \"#utility.yul\":3017:3039   */\n      add\n        /* \"#utility.yul\":2985:3049   */\n      tag_64\n      jump\t// in\n    tag_93:\n        /* \"#utility.yul\":2975:3049   */\n      swap3\n      pop\n        /* \"#utility.yul\":2931:3059   */\n      pop\n        /* \"#utility.yul\":3098:3100   */\n      0x20\n        /* \"#utility.yul\":3124:3188   */\n      tag_94\n        /* \"#utility.yul\":3180:3187   */\n      dup6\n        /* \"#utility.yul\":3171:3177   */\n      dup3\n        /* \"#utility.yul\":3160:3169   */\n      dup7\n        /* \"#utility.yul\":3156:3178   */\n      add\n        /* \"#utility.yul\":3124:3188   */\n      tag_64\n      jump\t// in\n    tag_94:\n        /* \"#utility.yul\":3114:3188   */\n      swap2\n      pop\n        /* \"#utility.yul\":3069:3198   */\n      pop\n        /* \"#utility.yul\":2698:3205   */\n      swap3\n      pop\n      swap3\n      swap1\n      pop\n      jump\t// out\n        /* \"#utility.yul\":3211:3329   */\n    tag_95:\n        /* \"#utility.yul\":3298:3322   */\n      tag_97\n        /* \"#utility.yul\":3316:3321   */\n      dup2\n        /* \"#utility.yul\":3298:3322   */\n      tag_98\n      jump\t// in\n    tag_97:\n        /* \"#utility.yul\":3293:3296   */\n      dup3\n        /* \"#utility.yul\":3286:3323   */\n      mstore\n        /* \"#utility.yul\":3211:3329   */\n      pop\n      pop\n      jump\t// out\n        /* \"#utility.yul\":3335:3557   */\n    tag_21:\n        /* \"#utility.yul\":3428:3432   */\n      0x00\n        /* \"#utility.yul\":3466:3468   */\n      0x20\n        /* \"#utility.yul\":3455:3464   */\n      dup3\n        /* \"#utility.yul\":3451:3469   */\n      add\n        /* \"#utility.yul\":3443:3469   */\n      swap1\n      pop\n        /* \"#utility.yul\":3479:3550   */\n      tag_100\n        /* \"#utility.yul\":3547:3548   */\n      0x00\n        /* \"#utility.yul\":3536:3545   */\n      dup4\n        /* \"#utility.yul\":3532:3549   */\n      add\n        /* \"#utility.yul\":3523:3529   */\n      dup5\n        /* \"#utility.yul\":3479:3550   */\n      tag_95\n      jump\t// in\n    tag_100:\n        /* \"#utility.yul\":3335:3557   */\n      swap3\n      swap2\n      pop\n      pop\n      jump\t// out\n        /* \"#utility.yul\":3563:3895   */\n    tag_28:\n        /* \"#utility.yul\":3684:3688   */\n      0x00\n        /* \"#utility.yul\":3722:3724   */\n      0x40\n        /* \"#utility.yul\":3711:3720   */\n      dup3\n        /* \"#utility.yul\":3707:3725   */\n      add\n        /* \"#utility.yul\":3699:3725   */\n      swap1\n      pop\n        /* \"#utility.yul\":3735:3806   */\n      tag_102\n        /* \"#utility.yul\":3803:3804   */\n      0x00\n        /* \"#utility.yul\":3792:3801   */\n      dup4\n        /* \"#utility.yul\":3788:3805   */\n      add\n        /* \"#utility.yul\":3779:3785   */\n      dup6\n        /* \"#utility.yul\":3735:3806   */\n      tag_95\n      jump\t// in\n    tag_102:\n        /* \"#utility.yul\":3816:3888   */\n      tag_103\n        /* \"#utility.yul\":3884:3886   */\n      0x20\n        /* \"#utility.yul\":3873:3882   */\n      dup4\n        /* \"#utility.yul\":3869:3887   */\n      add\n        /* \"#utility.yul\":3860:3866   */\n      dup5\n        /* \"#utility.yul\":3816:3888   */\n      tag_95\n      jump\t// in\n    tag_103:\n        /* \"#utility.yul\":3563:3895   */\n      swap4\n      swap3\n      pop\n      pop\n      pop\n      jump\t// out\n        /* \"#utility.yul\":3982:4078   */\n    tag_106:\n        /* \"#utility.yul\":4019:4026   */\n      0x00\n        /* \"#utility.yul\":4048:4072   */\n      tag_108\n        /* \"#utility.yul\":4066:4071   */\n      dup3\n        /* \"#utility.yul\":4048:4072   */\n      tag_109\n      jump\t// in\n    tag_108:\n        /* \"#utility.yul\":4037:4072   */\n      swap1\n      pop\n        /* \"#utility.yul\":3982:4078   */\n      swap2\n      swap1\n      pop\n      jump\t// out\n        /* \"#utility.yul\":4084:4200   */\n    tag_110:\n        /* \"#utility.yul\":4141:4148   */\n      0x00\n        /* \"#utility.yul\":4170:4194   */\n      tag_112\n        /* \"#utility.yul\":4188:4193   */\n      dup3\n        /* \"#utility.yul\":4170:4194   */\n      tag_106\n      jump\t// in\n    tag_112:\n        /* \"#utility.yul\":4159:4194   */\n      swap1\n      pop\n        /* \"#utility.yul\":4084:4200   */\n      swap2\n      swap1\n      pop\n      jump\t// out\n        /* \"#utility.yul\":4206:4332   */\n    tag_109:\n        /* \"#utility.yul\":4243:4250   */\n      0x00\n        /* \"#utility.yul\":4283:4325   */\n      0xffffffffffffffffffffffffffffffffffffffff\n        /* \"#utility.yul\":4276:4281   */\n      dup3\n        /* \"#utility.yul\":4272:4326   */\n      and\n        /* \"#utility.yul\":4261:4326   */\n      swap1\n      pop\n        /* \"#utility.yul\":4206:4332   */\n      swap2\n      swap1\n      pop\n      jump\t// out\n        /* \"#utility.yul\":4338:4415   */\n    tag_98:\n        /* \"#utility.yul\":4375:4382   */\n      0x00\n        /* \"#utility.yul\":4404:4409   */\n      dup2\n        /* \"#utility.yul\":4393:4409   */\n      swap1\n      pop\n        /* \"#utility.yul\":4338:4415   */\n      swap2\n      swap1\n      pop\n      jump\t// out\n        /* \"#utility.yul\":4544:4661   */\n    tag_70:\n        /* \"#utility.yul\":4653:4654   */\n      0x00\n        /* \"#utility.yul\":4650:4651   */\n      dup1\n        /* \"#utility.yul\":4643:4655   */\n      revert\n        /* \"#utility.yul\":4667:4789   */\n    tag_55:\n        /* \"#utility.yul\":4740:4764   */\n      tag_119\n        /* \"#utility.yul\":4758:4763   */\n      dup2\n        /* \"#utility.yul\":4740:4764   */\n      tag_106\n      jump\t// in\n    tag_119:\n        /* \"#utility.yul\":4733:4738   */\n      dup2\n        /* \"#utility.yul\":4730:4765   */\n      eq\n        /* \"#utility.yul\":4720:4783   */\n      tag_120\n      jumpi\n        /* \"#utility.yul\":4779:4780   */\n      0x00\n        /* \"#utility.yul\":4776:4777   */\n      dup1\n        /* \"#utility.yul\":4769:4781   */\n      revert\n        /* \"#utility.yul\":4720:4783   */\n    tag_120:\n        /* \"#utility.yul\":4667:4789   */\n      pop\n      jump\t// out\n        /* \"#utility.yul\":4795:4957   */\n    tag_59:\n        /* \"#utility.yul\":4888:4932   */\n      tag_122\n        /* \"#utility.yul\":4926:4931   */\n      dup2\n        /* \"#utility.yul\":4888:4932   */\n      tag_110\n      jump\t// in\n    tag_122:\n        /* \"#utility.yul\":4881:4886   */\n      dup2\n        /* \"#utility.yul\":4878:4933   */\n      eq\n        /* \"#utility.yul\":4868:4951   */\n      tag_123\n      jumpi\n        /* \"#utility.yul\":4947:4948   */\n      0x00\n        /* \"#utility.yul\":4944:4945   */\n      dup1\n        /* \"#utility.yul\":4937:4949   */\n      revert\n        /* \"#utility.yul\":4868:4951   */\n    tag_123:\n        /* \"#utility.yul\":4795:4957   */\n      pop\n      jump\t// out\n        /* \"#utility.yul\":4963:5085   */\n    tag_63:\n        /* \"#utility.yul\":5036:5060   */\n      tag_125\n        /* \"#utility.yul\":5054:5059   */\n      dup2\n        /* \"#utility.yul\":5036:5060   */\n      tag_98\n      jump\t// in\n    tag_125:\n        /* \"#utility.yul\":5029:5034   */\n      dup2\n        /* \"#utility.yul\":5026:5061   */\n      eq\n        /* \"#utility.yul\":5016:5079   */\n      tag_126\n      jumpi\n        /* \"#utility.yul\":5075:5076   */\n      0x00\n        /* \"#utility.yul\":5072:5073   */\n      dup1\n        /* \"#utility.yul\":5065:5077   */\n      revert\n        /* \"#utility.yul\":5016:5079   */\n    tag_126:\n        /* \"#utility.yul\":4963:5085   */\n      pop\n      jump\t// out\n\n    auxdata: 0xa26469706673582212201f8c6e4a5b303531d4ba505dc19097690eb8da636a91c79ba031fff9cff71c5a64736f6c63430008070033\n}\n",
				"bytecode": {
					"linkReferences": {},
					"object": "608060405234801561001057600080fd5b506105b4806100206000396000f3fe60806040526004361061003f5760003560e01c806327a9f474146100445780634a2ad99f146100605780637c94c8ca14610089578063b0620948146100c6575b600080fd5b61005e60048036038101906100599190610379565b610104565b005b34801561006c57600080fd5b50610087600480360381019061008291906103e6565b610174565b005b34801561009557600080fd5b506100b060048036038101906100ab91906103b9565b6101e3565b6040516100bd91906104a2565b60405180910390f35b3480156100d257600080fd5b506100ed60048036038101906100e8919061034c565b61026a565b6040516100fb9291906104bd565b60405180910390f35b8173ffffffffffffffffffffffffffffffffffffffff166302f42be934836040518363ffffffff1660e01b815260040161013e91906104a2565b6000604051808303818588803b15801561015757600080fd5b505af115801561016b573d6000803e3d6000fd5b50505050505050565b8173ffffffffffffffffffffffffffffffffffffffff16634018d9aa826040518263ffffffff1660e01b81526004016101ad91906104a2565b600060405180830381600087803b1580156101c757600080fd5b505af11580156101db573d6000803e3d6000fd5b505050505050565b60008173ffffffffffffffffffffffffffffffffffffffff16635197c7aa6040518163ffffffff1660e01b815260040160206040518083038186803b15801561022b57600080fd5b505afa15801561023f573d6000803e3d6000fd5b505050506040513d601f19601f820116820180604052508101906102639190610426565b9050919050565b6000806000808473ffffffffffffffffffffffffffffffffffffffff16632b5d60866040518163ffffffff1660e01b8152600401604080518083038186803b1580156102b557600080fd5b505afa1580156102c9573d6000803e3d6000fd5b505050506040513d601f19601f820116820180604052508101906102ed9190610453565b915091505050915091565b60008135905061030781610539565b92915050565b60008135905061031c81610550565b92915050565b60008135905061033181610567565b92915050565b60008151905061034681610567565b92915050565b60006020828403121561036257610361610534565b5b6000610370848285016102f8565b91505092915050565b600080604083850312156103905761038f610534565b5b600061039e858286016102f8565b92505060206103af85828601610322565b9150509250929050565b6000602082840312156103cf576103ce610534565b5b60006103dd8482850161030d565b91505092915050565b600080604083850312156103fd576103fc610534565b5b600061040b8582860161030d565b925050602061041c85828601610322565b9150509250929050565b60006020828403121561043c5761043b610534565b5b600061044a84828501610337565b91505092915050565b6000806040838503121561046a57610469610534565b5b600061047885828601610337565b925050602061048985828601610337565b9150509250929050565b61049c8161052a565b82525050565b60006020820190506104b76000830184610493565b92915050565b60006040820190506104d26000830185610493565b6104df6020830184610493565b9392505050565b60006104f18261050a565b9050919050565b6000610503826104e6565b9050919050565b600073ffffffffffffffffffffffffffffffffffffffff82169050919050565b6000819050919050565b600080fd5b610542816104e6565b811461054d57600080fd5b50565b610559816104f8565b811461056457600080fd5b50565b6105708161052a565b811461057b57600080fd5b5056fea26469706673582212201f8c6e4a5b303531d4ba505dc19097690eb8da636a91c79ba031fff9cff71c5a64736f6c63430008070033",
					"opcodes": "PUSH1 0x80 PUSH1 0x40 MSTORE CALLVALUE DUP1 ISZERO PUSH2 0x10 JUMPI PUSH1 0x0 DUP1 REVERT JUMPDEST POP PUSH2 0x5B4 DUP1 PUSH2 0x20 PUSH1 0x0 CODECOPY PUSH1 0x0 RETURN INVALID PUSH1 0x80 PUSH1 0x40 MSTORE PUSH1 0x4 CALLDATASIZE LT PUSH2 0x3F JUMPI PUSH1 0x0 CALLDATALOAD PUSH1 0xE0 SHR DUP1 PUSH4 0x27A9F474 EQ PUSH2 0x44 JUMPI DUP1 PUSH4 0x4A2AD99F EQ PUSH2 0x60 JUMPI DUP1 PUSH4 0x7C94C8CA EQ PUSH2 0x89 JUMPI DUP1 PUSH4 0xB0620948 EQ PUSH2 0xC6 JUMPI JUMPDEST PUSH1 0x0 DUP1 REVERT JUMPDEST PUSH2 0x5E PUSH1 0x4 DUP1 CALLDATASIZE SUB DUP2 ADD SWAP1 PUSH2 0x59 SWAP2 SWAP1 PUSH2 0x379 JUMP JUMPDEST PUSH2 0x104 JUMP JUMPDEST STOP JUMPDEST CALLVALUE DUP1 ISZERO PUSH2 0x6C JUMPI PUSH1 0x0 DUP1 REVERT JUMPDEST POP PUSH2 0x87 PUSH1 0x4 DUP1 CALLDATASIZE SUB DUP2 ADD SWAP1 PUSH2 0x82 SWAP2 SWAP1 PUSH2 0x3E6 JUMP JUMPDEST PUSH2 0x174 JUMP JUMPDEST STOP JUMPDEST CALLVALUE DUP1 ISZERO PUSH2 0x95 JUMPI PUSH1 0x0 DUP1 REVERT JUMPDEST POP PUSH2 0xB0 PUSH1 0x4 DUP1 CALLDATASIZE SUB DUP2 ADD SWAP1 PUSH2 0xAB SWAP2 SWAP1 PUSH2 0x3B9 JUMP JUMPDEST PUSH2 0x1E3 JUMP JUMPDEST PUSH1 0x40 MLOAD PUSH2 0xBD SWAP2 SWAP1 PUSH2 0x4A2 JUMP JUMPDEST PUSH1 0x40 MLOAD DUP1 SWAP2 SUB SWAP1 RETURN JUMPDEST CALLVALUE DUP1 ISZERO PUSH2 0xD2 JUMPI PUSH1 0x0 DUP1 REVERT JUMPDEST POP PUSH2 0xED PUSH1 0x4 DUP1 CALLDATASIZE SUB DUP2 ADD SWAP1 PUSH2 0xE8 SWAP2 SWAP1 PUSH2 0x34C JUMP JUMPDEST PUSH2 0x26A JUMP JUMPDEST PUSH1 0x40 MLOAD PUSH2 0xFB SWAP3 SWAP2 SWAP1 PUSH2 0x4BD JUMP JUMPDEST PUSH1 0x40 MLOAD DUP1 SWAP2 SUB SWAP1 RETURN JUMPDEST DUP2 PUSH20 0xFFFFFFFFFFFFFFFFFFFFFFFFFFFFFFFFFFFFFFFF AND PUSH4 0x2F42BE9 CALLVALUE DUP4 PUSH1 0x40 MLOAD DUP4 PUSH4 0xFFFFFFFF AND PUSH1 0xE0 SHL DUP2 MSTORE PUSH1 0x4 ADD PUSH2 0x13E SWAP2 SWAP1 PUSH2 0x4A2 JUMP JUMPDEST PUSH1 0x0 PUSH1 0x40 MLOAD DUP1 DUP4 SUB DUP2 DUP6 DUP9 DUP1 EXTCODESIZE ISZERO DUP1 ISZERO PUSH2 0x157 JUMPI PUSH1 0x0 DUP1 REVERT JUMPDEST POP GAS CALL ISZERO DUP1 ISZERO PUSH2 0x16B JUMPI RETURNDATASIZE PUSH1 0x0 DUP1 RETURNDATACOPY RETURNDATASIZE PUSH1 0x0 REVERT JUMPDEST POP POP POP POP POP POP POP JUMP JUMPDEST DUP2 PUSH20 0xFFFFFFFFFFFFFFFFFFFFFFFFFFFFFFFFFFFFFFFF AND PUSH4 0x4018D9AA DUP3 PUSH1 0x40 MLOAD DUP3 PUSH4 0xFFFFFFFF AND PUSH1 0xE0 SHL DUP2 MSTORE PUSH1 0x4 ADD PUSH2 0x1AD SWAP2 SWAP1 PUSH2 0x4A2 JUMP JUMPDEST PUSH1 0x0 PUSH1 0x40 MLOAD DUP1 DUP4 SUB DUP2 PUSH1 0x0 DUP8 DUP1 EXTCODESIZE ISZERO DUP1 ISZERO PUSH2 0x1C7 JUMPI PUSH1 0x0 DUP1 REVERT JUMPDEST POP GAS CALL ISZERO DUP1 ISZERO PUSH2 0x1DB JUMPI RETURNDATASIZE PUSH1 0x0 DUP1 RETURNDATACOPY RETURNDATASIZE PUSH1 0x0 REVERT JUMPDEST POP POP POP POP POP POP JUMP JUMPDEST PUSH1 0x0 DUP2 PUSH20 0xFFFFFFFFFFFFFFFFFFFFFFFFFFFFFFFFFFFFFFFF AND PUSH4 0x5197C7AA PUSH1 0x40 MLOAD DUP2 PUSH4 0xFFFFFFFF AND PUSH1 0xE0 SHL DUP2 MSTORE PUSH1 0x4 ADD PUSH1 0x20 PUSH1 0x40 MLOAD DUP1 DUP4 SUB DUP2 DUP7 DUP1 EXTCODESIZE ISZERO DUP1 ISZERO PUSH2 0x22B JUMPI PUSH1 0x0 DUP1 REVERT JUMPDEST POP GAS STATICCALL ISZERO DUP1 ISZERO PUSH2 0x23F JUMPI RETURNDATASIZE PUSH1 0x0 DUP1 RETURNDATACOPY RETURNDATASIZE PUSH1 0x0 REVERT JUMPDEST POP POP POP POP PUSH1 0x40 MLOAD RETURNDATASIZE PUSH1 0x1F NOT PUSH1 0x1F DUP3 ADD AND DUP3 ADD DUP1 PUSH1 0x40 MSTORE POP DUP2 ADD SWAP1 PUSH2 0x263 SWAP2 SWAP1 PUSH2 0x426 JUMP JUMPDEST SWAP1 POP SWAP2 SWAP1 POP JUMP JUMPDEST PUSH1 0x0 DUP1 PUSH1 0x0 DUP1 DUP5 PUSH20 0xFFFFFFFFFFFFFFFFFFFFFFFFFFFFFFFFFFFFFFFF AND PUSH4 0x2B5D6086 PUSH1 0x40 MLOAD DUP2 PUSH4 0xFFFFFFFF AND PUSH1 0xE0 SHL DUP2 MSTORE PUSH1 0x4 ADD PUSH1 0x40 DUP1 MLOAD DUP1 DUP4 SUB DUP2 DUP7 DUP1 EXTCODESIZE ISZERO DUP1 ISZERO PUSH2 0x2B5 JUMPI PUSH1 0x0 DUP1 REVERT JUMPDEST POP GAS STATICCALL ISZERO DUP1 ISZERO PUSH2 0x2C9 JUMPI RETURNDATASIZE PUSH1 0x0 DUP1 RETURNDATACOPY RETURNDATASIZE PUSH1 0x0 REVERT JUMPDEST POP POP POP POP PUSH1 0x40 MLOAD RETURNDATASIZE PUSH1 0x1F NOT PUSH1 0x1F DUP3 ADD AND DUP3 ADD DUP1 PUSH1 0x40 MSTORE POP DUP2 ADD SWAP1 PUSH2 0x2ED SWAP2 SWAP1 PUSH2 0x453 JUMP JUMPDEST SWAP2 POP SWAP2 POP POP POP SWAP2 POP SWAP2 JUMP JUMPDEST PUSH1 0x0 DUP2 CALLDATALOAD SWAP1 POP PUSH2 0x307 DUP2 PUSH2 0x539 JUMP JUMPDEST SWAP3 SWAP2 POP POP JUMP JUMPDEST PUSH1 0x0 DUP2 CALLDATALOAD SWAP1 POP PUSH2 0x31C DUP2 PUSH2 0x550 JUMP JUMPDEST SWAP3 SWAP2 POP POP JUMP JUMPDEST PUSH1 0x0 DUP2 CALLDATALOAD SWAP1 POP PUSH2 0x331 DUP2 PUSH2 0x567 JUMP JUMPDEST SWAP3 SWAP2 POP POP JUMP JUMPDEST PUSH1 0x0 DUP2 MLOAD SWAP1 POP PUSH2 0x346 DUP2 PUSH2 0x567 JUMP JUMPDEST SWAP3 SWAP2 POP POP JUMP JUMPDEST PUSH1 0x0 PUSH1 0x20 DUP3 DUP5 SUB SLT ISZERO PUSH2 0x362 JUMPI PUSH2 0x361 PUSH2 0x534 JUMP JUMPDEST JUMPDEST PUSH1 0x0 PUSH2 0x370 DUP5 DUP3 DUP6 ADD PUSH2 0x2F8 JUMP JUMPDEST SWAP2 POP POP SWAP3 SWAP2 POP POP JUMP JUMPDEST PUSH1 0x0 DUP1 PUSH1 0x40 DUP4 DUP6 SUB SLT ISZERO PUSH2 0x390 JUMPI PUSH2 0x38F PUSH2 0x534 JUMP JUMPDEST JUMPDEST PUSH1 0x0 PUSH2 0x39E DUP6 DUP3 DUP7 ADD PUSH2 0x2F8 JUMP JUMPDEST SWAP3 POP POP PUSH1 0x20 PUSH2 0x3AF DUP6 DUP3 DUP7 ADD PUSH2 0x322 JUMP JUMPDEST SWAP2 POP POP SWAP3 POP SWAP3 SWAP1 POP JUMP JUMPDEST PUSH1 0x0 PUSH1 0x20 DUP3 DUP5 SUB SLT ISZERO PUSH2 0x3CF JUMPI PUSH2 0x3CE PUSH2 0x534 JUMP JUMPDEST JUMPDEST PUSH1 0x0 PUSH2 0x3DD DUP5 DUP3 DUP6 ADD PUSH2 0x30D JUMP JUMPDEST SWAP2 POP POP SWAP3 SWAP2 POP POP JUMP JUMPDEST PUSH1 0x0 DUP1 PUSH1 0x40 DUP4 DUP6 SUB SLT ISZERO PUSH2 0x3FD JUMPI PUSH2 0x3FC PUSH2 0x534 JUMP JUMPDEST JUMPDEST PUSH1 0x0 PUSH2 0x40B DUP6 DUP3 DUP7 ADD PUSH2 0x30D JUMP JUMPDEST SWAP3 POP POP PUSH1 0x20 PUSH2 0x41C DUP6 DUP3 DUP7 ADD PUSH2 0x322 JUMP JUMPDEST SWAP2 POP POP SWAP3 POP SWAP3 SWAP1 POP JUMP JUMPDEST PUSH1 0x0 PUSH1 0x20 DUP3 DUP5 SUB SLT ISZERO PUSH2 0x43C JUMPI PUSH2 0x43B PUSH2 0x534 JUMP JUMPDEST JUMPDEST PUSH1 0x0 PUSH2 0x44A DUP5 DUP3 DUP6 ADD PUSH2 0x337 JUMP JUMPDEST SWAP2 POP POP SWAP3 SWAP2 POP POP JUMP JUMPDEST PUSH1 0x0 DUP1 PUSH1 0x40 DUP4 DUP6 SUB SLT ISZERO PUSH2 0x46A JUMPI PUSH2 0x469 PUSH2 0x534 JUMP JUMPDEST JUMPDEST PUSH1 0x0 PUSH2 0x478 DUP6 DUP3 DUP7 ADD PUSH2 0x337 JUMP JUMPDEST SWAP3 POP POP PUSH1 0x20 PUSH2 0x489 DUP6 DUP3 DUP7 ADD PUSH2 0x337 JUMP JUMPDEST SWAP2 POP POP SWAP3 POP SWAP3 SWAP1 POP JUMP JUMPDEST PUSH2 0x49C DUP2 PUSH2 0x52A JUMP JUMPDEST DUP3 MSTORE POP POP JUMP JUMPDEST PUSH1 0x0 PUSH1 0x20 DUP3 ADD SWAP1 POP PUSH2 0x4B7 PUSH1 0x0 DUP4 ADD DUP5 PUSH2 0x493 JUMP JUMPDEST SWAP3 SWAP2 POP POP JUMP JUMPDEST PUSH1 0x0 PUSH1 0x40 DUP3 ADD SWAP1 POP PUSH2 0x4D2 PUSH1 0x0 DUP4 ADD DUP6 PUSH2 0x493 JUMP JUMPDEST PUSH2 0x4DF PUSH1 0x20 DUP4 ADD DUP5 PUSH2 0x493 JUMP JUMPDEST SWAP4 SWAP3 POP POP POP JUMP JUMPDEST PUSH1 0x0 PUSH2 0x4F1 DUP3 PUSH2 0x50A JUMP JUMPDEST SWAP1 POP SWAP2 SWAP1 POP JUMP JUMPDEST PUSH1 0x0 PUSH2 0x503 DUP3 PUSH2 0x4E6 JUMP JUMPDEST SWAP1 POP SWAP2 SWAP1 POP JUMP JUMPDEST PUSH1 0x0 PUSH20 0xFFFFFFFFFFFFFFFFFFFFFFFFFFFFFFFFFFFFFFFF DUP3 AND SWAP1 POP SWAP2 SWAP1 POP JUMP JUMPDEST PUSH1 0x0 DUP2 SWAP1 POP SWAP2 SWAP1 POP JUMP JUMPDEST PUSH1 0x0 DUP1 REVERT JUMPDEST PUSH2 0x542 DUP2 PUSH2 0x4E6 JUMP JUMPDEST DUP2 EQ PUSH2 0x54D JUMPI PUSH1 0x0 DUP1 REVERT JUMPDEST POP JUMP JUMPDEST PUSH2 0x559 DUP2 PUSH2 0x4F8 JUMP JUMPDEST DUP2 EQ PUSH2 0x564 JUMPI PUSH1 0x0 DUP1 REVERT JUMPDEST POP JUMP JUMPDEST PUSH2 0x570 DUP2 PUSH2 0x52A JUMP JUMPDEST DUP2 EQ PUSH2 0x57B JUMPI PUSH1 0x0 DUP1 REVERT JUMPDEST POP JUMP INVALID LOG2 PUSH5 0x6970667358 0x22 SLT KECCAK256 0x1F DUP13 PUSH15 0x4A5B303531D4BA505DC19097690EB8 0xDA PUSH4 0x6A91C79B LOG0 BALANCE SELFDESTRUCT 0xF9 0xCF 0xF7 SHR GAS PUSH5 0x736F6C6343 STOP ADDMOD SMOD STOP CALLER "
				},
				"gasEstimates": {
					"creation": {
						"codeDepositCost": "292000",
						"executionCost": "331",
						"totalCost": "292331"
					},
					"external": {
						"getX(address)": "infinite",
						"getXAndValue(address)": "infinite",
						"setX(address,uint256)": "infinite",
						"setXAndSendEther(address,uint256)": "infinite"
					}
				},
				"methodIdentifiers": {
					"getX(address)": "7c94c8ca",
					"getXAndValue(address)": "b0620948",
					"setX(address,uint256)": "4a2ad99f",
					"setXAndSendEther(address,uint256)": "27a9f474"
				}
			},
			"storageLayout": {
				"storage": [],
				"types": null
			},
			"userdoc": {
				"kind": "user",
				"methods": {},
				"version": 1
			}
		}
	}
}