{
	"contracts/Send.sol": {
		"SendEther": {
			"abi": [
				{
					"inputs": [],
					"stateMutability": "payable",
					"type": "constructor"
				},
				{
					"inputs": [],
					"name": "sendViaCallback",
					"outputs": [],
					"stateMutability": "payable",
					"type": "function"
				},
				{
					"inputs": [],
					"name": "sendViaSend",
					"outputs": [],
					"stateMutability": "payable",
					"type": "function"
				},
				{
					"inputs": [],
					"name": "sendViaTransfer",
					"outputs": [],
					"stateMutability": "nonpayable",
					"type": "function"
				},
				{
					"stateMutability": "payable",
					"type": "receive"
				}
			],
			"devdoc": {
				"kind": "dev",
				"methods": {},
				"version": 1
			},
			"evm": {
				"assembly": "    /* \"contracts/Send.sol\":189:429  contract SendEther {\r... */\n  mstore(0x40, 0x80)\n  dataSize(sub_0)\n  dup1\n  dataOffset(sub_0)\n  0x00\n  codecopy\n  0x00\n  return\nstop\n\nsub_0: assembly {\n        /* \"contracts/Send.sol\":189:429  contract SendEther {\r... */\n      mstore(0x40, 0x80)\n      jumpi(tag_1, lt(calldatasize, 0x04))\n      shr(0xe0, calldataload(0x00))\n      dup1\n      0xc0d60517\n      eq\n      tag_3\n      jumpi\n      dup1\n      0xe84326d6\n      eq\n      tag_4\n      jumpi\n      dup1\n      0xecf262d7\n      eq\n      tag_5\n      jumpi\n      jump(tag_2)\n    tag_1:\n      jumpi(tag_2, calldatasize)\n      stop\n    tag_2:\n      0x00\n      dup1\n      revert\n        /* \"contracts/Send.sol\":330:372  function sendViaSend() external payable {} */\n    tag_3:\n      tag_8\n      tag_9\n      jump\t// in\n    tag_8:\n      stop\n        /* \"contracts/Send.sol\":284:322  function sendViaTransfer() external {} */\n    tag_4:\n      callvalue\n      dup1\n      iszero\n      tag_10\n      jumpi\n      0x00\n      dup1\n      revert\n    tag_10:\n      pop\n      tag_11\n      tag_12\n      jump\t// in\n    tag_11:\n      stop\n        /* \"contracts/Send.sol\":380:426  function sendViaCallback() external payable {} */\n    tag_5:\n      tag_13\n      tag_14\n      jump\t// in\n    tag_13:\n      stop\n        /* \"contracts/Send.sol\":330:372  function sendViaSend() external payable {} */\n    tag_9:\n      jump\t// out\n        /* \"contracts/Send.sol\":284:322  function sendViaTransfer() external {} */\n    tag_12:\n      jump\t// out\n        /* \"contracts/Send.sol\":380:426  function sendViaCallback() external payable {} */\n    tag_14:\n      jump\t// out\n\n    auxdata: 0xa2646970667358221220e9312d467c730cbfaaf6942e65c9d47c678ebcc1131978868a8dad4c864404d764736f6c63430008070033\n}\n",
				"bytecode": {
					"linkReferences": {},
					"object": "6080604052609e806100126000396000f3fe60806040526004361060335760003560e01c8063c0d6051714603e578063e84326d6146046578063ecf262d714605a576039565b36603957005b600080fd5b60446062565b005b348015605157600080fd5b5060586064565b005b60606066565b005b565b565b56fea2646970667358221220e9312d467c730cbfaaf6942e65c9d47c678ebcc1131978868a8dad4c864404d764736f6c63430008070033",
					"opcodes": "PUSH1 0x80 PUSH1 0x40 MSTORE PUSH1 0x9E DUP1 PUSH2 0x12 PUSH1 0x0 CODECOPY PUSH1 0x0 RETURN INVALID PUSH1 0x80 PUSH1 0x40 MSTORE PUSH1 0x4 CALLDATASIZE LT PUSH1 0x33 JUMPI PUSH1 0x0 CALLDATALOAD PUSH1 0xE0 SHR DUP1 PUSH4 0xC0D60517 EQ PUSH1 0x3E JUMPI DUP1 PUSH4 0xE84326D6 EQ PUSH1 0x46 JUMPI DUP1 PUSH4 0xECF262D7 EQ PUSH1 0x5A JUMPI PUSH1 0x39 JUMP JUMPDEST CALLDATASIZE PUSH1 0x39 JUMPI STOP JUMPDEST PUSH1 0x0 DUP1 REVERT JUMPDEST PUSH1 0x44 PUSH1 0x62 JUMP JUMPDEST STOP JUMPDEST CALLVALUE DUP1 ISZERO PUSH1 0x51 JUMPI PUSH1 0x0 DUP1 REVERT JUMPDEST POP PUSH1 0x58 PUSH1 0x64 JUMP JUMPDEST STOP JUMPDEST PUSH1 0x60 PUSH1 0x66 JUMP JUMPDEST STOP JUMPDEST JUMP JUMPDEST JUMP JUMPDEST JUMP INVALID LOG2 PUSH5 0x6970667358 0x22 SLT KECCAK256 0xE9 BALANCE 0x2D CHAINID PUSH29 0x730CBFAAF6942E65C9D47C678EBCC1131978868A8DAD4C864404D76473 PUSH16 0x6C634300080700330000000000000000 "
				},
				"gasEstimates": {
					"creation": {
						"codeDepositCost": "31600",
						"executionCost": "57",
						"totalCost": "31657"
					},
					"external": {
						"sendViaCallback()": "142",
						"sendViaSend()": "98",
						"sendViaTransfer()": "144"
					}
				},
				"methodIdentifiers": {
					"sendViaCallback()": "ecf262d7",
					"sendViaSend()": "c0d60517",
					"sendViaTransfer()": "e84326d6"
				}
			},
			"storageLayout": {
				"storage": [],
				"types": null
			},
			"userdoc": {
				"kind": "user",
				"methods": {},
				"version": 1
			}
		}
	}
}