{
	"contracts/MultiCall.sol": {
		"TestMultiCall": {
			"abi": [
				{
					"inputs": [],
					"name": "func1",
					"outputs": [
						{
							"internalType": "uint256",
							"name": "",
							"type": "uint256"
						},
						{
							"internalType": "uint256",
							"name": "",
							"type": "uint256"
						}
					],
					"stateMutability": "view",
					"type": "function"
				},
				{
					"inputs": [],
					"name": "func2",
					"outputs": [
						{
							"internalType": "uint256",
							"name": "",
							"type": "uint256"
						},
						{
							"internalType": "uint256",
							"name": "",
							"type": "uint256"
						}
					],
					"stateMutability": "view",
					"type": "function"
				}
			],
			"devdoc": {
				"kind": "dev",
				"methods": {},
				"version": 1
			},
			"evm": {
				"assembly": "    /* \"contracts/MultiCall.sol\":118:347  contract TestMultiCall {... */\n  mstore(0x40, 0x80)\n  callvalue\n  dup1\n  iszero\n  tag_1\n  jumpi\n  0x00\n  dup1\n  revert\ntag_1:\n  pop\n  dataSize(sub_0)\n  dup1\n  dataOffset(sub_0)\n  0x00\n  codecopy\n  0x00\n  return\nstop\n\nsub_0: assembly {\n        /* \"contracts/MultiCall.sol\":118:347  contract TestMultiCall {... */\n      mstore(0x40, 0x80)\n      callvalue\n      dup1\n      iszero\n      tag_1\n      jumpi\n      0x00\n      dup1\n      revert\n    tag_1:\n      pop\n      jumpi(tag_2, lt(calldatasize, 0x04))\n      shr(0xe0, calldataload(0x00))\n      dup1\n      0x74135154\n      eq\n      tag_3\n      jumpi\n      dup1\n      0xb1ade4db\n      eq\n      tag_4\n      jumpi\n    tag_2:\n      0x00\n      dup1\n      revert\n        /* \"contracts/MultiCall.sol\":147:242  function func1() external view returns (uint, uint) {... */\n    tag_3:\n      tag_5\n      tag_6\n      jump\t// in\n    tag_5:\n      mload(0x40)\n      tag_7\n      swap3\n      swap2\n      swap1\n      tag_8\n      jump\t// in\n    tag_7:\n      mload(0x40)\n      dup1\n      swap2\n      sub\n      swap1\n      return\n        /* \"contracts/MultiCall.sol\":249:344  function func2() external view returns (uint, uint) {... */\n    tag_4:\n      tag_9\n      tag_10\n      jump\t// in\n    tag_9:\n      mload(0x40)\n      tag_11\n      swap3\n      swap2\n      swap1\n      tag_8\n      jump\t// in\n    tag_11:\n      mload(0x40)\n      dup1\n      swap2\n      sub\n      swap1\n      return\n        /* \"contracts/MultiCall.sol\":147:242  function func1() external view returns (uint, uint) {... */\n    tag_6:\n        /* \"contracts/MultiCall.sol\":187:191  uint */\n      0x00\n        /* \"contracts/MultiCall.sol\":193:197  uint */\n      dup1\n        /* \"contracts/MultiCall.sol\":216:217  1 */\n      0x01\n        /* \"contracts/MultiCall.sol\":219:234  block.timestamp */\n      timestamp\n        /* \"contracts/MultiCall.sol\":209:235  return(1, block.timestamp) */\n      swap2\n      pop\n      swap2\n      pop\n        /* \"contracts/MultiCall.sol\":147:242  function func1() external view returns (uint, uint) {... */\n      swap1\n      swap2\n      jump\t// out\n        /* \"contracts/MultiCall.sol\":249:344  function func2() external view returns (uint, uint) {... */\n    tag_10:\n        /* \"contracts/MultiCall.sol\":289:293  uint */\n      0x00\n        /* \"contracts/MultiCall.sol\":295:299  uint */\n      dup1\n        /* \"contracts/MultiCall.sol\":318:319  2 */\n      0x02\n        /* \"contracts/MultiCall.sol\":321:336  block.timestamp */\n      timestamp\n        /* \"contracts/MultiCall.sol\":311:337  return(2, block.timestamp) */\n      swap2\n      pop\n      swap2\n      pop\n        /* \"contracts/MultiCall.sol\":249:344  function func2() external view returns (uint, uint) {... */\n      swap1\n      swap2\n      jump\t// out\n        /* \"#utility.yul\":7:84   */\n    tag_14:\n        /* \"#utility.yul\":44:51   */\n      0x00\n        /* \"#utility.yul\":73:78   */\n      dup2\n        /* \"#utility.yul\":62:78   */\n      swap1\n      pop\n        /* \"#utility.yul\":7:84   */\n      swap2\n      swap1\n      pop\n      jump\t// out\n        /* \"#utility.yul\":90:208   */\n    tag_15:\n        /* \"#utility.yul\":177:201   */\n      tag_19\n        /* \"#utility.yul\":195:200   */\n      dup2\n        /* \"#utility.yul\":177:201   */\n      tag_14\n      jump\t// in\n    tag_19:\n        /* \"#utility.yul\":172:175   */\n      dup3\n        /* \"#utility.yul\":165:202   */\n      mstore\n        /* \"#utility.yul\":90:208   */\n      pop\n      pop\n      jump\t// out\n        /* \"#utility.yul\":214:546   */\n    tag_8:\n        /* \"#utility.yul\":335:339   */\n      0x00\n        /* \"#utility.yul\":373:375   */\n      0x40\n        /* \"#utility.yul\":362:371   */\n      dup3\n        /* \"#utility.yul\":358:376   */\n      add\n        /* \"#utility.yul\":350:376   */\n      swap1\n      pop\n        /* \"#utility.yul\":386:457   */\n      tag_21\n        /* \"#utility.yul\":454:455   */\n      0x00\n        /* \"#utility.yul\":443:452   */\n      dup4\n        /* \"#utility.yul\":439:456   */\n      add\n        /* \"#utility.yul\":430:436   */\n      dup6\n        /* \"#utility.yul\":386:457   */\n      tag_15\n      jump\t// in\n    tag_21:\n        /* \"#utility.yul\":467:539   */\n      tag_22\n        /* \"#utility.yul\":535:537   */\n      0x20\n        /* \"#utility.yul\":524:533   */\n      dup4\n        /* \"#utility.yul\":520:538   */\n      add\n        /* \"#utility.yul\":511:517   */\n      dup5\n        /* \"#utility.yul\":467:539   */\n      tag_15\n      jump\t// in\n    tag_22:\n        /* \"#utility.yul\":214:546   */\n      swap4\n      swap3\n      pop\n      pop\n      pop\n      jump\t// out\n\n    auxdata: 0xa264697066735822122052be2b5a057327958adc9e00452694ab0bc6bac9385ad1142f299954bcedcd4764736f6c63430008110033\n}\n",
				"bytecode": {
					"linkReferences": {},
					"object": "608060405234801561001057600080fd5b5060fb8061001f6000396000f3fe6080604052348015600f57600080fd5b506004361060325760003560e01c806374135154146037578063b1ade4db146052575b600080fd5b603d606d565b604051604992919060a0565b60405180910390f35b6058607b565b604051606492919060a0565b60405180910390f35b600080600142915091509091565b600080600242915091509091565b6000819050919050565b609a816089565b82525050565b600060408201905060b360008301856093565b60be60208301846093565b939250505056fea264697066735822122052be2b5a057327958adc9e00452694ab0bc6bac9385ad1142f299954bcedcd4764736f6c63430008110033",
					"opcodes": "PUSH1 0x80 PUSH1 0x40 MSTORE CALLVALUE DUP1 ISZERO PUSH2 0x10 JUMPI PUSH1 0x0 DUP1 REVERT JUMPDEST POP PUSH1 0xFB DUP1 PUSH2 0x1F PUSH1 0x0 CODECOPY PUSH1 0x0 RETURN INVALID PUSH1 0x80 PUSH1 0x40 MSTORE CALLVALUE DUP1 ISZERO PUSH1 0xF JUMPI PUSH1 0x0 DUP1 REVERT JUMPDEST POP PUSH1 0x4 CALLDATASIZE LT PUSH1 0x32 JUMPI PUSH1 0x0 CALLDATALOAD PUSH1 0xE0 SHR DUP1 PUSH4 0x74135154 EQ PUSH1 0x37 JUMPI DUP1 PUSH4 0xB1ADE4DB EQ PUSH1 0x52 JUMPI JUMPDEST PUSH1 0x0 DUP1 REVERT JUMPDEST PUSH1 0x3D PUSH1 0x6D JUMP JUMPDEST PUSH1 0x40 MLOAD PUSH1 0x49 SWAP3 SWAP2 SWAP1 PUSH1 0xA0 JUMP JUMPDEST PUSH1 0x40 MLOAD DUP1 SWAP2 SUB SWAP1 RETURN JUMPDEST PUSH1 0x58 PUSH1 0x7B JUMP JUMPDEST PUSH1 0x40 MLOAD PUSH1 0x64 SWAP3 SWAP2 SWAP1 PUSH1 0xA0 JUMP JUMPDEST PUSH1 0x40 MLOAD DUP1 SWAP2 SUB SWAP1 RETURN JUMPDEST PUSH1 0x0 DUP1 PUSH1 0x1 TIMESTAMP SWAP2 POP SWAP2 POP SWAP1 SWAP2 JUMP JUMPDEST PUSH1 0x0 DUP1 PUSH1 0x2 TIMESTAMP SWAP2 POP SWAP2 POP SWAP1 SWAP2 JUMP JUMPDEST PUSH1 0x0 DUP2 SWAP1 POP SWAP2 SWAP1 POP JUMP JUMPDEST PUSH1 0x9A DUP2 PUSH1 0x89 JUMP JUMPDEST DUP3 MSTORE POP POP JUMP JUMPDEST PUSH1 0x0 PUSH1 0x40 DUP3 ADD SWAP1 POP PUSH1 0xB3 PUSH1 0x0 DUP4 ADD DUP6 PUSH1 0x93 JUMP JUMPDEST PUSH1 0xBE PUSH1 0x20 DUP4 ADD DUP5 PUSH1 0x93 JUMP JUMPDEST SWAP4 SWAP3 POP POP POP JUMP INVALID LOG2 PUSH5 0x6970667358 0x22 SLT KECCAK256 MSTORE 0xBE 0x2B GAS SDIV PUSH20 0x27958ADC9E00452694AB0BC6BAC9385AD1142F29 SWAP10 SLOAD 0xBC 0xED 0xCD SELFBALANCE PUSH5 0x736F6C6343 STOP ADDMOD GT STOP CALLER "
				},
				"gasEstimates": {
					"creation": {
						"codeDepositCost": "50200",
						"executionCost": "99",
						"totalCost": "50299"
					},
					"external": {
						"func1()": "infinite",
						"func2()": "infinite"
					}
				},
				"methodIdentifiers": {
					"func1()": "74135154",
					"func2()": "b1ade4db"
				}
			},
			"storageLayout": {
				"storage": [],
				"types": null
			},
			"userdoc": {
				"kind": "user",
				"methods": {},
				"version": 1
			}
		}
	}
}