{
	"contracts/Hash.sol": {
		"HashFunc": {
			"abi": [
				{
					"inputs": [
						{
							"internalType": "string",
							"name": "text0",
							"type": "string"
						},
						{
							"internalType": "string",
							"name": "text1",
							"type": "string"
						}
					],
					"name": "collision",
					"outputs": [
						{
							"internalType": "bytes32",
							"name": "",
							"type": "bytes32"
						}
					],
					"stateMutability": "pure",
					"type": "function"
				},
				{
					"inputs": [
						{
							"internalType": "string",
							"name": "text0",
							"type": "string"
						},
						{
							"internalType": "string",
							"name": "text1",
							"type": "string"
						}
					],
					"name": "encode",
					"outputs": [
						{
							"internalType": "bytes",
							"name": "",
							"type": "bytes"
						}
					],
					"stateMutability": "pure",
					"type": "function"
				},
				{
					"inputs": [
						{
							"internalType": "string",
							"name": "text0",
							"type": "string"
						},
						{
							"internalType": "string",
							"name": "text1",
							"type": "string"
						}
					],
					"name": "encodePacked",
					"outputs": [
						{
							"internalType": "bytes",
							"name": "",
							"type": "bytes"
						}
					],
					"stateMutability": "pure",
					"type": "function"
				},
				{
					"inputs": [
						{
							"internalType": "string",
							"name": "text",
							"type": "string"
						},
						{
							"internalType": "uint256",
							"name": "num",
							"type": "uint256"
						},
						{
							"internalType": "address",
							"name": "addr",
							"type": "address"
						}
					],
					"name": "hash",
					"outputs": [
						{
							"internalType": "bytes32",
							"name": "",
							"type": "bytes32"
						}
					],
					"stateMutability": "pure",
					"type": "function"
				},
				{
					"inputs": [
						{
							"internalType": "string",
							"name": "text0",
							"type": "string"
						},
						{
							"internalType": "uint256",
							"name": "x",
							"type": "uint256"
						},
						{
							"internalType": "string",
							"name": "text1",
							"type": "string"
						}
					],
					"name": "noCollision",
					"outputs": [
						{
							"internalType": "bytes32",
							"name": "",
							"type": "bytes32"
						}
					],
					"stateMutability": "pure",
					"type": "function"
				}
			],
			"devdoc": {
				"kind": "dev",
				"methods": {},
				"version": 1
			},
			"evm": {
				"assembly": "    /* \"contracts/Hash.sol\":333:1375  contract HashFunc {\r... */\n  mstore(0x40, 0x80)\n  callvalue\n  dup1\n  iszero\n  tag_1\n  jumpi\n  0x00\n  dup1\n  revert\ntag_1:\n  pop\n  dataSize(sub_0)\n  dup1\n  dataOffset(sub_0)\n  0x00\n  codecopy\n  0x00\n  return\nstop\n\nsub_0: assembly {\n        /* \"contracts/Hash.sol\":333:1375  contract HashFunc {\r... */\n      mstore(0x40, 0x80)\n      callvalue\n      dup1\n      iszero\n      tag_1\n      jumpi\n      0x00\n      dup1\n      revert\n    tag_1:\n      pop\n      jumpi(tag_2, lt(calldatasize, 0x04))\n      shr(0xe0, calldataload(0x00))\n      dup1\n      0x17fe2da2\n      eq\n      tag_3\n      jumpi\n      dup1\n      0x5dda416e\n      eq\n      tag_4\n      jumpi\n      dup1\n      0x7b7fb982\n      eq\n      tag_5\n      jumpi\n      dup1\n      0x892e5d01\n      eq\n      tag_6\n      jumpi\n      dup1\n      0xc93025e7\n      eq\n      tag_7\n      jumpi\n    tag_2:\n      0x00\n      dup1\n      revert\n        /* \"contracts/Hash.sol\":602:747  function encode(string memory text0, string memory text1) external pure returns (bytes memory) {\r... */\n    tag_3:\n      tag_8\n      0x04\n      dup1\n      calldatasize\n      sub\n      dup2\n      add\n      swap1\n      tag_9\n      swap2\n      swap1\n      tag_10\n      jump\t// in\n    tag_9:\n      tag_11\n      jump\t// in\n    tag_8:\n      mload(0x40)\n      tag_12\n      swap2\n      swap1\n      tag_13\n      jump\t// in\n    tag_12:\n      mload(0x40)\n      dup1\n      swap2\n      sub\n      swap1\n      return\n        /* \"contracts/Hash.sol\":358:518  function hash(string memory text, uint num, address addr) external pure returns (bytes32) {\r... */\n    tag_4:\n      tag_14\n      0x04\n      dup1\n      calldatasize\n      sub\n      dup2\n      add\n      swap1\n      tag_15\n      swap2\n      swap1\n      tag_16\n      jump\t// in\n    tag_15:\n      tag_17\n      jump\t// in\n    tag_14:\n      mload(0x40)\n      tag_18\n      swap2\n      swap1\n      tag_19\n      jump\t// in\n    tag_18:\n      mload(0x40)\n      dup1\n      swap2\n      sub\n      swap1\n      return\n        /* \"contracts/Hash.sol\":920:1081  function collision (string memory text0, string memory text1) external pure returns (bytes32) {\r... */\n    tag_5:\n      tag_20\n      0x04\n      dup1\n      calldatasize\n      sub\n      dup2\n      add\n      swap1\n      tag_21\n      swap2\n      swap1\n      tag_10\n      jump\t// in\n    tag_21:\n      tag_22\n      jump\t// in\n    tag_20:\n      mload(0x40)\n      tag_23\n      swap2\n      swap1\n      tag_19\n      jump\t// in\n    tag_23:\n      mload(0x40)\n      dup1\n      swap2\n      sub\n      swap1\n      return\n        /* \"contracts/Hash.sol\":755:912  function encodePacked(string memory text0, string memory text1) external pure returns (bytes memory) {\r... */\n    tag_6:\n      tag_24\n      0x04\n      dup1\n      calldatasize\n      sub\n      dup2\n      add\n      swap1\n      tag_25\n      swap2\n      swap1\n      tag_10\n      jump\t// in\n    tag_25:\n      tag_26\n      jump\t// in\n    tag_24:\n      mload(0x40)\n      tag_27\n      swap2\n      swap1\n      tag_13\n      jump\t// in\n    tag_27:\n      mload(0x40)\n      dup1\n      swap2\n      sub\n      swap1\n      return\n        /* \"contracts/Hash.sol\":1201:1372  function noCollision (string memory text0, uint x, string memory text1) external pure returns (bytes32) {\r... */\n    tag_7:\n      tag_28\n      0x04\n      dup1\n      calldatasize\n      sub\n      dup2\n      add\n      swap1\n      tag_29\n      swap2\n      swap1\n      tag_30\n      jump\t// in\n    tag_29:\n      tag_31\n      jump\t// in\n    tag_28:\n      mload(0x40)\n      tag_32\n      swap2\n      swap1\n      tag_19\n      jump\t// in\n    tag_32:\n      mload(0x40)\n      dup1\n      swap2\n      sub\n      swap1\n      return\n        /* \"contracts/Hash.sol\":602:747  function encode(string memory text0, string memory text1) external pure returns (bytes memory) {\r... */\n    tag_11:\n        /* \"contracts/Hash.sol\":683:695  bytes memory */\n      0x60\n        /* \"contracts/Hash.sol\":726:731  text0 */\n      dup3\n        /* \"contracts/Hash.sol\":733:738  text1 */\n      dup3\n        /* \"contracts/Hash.sol\":715:739  abi.encode(text0, text1) */\n      add(0x20, mload(0x40))\n      tag_34\n      swap3\n      swap2\n      swap1\n      tag_35\n      jump\t// in\n    tag_34:\n      mload(0x40)\n      0x20\n      dup2\n      dup4\n      sub\n      sub\n      dup2\n      mstore\n      swap1\n      0x40\n      mstore\n        /* \"contracts/Hash.sol\":708:739  return abi.encode(text0, text1) */\n      swap1\n      pop\n        /* \"contracts/Hash.sol\":602:747  function encode(string memory text0, string memory text1) external pure returns (bytes memory) {\r... */\n      swap3\n      swap2\n      pop\n      pop\n      jump\t// out\n        /* \"contracts/Hash.sol\":358:518  function hash(string memory text, uint num, address addr) external pure returns (bytes32) {\r... */\n    tag_17:\n        /* \"contracts/Hash.sol\":439:446  bytes32 */\n      0x00\n        /* \"contracts/Hash.sol\":493:497  text */\n      dup4\n        /* \"contracts/Hash.sol\":499:502  num */\n      dup4\n        /* \"contracts/Hash.sol\":504:508  addr */\n      dup4\n        /* \"contracts/Hash.sol\":476:509  abi.encodePacked(text, num, addr) */\n      add(0x20, mload(0x40))\n      tag_37\n      swap4\n      swap3\n      swap2\n      swap1\n      tag_38\n      jump\t// in\n    tag_37:\n      mload(0x40)\n      0x20\n      dup2\n      dup4\n      sub\n      sub\n      dup2\n      mstore\n      swap1\n      0x40\n      mstore\n        /* \"contracts/Hash.sol\":466:510  keccak256(abi.encodePacked(text, num, addr)) */\n      dup1\n      mload\n      swap1\n      0x20\n      add\n      keccak256\n        /* \"contracts/Hash.sol\":459:510  return keccak256(abi.encodePacked(text, num, addr)) */\n      swap1\n      pop\n        /* \"contracts/Hash.sol\":358:518  function hash(string memory text, uint num, address addr) external pure returns (bytes32) {\r... */\n      swap4\n      swap3\n      pop\n      pop\n      pop\n      jump\t// out\n        /* \"contracts/Hash.sol\":920:1081  function collision (string memory text0, string memory text1) external pure returns (bytes32) {\r... */\n    tag_22:\n        /* \"contracts/Hash.sol\":1005:1012  bytes32 */\n      0x00\n        /* \"contracts/Hash.sol\":1059:1064  text0 */\n      dup3\n        /* \"contracts/Hash.sol\":1066:1071  text1 */\n      dup3\n        /* \"contracts/Hash.sol\":1042:1072  abi.encodePacked(text0, text1) */\n      add(0x20, mload(0x40))\n      tag_40\n      swap3\n      swap2\n      swap1\n      tag_41\n      jump\t// in\n    tag_40:\n      mload(0x40)\n      0x20\n      dup2\n      dup4\n      sub\n      sub\n      dup2\n      mstore\n      swap1\n      0x40\n      mstore\n        /* \"contracts/Hash.sol\":1032:1073  keccak256(abi.encodePacked(text0, text1)) */\n      dup1\n      mload\n      swap1\n      0x20\n      add\n      keccak256\n        /* \"contracts/Hash.sol\":1025:1073  return keccak256(abi.encodePacked(text0, text1)) */\n      swap1\n      pop\n        /* \"contracts/Hash.sol\":920:1081  function collision (string memory text0, string memory text1) external pure returns (bytes32) {\r... */\n      swap3\n      swap2\n      pop\n      pop\n      jump\t// out\n        /* \"contracts/Hash.sol\":755:912  function encodePacked(string memory text0, string memory text1) external pure returns (bytes memory) {\r... */\n    tag_26:\n        /* \"contracts/Hash.sol\":842:854  bytes memory */\n      0x60\n        /* \"contracts/Hash.sol\":891:896  text0 */\n      dup3\n        /* \"contracts/Hash.sol\":898:903  text1 */\n      dup3\n        /* \"contracts/Hash.sol\":874:904  abi.encodePacked(text0, text1) */\n      add(0x20, mload(0x40))\n      tag_43\n      swap3\n      swap2\n      swap1\n      tag_41\n      jump\t// in\n    tag_43:\n      mload(0x40)\n      0x20\n      dup2\n      dup4\n      sub\n      sub\n      dup2\n      mstore\n      swap1\n      0x40\n      mstore\n        /* \"contracts/Hash.sol\":867:904  return abi.encodePacked(text0, text1) */\n      swap1\n      pop\n        /* \"contracts/Hash.sol\":755:912  function encodePacked(string memory text0, string memory text1) external pure returns (bytes memory) {\r... */\n      swap3\n      swap2\n      pop\n      pop\n      jump\t// out\n        /* \"contracts/Hash.sol\":1201:1372  function noCollision (string memory text0, uint x, string memory text1) external pure returns (bytes32) {\r... */\n    tag_31:\n        /* \"contracts/Hash.sol\":1296:1303  bytes32 */\n      0x00\n        /* \"contracts/Hash.sol\":1350:1355  text0 */\n      dup4\n        /* \"contracts/Hash.sol\":1357:1362  text1 */\n      dup3\n        /* \"contracts/Hash.sol\":1333:1363  abi.encodePacked(text0, text1) */\n      add(0x20, mload(0x40))\n      tag_45\n      swap3\n      swap2\n      swap1\n      tag_41\n      jump\t// in\n    tag_45:\n      mload(0x40)\n      0x20\n      dup2\n      dup4\n      sub\n      sub\n      dup2\n      mstore\n      swap1\n      0x40\n      mstore\n        /* \"contracts/Hash.sol\":1323:1364  keccak256(abi.encodePacked(text0, text1)) */\n      dup1\n      mload\n      swap1\n      0x20\n      add\n      keccak256\n        /* \"contracts/Hash.sol\":1316:1364  return keccak256(abi.encodePacked(text0, text1)) */\n      swap1\n      pop\n        /* \"contracts/Hash.sol\":1201:1372  function noCollision (string memory text0, uint x, string memory text1) external pure returns (bytes32) {\r... */\n      swap4\n      swap3\n      pop\n      pop\n      pop\n      jump\t// out\n        /* \"#utility.yul\":7:419   */\n    tag_47:\n        /* \"#utility.yul\":85:90   */\n      0x00\n        /* \"#utility.yul\":110:176   */\n      tag_49\n        /* \"#utility.yul\":126:175   */\n      tag_50\n        /* \"#utility.yul\":168:174   */\n      dup5\n        /* \"#utility.yul\":126:175   */\n      tag_51\n      jump\t// in\n    tag_50:\n        /* \"#utility.yul\":110:176   */\n      tag_52\n      jump\t// in\n    tag_49:\n        /* \"#utility.yul\":101:176   */\n      swap1\n      pop\n        /* \"#utility.yul\":199:205   */\n      dup3\n        /* \"#utility.yul\":192:197   */\n      dup2\n        /* \"#utility.yul\":185:206   */\n      mstore\n        /* \"#utility.yul\":237:241   */\n      0x20\n        /* \"#utility.yul\":230:235   */\n      dup2\n        /* \"#utility.yul\":226:242   */\n      add\n        /* \"#utility.yul\":275:278   */\n      dup5\n        /* \"#utility.yul\":266:272   */\n      dup5\n        /* \"#utility.yul\":261:264   */\n      dup5\n        /* \"#utility.yul\":257:273   */\n      add\n        /* \"#utility.yul\":254:279   */\n      gt\n        /* \"#utility.yul\":251:363   */\n      iszero\n      tag_53\n      jumpi\n        /* \"#utility.yul\":282:361   */\n      tag_54\n      tag_55\n      jump\t// in\n    tag_54:\n        /* \"#utility.yul\":251:363   */\n    tag_53:\n        /* \"#utility.yul\":372:413   */\n      tag_56\n        /* \"#utility.yul\":406:412   */\n      dup5\n        /* \"#utility.yul\":401:404   */\n      dup3\n        /* \"#utility.yul\":396:399   */\n      dup6\n        /* \"#utility.yul\":372:413   */\n      tag_57\n      jump\t// in\n    tag_56:\n        /* \"#utility.yul\":91:419   */\n      pop\n        /* \"#utility.yul\":7:419   */\n      swap4\n      swap3\n      pop\n      pop\n      pop\n      jump\t// out\n        /* \"#utility.yul\":425:564   */\n    tag_58:\n        /* \"#utility.yul\":471:476   */\n      0x00\n        /* \"#utility.yul\":509:515   */\n      dup2\n        /* \"#utility.yul\":496:516   */\n      calldataload\n        /* \"#utility.yul\":487:516   */\n      swap1\n      pop\n        /* \"#utility.yul\":525:558   */\n      tag_60\n        /* \"#utility.yul\":552:557   */\n      dup2\n        /* \"#utility.yul\":525:558   */\n      tag_61\n      jump\t// in\n    tag_60:\n        /* \"#utility.yul\":425:564   */\n      swap3\n      swap2\n      pop\n      pop\n      jump\t// out\n        /* \"#utility.yul\":584:924   */\n    tag_62:\n        /* \"#utility.yul\":640:645   */\n      0x00\n        /* \"#utility.yul\":689:692   */\n      dup3\n        /* \"#utility.yul\":682:686   */\n      0x1f\n        /* \"#utility.yul\":674:680   */\n      dup4\n        /* \"#utility.yul\":670:687   */\n      add\n        /* \"#utility.yul\":666:693   */\n      slt\n        /* \"#utility.yul\":656:778   */\n      tag_64\n      jumpi\n        /* \"#utility.yul\":697:776   */\n      tag_65\n      tag_66\n      jump\t// in\n    tag_65:\n        /* \"#utility.yul\":656:778   */\n    tag_64:\n        /* \"#utility.yul\":814:820   */\n      dup2\n        /* \"#utility.yul\":801:821   */\n      calldataload\n        /* \"#utility.yul\":839:918   */\n      tag_67\n        /* \"#utility.yul\":914:917   */\n      dup5\n        /* \"#utility.yul\":906:912   */\n      dup3\n        /* \"#utility.yul\":899:903   */\n      0x20\n        /* \"#utility.yul\":891:897   */\n      dup7\n        /* \"#utility.yul\":887:904   */\n      add\n        /* \"#utility.yul\":839:918   */\n      tag_47\n      jump\t// in\n    tag_67:\n        /* \"#utility.yul\":830:918   */\n      swap2\n      pop\n        /* \"#utility.yul\":646:924   */\n      pop\n        /* \"#utility.yul\":584:924   */\n      swap3\n      swap2\n      pop\n      pop\n      jump\t// out\n        /* \"#utility.yul\":930:1069   */\n    tag_68:\n        /* \"#utility.yul\":976:981   */\n      0x00\n        /* \"#utility.yul\":1014:1020   */\n      dup2\n        /* \"#utility.yul\":1001:1021   */\n      calldataload\n        /* \"#utility.yul\":992:1021   */\n      swap1\n      pop\n        /* \"#utility.yul\":1030:1063   */\n      tag_70\n        /* \"#utility.yul\":1057:1062   */\n      dup2\n        /* \"#utility.yul\":1030:1063   */\n      tag_71\n      jump\t// in\n    tag_70:\n        /* \"#utility.yul\":930:1069   */\n      swap3\n      swap2\n      pop\n      pop\n      jump\t// out\n        /* \"#utility.yul\":1075:1909   */\n    tag_10:\n        /* \"#utility.yul\":1163:1169   */\n      0x00\n        /* \"#utility.yul\":1171:1177   */\n      dup1\n        /* \"#utility.yul\":1220:1222   */\n      0x40\n        /* \"#utility.yul\":1208:1217   */\n      dup4\n        /* \"#utility.yul\":1199:1206   */\n      dup6\n        /* \"#utility.yul\":1195:1218   */\n      sub\n        /* \"#utility.yul\":1191:1223   */\n      slt\n        /* \"#utility.yul\":1188:1307   */\n      iszero\n      tag_73\n      jumpi\n        /* \"#utility.yul\":1226:1305   */\n      tag_74\n      tag_75\n      jump\t// in\n    tag_74:\n        /* \"#utility.yul\":1188:1307   */\n    tag_73:\n        /* \"#utility.yul\":1374:1375   */\n      0x00\n        /* \"#utility.yul\":1363:1372   */\n      dup4\n        /* \"#utility.yul\":1359:1376   */\n      add\n        /* \"#utility.yul\":1346:1377   */\n      calldataload\n        /* \"#utility.yul\":1404:1422   */\n      0xffffffffffffffff\n        /* \"#utility.yul\":1396:1402   */\n      dup2\n        /* \"#utility.yul\":1393:1423   */\n      gt\n        /* \"#utility.yul\":1390:1507   */\n      iszero\n      tag_76\n      jumpi\n        /* \"#utility.yul\":1426:1505   */\n      tag_77\n      tag_78\n      jump\t// in\n    tag_77:\n        /* \"#utility.yul\":1390:1507   */\n    tag_76:\n        /* \"#utility.yul\":1531:1594   */\n      tag_79\n        /* \"#utility.yul\":1586:1593   */\n      dup6\n        /* \"#utility.yul\":1577:1583   */\n      dup3\n        /* \"#utility.yul\":1566:1575   */\n      dup7\n        /* \"#utility.yul\":1562:1584   */\n      add\n        /* \"#utility.yul\":1531:1594   */\n      tag_62\n      jump\t// in\n    tag_79:\n        /* \"#utility.yul\":1521:1594   */\n      swap3\n      pop\n        /* \"#utility.yul\":1317:1604   */\n      pop\n        /* \"#utility.yul\":1671:1673   */\n      0x20\n        /* \"#utility.yul\":1660:1669   */\n      dup4\n        /* \"#utility.yul\":1656:1674   */\n      add\n        /* \"#utility.yul\":1643:1675   */\n      calldataload\n        /* \"#utility.yul\":1702:1720   */\n      0xffffffffffffffff\n        /* \"#utility.yul\":1694:1700   */\n      dup2\n        /* \"#utility.yul\":1691:1721   */\n      gt\n        /* \"#utility.yul\":1688:1805   */\n      iszero\n      tag_80\n      jumpi\n        /* \"#utility.yul\":1724:1803   */\n      tag_81\n      tag_78\n      jump\t// in\n    tag_81:\n        /* \"#utility.yul\":1688:1805   */\n    tag_80:\n        /* \"#utility.yul\":1829:1892   */\n      tag_82\n        /* \"#utility.yul\":1884:1891   */\n      dup6\n        /* \"#utility.yul\":1875:1881   */\n      dup3\n        /* \"#utility.yul\":1864:1873   */\n      dup7\n        /* \"#utility.yul\":1860:1882   */\n      add\n        /* \"#utility.yul\":1829:1892   */\n      tag_62\n      jump\t// in\n    tag_82:\n        /* \"#utility.yul\":1819:1892   */\n      swap2\n      pop\n        /* \"#utility.yul\":1614:1902   */\n      pop\n        /* \"#utility.yul\":1075:1909   */\n      swap3\n      pop\n      swap3\n      swap1\n      pop\n      jump\t// out\n        /* \"#utility.yul\":1915:2714   */\n    tag_16:\n        /* \"#utility.yul\":2002:2008   */\n      0x00\n        /* \"#utility.yul\":2010:2016   */\n      dup1\n        /* \"#utility.yul\":2018:2024   */\n      0x00\n        /* \"#utility.yul\":2067:2069   */\n      0x60\n        /* \"#utility.yul\":2055:2064   */\n      dup5\n        /* \"#utility.yul\":2046:2053   */\n      dup7\n        /* \"#utility.yul\":2042:2065   */\n      sub\n        /* \"#utility.yul\":2038:2070   */\n      slt\n        /* \"#utility.yul\":2035:2154   */\n      iszero\n      tag_84\n      jumpi\n        /* \"#utility.yul\":2073:2152   */\n      tag_85\n      tag_75\n      jump\t// in\n    tag_85:\n        /* \"#utility.yul\":2035:2154   */\n    tag_84:\n        /* \"#utility.yul\":2221:2222   */\n      0x00\n        /* \"#utility.yul\":2210:2219   */\n      dup5\n        /* \"#utility.yul\":2206:2223   */\n      add\n        /* \"#utility.yul\":2193:2224   */\n      calldataload\n        /* \"#utility.yul\":2251:2269   */\n      0xffffffffffffffff\n        /* \"#utility.yul\":2243:2249   */\n      dup2\n        /* \"#utility.yul\":2240:2270   */\n      gt\n        /* \"#utility.yul\":2237:2354   */\n      iszero\n      tag_86\n      jumpi\n        /* \"#utility.yul\":2273:2352   */\n      tag_87\n      tag_78\n      jump\t// in\n    tag_87:\n        /* \"#utility.yul\":2237:2354   */\n    tag_86:\n        /* \"#utility.yul\":2378:2441   */\n      tag_88\n        /* \"#utility.yul\":2433:2440   */\n      dup7\n        /* \"#utility.yul\":2424:2430   */\n      dup3\n        /* \"#utility.yul\":2413:2422   */\n      dup8\n        /* \"#utility.yul\":2409:2431   */\n      add\n        /* \"#utility.yul\":2378:2441   */\n      tag_62\n      jump\t// in\n    tag_88:\n        /* \"#utility.yul\":2368:2441   */\n      swap4\n      pop\n        /* \"#utility.yul\":2164:2451   */\n      pop\n        /* \"#utility.yul\":2490:2492   */\n      0x20\n        /* \"#utility.yul\":2516:2569   */\n      tag_89\n        /* \"#utility.yul\":2561:2568   */\n      dup7\n        /* \"#utility.yul\":2552:2558   */\n      dup3\n        /* \"#utility.yul\":2541:2550   */\n      dup8\n        /* \"#utility.yul\":2537:2559   */\n      add\n        /* \"#utility.yul\":2516:2569   */\n      tag_68\n      jump\t// in\n    tag_89:\n        /* \"#utility.yul\":2506:2569   */\n      swap3\n      pop\n        /* \"#utility.yul\":2461:2579   */\n      pop\n        /* \"#utility.yul\":2618:2620   */\n      0x40\n        /* \"#utility.yul\":2644:2697   */\n      tag_90\n        /* \"#utility.yul\":2689:2696   */\n      dup7\n        /* \"#utility.yul\":2680:2686   */\n      dup3\n        /* \"#utility.yul\":2669:2678   */\n      dup8\n        /* \"#utility.yul\":2665:2687   */\n      add\n        /* \"#utility.yul\":2644:2697   */\n      tag_58\n      jump\t// in\n    tag_90:\n        /* \"#utility.yul\":2634:2697   */\n      swap2\n      pop\n        /* \"#utility.yul\":2589:2707   */\n      pop\n        /* \"#utility.yul\":1915:2714   */\n      swap3\n      pop\n      swap3\n      pop\n      swap3\n      jump\t// out\n        /* \"#utility.yul\":2720:3699   */\n    tag_30:\n        /* \"#utility.yul\":2817:2823   */\n      0x00\n        /* \"#utility.yul\":2825:2831   */\n      dup1\n        /* \"#utility.yul\":2833:2839   */\n      0x00\n        /* \"#utility.yul\":2882:2884   */\n      0x60\n        /* \"#utility.yul\":2870:2879   */\n      dup5\n        /* \"#utility.yul\":2861:2868   */\n      dup7\n        /* \"#utility.yul\":2857:2880   */\n      sub\n        /* \"#utility.yul\":2853:2885   */\n      slt\n        /* \"#utility.yul\":2850:2969   */\n      iszero\n      tag_92\n      jumpi\n        /* \"#utility.yul\":2888:2967   */\n      tag_93\n      tag_75\n      jump\t// in\n    tag_93:\n        /* \"#utility.yul\":2850:2969   */\n    tag_92:\n        /* \"#utility.yul\":3036:3037   */\n      0x00\n        /* \"#utility.yul\":3025:3034   */\n      dup5\n        /* \"#utility.yul\":3021:3038   */\n      add\n        /* \"#utility.yul\":3008:3039   */\n      calldataload\n        /* \"#utility.yul\":3066:3084   */\n      0xffffffffffffffff\n        /* \"#utility.yul\":3058:3064   */\n      dup2\n        /* \"#utility.yul\":3055:3085   */\n      gt\n        /* \"#utility.yul\":3052:3169   */\n      iszero\n      tag_94\n      jumpi\n        /* \"#utility.yul\":3088:3167   */\n      tag_95\n      tag_78\n      jump\t// in\n    tag_95:\n        /* \"#utility.yul\":3052:3169   */\n    tag_94:\n        /* \"#utility.yul\":3193:3256   */\n      tag_96\n        /* \"#utility.yul\":3248:3255   */\n      dup7\n        /* \"#utility.yul\":3239:3245   */\n      dup3\n        /* \"#utility.yul\":3228:3237   */\n      dup8\n        /* \"#utility.yul\":3224:3246   */\n      add\n        /* \"#utility.yul\":3193:3256   */\n      tag_62\n      jump\t// in\n    tag_96:\n        /* \"#utility.yul\":3183:3256   */\n      swap4\n      pop\n        /* \"#utility.yul\":2979:3266   */\n      pop\n        /* \"#utility.yul\":3305:3307   */\n      0x20\n        /* \"#utility.yul\":3331:3384   */\n      tag_97\n        /* \"#utility.yul\":3376:3383   */\n      dup7\n        /* \"#utility.yul\":3367:3373   */\n      dup3\n        /* \"#utility.yul\":3356:3365   */\n      dup8\n        /* \"#utility.yul\":3352:3374   */\n      add\n        /* \"#utility.yul\":3331:3384   */\n      tag_68\n      jump\t// in\n    tag_97:\n        /* \"#utility.yul\":3321:3384   */\n      swap3\n      pop\n        /* \"#utility.yul\":3276:3394   */\n      pop\n        /* \"#utility.yul\":3461:3463   */\n      0x40\n        /* \"#utility.yul\":3450:3459   */\n      dup5\n        /* \"#utility.yul\":3446:3464   */\n      add\n        /* \"#utility.yul\":3433:3465   */\n      calldataload\n        /* \"#utility.yul\":3492:3510   */\n      0xffffffffffffffff\n        /* \"#utility.yul\":3484:3490   */\n      dup2\n        /* \"#utility.yul\":3481:3511   */\n      gt\n        /* \"#utility.yul\":3478:3595   */\n      iszero\n      tag_98\n      jumpi\n        /* \"#utility.yul\":3514:3593   */\n      tag_99\n      tag_78\n      jump\t// in\n    tag_99:\n        /* \"#utility.yul\":3478:3595   */\n    tag_98:\n        /* \"#utility.yul\":3619:3682   */\n      tag_100\n        /* \"#utility.yul\":3674:3681   */\n      dup7\n        /* \"#utility.yul\":3665:3671   */\n      dup3\n        /* \"#utility.yul\":3654:3663   */\n      dup8\n        /* \"#utility.yul\":3650:3672   */\n      add\n        /* \"#utility.yul\":3619:3682   */\n      tag_62\n      jump\t// in\n    tag_100:\n        /* \"#utility.yul\":3609:3682   */\n      swap2\n      pop\n        /* \"#utility.yul\":3404:3692   */\n      pop\n        /* \"#utility.yul\":2720:3699   */\n      swap3\n      pop\n      swap3\n      pop\n      swap3\n      jump\t// out\n        /* \"#utility.yul\":3705:3862   */\n    tag_101:\n        /* \"#utility.yul\":3810:3855   */\n      tag_103\n        /* \"#utility.yul\":3830:3854   */\n      tag_104\n        /* \"#utility.yul\":3848:3853   */\n      dup3\n        /* \"#utility.yul\":3830:3854   */\n      tag_105\n      jump\t// in\n    tag_104:\n        /* \"#utility.yul\":3810:3855   */\n      tag_106\n      jump\t// in\n    tag_103:\n        /* \"#utility.yul\":3805:3808   */\n      dup3\n        /* \"#utility.yul\":3798:3856   */\n      mstore\n        /* \"#utility.yul\":3705:3862   */\n      pop\n      pop\n      jump\t// out\n        /* \"#utility.yul\":3868:3986   */\n    tag_107:\n        /* \"#utility.yul\":3955:3979   */\n      tag_109\n        /* \"#utility.yul\":3973:3978   */\n      dup2\n        /* \"#utility.yul\":3955:3979   */\n      tag_110\n      jump\t// in\n    tag_109:\n        /* \"#utility.yul\":3950:3953   */\n      dup3\n        /* \"#utility.yul\":3943:3980   */\n      mstore\n        /* \"#utility.yul\":3868:3986   */\n      pop\n      pop\n      jump\t// out\n        /* \"#utility.yul\":3992:4352   */\n    tag_111:\n        /* \"#utility.yul\":4078:4081   */\n      0x00\n        /* \"#utility.yul\":4106:4144   */\n      tag_113\n        /* \"#utility.yul\":4138:4143   */\n      dup3\n        /* \"#utility.yul\":4106:4144   */\n      tag_114\n      jump\t// in\n    tag_113:\n        /* \"#utility.yul\":4160:4230   */\n      tag_115\n        /* \"#utility.yul\":4223:4229   */\n      dup2\n        /* \"#utility.yul\":4218:4221   */\n      dup6\n        /* \"#utility.yul\":4160:4230   */\n      tag_116\n      jump\t// in\n    tag_115:\n        /* \"#utility.yul\":4153:4230   */\n      swap4\n      pop\n        /* \"#utility.yul\":4239:4291   */\n      tag_117\n        /* \"#utility.yul\":4284:4290   */\n      dup2\n        /* \"#utility.yul\":4279:4282   */\n      dup6\n        /* \"#utility.yul\":4272:4276   */\n      0x20\n        /* \"#utility.yul\":4265:4270   */\n      dup7\n        /* \"#utility.yul\":4261:4277   */\n      add\n        /* \"#utility.yul\":4239:4291   */\n      tag_118\n      jump\t// in\n    tag_117:\n        /* \"#utility.yul\":4316:4345   */\n      tag_119\n        /* \"#utility.yul\":4338:4344   */\n      dup2\n        /* \"#utility.yul\":4316:4345   */\n      tag_120\n      jump\t// in\n    tag_119:\n        /* \"#utility.yul\":4311:4314   */\n      dup5\n        /* \"#utility.yul\":4307:4346   */\n      add\n        /* \"#utility.yul\":4300:4346   */\n      swap2\n      pop\n        /* \"#utility.yul\":4082:4352   */\n      pop\n        /* \"#utility.yul\":3992:4352   */\n      swap3\n      swap2\n      pop\n      pop\n      jump\t// out\n        /* \"#utility.yul\":4358:4722   */\n    tag_121:\n        /* \"#utility.yul\":4446:4449   */\n      0x00\n        /* \"#utility.yul\":4474:4513   */\n      tag_123\n        /* \"#utility.yul\":4507:4512   */\n      dup3\n        /* \"#utility.yul\":4474:4513   */\n      tag_124\n      jump\t// in\n    tag_123:\n        /* \"#utility.yul\":4529:4600   */\n      tag_125\n        /* \"#utility.yul\":4593:4599   */\n      dup2\n        /* \"#utility.yul\":4588:4591   */\n      dup6\n        /* \"#utility.yul\":4529:4600   */\n      tag_126\n      jump\t// in\n    tag_125:\n        /* \"#utility.yul\":4522:4600   */\n      swap4\n      pop\n        /* \"#utility.yul\":4609:4661   */\n      tag_127\n        /* \"#utility.yul\":4654:4660   */\n      dup2\n        /* \"#utility.yul\":4649:4652   */\n      dup6\n        /* \"#utility.yul\":4642:4646   */\n      0x20\n        /* \"#utility.yul\":4635:4640   */\n      dup7\n        /* \"#utility.yul\":4631:4647   */\n      add\n        /* \"#utility.yul\":4609:4661   */\n      tag_118\n      jump\t// in\n    tag_127:\n        /* \"#utility.yul\":4686:4715   */\n      tag_128\n        /* \"#utility.yul\":4708:4714   */\n      dup2\n        /* \"#utility.yul\":4686:4715   */\n      tag_120\n      jump\t// in\n    tag_128:\n        /* \"#utility.yul\":4681:4684   */\n      dup5\n        /* \"#utility.yul\":4677:4716   */\n      add\n        /* \"#utility.yul\":4670:4716   */\n      swap2\n      pop\n        /* \"#utility.yul\":4450:4722   */\n      pop\n        /* \"#utility.yul\":4358:4722   */\n      swap3\n      swap2\n      pop\n      pop\n      jump\t// out\n        /* \"#utility.yul\":4728:5105   */\n    tag_129:\n        /* \"#utility.yul\":4834:4837   */\n      0x00\n        /* \"#utility.yul\":4862:4901   */\n      tag_131\n        /* \"#utility.yul\":4895:4900   */\n      dup3\n        /* \"#utility.yul\":4862:4901   */\n      tag_124\n      jump\t// in\n    tag_131:\n        /* \"#utility.yul\":4917:5006   */\n      tag_132\n        /* \"#utility.yul\":4999:5005   */\n      dup2\n        /* \"#utility.yul\":4994:4997   */\n      dup6\n        /* \"#utility.yul\":4917:5006   */\n      tag_133\n      jump\t// in\n    tag_132:\n        /* \"#utility.yul\":4910:5006   */\n      swap4\n      pop\n        /* \"#utility.yul\":5015:5067   */\n      tag_134\n        /* \"#utility.yul\":5060:5066   */\n      dup2\n        /* \"#utility.yul\":5055:5058   */\n      dup6\n        /* \"#utility.yul\":5048:5052   */\n      0x20\n        /* \"#utility.yul\":5041:5046   */\n      dup7\n        /* \"#utility.yul\":5037:5053   */\n      add\n        /* \"#utility.yul\":5015:5067   */\n      tag_118\n      jump\t// in\n    tag_134:\n        /* \"#utility.yul\":5092:5098   */\n      dup1\n        /* \"#utility.yul\":5087:5090   */\n      dup5\n        /* \"#utility.yul\":5083:5099   */\n      add\n        /* \"#utility.yul\":5076:5099   */\n      swap2\n      pop\n        /* \"#utility.yul\":4838:5105   */\n      pop\n        /* \"#utility.yul\":4728:5105   */\n      swap3\n      swap2\n      pop\n      pop\n      jump\t// out\n        /* \"#utility.yul\":5111:5268   */\n    tag_135:\n        /* \"#utility.yul\":5216:5261   */\n      tag_137\n        /* \"#utility.yul\":5236:5260   */\n      tag_138\n        /* \"#utility.yul\":5254:5259   */\n      dup3\n        /* \"#utility.yul\":5236:5260   */\n      tag_139\n      jump\t// in\n    tag_138:\n        /* \"#utility.yul\":5216:5261   */\n      tag_140\n      jump\t// in\n    tag_137:\n        /* \"#utility.yul\":5211:5214   */\n      dup3\n        /* \"#utility.yul\":5204:5262   */\n      mstore\n        /* \"#utility.yul\":5111:5268   */\n      pop\n      pop\n      jump\t// out\n        /* \"#utility.yul\":5274:5709   */\n    tag_41:\n        /* \"#utility.yul\":5454:5457   */\n      0x00\n        /* \"#utility.yul\":5476:5571   */\n      tag_142\n        /* \"#utility.yul\":5567:5570   */\n      dup3\n        /* \"#utility.yul\":5558:5564   */\n      dup6\n        /* \"#utility.yul\":5476:5571   */\n      tag_129\n      jump\t// in\n    tag_142:\n        /* \"#utility.yul\":5469:5571   */\n      swap2\n      pop\n        /* \"#utility.yul\":5588:5683   */\n      tag_143\n        /* \"#utility.yul\":5679:5682   */\n      dup3\n        /* \"#utility.yul\":5670:5676   */\n      dup5\n        /* \"#utility.yul\":5588:5683   */\n      tag_129\n      jump\t// in\n    tag_143:\n        /* \"#utility.yul\":5581:5683   */\n      swap2\n      pop\n        /* \"#utility.yul\":5700:5703   */\n      dup2\n        /* \"#utility.yul\":5693:5703   */\n      swap1\n      pop\n        /* \"#utility.yul\":5274:5709   */\n      swap4\n      swap3\n      pop\n      pop\n      pop\n      jump\t// out\n        /* \"#utility.yul\":5715:6272   */\n    tag_38:\n        /* \"#utility.yul\":5903:5906   */\n      0x00\n        /* \"#utility.yul\":5925:6020   */\n      tag_145\n        /* \"#utility.yul\":6016:6019   */\n      dup3\n        /* \"#utility.yul\":6007:6013   */\n      dup7\n        /* \"#utility.yul\":5925:6020   */\n      tag_129\n      jump\t// in\n    tag_145:\n        /* \"#utility.yul\":5918:6020   */\n      swap2\n      pop\n        /* \"#utility.yul\":6030:6105   */\n      tag_146\n        /* \"#utility.yul\":6101:6104   */\n      dup3\n        /* \"#utility.yul\":6092:6098   */\n      dup6\n        /* \"#utility.yul\":6030:6105   */\n      tag_135\n      jump\t// in\n    tag_146:\n        /* \"#utility.yul\":6130:6132   */\n      0x20\n        /* \"#utility.yul\":6125:6128   */\n      dup3\n        /* \"#utility.yul\":6121:6133   */\n      add\n        /* \"#utility.yul\":6114:6133   */\n      swap2\n      pop\n        /* \"#utility.yul\":6143:6218   */\n      tag_147\n        /* \"#utility.yul\":6214:6217   */\n      dup3\n        /* \"#utility.yul\":6205:6211   */\n      dup5\n        /* \"#utility.yul\":6143:6218   */\n      tag_101\n      jump\t// in\n    tag_147:\n        /* \"#utility.yul\":6243:6245   */\n      0x14\n        /* \"#utility.yul\":6238:6241   */\n      dup3\n        /* \"#utility.yul\":6234:6246   */\n      add\n        /* \"#utility.yul\":6227:6246   */\n      swap2\n      pop\n        /* \"#utility.yul\":6263:6266   */\n      dup2\n        /* \"#utility.yul\":6256:6266   */\n      swap1\n      pop\n        /* \"#utility.yul\":5715:6272   */\n      swap5\n      swap4\n      pop\n      pop\n      pop\n      pop\n      jump\t// out\n        /* \"#utility.yul\":6278:6500   */\n    tag_19:\n        /* \"#utility.yul\":6371:6375   */\n      0x00\n        /* \"#utility.yul\":6409:6411   */\n      0x20\n        /* \"#utility.yul\":6398:6407   */\n      dup3\n        /* \"#utility.yul\":6394:6412   */\n      add\n        /* \"#utility.yul\":6386:6412   */\n      swap1\n      pop\n        /* \"#utility.yul\":6422:6493   */\n      tag_149\n        /* \"#utility.yul\":6490:6491   */\n      0x00\n        /* \"#utility.yul\":6479:6488   */\n      dup4\n        /* \"#utility.yul\":6475:6492   */\n      add\n        /* \"#utility.yul\":6466:6472   */\n      dup5\n        /* \"#utility.yul\":6422:6493   */\n      tag_107\n      jump\t// in\n    tag_149:\n        /* \"#utility.yul\":6278:6500   */\n      swap3\n      swap2\n      pop\n      pop\n      jump\t// out\n        /* \"#utility.yul\":6506:6815   */\n    tag_13:\n        /* \"#utility.yul\":6617:6621   */\n      0x00\n        /* \"#utility.yul\":6655:6657   */\n      0x20\n        /* \"#utility.yul\":6644:6653   */\n      dup3\n        /* \"#utility.yul\":6640:6658   */\n      add\n        /* \"#utility.yul\":6632:6658   */\n      swap1\n      pop\n        /* \"#utility.yul\":6704:6713   */\n      dup2\n        /* \"#utility.yul\":6698:6702   */\n      dup2\n        /* \"#utility.yul\":6694:6714   */\n      sub\n        /* \"#utility.yul\":6690:6691   */\n      0x00\n        /* \"#utility.yul\":6679:6688   */\n      dup4\n        /* \"#utility.yul\":6675:6692   */\n      add\n        /* \"#utility.yul\":6668:6715   */\n      mstore\n        /* \"#utility.yul\":6732:6808   */\n      tag_151\n        /* \"#utility.yul\":6803:6807   */\n      dup2\n        /* \"#utility.yul\":6794:6800   */\n      dup5\n        /* \"#utility.yul\":6732:6808   */\n      tag_111\n      jump\t// in\n    tag_151:\n        /* \"#utility.yul\":6724:6808   */\n      swap1\n      pop\n        /* \"#utility.yul\":6506:6815   */\n      swap3\n      swap2\n      pop\n      pop\n      jump\t// out\n        /* \"#utility.yul\":6821:7335   */\n    tag_35:\n        /* \"#utility.yul\":6982:6986   */\n      0x00\n        /* \"#utility.yul\":7020:7022   */\n      0x40\n        /* \"#utility.yul\":7009:7018   */\n      dup3\n        /* \"#utility.yul\":7005:7023   */\n      add\n        /* \"#utility.yul\":6997:7023   */\n      swap1\n      pop\n        /* \"#utility.yul\":7069:7078   */\n      dup2\n        /* \"#utility.yul\":7063:7067   */\n      dup2\n        /* \"#utility.yul\":7059:7079   */\n      sub\n        /* \"#utility.yul\":7055:7056   */\n      0x00\n        /* \"#utility.yul\":7044:7053   */\n      dup4\n        /* \"#utility.yul\":7040:7057   */\n      add\n        /* \"#utility.yul\":7033:7080   */\n      mstore\n        /* \"#utility.yul\":7097:7175   */\n      tag_153\n        /* \"#utility.yul\":7170:7174   */\n      dup2\n        /* \"#utility.yul\":7161:7167   */\n      dup6\n        /* \"#utility.yul\":7097:7175   */\n      tag_121\n      jump\t// in\n    tag_153:\n        /* \"#utility.yul\":7089:7175   */\n      swap1\n      pop\n        /* \"#utility.yul\":7222:7231   */\n      dup2\n        /* \"#utility.yul\":7216:7220   */\n      dup2\n        /* \"#utility.yul\":7212:7232   */\n      sub\n        /* \"#utility.yul\":7207:7209   */\n      0x20\n        /* \"#utility.yul\":7196:7205   */\n      dup4\n        /* \"#utility.yul\":7192:7210   */\n      add\n        /* \"#utility.yul\":7185:7233   */\n      mstore\n        /* \"#utility.yul\":7250:7328   */\n      tag_154\n        /* \"#utility.yul\":7323:7327   */\n      dup2\n        /* \"#utility.yul\":7314:7320   */\n      dup5\n        /* \"#utility.yul\":7250:7328   */\n      tag_121\n      jump\t// in\n    tag_154:\n        /* \"#utility.yul\":7242:7328   */\n      swap1\n      pop\n        /* \"#utility.yul\":6821:7335   */\n      swap4\n      swap3\n      pop\n      pop\n      pop\n      jump\t// out\n        /* \"#utility.yul\":7341:7470   */\n    tag_52:\n        /* \"#utility.yul\":7375:7381   */\n      0x00\n        /* \"#utility.yul\":7402:7422   */\n      tag_156\n      tag_157\n      jump\t// in\n    tag_156:\n        /* \"#utility.yul\":7392:7422   */\n      swap1\n      pop\n        /* \"#utility.yul\":7431:7464   */\n      tag_158\n        /* \"#utility.yul\":7459:7463   */\n      dup3\n        /* \"#utility.yul\":7451:7457   */\n      dup3\n        /* \"#utility.yul\":7431:7464   */\n      tag_159\n      jump\t// in\n    tag_158:\n        /* \"#utility.yul\":7341:7470   */\n      swap2\n      swap1\n      pop\n      jump\t// out\n        /* \"#utility.yul\":7476:7551   */\n    tag_157:\n        /* \"#utility.yul\":7509:7515   */\n      0x00\n        /* \"#utility.yul\":7542:7544   */\n      0x40\n        /* \"#utility.yul\":7536:7545   */\n      mload\n        /* \"#utility.yul\":7526:7545   */\n      swap1\n      pop\n        /* \"#utility.yul\":7476:7551   */\n      swap1\n      jump\t// out\n        /* \"#utility.yul\":7557:7865   */\n    tag_51:\n        /* \"#utility.yul\":7619:7623   */\n      0x00\n        /* \"#utility.yul\":7709:7727   */\n      0xffffffffffffffff\n        /* \"#utility.yul\":7701:7707   */\n      dup3\n        /* \"#utility.yul\":7698:7728   */\n      gt\n        /* \"#utility.yul\":7695:7751   */\n      iszero\n      tag_162\n      jumpi\n        /* \"#utility.yul\":7731:7749   */\n      tag_163\n      tag_164\n      jump\t// in\n    tag_163:\n        /* \"#utility.yul\":7695:7751   */\n    tag_162:\n        /* \"#utility.yul\":7769:7798   */\n      tag_165\n        /* \"#utility.yul\":7791:7797   */\n      dup3\n        /* \"#utility.yul\":7769:7798   */\n      tag_120\n      jump\t// in\n    tag_165:\n        /* \"#utility.yul\":7761:7798   */\n      swap1\n      pop\n        /* \"#utility.yul\":7853:7857   */\n      0x20\n        /* \"#utility.yul\":7847:7851   */\n      dup2\n        /* \"#utility.yul\":7843:7858   */\n      add\n        /* \"#utility.yul\":7835:7858   */\n      swap1\n      pop\n        /* \"#utility.yul\":7557:7865   */\n      swap2\n      swap1\n      pop\n      jump\t// out\n        /* \"#utility.yul\":7871:7969   */\n    tag_114:\n        /* \"#utility.yul\":7922:7928   */\n      0x00\n        /* \"#utility.yul\":7956:7961   */\n      dup2\n        /* \"#utility.yul\":7950:7962   */\n      mload\n        /* \"#utility.yul\":7940:7962   */\n      swap1\n      pop\n        /* \"#utility.yul\":7871:7969   */\n      swap2\n      swap1\n      pop\n      jump\t// out\n        /* \"#utility.yul\":7975:8074   */\n    tag_124:\n        /* \"#utility.yul\":8027:8033   */\n      0x00\n        /* \"#utility.yul\":8061:8066   */\n      dup2\n        /* \"#utility.yul\":8055:8067   */\n      mload\n        /* \"#utility.yul\":8045:8067   */\n      swap1\n      pop\n        /* \"#utility.yul\":7975:8074   */\n      swap2\n      swap1\n      pop\n      jump\t// out\n        /* \"#utility.yul\":8080:8248   */\n    tag_116:\n        /* \"#utility.yul\":8163:8174   */\n      0x00\n        /* \"#utility.yul\":8197:8203   */\n      dup3\n        /* \"#utility.yul\":8192:8195   */\n      dup3\n        /* \"#utility.yul\":8185:8204   */\n      mstore\n        /* \"#utility.yul\":8237:8241   */\n      0x20\n        /* \"#utility.yul\":8232:8235   */\n      dup3\n        /* \"#utility.yul\":8228:8242   */\n      add\n        /* \"#utility.yul\":8213:8242   */\n      swap1\n      pop\n        /* \"#utility.yul\":8080:8248   */\n      swap3\n      swap2\n      pop\n      pop\n      jump\t// out\n        /* \"#utility.yul\":8254:8423   */\n    tag_126:\n        /* \"#utility.yul\":8338:8349   */\n      0x00\n        /* \"#utility.yul\":8372:8378   */\n      dup3\n        /* \"#utility.yul\":8367:8370   */\n      dup3\n        /* \"#utility.yul\":8360:8379   */\n      mstore\n        /* \"#utility.yul\":8412:8416   */\n      0x20\n        /* \"#utility.yul\":8407:8410   */\n      dup3\n        /* \"#utility.yul\":8403:8417   */\n      add\n        /* \"#utility.yul\":8388:8417   */\n      swap1\n      pop\n        /* \"#utility.yul\":8254:8423   */\n      swap3\n      swap2\n      pop\n      pop\n      jump\t// out\n        /* \"#utility.yul\":8429:8577   */\n    tag_133:\n        /* \"#utility.yul\":8531:8542   */\n      0x00\n        /* \"#utility.yul\":8568:8571   */\n      dup2\n        /* \"#utility.yul\":8553:8571   */\n      swap1\n      pop\n        /* \"#utility.yul\":8429:8577   */\n      swap3\n      swap2\n      pop\n      pop\n      jump\t// out\n        /* \"#utility.yul\":8583:8679   */\n    tag_105:\n        /* \"#utility.yul\":8620:8627   */\n      0x00\n        /* \"#utility.yul\":8649:8673   */\n      tag_172\n        /* \"#utility.yul\":8667:8672   */\n      dup3\n        /* \"#utility.yul\":8649:8673   */\n      tag_173\n      jump\t// in\n    tag_172:\n        /* \"#utility.yul\":8638:8673   */\n      swap1\n      pop\n        /* \"#utility.yul\":8583:8679   */\n      swap2\n      swap1\n      pop\n      jump\t// out\n        /* \"#utility.yul\":8685:8762   */\n    tag_110:\n        /* \"#utility.yul\":8722:8729   */\n      0x00\n        /* \"#utility.yul\":8751:8756   */\n      dup2\n        /* \"#utility.yul\":8740:8756   */\n      swap1\n      pop\n        /* \"#utility.yul\":8685:8762   */\n      swap2\n      swap1\n      pop\n      jump\t// out\n        /* \"#utility.yul\":8768:8894   */\n    tag_173:\n        /* \"#utility.yul\":8805:8812   */\n      0x00\n        /* \"#utility.yul\":8845:8887   */\n      0xffffffffffffffffffffffffffffffffffffffff\n        /* \"#utility.yul\":8838:8843   */\n      dup3\n        /* \"#utility.yul\":8834:8888   */\n      and\n        /* \"#utility.yul\":8823:8888   */\n      swap1\n      pop\n        /* \"#utility.yul\":8768:8894   */\n      swap2\n      swap1\n      pop\n      jump\t// out\n        /* \"#utility.yul\":8900:8977   */\n    tag_139:\n        /* \"#utility.yul\":8937:8944   */\n      0x00\n        /* \"#utility.yul\":8966:8971   */\n      dup2\n        /* \"#utility.yul\":8955:8971   */\n      swap1\n      pop\n        /* \"#utility.yul\":8900:8977   */\n      swap2\n      swap1\n      pop\n      jump\t// out\n        /* \"#utility.yul\":8983:9137   */\n    tag_57:\n        /* \"#utility.yul\":9067:9073   */\n      dup3\n        /* \"#utility.yul\":9062:9065   */\n      dup2\n        /* \"#utility.yul\":9057:9060   */\n      dup4\n        /* \"#utility.yul\":9044:9074   */\n      calldatacopy\n        /* \"#utility.yul\":9129:9130   */\n      0x00\n        /* \"#utility.yul\":9120:9126   */\n      dup4\n        /* \"#utility.yul\":9115:9118   */\n      dup4\n        /* \"#utility.yul\":9111:9127   */\n      add\n        /* \"#utility.yul\":9104:9131   */\n      mstore\n        /* \"#utility.yul\":8983:9137   */\n      pop\n      pop\n      pop\n      jump\t// out\n        /* \"#utility.yul\":9143:9450   */\n    tag_118:\n        /* \"#utility.yul\":9211:9212   */\n      0x00\n        /* \"#utility.yul\":9221:9334   */\n    tag_179:\n        /* \"#utility.yul\":9235:9241   */\n      dup4\n        /* \"#utility.yul\":9232:9233   */\n      dup2\n        /* \"#utility.yul\":9229:9242   */\n      lt\n        /* \"#utility.yul\":9221:9334   */\n      iszero\n      tag_181\n      jumpi\n        /* \"#utility.yul\":9320:9321   */\n      dup1\n        /* \"#utility.yul\":9315:9318   */\n      dup3\n        /* \"#utility.yul\":9311:9322   */\n      add\n        /* \"#utility.yul\":9305:9323   */\n      mload\n        /* \"#utility.yul\":9301:9302   */\n      dup2\n        /* \"#utility.yul\":9296:9299   */\n      dup5\n        /* \"#utility.yul\":9292:9303   */\n      add\n        /* \"#utility.yul\":9285:9324   */\n      mstore\n        /* \"#utility.yul\":9257:9259   */\n      0x20\n        /* \"#utility.yul\":9254:9255   */\n      dup2\n        /* \"#utility.yul\":9250:9260   */\n      add\n        /* \"#utility.yul\":9245:9260   */\n      swap1\n      pop\n        /* \"#utility.yul\":9221:9334   */\n      jump(tag_179)\n    tag_181:\n        /* \"#utility.yul\":9352:9358   */\n      dup4\n        /* \"#utility.yul\":9349:9350   */\n      dup2\n        /* \"#utility.yul\":9346:9359   */\n      gt\n        /* \"#utility.yul\":9343:9444   */\n      iszero\n      tag_182\n      jumpi\n        /* \"#utility.yul\":9432:9433   */\n      0x00\n        /* \"#utility.yul\":9423:9429   */\n      dup5\n        /* \"#utility.yul\":9418:9421   */\n      dup5\n        /* \"#utility.yul\":9414:9430   */\n      add\n        /* \"#utility.yul\":9407:9434   */\n      mstore\n        /* \"#utility.yul\":9343:9444   */\n    tag_182:\n        /* \"#utility.yul\":9192:9450   */\n      pop\n        /* \"#utility.yul\":9143:9450   */\n      pop\n      pop\n      pop\n      jump\t// out\n        /* \"#utility.yul\":9456:9737   */\n    tag_159:\n        /* \"#utility.yul\":9539:9566   */\n      tag_184\n        /* \"#utility.yul\":9561:9565   */\n      dup3\n        /* \"#utility.yul\":9539:9566   */\n      tag_120\n      jump\t// in\n    tag_184:\n        /* \"#utility.yul\":9531:9537   */\n      dup2\n        /* \"#utility.yul\":9527:9567   */\n      add\n        /* \"#utility.yul\":9669:9675   */\n      dup2\n        /* \"#utility.yul\":9657:9667   */\n      dup2\n        /* \"#utility.yul\":9654:9676   */\n      lt\n        /* \"#utility.yul\":9633:9651   */\n      0xffffffffffffffff\n        /* \"#utility.yul\":9621:9631   */\n      dup3\n        /* \"#utility.yul\":9618:9652   */\n      gt\n        /* \"#utility.yul\":9615:9677   */\n      or\n        /* \"#utility.yul\":9612:9700   */\n      iszero\n      tag_185\n      jumpi\n        /* \"#utility.yul\":9680:9698   */\n      tag_186\n      tag_164\n      jump\t// in\n    tag_186:\n        /* \"#utility.yul\":9612:9700   */\n    tag_185:\n        /* \"#utility.yul\":9720:9730   */\n      dup1\n        /* \"#utility.yul\":9716:9718   */\n      0x40\n        /* \"#utility.yul\":9709:9731   */\n      mstore\n        /* \"#utility.yul\":9499:9737   */\n      pop\n        /* \"#utility.yul\":9456:9737   */\n      pop\n      pop\n      jump\t// out\n        /* \"#utility.yul\":9743:9843   */\n    tag_106:\n        /* \"#utility.yul\":9782:9789   */\n      0x00\n        /* \"#utility.yul\":9811:9837   */\n      tag_188\n        /* \"#utility.yul\":9831:9836   */\n      dup3\n        /* \"#utility.yul\":9811:9837   */\n      tag_189\n      jump\t// in\n    tag_188:\n        /* \"#utility.yul\":9800:9837   */\n      swap1\n      pop\n        /* \"#utility.yul\":9743:9843   */\n      swap2\n      swap1\n      pop\n      jump\t// out\n        /* \"#utility.yul\":9849:9943   */\n    tag_189:\n        /* \"#utility.yul\":9888:9895   */\n      0x00\n        /* \"#utility.yul\":9917:9937   */\n      tag_191\n        /* \"#utility.yul\":9931:9936   */\n      dup3\n        /* \"#utility.yul\":9917:9937   */\n      tag_192\n      jump\t// in\n    tag_191:\n        /* \"#utility.yul\":9906:9937   */\n      swap1\n      pop\n        /* \"#utility.yul\":9849:9943   */\n      swap2\n      swap1\n      pop\n      jump\t// out\n        /* \"#utility.yul\":9949:10028   */\n    tag_140:\n        /* \"#utility.yul\":9988:9995   */\n      0x00\n        /* \"#utility.yul\":10017:10022   */\n      dup2\n        /* \"#utility.yul\":10006:10022   */\n      swap1\n      pop\n        /* \"#utility.yul\":9949:10028   */\n      swap2\n      swap1\n      pop\n      jump\t// out\n        /* \"#utility.yul\":10034:10214   */\n    tag_164:\n        /* \"#utility.yul\":10082:10159   */\n      0x4e487b7100000000000000000000000000000000000000000000000000000000\n        /* \"#utility.yul\":10079:10080   */\n      0x00\n        /* \"#utility.yul\":10072:10160   */\n      mstore\n        /* \"#utility.yul\":10179:10183   */\n      0x41\n        /* \"#utility.yul\":10176:10177   */\n      0x04\n        /* \"#utility.yul\":10169:10184   */\n      mstore\n        /* \"#utility.yul\":10203:10207   */\n      0x24\n        /* \"#utility.yul\":10200:10201   */\n      0x00\n        /* \"#utility.yul\":10193:10208   */\n      revert\n        /* \"#utility.yul\":10220:10337   */\n    tag_66:\n        /* \"#utility.yul\":10329:10330   */\n      0x00\n        /* \"#utility.yul\":10326:10327   */\n      dup1\n        /* \"#utility.yul\":10319:10331   */\n      revert\n        /* \"#utility.yul\":10343:10460   */\n    tag_55:\n        /* \"#utility.yul\":10452:10453   */\n      0x00\n        /* \"#utility.yul\":10449:10450   */\n      dup1\n        /* \"#utility.yul\":10442:10454   */\n      revert\n        /* \"#utility.yul\":10466:10583   */\n    tag_78:\n        /* \"#utility.yul\":10575:10576   */\n      0x00\n        /* \"#utility.yul\":10572:10573   */\n      dup1\n        /* \"#utility.yul\":10565:10577   */\n      revert\n        /* \"#utility.yul\":10589:10706   */\n    tag_75:\n        /* \"#utility.yul\":10698:10699   */\n      0x00\n        /* \"#utility.yul\":10695:10696   */\n      dup1\n        /* \"#utility.yul\":10688:10700   */\n      revert\n        /* \"#utility.yul\":10712:10814   */\n    tag_120:\n        /* \"#utility.yul\":10753:10759   */\n      0x00\n        /* \"#utility.yul\":10804:10806   */\n      0x1f\n        /* \"#utility.yul\":10800:10807   */\n      not\n        /* \"#utility.yul\":10795:10797   */\n      0x1f\n        /* \"#utility.yul\":10788:10793   */\n      dup4\n        /* \"#utility.yul\":10784:10798   */\n      add\n        /* \"#utility.yul\":10780:10808   */\n      and\n        /* \"#utility.yul\":10770:10808   */\n      swap1\n      pop\n        /* \"#utility.yul\":10712:10814   */\n      swap2\n      swap1\n      pop\n      jump\t// out\n        /* \"#utility.yul\":10820:10914   */\n    tag_192:\n        /* \"#utility.yul\":10853:10861   */\n      0x00\n        /* \"#utility.yul\":10901:10906   */\n      dup2\n        /* \"#utility.yul\":10897:10899   */\n      0x60\n        /* \"#utility.yul\":10893:10907   */\n      shl\n        /* \"#utility.yul\":10872:10907   */\n      swap1\n      pop\n        /* \"#utility.yul\":10820:10914   */\n      swap2\n      swap1\n      pop\n      jump\t// out\n        /* \"#utility.yul\":10920:11042   */\n    tag_61:\n        /* \"#utility.yul\":10993:11017   */\n      tag_202\n        /* \"#utility.yul\":11011:11016   */\n      dup2\n        /* \"#utility.yul\":10993:11017   */\n      tag_105\n      jump\t// in\n    tag_202:\n        /* \"#utility.yul\":10986:10991   */\n      dup2\n        /* \"#utility.yul\":10983:11018   */\n      eq\n        /* \"#utility.yul\":10973:11036   */\n      tag_203\n      jumpi\n        /* \"#utility.yul\":11032:11033   */\n      0x00\n        /* \"#utility.yul\":11029:11030   */\n      dup1\n        /* \"#utility.yul\":11022:11034   */\n      revert\n        /* \"#utility.yul\":10973:11036   */\n    tag_203:\n        /* \"#utility.yul\":10920:11042   */\n      pop\n      jump\t// out\n        /* \"#utility.yul\":11048:11170   */\n    tag_71:\n        /* \"#utility.yul\":11121:11145   */\n      tag_205\n        /* \"#utility.yul\":11139:11144   */\n      dup2\n        /* \"#utility.yul\":11121:11145   */\n      tag_139\n      jump\t// in\n    tag_205:\n        /* \"#utility.yul\":11114:11119   */\n      dup2\n        /* \"#utility.yul\":11111:11146   */\n      eq\n        /* \"#utility.yul\":11101:11164   */\n      tag_206\n      jumpi\n        /* \"#utility.yul\":11160:11161   */\n      0x00\n        /* \"#utility.yul\":11157:11158   */\n      dup1\n        /* \"#utility.yul\":11150:11162   */\n      revert\n        /* \"#utility.yul\":11101:11164   */\n    tag_206:\n        /* \"#utility.yul\":11048:11170   */\n      pop\n      jump\t// out\n\n    auxdata: 0xa26469706673582212205eb4d5c514cb2670f5877f9b3c5c9e8772e1d0b3948297c8080ace9eed6e55b264736f6c63430008070033\n}\n",
				"bytecode": {
					"linkReferences": {},
					"object": "608060405234801561001057600080fd5b50610843806100206000396000f3fe608060405234801561001057600080fd5b50600436106100575760003560e01c806317fe2da21461005c5780635dda416e1461008c5780637b7fb982146100bc578063892e5d01146100ec578063c93025e71461011c575b600080fd5b610076600480360381019061007191906102db565b61014c565b60405161008391906105a5565b60405180910390f35b6100a660048036038101906100a19190610353565b610178565b6040516100b3919061058a565b60405180910390f35b6100d660048036038101906100d191906102db565b6101ae565b6040516100e3919061058a565b60405180910390f35b610106600480360381019061010191906102db565b6101e1565b60405161011391906105a5565b60405180910390f35b610136600480360381019061013191906103c2565b61020d565b604051610143919061058a565b60405180910390f35b606082826040516020016101619291906105c7565b604051602081830303815290604052905092915050565b600083838360405160200161018f93929190610551565b6040516020818303038152906040528051906020012090509392505050565b600082826040516020016101c392919061052d565b60405160208183030381529060405280519060200120905092915050565b606082826040516020016101f692919061052d565b604051602081830303815290604052905092915050565b6000838260405160200161022292919061052d565b6040516020818303038152906040528051906020012090509392505050565b600061025461024f84610623565b6105fe565b9050828152602081018484840111156102705761026f6107b2565b5b61027b8482856106dd565b509392505050565b600081359050610292816107df565b92915050565b600082601f8301126102ad576102ac6107ad565b5b81356102bd848260208601610241565b91505092915050565b6000813590506102d5816107f6565b92915050565b600080604083850312156102f2576102f16107bc565b5b600083013567ffffffffffffffff8111156103105761030f6107b7565b5b61031c85828601610298565b925050602083013567ffffffffffffffff81111561033d5761033c6107b7565b5b61034985828601610298565b9150509250929050565b60008060006060848603121561036c5761036b6107bc565b5b600084013567ffffffffffffffff81111561038a576103896107b7565b5b61039686828701610298565b93505060206103a7868287016102c6565b92505060406103b886828701610283565b9150509250925092565b6000806000606084860312156103db576103da6107bc565b5b600084013567ffffffffffffffff8111156103f9576103f86107b7565b5b61040586828701610298565b9350506020610416868287016102c6565b925050604084013567ffffffffffffffff811115610437576104366107b7565b5b61044386828701610298565b9150509250925092565b61045e61045982610697565b610750565b82525050565b61046d816106a9565b82525050565b600061047e82610654565b610488818561066a565b93506104988185602086016106ec565b6104a1816107c1565b840191505092915050565b60006104b78261065f565b6104c1818561067b565b93506104d18185602086016106ec565b6104da816107c1565b840191505092915050565b60006104f08261065f565b6104fa818561068c565b935061050a8185602086016106ec565b80840191505092915050565b610527610522826106d3565b610774565b82525050565b600061053982856104e5565b915061054582846104e5565b91508190509392505050565b600061055d82866104e5565b91506105698285610516565b602082019150610579828461044d565b601482019150819050949350505050565b600060208201905061059f6000830184610464565b92915050565b600060208201905081810360008301526105bf8184610473565b905092915050565b600060408201905081810360008301526105e181856104ac565b905081810360208301526105f581846104ac565b90509392505050565b6000610608610619565b9050610614828261071f565b919050565b6000604051905090565b600067ffffffffffffffff82111561063e5761063d61077e565b5b610647826107c1565b9050602081019050919050565b600081519050919050565b600081519050919050565b600082825260208201905092915050565b600082825260208201905092915050565b600081905092915050565b60006106a2826106b3565b9050919050565b6000819050919050565b600073ffffffffffffffffffffffffffffffffffffffff82169050919050565b6000819050919050565b82818337600083830152505050565b60005b8381101561070a5780820151818401526020810190506106ef565b83811115610719576000848401525b50505050565b610728826107c1565b810181811067ffffffffffffffff821117156107475761074661077e565b5b80604052505050565b600061075b82610762565b9050919050565b600061076d826107d2565b9050919050565b6000819050919050565b7f4e487b7100000000000000000000000000000000000000000000000000000000600052604160045260246000fd5b600080fd5b600080fd5b600080fd5b600080fd5b6000601f19601f8301169050919050565b60008160601b9050919050565b6107e881610697565b81146107f357600080fd5b50565b6107ff816106d3565b811461080a57600080fd5b5056fea26469706673582212205eb4d5c514cb2670f5877f9b3c5c9e8772e1d0b3948297c8080ace9eed6e55b264736f6c63430008070033",
					"opcodes": "PUSH1 0x80 PUSH1 0x40 MSTORE CALLVALUE DUP1 ISZERO PUSH2 0x10 JUMPI PUSH1 0x0 DUP1 REVERT JUMPDEST POP PUSH2 0x843 DUP1 PUSH2 0x20 PUSH1 0x0 CODECOPY PUSH1 0x0 RETURN INVALID PUSH1 0x80 PUSH1 0x40 MSTORE CALLVALUE DUP1 ISZERO PUSH2 0x10 JUMPI PUSH1 0x0 DUP1 REVERT JUMPDEST POP PUSH1 0x4 CALLDATASIZE LT PUSH2 0x57 JUMPI PUSH1 0x0 CALLDATALOAD PUSH1 0xE0 SHR DUP1 PUSH4 0x17FE2DA2 EQ PUSH2 0x5C JUMPI DUP1 PUSH4 0x5DDA416E EQ PUSH2 0x8C JUMPI DUP1 PUSH4 0x7B7FB982 EQ PUSH2 0xBC JUMPI DUP1 PUSH4 0x892E5D01 EQ PUSH2 0xEC JUMPI DUP1 PUSH4 0xC93025E7 EQ PUSH2 0x11C JUMPI JUMPDEST PUSH1 0x0 DUP1 REVERT JUMPDEST PUSH2 0x76 PUSH1 0x4 DUP1 CALLDATASIZE SUB DUP2 ADD SWAP1 PUSH2 0x71 SWAP2 SWAP1 PUSH2 0x2DB JUMP JUMPDEST PUSH2 0x14C JUMP JUMPDEST PUSH1 0x40 MLOAD PUSH2 0x83 SWAP2 SWAP1 PUSH2 0x5A5 JUMP JUMPDEST PUSH1 0x40 MLOAD DUP1 SWAP2 SUB SWAP1 RETURN JUMPDEST PUSH2 0xA6 PUSH1 0x4 DUP1 CALLDATASIZE SUB DUP2 ADD SWAP1 PUSH2 0xA1 SWAP2 SWAP1 PUSH2 0x353 JUMP JUMPDEST PUSH2 0x178 JUMP JUMPDEST PUSH1 0x40 MLOAD PUSH2 0xB3 SWAP2 SWAP1 PUSH2 0x58A JUMP JUMPDEST PUSH1 0x40 MLOAD DUP1 SWAP2 SUB SWAP1 RETURN JUMPDEST PUSH2 0xD6 PUSH1 0x4 DUP1 CALLDATASIZE SUB DUP2 ADD SWAP1 PUSH2 0xD1 SWAP2 SWAP1 PUSH2 0x2DB JUMP JUMPDEST PUSH2 0x1AE JUMP JUMPDEST PUSH1 0x40 MLOAD PUSH2 0xE3 SWAP2 SWAP1 PUSH2 0x58A JUMP JUMPDEST PUSH1 0x40 MLOAD DUP1 SWAP2 SUB SWAP1 RETURN JUMPDEST PUSH2 0x106 PUSH1 0x4 DUP1 CALLDATASIZE SUB DUP2 ADD SWAP1 PUSH2 0x101 SWAP2 SWAP1 PUSH2 0x2DB JUMP JUMPDEST PUSH2 0x1E1 JUMP JUMPDEST PUSH1 0x40 MLOAD PUSH2 0x113 SWAP2 SWAP1 PUSH2 0x5A5 JUMP JUMPDEST PUSH1 0x40 MLOAD DUP1 SWAP2 SUB SWAP1 RETURN JUMPDEST PUSH2 0x136 PUSH1 0x4 DUP1 CALLDATASIZE SUB DUP2 ADD SWAP1 PUSH2 0x131 SWAP2 SWAP1 PUSH2 0x3C2 JUMP JUMPDEST PUSH2 0x20D JUMP JUMPDEST PUSH1 0x40 MLOAD PUSH2 0x143 SWAP2 SWAP1 PUSH2 0x58A JUMP JUMPDEST PUSH1 0x40 MLOAD DUP1 SWAP2 SUB SWAP1 RETURN JUMPDEST PUSH1 0x60 DUP3 DUP3 PUSH1 0x40 MLOAD PUSH1 0x20 ADD PUSH2 0x161 SWAP3 SWAP2 SWAP1 PUSH2 0x5C7 JUMP JUMPDEST PUSH1 0x40 MLOAD PUSH1 0x20 DUP2 DUP4 SUB SUB DUP2 MSTORE SWAP1 PUSH1 0x40 MSTORE SWAP1 POP SWAP3 SWAP2 POP POP JUMP JUMPDEST PUSH1 0x0 DUP4 DUP4 DUP4 PUSH1 0x40 MLOAD PUSH1 0x20 ADD PUSH2 0x18F SWAP4 SWAP3 SWAP2 SWAP1 PUSH2 0x551 JUMP JUMPDEST PUSH1 0x40 MLOAD PUSH1 0x20 DUP2 DUP4 SUB SUB DUP2 MSTORE SWAP1 PUSH1 0x40 MSTORE DUP1 MLOAD SWAP1 PUSH1 0x20 ADD KECCAK256 SWAP1 POP SWAP4 SWAP3 POP POP POP JUMP JUMPDEST PUSH1 0x0 DUP3 DUP3 PUSH1 0x40 MLOAD PUSH1 0x20 ADD PUSH2 0x1C3 SWAP3 SWAP2 SWAP1 PUSH2 0x52D JUMP JUMPDEST PUSH1 0x40 MLOAD PUSH1 0x20 DUP2 DUP4 SUB SUB DUP2 MSTORE SWAP1 PUSH1 0x40 MSTORE DUP1 MLOAD SWAP1 PUSH1 0x20 ADD KECCAK256 SWAP1 POP SWAP3 SWAP2 POP POP JUMP JUMPDEST PUSH1 0x60 DUP3 DUP3 PUSH1 0x40 MLOAD PUSH1 0x20 ADD PUSH2 0x1F6 SWAP3 SWAP2 SWAP1 PUSH2 0x52D JUMP JUMPDEST PUSH1 0x40 MLOAD PUSH1 0x20 DUP2 DUP4 SUB SUB DUP2 MSTORE SWAP1 PUSH1 0x40 MSTORE SWAP1 POP SWAP3 SWAP2 POP POP JUMP JUMPDEST PUSH1 0x0 DUP4 DUP3 PUSH1 0x40 MLOAD PUSH1 0x20 ADD PUSH2 0x222 SWAP3 SWAP2 SWAP1 PUSH2 0x52D JUMP JUMPDEST PUSH1 0x40 MLOAD PUSH1 0x20 DUP2 DUP4 SUB SUB DUP2 MSTORE SWAP1 PUSH1 0x40 MSTORE DUP1 MLOAD SWAP1 PUSH1 0x20 ADD KECCAK256 SWAP1 POP SWAP4 SWAP3 POP POP POP JUMP JUMPDEST PUSH1 0x0 PUSH2 0x254 PUSH2 0x24F DUP5 PUSH2 0x623 JUMP JUMPDEST PUSH2 0x5FE JUMP JUMPDEST SWAP1 POP DUP3 DUP2 MSTORE PUSH1 0x20 DUP2 ADD DUP5 DUP5 DUP5 ADD GT ISZERO PUSH2 0x270 JUMPI PUSH2 0x26F PUSH2 0x7B2 JUMP JUMPDEST JUMPDEST PUSH2 0x27B DUP5 DUP3 DUP6 PUSH2 0x6DD JUMP JUMPDEST POP SWAP4 SWAP3 POP POP POP JUMP JUMPDEST PUSH1 0x0 DUP2 CALLDATALOAD SWAP1 POP PUSH2 0x292 DUP2 PUSH2 0x7DF JUMP JUMPDEST SWAP3 SWAP2 POP POP JUMP JUMPDEST PUSH1 0x0 DUP3 PUSH1 0x1F DUP4 ADD SLT PUSH2 0x2AD JUMPI PUSH2 0x2AC PUSH2 0x7AD JUMP JUMPDEST JUMPDEST DUP2 CALLDATALOAD PUSH2 0x2BD DUP5 DUP3 PUSH1 0x20 DUP7 ADD PUSH2 0x241 JUMP JUMPDEST SWAP2 POP POP SWAP3 SWAP2 POP POP JUMP JUMPDEST PUSH1 0x0 DUP2 CALLDATALOAD SWAP1 POP PUSH2 0x2D5 DUP2 PUSH2 0x7F6 JUMP JUMPDEST SWAP3 SWAP2 POP POP JUMP JUMPDEST PUSH1 0x0 DUP1 PUSH1 0x40 DUP4 DUP6 SUB SLT ISZERO PUSH2 0x2F2 JUMPI PUSH2 0x2F1 PUSH2 0x7BC JUMP JUMPDEST JUMPDEST PUSH1 0x0 DUP4 ADD CALLDATALOAD PUSH8 0xFFFFFFFFFFFFFFFF DUP2 GT ISZERO PUSH2 0x310 JUMPI PUSH2 0x30F PUSH2 0x7B7 JUMP JUMPDEST JUMPDEST PUSH2 0x31C DUP6 DUP3 DUP7 ADD PUSH2 0x298 JUMP JUMPDEST SWAP3 POP POP PUSH1 0x20 DUP4 ADD CALLDATALOAD PUSH8 0xFFFFFFFFFFFFFFFF DUP2 GT ISZERO PUSH2 0x33D JUMPI PUSH2 0x33C PUSH2 0x7B7 JUMP JUMPDEST JUMPDEST PUSH2 0x349 DUP6 DUP3 DUP7 ADD PUSH2 0x298 JUMP JUMPDEST SWAP2 POP POP SWAP3 POP SWAP3 SWAP1 POP JUMP JUMPDEST PUSH1 0x0 DUP1 PUSH1 0x0 PUSH1 0x60 DUP5 DUP7 SUB SLT ISZERO PUSH2 0x36C JUMPI PUSH2 0x36B PUSH2 0x7BC JUMP JUMPDEST JUMPDEST PUSH1 0x0 DUP5 ADD CALLDATALOAD PUSH8 0xFFFFFFFFFFFFFFFF DUP2 GT ISZERO PUSH2 0x38A JUMPI PUSH2 0x389 PUSH2 0x7B7 JUMP JUMPDEST JUMPDEST PUSH2 0x396 DUP7 DUP3 DUP8 ADD PUSH2 0x298 JUMP JUMPDEST SWAP4 POP POP PUSH1 0x20 PUSH2 0x3A7 DUP7 DUP3 DUP8 ADD PUSH2 0x2C6 JUMP JUMPDEST SWAP3 POP POP PUSH1 0x40 PUSH2 0x3B8 DUP7 DUP3 DUP8 ADD PUSH2 0x283 JUMP JUMPDEST SWAP2 POP POP SWAP3 POP SWAP3 POP SWAP3 JUMP JUMPDEST PUSH1 0x0 DUP1 PUSH1 0x0 PUSH1 0x60 DUP5 DUP7 SUB SLT ISZERO PUSH2 0x3DB JUMPI PUSH2 0x3DA PUSH2 0x7BC JUMP JUMPDEST JUMPDEST PUSH1 0x0 DUP5 ADD CALLDATALOAD PUSH8 0xFFFFFFFFFFFFFFFF DUP2 GT ISZERO PUSH2 0x3F9 JUMPI PUSH2 0x3F8 PUSH2 0x7B7 JUMP JUMPDEST JUMPDEST PUSH2 0x405 DUP7 DUP3 DUP8 ADD PUSH2 0x298 JUMP JUMPDEST SWAP4 POP POP PUSH1 0x20 PUSH2 0x416 DUP7 DUP3 DUP8 ADD PUSH2 0x2C6 JUMP JUMPDEST SWAP3 POP POP PUSH1 0x40 DUP5 ADD CALLDATALOAD PUSH8 0xFFFFFFFFFFFFFFFF DUP2 GT ISZERO PUSH2 0x437 JUMPI PUSH2 0x436 PUSH2 0x7B7 JUMP JUMPDEST JUMPDEST PUSH2 0x443 DUP7 DUP3 DUP8 ADD PUSH2 0x298 JUMP JUMPDEST SWAP2 POP POP SWAP3 POP SWAP3 POP SWAP3 JUMP JUMPDEST PUSH2 0x45E PUSH2 0x459 DUP3 PUSH2 0x697 JUMP JUMPDEST PUSH2 0x750 JUMP JUMPDEST DUP3 MSTORE POP POP JUMP JUMPDEST PUSH2 0x46D DUP2 PUSH2 0x6A9 JUMP JUMPDEST DUP3 MSTORE POP POP JUMP JUMPDEST PUSH1 0x0 PUSH2 0x47E DUP3 PUSH2 0x654 JUMP JUMPDEST PUSH2 0x488 DUP2 DUP6 PUSH2 0x66A JUMP JUMPDEST SWAP4 POP PUSH2 0x498 DUP2 DUP6 PUSH1 0x20 DUP7 ADD PUSH2 0x6EC JUMP JUMPDEST PUSH2 0x4A1 DUP2 PUSH2 0x7C1 JUMP JUMPDEST DUP5 ADD SWAP2 POP POP SWAP3 SWAP2 POP POP JUMP JUMPDEST PUSH1 0x0 PUSH2 0x4B7 DUP3 PUSH2 0x65F JUMP JUMPDEST PUSH2 0x4C1 DUP2 DUP6 PUSH2 0x67B JUMP JUMPDEST SWAP4 POP PUSH2 0x4D1 DUP2 DUP6 PUSH1 0x20 DUP7 ADD PUSH2 0x6EC JUMP JUMPDEST PUSH2 0x4DA DUP2 PUSH2 0x7C1 JUMP JUMPDEST DUP5 ADD SWAP2 POP POP SWAP3 SWAP2 POP POP JUMP JUMPDEST PUSH1 0x0 PUSH2 0x4F0 DUP3 PUSH2 0x65F JUMP JUMPDEST PUSH2 0x4FA DUP2 DUP6 PUSH2 0x68C JUMP JUMPDEST SWAP4 POP PUSH2 0x50A DUP2 DUP6 PUSH1 0x20 DUP7 ADD PUSH2 0x6EC JUMP JUMPDEST DUP1 DUP5 ADD SWAP2 POP POP SWAP3 SWAP2 POP POP JUMP JUMPDEST PUSH2 0x527 PUSH2 0x522 DUP3 PUSH2 0x6D3 JUMP JUMPDEST PUSH2 0x774 JUMP JUMPDEST DUP3 MSTORE POP POP JUMP JUMPDEST PUSH1 0x0 PUSH2 0x539 DUP3 DUP6 PUSH2 0x4E5 JUMP JUMPDEST SWAP2 POP PUSH2 0x545 DUP3 DUP5 PUSH2 0x4E5 JUMP JUMPDEST SWAP2 POP DUP2 SWAP1 POP SWAP4 SWAP3 POP POP POP JUMP JUMPDEST PUSH1 0x0 PUSH2 0x55D DUP3 DUP7 PUSH2 0x4E5 JUMP JUMPDEST SWAP2 POP PUSH2 0x569 DUP3 DUP6 PUSH2 0x516 JUMP JUMPDEST PUSH1 0x20 DUP3 ADD SWAP2 POP PUSH2 0x579 DUP3 DUP5 PUSH2 0x44D JUMP JUMPDEST PUSH1 0x14 DUP3 ADD SWAP2 POP DUP2 SWAP1 POP SWAP5 SWAP4 POP POP POP POP JUMP JUMPDEST PUSH1 0x0 PUSH1 0x20 DUP3 ADD SWAP1 POP PUSH2 0x59F PUSH1 0x0 DUP4 ADD DUP5 PUSH2 0x464 JUMP JUMPDEST SWAP3 SWAP2 POP POP JUMP JUMPDEST PUSH1 0x0 PUSH1 0x20 DUP3 ADD SWAP1 POP DUP2 DUP2 SUB PUSH1 0x0 DUP4 ADD MSTORE PUSH2 0x5BF DUP2 DUP5 PUSH2 0x473 JUMP JUMPDEST SWAP1 POP SWAP3 SWAP2 POP POP JUMP JUMPDEST PUSH1 0x0 PUSH1 0x40 DUP3 ADD SWAP1 POP DUP2 DUP2 SUB PUSH1 0x0 DUP4 ADD MSTORE PUSH2 0x5E1 DUP2 DUP6 PUSH2 0x4AC JUMP JUMPDEST SWAP1 POP DUP2 DUP2 SUB PUSH1 0x20 DUP4 ADD MSTORE PUSH2 0x5F5 DUP2 DUP5 PUSH2 0x4AC JUMP JUMPDEST SWAP1 POP SWAP4 SWAP3 POP POP POP JUMP JUMPDEST PUSH1 0x0 PUSH2 0x608 PUSH2 0x619 JUMP JUMPDEST SWAP1 POP PUSH2 0x614 DUP3 DUP3 PUSH2 0x71F JUMP JUMPDEST SWAP2 SWAP1 POP JUMP JUMPDEST PUSH1 0x0 PUSH1 0x40 MLOAD SWAP1 POP SWAP1 JUMP JUMPDEST PUSH1 0x0 PUSH8 0xFFFFFFFFFFFFFFFF DUP3 GT ISZERO PUSH2 0x63E JUMPI PUSH2 0x63D PUSH2 0x77E JUMP JUMPDEST JUMPDEST PUSH2 0x647 DUP3 PUSH2 0x7C1 JUMP JUMPDEST SWAP1 POP PUSH1 0x20 DUP2 ADD SWAP1 POP SWAP2 SWAP1 POP JUMP JUMPDEST PUSH1 0x0 DUP2 MLOAD SWAP1 POP SWAP2 SWAP1 POP JUMP JUMPDEST PUSH1 0x0 DUP2 MLOAD SWAP1 POP SWAP2 SWAP1 POP JUMP JUMPDEST PUSH1 0x0 DUP3 DUP3 MSTORE PUSH1 0x20 DUP3 ADD SWAP1 POP SWAP3 SWAP2 POP POP JUMP JUMPDEST PUSH1 0x0 DUP3 DUP3 MSTORE PUSH1 0x20 DUP3 ADD SWAP1 POP SWAP3 SWAP2 POP POP JUMP JUMPDEST PUSH1 0x0 DUP2 SWAP1 POP SWAP3 SWAP2 POP POP JUMP JUMPDEST PUSH1 0x0 PUSH2 0x6A2 DUP3 PUSH2 0x6B3 JUMP JUMPDEST SWAP1 POP SWAP2 SWAP1 POP JUMP JUMPDEST PUSH1 0x0 DUP2 SWAP1 POP SWAP2 SWAP1 POP JUMP JUMPDEST PUSH1 0x0 PUSH20 0xFFFFFFFFFFFFFFFFFFFFFFFFFFFFFFFFFFFFFFFF DUP3 AND SWAP1 POP SWAP2 SWAP1 POP JUMP JUMPDEST PUSH1 0x0 DUP2 SWAP1 POP SWAP2 SWAP1 POP JUMP JUMPDEST DUP3 DUP2 DUP4 CALLDATACOPY PUSH1 0x0 DUP4 DUP4 ADD MSTORE POP POP POP JUMP JUMPDEST PUSH1 0x0 JUMPDEST DUP4 DUP2 LT ISZERO PUSH2 0x70A JUMPI DUP1 DUP3 ADD MLOAD DUP2 DUP5 ADD MSTORE PUSH1 0x20 DUP2 ADD SWAP1 POP PUSH2 0x6EF JUMP JUMPDEST DUP4 DUP2 GT ISZERO PUSH2 0x719 JUMPI PUSH1 0x0 DUP5 DUP5 ADD MSTORE JUMPDEST POP POP POP POP JUMP JUMPDEST PUSH2 0x728 DUP3 PUSH2 0x7C1 JUMP JUMPDEST DUP2 ADD DUP2 DUP2 LT PUSH8 0xFFFFFFFFFFFFFFFF DUP3 GT OR ISZERO PUSH2 0x747 JUMPI PUSH2 0x746 PUSH2 0x77E JUMP JUMPDEST JUMPDEST DUP1 PUSH1 0x40 MSTORE POP POP POP JUMP JUMPDEST PUSH1 0x0 PUSH2 0x75B DUP3 PUSH2 0x762 JUMP JUMPDEST SWAP1 POP SWAP2 SWAP1 POP JUMP JUMPDEST PUSH1 0x0 PUSH2 0x76D DUP3 PUSH2 0x7D2 JUMP JUMPDEST SWAP1 POP SWAP2 SWAP1 POP JUMP JUMPDEST PUSH1 0x0 DUP2 SWAP1 POP SWAP2 SWAP1 POP JUMP JUMPDEST PUSH32 0x4E487B7100000000000000000000000000000000000000000000000000000000 PUSH1 0x0 MSTORE PUSH1 0x41 PUSH1 0x4 MSTORE PUSH1 0x24 PUSH1 0x0 REVERT JUMPDEST PUSH1 0x0 DUP1 REVERT JUMPDEST PUSH1 0x0 DUP1 REVERT JUMPDEST PUSH1 0x0 DUP1 REVERT JUMPDEST PUSH1 0x0 DUP1 REVERT JUMPDEST PUSH1 0x0 PUSH1 0x1F NOT PUSH1 0x1F DUP4 ADD AND SWAP1 POP SWAP2 SWAP1 POP JUMP JUMPDEST PUSH1 0x0 DUP2 PUSH1 0x60 SHL SWAP1 POP SWAP2 SWAP1 POP JUMP JUMPDEST PUSH2 0x7E8 DUP2 PUSH2 0x697 JUMP JUMPDEST DUP2 EQ PUSH2 0x7F3 JUMPI PUSH1 0x0 DUP1 REVERT JUMPDEST POP JUMP JUMPDEST PUSH2 0x7FF DUP2 PUSH2 0x6D3 JUMP JUMPDEST DUP2 EQ PUSH2 0x80A JUMPI PUSH1 0x0 DUP1 REVERT JUMPDEST POP JUMP INVALID LOG2 PUSH5 0x6970667358 0x22 SLT KECCAK256 0x5E 0xB4 0xD5 0xC5 EQ 0xCB 0x26 PUSH17 0xF5877F9B3C5C9E8772E1D0B3948297C808 EXP 0xCE SWAP15 0xED PUSH15 0x55B264736F6C634300080700330000 "
				},
				"gasEstimates": {
					"creation": {
						"codeDepositCost": "423000",
						"executionCost": "461",
						"totalCost": "423461"
					},
					"external": {
						"collision(string,string)": "infinite",
						"encode(string,string)": "infinite",
						"encodePacked(string,string)": "infinite",
						"hash(string,uint256,address)": "infinite",
						"noCollision(string,uint256,string)": "infinite"
					}
				},
				"methodIdentifiers": {
					"collision(string,string)": "7b7fb982",
					"encode(string,string)": "17fe2da2",
					"encodePacked(string,string)": "892e5d01",
					"hash(string,uint256,address)": "5dda416e",
					"noCollision(string,uint256,string)": "c93025e7"
				}
			},
			"storageLayout": {
				"storage": [],
				"types": null
			},
			"userdoc": {
				"kind": "user",
				"methods": {},
				"version": 1
			}
		}
	}
}