{
	"contracts/DataLocations.sol": {
		"DataLocations": {
			"abi": [
				{
					"inputs": [
						{
							"internalType": "uint256",
							"name": "",
							"type": "uint256"
						}
					],
					"name": "examples",
					"outputs": [],
					"stateMutability": "nonpayable",
					"type": "function"
				},
				{
					"inputs": [
						{
							"internalType": "address",
							"name": "",
							"type": "address"
						}
					],
					"name": "myStructs",
					"outputs": [
						{
							"internalType": "uint256",
							"name": "foo",
							"type": "uint256"
						},
						{
							"internalType": "string",
							"name": "text",
							"type": "string"
						}
					],
					"stateMutability": "view",
					"type": "function"
				}
			],
			"devdoc": {
				"kind": "dev",
				"methods": {},
				"version": 1
			},
			"evm": {
				"assembly": "    /* \"contracts/DataLocations.sol\":279:832  contract DataLocations {\r... */\n  mstore(0x40, 0x80)\n  callvalue\n  dup1\n  iszero\n  tag_1\n  jumpi\n  0x00\n  dup1\n  revert\ntag_1:\n  pop\n  dataSize(sub_0)\n  dup1\n  dataOffset(sub_0)\n  0x00\n  codecopy\n  0x00\n  return\nstop\n\nsub_0: assembly {\n        /* \"contracts/DataLocations.sol\":279:832  contract DataLocations {\r... */\n      mstore(0x40, 0x80)\n      callvalue\n      dup1\n      iszero\n      tag_1\n      jumpi\n      0x00\n      dup1\n      revert\n    tag_1:\n      pop\n      jumpi(tag_2, lt(calldatasize, 0x04))\n      shr(0xe0, calldataload(0x00))\n      dup1\n      0x9ae1f604\n      eq\n      tag_3\n      jumpi\n      dup1\n      0xb43c5d33\n      eq\n      tag_4\n      jumpi\n    tag_2:\n      0x00\n      dup1\n      revert\n        /* \"contracts/DataLocations.sol\":437:829  function examples(uint ) external {\r... */\n    tag_3:\n      tag_5\n      0x04\n      dup1\n      calldatasize\n      sub\n      dup2\n      add\n      swap1\n      tag_6\n      swap2\n      swap1\n      tag_7\n      jump\t// in\n    tag_6:\n      tag_8\n      jump\t// in\n    tag_5:\n      stop\n        /* \"contracts/DataLocations.sol\":382:427  mapping(address => MyStruct) public myStructs */\n    tag_4:\n      tag_9\n      0x04\n      dup1\n      calldatasize\n      sub\n      dup2\n      add\n      swap1\n      tag_10\n      swap2\n      swap1\n      tag_11\n      jump\t// in\n    tag_10:\n      tag_12\n      jump\t// in\n    tag_9:\n      mload(0x40)\n      tag_13\n      swap3\n      swap2\n      swap1\n      tag_14\n      jump\t// in\n    tag_13:\n      mload(0x40)\n      dup1\n      swap2\n      sub\n      swap1\n      return\n        /* \"contracts/DataLocations.sol\":437:829  function examples(uint ) external {\r... */\n    tag_8:\n        /* \"contracts/DataLocations.sol\":506:539  MyStruct({foo: 123, text: \"bar\"}) */\n      mload(0x40)\n      dup1\n      0x40\n      add\n      0x40\n      mstore\n      dup1\n        /* \"contracts/DataLocations.sol\":521:524  123 */\n      0x7b\n        /* \"contracts/DataLocations.sol\":506:539  MyStruct({foo: 123, text: \"bar\"}) */\n      dup2\n      mstore\n      0x20\n      add\n      mload(0x40)\n      dup1\n      0x40\n      add\n      0x40\n      mstore\n      dup1\n      0x03\n      dup2\n      mstore\n      0x20\n      add\n      0x6261720000000000000000000000000000000000000000000000000000000000\n      dup2\n      mstore\n      pop\n      dup2\n      mstore\n      pop\n        /* \"contracts/DataLocations.sol\":482:491  myStructs */\n      0x00\n        /* \"contracts/DataLocations.sol\":482:503  myStructs[msg.sender] */\n      dup1\n        /* \"contracts/DataLocations.sol\":492:502  msg.sender */\n      caller\n        /* \"contracts/DataLocations.sol\":482:503  myStructs[msg.sender] */\n      0xffffffffffffffffffffffffffffffffffffffff\n      and\n      0xffffffffffffffffffffffffffffffffffffffff\n      and\n      dup2\n      mstore\n      0x20\n      add\n      swap1\n      dup2\n      mstore\n      0x20\n      add\n      0x00\n      keccak256\n        /* \"contracts/DataLocations.sol\":482:539  myStructs[msg.sender] = MyStruct({foo: 123, text: \"bar\"}) */\n      0x00\n      dup3\n      add\n      mload\n      dup2\n      0x00\n      add\n      sstore\n      0x20\n      dup3\n      add\n      mload\n      dup2\n      0x01\n      add\n      swap1\n      dup1\n      mload\n      swap1\n      0x20\n      add\n      swap1\n      tag_16\n      swap3\n      swap2\n      swap1\n      tag_17\n      jump\t// in\n    tag_16:\n      pop\n      swap1\n      pop\n      pop\n        /* \"contracts/DataLocations.sol\":552:577  MyStruct storage myStruct */\n      0x00\n        /* \"contracts/DataLocations.sol\":580:589  myStructs */\n      dup1\n        /* \"contracts/DataLocations.sol\":580:601  myStructs[msg.sender] */\n      0x00\n        /* \"contracts/DataLocations.sol\":590:600  msg.sender */\n      caller\n        /* \"contracts/DataLocations.sol\":580:601  myStructs[msg.sender] */\n      0xffffffffffffffffffffffffffffffffffffffff\n      and\n      0xffffffffffffffffffffffffffffffffffffffff\n      and\n      dup2\n      mstore\n      0x20\n      add\n      swap1\n      dup2\n      mstore\n      0x20\n      add\n      0x00\n      keccak256\n        /* \"contracts/DataLocations.sol\":552:601  MyStruct storage myStruct = myStructs[msg.sender] */\n      swap1\n      pop\n        /* \"contracts/DataLocations.sol\":612:633  myStruct.text = \"foo\" */\n      mload(0x40)\n      dup1\n      0x40\n      add\n      0x40\n      mstore\n      dup1\n      0x03\n      dup2\n      mstore\n      0x20\n      add\n      0x666f6f0000000000000000000000000000000000000000000000000000000000\n      dup2\n      mstore\n      pop\n        /* \"contracts/DataLocations.sol\":612:620  myStruct */\n      dup2\n        /* \"contracts/DataLocations.sol\":612:625  myStruct.text */\n      0x01\n      add\n        /* \"contracts/DataLocations.sol\":612:633  myStruct.text = \"foo\" */\n      swap1\n      dup1\n      mload\n      swap1\n      0x20\n      add\n      swap1\n      tag_18\n      swap3\n      swap2\n      swap1\n      tag_17\n      jump\t// in\n    tag_18:\n      pop\n        /* \"contracts/DataLocations.sol\":646:670  MyStruct memory readOnly */\n      0x00\n        /* \"contracts/DataLocations.sol\":673:682  myStructs */\n      dup1\n        /* \"contracts/DataLocations.sol\":673:694  myStructs[msg.sender] */\n      0x00\n        /* \"contracts/DataLocations.sol\":683:693  msg.sender */\n      caller\n        /* \"contracts/DataLocations.sol\":673:694  myStructs[msg.sender] */\n      0xffffffffffffffffffffffffffffffffffffffff\n      and\n      0xffffffffffffffffffffffffffffffffffffffff\n      and\n      dup2\n      mstore\n      0x20\n      add\n      swap1\n      dup2\n      mstore\n      0x20\n      add\n      0x00\n      keccak256\n        /* \"contracts/DataLocations.sol\":646:694  MyStruct memory readOnly = myStructs[msg.sender] */\n      mload(0x40)\n      dup1\n      0x40\n      add\n      0x40\n      mstore\n      swap1\n      dup2\n      0x00\n      dup3\n      add\n      sload\n      dup2\n      mstore\n      0x20\n      add\n      0x01\n      dup3\n      add\n      dup1\n      sload\n      tag_19\n      swap1\n      tag_20\n      jump\t// in\n    tag_19:\n      dup1\n      0x1f\n      add\n      0x20\n      dup1\n      swap2\n      div\n      mul\n      0x20\n      add\n      mload(0x40)\n      swap1\n      dup2\n      add\n      0x40\n      mstore\n      dup1\n      swap3\n      swap2\n      swap1\n      dup2\n      dup2\n      mstore\n      0x20\n      add\n      dup3\n      dup1\n      sload\n      tag_21\n      swap1\n      tag_20\n      jump\t// in\n    tag_21:\n      dup1\n      iszero\n      tag_22\n      jumpi\n      dup1\n      0x1f\n      lt\n      tag_23\n      jumpi\n      0x0100\n      dup1\n      dup4\n      sload\n      div\n      mul\n      dup4\n      mstore\n      swap2\n      0x20\n      add\n      swap2\n      jump(tag_22)\n    tag_23:\n      dup3\n      add\n      swap2\n      swap1\n      0x00\n      mstore\n      keccak256(0x00, 0x20)\n      swap1\n    tag_24:\n      dup2\n      sload\n      dup2\n      mstore\n      swap1\n      0x01\n      add\n      swap1\n      0x20\n      add\n      dup1\n      dup4\n      gt\n      tag_24\n      jumpi\n      dup3\n      swap1\n      sub\n      0x1f\n      and\n      dup3\n      add\n      swap2\n    tag_22:\n      pop\n      pop\n      pop\n      pop\n      pop\n      dup2\n      mstore\n      pop\n      pop\n      swap1\n      pop\n        /* \"contracts/DataLocations.sol\":720:723  456 */\n      0x01c8\n        /* \"contracts/DataLocations.sol\":705:713  readOnly */\n      dup2\n        /* \"contracts/DataLocations.sol\":705:717  readOnly.foo */\n      0x00\n      add\n        /* \"contracts/DataLocations.sol\":705:723  readOnly.foo = 456 */\n      dup2\n      dup2\n      mstore\n      pop\n      pop\n        /* \"contracts/DataLocations.sol\":471:829  {\r... */\n      pop\n      pop\n        /* \"contracts/DataLocations.sol\":437:829  function examples(uint ) external {\r... */\n      pop\n      jump\t// out\n        /* \"contracts/DataLocations.sol\":382:427  mapping(address => MyStruct) public myStructs */\n    tag_12:\n      mstore(0x20, 0x00)\n      dup1\n      0x00\n      mstore\n      keccak256(0x00, 0x40)\n      0x00\n      swap2\n      pop\n      swap1\n      pop\n      dup1\n      0x00\n      add\n      sload\n      swap1\n      dup1\n      0x01\n      add\n      dup1\n      sload\n      tag_25\n      swap1\n      tag_20\n      jump\t// in\n    tag_25:\n      dup1\n      0x1f\n      add\n      0x20\n      dup1\n      swap2\n      div\n      mul\n      0x20\n      add\n      mload(0x40)\n      swap1\n      dup2\n      add\n      0x40\n      mstore\n      dup1\n      swap3\n      swap2\n      swap1\n      dup2\n      dup2\n      mstore\n      0x20\n      add\n      dup3\n      dup1\n      sload\n      tag_26\n      swap1\n      tag_20\n      jump\t// in\n    tag_26:\n      dup1\n      iszero\n      tag_27\n      jumpi\n      dup1\n      0x1f\n      lt\n      tag_28\n      jumpi\n      0x0100\n      dup1\n      dup4\n      sload\n      div\n      mul\n      dup4\n      mstore\n      swap2\n      0x20\n      add\n      swap2\n      jump(tag_27)\n    tag_28:\n      dup3\n      add\n      swap2\n      swap1\n      0x00\n      mstore\n      keccak256(0x00, 0x20)\n      swap1\n    tag_29:\n      dup2\n      sload\n      dup2\n      mstore\n      swap1\n      0x01\n      add\n      swap1\n      0x20\n      add\n      dup1\n      dup4\n      gt\n      tag_29\n      jumpi\n      dup3\n      swap1\n      sub\n      0x1f\n      and\n      dup3\n      add\n      swap2\n    tag_27:\n      pop\n      pop\n      pop\n      pop\n      pop\n      swap1\n      pop\n      dup3\n      jump\t// out\n    tag_17:\n      dup3\n      dup1\n      sload\n      tag_30\n      swap1\n      tag_20\n      jump\t// in\n    tag_30:\n      swap1\n      0x00\n      mstore\n      keccak256(0x00, 0x20)\n      swap1\n      0x1f\n      add\n      0x20\n      swap1\n      div\n      dup2\n      add\n      swap3\n      dup3\n      tag_32\n      jumpi\n      0x00\n      dup6\n      sstore\n      jump(tag_31)\n    tag_32:\n      dup3\n      0x1f\n      lt\n      tag_33\n      jumpi\n      dup1\n      mload\n      not(0xff)\n      and\n      dup4\n      dup1\n      add\n      or\n      dup6\n      sstore\n      jump(tag_31)\n    tag_33:\n      dup3\n      dup1\n      add\n      0x01\n      add\n      dup6\n      sstore\n      dup3\n      iszero\n      tag_31\n      jumpi\n      swap2\n      dup3\n      add\n    tag_34:\n      dup3\n      dup2\n      gt\n      iszero\n      tag_35\n      jumpi\n      dup3\n      mload\n      dup3\n      sstore\n      swap2\n      0x20\n      add\n      swap2\n      swap1\n      0x01\n      add\n      swap1\n      jump(tag_34)\n    tag_35:\n    tag_31:\n      pop\n      swap1\n      pop\n      tag_36\n      swap2\n      swap1\n      tag_37\n      jump\t// in\n    tag_36:\n      pop\n      swap1\n      jump\t// out\n    tag_37:\n    tag_38:\n      dup1\n      dup3\n      gt\n      iszero\n      tag_39\n      jumpi\n      0x00\n      dup2\n      0x00\n      swap1\n      sstore\n      pop\n      0x01\n      add\n      jump(tag_38)\n    tag_39:\n      pop\n      swap1\n      jump\t// out\n        /* \"#utility.yul\":7:146   */\n    tag_41:\n        /* \"#utility.yul\":53:58   */\n      0x00\n        /* \"#utility.yul\":91:97   */\n      dup2\n        /* \"#utility.yul\":78:98   */\n      calldataload\n        /* \"#utility.yul\":69:98   */\n      swap1\n      pop\n        /* \"#utility.yul\":107:140   */\n      tag_43\n        /* \"#utility.yul\":134:139   */\n      dup2\n        /* \"#utility.yul\":107:140   */\n      tag_44\n      jump\t// in\n    tag_43:\n        /* \"#utility.yul\":7:146   */\n      swap3\n      swap2\n      pop\n      pop\n      jump\t// out\n        /* \"#utility.yul\":152:291   */\n    tag_45:\n        /* \"#utility.yul\":198:203   */\n      0x00\n        /* \"#utility.yul\":236:242   */\n      dup2\n        /* \"#utility.yul\":223:243   */\n      calldataload\n        /* \"#utility.yul\":214:243   */\n      swap1\n      pop\n        /* \"#utility.yul\":252:285   */\n      tag_47\n        /* \"#utility.yul\":279:284   */\n      dup2\n        /* \"#utility.yul\":252:285   */\n      tag_48\n      jump\t// in\n    tag_47:\n        /* \"#utility.yul\":152:291   */\n      swap3\n      swap2\n      pop\n      pop\n      jump\t// out\n        /* \"#utility.yul\":297:626   */\n    tag_11:\n        /* \"#utility.yul\":356:362   */\n      0x00\n        /* \"#utility.yul\":405:407   */\n      0x20\n        /* \"#utility.yul\":393:402   */\n      dup3\n        /* \"#utility.yul\":384:391   */\n      dup5\n        /* \"#utility.yul\":380:403   */\n      sub\n        /* \"#utility.yul\":376:408   */\n      slt\n        /* \"#utility.yul\":373:492   */\n      iszero\n      tag_50\n      jumpi\n        /* \"#utility.yul\":411:490   */\n      tag_51\n      tag_52\n      jump\t// in\n    tag_51:\n        /* \"#utility.yul\":373:492   */\n    tag_50:\n        /* \"#utility.yul\":531:532   */\n      0x00\n        /* \"#utility.yul\":556:609   */\n      tag_53\n        /* \"#utility.yul\":601:608   */\n      dup5\n        /* \"#utility.yul\":592:598   */\n      dup3\n        /* \"#utility.yul\":581:590   */\n      dup6\n        /* \"#utility.yul\":577:599   */\n      add\n        /* \"#utility.yul\":556:609   */\n      tag_41\n      jump\t// in\n    tag_53:\n        /* \"#utility.yul\":546:609   */\n      swap2\n      pop\n        /* \"#utility.yul\":502:619   */\n      pop\n        /* \"#utility.yul\":297:626   */\n      swap3\n      swap2\n      pop\n      pop\n      jump\t// out\n        /* \"#utility.yul\":632:961   */\n    tag_7:\n        /* \"#utility.yul\":691:697   */\n      0x00\n        /* \"#utility.yul\":740:742   */\n      0x20\n        /* \"#utility.yul\":728:737   */\n      dup3\n        /* \"#utility.yul\":719:726   */\n      dup5\n        /* \"#utility.yul\":715:738   */\n      sub\n        /* \"#utility.yul\":711:743   */\n      slt\n        /* \"#utility.yul\":708:827   */\n      iszero\n      tag_55\n      jumpi\n        /* \"#utility.yul\":746:825   */\n      tag_56\n      tag_52\n      jump\t// in\n    tag_56:\n        /* \"#utility.yul\":708:827   */\n    tag_55:\n        /* \"#utility.yul\":866:867   */\n      0x00\n        /* \"#utility.yul\":891:944   */\n      tag_57\n        /* \"#utility.yul\":936:943   */\n      dup5\n        /* \"#utility.yul\":927:933   */\n      dup3\n        /* \"#utility.yul\":916:925   */\n      dup6\n        /* \"#utility.yul\":912:934   */\n      add\n        /* \"#utility.yul\":891:944   */\n      tag_45\n      jump\t// in\n    tag_57:\n        /* \"#utility.yul\":881:944   */\n      swap2\n      pop\n        /* \"#utility.yul\":837:954   */\n      pop\n        /* \"#utility.yul\":632:961   */\n      swap3\n      swap2\n      pop\n      pop\n      jump\t// out\n        /* \"#utility.yul\":967:1331   */\n    tag_58:\n        /* \"#utility.yul\":1055:1058   */\n      0x00\n        /* \"#utility.yul\":1083:1122   */\n      tag_60\n        /* \"#utility.yul\":1116:1121   */\n      dup3\n        /* \"#utility.yul\":1083:1122   */\n      tag_61\n      jump\t// in\n    tag_60:\n        /* \"#utility.yul\":1138:1209   */\n      tag_62\n        /* \"#utility.yul\":1202:1208   */\n      dup2\n        /* \"#utility.yul\":1197:1200   */\n      dup6\n        /* \"#utility.yul\":1138:1209   */\n      tag_63\n      jump\t// in\n    tag_62:\n        /* \"#utility.yul\":1131:1209   */\n      swap4\n      pop\n        /* \"#utility.yul\":1218:1270   */\n      tag_64\n        /* \"#utility.yul\":1263:1269   */\n      dup2\n        /* \"#utility.yul\":1258:1261   */\n      dup6\n        /* \"#utility.yul\":1251:1255   */\n      0x20\n        /* \"#utility.yul\":1244:1249   */\n      dup7\n        /* \"#utility.yul\":1240:1256   */\n      add\n        /* \"#utility.yul\":1218:1270   */\n      tag_65\n      jump\t// in\n    tag_64:\n        /* \"#utility.yul\":1295:1324   */\n      tag_66\n        /* \"#utility.yul\":1317:1323   */\n      dup2\n        /* \"#utility.yul\":1295:1324   */\n      tag_67\n      jump\t// in\n    tag_66:\n        /* \"#utility.yul\":1290:1293   */\n      dup5\n        /* \"#utility.yul\":1286:1325   */\n      add\n        /* \"#utility.yul\":1279:1325   */\n      swap2\n      pop\n        /* \"#utility.yul\":1059:1331   */\n      pop\n        /* \"#utility.yul\":967:1331   */\n      swap3\n      swap2\n      pop\n      pop\n      jump\t// out\n        /* \"#utility.yul\":1337:1455   */\n    tag_68:\n        /* \"#utility.yul\":1424:1448   */\n      tag_70\n        /* \"#utility.yul\":1442:1447   */\n      dup2\n        /* \"#utility.yul\":1424:1448   */\n      tag_71\n      jump\t// in\n    tag_70:\n        /* \"#utility.yul\":1419:1422   */\n      dup3\n        /* \"#utility.yul\":1412:1449   */\n      mstore\n        /* \"#utility.yul\":1337:1455   */\n      pop\n      pop\n      jump\t// out\n        /* \"#utility.yul\":1461:1884   */\n    tag_14:\n        /* \"#utility.yul\":1602:1606   */\n      0x00\n        /* \"#utility.yul\":1640:1642   */\n      0x40\n        /* \"#utility.yul\":1629:1638   */\n      dup3\n        /* \"#utility.yul\":1625:1643   */\n      add\n        /* \"#utility.yul\":1617:1643   */\n      swap1\n      pop\n        /* \"#utility.yul\":1653:1724   */\n      tag_73\n        /* \"#utility.yul\":1721:1722   */\n      0x00\n        /* \"#utility.yul\":1710:1719   */\n      dup4\n        /* \"#utility.yul\":1706:1723   */\n      add\n        /* \"#utility.yul\":1697:1703   */\n      dup6\n        /* \"#utility.yul\":1653:1724   */\n      tag_68\n      jump\t// in\n    tag_73:\n        /* \"#utility.yul\":1771:1780   */\n      dup2\n        /* \"#utility.yul\":1765:1769   */\n      dup2\n        /* \"#utility.yul\":1761:1781   */\n      sub\n        /* \"#utility.yul\":1756:1758   */\n      0x20\n        /* \"#utility.yul\":1745:1754   */\n      dup4\n        /* \"#utility.yul\":1741:1759   */\n      add\n        /* \"#utility.yul\":1734:1782   */\n      mstore\n        /* \"#utility.yul\":1799:1877   */\n      tag_74\n        /* \"#utility.yul\":1872:1876   */\n      dup2\n        /* \"#utility.yul\":1863:1869   */\n      dup5\n        /* \"#utility.yul\":1799:1877   */\n      tag_58\n      jump\t// in\n    tag_74:\n        /* \"#utility.yul\":1791:1877   */\n      swap1\n      pop\n        /* \"#utility.yul\":1461:1884   */\n      swap4\n      swap3\n      pop\n      pop\n      pop\n      jump\t// out\n        /* \"#utility.yul\":1971:2070   */\n    tag_61:\n        /* \"#utility.yul\":2023:2029   */\n      0x00\n        /* \"#utility.yul\":2057:2062   */\n      dup2\n        /* \"#utility.yul\":2051:2063   */\n      mload\n        /* \"#utility.yul\":2041:2063   */\n      swap1\n      pop\n        /* \"#utility.yul\":1971:2070   */\n      swap2\n      swap1\n      pop\n      jump\t// out\n        /* \"#utility.yul\":2076:2245   */\n    tag_63:\n        /* \"#utility.yul\":2160:2171   */\n      0x00\n        /* \"#utility.yul\":2194:2200   */\n      dup3\n        /* \"#utility.yul\":2189:2192   */\n      dup3\n        /* \"#utility.yul\":2182:2201   */\n      mstore\n        /* \"#utility.yul\":2234:2238   */\n      0x20\n        /* \"#utility.yul\":2229:2232   */\n      dup3\n        /* \"#utility.yul\":2225:2239   */\n      add\n        /* \"#utility.yul\":2210:2239   */\n      swap1\n      pop\n        /* \"#utility.yul\":2076:2245   */\n      swap3\n      swap2\n      pop\n      pop\n      jump\t// out\n        /* \"#utility.yul\":2251:2347   */\n    tag_79:\n        /* \"#utility.yul\":2288:2295   */\n      0x00\n        /* \"#utility.yul\":2317:2341   */\n      tag_81\n        /* \"#utility.yul\":2335:2340   */\n      dup3\n        /* \"#utility.yul\":2317:2341   */\n      tag_82\n      jump\t// in\n    tag_81:\n        /* \"#utility.yul\":2306:2341   */\n      swap1\n      pop\n        /* \"#utility.yul\":2251:2347   */\n      swap2\n      swap1\n      pop\n      jump\t// out\n        /* \"#utility.yul\":2353:2479   */\n    tag_82:\n        /* \"#utility.yul\":2390:2397   */\n      0x00\n        /* \"#utility.yul\":2430:2472   */\n      0xffffffffffffffffffffffffffffffffffffffff\n        /* \"#utility.yul\":2423:2428   */\n      dup3\n        /* \"#utility.yul\":2419:2473   */\n      and\n        /* \"#utility.yul\":2408:2473   */\n      swap1\n      pop\n        /* \"#utility.yul\":2353:2479   */\n      swap2\n      swap1\n      pop\n      jump\t// out\n        /* \"#utility.yul\":2485:2562   */\n    tag_71:\n        /* \"#utility.yul\":2522:2529   */\n      0x00\n        /* \"#utility.yul\":2551:2556   */\n      dup2\n        /* \"#utility.yul\":2540:2556   */\n      swap1\n      pop\n        /* \"#utility.yul\":2485:2562   */\n      swap2\n      swap1\n      pop\n      jump\t// out\n        /* \"#utility.yul\":2568:2875   */\n    tag_65:\n        /* \"#utility.yul\":2636:2637   */\n      0x00\n        /* \"#utility.yul\":2646:2759   */\n    tag_86:\n        /* \"#utility.yul\":2660:2666   */\n      dup4\n        /* \"#utility.yul\":2657:2658   */\n      dup2\n        /* \"#utility.yul\":2654:2667   */\n      lt\n        /* \"#utility.yul\":2646:2759   */\n      iszero\n      tag_88\n      jumpi\n        /* \"#utility.yul\":2745:2746   */\n      dup1\n        /* \"#utility.yul\":2740:2743   */\n      dup3\n        /* \"#utility.yul\":2736:2747   */\n      add\n        /* \"#utility.yul\":2730:2748   */\n      mload\n        /* \"#utility.yul\":2726:2727   */\n      dup2\n        /* \"#utility.yul\":2721:2724   */\n      dup5\n        /* \"#utility.yul\":2717:2728   */\n      add\n        /* \"#utility.yul\":2710:2749   */\n      mstore\n        /* \"#utility.yul\":2682:2684   */\n      0x20\n        /* \"#utility.yul\":2679:2680   */\n      dup2\n        /* \"#utility.yul\":2675:2685   */\n      add\n        /* \"#utility.yul\":2670:2685   */\n      swap1\n      pop\n        /* \"#utility.yul\":2646:2759   */\n      jump(tag_86)\n    tag_88:\n        /* \"#utility.yul\":2777:2783   */\n      dup4\n        /* \"#utility.yul\":2774:2775   */\n      dup2\n        /* \"#utility.yul\":2771:2784   */\n      gt\n        /* \"#utility.yul\":2768:2869   */\n      iszero\n      tag_89\n      jumpi\n        /* \"#utility.yul\":2857:2858   */\n      0x00\n        /* \"#utility.yul\":2848:2854   */\n      dup5\n        /* \"#utility.yul\":2843:2846   */\n      dup5\n        /* \"#utility.yul\":2839:2855   */\n      add\n        /* \"#utility.yul\":2832:2859   */\n      mstore\n        /* \"#utility.yul\":2768:2869   */\n    tag_89:\n        /* \"#utility.yul\":2617:2875   */\n      pop\n        /* \"#utility.yul\":2568:2875   */\n      pop\n      pop\n      pop\n      jump\t// out\n        /* \"#utility.yul\":2881:3201   */\n    tag_20:\n        /* \"#utility.yul\":2925:2931   */\n      0x00\n        /* \"#utility.yul\":2962:2963   */\n      0x02\n        /* \"#utility.yul\":2956:2960   */\n      dup3\n        /* \"#utility.yul\":2952:2964   */\n      div\n        /* \"#utility.yul\":2942:2964   */\n      swap1\n      pop\n        /* \"#utility.yul\":3009:3010   */\n      0x01\n        /* \"#utility.yul\":3003:3007   */\n      dup3\n        /* \"#utility.yul\":2999:3011   */\n      and\n        /* \"#utility.yul\":3030:3048   */\n      dup1\n        /* \"#utility.yul\":3020:3101   */\n      tag_91\n      jumpi\n        /* \"#utility.yul\":3086:3090   */\n      0x7f\n        /* \"#utility.yul\":3078:3084   */\n      dup3\n        /* \"#utility.yul\":3074:3091   */\n      and\n        /* \"#utility.yul\":3064:3091   */\n      swap2\n      pop\n        /* \"#utility.yul\":3020:3101   */\n    tag_91:\n        /* \"#utility.yul\":3148:3150   */\n      0x20\n        /* \"#utility.yul\":3140:3146   */\n      dup3\n        /* \"#utility.yul\":3137:3151   */\n      lt\n        /* \"#utility.yul\":3117:3135   */\n      dup2\n        /* \"#utility.yul\":3114:3152   */\n      eq\n        /* \"#utility.yul\":3111:3195   */\n      iszero\n      tag_92\n      jumpi\n        /* \"#utility.yul\":3167:3185   */\n      tag_93\n      tag_94\n      jump\t// in\n    tag_93:\n        /* \"#utility.yul\":3111:3195   */\n    tag_92:\n        /* \"#utility.yul\":2932:3201   */\n      pop\n        /* \"#utility.yul\":2881:3201   */\n      swap2\n      swap1\n      pop\n      jump\t// out\n        /* \"#utility.yul\":3207:3387   */\n    tag_94:\n        /* \"#utility.yul\":3255:3332   */\n      0x4e487b7100000000000000000000000000000000000000000000000000000000\n        /* \"#utility.yul\":3252:3253   */\n      0x00\n        /* \"#utility.yul\":3245:3333   */\n      mstore\n        /* \"#utility.yul\":3352:3356   */\n      0x22\n        /* \"#utility.yul\":3349:3350   */\n      0x04\n        /* \"#utility.yul\":3342:3357   */\n      mstore\n        /* \"#utility.yul\":3376:3380   */\n      0x24\n        /* \"#utility.yul\":3373:3374   */\n      0x00\n        /* \"#utility.yul\":3366:3381   */\n      revert\n        /* \"#utility.yul\":3516:3633   */\n    tag_52:\n        /* \"#utility.yul\":3625:3626   */\n      0x00\n        /* \"#utility.yul\":3622:3623   */\n      dup1\n        /* \"#utility.yul\":3615:3627   */\n      revert\n        /* \"#utility.yul\":3639:3741   */\n    tag_67:\n        /* \"#utility.yul\":3680:3686   */\n      0x00\n        /* \"#utility.yul\":3731:3733   */\n      0x1f\n        /* \"#utility.yul\":3727:3734   */\n      not\n        /* \"#utility.yul\":3722:3724   */\n      0x1f\n        /* \"#utility.yul\":3715:3720   */\n      dup4\n        /* \"#utility.yul\":3711:3725   */\n      add\n        /* \"#utility.yul\":3707:3735   */\n      and\n        /* \"#utility.yul\":3697:3735   */\n      swap1\n      pop\n        /* \"#utility.yul\":3639:3741   */\n      swap2\n      swap1\n      pop\n      jump\t// out\n        /* \"#utility.yul\":3747:3869   */\n    tag_44:\n        /* \"#utility.yul\":3820:3844   */\n      tag_101\n        /* \"#utility.yul\":3838:3843   */\n      dup2\n        /* \"#utility.yul\":3820:3844   */\n      tag_79\n      jump\t// in\n    tag_101:\n        /* \"#utility.yul\":3813:3818   */\n      dup2\n        /* \"#utility.yul\":3810:3845   */\n      eq\n        /* \"#utility.yul\":3800:3863   */\n      tag_102\n      jumpi\n        /* \"#utility.yul\":3859:3860   */\n      0x00\n        /* \"#utility.yul\":3856:3857   */\n      dup1\n        /* \"#utility.yul\":3849:3861   */\n      revert\n        /* \"#utility.yul\":3800:3863   */\n    tag_102:\n        /* \"#utility.yul\":3747:3869   */\n      pop\n      jump\t// out\n        /* \"#utility.yul\":3875:3997   */\n    tag_48:\n        /* \"#utility.yul\":3948:3972   */\n      tag_104\n        /* \"#utility.yul\":3966:3971   */\n      dup2\n        /* \"#utility.yul\":3948:3972   */\n      tag_71\n      jump\t// in\n    tag_104:\n        /* \"#utility.yul\":3941:3946   */\n      dup2\n        /* \"#utility.yul\":3938:3973   */\n      eq\n        /* \"#utility.yul\":3928:3991   */\n      tag_105\n      jumpi\n        /* \"#utility.yul\":3987:3988   */\n      0x00\n        /* \"#utility.yul\":3984:3985   */\n      dup1\n        /* \"#utility.yul\":3977:3989   */\n      revert\n        /* \"#utility.yul\":3928:3991   */\n    tag_105:\n        /* \"#utility.yul\":3875:3997   */\n      pop\n      jump\t// out\n\n    auxdata: 0xa2646970667358221220ca6aabc713ce40d48e7150ab74245f0121f21138d916807eda687dfeeb9b6d7464736f6c63430008070033\n}\n",
				"bytecode": {
					"linkReferences": {},
					"object": "608060405234801561001057600080fd5b50610676806100206000396000f3fe608060405234801561001057600080fd5b50600436106100365760003560e01c80639ae1f6041461003b578063b43c5d3314610057575b600080fd5b6100556004803603810190610050919061046b565b610088565b005b610071600480360381019061006c919061043e565b6102c5565b60405161007f9291906104e0565b60405180910390f35b6040518060400160405280607b81526020016040518060400160405280600381526020017f62617200000000000000000000000000000000000000000000000000000000008152508152506000803373ffffffffffffffffffffffffffffffffffffffff1673ffffffffffffffffffffffffffffffffffffffff168152602001908152602001600020600082015181600001556020820151816001019080519060200190610137929190610371565b5090505060008060003373ffffffffffffffffffffffffffffffffffffffff1673ffffffffffffffffffffffffffffffffffffffff16815260200190815260200160002090506040518060400160405280600381526020017f666f6f00000000000000000000000000000000000000000000000000000000008152508160010190805190602001906101ca929190610371565b5060008060003373ffffffffffffffffffffffffffffffffffffffff1673ffffffffffffffffffffffffffffffffffffffff168152602001908152602001600020604051806040016040529081600082015481526020016001820180546102309061059b565b80601f016020809104026020016040519081016040528092919081815260200182805461025c9061059b565b80156102a95780601f1061027e576101008083540402835291602001916102a9565b820191906000526020600020905b81548152906001019060200180831161028c57829003601f168201915b50505050508152505090506101c8816000018181525050505050565b60006020528060005260406000206000915090508060000154908060010180546102ee9061059b565b80601f016020809104026020016040519081016040528092919081815260200182805461031a9061059b565b80156103675780601f1061033c57610100808354040283529160200191610367565b820191906000526020600020905b81548152906001019060200180831161034a57829003601f168201915b5050505050905082565b82805461037d9061059b565b90600052602060002090601f01602090048101928261039f57600085556103e6565b82601f106103b857805160ff19168380011785556103e6565b828001600101855582156103e6579182015b828111156103e55782518255916020019190600101906103ca565b5b5090506103f391906103f7565b5090565b5b808211156104105760008160009055506001016103f8565b5090565b60008135905061042381610612565b92915050565b60008135905061043881610629565b92915050565b600060208284031215610454576104536105fc565b5b600061046284828501610414565b91505092915050565b600060208284031215610481576104806105fc565b5b600061048f84828501610429565b91505092915050565b60006104a382610510565b6104ad818561051b565b93506104bd818560208601610568565b6104c681610601565b840191505092915050565b6104da8161055e565b82525050565b60006040820190506104f560008301856104d1565b81810360208301526105078184610498565b90509392505050565b600081519050919050565b600082825260208201905092915050565b60006105378261053e565b9050919050565b600073ffffffffffffffffffffffffffffffffffffffff82169050919050565b6000819050919050565b60005b8381101561058657808201518184015260208101905061056b565b83811115610595576000848401525b50505050565b600060028204905060018216806105b357607f821691505b602082108114156105c7576105c66105cd565b5b50919050565b7f4e487b7100000000000000000000000000000000000000000000000000000000600052602260045260246000fd5b600080fd5b6000601f19601f8301169050919050565b61061b8161052c565b811461062657600080fd5b50565b6106328161055e565b811461063d57600080fd5b5056fea2646970667358221220ca6aabc713ce40d48e7150ab74245f0121f21138d916807eda687dfeeb9b6d7464736f6c63430008070033",
					"opcodes": "PUSH1 0x80 PUSH1 0x40 MSTORE CALLVALUE DUP1 ISZERO PUSH2 0x10 JUMPI PUSH1 0x0 DUP1 REVERT JUMPDEST POP PUSH2 0x676 DUP1 PUSH2 0x20 PUSH1 0x0 CODECOPY PUSH1 0x0 RETURN INVALID PUSH1 0x80 PUSH1 0x40 MSTORE CALLVALUE DUP1 ISZERO PUSH2 0x10 JUMPI PUSH1 0x0 DUP1 REVERT JUMPDEST POP PUSH1 0x4 CALLDATASIZE LT PUSH2 0x36 JUMPI PUSH1 0x0 CALLDATALOAD PUSH1 0xE0 SHR DUP1 PUSH4 0x9AE1F604 EQ PUSH2 0x3B JUMPI DUP1 PUSH4 0xB43C5D33 EQ PUSH2 0x57 JUMPI JUMPDEST PUSH1 0x0 DUP1 REVERT JUMPDEST PUSH2 0x55 PUSH1 0x4 DUP1 CALLDATASIZE SUB DUP2 ADD SWAP1 PUSH2 0x50 SWAP2 SWAP1 PUSH2 0x46B JUMP JUMPDEST PUSH2 0x88 JUMP JUMPDEST STOP JUMPDEST PUSH2 0x71 PUSH1 0x4 DUP1 CALLDATASIZE SUB DUP2 ADD SWAP1 PUSH2 0x6C SWAP2 SWAP1 PUSH2 0x43E JUMP JUMPDEST PUSH2 0x2C5 JUMP JUMPDEST PUSH1 0x40 MLOAD PUSH2 0x7F SWAP3 SWAP2 SWAP1 PUSH2 0x4E0 JUMP JUMPDEST PUSH1 0x40 MLOAD DUP1 SWAP2 SUB SWAP1 RETURN JUMPDEST PUSH1 0x40 MLOAD DUP1 PUSH1 0x40 ADD PUSH1 0x40 MSTORE DUP1 PUSH1 0x7B DUP2 MSTORE PUSH1 0x20 ADD PUSH1 0x40 MLOAD DUP1 PUSH1 0x40 ADD PUSH1 0x40 MSTORE DUP1 PUSH1 0x3 DUP2 MSTORE PUSH1 0x20 ADD PUSH32 0x6261720000000000000000000000000000000000000000000000000000000000 DUP2 MSTORE POP DUP2 MSTORE POP PUSH1 0x0 DUP1 CALLER PUSH20 0xFFFFFFFFFFFFFFFFFFFFFFFFFFFFFFFFFFFFFFFF AND PUSH20 0xFFFFFFFFFFFFFFFFFFFFFFFFFFFFFFFFFFFFFFFF AND DUP2 MSTORE PUSH1 0x20 ADD SWAP1 DUP2 MSTORE PUSH1 0x20 ADD PUSH1 0x0 KECCAK256 PUSH1 0x0 DUP3 ADD MLOAD DUP2 PUSH1 0x0 ADD SSTORE PUSH1 0x20 DUP3 ADD MLOAD DUP2 PUSH1 0x1 ADD SWAP1 DUP1 MLOAD SWAP1 PUSH1 0x20 ADD SWAP1 PUSH2 0x137 SWAP3 SWAP2 SWAP1 PUSH2 0x371 JUMP JUMPDEST POP SWAP1 POP POP PUSH1 0x0 DUP1 PUSH1 0x0 CALLER PUSH20 0xFFFFFFFFFFFFFFFFFFFFFFFFFFFFFFFFFFFFFFFF AND PUSH20 0xFFFFFFFFFFFFFFFFFFFFFFFFFFFFFFFFFFFFFFFF AND DUP2 MSTORE PUSH1 0x20 ADD SWAP1 DUP2 MSTORE PUSH1 0x20 ADD PUSH1 0x0 KECCAK256 SWAP1 POP PUSH1 0x40 MLOAD DUP1 PUSH1 0x40 ADD PUSH1 0x40 MSTORE DUP1 PUSH1 0x3 DUP2 MSTORE PUSH1 0x20 ADD PUSH32 0x666F6F0000000000000000000000000000000000000000000000000000000000 DUP2 MSTORE POP DUP2 PUSH1 0x1 ADD SWAP1 DUP1 MLOAD SWAP1 PUSH1 0x20 ADD SWAP1 PUSH2 0x1CA SWAP3 SWAP2 SWAP1 PUSH2 0x371 JUMP JUMPDEST POP PUSH1 0x0 DUP1 PUSH1 0x0 CALLER PUSH20 0xFFFFFFFFFFFFFFFFFFFFFFFFFFFFFFFFFFFFFFFF AND PUSH20 0xFFFFFFFFFFFFFFFFFFFFFFFFFFFFFFFFFFFFFFFF AND DUP2 MSTORE PUSH1 0x20 ADD SWAP1 DUP2 MSTORE PUSH1 0x20 ADD PUSH1 0x0 KECCAK256 PUSH1 0x40 MLOAD DUP1 PUSH1 0x40 ADD PUSH1 0x40 MSTORE SWAP1 DUP2 PUSH1 0x0 DUP3 ADD SLOAD DUP2 MSTORE PUSH1 0x20 ADD PUSH1 0x1 DUP3 ADD DUP1 SLOAD PUSH2 0x230 SWAP1 PUSH2 0x59B JUMP JUMPDEST DUP1 PUSH1 0x1F ADD PUSH1 0x20 DUP1 SWAP2 DIV MUL PUSH1 0x20 ADD PUSH1 0x40 MLOAD SWAP1 DUP2 ADD PUSH1 0x40 MSTORE DUP1 SWAP3 SWAP2 SWAP1 DUP2 DUP2 MSTORE PUSH1 0x20 ADD DUP3 DUP1 SLOAD PUSH2 0x25C SWAP1 PUSH2 0x59B JUMP JUMPDEST DUP1 ISZERO PUSH2 0x2A9 JUMPI DUP1 PUSH1 0x1F LT PUSH2 0x27E JUMPI PUSH2 0x100 DUP1 DUP4 SLOAD DIV MUL DUP4 MSTORE SWAP2 PUSH1 0x20 ADD SWAP2 PUSH2 0x2A9 JUMP JUMPDEST DUP3 ADD SWAP2 SWAP1 PUSH1 0x0 MSTORE PUSH1 0x20 PUSH1 0x0 KECCAK256 SWAP1 JUMPDEST DUP2 SLOAD DUP2 MSTORE SWAP1 PUSH1 0x1 ADD SWAP1 PUSH1 0x20 ADD DUP1 DUP4 GT PUSH2 0x28C JUMPI DUP3 SWAP1 SUB PUSH1 0x1F AND DUP3 ADD SWAP2 JUMPDEST POP POP POP POP POP DUP2 MSTORE POP POP SWAP1 POP PUSH2 0x1C8 DUP2 PUSH1 0x0 ADD DUP2 DUP2 MSTORE POP POP POP POP POP JUMP JUMPDEST PUSH1 0x0 PUSH1 0x20 MSTORE DUP1 PUSH1 0x0 MSTORE PUSH1 0x40 PUSH1 0x0 KECCAK256 PUSH1 0x0 SWAP2 POP SWAP1 POP DUP1 PUSH1 0x0 ADD SLOAD SWAP1 DUP1 PUSH1 0x1 ADD DUP1 SLOAD PUSH2 0x2EE SWAP1 PUSH2 0x59B JUMP JUMPDEST DUP1 PUSH1 0x1F ADD PUSH1 0x20 DUP1 SWAP2 DIV MUL PUSH1 0x20 ADD PUSH1 0x40 MLOAD SWAP1 DUP2 ADD PUSH1 0x40 MSTORE DUP1 SWAP3 SWAP2 SWAP1 DUP2 DUP2 MSTORE PUSH1 0x20 ADD DUP3 DUP1 SLOAD PUSH2 0x31A SWAP1 PUSH2 0x59B JUMP JUMPDEST DUP1 ISZERO PUSH2 0x367 JUMPI DUP1 PUSH1 0x1F LT PUSH2 0x33C JUMPI PUSH2 0x100 DUP1 DUP4 SLOAD DIV MUL DUP4 MSTORE SWAP2 PUSH1 0x20 ADD SWAP2 PUSH2 0x367 JUMP JUMPDEST DUP3 ADD SWAP2 SWAP1 PUSH1 0x0 MSTORE PUSH1 0x20 PUSH1 0x0 KECCAK256 SWAP1 JUMPDEST DUP2 SLOAD DUP2 MSTORE SWAP1 PUSH1 0x1 ADD SWAP1 PUSH1 0x20 ADD DUP1 DUP4 GT PUSH2 0x34A JUMPI DUP3 SWAP1 SUB PUSH1 0x1F AND DUP3 ADD SWAP2 JUMPDEST POP POP POP POP POP SWAP1 POP DUP3 JUMP JUMPDEST DUP3 DUP1 SLOAD PUSH2 0x37D SWAP1 PUSH2 0x59B JUMP JUMPDEST SWAP1 PUSH1 0x0 MSTORE PUSH1 0x20 PUSH1 0x0 KECCAK256 SWAP1 PUSH1 0x1F ADD PUSH1 0x20 SWAP1 DIV DUP2 ADD SWAP3 DUP3 PUSH2 0x39F JUMPI PUSH1 0x0 DUP6 SSTORE PUSH2 0x3E6 JUMP JUMPDEST DUP3 PUSH1 0x1F LT PUSH2 0x3B8 JUMPI DUP1 MLOAD PUSH1 0xFF NOT AND DUP4 DUP1 ADD OR DUP6 SSTORE PUSH2 0x3E6 JUMP JUMPDEST DUP3 DUP1 ADD PUSH1 0x1 ADD DUP6 SSTORE DUP3 ISZERO PUSH2 0x3E6 JUMPI SWAP2 DUP3 ADD JUMPDEST DUP3 DUP2 GT ISZERO PUSH2 0x3E5 JUMPI DUP3 MLOAD DUP3 SSTORE SWAP2 PUSH1 0x20 ADD SWAP2 SWAP1 PUSH1 0x1 ADD SWAP1 PUSH2 0x3CA JUMP JUMPDEST JUMPDEST POP SWAP1 POP PUSH2 0x3F3 SWAP2 SWAP1 PUSH2 0x3F7 JUMP JUMPDEST POP SWAP1 JUMP JUMPDEST JUMPDEST DUP1 DUP3 GT ISZERO PUSH2 0x410 JUMPI PUSH1 0x0 DUP2 PUSH1 0x0 SWAP1 SSTORE POP PUSH1 0x1 ADD PUSH2 0x3F8 JUMP JUMPDEST POP SWAP1 JUMP JUMPDEST PUSH1 0x0 DUP2 CALLDATALOAD SWAP1 POP PUSH2 0x423 DUP2 PUSH2 0x612 JUMP JUMPDEST SWAP3 SWAP2 POP POP JUMP JUMPDEST PUSH1 0x0 DUP2 CALLDATALOAD SWAP1 POP PUSH2 0x438 DUP2 PUSH2 0x629 JUMP JUMPDEST SWAP3 SWAP2 POP POP JUMP JUMPDEST PUSH1 0x0 PUSH1 0x20 DUP3 DUP5 SUB SLT ISZERO PUSH2 0x454 JUMPI PUSH2 0x453 PUSH2 0x5FC JUMP JUMPDEST JUMPDEST PUSH1 0x0 PUSH2 0x462 DUP5 DUP3 DUP6 ADD PUSH2 0x414 JUMP JUMPDEST SWAP2 POP POP SWAP3 SWAP2 POP POP JUMP JUMPDEST PUSH1 0x0 PUSH1 0x20 DUP3 DUP5 SUB SLT ISZERO PUSH2 0x481 JUMPI PUSH2 0x480 PUSH2 0x5FC JUMP JUMPDEST JUMPDEST PUSH1 0x0 PUSH2 0x48F DUP5 DUP3 DUP6 ADD PUSH2 0x429 JUMP JUMPDEST SWAP2 POP POP SWAP3 SWAP2 POP POP JUMP JUMPDEST PUSH1 0x0 PUSH2 0x4A3 DUP3 PUSH2 0x510 JUMP JUMPDEST PUSH2 0x4AD DUP2 DUP6 PUSH2 0x51B JUMP JUMPDEST SWAP4 POP PUSH2 0x4BD DUP2 DUP6 PUSH1 0x20 DUP7 ADD PUSH2 0x568 JUMP JUMPDEST PUSH2 0x4C6 DUP2 PUSH2 0x601 JUMP JUMPDEST DUP5 ADD SWAP2 POP POP SWAP3 SWAP2 POP POP JUMP JUMPDEST PUSH2 0x4DA DUP2 PUSH2 0x55E JUMP JUMPDEST DUP3 MSTORE POP POP JUMP JUMPDEST PUSH1 0x0 PUSH1 0x40 DUP3 ADD SWAP1 POP PUSH2 0x4F5 PUSH1 0x0 DUP4 ADD DUP6 PUSH2 0x4D1 JUMP JUMPDEST DUP2 DUP2 SUB PUSH1 0x20 DUP4 ADD MSTORE PUSH2 0x507 DUP2 DUP5 PUSH2 0x498 JUMP JUMPDEST SWAP1 POP SWAP4 SWAP3 POP POP POP JUMP JUMPDEST PUSH1 0x0 DUP2 MLOAD SWAP1 POP SWAP2 SWAP1 POP JUMP JUMPDEST PUSH1 0x0 DUP3 DUP3 MSTORE PUSH1 0x20 DUP3 ADD SWAP1 POP SWAP3 SWAP2 POP POP JUMP JUMPDEST PUSH1 0x0 PUSH2 0x537 DUP3 PUSH2 0x53E JUMP JUMPDEST SWAP1 POP SWAP2 SWAP1 POP JUMP JUMPDEST PUSH1 0x0 PUSH20 0xFFFFFFFFFFFFFFFFFFFFFFFFFFFFFFFFFFFFFFFF DUP3 AND SWAP1 POP SWAP2 SWAP1 POP JUMP JUMPDEST PUSH1 0x0 DUP2 SWAP1 POP SWAP2 SWAP1 POP JUMP JUMPDEST PUSH1 0x0 JUMPDEST DUP4 DUP2 LT ISZERO PUSH2 0x586 JUMPI DUP1 DUP3 ADD MLOAD DUP2 DUP5 ADD MSTORE PUSH1 0x20 DUP2 ADD SWAP1 POP PUSH2 0x56B JUMP JUMPDEST DUP4 DUP2 GT ISZERO PUSH2 0x595 JUMPI PUSH1 0x0 DUP5 DUP5 ADD MSTORE JUMPDEST POP POP POP POP JUMP JUMPDEST PUSH1 0x0 PUSH1 0x2 DUP3 DIV SWAP1 POP PUSH1 0x1 DUP3 AND DUP1 PUSH2 0x5B3 JUMPI PUSH1 0x7F DUP3 AND SWAP2 POP JUMPDEST PUSH1 0x20 DUP3 LT DUP2 EQ ISZERO PUSH2 0x5C7 JUMPI PUSH2 0x5C6 PUSH2 0x5CD JUMP JUMPDEST JUMPDEST POP SWAP2 SWAP1 POP JUMP JUMPDEST PUSH32 0x4E487B7100000000000000000000000000000000000000000000000000000000 PUSH1 0x0 MSTORE PUSH1 0x22 PUSH1 0x4 MSTORE PUSH1 0x24 PUSH1 0x0 REVERT JUMPDEST PUSH1 0x0 DUP1 REVERT JUMPDEST PUSH1 0x0 PUSH1 0x1F NOT PUSH1 0x1F DUP4 ADD AND SWAP1 POP SWAP2 SWAP1 POP JUMP JUMPDEST PUSH2 0x61B DUP2 PUSH2 0x52C JUMP JUMPDEST DUP2 EQ PUSH2 0x626 JUMPI PUSH1 0x0 DUP1 REVERT JUMPDEST POP JUMP JUMPDEST PUSH2 0x632 DUP2 PUSH2 0x55E JUMP JUMPDEST DUP2 EQ PUSH2 0x63D JUMPI PUSH1 0x0 DUP1 REVERT JUMPDEST POP JUMP INVALID LOG2 PUSH5 0x6970667358 0x22 SLT KECCAK256 0xCA PUSH11 0xABC713CE40D48E7150AB74 0x24 0x5F ADD 0x21 CALLCODE GT CODESIZE 0xD9 AND DUP1 PUSH31 0xDA687DFEEB9B6D7464736F6C63430008070033000000000000000000000000 "
				},
				"gasEstimates": {
					"creation": {
						"codeDepositCost": "330800",
						"executionCost": "368",
						"totalCost": "331168"
					},
					"external": {
						"examples(uint256)": "infinite",
						"myStructs(address)": "infinite"
					}
				},
				"methodIdentifiers": {
					"examples(uint256)": "9ae1f604",
					"myStructs(address)": "b43c5d33"
				}
			},
			"storageLayout": {
				"storage": [
					{
						"astId": 11,
						"contract": "contracts/DataLocations.sol:DataLocations",
						"label": "myStructs",
						"offset": 0,
						"slot": "0",
						"type": "t_mapping(t_address,t_struct(MyStruct)6_storage)"
					}
				],
				"types": {
					"t_address": {
						"encoding": "inplace",
						"label": "address",
						"numberOfBytes": "20"
					},
					"t_mapping(t_address,t_struct(MyStruct)6_storage)": {
						"encoding": "mapping",
						"key": "t_address",
						"label": "mapping(address => struct DataLocations.MyStruct)",
						"numberOfBytes": "32",
						"value": "t_struct(MyStruct)6_storage"
					},
					"t_string_storage": {
						"encoding": "bytes",
						"label": "string",
						"numberOfBytes": "32"
					},
					"t_struct(MyStruct)6_storage": {
						"encoding": "inplace",
						"label": "struct DataLocations.MyStruct",
						"members": [
							{
								"astId": 3,
								"contract": "contracts/DataLocations.sol:DataLocations",
								"label": "foo",
								"offset": 0,
								"slot": "0",
								"type": "t_uint256"
							},
							{
								"astId": 5,
								"contract": "contracts/DataLocations.sol:DataLocations",
								"label": "text",
								"offset": 0,
								"slot": "1",
								"type": "t_string_storage"
							}
						],
						"numberOfBytes": "64"
					},
					"t_uint256": {
						"encoding": "inplace",
						"label": "uint256",
						"numberOfBytes": "32"
					}
				}
			},
			"userdoc": {
				"kind": "user",
				"methods": {},
				"version": 1
			}
		}
	}
}