{
	"contracts/DataLocations.sol": {
		"DataLocations": {
			"abi": [
				{
					"inputs": [
						{
							"internalType": "uint256[]",
							"name": "y",
							"type": "uint256[]"
						},
						{
							"internalType": "string",
							"name": "s",
							"type": "string"
						}
					],
					"name": "examples",
					"outputs": [
						{
							"components": [
								{
									"internalType": "uint256",
									"name": "foo",
									"type": "uint256"
								},
								{
									"internalType": "string",
									"name": "text",
									"type": "string"
								}
							],
							"internalType": "struct DataLocations.MyStruct",
							"name": "",
							"type": "tuple"
						}
					],
					"stateMutability": "nonpayable",
					"type": "function"
				},
				{
					"inputs": [
						{
							"internalType": "address",
							"name": "",
							"type": "address"
						}
					],
					"name": "myStructs",
					"outputs": [
						{
							"internalType": "uint256",
							"name": "foo",
							"type": "uint256"
						},
						{
							"internalType": "string",
							"name": "text",
							"type": "string"
						}
					],
					"stateMutability": "view",
					"type": "function"
				}
			],
			"devdoc": {
				"kind": "dev",
				"methods": {},
				"version": 1
			},
			"evm": {
				"assembly": "    /* \"contracts/DataLocations.sol\":279:909  contract DataLocations {\r... */\n  mstore(0x40, 0x80)\n  callvalue\n  dup1\n  iszero\n  tag_1\n  jumpi\n  0x00\n  dup1\n  revert\ntag_1:\n  pop\n  dataSize(sub_0)\n  dup1\n  dataOffset(sub_0)\n  0x00\n  codecopy\n  0x00\n  return\nstop\n\nsub_0: assembly {\n        /* \"contracts/DataLocations.sol\":279:909  contract DataLocations {\r... */\n      mstore(0x40, 0x80)\n      callvalue\n      dup1\n      iszero\n      tag_1\n      jumpi\n      0x00\n      dup1\n      revert\n    tag_1:\n      pop\n      jumpi(tag_2, lt(calldatasize, 0x04))\n      shr(0xe0, calldataload(0x00))\n      dup1\n      0xb43c5d33\n      eq\n      tag_3\n      jumpi\n      dup1\n      0xfc277a95\n      eq\n      tag_4\n      jumpi\n    tag_2:\n      0x00\n      dup1\n      revert\n        /* \"contracts/DataLocations.sol\":382:427  mapping(address => MyStruct) public myStructs */\n    tag_3:\n      tag_5\n      0x04\n      dup1\n      calldatasize\n      sub\n      dup2\n      add\n      swap1\n      tag_6\n      swap2\n      swap1\n      tag_7\n      jump\t// in\n    tag_6:\n      tag_8\n      jump\t// in\n    tag_5:\n      mload(0x40)\n      tag_9\n      swap3\n      swap2\n      swap1\n      tag_10\n      jump\t// in\n    tag_9:\n      mload(0x40)\n      dup1\n      swap2\n      sub\n      swap1\n      return\n        /* \"contracts/DataLocations.sol\":437:906  function examples(uint[] memory y, string memory s) external returns (MyStruct memory) {\r... */\n    tag_4:\n      tag_11\n      0x04\n      dup1\n      calldatasize\n      sub\n      dup2\n      add\n      swap1\n      tag_12\n      swap2\n      swap1\n      tag_13\n      jump\t// in\n    tag_12:\n      tag_14\n      jump\t// in\n    tag_11:\n      mload(0x40)\n      tag_15\n      swap2\n      swap1\n      tag_16\n      jump\t// in\n    tag_15:\n      mload(0x40)\n      dup1\n      swap2\n      sub\n      swap1\n      return\n        /* \"contracts/DataLocations.sol\":382:427  mapping(address => MyStruct) public myStructs */\n    tag_8:\n      mstore(0x20, 0x00)\n      dup1\n      0x00\n      mstore\n      keccak256(0x00, 0x40)\n      0x00\n      swap2\n      pop\n      swap1\n      pop\n      dup1\n      0x00\n      add\n      sload\n      swap1\n      dup1\n      0x01\n      add\n      dup1\n      sload\n      tag_17\n      swap1\n      tag_18\n      jump\t// in\n    tag_17:\n      dup1\n      0x1f\n      add\n      0x20\n      dup1\n      swap2\n      div\n      mul\n      0x20\n      add\n      mload(0x40)\n      swap1\n      dup2\n      add\n      0x40\n      mstore\n      dup1\n      swap3\n      swap2\n      swap1\n      dup2\n      dup2\n      mstore\n      0x20\n      add\n      dup3\n      dup1\n      sload\n      tag_19\n      swap1\n      tag_18\n      jump\t// in\n    tag_19:\n      dup1\n      iszero\n      tag_20\n      jumpi\n      dup1\n      0x1f\n      lt\n      tag_21\n      jumpi\n      0x0100\n      dup1\n      dup4\n      sload\n      div\n      mul\n      dup4\n      mstore\n      swap2\n      0x20\n      add\n      swap2\n      jump(tag_20)\n    tag_21:\n      dup3\n      add\n      swap2\n      swap1\n      0x00\n      mstore\n      keccak256(0x00, 0x20)\n      swap1\n    tag_22:\n      dup2\n      sload\n      dup2\n      mstore\n      swap1\n      0x01\n      add\n      swap1\n      0x20\n      add\n      dup1\n      dup4\n      gt\n      tag_22\n      jumpi\n      dup3\n      swap1\n      sub\n      0x1f\n      and\n      dup3\n      add\n      swap2\n    tag_20:\n      pop\n      pop\n      pop\n      pop\n      pop\n      swap1\n      pop\n      dup3\n      jump\t// out\n        /* \"contracts/DataLocations.sol\":437:906  function examples(uint[] memory y, string memory s) external returns (MyStruct memory) {\r... */\n    tag_14:\n        /* \"contracts/DataLocations.sol\":507:522  MyStruct memory */\n      tag_23\n      tag_24\n      jump\t// in\n    tag_23:\n        /* \"contracts/DataLocations.sol\":559:592  MyStruct({foo: 123, text: \"bar\"}) */\n      mload(0x40)\n      dup1\n      0x40\n      add\n      0x40\n      mstore\n      dup1\n        /* \"contracts/DataLocations.sol\":574:577  123 */\n      0x7b\n        /* \"contracts/DataLocations.sol\":559:592  MyStruct({foo: 123, text: \"bar\"}) */\n      dup2\n      mstore\n      0x20\n      add\n      mload(0x40)\n      dup1\n      0x40\n      add\n      0x40\n      mstore\n      dup1\n      0x03\n      dup2\n      mstore\n      0x20\n      add\n      0x6261720000000000000000000000000000000000000000000000000000000000\n      dup2\n      mstore\n      pop\n      dup2\n      mstore\n      pop\n        /* \"contracts/DataLocations.sol\":535:544  myStructs */\n      0x00\n        /* \"contracts/DataLocations.sol\":535:556  myStructs[msg.sender] */\n      dup1\n        /* \"contracts/DataLocations.sol\":545:555  msg.sender */\n      caller\n        /* \"contracts/DataLocations.sol\":535:556  myStructs[msg.sender] */\n      0xffffffffffffffffffffffffffffffffffffffff\n      and\n      0xffffffffffffffffffffffffffffffffffffffff\n      and\n      dup2\n      mstore\n      0x20\n      add\n      swap1\n      dup2\n      mstore\n      0x20\n      add\n      0x00\n      keccak256\n        /* \"contracts/DataLocations.sol\":535:592  myStructs[msg.sender] = MyStruct({foo: 123, text: \"bar\"}) */\n      0x00\n      dup3\n      add\n      mload\n      dup2\n      0x00\n      add\n      sstore\n      0x20\n      dup3\n      add\n      mload\n      dup2\n      0x01\n      add\n      swap1\n      dup1\n      mload\n      swap1\n      0x20\n      add\n      swap1\n      tag_26\n      swap3\n      swap2\n      swap1\n      tag_27\n      jump\t// in\n    tag_26:\n      pop\n      swap1\n      pop\n      pop\n        /* \"contracts/DataLocations.sol\":605:630  MyStruct storage myStruct */\n      0x00\n        /* \"contracts/DataLocations.sol\":633:642  myStructs */\n      dup1\n        /* \"contracts/DataLocations.sol\":633:654  myStructs[msg.sender] */\n      0x00\n        /* \"contracts/DataLocations.sol\":643:653  msg.sender */\n      caller\n        /* \"contracts/DataLocations.sol\":633:654  myStructs[msg.sender] */\n      0xffffffffffffffffffffffffffffffffffffffff\n      and\n      0xffffffffffffffffffffffffffffffffffffffff\n      and\n      dup2\n      mstore\n      0x20\n      add\n      swap1\n      dup2\n      mstore\n      0x20\n      add\n      0x00\n      keccak256\n        /* \"contracts/DataLocations.sol\":605:654  MyStruct storage myStruct = myStructs[msg.sender] */\n      swap1\n      pop\n        /* \"contracts/DataLocations.sol\":665:686  myStruct.text = \"foo\" */\n      mload(0x40)\n      dup1\n      0x40\n      add\n      0x40\n      mstore\n      dup1\n      0x03\n      dup2\n      mstore\n      0x20\n      add\n      0x666f6f0000000000000000000000000000000000000000000000000000000000\n      dup2\n      mstore\n      pop\n        /* \"contracts/DataLocations.sol\":665:673  myStruct */\n      dup2\n        /* \"contracts/DataLocations.sol\":665:678  myStruct.text */\n      0x01\n      add\n        /* \"contracts/DataLocations.sol\":665:686  myStruct.text = \"foo\" */\n      swap1\n      dup1\n      mload\n      swap1\n      0x20\n      add\n      swap1\n      tag_28\n      swap3\n      swap2\n      swap1\n      tag_27\n      jump\t// in\n    tag_28:\n      pop\n        /* \"contracts/DataLocations.sol\":699:723  MyStruct memory readOnly */\n      0x00\n        /* \"contracts/DataLocations.sol\":726:735  myStructs */\n      dup1\n        /* \"contracts/DataLocations.sol\":726:747  myStructs[msg.sender] */\n      0x00\n        /* \"contracts/DataLocations.sol\":736:746  msg.sender */\n      caller\n        /* \"contracts/DataLocations.sol\":726:747  myStructs[msg.sender] */\n      0xffffffffffffffffffffffffffffffffffffffff\n      and\n      0xffffffffffffffffffffffffffffffffffffffff\n      and\n      dup2\n      mstore\n      0x20\n      add\n      swap1\n      dup2\n      mstore\n      0x20\n      add\n      0x00\n      keccak256\n        /* \"contracts/DataLocations.sol\":699:747  MyStruct memory readOnly = myStructs[msg.sender] */\n      mload(0x40)\n      dup1\n      0x40\n      add\n      0x40\n      mstore\n      swap1\n      dup2\n      0x00\n      dup3\n      add\n      sload\n      dup2\n      mstore\n      0x20\n      add\n      0x01\n      dup3\n      add\n      dup1\n      sload\n      tag_29\n      swap1\n      tag_18\n      jump\t// in\n    tag_29:\n      dup1\n      0x1f\n      add\n      0x20\n      dup1\n      swap2\n      div\n      mul\n      0x20\n      add\n      mload(0x40)\n      swap1\n      dup2\n      add\n      0x40\n      mstore\n      dup1\n      swap3\n      swap2\n      swap1\n      dup2\n      dup2\n      mstore\n      0x20\n      add\n      dup3\n      dup1\n      sload\n      tag_30\n      swap1\n      tag_18\n      jump\t// in\n    tag_30:\n      dup1\n      iszero\n      tag_31\n      jumpi\n      dup1\n      0x1f\n      lt\n      tag_32\n      jumpi\n      0x0100\n      dup1\n      dup4\n      sload\n      div\n      mul\n      dup4\n      mstore\n      swap2\n      0x20\n      add\n      swap2\n      jump(tag_31)\n    tag_32:\n      dup3\n      add\n      swap2\n      swap1\n      0x00\n      mstore\n      keccak256(0x00, 0x20)\n      swap1\n    tag_33:\n      dup2\n      sload\n      dup2\n      mstore\n      swap1\n      0x01\n      add\n      swap1\n      0x20\n      add\n      dup1\n      dup4\n      gt\n      tag_33\n      jumpi\n      dup3\n      swap1\n      sub\n      0x1f\n      and\n      dup3\n      add\n      swap2\n    tag_31:\n      pop\n      pop\n      pop\n      pop\n      pop\n      dup2\n      mstore\n      pop\n      pop\n      swap1\n      pop\n        /* \"contracts/DataLocations.sol\":773:776  456 */\n      0x01c8\n        /* \"contracts/DataLocations.sol\":758:766  readOnly */\n      dup2\n        /* \"contracts/DataLocations.sol\":758:770  readOnly.foo */\n      0x00\n      add\n        /* \"contracts/DataLocations.sol\":758:776  readOnly.foo = 456 */\n      dup2\n      dup2\n      mstore\n      pop\n      pop\n        /* \"contracts/DataLocations.sol\":890:898  readOnly */\n      dup1\n        /* \"contracts/DataLocations.sol\":883:898  return readOnly */\n      swap3\n      pop\n      pop\n      pop\n        /* \"contracts/DataLocations.sol\":437:906  function examples(uint[] memory y, string memory s) external returns (MyStruct memory) {\r... */\n      swap3\n      swap2\n      pop\n      pop\n      jump\t// out\n    tag_24:\n      mload(0x40)\n      dup1\n      0x40\n      add\n      0x40\n      mstore\n      dup1\n      0x00\n      dup2\n      mstore\n      0x20\n      add\n      0x60\n      dup2\n      mstore\n      pop\n      swap1\n      jump\t// out\n    tag_27:\n      dup3\n      dup1\n      sload\n      tag_34\n      swap1\n      tag_18\n      jump\t// in\n    tag_34:\n      swap1\n      0x00\n      mstore\n      keccak256(0x00, 0x20)\n      swap1\n      0x1f\n      add\n      0x20\n      swap1\n      div\n      dup2\n      add\n      swap3\n      dup3\n      tag_36\n      jumpi\n      0x00\n      dup6\n      sstore\n      jump(tag_35)\n    tag_36:\n      dup3\n      0x1f\n      lt\n      tag_37\n      jumpi\n      dup1\n      mload\n      not(0xff)\n      and\n      dup4\n      dup1\n      add\n      or\n      dup6\n      sstore\n      jump(tag_35)\n    tag_37:\n      dup3\n      dup1\n      add\n      0x01\n      add\n      dup6\n      sstore\n      dup3\n      iszero\n      tag_35\n      jumpi\n      swap2\n      dup3\n      add\n    tag_38:\n      dup3\n      dup2\n      gt\n      iszero\n      tag_39\n      jumpi\n      dup3\n      mload\n      dup3\n      sstore\n      swap2\n      0x20\n      add\n      swap2\n      swap1\n      0x01\n      add\n      swap1\n      jump(tag_38)\n    tag_39:\n    tag_35:\n      pop\n      swap1\n      pop\n      tag_40\n      swap2\n      swap1\n      tag_41\n      jump\t// in\n    tag_40:\n      pop\n      swap1\n      jump\t// out\n    tag_41:\n    tag_42:\n      dup1\n      dup3\n      gt\n      iszero\n      tag_43\n      jumpi\n      0x00\n      dup2\n      0x00\n      swap1\n      sstore\n      pop\n      0x01\n      add\n      jump(tag_42)\n    tag_43:\n      pop\n      swap1\n      jump\t// out\n        /* \"#utility.yul\":24:746   */\n    tag_45:\n        /* \"#utility.yul\":120:125   */\n      0x00\n        /* \"#utility.yul\":145:226   */\n      tag_47\n        /* \"#utility.yul\":161:225   */\n      tag_48\n        /* \"#utility.yul\":218:224   */\n      dup5\n        /* \"#utility.yul\":161:225   */\n      tag_49\n      jump\t// in\n    tag_48:\n        /* \"#utility.yul\":145:226   */\n      tag_50\n      jump\t// in\n    tag_47:\n        /* \"#utility.yul\":136:226   */\n      swap1\n      pop\n        /* \"#utility.yul\":246:251   */\n      dup1\n        /* \"#utility.yul\":275:281   */\n      dup4\n        /* \"#utility.yul\":268:273   */\n      dup3\n        /* \"#utility.yul\":261:282   */\n      mstore\n        /* \"#utility.yul\":309:313   */\n      0x20\n        /* \"#utility.yul\":302:307   */\n      dup3\n        /* \"#utility.yul\":298:314   */\n      add\n        /* \"#utility.yul\":291:314   */\n      swap1\n      pop\n        /* \"#utility.yul\":335:341   */\n      dup3\n        /* \"#utility.yul\":385:388   */\n      dup6\n        /* \"#utility.yul\":377:381   */\n      0x20\n        /* \"#utility.yul\":369:375   */\n      dup7\n        /* \"#utility.yul\":365:382   */\n      mul\n        /* \"#utility.yul\":360:363   */\n      dup3\n        /* \"#utility.yul\":356:383   */\n      add\n        /* \"#utility.yul\":353:389   */\n      gt\n        /* \"#utility.yul\":350:493   */\n      iszero\n      tag_51\n      jumpi\n        /* \"#utility.yul\":404:483   */\n      tag_52\n      tag_53\n      jump\t// in\n    tag_52:\n        /* \"#utility.yul\":350:493   */\n    tag_51:\n        /* \"#utility.yul\":517:518   */\n      0x00\n        /* \"#utility.yul\":502:740   */\n    tag_54:\n        /* \"#utility.yul\":527:533   */\n      dup6\n        /* \"#utility.yul\":524:525   */\n      dup2\n        /* \"#utility.yul\":521:534   */\n      lt\n        /* \"#utility.yul\":502:740   */\n      iszero\n      tag_56\n      jumpi\n        /* \"#utility.yul\":595:598   */\n      dup2\n        /* \"#utility.yul\":624:661   */\n      tag_57\n        /* \"#utility.yul\":657:660   */\n      dup9\n        /* \"#utility.yul\":645:655   */\n      dup3\n        /* \"#utility.yul\":624:661   */\n      tag_58\n      jump\t// in\n    tag_57:\n        /* \"#utility.yul\":619:622   */\n      dup5\n        /* \"#utility.yul\":612:662   */\n      mstore\n        /* \"#utility.yul\":691:695   */\n      0x20\n        /* \"#utility.yul\":686:689   */\n      dup5\n        /* \"#utility.yul\":682:696   */\n      add\n        /* \"#utility.yul\":675:696   */\n      swap4\n      pop\n        /* \"#utility.yul\":725:729   */\n      0x20\n        /* \"#utility.yul\":720:723   */\n      dup4\n        /* \"#utility.yul\":716:730   */\n      add\n        /* \"#utility.yul\":709:730   */\n      swap3\n      pop\n        /* \"#utility.yul\":562:740   */\n      pop\n        /* \"#utility.yul\":549:550   */\n      0x01\n        /* \"#utility.yul\":546:547   */\n      dup2\n        /* \"#utility.yul\":542:551   */\n      add\n        /* \"#utility.yul\":537:551   */\n      swap1\n      pop\n        /* \"#utility.yul\":502:740   */\n      jump(tag_54)\n    tag_56:\n        /* \"#utility.yul\":506:520   */\n      pop\n        /* \"#utility.yul\":126:746   */\n      pop\n      pop\n        /* \"#utility.yul\":24:746   */\n      swap4\n      swap3\n      pop\n      pop\n      pop\n      jump\t// out\n        /* \"#utility.yul\":752:1164   */\n    tag_59:\n        /* \"#utility.yul\":830:835   */\n      0x00\n        /* \"#utility.yul\":855:921   */\n      tag_61\n        /* \"#utility.yul\":871:920   */\n      tag_62\n        /* \"#utility.yul\":913:919   */\n      dup5\n        /* \"#utility.yul\":871:920   */\n      tag_63\n      jump\t// in\n    tag_62:\n        /* \"#utility.yul\":855:921   */\n      tag_50\n      jump\t// in\n    tag_61:\n        /* \"#utility.yul\":846:921   */\n      swap1\n      pop\n        /* \"#utility.yul\":944:950   */\n      dup3\n        /* \"#utility.yul\":937:942   */\n      dup2\n        /* \"#utility.yul\":930:951   */\n      mstore\n        /* \"#utility.yul\":982:986   */\n      0x20\n        /* \"#utility.yul\":975:980   */\n      dup2\n        /* \"#utility.yul\":971:987   */\n      add\n        /* \"#utility.yul\":1020:1023   */\n      dup5\n        /* \"#utility.yul\":1011:1017   */\n      dup5\n        /* \"#utility.yul\":1006:1009   */\n      dup5\n        /* \"#utility.yul\":1002:1018   */\n      add\n        /* \"#utility.yul\":999:1024   */\n      gt\n        /* \"#utility.yul\":996:1108   */\n      iszero\n      tag_64\n      jumpi\n        /* \"#utility.yul\":1027:1106   */\n      tag_65\n      tag_66\n      jump\t// in\n    tag_65:\n        /* \"#utility.yul\":996:1108   */\n    tag_64:\n        /* \"#utility.yul\":1117:1158   */\n      tag_67\n        /* \"#utility.yul\":1151:1157   */\n      dup5\n        /* \"#utility.yul\":1146:1149   */\n      dup3\n        /* \"#utility.yul\":1141:1144   */\n      dup6\n        /* \"#utility.yul\":1117:1158   */\n      tag_68\n      jump\t// in\n    tag_67:\n        /* \"#utility.yul\":836:1164   */\n      pop\n        /* \"#utility.yul\":752:1164   */\n      swap4\n      swap3\n      pop\n      pop\n      pop\n      jump\t// out\n        /* \"#utility.yul\":1170:1309   */\n    tag_69:\n        /* \"#utility.yul\":1216:1221   */\n      0x00\n        /* \"#utility.yul\":1254:1260   */\n      dup2\n        /* \"#utility.yul\":1241:1261   */\n      calldataload\n        /* \"#utility.yul\":1232:1261   */\n      swap1\n      pop\n        /* \"#utility.yul\":1270:1303   */\n      tag_71\n        /* \"#utility.yul\":1297:1302   */\n      dup2\n        /* \"#utility.yul\":1270:1303   */\n      tag_72\n      jump\t// in\n    tag_71:\n        /* \"#utility.yul\":1170:1309   */\n      swap3\n      swap2\n      pop\n      pop\n      jump\t// out\n        /* \"#utility.yul\":1332:1702   */\n    tag_73:\n        /* \"#utility.yul\":1403:1408   */\n      0x00\n        /* \"#utility.yul\":1452:1455   */\n      dup3\n        /* \"#utility.yul\":1445:1449   */\n      0x1f\n        /* \"#utility.yul\":1437:1443   */\n      dup4\n        /* \"#utility.yul\":1433:1450   */\n      add\n        /* \"#utility.yul\":1429:1456   */\n      slt\n        /* \"#utility.yul\":1419:1541   */\n      tag_75\n      jumpi\n        /* \"#utility.yul\":1460:1539   */\n      tag_76\n      tag_77\n      jump\t// in\n    tag_76:\n        /* \"#utility.yul\":1419:1541   */\n    tag_75:\n        /* \"#utility.yul\":1577:1583   */\n      dup2\n        /* \"#utility.yul\":1564:1584   */\n      calldataload\n        /* \"#utility.yul\":1602:1696   */\n      tag_78\n        /* \"#utility.yul\":1692:1695   */\n      dup5\n        /* \"#utility.yul\":1684:1690   */\n      dup3\n        /* \"#utility.yul\":1677:1681   */\n      0x20\n        /* \"#utility.yul\":1669:1675   */\n      dup7\n        /* \"#utility.yul\":1665:1682   */\n      add\n        /* \"#utility.yul\":1602:1696   */\n      tag_45\n      jump\t// in\n    tag_78:\n        /* \"#utility.yul\":1593:1696   */\n      swap2\n      pop\n        /* \"#utility.yul\":1409:1702   */\n      pop\n        /* \"#utility.yul\":1332:1702   */\n      swap3\n      swap2\n      pop\n      pop\n      jump\t// out\n        /* \"#utility.yul\":1722:2062   */\n    tag_79:\n        /* \"#utility.yul\":1778:1783   */\n      0x00\n        /* \"#utility.yul\":1827:1830   */\n      dup3\n        /* \"#utility.yul\":1820:1824   */\n      0x1f\n        /* \"#utility.yul\":1812:1818   */\n      dup4\n        /* \"#utility.yul\":1808:1825   */\n      add\n        /* \"#utility.yul\":1804:1831   */\n      slt\n        /* \"#utility.yul\":1794:1916   */\n      tag_81\n      jumpi\n        /* \"#utility.yul\":1835:1914   */\n      tag_82\n      tag_77\n      jump\t// in\n    tag_82:\n        /* \"#utility.yul\":1794:1916   */\n    tag_81:\n        /* \"#utility.yul\":1952:1958   */\n      dup2\n        /* \"#utility.yul\":1939:1959   */\n      calldataload\n        /* \"#utility.yul\":1977:2056   */\n      tag_83\n        /* \"#utility.yul\":2052:2055   */\n      dup5\n        /* \"#utility.yul\":2044:2050   */\n      dup3\n        /* \"#utility.yul\":2037:2041   */\n      0x20\n        /* \"#utility.yul\":2029:2035   */\n      dup7\n        /* \"#utility.yul\":2025:2042   */\n      add\n        /* \"#utility.yul\":1977:2056   */\n      tag_59\n      jump\t// in\n    tag_83:\n        /* \"#utility.yul\":1968:2056   */\n      swap2\n      pop\n        /* \"#utility.yul\":1784:2062   */\n      pop\n        /* \"#utility.yul\":1722:2062   */\n      swap3\n      swap2\n      pop\n      pop\n      jump\t// out\n        /* \"#utility.yul\":2068:2207   */\n    tag_58:\n        /* \"#utility.yul\":2114:2119   */\n      0x00\n        /* \"#utility.yul\":2152:2158   */\n      dup2\n        /* \"#utility.yul\":2139:2159   */\n      calldataload\n        /* \"#utility.yul\":2130:2159   */\n      swap1\n      pop\n        /* \"#utility.yul\":2168:2201   */\n      tag_85\n        /* \"#utility.yul\":2195:2200   */\n      dup2\n        /* \"#utility.yul\":2168:2201   */\n      tag_86\n      jump\t// in\n    tag_85:\n        /* \"#utility.yul\":2068:2207   */\n      swap3\n      swap2\n      pop\n      pop\n      jump\t// out\n        /* \"#utility.yul\":2213:2542   */\n    tag_7:\n        /* \"#utility.yul\":2272:2278   */\n      0x00\n        /* \"#utility.yul\":2321:2323   */\n      0x20\n        /* \"#utility.yul\":2309:2318   */\n      dup3\n        /* \"#utility.yul\":2300:2307   */\n      dup5\n        /* \"#utility.yul\":2296:2319   */\n      sub\n        /* \"#utility.yul\":2292:2324   */\n      slt\n        /* \"#utility.yul\":2289:2408   */\n      iszero\n      tag_88\n      jumpi\n        /* \"#utility.yul\":2327:2406   */\n      tag_89\n      tag_90\n      jump\t// in\n    tag_89:\n        /* \"#utility.yul\":2289:2408   */\n    tag_88:\n        /* \"#utility.yul\":2447:2448   */\n      0x00\n        /* \"#utility.yul\":2472:2525   */\n      tag_91\n        /* \"#utility.yul\":2517:2524   */\n      dup5\n        /* \"#utility.yul\":2508:2514   */\n      dup3\n        /* \"#utility.yul\":2497:2506   */\n      dup6\n        /* \"#utility.yul\":2493:2515   */\n      add\n        /* \"#utility.yul\":2472:2525   */\n      tag_69\n      jump\t// in\n    tag_91:\n        /* \"#utility.yul\":2462:2525   */\n      swap2\n      pop\n        /* \"#utility.yul\":2418:2535   */\n      pop\n        /* \"#utility.yul\":2213:2542   */\n      swap3\n      swap2\n      pop\n      pop\n      jump\t// out\n        /* \"#utility.yul\":2548:3412   */\n    tag_13:\n        /* \"#utility.yul\":2651:2657   */\n      0x00\n        /* \"#utility.yul\":2659:2665   */\n      dup1\n        /* \"#utility.yul\":2708:2710   */\n      0x40\n        /* \"#utility.yul\":2696:2705   */\n      dup4\n        /* \"#utility.yul\":2687:2694   */\n      dup6\n        /* \"#utility.yul\":2683:2706   */\n      sub\n        /* \"#utility.yul\":2679:2711   */\n      slt\n        /* \"#utility.yul\":2676:2795   */\n      iszero\n      tag_93\n      jumpi\n        /* \"#utility.yul\":2714:2793   */\n      tag_94\n      tag_90\n      jump\t// in\n    tag_94:\n        /* \"#utility.yul\":2676:2795   */\n    tag_93:\n        /* \"#utility.yul\":2862:2863   */\n      0x00\n        /* \"#utility.yul\":2851:2860   */\n      dup4\n        /* \"#utility.yul\":2847:2864   */\n      add\n        /* \"#utility.yul\":2834:2865   */\n      calldataload\n        /* \"#utility.yul\":2892:2910   */\n      0xffffffffffffffff\n        /* \"#utility.yul\":2884:2890   */\n      dup2\n        /* \"#utility.yul\":2881:2911   */\n      gt\n        /* \"#utility.yul\":2878:2995   */\n      iszero\n      tag_95\n      jumpi\n        /* \"#utility.yul\":2914:2993   */\n      tag_96\n      tag_97\n      jump\t// in\n    tag_96:\n        /* \"#utility.yul\":2878:2995   */\n    tag_95:\n        /* \"#utility.yul\":3019:3097   */\n      tag_98\n        /* \"#utility.yul\":3089:3096   */\n      dup6\n        /* \"#utility.yul\":3080:3086   */\n      dup3\n        /* \"#utility.yul\":3069:3078   */\n      dup7\n        /* \"#utility.yul\":3065:3087   */\n      add\n        /* \"#utility.yul\":3019:3097   */\n      tag_73\n      jump\t// in\n    tag_98:\n        /* \"#utility.yul\":3009:3097   */\n      swap3\n      pop\n        /* \"#utility.yul\":2805:3107   */\n      pop\n        /* \"#utility.yul\":3174:3176   */\n      0x20\n        /* \"#utility.yul\":3163:3172   */\n      dup4\n        /* \"#utility.yul\":3159:3177   */\n      add\n        /* \"#utility.yul\":3146:3178   */\n      calldataload\n        /* \"#utility.yul\":3205:3223   */\n      0xffffffffffffffff\n        /* \"#utility.yul\":3197:3203   */\n      dup2\n        /* \"#utility.yul\":3194:3224   */\n      gt\n        /* \"#utility.yul\":3191:3308   */\n      iszero\n      tag_99\n      jumpi\n        /* \"#utility.yul\":3227:3306   */\n      tag_100\n      tag_97\n      jump\t// in\n    tag_100:\n        /* \"#utility.yul\":3191:3308   */\n    tag_99:\n        /* \"#utility.yul\":3332:3395   */\n      tag_101\n        /* \"#utility.yul\":3387:3394   */\n      dup6\n        /* \"#utility.yul\":3378:3384   */\n      dup3\n        /* \"#utility.yul\":3367:3376   */\n      dup7\n        /* \"#utility.yul\":3363:3385   */\n      add\n        /* \"#utility.yul\":3332:3395   */\n      tag_79\n      jump\t// in\n    tag_101:\n        /* \"#utility.yul\":3322:3395   */\n      swap2\n      pop\n        /* \"#utility.yul\":3117:3405   */\n      pop\n        /* \"#utility.yul\":2548:3412   */\n      swap3\n      pop\n      swap3\n      swap1\n      pop\n      jump\t// out\n        /* \"#utility.yul\":3418:3762   */\n    tag_102:\n        /* \"#utility.yul\":3496:3499   */\n      0x00\n        /* \"#utility.yul\":3524:3563   */\n      tag_104\n        /* \"#utility.yul\":3557:3562   */\n      dup3\n        /* \"#utility.yul\":3524:3563   */\n      tag_105\n      jump\t// in\n    tag_104:\n        /* \"#utility.yul\":3579:3640   */\n      tag_106\n        /* \"#utility.yul\":3633:3639   */\n      dup2\n        /* \"#utility.yul\":3628:3631   */\n      dup6\n        /* \"#utility.yul\":3579:3640   */\n      tag_107\n      jump\t// in\n    tag_106:\n        /* \"#utility.yul\":3572:3640   */\n      swap4\n      pop\n        /* \"#utility.yul\":3649:3701   */\n      tag_108\n        /* \"#utility.yul\":3694:3700   */\n      dup2\n        /* \"#utility.yul\":3689:3692   */\n      dup6\n        /* \"#utility.yul\":3682:3686   */\n      0x20\n        /* \"#utility.yul\":3675:3680   */\n      dup7\n        /* \"#utility.yul\":3671:3687   */\n      add\n        /* \"#utility.yul\":3649:3701   */\n      tag_109\n      jump\t// in\n    tag_108:\n        /* \"#utility.yul\":3726:3755   */\n      tag_110\n        /* \"#utility.yul\":3748:3754   */\n      dup2\n        /* \"#utility.yul\":3726:3755   */\n      tag_111\n      jump\t// in\n    tag_110:\n        /* \"#utility.yul\":3721:3724   */\n      dup5\n        /* \"#utility.yul\":3717:3756   */\n      add\n        /* \"#utility.yul\":3710:3756   */\n      swap2\n      pop\n        /* \"#utility.yul\":3500:3762   */\n      pop\n        /* \"#utility.yul\":3418:3762   */\n      swap3\n      swap2\n      pop\n      pop\n      jump\t// out\n        /* \"#utility.yul\":3768:4132   */\n    tag_112:\n        /* \"#utility.yul\":3856:3859   */\n      0x00\n        /* \"#utility.yul\":3884:3923   */\n      tag_114\n        /* \"#utility.yul\":3917:3922   */\n      dup3\n        /* \"#utility.yul\":3884:3923   */\n      tag_105\n      jump\t// in\n    tag_114:\n        /* \"#utility.yul\":3939:4010   */\n      tag_115\n        /* \"#utility.yul\":4003:4009   */\n      dup2\n        /* \"#utility.yul\":3998:4001   */\n      dup6\n        /* \"#utility.yul\":3939:4010   */\n      tag_116\n      jump\t// in\n    tag_115:\n        /* \"#utility.yul\":3932:4010   */\n      swap4\n      pop\n        /* \"#utility.yul\":4019:4071   */\n      tag_117\n        /* \"#utility.yul\":4064:4070   */\n      dup2\n        /* \"#utility.yul\":4059:4062   */\n      dup6\n        /* \"#utility.yul\":4052:4056   */\n      0x20\n        /* \"#utility.yul\":4045:4050   */\n      dup7\n        /* \"#utility.yul\":4041:4057   */\n      add\n        /* \"#utility.yul\":4019:4071   */\n      tag_109\n      jump\t// in\n    tag_117:\n        /* \"#utility.yul\":4096:4125   */\n      tag_118\n        /* \"#utility.yul\":4118:4124   */\n      dup2\n        /* \"#utility.yul\":4096:4125   */\n      tag_111\n      jump\t// in\n    tag_118:\n        /* \"#utility.yul\":4091:4094   */\n      dup5\n        /* \"#utility.yul\":4087:4126   */\n      add\n        /* \"#utility.yul\":4080:4126   */\n      swap2\n      pop\n        /* \"#utility.yul\":3860:4132   */\n      pop\n        /* \"#utility.yul\":3768:4132   */\n      swap3\n      swap2\n      pop\n      pop\n      jump\t// out\n        /* \"#utility.yul\":4208:4809   */\n    tag_119:\n        /* \"#utility.yul\":4323:4326   */\n      0x00\n        /* \"#utility.yul\":4359:4363   */\n      0x40\n        /* \"#utility.yul\":4354:4357   */\n      dup4\n        /* \"#utility.yul\":4350:4364   */\n      add\n        /* \"#utility.yul\":4445:4449   */\n      0x00\n        /* \"#utility.yul\":4438:4443   */\n      dup4\n        /* \"#utility.yul\":4434:4450   */\n      add\n        /* \"#utility.yul\":4428:4451   */\n      mload\n        /* \"#utility.yul\":4464:4527   */\n      tag_121\n        /* \"#utility.yul\":4521:4525   */\n      0x00\n        /* \"#utility.yul\":4516:4519   */\n      dup7\n        /* \"#utility.yul\":4512:4526   */\n      add\n        /* \"#utility.yul\":4498:4510   */\n      dup3\n        /* \"#utility.yul\":4464:4527   */\n      tag_122\n      jump\t// in\n    tag_121:\n        /* \"#utility.yul\":4374:4537   */\n      pop\n        /* \"#utility.yul\":4619:4623   */\n      0x20\n        /* \"#utility.yul\":4612:4617   */\n      dup4\n        /* \"#utility.yul\":4608:4624   */\n      add\n        /* \"#utility.yul\":4602:4625   */\n      mload\n        /* \"#utility.yul\":4672:4675   */\n      dup5\n        /* \"#utility.yul\":4666:4670   */\n      dup3\n        /* \"#utility.yul\":4662:4676   */\n      sub\n        /* \"#utility.yul\":4655:4659   */\n      0x20\n        /* \"#utility.yul\":4650:4653   */\n      dup7\n        /* \"#utility.yul\":4646:4660   */\n      add\n        /* \"#utility.yul\":4639:4677   */\n      mstore\n        /* \"#utility.yul\":4698:4771   */\n      tag_123\n        /* \"#utility.yul\":4766:4770   */\n      dup3\n        /* \"#utility.yul\":4752:4764   */\n      dup3\n        /* \"#utility.yul\":4698:4771   */\n      tag_102\n      jump\t// in\n    tag_123:\n        /* \"#utility.yul\":4690:4771   */\n      swap2\n      pop\n        /* \"#utility.yul\":4547:4782   */\n      pop\n        /* \"#utility.yul\":4799:4803   */\n      dup1\n        /* \"#utility.yul\":4792:4803   */\n      swap2\n      pop\n        /* \"#utility.yul\":4328:4809   */\n      pop\n        /* \"#utility.yul\":4208:4809   */\n      swap3\n      swap2\n      pop\n      pop\n      jump\t// out\n        /* \"#utility.yul\":4815:4923   */\n    tag_122:\n        /* \"#utility.yul\":4892:4916   */\n      tag_125\n        /* \"#utility.yul\":4910:4915   */\n      dup2\n        /* \"#utility.yul\":4892:4916   */\n      tag_126\n      jump\t// in\n    tag_125:\n        /* \"#utility.yul\":4887:4890   */\n      dup3\n        /* \"#utility.yul\":4880:4917   */\n      mstore\n        /* \"#utility.yul\":4815:4923   */\n      pop\n      pop\n      jump\t// out\n        /* \"#utility.yul\":4929:5047   */\n    tag_127:\n        /* \"#utility.yul\":5016:5040   */\n      tag_129\n        /* \"#utility.yul\":5034:5039   */\n      dup2\n        /* \"#utility.yul\":5016:5040   */\n      tag_126\n      jump\t// in\n    tag_129:\n        /* \"#utility.yul\":5011:5014   */\n      dup3\n        /* \"#utility.yul\":5004:5041   */\n      mstore\n        /* \"#utility.yul\":4929:5047   */\n      pop\n      pop\n      jump\t// out\n        /* \"#utility.yul\":5053:5418   */\n    tag_16:\n        /* \"#utility.yul\":5192:5196   */\n      0x00\n        /* \"#utility.yul\":5230:5232   */\n      0x20\n        /* \"#utility.yul\":5219:5228   */\n      dup3\n        /* \"#utility.yul\":5215:5233   */\n      add\n        /* \"#utility.yul\":5207:5233   */\n      swap1\n      pop\n        /* \"#utility.yul\":5279:5288   */\n      dup2\n        /* \"#utility.yul\":5273:5277   */\n      dup2\n        /* \"#utility.yul\":5269:5289   */\n      sub\n        /* \"#utility.yul\":5265:5266   */\n      0x00\n        /* \"#utility.yul\":5254:5263   */\n      dup4\n        /* \"#utility.yul\":5250:5267   */\n      add\n        /* \"#utility.yul\":5243:5290   */\n      mstore\n        /* \"#utility.yul\":5307:5411   */\n      tag_131\n        /* \"#utility.yul\":5406:5410   */\n      dup2\n        /* \"#utility.yul\":5397:5403   */\n      dup5\n        /* \"#utility.yul\":5307:5411   */\n      tag_119\n      jump\t// in\n    tag_131:\n        /* \"#utility.yul\":5299:5411   */\n      swap1\n      pop\n        /* \"#utility.yul\":5053:5418   */\n      swap3\n      swap2\n      pop\n      pop\n      jump\t// out\n        /* \"#utility.yul\":5424:5847   */\n    tag_10:\n        /* \"#utility.yul\":5565:5569   */\n      0x00\n        /* \"#utility.yul\":5603:5605   */\n      0x40\n        /* \"#utility.yul\":5592:5601   */\n      dup3\n        /* \"#utility.yul\":5588:5606   */\n      add\n        /* \"#utility.yul\":5580:5606   */\n      swap1\n      pop\n        /* \"#utility.yul\":5616:5687   */\n      tag_133\n        /* \"#utility.yul\":5684:5685   */\n      0x00\n        /* \"#utility.yul\":5673:5682   */\n      dup4\n        /* \"#utility.yul\":5669:5686   */\n      add\n        /* \"#utility.yul\":5660:5666   */\n      dup6\n        /* \"#utility.yul\":5616:5687   */\n      tag_127\n      jump\t// in\n    tag_133:\n        /* \"#utility.yul\":5734:5743   */\n      dup2\n        /* \"#utility.yul\":5728:5732   */\n      dup2\n        /* \"#utility.yul\":5724:5744   */\n      sub\n        /* \"#utility.yul\":5719:5721   */\n      0x20\n        /* \"#utility.yul\":5708:5717   */\n      dup4\n        /* \"#utility.yul\":5704:5722   */\n      add\n        /* \"#utility.yul\":5697:5745   */\n      mstore\n        /* \"#utility.yul\":5762:5840   */\n      tag_134\n        /* \"#utility.yul\":5835:5839   */\n      dup2\n        /* \"#utility.yul\":5826:5832   */\n      dup5\n        /* \"#utility.yul\":5762:5840   */\n      tag_112\n      jump\t// in\n    tag_134:\n        /* \"#utility.yul\":5754:5840   */\n      swap1\n      pop\n        /* \"#utility.yul\":5424:5847   */\n      swap4\n      swap3\n      pop\n      pop\n      pop\n      jump\t// out\n        /* \"#utility.yul\":5853:5982   */\n    tag_50:\n        /* \"#utility.yul\":5887:5893   */\n      0x00\n        /* \"#utility.yul\":5914:5934   */\n      tag_136\n      tag_137\n      jump\t// in\n    tag_136:\n        /* \"#utility.yul\":5904:5934   */\n      swap1\n      pop\n        /* \"#utility.yul\":5943:5976   */\n      tag_138\n        /* \"#utility.yul\":5971:5975   */\n      dup3\n        /* \"#utility.yul\":5963:5969   */\n      dup3\n        /* \"#utility.yul\":5943:5976   */\n      tag_139\n      jump\t// in\n    tag_138:\n        /* \"#utility.yul\":5853:5982   */\n      swap2\n      swap1\n      pop\n      jump\t// out\n        /* \"#utility.yul\":5988:6063   */\n    tag_137:\n        /* \"#utility.yul\":6021:6027   */\n      0x00\n        /* \"#utility.yul\":6054:6056   */\n      0x40\n        /* \"#utility.yul\":6048:6057   */\n      mload\n        /* \"#utility.yul\":6038:6057   */\n      swap1\n      pop\n        /* \"#utility.yul\":5988:6063   */\n      swap1\n      jump\t// out\n        /* \"#utility.yul\":6069:6380   */\n    tag_49:\n        /* \"#utility.yul\":6146:6150   */\n      0x00\n        /* \"#utility.yul\":6236:6254   */\n      0xffffffffffffffff\n        /* \"#utility.yul\":6228:6234   */\n      dup3\n        /* \"#utility.yul\":6225:6255   */\n      gt\n        /* \"#utility.yul\":6222:6278   */\n      iszero\n      tag_142\n      jumpi\n        /* \"#utility.yul\":6258:6276   */\n      tag_143\n      tag_144\n      jump\t// in\n    tag_143:\n        /* \"#utility.yul\":6222:6278   */\n    tag_142:\n        /* \"#utility.yul\":6308:6312   */\n      0x20\n        /* \"#utility.yul\":6300:6306   */\n      dup3\n        /* \"#utility.yul\":6296:6313   */\n      mul\n        /* \"#utility.yul\":6288:6313   */\n      swap1\n      pop\n        /* \"#utility.yul\":6368:6372   */\n      0x20\n        /* \"#utility.yul\":6362:6366   */\n      dup2\n        /* \"#utility.yul\":6358:6373   */\n      add\n        /* \"#utility.yul\":6350:6373   */\n      swap1\n      pop\n        /* \"#utility.yul\":6069:6380   */\n      swap2\n      swap1\n      pop\n      jump\t// out\n        /* \"#utility.yul\":6386:6694   */\n    tag_63:\n        /* \"#utility.yul\":6448:6452   */\n      0x00\n        /* \"#utility.yul\":6538:6556   */\n      0xffffffffffffffff\n        /* \"#utility.yul\":6530:6536   */\n      dup3\n        /* \"#utility.yul\":6527:6557   */\n      gt\n        /* \"#utility.yul\":6524:6580   */\n      iszero\n      tag_146\n      jumpi\n        /* \"#utility.yul\":6560:6578   */\n      tag_147\n      tag_144\n      jump\t// in\n    tag_147:\n        /* \"#utility.yul\":6524:6580   */\n    tag_146:\n        /* \"#utility.yul\":6598:6627   */\n      tag_148\n        /* \"#utility.yul\":6620:6626   */\n      dup3\n        /* \"#utility.yul\":6598:6627   */\n      tag_111\n      jump\t// in\n    tag_148:\n        /* \"#utility.yul\":6590:6627   */\n      swap1\n      pop\n        /* \"#utility.yul\":6682:6686   */\n      0x20\n        /* \"#utility.yul\":6676:6680   */\n      dup2\n        /* \"#utility.yul\":6672:6687   */\n      add\n        /* \"#utility.yul\":6664:6687   */\n      swap1\n      pop\n        /* \"#utility.yul\":6386:6694   */\n      swap2\n      swap1\n      pop\n      jump\t// out\n        /* \"#utility.yul\":6700:6799   */\n    tag_105:\n        /* \"#utility.yul\":6752:6758   */\n      0x00\n        /* \"#utility.yul\":6786:6791   */\n      dup2\n        /* \"#utility.yul\":6780:6792   */\n      mload\n        /* \"#utility.yul\":6770:6792   */\n      swap1\n      pop\n        /* \"#utility.yul\":6700:6799   */\n      swap2\n      swap1\n      pop\n      jump\t// out\n        /* \"#utility.yul\":6805:6964   */\n    tag_107:\n        /* \"#utility.yul\":6879:6890   */\n      0x00\n        /* \"#utility.yul\":6913:6919   */\n      dup3\n        /* \"#utility.yul\":6908:6911   */\n      dup3\n        /* \"#utility.yul\":6901:6920   */\n      mstore\n        /* \"#utility.yul\":6953:6957   */\n      0x20\n        /* \"#utility.yul\":6948:6951   */\n      dup3\n        /* \"#utility.yul\":6944:6958   */\n      add\n        /* \"#utility.yul\":6929:6958   */\n      swap1\n      pop\n        /* \"#utility.yul\":6805:6964   */\n      swap3\n      swap2\n      pop\n      pop\n      jump\t// out\n        /* \"#utility.yul\":6970:7139   */\n    tag_116:\n        /* \"#utility.yul\":7054:7065   */\n      0x00\n        /* \"#utility.yul\":7088:7094   */\n      dup3\n        /* \"#utility.yul\":7083:7086   */\n      dup3\n        /* \"#utility.yul\":7076:7095   */\n      mstore\n        /* \"#utility.yul\":7128:7132   */\n      0x20\n        /* \"#utility.yul\":7123:7126   */\n      dup3\n        /* \"#utility.yul\":7119:7133   */\n      add\n        /* \"#utility.yul\":7104:7133   */\n      swap1\n      pop\n        /* \"#utility.yul\":6970:7139   */\n      swap3\n      swap2\n      pop\n      pop\n      jump\t// out\n        /* \"#utility.yul\":7145:7241   */\n    tag_152:\n        /* \"#utility.yul\":7182:7189   */\n      0x00\n        /* \"#utility.yul\":7211:7235   */\n      tag_154\n        /* \"#utility.yul\":7229:7234   */\n      dup3\n        /* \"#utility.yul\":7211:7235   */\n      tag_155\n      jump\t// in\n    tag_154:\n        /* \"#utility.yul\":7200:7235   */\n      swap1\n      pop\n        /* \"#utility.yul\":7145:7241   */\n      swap2\n      swap1\n      pop\n      jump\t// out\n        /* \"#utility.yul\":7247:7373   */\n    tag_155:\n        /* \"#utility.yul\":7284:7291   */\n      0x00\n        /* \"#utility.yul\":7324:7366   */\n      0xffffffffffffffffffffffffffffffffffffffff\n        /* \"#utility.yul\":7317:7322   */\n      dup3\n        /* \"#utility.yul\":7313:7367   */\n      and\n        /* \"#utility.yul\":7302:7367   */\n      swap1\n      pop\n        /* \"#utility.yul\":7247:7373   */\n      swap2\n      swap1\n      pop\n      jump\t// out\n        /* \"#utility.yul\":7379:7456   */\n    tag_126:\n        /* \"#utility.yul\":7416:7423   */\n      0x00\n        /* \"#utility.yul\":7445:7450   */\n      dup2\n        /* \"#utility.yul\":7434:7450   */\n      swap1\n      pop\n        /* \"#utility.yul\":7379:7456   */\n      swap2\n      swap1\n      pop\n      jump\t// out\n        /* \"#utility.yul\":7462:7616   */\n    tag_68:\n        /* \"#utility.yul\":7546:7552   */\n      dup3\n        /* \"#utility.yul\":7541:7544   */\n      dup2\n        /* \"#utility.yul\":7536:7539   */\n      dup4\n        /* \"#utility.yul\":7523:7553   */\n      calldatacopy\n        /* \"#utility.yul\":7608:7609   */\n      0x00\n        /* \"#utility.yul\":7599:7605   */\n      dup4\n        /* \"#utility.yul\":7594:7597   */\n      dup4\n        /* \"#utility.yul\":7590:7606   */\n      add\n        /* \"#utility.yul\":7583:7610   */\n      mstore\n        /* \"#utility.yul\":7462:7616   */\n      pop\n      pop\n      pop\n      jump\t// out\n        /* \"#utility.yul\":7622:7929   */\n    tag_109:\n        /* \"#utility.yul\":7690:7691   */\n      0x00\n        /* \"#utility.yul\":7700:7813   */\n    tag_160:\n        /* \"#utility.yul\":7714:7720   */\n      dup4\n        /* \"#utility.yul\":7711:7712   */\n      dup2\n        /* \"#utility.yul\":7708:7721   */\n      lt\n        /* \"#utility.yul\":7700:7813   */\n      iszero\n      tag_162\n      jumpi\n        /* \"#utility.yul\":7799:7800   */\n      dup1\n        /* \"#utility.yul\":7794:7797   */\n      dup3\n        /* \"#utility.yul\":7790:7801   */\n      add\n        /* \"#utility.yul\":7784:7802   */\n      mload\n        /* \"#utility.yul\":7780:7781   */\n      dup2\n        /* \"#utility.yul\":7775:7778   */\n      dup5\n        /* \"#utility.yul\":7771:7782   */\n      add\n        /* \"#utility.yul\":7764:7803   */\n      mstore\n        /* \"#utility.yul\":7736:7738   */\n      0x20\n        /* \"#utility.yul\":7733:7734   */\n      dup2\n        /* \"#utility.yul\":7729:7739   */\n      add\n        /* \"#utility.yul\":7724:7739   */\n      swap1\n      pop\n        /* \"#utility.yul\":7700:7813   */\n      jump(tag_160)\n    tag_162:\n        /* \"#utility.yul\":7831:7837   */\n      dup4\n        /* \"#utility.yul\":7828:7829   */\n      dup2\n        /* \"#utility.yul\":7825:7838   */\n      gt\n        /* \"#utility.yul\":7822:7923   */\n      iszero\n      tag_163\n      jumpi\n        /* \"#utility.yul\":7911:7912   */\n      0x00\n        /* \"#utility.yul\":7902:7908   */\n      dup5\n        /* \"#utility.yul\":7897:7900   */\n      dup5\n        /* \"#utility.yul\":7893:7909   */\n      add\n        /* \"#utility.yul\":7886:7913   */\n      mstore\n        /* \"#utility.yul\":7822:7923   */\n    tag_163:\n        /* \"#utility.yul\":7671:7929   */\n      pop\n        /* \"#utility.yul\":7622:7929   */\n      pop\n      pop\n      pop\n      jump\t// out\n        /* \"#utility.yul\":7935:8255   */\n    tag_18:\n        /* \"#utility.yul\":7979:7985   */\n      0x00\n        /* \"#utility.yul\":8016:8017   */\n      0x02\n        /* \"#utility.yul\":8010:8014   */\n      dup3\n        /* \"#utility.yul\":8006:8018   */\n      div\n        /* \"#utility.yul\":7996:8018   */\n      swap1\n      pop\n        /* \"#utility.yul\":8063:8064   */\n      0x01\n        /* \"#utility.yul\":8057:8061   */\n      dup3\n        /* \"#utility.yul\":8053:8065   */\n      and\n        /* \"#utility.yul\":8084:8102   */\n      dup1\n        /* \"#utility.yul\":8074:8155   */\n      tag_165\n      jumpi\n        /* \"#utility.yul\":8140:8144   */\n      0x7f\n        /* \"#utility.yul\":8132:8138   */\n      dup3\n        /* \"#utility.yul\":8128:8145   */\n      and\n        /* \"#utility.yul\":8118:8145   */\n      swap2\n      pop\n        /* \"#utility.yul\":8074:8155   */\n    tag_165:\n        /* \"#utility.yul\":8202:8204   */\n      0x20\n        /* \"#utility.yul\":8194:8200   */\n      dup3\n        /* \"#utility.yul\":8191:8205   */\n      lt\n        /* \"#utility.yul\":8171:8189   */\n      dup2\n        /* \"#utility.yul\":8168:8206   */\n      eq\n        /* \"#utility.yul\":8165:8249   */\n      iszero\n      tag_166\n      jumpi\n        /* \"#utility.yul\":8221:8239   */\n      tag_167\n      tag_168\n      jump\t// in\n    tag_167:\n        /* \"#utility.yul\":8165:8249   */\n    tag_166:\n        /* \"#utility.yul\":7986:8255   */\n      pop\n        /* \"#utility.yul\":7935:8255   */\n      swap2\n      swap1\n      pop\n      jump\t// out\n        /* \"#utility.yul\":8261:8542   */\n    tag_139:\n        /* \"#utility.yul\":8344:8371   */\n      tag_170\n        /* \"#utility.yul\":8366:8370   */\n      dup3\n        /* \"#utility.yul\":8344:8371   */\n      tag_111\n      jump\t// in\n    tag_170:\n        /* \"#utility.yul\":8336:8342   */\n      dup2\n        /* \"#utility.yul\":8332:8372   */\n      add\n        /* \"#utility.yul\":8474:8480   */\n      dup2\n        /* \"#utility.yul\":8462:8472   */\n      dup2\n        /* \"#utility.yul\":8459:8481   */\n      lt\n        /* \"#utility.yul\":8438:8456   */\n      0xffffffffffffffff\n        /* \"#utility.yul\":8426:8436   */\n      dup3\n        /* \"#utility.yul\":8423:8457   */\n      gt\n        /* \"#utility.yul\":8420:8482   */\n      or\n        /* \"#utility.yul\":8417:8505   */\n      iszero\n      tag_171\n      jumpi\n        /* \"#utility.yul\":8485:8503   */\n      tag_172\n      tag_144\n      jump\t// in\n    tag_172:\n        /* \"#utility.yul\":8417:8505   */\n    tag_171:\n        /* \"#utility.yul\":8525:8535   */\n      dup1\n        /* \"#utility.yul\":8521:8523   */\n      0x40\n        /* \"#utility.yul\":8514:8536   */\n      mstore\n        /* \"#utility.yul\":8304:8542   */\n      pop\n        /* \"#utility.yul\":8261:8542   */\n      pop\n      pop\n      jump\t// out\n        /* \"#utility.yul\":8548:8728   */\n    tag_168:\n        /* \"#utility.yul\":8596:8673   */\n      0x4e487b7100000000000000000000000000000000000000000000000000000000\n        /* \"#utility.yul\":8593:8594   */\n      0x00\n        /* \"#utility.yul\":8586:8674   */\n      mstore\n        /* \"#utility.yul\":8693:8697   */\n      0x22\n        /* \"#utility.yul\":8690:8691   */\n      0x04\n        /* \"#utility.yul\":8683:8698   */\n      mstore\n        /* \"#utility.yul\":8717:8721   */\n      0x24\n        /* \"#utility.yul\":8714:8715   */\n      0x00\n        /* \"#utility.yul\":8707:8722   */\n      revert\n        /* \"#utility.yul\":8734:8914   */\n    tag_144:\n        /* \"#utility.yul\":8782:8859   */\n      0x4e487b7100000000000000000000000000000000000000000000000000000000\n        /* \"#utility.yul\":8779:8780   */\n      0x00\n        /* \"#utility.yul\":8772:8860   */\n      mstore\n        /* \"#utility.yul\":8879:8883   */\n      0x41\n        /* \"#utility.yul\":8876:8877   */\n      0x04\n        /* \"#utility.yul\":8869:8884   */\n      mstore\n        /* \"#utility.yul\":8903:8907   */\n      0x24\n        /* \"#utility.yul\":8900:8901   */\n      0x00\n        /* \"#utility.yul\":8893:8908   */\n      revert\n        /* \"#utility.yul\":8920:9037   */\n    tag_77:\n        /* \"#utility.yul\":9029:9030   */\n      0x00\n        /* \"#utility.yul\":9026:9027   */\n      dup1\n        /* \"#utility.yul\":9019:9031   */\n      revert\n        /* \"#utility.yul\":9043:9160   */\n    tag_53:\n        /* \"#utility.yul\":9152:9153   */\n      0x00\n        /* \"#utility.yul\":9149:9150   */\n      dup1\n        /* \"#utility.yul\":9142:9154   */\n      revert\n        /* \"#utility.yul\":9166:9283   */\n    tag_66:\n        /* \"#utility.yul\":9275:9276   */\n      0x00\n        /* \"#utility.yul\":9272:9273   */\n      dup1\n        /* \"#utility.yul\":9265:9277   */\n      revert\n        /* \"#utility.yul\":9289:9406   */\n    tag_97:\n        /* \"#utility.yul\":9398:9399   */\n      0x00\n        /* \"#utility.yul\":9395:9396   */\n      dup1\n        /* \"#utility.yul\":9388:9400   */\n      revert\n        /* \"#utility.yul\":9412:9529   */\n    tag_90:\n        /* \"#utility.yul\":9521:9522   */\n      0x00\n        /* \"#utility.yul\":9518:9519   */\n      dup1\n        /* \"#utility.yul\":9511:9523   */\n      revert\n        /* \"#utility.yul\":9535:9637   */\n    tag_111:\n        /* \"#utility.yul\":9576:9582   */\n      0x00\n        /* \"#utility.yul\":9627:9629   */\n      0x1f\n        /* \"#utility.yul\":9623:9630   */\n      not\n        /* \"#utility.yul\":9618:9620   */\n      0x1f\n        /* \"#utility.yul\":9611:9616   */\n      dup4\n        /* \"#utility.yul\":9607:9621   */\n      add\n        /* \"#utility.yul\":9603:9631   */\n      and\n        /* \"#utility.yul\":9593:9631   */\n      swap1\n      pop\n        /* \"#utility.yul\":9535:9637   */\n      swap2\n      swap1\n      pop\n      jump\t// out\n        /* \"#utility.yul\":9643:9765   */\n    tag_72:\n        /* \"#utility.yul\":9716:9740   */\n      tag_182\n        /* \"#utility.yul\":9734:9739   */\n      dup2\n        /* \"#utility.yul\":9716:9740   */\n      tag_152\n      jump\t// in\n    tag_182:\n        /* \"#utility.yul\":9709:9714   */\n      dup2\n        /* \"#utility.yul\":9706:9741   */\n      eq\n        /* \"#utility.yul\":9696:9759   */\n      tag_183\n      jumpi\n        /* \"#utility.yul\":9755:9756   */\n      0x00\n        /* \"#utility.yul\":9752:9753   */\n      dup1\n        /* \"#utility.yul\":9745:9757   */\n      revert\n        /* \"#utility.yul\":9696:9759   */\n    tag_183:\n        /* \"#utility.yul\":9643:9765   */\n      pop\n      jump\t// out\n        /* \"#utility.yul\":9771:9893   */\n    tag_86:\n        /* \"#utility.yul\":9844:9868   */\n      tag_185\n        /* \"#utility.yul\":9862:9867   */\n      dup2\n        /* \"#utility.yul\":9844:9868   */\n      tag_126\n      jump\t// in\n    tag_185:\n        /* \"#utility.yul\":9837:9842   */\n      dup2\n        /* \"#utility.yul\":9834:9869   */\n      eq\n        /* \"#utility.yul\":9824:9887   */\n      tag_186\n      jumpi\n        /* \"#utility.yul\":9883:9884   */\n      0x00\n        /* \"#utility.yul\":9880:9881   */\n      dup1\n        /* \"#utility.yul\":9873:9885   */\n      revert\n        /* \"#utility.yul\":9824:9887   */\n    tag_186:\n        /* \"#utility.yul\":9771:9893   */\n      pop\n      jump\t// out\n\n    auxdata: 0xa26469706673582212201a5f38b88934e2f64496dc496b5ffea6dfedc075b430f682df172cf26e6a73ca64736f6c63430008070033\n}\n",
				"bytecode": {
					"linkReferences": {},
					"object": "608060405234801561001057600080fd5b506109c8806100206000396000f3fe608060405234801561001057600080fd5b50600436106100365760003560e01c8063b43c5d331461003b578063fc277a951461006c575b600080fd5b61005560048036038101906100509190610588565b61009c565b60405161006392919061071c565b60405180910390f35b610086600480360381019061008191906105b5565b610148565b60405161009391906106fa565b60405180910390f35b60006020528060005260406000206000915090508060000154908060010180546100c590610879565b80601f01602080910402602001604051908101604052809291908181526020018280546100f190610879565b801561013e5780601f106101135761010080835404028352916020019161013e565b820191906000526020600020905b81548152906001019060200180831161012157829003601f168201915b5050505050905082565b610150610393565b6040518060400160405280607b81526020016040518060400160405280600381526020017f62617200000000000000000000000000000000000000000000000000000000008152508152506000803373ffffffffffffffffffffffffffffffffffffffff1673ffffffffffffffffffffffffffffffffffffffff1681526020019081526020016000206000820151816000015560208201518160010190805190602001906101ff9291906103ad565b5090505060008060003373ffffffffffffffffffffffffffffffffffffffff1673ffffffffffffffffffffffffffffffffffffffff16815260200190815260200160002090506040518060400160405280600381526020017f666f6f00000000000000000000000000000000000000000000000000000000008152508160010190805190602001906102929291906103ad565b5060008060003373ffffffffffffffffffffffffffffffffffffffff1673ffffffffffffffffffffffffffffffffffffffff168152602001908152602001600020604051806040016040529081600082015481526020016001820180546102f890610879565b80601f016020809104026020016040519081016040528092919081815260200182805461032490610879565b80156103715780601f1061034657610100808354040283529160200191610371565b820191906000526020600020905b81548152906001019060200180831161035457829003601f168201915b50505050508152505090506101c8816000018181525050809250505092915050565b604051806040016040528060008152602001606081525090565b8280546103b990610879565b90600052602060002090601f0160209004810192826103db5760008555610422565b82601f106103f457805160ff1916838001178555610422565b82800160010185558215610422579182015b82811115610421578251825591602001919060010190610406565b5b50905061042f9190610433565b5090565b5b8082111561044c576000816000905550600101610434565b5090565b600061046361045e84610771565b61074c565b905080838252602082019050828560208602820111156104865761048561093f565b5b60005b858110156104b6578161049c8882610573565b845260208401935060208301925050600181019050610489565b5050509392505050565b60006104d36104ce8461079d565b61074c565b9050828152602081018484840111156104ef576104ee610944565b5b6104fa848285610837565b509392505050565b60008135905061051181610964565b92915050565b600082601f83011261052c5761052b61093a565b5b813561053c848260208601610450565b91505092915050565b600082601f83011261055a5761055961093a565b5b813561056a8482602086016104c0565b91505092915050565b6000813590506105828161097b565b92915050565b60006020828403121561059e5761059d61094e565b5b60006105ac84828501610502565b91505092915050565b600080604083850312156105cc576105cb61094e565b5b600083013567ffffffffffffffff8111156105ea576105e9610949565b5b6105f685828601610517565b925050602083013567ffffffffffffffff81111561061757610616610949565b5b61062385828601610545565b9150509250929050565b6000610638826107ce565b61064281856107d9565b9350610652818560208601610846565b61065b81610953565b840191505092915050565b6000610671826107ce565b61067b81856107ea565b935061068b818560208601610846565b61069481610953565b840191505092915050565b60006040830160008301516106b760008601826106dc565b50602083015184820360208601526106cf828261062d565b9150508091505092915050565b6106e58161082d565b82525050565b6106f48161082d565b82525050565b60006020820190508181036000830152610714818461069f565b905092915050565b600060408201905061073160008301856106eb565b81810360208301526107438184610666565b90509392505050565b6000610756610767565b905061076282826108ab565b919050565b6000604051905090565b600067ffffffffffffffff82111561078c5761078b61090b565b5b602082029050602081019050919050565b600067ffffffffffffffff8211156107b8576107b761090b565b5b6107c182610953565b9050602081019050919050565b600081519050919050565b600082825260208201905092915050565b600082825260208201905092915050565b60006108068261080d565b9050919050565b600073ffffffffffffffffffffffffffffffffffffffff82169050919050565b6000819050919050565b82818337600083830152505050565b60005b83811015610864578082015181840152602081019050610849565b83811115610873576000848401525b50505050565b6000600282049050600182168061089157607f821691505b602082108114156108a5576108a46108dc565b5b50919050565b6108b482610953565b810181811067ffffffffffffffff821117156108d3576108d261090b565b5b80604052505050565b7f4e487b7100000000000000000000000000000000000000000000000000000000600052602260045260246000fd5b7f4e487b7100000000000000000000000000000000000000000000000000000000600052604160045260246000fd5b600080fd5b600080fd5b600080fd5b600080fd5b600080fd5b6000601f19601f8301169050919050565b61096d816107fb565b811461097857600080fd5b50565b6109848161082d565b811461098f57600080fd5b5056fea26469706673582212201a5f38b88934e2f64496dc496b5ffea6dfedc075b430f682df172cf26e6a73ca64736f6c63430008070033",
					"opcodes": "PUSH1 0x80 PUSH1 0x40 MSTORE CALLVALUE DUP1 ISZERO PUSH2 0x10 JUMPI PUSH1 0x0 DUP1 REVERT JUMPDEST POP PUSH2 0x9C8 DUP1 PUSH2 0x20 PUSH1 0x0 CODECOPY PUSH1 0x0 RETURN INVALID PUSH1 0x80 PUSH1 0x40 MSTORE CALLVALUE DUP1 ISZERO PUSH2 0x10 JUMPI PUSH1 0x0 DUP1 REVERT JUMPDEST POP PUSH1 0x4 CALLDATASIZE LT PUSH2 0x36 JUMPI PUSH1 0x0 CALLDATALOAD PUSH1 0xE0 SHR DUP1 PUSH4 0xB43C5D33 EQ PUSH2 0x3B JUMPI DUP1 PUSH4 0xFC277A95 EQ PUSH2 0x6C JUMPI JUMPDEST PUSH1 0x0 DUP1 REVERT JUMPDEST PUSH2 0x55 PUSH1 0x4 DUP1 CALLDATASIZE SUB DUP2 ADD SWAP1 PUSH2 0x50 SWAP2 SWAP1 PUSH2 0x588 JUMP JUMPDEST PUSH2 0x9C JUMP JUMPDEST PUSH1 0x40 MLOAD PUSH2 0x63 SWAP3 SWAP2 SWAP1 PUSH2 0x71C JUMP JUMPDEST PUSH1 0x40 MLOAD DUP1 SWAP2 SUB SWAP1 RETURN JUMPDEST PUSH2 0x86 PUSH1 0x4 DUP1 CALLDATASIZE SUB DUP2 ADD SWAP1 PUSH2 0x81 SWAP2 SWAP1 PUSH2 0x5B5 JUMP JUMPDEST PUSH2 0x148 JUMP JUMPDEST PUSH1 0x40 MLOAD PUSH2 0x93 SWAP2 SWAP1 PUSH2 0x6FA JUMP JUMPDEST PUSH1 0x40 MLOAD DUP1 SWAP2 SUB SWAP1 RETURN JUMPDEST PUSH1 0x0 PUSH1 0x20 MSTORE DUP1 PUSH1 0x0 MSTORE PUSH1 0x40 PUSH1 0x0 KECCAK256 PUSH1 0x0 SWAP2 POP SWAP1 POP DUP1 PUSH1 0x0 ADD SLOAD SWAP1 DUP1 PUSH1 0x1 ADD DUP1 SLOAD PUSH2 0xC5 SWAP1 PUSH2 0x879 JUMP JUMPDEST DUP1 PUSH1 0x1F ADD PUSH1 0x20 DUP1 SWAP2 DIV MUL PUSH1 0x20 ADD PUSH1 0x40 MLOAD SWAP1 DUP2 ADD PUSH1 0x40 MSTORE DUP1 SWAP3 SWAP2 SWAP1 DUP2 DUP2 MSTORE PUSH1 0x20 ADD DUP3 DUP1 SLOAD PUSH2 0xF1 SWAP1 PUSH2 0x879 JUMP JUMPDEST DUP1 ISZERO PUSH2 0x13E JUMPI DUP1 PUSH1 0x1F LT PUSH2 0x113 JUMPI PUSH2 0x100 DUP1 DUP4 SLOAD DIV MUL DUP4 MSTORE SWAP2 PUSH1 0x20 ADD SWAP2 PUSH2 0x13E JUMP JUMPDEST DUP3 ADD SWAP2 SWAP1 PUSH1 0x0 MSTORE PUSH1 0x20 PUSH1 0x0 KECCAK256 SWAP1 JUMPDEST DUP2 SLOAD DUP2 MSTORE SWAP1 PUSH1 0x1 ADD SWAP1 PUSH1 0x20 ADD DUP1 DUP4 GT PUSH2 0x121 JUMPI DUP3 SWAP1 SUB PUSH1 0x1F AND DUP3 ADD SWAP2 JUMPDEST POP POP POP POP POP SWAP1 POP DUP3 JUMP JUMPDEST PUSH2 0x150 PUSH2 0x393 JUMP JUMPDEST PUSH1 0x40 MLOAD DUP1 PUSH1 0x40 ADD PUSH1 0x40 MSTORE DUP1 PUSH1 0x7B DUP2 MSTORE PUSH1 0x20 ADD PUSH1 0x40 MLOAD DUP1 PUSH1 0x40 ADD PUSH1 0x40 MSTORE DUP1 PUSH1 0x3 DUP2 MSTORE PUSH1 0x20 ADD PUSH32 0x6261720000000000000000000000000000000000000000000000000000000000 DUP2 MSTORE POP DUP2 MSTORE POP PUSH1 0x0 DUP1 CALLER PUSH20 0xFFFFFFFFFFFFFFFFFFFFFFFFFFFFFFFFFFFFFFFF AND PUSH20 0xFFFFFFFFFFFFFFFFFFFFFFFFFFFFFFFFFFFFFFFF AND DUP2 MSTORE PUSH1 0x20 ADD SWAP1 DUP2 MSTORE PUSH1 0x20 ADD PUSH1 0x0 KECCAK256 PUSH1 0x0 DUP3 ADD MLOAD DUP2 PUSH1 0x0 ADD SSTORE PUSH1 0x20 DUP3 ADD MLOAD DUP2 PUSH1 0x1 ADD SWAP1 DUP1 MLOAD SWAP1 PUSH1 0x20 ADD SWAP1 PUSH2 0x1FF SWAP3 SWAP2 SWAP1 PUSH2 0x3AD JUMP JUMPDEST POP SWAP1 POP POP PUSH1 0x0 DUP1 PUSH1 0x0 CALLER PUSH20 0xFFFFFFFFFFFFFFFFFFFFFFFFFFFFFFFFFFFFFFFF AND PUSH20 0xFFFFFFFFFFFFFFFFFFFFFFFFFFFFFFFFFFFFFFFF AND DUP2 MSTORE PUSH1 0x20 ADD SWAP1 DUP2 MSTORE PUSH1 0x20 ADD PUSH1 0x0 KECCAK256 SWAP1 POP PUSH1 0x40 MLOAD DUP1 PUSH1 0x40 ADD PUSH1 0x40 MSTORE DUP1 PUSH1 0x3 DUP2 MSTORE PUSH1 0x20 ADD PUSH32 0x666F6F0000000000000000000000000000000000000000000000000000000000 DUP2 MSTORE POP DUP2 PUSH1 0x1 ADD SWAP1 DUP1 MLOAD SWAP1 PUSH1 0x20 ADD SWAP1 PUSH2 0x292 SWAP3 SWAP2 SWAP1 PUSH2 0x3AD JUMP JUMPDEST POP PUSH1 0x0 DUP1 PUSH1 0x0 CALLER PUSH20 0xFFFFFFFFFFFFFFFFFFFFFFFFFFFFFFFFFFFFFFFF AND PUSH20 0xFFFFFFFFFFFFFFFFFFFFFFFFFFFFFFFFFFFFFFFF AND DUP2 MSTORE PUSH1 0x20 ADD SWAP1 DUP2 MSTORE PUSH1 0x20 ADD PUSH1 0x0 KECCAK256 PUSH1 0x40 MLOAD DUP1 PUSH1 0x40 ADD PUSH1 0x40 MSTORE SWAP1 DUP2 PUSH1 0x0 DUP3 ADD SLOAD DUP2 MSTORE PUSH1 0x20 ADD PUSH1 0x1 DUP3 ADD DUP1 SLOAD PUSH2 0x2F8 SWAP1 PUSH2 0x879 JUMP JUMPDEST DUP1 PUSH1 0x1F ADD PUSH1 0x20 DUP1 SWAP2 DIV MUL PUSH1 0x20 ADD PUSH1 0x40 MLOAD SWAP1 DUP2 ADD PUSH1 0x40 MSTORE DUP1 SWAP3 SWAP2 SWAP1 DUP2 DUP2 MSTORE PUSH1 0x20 ADD DUP3 DUP1 SLOAD PUSH2 0x324 SWAP1 PUSH2 0x879 JUMP JUMPDEST DUP1 ISZERO PUSH2 0x371 JUMPI DUP1 PUSH1 0x1F LT PUSH2 0x346 JUMPI PUSH2 0x100 DUP1 DUP4 SLOAD DIV MUL DUP4 MSTORE SWAP2 PUSH1 0x20 ADD SWAP2 PUSH2 0x371 JUMP JUMPDEST DUP3 ADD SWAP2 SWAP1 PUSH1 0x0 MSTORE PUSH1 0x20 PUSH1 0x0 KECCAK256 SWAP1 JUMPDEST DUP2 SLOAD DUP2 MSTORE SWAP1 PUSH1 0x1 ADD SWAP1 PUSH1 0x20 ADD DUP1 DUP4 GT PUSH2 0x354 JUMPI DUP3 SWAP1 SUB PUSH1 0x1F AND DUP3 ADD SWAP2 JUMPDEST POP POP POP POP POP DUP2 MSTORE POP POP SWAP1 POP PUSH2 0x1C8 DUP2 PUSH1 0x0 ADD DUP2 DUP2 MSTORE POP POP DUP1 SWAP3 POP POP POP SWAP3 SWAP2 POP POP JUMP JUMPDEST PUSH1 0x40 MLOAD DUP1 PUSH1 0x40 ADD PUSH1 0x40 MSTORE DUP1 PUSH1 0x0 DUP2 MSTORE PUSH1 0x20 ADD PUSH1 0x60 DUP2 MSTORE POP SWAP1 JUMP JUMPDEST DUP3 DUP1 SLOAD PUSH2 0x3B9 SWAP1 PUSH2 0x879 JUMP JUMPDEST SWAP1 PUSH1 0x0 MSTORE PUSH1 0x20 PUSH1 0x0 KECCAK256 SWAP1 PUSH1 0x1F ADD PUSH1 0x20 SWAP1 DIV DUP2 ADD SWAP3 DUP3 PUSH2 0x3DB JUMPI PUSH1 0x0 DUP6 SSTORE PUSH2 0x422 JUMP JUMPDEST DUP3 PUSH1 0x1F LT PUSH2 0x3F4 JUMPI DUP1 MLOAD PUSH1 0xFF NOT AND DUP4 DUP1 ADD OR DUP6 SSTORE PUSH2 0x422 JUMP JUMPDEST DUP3 DUP1 ADD PUSH1 0x1 ADD DUP6 SSTORE DUP3 ISZERO PUSH2 0x422 JUMPI SWAP2 DUP3 ADD JUMPDEST DUP3 DUP2 GT ISZERO PUSH2 0x421 JUMPI DUP3 MLOAD DUP3 SSTORE SWAP2 PUSH1 0x20 ADD SWAP2 SWAP1 PUSH1 0x1 ADD SWAP1 PUSH2 0x406 JUMP JUMPDEST JUMPDEST POP SWAP1 POP PUSH2 0x42F SWAP2 SWAP1 PUSH2 0x433 JUMP JUMPDEST POP SWAP1 JUMP JUMPDEST JUMPDEST DUP1 DUP3 GT ISZERO PUSH2 0x44C JUMPI PUSH1 0x0 DUP2 PUSH1 0x0 SWAP1 SSTORE POP PUSH1 0x1 ADD PUSH2 0x434 JUMP JUMPDEST POP SWAP1 JUMP JUMPDEST PUSH1 0x0 PUSH2 0x463 PUSH2 0x45E DUP5 PUSH2 0x771 JUMP JUMPDEST PUSH2 0x74C JUMP JUMPDEST SWAP1 POP DUP1 DUP4 DUP3 MSTORE PUSH1 0x20 DUP3 ADD SWAP1 POP DUP3 DUP6 PUSH1 0x20 DUP7 MUL DUP3 ADD GT ISZERO PUSH2 0x486 JUMPI PUSH2 0x485 PUSH2 0x93F JUMP JUMPDEST JUMPDEST PUSH1 0x0 JUMPDEST DUP6 DUP2 LT ISZERO PUSH2 0x4B6 JUMPI DUP2 PUSH2 0x49C DUP9 DUP3 PUSH2 0x573 JUMP JUMPDEST DUP5 MSTORE PUSH1 0x20 DUP5 ADD SWAP4 POP PUSH1 0x20 DUP4 ADD SWAP3 POP POP PUSH1 0x1 DUP2 ADD SWAP1 POP PUSH2 0x489 JUMP JUMPDEST POP POP POP SWAP4 SWAP3 POP POP POP JUMP JUMPDEST PUSH1 0x0 PUSH2 0x4D3 PUSH2 0x4CE DUP5 PUSH2 0x79D JUMP JUMPDEST PUSH2 0x74C JUMP JUMPDEST SWAP1 POP DUP3 DUP2 MSTORE PUSH1 0x20 DUP2 ADD DUP5 DUP5 DUP5 ADD GT ISZERO PUSH2 0x4EF JUMPI PUSH2 0x4EE PUSH2 0x944 JUMP JUMPDEST JUMPDEST PUSH2 0x4FA DUP5 DUP3 DUP6 PUSH2 0x837 JUMP JUMPDEST POP SWAP4 SWAP3 POP POP POP JUMP JUMPDEST PUSH1 0x0 DUP2 CALLDATALOAD SWAP1 POP PUSH2 0x511 DUP2 PUSH2 0x964 JUMP JUMPDEST SWAP3 SWAP2 POP POP JUMP JUMPDEST PUSH1 0x0 DUP3 PUSH1 0x1F DUP4 ADD SLT PUSH2 0x52C JUMPI PUSH2 0x52B PUSH2 0x93A JUMP JUMPDEST JUMPDEST DUP2 CALLDATALOAD PUSH2 0x53C DUP5 DUP3 PUSH1 0x20 DUP7 ADD PUSH2 0x450 JUMP JUMPDEST SWAP2 POP POP SWAP3 SWAP2 POP POP JUMP JUMPDEST PUSH1 0x0 DUP3 PUSH1 0x1F DUP4 ADD SLT PUSH2 0x55A JUMPI PUSH2 0x559 PUSH2 0x93A JUMP JUMPDEST JUMPDEST DUP2 CALLDATALOAD PUSH2 0x56A DUP5 DUP3 PUSH1 0x20 DUP7 ADD PUSH2 0x4C0 JUMP JUMPDEST SWAP2 POP POP SWAP3 SWAP2 POP POP JUMP JUMPDEST PUSH1 0x0 DUP2 CALLDATALOAD SWAP1 POP PUSH2 0x582 DUP2 PUSH2 0x97B JUMP JUMPDEST SWAP3 SWAP2 POP POP JUMP JUMPDEST PUSH1 0x0 PUSH1 0x20 DUP3 DUP5 SUB SLT ISZERO PUSH2 0x59E JUMPI PUSH2 0x59D PUSH2 0x94E JUMP JUMPDEST JUMPDEST PUSH1 0x0 PUSH2 0x5AC DUP5 DUP3 DUP6 ADD PUSH2 0x502 JUMP JUMPDEST SWAP2 POP POP SWAP3 SWAP2 POP POP JUMP JUMPDEST PUSH1 0x0 DUP1 PUSH1 0x40 DUP4 DUP6 SUB SLT ISZERO PUSH2 0x5CC JUMPI PUSH2 0x5CB PUSH2 0x94E JUMP JUMPDEST JUMPDEST PUSH1 0x0 DUP4 ADD CALLDATALOAD PUSH8 0xFFFFFFFFFFFFFFFF DUP2 GT ISZERO PUSH2 0x5EA JUMPI PUSH2 0x5E9 PUSH2 0x949 JUMP JUMPDEST JUMPDEST PUSH2 0x5F6 DUP6 DUP3 DUP7 ADD PUSH2 0x517 JUMP JUMPDEST SWAP3 POP POP PUSH1 0x20 DUP4 ADD CALLDATALOAD PUSH8 0xFFFFFFFFFFFFFFFF DUP2 GT ISZERO PUSH2 0x617 JUMPI PUSH2 0x616 PUSH2 0x949 JUMP JUMPDEST JUMPDEST PUSH2 0x623 DUP6 DUP3 DUP7 ADD PUSH2 0x545 JUMP JUMPDEST SWAP2 POP POP SWAP3 POP SWAP3 SWAP1 POP JUMP JUMPDEST PUSH1 0x0 PUSH2 0x638 DUP3 PUSH2 0x7CE JUMP JUMPDEST PUSH2 0x642 DUP2 DUP6 PUSH2 0x7D9 JUMP JUMPDEST SWAP4 POP PUSH2 0x652 DUP2 DUP6 PUSH1 0x20 DUP7 ADD PUSH2 0x846 JUMP JUMPDEST PUSH2 0x65B DUP2 PUSH2 0x953 JUMP JUMPDEST DUP5 ADD SWAP2 POP POP SWAP3 SWAP2 POP POP JUMP JUMPDEST PUSH1 0x0 PUSH2 0x671 DUP3 PUSH2 0x7CE JUMP JUMPDEST PUSH2 0x67B DUP2 DUP6 PUSH2 0x7EA JUMP JUMPDEST SWAP4 POP PUSH2 0x68B DUP2 DUP6 PUSH1 0x20 DUP7 ADD PUSH2 0x846 JUMP JUMPDEST PUSH2 0x694 DUP2 PUSH2 0x953 JUMP JUMPDEST DUP5 ADD SWAP2 POP POP SWAP3 SWAP2 POP POP JUMP JUMPDEST PUSH1 0x0 PUSH1 0x40 DUP4 ADD PUSH1 0x0 DUP4 ADD MLOAD PUSH2 0x6B7 PUSH1 0x0 DUP7 ADD DUP3 PUSH2 0x6DC JUMP JUMPDEST POP PUSH1 0x20 DUP4 ADD MLOAD DUP5 DUP3 SUB PUSH1 0x20 DUP7 ADD MSTORE PUSH2 0x6CF DUP3 DUP3 PUSH2 0x62D JUMP JUMPDEST SWAP2 POP POP DUP1 SWAP2 POP POP SWAP3 SWAP2 POP POP JUMP JUMPDEST PUSH2 0x6E5 DUP2 PUSH2 0x82D JUMP JUMPDEST DUP3 MSTORE POP POP JUMP JUMPDEST PUSH2 0x6F4 DUP2 PUSH2 0x82D JUMP JUMPDEST DUP3 MSTORE POP POP JUMP JUMPDEST PUSH1 0x0 PUSH1 0x20 DUP3 ADD SWAP1 POP DUP2 DUP2 SUB PUSH1 0x0 DUP4 ADD MSTORE PUSH2 0x714 DUP2 DUP5 PUSH2 0x69F JUMP JUMPDEST SWAP1 POP SWAP3 SWAP2 POP POP JUMP JUMPDEST PUSH1 0x0 PUSH1 0x40 DUP3 ADD SWAP1 POP PUSH2 0x731 PUSH1 0x0 DUP4 ADD DUP6 PUSH2 0x6EB JUMP JUMPDEST DUP2 DUP2 SUB PUSH1 0x20 DUP4 ADD MSTORE PUSH2 0x743 DUP2 DUP5 PUSH2 0x666 JUMP JUMPDEST SWAP1 POP SWAP4 SWAP3 POP POP POP JUMP JUMPDEST PUSH1 0x0 PUSH2 0x756 PUSH2 0x767 JUMP JUMPDEST SWAP1 POP PUSH2 0x762 DUP3 DUP3 PUSH2 0x8AB JUMP JUMPDEST SWAP2 SWAP1 POP JUMP JUMPDEST PUSH1 0x0 PUSH1 0x40 MLOAD SWAP1 POP SWAP1 JUMP JUMPDEST PUSH1 0x0 PUSH8 0xFFFFFFFFFFFFFFFF DUP3 GT ISZERO PUSH2 0x78C JUMPI PUSH2 0x78B PUSH2 0x90B JUMP JUMPDEST JUMPDEST PUSH1 0x20 DUP3 MUL SWAP1 POP PUSH1 0x20 DUP2 ADD SWAP1 POP SWAP2 SWAP1 POP JUMP JUMPDEST PUSH1 0x0 PUSH8 0xFFFFFFFFFFFFFFFF DUP3 GT ISZERO PUSH2 0x7B8 JUMPI PUSH2 0x7B7 PUSH2 0x90B JUMP JUMPDEST JUMPDEST PUSH2 0x7C1 DUP3 PUSH2 0x953 JUMP JUMPDEST SWAP1 POP PUSH1 0x20 DUP2 ADD SWAP1 POP SWAP2 SWAP1 POP JUMP JUMPDEST PUSH1 0x0 DUP2 MLOAD SWAP1 POP SWAP2 SWAP1 POP JUMP JUMPDEST PUSH1 0x0 DUP3 DUP3 MSTORE PUSH1 0x20 DUP3 ADD SWAP1 POP SWAP3 SWAP2 POP POP JUMP JUMPDEST PUSH1 0x0 DUP3 DUP3 MSTORE PUSH1 0x20 DUP3 ADD SWAP1 POP SWAP3 SWAP2 POP POP JUMP JUMPDEST PUSH1 0x0 PUSH2 0x806 DUP3 PUSH2 0x80D JUMP JUMPDEST SWAP1 POP SWAP2 SWAP1 POP JUMP JUMPDEST PUSH1 0x0 PUSH20 0xFFFFFFFFFFFFFFFFFFFFFFFFFFFFFFFFFFFFFFFF DUP3 AND SWAP1 POP SWAP2 SWAP1 POP JUMP JUMPDEST PUSH1 0x0 DUP2 SWAP1 POP SWAP2 SWAP1 POP JUMP JUMPDEST DUP3 DUP2 DUP4 CALLDATACOPY PUSH1 0x0 DUP4 DUP4 ADD MSTORE POP POP POP JUMP JUMPDEST PUSH1 0x0 JUMPDEST DUP4 DUP2 LT ISZERO PUSH2 0x864 JUMPI DUP1 DUP3 ADD MLOAD DUP2 DUP5 ADD MSTORE PUSH1 0x20 DUP2 ADD SWAP1 POP PUSH2 0x849 JUMP JUMPDEST DUP4 DUP2 GT ISZERO PUSH2 0x873 JUMPI PUSH1 0x0 DUP5 DUP5 ADD MSTORE JUMPDEST POP POP POP POP JUMP JUMPDEST PUSH1 0x0 PUSH1 0x2 DUP3 DIV SWAP1 POP PUSH1 0x1 DUP3 AND DUP1 PUSH2 0x891 JUMPI PUSH1 0x7F DUP3 AND SWAP2 POP JUMPDEST PUSH1 0x20 DUP3 LT DUP2 EQ ISZERO PUSH2 0x8A5 JUMPI PUSH2 0x8A4 PUSH2 0x8DC JUMP JUMPDEST JUMPDEST POP SWAP2 SWAP1 POP JUMP JUMPDEST PUSH2 0x8B4 DUP3 PUSH2 0x953 JUMP JUMPDEST DUP2 ADD DUP2 DUP2 LT PUSH8 0xFFFFFFFFFFFFFFFF DUP3 GT OR ISZERO PUSH2 0x8D3 JUMPI PUSH2 0x8D2 PUSH2 0x90B JUMP JUMPDEST JUMPDEST DUP1 PUSH1 0x40 MSTORE POP POP POP JUMP JUMPDEST PUSH32 0x4E487B7100000000000000000000000000000000000000000000000000000000 PUSH1 0x0 MSTORE PUSH1 0x22 PUSH1 0x4 MSTORE PUSH1 0x24 PUSH1 0x0 REVERT JUMPDEST PUSH32 0x4E487B7100000000000000000000000000000000000000000000000000000000 PUSH1 0x0 MSTORE PUSH1 0x41 PUSH1 0x4 MSTORE PUSH1 0x24 PUSH1 0x0 REVERT JUMPDEST PUSH1 0x0 DUP1 REVERT JUMPDEST PUSH1 0x0 DUP1 REVERT JUMPDEST PUSH1 0x0 DUP1 REVERT JUMPDEST PUSH1 0x0 DUP1 REVERT JUMPDEST PUSH1 0x0 DUP1 REVERT JUMPDEST PUSH1 0x0 PUSH1 0x1F NOT PUSH1 0x1F DUP4 ADD AND SWAP1 POP SWAP2 SWAP1 POP JUMP JUMPDEST PUSH2 0x96D DUP2 PUSH2 0x7FB JUMP JUMPDEST DUP2 EQ PUSH2 0x978 JUMPI PUSH1 0x0 DUP1 REVERT JUMPDEST POP JUMP JUMPDEST PUSH2 0x984 DUP2 PUSH2 0x82D JUMP JUMPDEST DUP2 EQ PUSH2 0x98F JUMPI PUSH1 0x0 DUP1 REVERT JUMPDEST POP JUMP INVALID LOG2 PUSH5 0x6970667358 0x22 SLT KECCAK256 BYTE 0x5F CODESIZE 0xB8 DUP10 CALLVALUE 0xE2 0xF6 DIFFICULTY SWAP7 0xDC 0x49 PUSH12 0x5FFEA6DFEDC075B430F682DF OR 0x2C CALLCODE PUSH15 0x6A73CA64736F6C6343000807003300 "
				},
				"gasEstimates": {
					"creation": {
						"codeDepositCost": "500800",
						"executionCost": "537",
						"totalCost": "501337"
					},
					"external": {
						"examples(uint256[],string)": "infinite",
						"myStructs(address)": "infinite"
					}
				},
				"methodIdentifiers": {
					"examples(uint256[],string)": "fc277a95",
					"myStructs(address)": "b43c5d33"
				}
			},
			"storageLayout": {
				"storage": [
					{
						"astId": 11,
						"contract": "contracts/DataLocations.sol:DataLocations",
						"label": "myStructs",
						"offset": 0,
						"slot": "0",
						"type": "t_mapping(t_address,t_struct(MyStruct)6_storage)"
					}
				],
				"types": {
					"t_address": {
						"encoding": "inplace",
						"label": "address",
						"numberOfBytes": "20"
					},
					"t_mapping(t_address,t_struct(MyStruct)6_storage)": {
						"encoding": "mapping",
						"key": "t_address",
						"label": "mapping(address => struct DataLocations.MyStruct)",
						"numberOfBytes": "32",
						"value": "t_struct(MyStruct)6_storage"
					},
					"t_string_storage": {
						"encoding": "bytes",
						"label": "string",
						"numberOfBytes": "32"
					},
					"t_struct(MyStruct)6_storage": {
						"encoding": "inplace",
						"label": "struct DataLocations.MyStruct",
						"members": [
							{
								"astId": 3,
								"contract": "contracts/DataLocations.sol:DataLocations",
								"label": "foo",
								"offset": 0,
								"slot": "0",
								"type": "t_uint256"
							},
							{
								"astId": 5,
								"contract": "contracts/DataLocations.sol:DataLocations",
								"label": "text",
								"offset": 0,
								"slot": "1",
								"type": "t_string_storage"
							}
						],
						"numberOfBytes": "64"
					},
					"t_uint256": {
						"encoding": "inplace",
						"label": "uint256",
						"numberOfBytes": "32"
					}
				}
			},
			"userdoc": {
				"kind": "user",
				"methods": {},
				"version": 1
			}
		}
	}
}