{
	"contracts/CallOtherContracts.sol": {
		"CallTestContract": {
			"abi": [
				{
					"inputs": [
						{
							"internalType": "contract TestContract",
							"name": "_test",
							"type": "address"
						}
					],
					"name": "getX",
					"outputs": [
						{
							"internalType": "uint256",
							"name": "x",
							"type": "uint256"
						}
					],
					"stateMutability": "view",
					"type": "function"
				},
				{
					"inputs": [
						{
							"internalType": "contract TestContract",
							"name": "_test",
							"type": "address"
						},
						{
							"internalType": "uint256",
							"name": "_x",
							"type": "uint256"
						}
					],
					"name": "setX",
					"outputs": [],
					"stateMutability": "nonpayable",
					"type": "function"
				},
				{
					"inputs": [
						{
							"internalType": "contract TestContract",
							"name": "_test",
							"type": "address"
						},
						{
							"internalType": "uint256",
							"name": "_x",
							"type": "uint256"
						}
					],
					"name": "setXAndSend",
					"outputs": [],
					"stateMutability": "nonpayable",
					"type": "function"
				}
			],
			"devdoc": {
				"kind": "dev",
				"methods": {},
				"version": 1
			},
			"evm": {
				"assembly": "    /* \"contracts/CallOtherContracts.sol\":60:387  contract CallTestContract {\r... */\n  mstore(0x40, 0x80)\n  callvalue\n  dup1\n  iszero\n  tag_1\n  jumpi\n  0x00\n  dup1\n  revert\ntag_1:\n  pop\n  dataSize(sub_0)\n  dup1\n  dataOffset(sub_0)\n  0x00\n  codecopy\n  0x00\n  return\nstop\n\nsub_0: assembly {\n        /* \"contracts/CallOtherContracts.sol\":60:387  contract CallTestContract {\r... */\n      mstore(0x40, 0x80)\n      callvalue\n      dup1\n      iszero\n      tag_1\n      jumpi\n      0x00\n      dup1\n      revert\n    tag_1:\n      pop\n      jumpi(tag_2, lt(calldatasize, 0x04))\n      shr(0xe0, calldataload(0x00))\n      dup1\n      0x4a2ad99f\n      eq\n      tag_3\n      jumpi\n      dup1\n      0x7c94c8ca\n      eq\n      tag_4\n      jumpi\n      dup1\n      0xf05c62a2\n      eq\n      tag_5\n      jumpi\n    tag_2:\n      0x00\n      dup1\n      revert\n        /* \"contracts/CallOtherContracts.sol\":93:177  function setX(TestContract _test, uint _x) external {\r... */\n    tag_3:\n      tag_6\n      0x04\n      dup1\n      calldatasize\n      sub\n      dup2\n      add\n      swap1\n      tag_7\n      swap2\n      swap1\n      tag_8\n      jump\t// in\n    tag_7:\n      tag_9\n      jump\t// in\n    tag_6:\n      stop\n        /* \"contracts/CallOtherContracts.sol\":185:285  function getX(TestContract _test) external view returns (uint x) {\r... */\n    tag_4:\n      tag_10\n      0x04\n      dup1\n      calldatasize\n      sub\n      dup2\n      add\n      swap1\n      tag_11\n      swap2\n      swap1\n      tag_12\n      jump\t// in\n    tag_11:\n      tag_13\n      jump\t// in\n    tag_10:\n      mload(0x40)\n      tag_14\n      swap2\n      swap1\n      tag_15\n      jump\t// in\n    tag_14:\n      mload(0x40)\n      dup1\n      swap2\n      sub\n      swap1\n      return\n        /* \"contracts/CallOtherContracts.sol\":293:384  function setXAndSend(TestContract _test, uint _x) external {\r... */\n    tag_5:\n      tag_16\n      0x04\n      dup1\n      calldatasize\n      sub\n      dup2\n      add\n      swap1\n      tag_17\n      swap2\n      swap1\n      tag_8\n      jump\t// in\n    tag_17:\n      tag_18\n      jump\t// in\n    tag_16:\n      stop\n        /* \"contracts/CallOtherContracts.sol\":93:177  function setX(TestContract _test, uint _x) external {\r... */\n    tag_9:\n        /* \"contracts/CallOtherContracts.sol\":155:160  _test */\n      dup2\n        /* \"contracts/CallOtherContracts.sol\":155:165  _test.setX */\n      0xffffffffffffffffffffffffffffffffffffffff\n      and\n      0x4018d9aa\n        /* \"contracts/CallOtherContracts.sol\":166:168  _x */\n      dup3\n        /* \"contracts/CallOtherContracts.sol\":155:169  _test.setX(_x) */\n      mload(0x40)\n      dup3\n      0xffffffff\n      and\n      0xe0\n      shl\n      dup2\n      mstore\n      0x04\n      add\n      tag_20\n      swap2\n      swap1\n      tag_15\n      jump\t// in\n    tag_20:\n      0x00\n      mload(0x40)\n      dup1\n      dup4\n      sub\n      dup2\n      0x00\n      dup8\n      dup1\n      extcodesize\n      iszero\n      dup1\n      iszero\n      tag_21\n      jumpi\n      0x00\n      dup1\n      revert\n    tag_21:\n      pop\n      gas\n      call\n      iszero\n      dup1\n      iszero\n      tag_23\n      jumpi\n      returndatasize\n      0x00\n      dup1\n      returndatacopy\n      revert(0x00, returndatasize)\n    tag_23:\n      pop\n      pop\n      pop\n      pop\n        /* \"contracts/CallOtherContracts.sol\":93:177  function setX(TestContract _test, uint _x) external {\r... */\n      pop\n      pop\n      jump\t// out\n        /* \"contracts/CallOtherContracts.sol\":185:285  function getX(TestContract _test) external view returns (uint x) {\r... */\n    tag_13:\n        /* \"contracts/CallOtherContracts.sol\":242:248  uint x */\n      0x00\n        /* \"contracts/CallOtherContracts.sol\":265:270  _test */\n      dup2\n        /* \"contracts/CallOtherContracts.sol\":265:275  _test.getX */\n      0xffffffffffffffffffffffffffffffffffffffff\n      and\n      0x5197c7aa\n        /* \"contracts/CallOtherContracts.sol\":265:277  _test.getX() */\n      mload(0x40)\n      dup2\n      0xffffffff\n      and\n      0xe0\n      shl\n      dup2\n      mstore\n      0x04\n      add\n      0x20\n      mload(0x40)\n      dup1\n      dup4\n      sub\n      dup2\n      dup7\n      dup1\n      extcodesize\n      iszero\n      dup1\n      iszero\n      tag_25\n      jumpi\n      0x00\n      dup1\n      revert\n    tag_25:\n      pop\n      gas\n      staticcall\n      iszero\n      dup1\n      iszero\n      tag_27\n      jumpi\n      returndatasize\n      0x00\n      dup1\n      returndatacopy\n      revert(0x00, returndatasize)\n    tag_27:\n      pop\n      pop\n      pop\n      pop\n      mload(0x40)\n      returndatasize\n      not(0x1f)\n      0x1f\n      dup3\n      add\n      and\n      dup3\n      add\n      dup1\n      0x40\n      mstore\n      pop\n      dup2\n      add\n      swap1\n      tag_28\n      swap2\n      swap1\n      tag_29\n      jump\t// in\n    tag_28:\n        /* \"contracts/CallOtherContracts.sol\":261:277  x = _test.getX() */\n      swap1\n      pop\n        /* \"contracts/CallOtherContracts.sol\":185:285  function getX(TestContract _test) external view returns (uint x) {\r... */\n      swap2\n      swap1\n      pop\n      jump\t// out\n        /* \"contracts/CallOtherContracts.sol\":293:384  function setXAndSend(TestContract _test, uint _x) external {\r... */\n    tag_18:\n        /* \"contracts/CallOtherContracts.sol\":362:367  _test */\n      dup2\n        /* \"contracts/CallOtherContracts.sol\":362:372  _test.setX */\n      0xffffffffffffffffffffffffffffffffffffffff\n      and\n      0x4018d9aa\n        /* \"contracts/CallOtherContracts.sol\":373:375  _x */\n      dup3\n        /* \"contracts/CallOtherContracts.sol\":362:376  _test.setX(_x) */\n      mload(0x40)\n      dup3\n      0xffffffff\n      and\n      0xe0\n      shl\n      dup2\n      mstore\n      0x04\n      add\n      tag_31\n      swap2\n      swap1\n      tag_15\n      jump\t// in\n    tag_31:\n      0x00\n      mload(0x40)\n      dup1\n      dup4\n      sub\n      dup2\n      0x00\n      dup8\n      dup1\n      extcodesize\n      iszero\n      dup1\n      iszero\n      tag_32\n      jumpi\n      0x00\n      dup1\n      revert\n    tag_32:\n      pop\n      gas\n      call\n      iszero\n      dup1\n      iszero\n      tag_34\n      jumpi\n      returndatasize\n      0x00\n      dup1\n      returndatacopy\n      revert(0x00, returndatasize)\n    tag_34:\n      pop\n      pop\n      pop\n      pop\n        /* \"contracts/CallOtherContracts.sol\":293:384  function setXAndSend(TestContract _test, uint _x) external {\r... */\n      pop\n      pop\n      jump\t// out\n        /* \"#utility.yul\":7:184   */\n    tag_36:\n        /* \"#utility.yul\":72:77   */\n      0x00\n        /* \"#utility.yul\":110:116   */\n      dup2\n        /* \"#utility.yul\":97:117   */\n      calldataload\n        /* \"#utility.yul\":88:117   */\n      swap1\n      pop\n        /* \"#utility.yul\":126:178   */\n      tag_38\n        /* \"#utility.yul\":172:177   */\n      dup2\n        /* \"#utility.yul\":126:178   */\n      tag_39\n      jump\t// in\n    tag_38:\n        /* \"#utility.yul\":7:184   */\n      swap3\n      swap2\n      pop\n      pop\n      jump\t// out\n        /* \"#utility.yul\":190:329   */\n    tag_40:\n        /* \"#utility.yul\":236:241   */\n      0x00\n        /* \"#utility.yul\":274:280   */\n      dup2\n        /* \"#utility.yul\":261:281   */\n      calldataload\n        /* \"#utility.yul\":252:281   */\n      swap1\n      pop\n        /* \"#utility.yul\":290:323   */\n      tag_42\n        /* \"#utility.yul\":317:322   */\n      dup2\n        /* \"#utility.yul\":290:323   */\n      tag_43\n      jump\t// in\n    tag_42:\n        /* \"#utility.yul\":190:329   */\n      swap3\n      swap2\n      pop\n      pop\n      jump\t// out\n        /* \"#utility.yul\":335:478   */\n    tag_44:\n        /* \"#utility.yul\":392:397   */\n      0x00\n        /* \"#utility.yul\":423:429   */\n      dup2\n        /* \"#utility.yul\":417:430   */\n      mload\n        /* \"#utility.yul\":408:430   */\n      swap1\n      pop\n        /* \"#utility.yul\":439:472   */\n      tag_46\n        /* \"#utility.yul\":466:471   */\n      dup2\n        /* \"#utility.yul\":439:472   */\n      tag_43\n      jump\t// in\n    tag_46:\n        /* \"#utility.yul\":335:478   */\n      swap3\n      swap2\n      pop\n      pop\n      jump\t// out\n        /* \"#utility.yul\":484:851   */\n    tag_12:\n        /* \"#utility.yul\":562:568   */\n      0x00\n        /* \"#utility.yul\":611:613   */\n      0x20\n        /* \"#utility.yul\":599:608   */\n      dup3\n        /* \"#utility.yul\":590:597   */\n      dup5\n        /* \"#utility.yul\":586:609   */\n      sub\n        /* \"#utility.yul\":582:614   */\n      slt\n        /* \"#utility.yul\":579:698   */\n      iszero\n      tag_48\n      jumpi\n        /* \"#utility.yul\":617:696   */\n      tag_49\n      tag_50\n      jump\t// in\n    tag_49:\n        /* \"#utility.yul\":579:698   */\n    tag_48:\n        /* \"#utility.yul\":737:738   */\n      0x00\n        /* \"#utility.yul\":762:834   */\n      tag_51\n        /* \"#utility.yul\":826:833   */\n      dup5\n        /* \"#utility.yul\":817:823   */\n      dup3\n        /* \"#utility.yul\":806:815   */\n      dup6\n        /* \"#utility.yul\":802:824   */\n      add\n        /* \"#utility.yul\":762:834   */\n      tag_36\n      jump\t// in\n    tag_51:\n        /* \"#utility.yul\":752:834   */\n      swap2\n      pop\n        /* \"#utility.yul\":708:844   */\n      pop\n        /* \"#utility.yul\":484:851   */\n      swap3\n      swap2\n      pop\n      pop\n      jump\t// out\n        /* \"#utility.yul\":857:1369   */\n    tag_8:\n        /* \"#utility.yul\":944:950   */\n      0x00\n        /* \"#utility.yul\":952:958   */\n      dup1\n        /* \"#utility.yul\":1001:1003   */\n      0x40\n        /* \"#utility.yul\":989:998   */\n      dup4\n        /* \"#utility.yul\":980:987   */\n      dup6\n        /* \"#utility.yul\":976:999   */\n      sub\n        /* \"#utility.yul\":972:1004   */\n      slt\n        /* \"#utility.yul\":969:1088   */\n      iszero\n      tag_53\n      jumpi\n        /* \"#utility.yul\":1007:1086   */\n      tag_54\n      tag_50\n      jump\t// in\n    tag_54:\n        /* \"#utility.yul\":969:1088   */\n    tag_53:\n        /* \"#utility.yul\":1127:1128   */\n      0x00\n        /* \"#utility.yul\":1152:1224   */\n      tag_55\n        /* \"#utility.yul\":1216:1223   */\n      dup6\n        /* \"#utility.yul\":1207:1213   */\n      dup3\n        /* \"#utility.yul\":1196:1205   */\n      dup7\n        /* \"#utility.yul\":1192:1214   */\n      add\n        /* \"#utility.yul\":1152:1224   */\n      tag_36\n      jump\t// in\n    tag_55:\n        /* \"#utility.yul\":1142:1224   */\n      swap3\n      pop\n        /* \"#utility.yul\":1098:1234   */\n      pop\n        /* \"#utility.yul\":1273:1275   */\n      0x20\n        /* \"#utility.yul\":1299:1352   */\n      tag_56\n        /* \"#utility.yul\":1344:1351   */\n      dup6\n        /* \"#utility.yul\":1335:1341   */\n      dup3\n        /* \"#utility.yul\":1324:1333   */\n      dup7\n        /* \"#utility.yul\":1320:1342   */\n      add\n        /* \"#utility.yul\":1299:1352   */\n      tag_40\n      jump\t// in\n    tag_56:\n        /* \"#utility.yul\":1289:1352   */\n      swap2\n      pop\n        /* \"#utility.yul\":1244:1362   */\n      pop\n        /* \"#utility.yul\":857:1369   */\n      swap3\n      pop\n      swap3\n      swap1\n      pop\n      jump\t// out\n        /* \"#utility.yul\":1375:1726   */\n    tag_29:\n        /* \"#utility.yul\":1445:1451   */\n      0x00\n        /* \"#utility.yul\":1494:1496   */\n      0x20\n        /* \"#utility.yul\":1482:1491   */\n      dup3\n        /* \"#utility.yul\":1473:1480   */\n      dup5\n        /* \"#utility.yul\":1469:1492   */\n      sub\n        /* \"#utility.yul\":1465:1497   */\n      slt\n        /* \"#utility.yul\":1462:1581   */\n      iszero\n      tag_58\n      jumpi\n        /* \"#utility.yul\":1500:1579   */\n      tag_59\n      tag_50\n      jump\t// in\n    tag_59:\n        /* \"#utility.yul\":1462:1581   */\n    tag_58:\n        /* \"#utility.yul\":1620:1621   */\n      0x00\n        /* \"#utility.yul\":1645:1709   */\n      tag_60\n        /* \"#utility.yul\":1701:1708   */\n      dup5\n        /* \"#utility.yul\":1692:1698   */\n      dup3\n        /* \"#utility.yul\":1681:1690   */\n      dup6\n        /* \"#utility.yul\":1677:1699   */\n      add\n        /* \"#utility.yul\":1645:1709   */\n      tag_44\n      jump\t// in\n    tag_60:\n        /* \"#utility.yul\":1635:1709   */\n      swap2\n      pop\n        /* \"#utility.yul\":1591:1719   */\n      pop\n        /* \"#utility.yul\":1375:1726   */\n      swap3\n      swap2\n      pop\n      pop\n      jump\t// out\n        /* \"#utility.yul\":1732:1850   */\n    tag_61:\n        /* \"#utility.yul\":1819:1843   */\n      tag_63\n        /* \"#utility.yul\":1837:1842   */\n      dup2\n        /* \"#utility.yul\":1819:1843   */\n      tag_64\n      jump\t// in\n    tag_63:\n        /* \"#utility.yul\":1814:1817   */\n      dup3\n        /* \"#utility.yul\":1807:1844   */\n      mstore\n        /* \"#utility.yul\":1732:1850   */\n      pop\n      pop\n      jump\t// out\n        /* \"#utility.yul\":1856:2078   */\n    tag_15:\n        /* \"#utility.yul\":1949:1953   */\n      0x00\n        /* \"#utility.yul\":1987:1989   */\n      0x20\n        /* \"#utility.yul\":1976:1985   */\n      dup3\n        /* \"#utility.yul\":1972:1990   */\n      add\n        /* \"#utility.yul\":1964:1990   */\n      swap1\n      pop\n        /* \"#utility.yul\":2000:2071   */\n      tag_66\n        /* \"#utility.yul\":2068:2069   */\n      0x00\n        /* \"#utility.yul\":2057:2066   */\n      dup4\n        /* \"#utility.yul\":2053:2070   */\n      add\n        /* \"#utility.yul\":2044:2050   */\n      dup5\n        /* \"#utility.yul\":2000:2071   */\n      tag_61\n      jump\t// in\n    tag_66:\n        /* \"#utility.yul\":1856:2078   */\n      swap3\n      swap2\n      pop\n      pop\n      jump\t// out\n        /* \"#utility.yul\":2165:2261   */\n    tag_69:\n        /* \"#utility.yul\":2202:2209   */\n      0x00\n        /* \"#utility.yul\":2231:2255   */\n      tag_71\n        /* \"#utility.yul\":2249:2254   */\n      dup3\n        /* \"#utility.yul\":2231:2255   */\n      tag_72\n      jump\t// in\n    tag_71:\n        /* \"#utility.yul\":2220:2255   */\n      swap1\n      pop\n        /* \"#utility.yul\":2165:2261   */\n      swap2\n      swap1\n      pop\n      jump\t// out\n        /* \"#utility.yul\":2267:2382   */\n    tag_73:\n        /* \"#utility.yul\":2323:2330   */\n      0x00\n        /* \"#utility.yul\":2352:2376   */\n      tag_75\n        /* \"#utility.yul\":2370:2375   */\n      dup3\n        /* \"#utility.yul\":2352:2376   */\n      tag_69\n      jump\t// in\n    tag_75:\n        /* \"#utility.yul\":2341:2376   */\n      swap1\n      pop\n        /* \"#utility.yul\":2267:2382   */\n      swap2\n      swap1\n      pop\n      jump\t// out\n        /* \"#utility.yul\":2388:2514   */\n    tag_72:\n        /* \"#utility.yul\":2425:2432   */\n      0x00\n        /* \"#utility.yul\":2465:2507   */\n      0xffffffffffffffffffffffffffffffffffffffff\n        /* \"#utility.yul\":2458:2463   */\n      dup3\n        /* \"#utility.yul\":2454:2508   */\n      and\n        /* \"#utility.yul\":2443:2508   */\n      swap1\n      pop\n        /* \"#utility.yul\":2388:2514   */\n      swap2\n      swap1\n      pop\n      jump\t// out\n        /* \"#utility.yul\":2520:2597   */\n    tag_64:\n        /* \"#utility.yul\":2557:2564   */\n      0x00\n        /* \"#utility.yul\":2586:2591   */\n      dup2\n        /* \"#utility.yul\":2575:2591   */\n      swap1\n      pop\n        /* \"#utility.yul\":2520:2597   */\n      swap2\n      swap1\n      pop\n      jump\t// out\n        /* \"#utility.yul\":2726:2843   */\n    tag_50:\n        /* \"#utility.yul\":2835:2836   */\n      0x00\n        /* \"#utility.yul\":2832:2833   */\n      dup1\n        /* \"#utility.yul\":2825:2837   */\n      revert\n        /* \"#utility.yul\":2849:3009   */\n    tag_39:\n        /* \"#utility.yul\":2941:2984   */\n      tag_82\n        /* \"#utility.yul\":2978:2983   */\n      dup2\n        /* \"#utility.yul\":2941:2984   */\n      tag_73\n      jump\t// in\n    tag_82:\n        /* \"#utility.yul\":2934:2939   */\n      dup2\n        /* \"#utility.yul\":2931:2985   */\n      eq\n        /* \"#utility.yul\":2921:3003   */\n      tag_83\n      jumpi\n        /* \"#utility.yul\":2999:3000   */\n      0x00\n        /* \"#utility.yul\":2996:2997   */\n      dup1\n        /* \"#utility.yul\":2989:3001   */\n      revert\n        /* \"#utility.yul\":2921:3003   */\n    tag_83:\n        /* \"#utility.yul\":2849:3009   */\n      pop\n      jump\t// out\n        /* \"#utility.yul\":3015:3137   */\n    tag_43:\n        /* \"#utility.yul\":3088:3112   */\n      tag_85\n        /* \"#utility.yul\":3106:3111   */\n      dup2\n        /* \"#utility.yul\":3088:3112   */\n      tag_64\n      jump\t// in\n    tag_85:\n        /* \"#utility.yul\":3081:3086   */\n      dup2\n        /* \"#utility.yul\":3078:3113   */\n      eq\n        /* \"#utility.yul\":3068:3131   */\n      tag_86\n      jumpi\n        /* \"#utility.yul\":3127:3128   */\n      0x00\n        /* \"#utility.yul\":3124:3125   */\n      dup1\n        /* \"#utility.yul\":3117:3129   */\n      revert\n        /* \"#utility.yul\":3068:3131   */\n    tag_86:\n        /* \"#utility.yul\":3015:3137   */\n      pop\n      jump\t// out\n\n    auxdata: 0xa2646970667358221220552d24f506422685a923ec3ad6b7fe17796d9b9a4f6156c1910907fc5ee8af1f64736f6c63430008070033\n}\n",
				"bytecode": {
					"linkReferences": {},
					"object": "608060405234801561001057600080fd5b506103cd806100206000396000f3fe608060405234801561001057600080fd5b50600436106100415760003560e01c80634a2ad99f146100465780637c94c8ca14610062578063f05c62a214610092575b600080fd5b610060600480360381019061005b919061027f565b6100ae565b005b61007c60048036038101906100779190610252565b61011d565b60405161008991906102fb565b60405180910390f35b6100ac60048036038101906100a7919061027f565b6101a4565b005b8173ffffffffffffffffffffffffffffffffffffffff16634018d9aa826040518263ffffffff1660e01b81526004016100e791906102fb565b600060405180830381600087803b15801561010157600080fd5b505af1158015610115573d6000803e3d6000fd5b505050505050565b60008173ffffffffffffffffffffffffffffffffffffffff16635197c7aa6040518163ffffffff1660e01b815260040160206040518083038186803b15801561016557600080fd5b505afa158015610179573d6000803e3d6000fd5b505050506040513d601f19601f8201168201806040525081019061019d91906102bf565b9050919050565b8173ffffffffffffffffffffffffffffffffffffffff16634018d9aa826040518263ffffffff1660e01b81526004016101dd91906102fb565b600060405180830381600087803b1580156101f757600080fd5b505af115801561020b573d6000803e3d6000fd5b505050505050565b60008135905061022281610369565b92915050565b60008135905061023781610380565b92915050565b60008151905061024c81610380565b92915050565b60006020828403121561026857610267610364565b5b600061027684828501610213565b91505092915050565b6000806040838503121561029657610295610364565b5b60006102a485828601610213565b92505060206102b585828601610228565b9150509250929050565b6000602082840312156102d5576102d4610364565b5b60006102e38482850161023d565b91505092915050565b6102f58161035a565b82525050565b600060208201905061031060008301846102ec565b92915050565b60006103218261033a565b9050919050565b600061033382610316565b9050919050565b600073ffffffffffffffffffffffffffffffffffffffff82169050919050565b6000819050919050565b600080fd5b61037281610328565b811461037d57600080fd5b50565b6103898161035a565b811461039457600080fd5b5056fea2646970667358221220552d24f506422685a923ec3ad6b7fe17796d9b9a4f6156c1910907fc5ee8af1f64736f6c63430008070033",
					"opcodes": "PUSH1 0x80 PUSH1 0x40 MSTORE CALLVALUE DUP1 ISZERO PUSH2 0x10 JUMPI PUSH1 0x0 DUP1 REVERT JUMPDEST POP PUSH2 0x3CD DUP1 PUSH2 0x20 PUSH1 0x0 CODECOPY PUSH1 0x0 RETURN INVALID PUSH1 0x80 PUSH1 0x40 MSTORE CALLVALUE DUP1 ISZERO PUSH2 0x10 JUMPI PUSH1 0x0 DUP1 REVERT JUMPDEST POP PUSH1 0x4 CALLDATASIZE LT PUSH2 0x41 JUMPI PUSH1 0x0 CALLDATALOAD PUSH1 0xE0 SHR DUP1 PUSH4 0x4A2AD99F EQ PUSH2 0x46 JUMPI DUP1 PUSH4 0x7C94C8CA EQ PUSH2 0x62 JUMPI DUP1 PUSH4 0xF05C62A2 EQ PUSH2 0x92 JUMPI JUMPDEST PUSH1 0x0 DUP1 REVERT JUMPDEST PUSH2 0x60 PUSH1 0x4 DUP1 CALLDATASIZE SUB DUP2 ADD SWAP1 PUSH2 0x5B SWAP2 SWAP1 PUSH2 0x27F JUMP JUMPDEST PUSH2 0xAE JUMP JUMPDEST STOP JUMPDEST PUSH2 0x7C PUSH1 0x4 DUP1 CALLDATASIZE SUB DUP2 ADD SWAP1 PUSH2 0x77 SWAP2 SWAP1 PUSH2 0x252 JUMP JUMPDEST PUSH2 0x11D JUMP JUMPDEST PUSH1 0x40 MLOAD PUSH2 0x89 SWAP2 SWAP1 PUSH2 0x2FB JUMP JUMPDEST PUSH1 0x40 MLOAD DUP1 SWAP2 SUB SWAP1 RETURN JUMPDEST PUSH2 0xAC PUSH1 0x4 DUP1 CALLDATASIZE SUB DUP2 ADD SWAP1 PUSH2 0xA7 SWAP2 SWAP1 PUSH2 0x27F JUMP JUMPDEST PUSH2 0x1A4 JUMP JUMPDEST STOP JUMPDEST DUP2 PUSH20 0xFFFFFFFFFFFFFFFFFFFFFFFFFFFFFFFFFFFFFFFF AND PUSH4 0x4018D9AA DUP3 PUSH1 0x40 MLOAD DUP3 PUSH4 0xFFFFFFFF AND PUSH1 0xE0 SHL DUP2 MSTORE PUSH1 0x4 ADD PUSH2 0xE7 SWAP2 SWAP1 PUSH2 0x2FB JUMP JUMPDEST PUSH1 0x0 PUSH1 0x40 MLOAD DUP1 DUP4 SUB DUP2 PUSH1 0x0 DUP8 DUP1 EXTCODESIZE ISZERO DUP1 ISZERO PUSH2 0x101 JUMPI PUSH1 0x0 DUP1 REVERT JUMPDEST POP GAS CALL ISZERO DUP1 ISZERO PUSH2 0x115 JUMPI RETURNDATASIZE PUSH1 0x0 DUP1 RETURNDATACOPY RETURNDATASIZE PUSH1 0x0 REVERT JUMPDEST POP POP POP POP POP POP JUMP JUMPDEST PUSH1 0x0 DUP2 PUSH20 0xFFFFFFFFFFFFFFFFFFFFFFFFFFFFFFFFFFFFFFFF AND PUSH4 0x5197C7AA PUSH1 0x40 MLOAD DUP2 PUSH4 0xFFFFFFFF AND PUSH1 0xE0 SHL DUP2 MSTORE PUSH1 0x4 ADD PUSH1 0x20 PUSH1 0x40 MLOAD DUP1 DUP4 SUB DUP2 DUP7 DUP1 EXTCODESIZE ISZERO DUP1 ISZERO PUSH2 0x165 JUMPI PUSH1 0x0 DUP1 REVERT JUMPDEST POP GAS STATICCALL ISZERO DUP1 ISZERO PUSH2 0x179 JUMPI RETURNDATASIZE PUSH1 0x0 DUP1 RETURNDATACOPY RETURNDATASIZE PUSH1 0x0 REVERT JUMPDEST POP POP POP POP PUSH1 0x40 MLOAD RETURNDATASIZE PUSH1 0x1F NOT PUSH1 0x1F DUP3 ADD AND DUP3 ADD DUP1 PUSH1 0x40 MSTORE POP DUP2 ADD SWAP1 PUSH2 0x19D SWAP2 SWAP1 PUSH2 0x2BF JUMP JUMPDEST SWAP1 POP SWAP2 SWAP1 POP JUMP JUMPDEST DUP2 PUSH20 0xFFFFFFFFFFFFFFFFFFFFFFFFFFFFFFFFFFFFFFFF AND PUSH4 0x4018D9AA DUP3 PUSH1 0x40 MLOAD DUP3 PUSH4 0xFFFFFFFF AND PUSH1 0xE0 SHL DUP2 MSTORE PUSH1 0x4 ADD PUSH2 0x1DD SWAP2 SWAP1 PUSH2 0x2FB JUMP JUMPDEST PUSH1 0x0 PUSH1 0x40 MLOAD DUP1 DUP4 SUB DUP2 PUSH1 0x0 DUP8 DUP1 EXTCODESIZE ISZERO DUP1 ISZERO PUSH2 0x1F7 JUMPI PUSH1 0x0 DUP1 REVERT JUMPDEST POP GAS CALL ISZERO DUP1 ISZERO PUSH2 0x20B JUMPI RETURNDATASIZE PUSH1 0x0 DUP1 RETURNDATACOPY RETURNDATASIZE PUSH1 0x0 REVERT JUMPDEST POP POP POP POP POP POP JUMP JUMPDEST PUSH1 0x0 DUP2 CALLDATALOAD SWAP1 POP PUSH2 0x222 DUP2 PUSH2 0x369 JUMP JUMPDEST SWAP3 SWAP2 POP POP JUMP JUMPDEST PUSH1 0x0 DUP2 CALLDATALOAD SWAP1 POP PUSH2 0x237 DUP2 PUSH2 0x380 JUMP JUMPDEST SWAP3 SWAP2 POP POP JUMP JUMPDEST PUSH1 0x0 DUP2 MLOAD SWAP1 POP PUSH2 0x24C DUP2 PUSH2 0x380 JUMP JUMPDEST SWAP3 SWAP2 POP POP JUMP JUMPDEST PUSH1 0x0 PUSH1 0x20 DUP3 DUP5 SUB SLT ISZERO PUSH2 0x268 JUMPI PUSH2 0x267 PUSH2 0x364 JUMP JUMPDEST JUMPDEST PUSH1 0x0 PUSH2 0x276 DUP5 DUP3 DUP6 ADD PUSH2 0x213 JUMP JUMPDEST SWAP2 POP POP SWAP3 SWAP2 POP POP JUMP JUMPDEST PUSH1 0x0 DUP1 PUSH1 0x40 DUP4 DUP6 SUB SLT ISZERO PUSH2 0x296 JUMPI PUSH2 0x295 PUSH2 0x364 JUMP JUMPDEST JUMPDEST PUSH1 0x0 PUSH2 0x2A4 DUP6 DUP3 DUP7 ADD PUSH2 0x213 JUMP JUMPDEST SWAP3 POP POP PUSH1 0x20 PUSH2 0x2B5 DUP6 DUP3 DUP7 ADD PUSH2 0x228 JUMP JUMPDEST SWAP2 POP POP SWAP3 POP SWAP3 SWAP1 POP JUMP JUMPDEST PUSH1 0x0 PUSH1 0x20 DUP3 DUP5 SUB SLT ISZERO PUSH2 0x2D5 JUMPI PUSH2 0x2D4 PUSH2 0x364 JUMP JUMPDEST JUMPDEST PUSH1 0x0 PUSH2 0x2E3 DUP5 DUP3 DUP6 ADD PUSH2 0x23D JUMP JUMPDEST SWAP2 POP POP SWAP3 SWAP2 POP POP JUMP JUMPDEST PUSH2 0x2F5 DUP2 PUSH2 0x35A JUMP JUMPDEST DUP3 MSTORE POP POP JUMP JUMPDEST PUSH1 0x0 PUSH1 0x20 DUP3 ADD SWAP1 POP PUSH2 0x310 PUSH1 0x0 DUP4 ADD DUP5 PUSH2 0x2EC JUMP JUMPDEST SWAP3 SWAP2 POP POP JUMP JUMPDEST PUSH1 0x0 PUSH2 0x321 DUP3 PUSH2 0x33A JUMP JUMPDEST SWAP1 POP SWAP2 SWAP1 POP JUMP JUMPDEST PUSH1 0x0 PUSH2 0x333 DUP3 PUSH2 0x316 JUMP JUMPDEST SWAP1 POP SWAP2 SWAP1 POP JUMP JUMPDEST PUSH1 0x0 PUSH20 0xFFFFFFFFFFFFFFFFFFFFFFFFFFFFFFFFFFFFFFFF DUP3 AND SWAP1 POP SWAP2 SWAP1 POP JUMP JUMPDEST PUSH1 0x0 DUP2 SWAP1 POP SWAP2 SWAP1 POP JUMP JUMPDEST PUSH1 0x0 DUP1 REVERT JUMPDEST PUSH2 0x372 DUP2 PUSH2 0x328 JUMP JUMPDEST DUP2 EQ PUSH2 0x37D JUMPI PUSH1 0x0 DUP1 REVERT JUMPDEST POP JUMP JUMPDEST PUSH2 0x389 DUP2 PUSH2 0x35A JUMP JUMPDEST DUP2 EQ PUSH2 0x394 JUMPI PUSH1 0x0 DUP1 REVERT JUMPDEST POP JUMP INVALID LOG2 PUSH5 0x6970667358 0x22 SLT KECCAK256 SSTORE 0x2D 0x24 CREATE2 MOD TIMESTAMP 0x26 DUP6 0xA9 0x23 0xEC GASPRICE 0xD6 0xB7 INVALID OR PUSH26 0x6D9B9A4F6156C1910907FC5EE8AF1F64736F6C63430008070033 "
				},
				"gasEstimates": {
					"creation": {
						"codeDepositCost": "194600",
						"executionCost": "238",
						"totalCost": "194838"
					},
					"external": {
						"getX(address)": "infinite",
						"setX(address,uint256)": "infinite",
						"setXAndSend(address,uint256)": "infinite"
					}
				},
				"methodIdentifiers": {
					"getX(address)": "7c94c8ca",
					"setX(address,uint256)": "4a2ad99f",
					"setXAndSend(address,uint256)": "f05c62a2"
				}
			},
			"storageLayout": {
				"storage": [],
				"types": null
			},
			"userdoc": {
				"kind": "user",
				"methods": {},
				"version": 1
			}
		}
	}
}