{
	"contracts/MultiCall.sol": {
		"TestMultiCall": {
			"abi": [
				{
					"inputs": [],
					"name": "func1",
					"outputs": [
						{
							"internalType": "uint256",
							"name": "",
							"type": "uint256"
						},
						{
							"internalType": "uint256",
							"name": "",
							"type": "uint256"
						}
					],
					"stateMutability": "view",
					"type": "function"
				},
				{
					"inputs": [],
					"name": "func2",
					"outputs": [
						{
							"internalType": "uint256",
							"name": "",
							"type": "uint256"
						},
						{
							"internalType": "uint256",
							"name": "",
							"type": "uint256"
						}
					],
					"stateMutability": "view",
					"type": "function"
				},
				{
					"inputs": [],
					"name": "getData1",
					"outputs": [
						{
							"internalType": "bytes",
							"name": "",
							"type": "bytes"
						}
					],
					"stateMutability": "pure",
					"type": "function"
				}
			],
			"devdoc": {
				"kind": "dev",
				"methods": {},
				"version": 1
			},
			"evm": {
				"assembly": "    /* \"contracts/MultiCall.sol\":118:474  contract TestMultiCall {... */\n  mstore(0x40, 0x80)\n  callvalue\n  dup1\n  iszero\n  tag_1\n  jumpi\n  0x00\n  dup1\n  revert\ntag_1:\n  pop\n  dataSize(sub_0)\n  dup1\n  dataOffset(sub_0)\n  0x00\n  codecopy\n  0x00\n  return\nstop\n\nsub_0: assembly {\n        /* \"contracts/MultiCall.sol\":118:474  contract TestMultiCall {... */\n      mstore(0x40, 0x80)\n      callvalue\n      dup1\n      iszero\n      tag_1\n      jumpi\n      0x00\n      dup1\n      revert\n    tag_1:\n      pop\n      jumpi(tag_2, lt(calldatasize, 0x04))\n      shr(0xe0, calldataload(0x00))\n      dup1\n      0x74135154\n      eq\n      tag_3\n      jumpi\n      dup1\n      0x9944cc71\n      eq\n      tag_4\n      jumpi\n      dup1\n      0xb1ade4db\n      eq\n      tag_5\n      jumpi\n    tag_2:\n      0x00\n      dup1\n      revert\n        /* \"contracts/MultiCall.sol\":147:242  function func1() external view returns (uint, uint) {... */\n    tag_3:\n      tag_6\n      tag_7\n      jump\t// in\n    tag_6:\n      mload(0x40)\n      tag_8\n      swap3\n      swap2\n      swap1\n      tag_9\n      jump\t// in\n    tag_8:\n      mload(0x40)\n      dup1\n      swap2\n      sub\n      swap1\n      return\n        /* \"contracts/MultiCall.sol\":351:471  function getData1() external pure returns (bytes memory) {... */\n    tag_4:\n      tag_10\n      tag_11\n      jump\t// in\n    tag_10:\n      mload(0x40)\n      tag_12\n      swap2\n      swap1\n      tag_13\n      jump\t// in\n    tag_12:\n      mload(0x40)\n      dup1\n      swap2\n      sub\n      swap1\n      return\n        /* \"contracts/MultiCall.sol\":249:344  function func2() external view returns (uint, uint) {... */\n    tag_5:\n      tag_14\n      tag_15\n      jump\t// in\n    tag_14:\n      mload(0x40)\n      tag_16\n      swap3\n      swap2\n      swap1\n      tag_9\n      jump\t// in\n    tag_16:\n      mload(0x40)\n      dup1\n      swap2\n      sub\n      swap1\n      return\n        /* \"contracts/MultiCall.sol\":147:242  function func1() external view returns (uint, uint) {... */\n    tag_7:\n        /* \"contracts/MultiCall.sol\":187:191  uint */\n      0x00\n        /* \"contracts/MultiCall.sol\":193:197  uint */\n      dup1\n        /* \"contracts/MultiCall.sol\":216:217  1 */\n      0x01\n        /* \"contracts/MultiCall.sol\":219:234  block.timestamp */\n      timestamp\n        /* \"contracts/MultiCall.sol\":209:235  return(1, block.timestamp) */\n      swap2\n      pop\n      swap2\n      pop\n        /* \"contracts/MultiCall.sol\":147:242  function func1() external view returns (uint, uint) {... */\n      swap1\n      swap2\n      jump\t// out\n        /* \"contracts/MultiCall.sol\":351:471  function getData1() external pure returns (bytes memory) {... */\n    tag_11:\n        /* \"contracts/MultiCall.sol\":394:406  bytes memory */\n      0x60\n        /* \"contracts/MultiCall.sol\":351:471  function getData1() external pure returns (bytes memory) {... */\n      swap1\n      jump\t// out\n        /* \"contracts/MultiCall.sol\":249:344  function func2() external view returns (uint, uint) {... */\n    tag_15:\n        /* \"contracts/MultiCall.sol\":289:293  uint */\n      0x00\n        /* \"contracts/MultiCall.sol\":295:299  uint */\n      dup1\n        /* \"contracts/MultiCall.sol\":318:319  2 */\n      0x02\n        /* \"contracts/MultiCall.sol\":321:336  block.timestamp */\n      timestamp\n        /* \"contracts/MultiCall.sol\":311:337  return(2, block.timestamp) */\n      swap2\n      pop\n      swap2\n      pop\n        /* \"contracts/MultiCall.sol\":249:344  function func2() external view returns (uint, uint) {... */\n      swap1\n      swap2\n      jump\t// out\n        /* \"#utility.yul\":7:84   */\n    tag_20:\n        /* \"#utility.yul\":44:51   */\n      0x00\n        /* \"#utility.yul\":73:78   */\n      dup2\n        /* \"#utility.yul\":62:78   */\n      swap1\n      pop\n        /* \"#utility.yul\":7:84   */\n      swap2\n      swap1\n      pop\n      jump\t// out\n        /* \"#utility.yul\":90:208   */\n    tag_21:\n        /* \"#utility.yul\":177:201   */\n      tag_30\n        /* \"#utility.yul\":195:200   */\n      dup2\n        /* \"#utility.yul\":177:201   */\n      tag_20\n      jump\t// in\n    tag_30:\n        /* \"#utility.yul\":172:175   */\n      dup3\n        /* \"#utility.yul\":165:202   */\n      mstore\n        /* \"#utility.yul\":90:208   */\n      pop\n      pop\n      jump\t// out\n        /* \"#utility.yul\":214:546   */\n    tag_9:\n        /* \"#utility.yul\":335:339   */\n      0x00\n        /* \"#utility.yul\":373:375   */\n      0x40\n        /* \"#utility.yul\":362:371   */\n      dup3\n        /* \"#utility.yul\":358:376   */\n      add\n        /* \"#utility.yul\":350:376   */\n      swap1\n      pop\n        /* \"#utility.yul\":386:457   */\n      tag_32\n        /* \"#utility.yul\":454:455   */\n      0x00\n        /* \"#utility.yul\":443:452   */\n      dup4\n        /* \"#utility.yul\":439:456   */\n      add\n        /* \"#utility.yul\":430:436   */\n      dup6\n        /* \"#utility.yul\":386:457   */\n      tag_21\n      jump\t// in\n    tag_32:\n        /* \"#utility.yul\":467:539   */\n      tag_33\n        /* \"#utility.yul\":535:537   */\n      0x20\n        /* \"#utility.yul\":524:533   */\n      dup4\n        /* \"#utility.yul\":520:538   */\n      add\n        /* \"#utility.yul\":511:517   */\n      dup5\n        /* \"#utility.yul\":467:539   */\n      tag_21\n      jump\t// in\n    tag_33:\n        /* \"#utility.yul\":214:546   */\n      swap4\n      swap3\n      pop\n      pop\n      pop\n      jump\t// out\n        /* \"#utility.yul\":552:650   */\n    tag_22:\n        /* \"#utility.yul\":603:609   */\n      0x00\n        /* \"#utility.yul\":637:642   */\n      dup2\n        /* \"#utility.yul\":631:643   */\n      mload\n        /* \"#utility.yul\":621:643   */\n      swap1\n      pop\n        /* \"#utility.yul\":552:650   */\n      swap2\n      swap1\n      pop\n      jump\t// out\n        /* \"#utility.yul\":656:824   */\n    tag_23:\n        /* \"#utility.yul\":739:750   */\n      0x00\n        /* \"#utility.yul\":773:779   */\n      dup3\n        /* \"#utility.yul\":768:771   */\n      dup3\n        /* \"#utility.yul\":761:780   */\n      mstore\n        /* \"#utility.yul\":813:817   */\n      0x20\n        /* \"#utility.yul\":808:811   */\n      dup3\n        /* \"#utility.yul\":804:818   */\n      add\n        /* \"#utility.yul\":789:818   */\n      swap1\n      pop\n        /* \"#utility.yul\":656:824   */\n      swap3\n      swap2\n      pop\n      pop\n      jump\t// out\n        /* \"#utility.yul\":830:1076   */\n    tag_24:\n        /* \"#utility.yul\":911:912   */\n      0x00\n        /* \"#utility.yul\":921:1034   */\n    tag_37:\n        /* \"#utility.yul\":935:941   */\n      dup4\n        /* \"#utility.yul\":932:933   */\n      dup2\n        /* \"#utility.yul\":929:942   */\n      lt\n        /* \"#utility.yul\":921:1034   */\n      iszero\n      tag_39\n      jumpi\n        /* \"#utility.yul\":1020:1021   */\n      dup1\n        /* \"#utility.yul\":1015:1018   */\n      dup3\n        /* \"#utility.yul\":1011:1022   */\n      add\n        /* \"#utility.yul\":1005:1023   */\n      mload\n        /* \"#utility.yul\":1001:1002   */\n      dup2\n        /* \"#utility.yul\":996:999   */\n      dup5\n        /* \"#utility.yul\":992:1003   */\n      add\n        /* \"#utility.yul\":985:1024   */\n      mstore\n        /* \"#utility.yul\":957:959   */\n      0x20\n        /* \"#utility.yul\":954:955   */\n      dup2\n        /* \"#utility.yul\":950:960   */\n      add\n        /* \"#utility.yul\":945:960   */\n      swap1\n      pop\n        /* \"#utility.yul\":921:1034   */\n      jump(tag_37)\n    tag_39:\n        /* \"#utility.yul\":1068:1069   */\n      0x00\n        /* \"#utility.yul\":1059:1065   */\n      dup5\n        /* \"#utility.yul\":1054:1057   */\n      dup5\n        /* \"#utility.yul\":1050:1066   */\n      add\n        /* \"#utility.yul\":1043:1070   */\n      mstore\n        /* \"#utility.yul\":892:1076   */\n      pop\n        /* \"#utility.yul\":830:1076   */\n      pop\n      pop\n      pop\n      jump\t// out\n        /* \"#utility.yul\":1082:1184   */\n    tag_25:\n        /* \"#utility.yul\":1123:1129   */\n      0x00\n        /* \"#utility.yul\":1174:1176   */\n      0x1f\n        /* \"#utility.yul\":1170:1177   */\n      not\n        /* \"#utility.yul\":1165:1167   */\n      0x1f\n        /* \"#utility.yul\":1158:1163   */\n      dup4\n        /* \"#utility.yul\":1154:1168   */\n      add\n        /* \"#utility.yul\":1150:1178   */\n      and\n        /* \"#utility.yul\":1140:1178   */\n      swap1\n      pop\n        /* \"#utility.yul\":1082:1184   */\n      swap2\n      swap1\n      pop\n      jump\t// out\n        /* \"#utility.yul\":1190:1563   */\n    tag_26:\n        /* \"#utility.yul\":1276:1279   */\n      0x00\n        /* \"#utility.yul\":1304:1342   */\n      tag_42\n        /* \"#utility.yul\":1336:1341   */\n      dup3\n        /* \"#utility.yul\":1304:1342   */\n      tag_22\n      jump\t// in\n    tag_42:\n        /* \"#utility.yul\":1358:1428   */\n      tag_43\n        /* \"#utility.yul\":1421:1427   */\n      dup2\n        /* \"#utility.yul\":1416:1419   */\n      dup6\n        /* \"#utility.yul\":1358:1428   */\n      tag_23\n      jump\t// in\n    tag_43:\n        /* \"#utility.yul\":1351:1428   */\n      swap4\n      pop\n        /* \"#utility.yul\":1437:1502   */\n      tag_44\n        /* \"#utility.yul\":1495:1501   */\n      dup2\n        /* \"#utility.yul\":1490:1493   */\n      dup6\n        /* \"#utility.yul\":1483:1487   */\n      0x20\n        /* \"#utility.yul\":1476:1481   */\n      dup7\n        /* \"#utility.yul\":1472:1488   */\n      add\n        /* \"#utility.yul\":1437:1502   */\n      tag_24\n      jump\t// in\n    tag_44:\n        /* \"#utility.yul\":1527:1556   */\n      tag_45\n        /* \"#utility.yul\":1549:1555   */\n      dup2\n        /* \"#utility.yul\":1527:1556   */\n      tag_25\n      jump\t// in\n    tag_45:\n        /* \"#utility.yul\":1522:1525   */\n      dup5\n        /* \"#utility.yul\":1518:1557   */\n      add\n        /* \"#utility.yul\":1511:1557   */\n      swap2\n      pop\n        /* \"#utility.yul\":1280:1563   */\n      pop\n        /* \"#utility.yul\":1190:1563   */\n      swap3\n      swap2\n      pop\n      pop\n      jump\t// out\n        /* \"#utility.yul\":1569:1878   */\n    tag_13:\n        /* \"#utility.yul\":1680:1684   */\n      0x00\n        /* \"#utility.yul\":1718:1720   */\n      0x20\n        /* \"#utility.yul\":1707:1716   */\n      dup3\n        /* \"#utility.yul\":1703:1721   */\n      add\n        /* \"#utility.yul\":1695:1721   */\n      swap1\n      pop\n        /* \"#utility.yul\":1767:1776   */\n      dup2\n        /* \"#utility.yul\":1761:1765   */\n      dup2\n        /* \"#utility.yul\":1757:1777   */\n      sub\n        /* \"#utility.yul\":1753:1754   */\n      0x00\n        /* \"#utility.yul\":1742:1751   */\n      dup4\n        /* \"#utility.yul\":1738:1755   */\n      add\n        /* \"#utility.yul\":1731:1778   */\n      mstore\n        /* \"#utility.yul\":1795:1871   */\n      tag_47\n        /* \"#utility.yul\":1866:1870   */\n      dup2\n        /* \"#utility.yul\":1857:1863   */\n      dup5\n        /* \"#utility.yul\":1795:1871   */\n      tag_26\n      jump\t// in\n    tag_47:\n        /* \"#utility.yul\":1787:1871   */\n      swap1\n      pop\n        /* \"#utility.yul\":1569:1878   */\n      swap3\n      swap2\n      pop\n      pop\n      jump\t// out\n\n    auxdata: 0xa264697066735822122065a9004c965fe623ea5906b95a77ac03583fd1894b8305fd7d762b20367ed32a64736f6c63430008110033\n}\n",
				"bytecode": {
					"linkReferences": {},
					"object": "608060405234801561001057600080fd5b506101ed806100206000396000f3fe608060405234801561001057600080fd5b50600436106100415760003560e01c806374135154146100465780639944cc7114610065578063b1ade4db14610083575b600080fd5b61004e6100a2565b60405161005c9291906100dc565b60405180910390f35b61006d6100b0565b60405161007a9190610195565b60405180910390f35b61008b6100b5565b6040516100999291906100dc565b60405180910390f35b600080600142915091509091565b606090565b600080600242915091509091565b6000819050919050565b6100d6816100c3565b82525050565b60006040820190506100f160008301856100cd565b6100fe60208301846100cd565b9392505050565b600081519050919050565b600082825260208201905092915050565b60005b8381101561013f578082015181840152602081019050610124565b60008484015250505050565b6000601f19601f8301169050919050565b600061016782610105565b6101718185610110565b9350610181818560208601610121565b61018a8161014b565b840191505092915050565b600060208201905081810360008301526101af818461015c565b90509291505056fea264697066735822122065a9004c965fe623ea5906b95a77ac03583fd1894b8305fd7d762b20367ed32a64736f6c63430008110033",
					"opcodes": "PUSH1 0x80 PUSH1 0x40 MSTORE CALLVALUE DUP1 ISZERO PUSH2 0x10 JUMPI PUSH1 0x0 DUP1 REVERT JUMPDEST POP PUSH2 0x1ED DUP1 PUSH2 0x20 PUSH1 0x0 CODECOPY PUSH1 0x0 RETURN INVALID PUSH1 0x80 PUSH1 0x40 MSTORE CALLVALUE DUP1 ISZERO PUSH2 0x10 JUMPI PUSH1 0x0 DUP1 REVERT JUMPDEST POP PUSH1 0x4 CALLDATASIZE LT PUSH2 0x41 JUMPI PUSH1 0x0 CALLDATALOAD PUSH1 0xE0 SHR DUP1 PUSH4 0x74135154 EQ PUSH2 0x46 JUMPI DUP1 PUSH4 0x9944CC71 EQ PUSH2 0x65 JUMPI DUP1 PUSH4 0xB1ADE4DB EQ PUSH2 0x83 JUMPI JUMPDEST PUSH1 0x0 DUP1 REVERT JUMPDEST PUSH2 0x4E PUSH2 0xA2 JUMP JUMPDEST PUSH1 0x40 MLOAD PUSH2 0x5C SWAP3 SWAP2 SWAP1 PUSH2 0xDC JUMP JUMPDEST PUSH1 0x40 MLOAD DUP1 SWAP2 SUB SWAP1 RETURN JUMPDEST PUSH2 0x6D PUSH2 0xB0 JUMP JUMPDEST PUSH1 0x40 MLOAD PUSH2 0x7A SWAP2 SWAP1 PUSH2 0x195 JUMP JUMPDEST PUSH1 0x40 MLOAD DUP1 SWAP2 SUB SWAP1 RETURN JUMPDEST PUSH2 0x8B PUSH2 0xB5 JUMP JUMPDEST PUSH1 0x40 MLOAD PUSH2 0x99 SWAP3 SWAP2 SWAP1 PUSH2 0xDC JUMP JUMPDEST PUSH1 0x40 MLOAD DUP1 SWAP2 SUB SWAP1 RETURN JUMPDEST PUSH1 0x0 DUP1 PUSH1 0x1 TIMESTAMP SWAP2 POP SWAP2 POP SWAP1 SWAP2 JUMP JUMPDEST PUSH1 0x60 SWAP1 JUMP JUMPDEST PUSH1 0x0 DUP1 PUSH1 0x2 TIMESTAMP SWAP2 POP SWAP2 POP SWAP1 SWAP2 JUMP JUMPDEST PUSH1 0x0 DUP2 SWAP1 POP SWAP2 SWAP1 POP JUMP JUMPDEST PUSH2 0xD6 DUP2 PUSH2 0xC3 JUMP JUMPDEST DUP3 MSTORE POP POP JUMP JUMPDEST PUSH1 0x0 PUSH1 0x40 DUP3 ADD SWAP1 POP PUSH2 0xF1 PUSH1 0x0 DUP4 ADD DUP6 PUSH2 0xCD JUMP JUMPDEST PUSH2 0xFE PUSH1 0x20 DUP4 ADD DUP5 PUSH2 0xCD JUMP JUMPDEST SWAP4 SWAP3 POP POP POP JUMP JUMPDEST PUSH1 0x0 DUP2 MLOAD SWAP1 POP SWAP2 SWAP1 POP JUMP JUMPDEST PUSH1 0x0 DUP3 DUP3 MSTORE PUSH1 0x20 DUP3 ADD SWAP1 POP SWAP3 SWAP2 POP POP JUMP JUMPDEST PUSH1 0x0 JUMPDEST DUP4 DUP2 LT ISZERO PUSH2 0x13F JUMPI DUP1 DUP3 ADD MLOAD DUP2 DUP5 ADD MSTORE PUSH1 0x20 DUP2 ADD SWAP1 POP PUSH2 0x124 JUMP JUMPDEST PUSH1 0x0 DUP5 DUP5 ADD MSTORE POP POP POP POP JUMP JUMPDEST PUSH1 0x0 PUSH1 0x1F NOT PUSH1 0x1F DUP4 ADD AND SWAP1 POP SWAP2 SWAP1 POP JUMP JUMPDEST PUSH1 0x0 PUSH2 0x167 DUP3 PUSH2 0x105 JUMP JUMPDEST PUSH2 0x171 DUP2 DUP6 PUSH2 0x110 JUMP JUMPDEST SWAP4 POP PUSH2 0x181 DUP2 DUP6 PUSH1 0x20 DUP7 ADD PUSH2 0x121 JUMP JUMPDEST PUSH2 0x18A DUP2 PUSH2 0x14B JUMP JUMPDEST DUP5 ADD SWAP2 POP POP SWAP3 SWAP2 POP POP JUMP JUMPDEST PUSH1 0x0 PUSH1 0x20 DUP3 ADD SWAP1 POP DUP2 DUP2 SUB PUSH1 0x0 DUP4 ADD MSTORE PUSH2 0x1AF DUP2 DUP5 PUSH2 0x15C JUMP JUMPDEST SWAP1 POP SWAP3 SWAP2 POP POP JUMP INVALID LOG2 PUSH5 0x6970667358 0x22 SLT KECCAK256 PUSH6 0xA9004C965FE6 0x23 0xEA MSIZE MOD 0xB9 GAS PUSH24 0xAC03583FD1894B8305FD7D762B20367ED32A64736F6C6343 STOP ADDMOD GT STOP CALLER "
				},
				"gasEstimates": {
					"creation": {
						"codeDepositCost": "98600",
						"executionCost": "147",
						"totalCost": "98747"
					},
					"external": {
						"func1()": "infinite",
						"func2()": "infinite",
						"getData1()": "infinite"
					}
				},
				"methodIdentifiers": {
					"func1()": "74135154",
					"func2()": "b1ade4db",
					"getData1()": "9944cc71"
				}
			},
			"storageLayout": {
				"storage": [],
				"types": null
			},
			"userdoc": {
				"kind": "user",
				"methods": {},
				"version": 1
			}
		}
	}
}