{
	"contracts/MultiCall.sol": {
		"MultiCall": {
			"abi": [
				{
					"inputs": [
						{
							"internalType": "address[]",
							"name": "targets",
							"type": "address[]"
						},
						{
							"internalType": "bytes[]",
							"name": "data",
							"type": "bytes[]"
						}
					],
					"name": "multiCall",
					"outputs": [
						{
							"internalType": "bytes[]",
							"name": "",
							"type": "bytes[]"
						}
					],
					"stateMutability": "view",
					"type": "function"
				}
			],
			"devdoc": {
				"kind": "dev",
				"methods": {},
				"version": 1
			},
			"evm": {
				"assembly": "    /* \"contracts/MultiCall.sol\":478:1066  contract MultiCall {... */\n  mstore(0x40, 0x80)\n  callvalue\n  dup1\n  iszero\n  tag_1\n  jumpi\n  0x00\n  dup1\n  revert\ntag_1:\n  pop\n  dataSize(sub_0)\n  dup1\n  dataOffset(sub_0)\n  0x00\n  codecopy\n  0x00\n  return\nstop\n\nsub_0: assembly {\n        /* \"contracts/MultiCall.sol\":478:1066  contract MultiCall {... */\n      mstore(0x40, 0x80)\n      callvalue\n      dup1\n      iszero\n      tag_1\n      jumpi\n      0x00\n      dup1\n      revert\n    tag_1:\n      pop\n      jumpi(tag_2, lt(calldatasize, 0x04))\n      shr(0xe0, calldataload(0x00))\n      dup1\n      0xda5b4ffd\n      eq\n      tag_3\n      jumpi\n    tag_2:\n      0x00\n      dup1\n      revert\n        /* \"contracts/MultiCall.sol\":510:1063  function multiCall(address[] calldata targets, bytes[] calldata data)... */\n    tag_3:\n      tag_4\n      0x04\n      dup1\n      calldatasize\n      sub\n      dup2\n      add\n      swap1\n      tag_5\n      swap2\n      swap1\n      tag_6\n      jump\t// in\n    tag_5:\n      tag_7\n      jump\t// in\n    tag_4:\n      mload(0x40)\n      tag_8\n      swap2\n      swap1\n      tag_9\n      jump\t// in\n    tag_8:\n      mload(0x40)\n      dup1\n      swap2\n      sub\n      swap1\n      return\n    tag_7:\n        /* \"contracts/MultiCall.sol\":630:644  bytes[] memory */\n      0x60\n        /* \"contracts/MultiCall.sol\":689:693  data */\n      dup3\n      dup3\n        /* \"contracts/MultiCall.sol\":689:700  data.length */\n      swap1\n      pop\n        /* \"contracts/MultiCall.sol\":671:678  targets */\n      dup6\n      dup6\n        /* \"contracts/MultiCall.sol\":671:685  targets.length */\n      swap1\n      pop\n        /* \"contracts/MultiCall.sol\":671:700  targets.length == data.length */\n      eq\n        /* \"contracts/MultiCall.sol\":663:733  require(targets.length == data.length, \"target length != data length\") */\n      tag_11\n      jumpi\n      mload(0x40)\n      0x08c379a000000000000000000000000000000000000000000000000000000000\n      dup2\n      mstore\n      0x04\n      add\n      tag_12\n      swap1\n      tag_13\n      jump\t// in\n    tag_12:\n      mload(0x40)\n      dup1\n      swap2\n      sub\n      swap1\n      revert\n    tag_11:\n        /* \"contracts/MultiCall.sol\":744:766  bytes[] memory results */\n      0x00\n        /* \"contracts/MultiCall.sol\":781:785  data */\n      dup4\n      dup4\n        /* \"contracts/MultiCall.sol\":781:792  data.length */\n      swap1\n      pop\n        /* \"contracts/MultiCall.sol\":769:793  new bytes[](data.length) */\n      0xffffffffffffffff\n      dup2\n      gt\n      iszero\n      tag_14\n      jumpi\n      tag_15\n      tag_16\n      jump\t// in\n    tag_15:\n    tag_14:\n      mload(0x40)\n      swap1\n      dup1\n      dup3\n      mstore\n      dup1\n      0x20\n      mul\n      0x20\n      add\n      dup3\n      add\n      0x40\n      mstore\n      dup1\n      iszero\n      tag_17\n      jumpi\n      dup2\n      0x20\n      add\n    tag_18:\n      0x60\n      dup2\n      mstore\n      0x20\n      add\n      swap1\n      0x01\n      swap1\n      sub\n      swap1\n      dup2\n      tag_18\n      jumpi\n      swap1\n      pop\n    tag_17:\n      pop\n        /* \"contracts/MultiCall.sol\":744:793  bytes[] memory results = new bytes[](data.length) */\n      swap1\n      pop\n        /* \"contracts/MultiCall.sol\":819:825  uint i */\n      0x00\n        /* \"contracts/MultiCall.sol\":814:1027  for (uint i; i < targets.length; i++) {... */\n    tag_19:\n        /* \"contracts/MultiCall.sol\":831:838  targets */\n      dup7\n      dup7\n        /* \"contracts/MultiCall.sol\":831:845  targets.length */\n      swap1\n      pop\n        /* \"contracts/MultiCall.sol\":827:828  i */\n      dup2\n        /* \"contracts/MultiCall.sol\":827:845  i < targets.length */\n      lt\n        /* \"contracts/MultiCall.sol\":814:1027  for (uint i; i < targets.length; i++) {... */\n      iszero\n      tag_20\n      jumpi\n        /* \"contracts/MultiCall.sol\":868:880  bool success */\n      0x00\n        /* \"contracts/MultiCall.sol\":882:901  bytes memory result */\n      dup1\n        /* \"contracts/MultiCall.sol\":905:912  targets */\n      dup9\n      dup9\n        /* \"contracts/MultiCall.sol\":913:914  i */\n      dup5\n        /* \"contracts/MultiCall.sol\":905:915  targets[i] */\n      dup2\n      dup2\n      lt\n      tag_22\n      jumpi\n      tag_23\n      tag_24\n      jump\t// in\n    tag_23:\n    tag_22:\n      swap1\n      pop\n      0x20\n      mul\n      add\n      0x20\n      dup2\n      add\n      swap1\n      tag_25\n      swap2\n      swap1\n      tag_26\n      jump\t// in\n    tag_25:\n        /* \"contracts/MultiCall.sol\":905:926  targets[i].staticcall */\n      0xffffffffffffffffffffffffffffffffffffffff\n      and\n        /* \"contracts/MultiCall.sol\":927:931  data */\n      dup8\n      dup8\n        /* \"contracts/MultiCall.sol\":932:933  i */\n      dup6\n        /* \"contracts/MultiCall.sol\":927:934  data[i] */\n      dup2\n      dup2\n      lt\n      tag_27\n      jumpi\n      tag_28\n      tag_24\n      jump\t// in\n    tag_28:\n    tag_27:\n      swap1\n      pop\n      0x20\n      mul\n      dup2\n      add\n      swap1\n      tag_29\n      swap2\n      swap1\n      tag_30\n      jump\t// in\n    tag_29:\n        /* \"contracts/MultiCall.sol\":905:935  targets[i].staticcall(data[i]) */\n      mload(0x40)\n      tag_31\n      swap3\n      swap2\n      swap1\n      tag_32\n      jump\t// in\n    tag_31:\n      0x00\n      mload(0x40)\n      dup1\n      dup4\n      sub\n      dup2\n      dup6\n      gas\n      staticcall\n      swap2\n      pop\n      pop\n      returndatasize\n      dup1\n      0x00\n      dup2\n      eq\n      tag_35\n      jumpi\n      mload(0x40)\n      swap2\n      pop\n      and(add(returndatasize, 0x3f), not(0x1f))\n      dup3\n      add\n      0x40\n      mstore\n      returndatasize\n      dup3\n      mstore\n      returndatasize\n      0x00\n      0x20\n      dup5\n      add\n      returndatacopy\n      jump(tag_34)\n    tag_35:\n      0x60\n      swap2\n      pop\n    tag_34:\n      pop\n        /* \"contracts/MultiCall.sol\":867:935  (bool success, bytes memory result) = targets[i].staticcall(data[i]) */\n      swap2\n      pop\n      swap2\n      pop\n        /* \"contracts/MultiCall.sol\":958:965  success */\n      dup2\n        /* \"contracts/MultiCall.sol\":950:981  require(success, \"call failed\") */\n      tag_36\n      jumpi\n      mload(0x40)\n      0x08c379a000000000000000000000000000000000000000000000000000000000\n      dup2\n      mstore\n      0x04\n      add\n      tag_37\n      swap1\n      tag_38\n      jump\t// in\n    tag_37:\n      mload(0x40)\n      dup1\n      swap2\n      sub\n      swap1\n      revert\n    tag_36:\n        /* \"contracts/MultiCall.sol\":1009:1015  result */\n      dup1\n        /* \"contracts/MultiCall.sol\":996:1003  results */\n      dup5\n        /* \"contracts/MultiCall.sol\":1004:1005  i */\n      dup5\n        /* \"contracts/MultiCall.sol\":996:1006  results[i] */\n      dup2\n      mload\n      dup2\n      lt\n      tag_39\n      jumpi\n      tag_40\n      tag_24\n      jump\t// in\n    tag_40:\n    tag_39:\n      0x20\n      mul\n      0x20\n      add\n      add\n        /* \"contracts/MultiCall.sol\":996:1015  results[i] = result */\n      dup2\n      swap1\n      mstore\n      pop\n        /* \"contracts/MultiCall.sol\":852:1027  {... */\n      pop\n      pop\n        /* \"contracts/MultiCall.sol\":847:850  i++ */\n      dup1\n      dup1\n      tag_41\n      swap1\n      tag_42\n      jump\t// in\n    tag_41:\n      swap2\n      pop\n      pop\n        /* \"contracts/MultiCall.sol\":814:1027  for (uint i; i < targets.length; i++) {... */\n      jump(tag_19)\n    tag_20:\n      pop\n        /* \"contracts/MultiCall.sol\":1046:1053  results */\n      dup1\n        /* \"contracts/MultiCall.sol\":1039:1053  return results */\n      swap2\n      pop\n      pop\n        /* \"contracts/MultiCall.sol\":510:1063  function multiCall(address[] calldata targets, bytes[] calldata data)... */\n      swap5\n      swap4\n      pop\n      pop\n      pop\n      pop\n      jump\t// out\n        /* \"#utility.yul\":88:205   */\n    tag_44:\n        /* \"#utility.yul\":197:198   */\n      0x00\n        /* \"#utility.yul\":194:195   */\n      dup1\n        /* \"#utility.yul\":187:199   */\n      revert\n        /* \"#utility.yul\":211:328   */\n    tag_45:\n        /* \"#utility.yul\":320:321   */\n      0x00\n        /* \"#utility.yul\":317:318   */\n      dup1\n        /* \"#utility.yul\":310:322   */\n      revert\n        /* \"#utility.yul\":334:451   */\n    tag_46:\n        /* \"#utility.yul\":443:444   */\n      0x00\n        /* \"#utility.yul\":440:441   */\n      dup1\n        /* \"#utility.yul\":433:445   */\n      revert\n        /* \"#utility.yul\":457:574   */\n    tag_47:\n        /* \"#utility.yul\":566:567   */\n      0x00\n        /* \"#utility.yul\":563:564   */\n      dup1\n        /* \"#utility.yul\":556:568   */\n      revert\n        /* \"#utility.yul\":580:697   */\n    tag_48:\n        /* \"#utility.yul\":689:690   */\n      0x00\n        /* \"#utility.yul\":686:687   */\n      dup1\n        /* \"#utility.yul\":679:691   */\n      revert\n        /* \"#utility.yul\":720:1288   */\n    tag_49:\n        /* \"#utility.yul\":793:801   */\n      0x00\n        /* \"#utility.yul\":803:809   */\n      dup1\n        /* \"#utility.yul\":853:856   */\n      dup4\n        /* \"#utility.yul\":846:850   */\n      0x1f\n        /* \"#utility.yul\":838:844   */\n      dup5\n        /* \"#utility.yul\":834:851   */\n      add\n        /* \"#utility.yul\":830:857   */\n      slt\n        /* \"#utility.yul\":820:942   */\n      tag_87\n      jumpi\n        /* \"#utility.yul\":861:940   */\n      tag_88\n      tag_46\n      jump\t// in\n    tag_88:\n        /* \"#utility.yul\":820:942   */\n    tag_87:\n        /* \"#utility.yul\":974:980   */\n      dup3\n        /* \"#utility.yul\":961:981   */\n      calldataload\n        /* \"#utility.yul\":951:981   */\n      swap1\n      pop\n        /* \"#utility.yul\":1004:1022   */\n      0xffffffffffffffff\n        /* \"#utility.yul\":996:1002   */\n      dup2\n        /* \"#utility.yul\":993:1023   */\n      gt\n        /* \"#utility.yul\":990:1107   */\n      iszero\n      tag_89\n      jumpi\n        /* \"#utility.yul\":1026:1105   */\n      tag_90\n      tag_47\n      jump\t// in\n    tag_90:\n        /* \"#utility.yul\":990:1107   */\n    tag_89:\n        /* \"#utility.yul\":1140:1144   */\n      0x20\n        /* \"#utility.yul\":1132:1138   */\n      dup4\n        /* \"#utility.yul\":1128:1145   */\n      add\n        /* \"#utility.yul\":1116:1145   */\n      swap2\n      pop\n        /* \"#utility.yul\":1194:1197   */\n      dup4\n        /* \"#utility.yul\":1186:1190   */\n      0x20\n        /* \"#utility.yul\":1178:1184   */\n      dup3\n        /* \"#utility.yul\":1174:1191   */\n      mul\n        /* \"#utility.yul\":1164:1172   */\n      dup4\n        /* \"#utility.yul\":1160:1192   */\n      add\n        /* \"#utility.yul\":1157:1198   */\n      gt\n        /* \"#utility.yul\":1154:1282   */\n      iszero\n      tag_91\n      jumpi\n        /* \"#utility.yul\":1201:1280   */\n      tag_92\n      tag_48\n      jump\t// in\n    tag_92:\n        /* \"#utility.yul\":1154:1282   */\n    tag_91:\n        /* \"#utility.yul\":720:1288   */\n      swap3\n      pop\n      swap3\n      swap1\n      pop\n      jump\t// out\n        /* \"#utility.yul\":1309:1888   */\n    tag_50:\n        /* \"#utility.yul\":1393:1401   */\n      0x00\n        /* \"#utility.yul\":1403:1409   */\n      dup1\n        /* \"#utility.yul\":1453:1456   */\n      dup4\n        /* \"#utility.yul\":1446:1450   */\n      0x1f\n        /* \"#utility.yul\":1438:1444   */\n      dup5\n        /* \"#utility.yul\":1434:1451   */\n      add\n        /* \"#utility.yul\":1430:1457   */\n      slt\n        /* \"#utility.yul\":1420:1542   */\n      tag_94\n      jumpi\n        /* \"#utility.yul\":1461:1540   */\n      tag_95\n      tag_46\n      jump\t// in\n    tag_95:\n        /* \"#utility.yul\":1420:1542   */\n    tag_94:\n        /* \"#utility.yul\":1574:1580   */\n      dup3\n        /* \"#utility.yul\":1561:1581   */\n      calldataload\n        /* \"#utility.yul\":1551:1581   */\n      swap1\n      pop\n        /* \"#utility.yul\":1604:1622   */\n      0xffffffffffffffff\n        /* \"#utility.yul\":1596:1602   */\n      dup2\n        /* \"#utility.yul\":1593:1623   */\n      gt\n        /* \"#utility.yul\":1590:1707   */\n      iszero\n      tag_96\n      jumpi\n        /* \"#utility.yul\":1626:1705   */\n      tag_97\n      tag_47\n      jump\t// in\n    tag_97:\n        /* \"#utility.yul\":1590:1707   */\n    tag_96:\n        /* \"#utility.yul\":1740:1744   */\n      0x20\n        /* \"#utility.yul\":1732:1738   */\n      dup4\n        /* \"#utility.yul\":1728:1745   */\n      add\n        /* \"#utility.yul\":1716:1745   */\n      swap2\n      pop\n        /* \"#utility.yul\":1794:1797   */\n      dup4\n        /* \"#utility.yul\":1786:1790   */\n      0x20\n        /* \"#utility.yul\":1778:1784   */\n      dup3\n        /* \"#utility.yul\":1774:1791   */\n      mul\n        /* \"#utility.yul\":1764:1772   */\n      dup4\n        /* \"#utility.yul\":1760:1792   */\n      add\n        /* \"#utility.yul\":1757:1798   */\n      gt\n        /* \"#utility.yul\":1754:1882   */\n      iszero\n      tag_98\n      jumpi\n        /* \"#utility.yul\":1801:1880   */\n      tag_99\n      tag_48\n      jump\t// in\n    tag_99:\n        /* \"#utility.yul\":1754:1882   */\n    tag_98:\n        /* \"#utility.yul\":1309:1888   */\n      swap3\n      pop\n      swap3\n      swap1\n      pop\n      jump\t// out\n        /* \"#utility.yul\":1894:2850   */\n    tag_6:\n        /* \"#utility.yul\":2027:2033   */\n      0x00\n        /* \"#utility.yul\":2035:2041   */\n      dup1\n        /* \"#utility.yul\":2043:2049   */\n      0x00\n        /* \"#utility.yul\":2051:2057   */\n      dup1\n        /* \"#utility.yul\":2100:2102   */\n      0x40\n        /* \"#utility.yul\":2088:2097   */\n      dup6\n        /* \"#utility.yul\":2079:2086   */\n      dup8\n        /* \"#utility.yul\":2075:2098   */\n      sub\n        /* \"#utility.yul\":2071:2103   */\n      slt\n        /* \"#utility.yul\":2068:2187   */\n      iszero\n      tag_101\n      jumpi\n        /* \"#utility.yul\":2106:2185   */\n      tag_102\n      tag_44\n      jump\t// in\n    tag_102:\n        /* \"#utility.yul\":2068:2187   */\n    tag_101:\n        /* \"#utility.yul\":2254:2255   */\n      0x00\n        /* \"#utility.yul\":2243:2252   */\n      dup6\n        /* \"#utility.yul\":2239:2256   */\n      add\n        /* \"#utility.yul\":2226:2257   */\n      calldataload\n        /* \"#utility.yul\":2284:2302   */\n      0xffffffffffffffff\n        /* \"#utility.yul\":2276:2282   */\n      dup2\n        /* \"#utility.yul\":2273:2303   */\n      gt\n        /* \"#utility.yul\":2270:2387   */\n      iszero\n      tag_103\n      jumpi\n        /* \"#utility.yul\":2306:2385   */\n      tag_104\n      tag_45\n      jump\t// in\n    tag_104:\n        /* \"#utility.yul\":2270:2387   */\n    tag_103:\n        /* \"#utility.yul\":2419:2499   */\n      tag_105\n        /* \"#utility.yul\":2491:2498   */\n      dup8\n        /* \"#utility.yul\":2482:2488   */\n      dup3\n        /* \"#utility.yul\":2471:2480   */\n      dup9\n        /* \"#utility.yul\":2467:2489   */\n      add\n        /* \"#utility.yul\":2419:2499   */\n      tag_49\n      jump\t// in\n    tag_105:\n        /* \"#utility.yul\":2401:2499   */\n      swap5\n      pop\n      swap5\n      pop\n        /* \"#utility.yul\":2197:2509   */\n      pop\n        /* \"#utility.yul\":2576:2578   */\n      0x20\n        /* \"#utility.yul\":2565:2574   */\n      dup6\n        /* \"#utility.yul\":2561:2579   */\n      add\n        /* \"#utility.yul\":2548:2580   */\n      calldataload\n        /* \"#utility.yul\":2607:2625   */\n      0xffffffffffffffff\n        /* \"#utility.yul\":2599:2605   */\n      dup2\n        /* \"#utility.yul\":2596:2626   */\n      gt\n        /* \"#utility.yul\":2593:2710   */\n      iszero\n      tag_106\n      jumpi\n        /* \"#utility.yul\":2629:2708   */\n      tag_107\n      tag_45\n      jump\t// in\n    tag_107:\n        /* \"#utility.yul\":2593:2710   */\n    tag_106:\n        /* \"#utility.yul\":2742:2833   */\n      tag_108\n        /* \"#utility.yul\":2825:2832   */\n      dup8\n        /* \"#utility.yul\":2816:2822   */\n      dup3\n        /* \"#utility.yul\":2805:2814   */\n      dup9\n        /* \"#utility.yul\":2801:2823   */\n      add\n        /* \"#utility.yul\":2742:2833   */\n      tag_50\n      jump\t// in\n    tag_108:\n        /* \"#utility.yul\":2724:2833   */\n      swap3\n      pop\n      swap3\n      pop\n        /* \"#utility.yul\":2519:2843   */\n      pop\n        /* \"#utility.yul\":1894:2850   */\n      swap3\n      swap6\n      swap2\n      swap5\n      pop\n      swap3\n      pop\n      jump\t// out\n        /* \"#utility.yul\":2856:2979   */\n    tag_51:\n        /* \"#utility.yul\":2932:2938   */\n      0x00\n        /* \"#utility.yul\":2966:2971   */\n      dup2\n        /* \"#utility.yul\":2960:2972   */\n      mload\n        /* \"#utility.yul\":2950:2972   */\n      swap1\n      pop\n        /* \"#utility.yul\":2856:2979   */\n      swap2\n      swap1\n      pop\n      jump\t// out\n        /* \"#utility.yul\":2985:3178   */\n    tag_52:\n        /* \"#utility.yul\":3093:3104   */\n      0x00\n        /* \"#utility.yul\":3127:3133   */\n      dup3\n        /* \"#utility.yul\":3122:3125   */\n      dup3\n        /* \"#utility.yul\":3115:3134   */\n      mstore\n        /* \"#utility.yul\":3167:3171   */\n      0x20\n        /* \"#utility.yul\":3162:3165   */\n      dup3\n        /* \"#utility.yul\":3158:3172   */\n      add\n        /* \"#utility.yul\":3143:3172   */\n      swap1\n      pop\n        /* \"#utility.yul\":2985:3178   */\n      swap3\n      swap2\n      pop\n      pop\n      jump\t// out\n        /* \"#utility.yul\":3184:3325   */\n    tag_53:\n        /* \"#utility.yul\":3260:3264   */\n      0x00\n        /* \"#utility.yul\":3283:3286   */\n      dup2\n        /* \"#utility.yul\":3275:3286   */\n      swap1\n      pop\n        /* \"#utility.yul\":3313:3317   */\n      0x20\n        /* \"#utility.yul\":3308:3311   */\n      dup3\n        /* \"#utility.yul\":3304:3318   */\n      add\n        /* \"#utility.yul\":3296:3318   */\n      swap1\n      pop\n        /* \"#utility.yul\":3184:3325   */\n      swap2\n      swap1\n      pop\n      jump\t// out\n        /* \"#utility.yul\":3331:3429   */\n    tag_54:\n        /* \"#utility.yul\":3382:3388   */\n      0x00\n        /* \"#utility.yul\":3416:3421   */\n      dup2\n        /* \"#utility.yul\":3410:3422   */\n      mload\n        /* \"#utility.yul\":3400:3422   */\n      swap1\n      pop\n        /* \"#utility.yul\":3331:3429   */\n      swap2\n      swap1\n      pop\n      jump\t// out\n        /* \"#utility.yul\":3435:3593   */\n    tag_55:\n        /* \"#utility.yul\":3508:3519   */\n      0x00\n        /* \"#utility.yul\":3542:3548   */\n      dup3\n        /* \"#utility.yul\":3537:3540   */\n      dup3\n        /* \"#utility.yul\":3530:3549   */\n      mstore\n        /* \"#utility.yul\":3582:3586   */\n      0x20\n        /* \"#utility.yul\":3577:3580   */\n      dup3\n        /* \"#utility.yul\":3573:3587   */\n      add\n        /* \"#utility.yul\":3558:3587   */\n      swap1\n      pop\n        /* \"#utility.yul\":3435:3593   */\n      swap3\n      swap2\n      pop\n      pop\n      jump\t// out\n        /* \"#utility.yul\":3599:3845   */\n    tag_56:\n        /* \"#utility.yul\":3680:3681   */\n      0x00\n        /* \"#utility.yul\":3690:3803   */\n    tag_115:\n        /* \"#utility.yul\":3704:3710   */\n      dup4\n        /* \"#utility.yul\":3701:3702   */\n      dup2\n        /* \"#utility.yul\":3698:3711   */\n      lt\n        /* \"#utility.yul\":3690:3803   */\n      iszero\n      tag_117\n      jumpi\n        /* \"#utility.yul\":3789:3790   */\n      dup1\n        /* \"#utility.yul\":3784:3787   */\n      dup3\n        /* \"#utility.yul\":3780:3791   */\n      add\n        /* \"#utility.yul\":3774:3792   */\n      mload\n        /* \"#utility.yul\":3770:3771   */\n      dup2\n        /* \"#utility.yul\":3765:3768   */\n      dup5\n        /* \"#utility.yul\":3761:3772   */\n      add\n        /* \"#utility.yul\":3754:3793   */\n      mstore\n        /* \"#utility.yul\":3726:3728   */\n      0x20\n        /* \"#utility.yul\":3723:3724   */\n      dup2\n        /* \"#utility.yul\":3719:3729   */\n      add\n        /* \"#utility.yul\":3714:3729   */\n      swap1\n      pop\n        /* \"#utility.yul\":3690:3803   */\n      jump(tag_115)\n    tag_117:\n        /* \"#utility.yul\":3837:3838   */\n      0x00\n        /* \"#utility.yul\":3828:3834   */\n      dup5\n        /* \"#utility.yul\":3823:3826   */\n      dup5\n        /* \"#utility.yul\":3819:3835   */\n      add\n        /* \"#utility.yul\":3812:3839   */\n      mstore\n        /* \"#utility.yul\":3661:3845   */\n      pop\n        /* \"#utility.yul\":3599:3845   */\n      pop\n      pop\n      pop\n      jump\t// out\n        /* \"#utility.yul\":3851:3953   */\n    tag_57:\n        /* \"#utility.yul\":3892:3898   */\n      0x00\n        /* \"#utility.yul\":3943:3945   */\n      0x1f\n        /* \"#utility.yul\":3939:3946   */\n      not\n        /* \"#utility.yul\":3934:3936   */\n      0x1f\n        /* \"#utility.yul\":3927:3932   */\n      dup4\n        /* \"#utility.yul\":3923:3937   */\n      add\n        /* \"#utility.yul\":3919:3947   */\n      and\n        /* \"#utility.yul\":3909:3947   */\n      swap1\n      pop\n        /* \"#utility.yul\":3851:3953   */\n      swap2\n      swap1\n      pop\n      jump\t// out\n        /* \"#utility.yul\":3959:4312   */\n    tag_58:\n        /* \"#utility.yul\":4035:4038   */\n      0x00\n        /* \"#utility.yul\":4063:4101   */\n      tag_120\n        /* \"#utility.yul\":4095:4100   */\n      dup3\n        /* \"#utility.yul\":4063:4101   */\n      tag_54\n      jump\t// in\n    tag_120:\n        /* \"#utility.yul\":4117:4177   */\n      tag_121\n        /* \"#utility.yul\":4170:4176   */\n      dup2\n        /* \"#utility.yul\":4165:4168   */\n      dup6\n        /* \"#utility.yul\":4117:4177   */\n      tag_55\n      jump\t// in\n    tag_121:\n        /* \"#utility.yul\":4110:4177   */\n      swap4\n      pop\n        /* \"#utility.yul\":4186:4251   */\n      tag_122\n        /* \"#utility.yul\":4244:4250   */\n      dup2\n        /* \"#utility.yul\":4239:4242   */\n      dup6\n        /* \"#utility.yul\":4232:4236   */\n      0x20\n        /* \"#utility.yul\":4225:4230   */\n      dup7\n        /* \"#utility.yul\":4221:4237   */\n      add\n        /* \"#utility.yul\":4186:4251   */\n      tag_56\n      jump\t// in\n    tag_122:\n        /* \"#utility.yul\":4276:4305   */\n      tag_123\n        /* \"#utility.yul\":4298:4304   */\n      dup2\n        /* \"#utility.yul\":4276:4305   */\n      tag_57\n      jump\t// in\n    tag_123:\n        /* \"#utility.yul\":4271:4274   */\n      dup5\n        /* \"#utility.yul\":4267:4306   */\n      add\n        /* \"#utility.yul\":4260:4306   */\n      swap2\n      pop\n        /* \"#utility.yul\":4039:4312   */\n      pop\n        /* \"#utility.yul\":3959:4312   */\n      swap3\n      swap2\n      pop\n      pop\n      jump\t// out\n        /* \"#utility.yul\":4318:4510   */\n    tag_59:\n        /* \"#utility.yul\":4405:4415   */\n      0x00\n        /* \"#utility.yul\":4440:4504   */\n      tag_125\n        /* \"#utility.yul\":4500:4503   */\n      dup4\n        /* \"#utility.yul\":4492:4498   */\n      dup4\n        /* \"#utility.yul\":4440:4504   */\n      tag_58\n      jump\t// in\n    tag_125:\n        /* \"#utility.yul\":4426:4504   */\n      swap1\n      pop\n        /* \"#utility.yul\":4318:4510   */\n      swap3\n      swap2\n      pop\n      pop\n      jump\t// out\n        /* \"#utility.yul\":4516:4638   */\n    tag_60:\n        /* \"#utility.yul\":4595:4599   */\n      0x00\n        /* \"#utility.yul\":4627:4631   */\n      0x20\n        /* \"#utility.yul\":4622:4625   */\n      dup3\n        /* \"#utility.yul\":4618:4632   */\n      add\n        /* \"#utility.yul\":4610:4632   */\n      swap1\n      pop\n        /* \"#utility.yul\":4516:4638   */\n      swap2\n      swap1\n      pop\n      jump\t// out\n        /* \"#utility.yul\":4670:5653   */\n    tag_61:\n        /* \"#utility.yul\":4807:4810   */\n      0x00\n        /* \"#utility.yul\":4836:4899   */\n      tag_128\n        /* \"#utility.yul\":4893:4898   */\n      dup3\n        /* \"#utility.yul\":4836:4899   */\n      tag_51\n      jump\t// in\n    tag_128:\n        /* \"#utility.yul\":4915:5010   */\n      tag_129\n        /* \"#utility.yul\":5003:5009   */\n      dup2\n        /* \"#utility.yul\":4998:5001   */\n      dup6\n        /* \"#utility.yul\":4915:5010   */\n      tag_52\n      jump\t// in\n    tag_129:\n        /* \"#utility.yul\":4908:5010   */\n      swap4\n      pop\n        /* \"#utility.yul\":5036:5039   */\n      dup4\n        /* \"#utility.yul\":5081:5085   */\n      0x20\n        /* \"#utility.yul\":5073:5079   */\n      dup3\n        /* \"#utility.yul\":5069:5086   */\n      mul\n        /* \"#utility.yul\":5064:5067   */\n      dup6\n        /* \"#utility.yul\":5060:5087   */\n      add\n        /* \"#utility.yul\":5111:5176   */\n      tag_130\n        /* \"#utility.yul\":5170:5175   */\n      dup6\n        /* \"#utility.yul\":5111:5176   */\n      tag_53\n      jump\t// in\n    tag_130:\n        /* \"#utility.yul\":5199:5206   */\n      dup1\n        /* \"#utility.yul\":5230:5231   */\n      0x00\n        /* \"#utility.yul\":5215:5608   */\n    tag_131:\n        /* \"#utility.yul\":5240:5246   */\n      dup6\n        /* \"#utility.yul\":5237:5238   */\n      dup2\n        /* \"#utility.yul\":5234:5247   */\n      lt\n        /* \"#utility.yul\":5215:5608   */\n      iszero\n      tag_133\n      jumpi\n        /* \"#utility.yul\":5311:5320   */\n      dup5\n        /* \"#utility.yul\":5305:5309   */\n      dup5\n        /* \"#utility.yul\":5301:5321   */\n      sub\n        /* \"#utility.yul\":5296:5299   */\n      dup10\n        /* \"#utility.yul\":5289:5322   */\n      mstore\n        /* \"#utility.yul\":5362:5368   */\n      dup2\n        /* \"#utility.yul\":5356:5369   */\n      mload\n        /* \"#utility.yul\":5390:5472   */\n      tag_134\n        /* \"#utility.yul\":5467:5471   */\n      dup6\n        /* \"#utility.yul\":5452:5465   */\n      dup3\n        /* \"#utility.yul\":5390:5472   */\n      tag_59\n      jump\t// in\n    tag_134:\n        /* \"#utility.yul\":5382:5472   */\n      swap5\n      pop\n        /* \"#utility.yul\":5495:5564   */\n      tag_135\n        /* \"#utility.yul\":5557:5563   */\n      dup4\n        /* \"#utility.yul\":5495:5564   */\n      tag_60\n      jump\t// in\n    tag_135:\n        /* \"#utility.yul\":5485:5564   */\n      swap3\n      pop\n        /* \"#utility.yul\":5593:5597   */\n      0x20\n        /* \"#utility.yul\":5588:5591   */\n      dup11\n        /* \"#utility.yul\":5584:5598   */\n      add\n        /* \"#utility.yul\":5577:5598   */\n      swap10\n      pop\n        /* \"#utility.yul\":5275:5608   */\n      pop\n        /* \"#utility.yul\":5262:5263   */\n      0x01\n        /* \"#utility.yul\":5259:5260   */\n      dup2\n        /* \"#utility.yul\":5255:5264   */\n      add\n        /* \"#utility.yul\":5250:5264   */\n      swap1\n      pop\n        /* \"#utility.yul\":5215:5608   */\n      jump(tag_131)\n    tag_133:\n        /* \"#utility.yul\":5219:5233   */\n      pop\n        /* \"#utility.yul\":5624:5628   */\n      dup3\n        /* \"#utility.yul\":5617:5628   */\n      swap8\n      pop\n        /* \"#utility.yul\":5644:5647   */\n      dup8\n        /* \"#utility.yul\":5637:5647   */\n      swap6\n      pop\n        /* \"#utility.yul\":4812:5653   */\n      pop\n      pop\n      pop\n      pop\n      pop\n        /* \"#utility.yul\":4670:5653   */\n      swap3\n      swap2\n      pop\n      pop\n      jump\t// out\n        /* \"#utility.yul\":5659:6068   */\n    tag_9:\n        /* \"#utility.yul\":5820:5824   */\n      0x00\n        /* \"#utility.yul\":5858:5860   */\n      0x20\n        /* \"#utility.yul\":5847:5856   */\n      dup3\n        /* \"#utility.yul\":5843:5861   */\n      add\n        /* \"#utility.yul\":5835:5861   */\n      swap1\n      pop\n        /* \"#utility.yul\":5907:5916   */\n      dup2\n        /* \"#utility.yul\":5901:5905   */\n      dup2\n        /* \"#utility.yul\":5897:5917   */\n      sub\n        /* \"#utility.yul\":5893:5894   */\n      0x00\n        /* \"#utility.yul\":5882:5891   */\n      dup4\n        /* \"#utility.yul\":5878:5895   */\n      add\n        /* \"#utility.yul\":5871:5918   */\n      mstore\n        /* \"#utility.yul\":5935:6061   */\n      tag_137\n        /* \"#utility.yul\":6056:6060   */\n      dup2\n        /* \"#utility.yul\":6047:6053   */\n      dup5\n        /* \"#utility.yul\":5935:6061   */\n      tag_61\n      jump\t// in\n    tag_137:\n        /* \"#utility.yul\":5927:6061   */\n      swap1\n      pop\n        /* \"#utility.yul\":5659:6068   */\n      swap3\n      swap2\n      pop\n      pop\n      jump\t// out\n        /* \"#utility.yul\":6074:6243   */\n    tag_62:\n        /* \"#utility.yul\":6158:6169   */\n      0x00\n        /* \"#utility.yul\":6192:6198   */\n      dup3\n        /* \"#utility.yul\":6187:6190   */\n      dup3\n        /* \"#utility.yul\":6180:6199   */\n      mstore\n        /* \"#utility.yul\":6232:6236   */\n      0x20\n        /* \"#utility.yul\":6227:6230   */\n      dup3\n        /* \"#utility.yul\":6223:6237   */\n      add\n        /* \"#utility.yul\":6208:6237   */\n      swap1\n      pop\n        /* \"#utility.yul\":6074:6243   */\n      swap3\n      swap2\n      pop\n      pop\n      jump\t// out\n        /* \"#utility.yul\":6249:6427   */\n    tag_63:\n        /* \"#utility.yul\":6389:6419   */\n      0x746172676574206c656e67746820213d2064617461206c656e67746800000000\n        /* \"#utility.yul\":6385:6386   */\n      0x00\n        /* \"#utility.yul\":6377:6383   */\n      dup3\n        /* \"#utility.yul\":6373:6387   */\n      add\n        /* \"#utility.yul\":6366:6420   */\n      mstore\n        /* \"#utility.yul\":6249:6427   */\n      pop\n      jump\t// out\n        /* \"#utility.yul\":6433:6799   */\n    tag_64:\n        /* \"#utility.yul\":6575:6578   */\n      0x00\n        /* \"#utility.yul\":6596:6663   */\n      tag_141\n        /* \"#utility.yul\":6660:6662   */\n      0x1c\n        /* \"#utility.yul\":6655:6658   */\n      dup4\n        /* \"#utility.yul\":6596:6663   */\n      tag_62\n      jump\t// in\n    tag_141:\n        /* \"#utility.yul\":6589:6663   */\n      swap2\n      pop\n        /* \"#utility.yul\":6672:6765   */\n      tag_142\n        /* \"#utility.yul\":6761:6764   */\n      dup3\n        /* \"#utility.yul\":6672:6765   */\n      tag_63\n      jump\t// in\n    tag_142:\n        /* \"#utility.yul\":6790:6792   */\n      0x20\n        /* \"#utility.yul\":6785:6788   */\n      dup3\n        /* \"#utility.yul\":6781:6793   */\n      add\n        /* \"#utility.yul\":6774:6793   */\n      swap1\n      pop\n        /* \"#utility.yul\":6433:6799   */\n      swap2\n      swap1\n      pop\n      jump\t// out\n        /* \"#utility.yul\":6805:7224   */\n    tag_13:\n        /* \"#utility.yul\":6971:6975   */\n      0x00\n        /* \"#utility.yul\":7009:7011   */\n      0x20\n        /* \"#utility.yul\":6998:7007   */\n      dup3\n        /* \"#utility.yul\":6994:7012   */\n      add\n        /* \"#utility.yul\":6986:7012   */\n      swap1\n      pop\n        /* \"#utility.yul\":7058:7067   */\n      dup2\n        /* \"#utility.yul\":7052:7056   */\n      dup2\n        /* \"#utility.yul\":7048:7068   */\n      sub\n        /* \"#utility.yul\":7044:7045   */\n      0x00\n        /* \"#utility.yul\":7033:7042   */\n      dup4\n        /* \"#utility.yul\":7029:7046   */\n      add\n        /* \"#utility.yul\":7022:7069   */\n      mstore\n        /* \"#utility.yul\":7086:7217   */\n      tag_144\n        /* \"#utility.yul\":7212:7216   */\n      dup2\n        /* \"#utility.yul\":7086:7217   */\n      tag_64\n      jump\t// in\n    tag_144:\n        /* \"#utility.yul\":7078:7217   */\n      swap1\n      pop\n        /* \"#utility.yul\":6805:7224   */\n      swap2\n      swap1\n      pop\n      jump\t// out\n        /* \"#utility.yul\":7230:7410   */\n    tag_16:\n        /* \"#utility.yul\":7278:7355   */\n      0x4e487b7100000000000000000000000000000000000000000000000000000000\n        /* \"#utility.yul\":7275:7276   */\n      0x00\n        /* \"#utility.yul\":7268:7356   */\n      mstore\n        /* \"#utility.yul\":7375:7379   */\n      0x41\n        /* \"#utility.yul\":7372:7373   */\n      0x04\n        /* \"#utility.yul\":7365:7380   */\n      mstore\n        /* \"#utility.yul\":7399:7403   */\n      0x24\n        /* \"#utility.yul\":7396:7397   */\n      0x00\n        /* \"#utility.yul\":7389:7404   */\n      revert\n        /* \"#utility.yul\":7416:7596   */\n    tag_24:\n        /* \"#utility.yul\":7464:7541   */\n      0x4e487b7100000000000000000000000000000000000000000000000000000000\n        /* \"#utility.yul\":7461:7462   */\n      0x00\n        /* \"#utility.yul\":7454:7542   */\n      mstore\n        /* \"#utility.yul\":7561:7565   */\n      0x32\n        /* \"#utility.yul\":7558:7559   */\n      0x04\n        /* \"#utility.yul\":7551:7566   */\n      mstore\n        /* \"#utility.yul\":7585:7589   */\n      0x24\n        /* \"#utility.yul\":7582:7583   */\n      0x00\n        /* \"#utility.yul\":7575:7590   */\n      revert\n        /* \"#utility.yul\":7602:7728   */\n    tag_65:\n        /* \"#utility.yul\":7639:7646   */\n      0x00\n        /* \"#utility.yul\":7679:7721   */\n      0xffffffffffffffffffffffffffffffffffffffff\n        /* \"#utility.yul\":7672:7677   */\n      dup3\n        /* \"#utility.yul\":7668:7722   */\n      and\n        /* \"#utility.yul\":7657:7722   */\n      swap1\n      pop\n        /* \"#utility.yul\":7602:7728   */\n      swap2\n      swap1\n      pop\n      jump\t// out\n        /* \"#utility.yul\":7734:7830   */\n    tag_66:\n        /* \"#utility.yul\":7771:7778   */\n      0x00\n        /* \"#utility.yul\":7800:7824   */\n      tag_149\n        /* \"#utility.yul\":7818:7823   */\n      dup3\n        /* \"#utility.yul\":7800:7824   */\n      tag_65\n      jump\t// in\n    tag_149:\n        /* \"#utility.yul\":7789:7824   */\n      swap1\n      pop\n        /* \"#utility.yul\":7734:7830   */\n      swap2\n      swap1\n      pop\n      jump\t// out\n        /* \"#utility.yul\":7836:7958   */\n    tag_67:\n        /* \"#utility.yul\":7909:7933   */\n      tag_151\n        /* \"#utility.yul\":7927:7932   */\n      dup2\n        /* \"#utility.yul\":7909:7933   */\n      tag_66\n      jump\t// in\n    tag_151:\n        /* \"#utility.yul\":7902:7907   */\n      dup2\n        /* \"#utility.yul\":7899:7934   */\n      eq\n        /* \"#utility.yul\":7889:7952   */\n      tag_152\n      jumpi\n        /* \"#utility.yul\":7948:7949   */\n      0x00\n        /* \"#utility.yul\":7945:7946   */\n      dup1\n        /* \"#utility.yul\":7938:7950   */\n      revert\n        /* \"#utility.yul\":7889:7952   */\n    tag_152:\n        /* \"#utility.yul\":7836:7958   */\n      pop\n      jump\t// out\n        /* \"#utility.yul\":7964:8103   */\n    tag_68:\n        /* \"#utility.yul\":8010:8015   */\n      0x00\n        /* \"#utility.yul\":8048:8054   */\n      dup2\n        /* \"#utility.yul\":8035:8055   */\n      calldataload\n        /* \"#utility.yul\":8026:8055   */\n      swap1\n      pop\n        /* \"#utility.yul\":8064:8097   */\n      tag_154\n        /* \"#utility.yul\":8091:8096   */\n      dup2\n        /* \"#utility.yul\":8064:8097   */\n      tag_67\n      jump\t// in\n    tag_154:\n        /* \"#utility.yul\":7964:8103   */\n      swap3\n      swap2\n      pop\n      pop\n      jump\t// out\n        /* \"#utility.yul\":8109:8438   */\n    tag_26:\n        /* \"#utility.yul\":8168:8174   */\n      0x00\n        /* \"#utility.yul\":8217:8219   */\n      0x20\n        /* \"#utility.yul\":8205:8214   */\n      dup3\n        /* \"#utility.yul\":8196:8203   */\n      dup5\n        /* \"#utility.yul\":8192:8215   */\n      sub\n        /* \"#utility.yul\":8188:8220   */\n      slt\n        /* \"#utility.yul\":8185:8304   */\n      iszero\n      tag_156\n      jumpi\n        /* \"#utility.yul\":8223:8302   */\n      tag_157\n      tag_44\n      jump\t// in\n    tag_157:\n        /* \"#utility.yul\":8185:8304   */\n    tag_156:\n        /* \"#utility.yul\":8343:8344   */\n      0x00\n        /* \"#utility.yul\":8368:8421   */\n      tag_158\n        /* \"#utility.yul\":8413:8420   */\n      dup5\n        /* \"#utility.yul\":8404:8410   */\n      dup3\n        /* \"#utility.yul\":8393:8402   */\n      dup6\n        /* \"#utility.yul\":8389:8411   */\n      add\n        /* \"#utility.yul\":8368:8421   */\n      tag_68\n      jump\t// in\n    tag_158:\n        /* \"#utility.yul\":8358:8421   */\n      swap2\n      pop\n        /* \"#utility.yul\":8314:8431   */\n      pop\n        /* \"#utility.yul\":8109:8438   */\n      swap3\n      swap2\n      pop\n      pop\n      jump\t// out\n        /* \"#utility.yul\":8444:8561   */\n    tag_69:\n        /* \"#utility.yul\":8553:8554   */\n      0x00\n        /* \"#utility.yul\":8550:8551   */\n      dup1\n        /* \"#utility.yul\":8543:8555   */\n      revert\n        /* \"#utility.yul\":8567:8684   */\n    tag_70:\n        /* \"#utility.yul\":8676:8677   */\n      0x00\n        /* \"#utility.yul\":8673:8674   */\n      dup1\n        /* \"#utility.yul\":8666:8678   */\n      revert\n        /* \"#utility.yul\":8690:8807   */\n    tag_71:\n        /* \"#utility.yul\":8799:8800   */\n      0x00\n        /* \"#utility.yul\":8796:8797   */\n      dup1\n        /* \"#utility.yul\":8789:8801   */\n      revert\n        /* \"#utility.yul\":8813:9537   */\n    tag_30:\n        /* \"#utility.yul\":8890:8894   */\n      0x00\n        /* \"#utility.yul\":8896:8902   */\n      dup1\n        /* \"#utility.yul\":8952:8963   */\n      dup4\n        /* \"#utility.yul\":8939:8964   */\n      calldataload\n        /* \"#utility.yul\":9052:9053   */\n      0x01\n        /* \"#utility.yul\":9046:9050   */\n      0x20\n        /* \"#utility.yul\":9042:9054   */\n      sub\n        /* \"#utility.yul\":9031:9039   */\n      dup5\n        /* \"#utility.yul\":9015:9029   */\n      calldatasize\n        /* \"#utility.yul\":9011:9040   */\n      sub\n        /* \"#utility.yul\":9007:9055   */\n      sub\n        /* \"#utility.yul\":8987:9005   */\n      dup2\n        /* \"#utility.yul\":8983:9056   */\n      slt\n        /* \"#utility.yul\":8973:9141   */\n      tag_163\n      jumpi\n        /* \"#utility.yul\":9060:9139   */\n      tag_164\n      tag_69\n      jump\t// in\n    tag_164:\n        /* \"#utility.yul\":8973:9141   */\n    tag_163:\n        /* \"#utility.yul\":9172:9190   */\n      dup1\n        /* \"#utility.yul\":9162:9170   */\n      dup5\n        /* \"#utility.yul\":9158:9191   */\n      add\n        /* \"#utility.yul\":9150:9191   */\n      swap3\n      pop\n        /* \"#utility.yul\":9224:9228   */\n      dup3\n        /* \"#utility.yul\":9211:9229   */\n      calldataload\n        /* \"#utility.yul\":9201:9229   */\n      swap2\n      pop\n        /* \"#utility.yul\":9252:9270   */\n      0xffffffffffffffff\n        /* \"#utility.yul\":9244:9250   */\n      dup3\n        /* \"#utility.yul\":9241:9271   */\n      gt\n        /* \"#utility.yul\":9238:9355   */\n      iszero\n      tag_165\n      jumpi\n        /* \"#utility.yul\":9274:9353   */\n      tag_166\n      tag_70\n      jump\t// in\n    tag_166:\n        /* \"#utility.yul\":9238:9355   */\n    tag_165:\n        /* \"#utility.yul\":9382:9384   */\n      0x20\n        /* \"#utility.yul\":9376:9380   */\n      dup4\n        /* \"#utility.yul\":9372:9385   */\n      add\n        /* \"#utility.yul\":9364:9385   */\n      swap3\n      pop\n        /* \"#utility.yul\":9439:9443   */\n      0x01\n        /* \"#utility.yul\":9431:9437   */\n      dup3\n        /* \"#utility.yul\":9427:9444   */\n      mul\n        /* \"#utility.yul\":9411:9425   */\n      calldatasize\n        /* \"#utility.yul\":9407:9445   */\n      sub\n        /* \"#utility.yul\":9401:9405   */\n      dup4\n        /* \"#utility.yul\":9397:9446   */\n      sgt\n        /* \"#utility.yul\":9394:9530   */\n      iszero\n      tag_167\n      jumpi\n        /* \"#utility.yul\":9449:9528   */\n      tag_168\n      tag_71\n      jump\t// in\n    tag_168:\n        /* \"#utility.yul\":9394:9530   */\n    tag_167:\n        /* \"#utility.yul\":8903:9537   */\n      pop\n        /* \"#utility.yul\":8813:9537   */\n      swap3\n      pop\n      swap3\n      swap1\n      pop\n      jump\t// out\n        /* \"#utility.yul\":9543:9690   */\n    tag_72:\n        /* \"#utility.yul\":9644:9655   */\n      0x00\n        /* \"#utility.yul\":9681:9684   */\n      dup2\n        /* \"#utility.yul\":9666:9684   */\n      swap1\n      pop\n        /* \"#utility.yul\":9543:9690   */\n      swap3\n      swap2\n      pop\n      pop\n      jump\t// out\n        /* \"#utility.yul\":9696:9842   */\n    tag_73:\n        /* \"#utility.yul\":9793:9799   */\n      dup3\n        /* \"#utility.yul\":9788:9791   */\n      dup2\n        /* \"#utility.yul\":9783:9786   */\n      dup4\n        /* \"#utility.yul\":9770:9800   */\n      calldatacopy\n        /* \"#utility.yul\":9834:9835   */\n      0x00\n        /* \"#utility.yul\":9825:9831   */\n      dup4\n        /* \"#utility.yul\":9820:9823   */\n      dup4\n        /* \"#utility.yul\":9816:9832   */\n      add\n        /* \"#utility.yul\":9809:9836   */\n      mstore\n        /* \"#utility.yul\":9696:9842   */\n      pop\n      pop\n      pop\n      jump\t// out\n        /* \"#utility.yul\":9870:10197   */\n    tag_74:\n        /* \"#utility.yul\":9984:9987   */\n      0x00\n        /* \"#utility.yul\":10005:10093   */\n      tag_172\n        /* \"#utility.yul\":10086:10092   */\n      dup4\n        /* \"#utility.yul\":10081:10084   */\n      dup6\n        /* \"#utility.yul\":10005:10093   */\n      tag_72\n      jump\t// in\n    tag_172:\n        /* \"#utility.yul\":9998:10093   */\n      swap4\n      pop\n        /* \"#utility.yul\":10103:10159   */\n      tag_173\n        /* \"#utility.yul\":10152:10158   */\n      dup4\n        /* \"#utility.yul\":10147:10150   */\n      dup6\n        /* \"#utility.yul\":10140:10145   */\n      dup5\n        /* \"#utility.yul\":10103:10159   */\n      tag_73\n      jump\t// in\n    tag_173:\n        /* \"#utility.yul\":10184:10190   */\n      dup3\n        /* \"#utility.yul\":10179:10182   */\n      dup5\n        /* \"#utility.yul\":10175:10191   */\n      add\n        /* \"#utility.yul\":10168:10191   */\n      swap1\n      pop\n        /* \"#utility.yul\":9870:10197   */\n      swap4\n      swap3\n      pop\n      pop\n      pop\n      jump\t// out\n        /* \"#utility.yul\":10203:10494   */\n    tag_32:\n        /* \"#utility.yul\":10343:10346   */\n      0x00\n        /* \"#utility.yul\":10365:10468   */\n      tag_175\n        /* \"#utility.yul\":10464:10467   */\n      dup3\n        /* \"#utility.yul\":10455:10461   */\n      dup5\n        /* \"#utility.yul\":10447:10453   */\n      dup7\n        /* \"#utility.yul\":10365:10468   */\n      tag_74\n      jump\t// in\n    tag_175:\n        /* \"#utility.yul\":10358:10468   */\n      swap2\n      pop\n        /* \"#utility.yul\":10485:10488   */\n      dup2\n        /* \"#utility.yul\":10478:10488   */\n      swap1\n      pop\n        /* \"#utility.yul\":10203:10494   */\n      swap4\n      swap3\n      pop\n      pop\n      pop\n      jump\t// out\n        /* \"#utility.yul\":10500:10661   */\n    tag_75:\n        /* \"#utility.yul\":10640:10653   */\n      0x63616c6c206661696c6564000000000000000000000000000000000000000000\n        /* \"#utility.yul\":10636:10637   */\n      0x00\n        /* \"#utility.yul\":10628:10634   */\n      dup3\n        /* \"#utility.yul\":10624:10638   */\n      add\n        /* \"#utility.yul\":10617:10654   */\n      mstore\n        /* \"#utility.yul\":10500:10661   */\n      pop\n      jump\t// out\n        /* \"#utility.yul\":10667:11033   */\n    tag_76:\n        /* \"#utility.yul\":10809:10812   */\n      0x00\n        /* \"#utility.yul\":10830:10897   */\n      tag_178\n        /* \"#utility.yul\":10894:10896   */\n      0x0b\n        /* \"#utility.yul\":10889:10892   */\n      dup4\n        /* \"#utility.yul\":10830:10897   */\n      tag_62\n      jump\t// in\n    tag_178:\n        /* \"#utility.yul\":10823:10897   */\n      swap2\n      pop\n        /* \"#utility.yul\":10906:10999   */\n      tag_179\n        /* \"#utility.yul\":10995:10998   */\n      dup3\n        /* \"#utility.yul\":10906:10999   */\n      tag_75\n      jump\t// in\n    tag_179:\n        /* \"#utility.yul\":11024:11026   */\n      0x20\n        /* \"#utility.yul\":11019:11022   */\n      dup3\n        /* \"#utility.yul\":11015:11027   */\n      add\n        /* \"#utility.yul\":11008:11027   */\n      swap1\n      pop\n        /* \"#utility.yul\":10667:11033   */\n      swap2\n      swap1\n      pop\n      jump\t// out\n        /* \"#utility.yul\":11039:11458   */\n    tag_38:\n        /* \"#utility.yul\":11205:11209   */\n      0x00\n        /* \"#utility.yul\":11243:11245   */\n      0x20\n        /* \"#utility.yul\":11232:11241   */\n      dup3\n        /* \"#utility.yul\":11228:11246   */\n      add\n        /* \"#utility.yul\":11220:11246   */\n      swap1\n      pop\n        /* \"#utility.yul\":11292:11301   */\n      dup2\n        /* \"#utility.yul\":11286:11290   */\n      dup2\n        /* \"#utility.yul\":11282:11302   */\n      sub\n        /* \"#utility.yul\":11278:11279   */\n      0x00\n        /* \"#utility.yul\":11267:11276   */\n      dup4\n        /* \"#utility.yul\":11263:11280   */\n      add\n        /* \"#utility.yul\":11256:11303   */\n      mstore\n        /* \"#utility.yul\":11320:11451   */\n      tag_181\n        /* \"#utility.yul\":11446:11450   */\n      dup2\n        /* \"#utility.yul\":11320:11451   */\n      tag_76\n      jump\t// in\n    tag_181:\n        /* \"#utility.yul\":11312:11451   */\n      swap1\n      pop\n        /* \"#utility.yul\":11039:11458   */\n      swap2\n      swap1\n      pop\n      jump\t// out\n        /* \"#utility.yul\":11464:11644   */\n    tag_77:\n        /* \"#utility.yul\":11512:11589   */\n      0x4e487b7100000000000000000000000000000000000000000000000000000000\n        /* \"#utility.yul\":11509:11510   */\n      0x00\n        /* \"#utility.yul\":11502:11590   */\n      mstore\n        /* \"#utility.yul\":11609:11613   */\n      0x11\n        /* \"#utility.yul\":11606:11607   */\n      0x04\n        /* \"#utility.yul\":11599:11614   */\n      mstore\n        /* \"#utility.yul\":11633:11637   */\n      0x24\n        /* \"#utility.yul\":11630:11631   */\n      0x00\n        /* \"#utility.yul\":11623:11638   */\n      revert\n        /* \"#utility.yul\":11650:11727   */\n    tag_78:\n        /* \"#utility.yul\":11687:11694   */\n      0x00\n        /* \"#utility.yul\":11716:11721   */\n      dup2\n        /* \"#utility.yul\":11705:11721   */\n      swap1\n      pop\n        /* \"#utility.yul\":11650:11727   */\n      swap2\n      swap1\n      pop\n      jump\t// out\n        /* \"#utility.yul\":11733:11966   */\n    tag_42:\n        /* \"#utility.yul\":11772:11775   */\n      0x00\n        /* \"#utility.yul\":11795:11819   */\n      tag_185\n        /* \"#utility.yul\":11813:11818   */\n      dup3\n        /* \"#utility.yul\":11795:11819   */\n      tag_78\n      jump\t// in\n    tag_185:\n        /* \"#utility.yul\":11786:11819   */\n      swap2\n      pop\n        /* \"#utility.yul\":11841:11907   */\n      0xffffffffffffffffffffffffffffffffffffffffffffffffffffffffffffffff\n        /* \"#utility.yul\":11834:11839   */\n      dup3\n        /* \"#utility.yul\":11831:11908   */\n      sub\n        /* \"#utility.yul\":11828:11931   */\n      tag_186\n      jumpi\n        /* \"#utility.yul\":11911:11929   */\n      tag_187\n      tag_77\n      jump\t// in\n    tag_187:\n        /* \"#utility.yul\":11828:11931   */\n    tag_186:\n        /* \"#utility.yul\":11958:11959   */\n      0x01\n        /* \"#utility.yul\":11951:11956   */\n      dup3\n        /* \"#utility.yul\":11947:11960   */\n      add\n        /* \"#utility.yul\":11940:11960   */\n      swap1\n      pop\n        /* \"#utility.yul\":11733:11966   */\n      swap2\n      swap1\n      pop\n      jump\t// out\n\n    auxdata: 0xa2646970667358221220653574d623fd4d11f51443d195ba040a71ea2458c28b68e0ea44f9f666e5644864736f6c63430008110033\n}\n",
				"bytecode": {
					"linkReferences": {},
					"object": "608060405234801561001057600080fd5b50610854806100206000396000f3fe608060405234801561001057600080fd5b506004361061002b5760003560e01c8063da5b4ffd14610030575b600080fd5b61004a6004803603810190610045919061030c565b610060565b60405161005791906104df565b60405180910390f35b60608282905085859050146100aa576040517f08c379a00000000000000000000000000000000000000000000000000000000081526004016100a19061055e565b60405180910390fd5b60008383905067ffffffffffffffff8111156100c9576100c861057e565b5b6040519080825280602002602001820160405280156100fc57816020015b60608152602001906001900390816100e75790505b50905060005b8686905081101561023a57600080888884818110610123576101226105ad565b5b9050602002016020810190610138919061063a565b73ffffffffffffffffffffffffffffffffffffffff16878785818110610161576101606105ad565b5b90506020028101906101739190610676565b604051610181929190610718565b600060405180830381855afa9150503d80600081146101bc576040519150601f19603f3d011682016040523d82523d6000602084013e6101c1565b606091505b509150915081610206576040517f08c379a00000000000000000000000000000000000000000000000000000000081526004016101fd9061077d565b60405180910390fd5b8084848151811061021a576102196105ad565b5b602002602001018190525050508080610232906107d6565b915050610102565b5080915050949350505050565b600080fd5b600080fd5b600080fd5b600080fd5b600080fd5b60008083601f84011261027657610275610251565b5b8235905067ffffffffffffffff81111561029357610292610256565b5b6020830191508360208202830111156102af576102ae61025b565b5b9250929050565b60008083601f8401126102cc576102cb610251565b5b8235905067ffffffffffffffff8111156102e9576102e8610256565b5b6020830191508360208202830111156103055761030461025b565b5b9250929050565b6000806000806040858703121561032657610325610247565b5b600085013567ffffffffffffffff8111156103445761034361024c565b5b61035087828801610260565b9450945050602085013567ffffffffffffffff8111156103735761037261024c565b5b61037f878288016102b6565b925092505092959194509250565b600081519050919050565b600082825260208201905092915050565b6000819050602082019050919050565b600081519050919050565b600082825260208201905092915050565b60005b838110156103f35780820151818401526020810190506103d8565b60008484015250505050565b6000601f19601f8301169050919050565b600061041b826103b9565b61042581856103c4565b93506104358185602086016103d5565b61043e816103ff565b840191505092915050565b60006104558383610410565b905092915050565b6000602082019050919050565b60006104758261038d565b61047f8185610398565b935083602082028501610491856103a9565b8060005b858110156104cd57848403895281516104ae8582610449565b94506104b98361045d565b925060208a01995050600181019050610495565b50829750879550505050505092915050565b600060208201905081810360008301526104f9818461046a565b905092915050565b600082825260208201905092915050565b7f746172676574206c656e67746820213d2064617461206c656e67746800000000600082015250565b6000610548601c83610501565b915061055382610512565b602082019050919050565b600060208201905081810360008301526105778161053b565b9050919050565b7f4e487b7100000000000000000000000000000000000000000000000000000000600052604160045260246000fd5b7f4e487b7100000000000000000000000000000000000000000000000000000000600052603260045260246000fd5b600073ffffffffffffffffffffffffffffffffffffffff82169050919050565b6000610607826105dc565b9050919050565b610617816105fc565b811461062257600080fd5b50565b6000813590506106348161060e565b92915050565b6000602082840312156106505761064f610247565b5b600061065e84828501610625565b91505092915050565b600080fd5b600080fd5b600080fd5b6000808335600160200384360303811261069357610692610667565b5b80840192508235915067ffffffffffffffff8211156106b5576106b461066c565b5b6020830192506001820236038313156106d1576106d0610671565b5b509250929050565b600081905092915050565b82818337600083830152505050565b60006106ff83856106d9565b935061070c8385846106e4565b82840190509392505050565b60006107258284866106f3565b91508190509392505050565b7f63616c6c206661696c6564000000000000000000000000000000000000000000600082015250565b6000610767600b83610501565b915061077282610731565b602082019050919050565b600060208201905081810360008301526107968161075a565b9050919050565b7f4e487b7100000000000000000000000000000000000000000000000000000000600052601160045260246000fd5b6000819050919050565b60006107e1826107cc565b91507fffffffffffffffffffffffffffffffffffffffffffffffffffffffffffffffff82036108135761081261079d565b5b60018201905091905056fea2646970667358221220653574d623fd4d11f51443d195ba040a71ea2458c28b68e0ea44f9f666e5644864736f6c63430008110033",
					"opcodes": "PUSH1 0x80 PUSH1 0x40 MSTORE CALLVALUE DUP1 ISZERO PUSH2 0x10 JUMPI PUSH1 0x0 DUP1 REVERT JUMPDEST POP PUSH2 0x854 DUP1 PUSH2 0x20 PUSH1 0x0 CODECOPY PUSH1 0x0 RETURN INVALID PUSH1 0x80 PUSH1 0x40 MSTORE CALLVALUE DUP1 ISZERO PUSH2 0x10 JUMPI PUSH1 0x0 DUP1 REVERT JUMPDEST POP PUSH1 0x4 CALLDATASIZE LT PUSH2 0x2B JUMPI PUSH1 0x0 CALLDATALOAD PUSH1 0xE0 SHR DUP1 PUSH4 0xDA5B4FFD EQ PUSH2 0x30 JUMPI JUMPDEST PUSH1 0x0 DUP1 REVERT JUMPDEST PUSH2 0x4A PUSH1 0x4 DUP1 CALLDATASIZE SUB DUP2 ADD SWAP1 PUSH2 0x45 SWAP2 SWAP1 PUSH2 0x30C JUMP JUMPDEST PUSH2 0x60 JUMP JUMPDEST PUSH1 0x40 MLOAD PUSH2 0x57 SWAP2 SWAP1 PUSH2 0x4DF JUMP JUMPDEST PUSH1 0x40 MLOAD DUP1 SWAP2 SUB SWAP1 RETURN JUMPDEST PUSH1 0x60 DUP3 DUP3 SWAP1 POP DUP6 DUP6 SWAP1 POP EQ PUSH2 0xAA JUMPI PUSH1 0x40 MLOAD PUSH32 0x8C379A000000000000000000000000000000000000000000000000000000000 DUP2 MSTORE PUSH1 0x4 ADD PUSH2 0xA1 SWAP1 PUSH2 0x55E JUMP JUMPDEST PUSH1 0x40 MLOAD DUP1 SWAP2 SUB SWAP1 REVERT JUMPDEST PUSH1 0x0 DUP4 DUP4 SWAP1 POP PUSH8 0xFFFFFFFFFFFFFFFF DUP2 GT ISZERO PUSH2 0xC9 JUMPI PUSH2 0xC8 PUSH2 0x57E JUMP JUMPDEST JUMPDEST PUSH1 0x40 MLOAD SWAP1 DUP1 DUP3 MSTORE DUP1 PUSH1 0x20 MUL PUSH1 0x20 ADD DUP3 ADD PUSH1 0x40 MSTORE DUP1 ISZERO PUSH2 0xFC JUMPI DUP2 PUSH1 0x20 ADD JUMPDEST PUSH1 0x60 DUP2 MSTORE PUSH1 0x20 ADD SWAP1 PUSH1 0x1 SWAP1 SUB SWAP1 DUP2 PUSH2 0xE7 JUMPI SWAP1 POP JUMPDEST POP SWAP1 POP PUSH1 0x0 JUMPDEST DUP7 DUP7 SWAP1 POP DUP2 LT ISZERO PUSH2 0x23A JUMPI PUSH1 0x0 DUP1 DUP9 DUP9 DUP5 DUP2 DUP2 LT PUSH2 0x123 JUMPI PUSH2 0x122 PUSH2 0x5AD JUMP JUMPDEST JUMPDEST SWAP1 POP PUSH1 0x20 MUL ADD PUSH1 0x20 DUP2 ADD SWAP1 PUSH2 0x138 SWAP2 SWAP1 PUSH2 0x63A JUMP JUMPDEST PUSH20 0xFFFFFFFFFFFFFFFFFFFFFFFFFFFFFFFFFFFFFFFF AND DUP8 DUP8 DUP6 DUP2 DUP2 LT PUSH2 0x161 JUMPI PUSH2 0x160 PUSH2 0x5AD JUMP JUMPDEST JUMPDEST SWAP1 POP PUSH1 0x20 MUL DUP2 ADD SWAP1 PUSH2 0x173 SWAP2 SWAP1 PUSH2 0x676 JUMP JUMPDEST PUSH1 0x40 MLOAD PUSH2 0x181 SWAP3 SWAP2 SWAP1 PUSH2 0x718 JUMP JUMPDEST PUSH1 0x0 PUSH1 0x40 MLOAD DUP1 DUP4 SUB DUP2 DUP6 GAS STATICCALL SWAP2 POP POP RETURNDATASIZE DUP1 PUSH1 0x0 DUP2 EQ PUSH2 0x1BC JUMPI PUSH1 0x40 MLOAD SWAP2 POP PUSH1 0x1F NOT PUSH1 0x3F RETURNDATASIZE ADD AND DUP3 ADD PUSH1 0x40 MSTORE RETURNDATASIZE DUP3 MSTORE RETURNDATASIZE PUSH1 0x0 PUSH1 0x20 DUP5 ADD RETURNDATACOPY PUSH2 0x1C1 JUMP JUMPDEST PUSH1 0x60 SWAP2 POP JUMPDEST POP SWAP2 POP SWAP2 POP DUP2 PUSH2 0x206 JUMPI PUSH1 0x40 MLOAD PUSH32 0x8C379A000000000000000000000000000000000000000000000000000000000 DUP2 MSTORE PUSH1 0x4 ADD PUSH2 0x1FD SWAP1 PUSH2 0x77D JUMP JUMPDEST PUSH1 0x40 MLOAD DUP1 SWAP2 SUB SWAP1 REVERT JUMPDEST DUP1 DUP5 DUP5 DUP2 MLOAD DUP2 LT PUSH2 0x21A JUMPI PUSH2 0x219 PUSH2 0x5AD JUMP JUMPDEST JUMPDEST PUSH1 0x20 MUL PUSH1 0x20 ADD ADD DUP2 SWAP1 MSTORE POP POP POP DUP1 DUP1 PUSH2 0x232 SWAP1 PUSH2 0x7D6 JUMP JUMPDEST SWAP2 POP POP PUSH2 0x102 JUMP JUMPDEST POP DUP1 SWAP2 POP POP SWAP5 SWAP4 POP POP POP POP JUMP JUMPDEST PUSH1 0x0 DUP1 REVERT JUMPDEST PUSH1 0x0 DUP1 REVERT JUMPDEST PUSH1 0x0 DUP1 REVERT JUMPDEST PUSH1 0x0 DUP1 REVERT JUMPDEST PUSH1 0x0 DUP1 REVERT JUMPDEST PUSH1 0x0 DUP1 DUP4 PUSH1 0x1F DUP5 ADD SLT PUSH2 0x276 JUMPI PUSH2 0x275 PUSH2 0x251 JUMP JUMPDEST JUMPDEST DUP3 CALLDATALOAD SWAP1 POP PUSH8 0xFFFFFFFFFFFFFFFF DUP2 GT ISZERO PUSH2 0x293 JUMPI PUSH2 0x292 PUSH2 0x256 JUMP JUMPDEST JUMPDEST PUSH1 0x20 DUP4 ADD SWAP2 POP DUP4 PUSH1 0x20 DUP3 MUL DUP4 ADD GT ISZERO PUSH2 0x2AF JUMPI PUSH2 0x2AE PUSH2 0x25B JUMP JUMPDEST JUMPDEST SWAP3 POP SWAP3 SWAP1 POP JUMP JUMPDEST PUSH1 0x0 DUP1 DUP4 PUSH1 0x1F DUP5 ADD SLT PUSH2 0x2CC JUMPI PUSH2 0x2CB PUSH2 0x251 JUMP JUMPDEST JUMPDEST DUP3 CALLDATALOAD SWAP1 POP PUSH8 0xFFFFFFFFFFFFFFFF DUP2 GT ISZERO PUSH2 0x2E9 JUMPI PUSH2 0x2E8 PUSH2 0x256 JUMP JUMPDEST JUMPDEST PUSH1 0x20 DUP4 ADD SWAP2 POP DUP4 PUSH1 0x20 DUP3 MUL DUP4 ADD GT ISZERO PUSH2 0x305 JUMPI PUSH2 0x304 PUSH2 0x25B JUMP JUMPDEST JUMPDEST SWAP3 POP SWAP3 SWAP1 POP JUMP JUMPDEST PUSH1 0x0 DUP1 PUSH1 0x0 DUP1 PUSH1 0x40 DUP6 DUP8 SUB SLT ISZERO PUSH2 0x326 JUMPI PUSH2 0x325 PUSH2 0x247 JUMP JUMPDEST JUMPDEST PUSH1 0x0 DUP6 ADD CALLDATALOAD PUSH8 0xFFFFFFFFFFFFFFFF DUP2 GT ISZERO PUSH2 0x344 JUMPI PUSH2 0x343 PUSH2 0x24C JUMP JUMPDEST JUMPDEST PUSH2 0x350 DUP8 DUP3 DUP9 ADD PUSH2 0x260 JUMP JUMPDEST SWAP5 POP SWAP5 POP POP PUSH1 0x20 DUP6 ADD CALLDATALOAD PUSH8 0xFFFFFFFFFFFFFFFF DUP2 GT ISZERO PUSH2 0x373 JUMPI PUSH2 0x372 PUSH2 0x24C JUMP JUMPDEST JUMPDEST PUSH2 0x37F DUP8 DUP3 DUP9 ADD PUSH2 0x2B6 JUMP JUMPDEST SWAP3 POP SWAP3 POP POP SWAP3 SWAP6 SWAP2 SWAP5 POP SWAP3 POP JUMP JUMPDEST PUSH1 0x0 DUP2 MLOAD SWAP1 POP SWAP2 SWAP1 POP JUMP JUMPDEST PUSH1 0x0 DUP3 DUP3 MSTORE PUSH1 0x20 DUP3 ADD SWAP1 POP SWAP3 SWAP2 POP POP JUMP JUMPDEST PUSH1 0x0 DUP2 SWAP1 POP PUSH1 0x20 DUP3 ADD SWAP1 POP SWAP2 SWAP1 POP JUMP JUMPDEST PUSH1 0x0 DUP2 MLOAD SWAP1 POP SWAP2 SWAP1 POP JUMP JUMPDEST PUSH1 0x0 DUP3 DUP3 MSTORE PUSH1 0x20 DUP3 ADD SWAP1 POP SWAP3 SWAP2 POP POP JUMP JUMPDEST PUSH1 0x0 JUMPDEST DUP4 DUP2 LT ISZERO PUSH2 0x3F3 JUMPI DUP1 DUP3 ADD MLOAD DUP2 DUP5 ADD MSTORE PUSH1 0x20 DUP2 ADD SWAP1 POP PUSH2 0x3D8 JUMP JUMPDEST PUSH1 0x0 DUP5 DUP5 ADD MSTORE POP POP POP POP JUMP JUMPDEST PUSH1 0x0 PUSH1 0x1F NOT PUSH1 0x1F DUP4 ADD AND SWAP1 POP SWAP2 SWAP1 POP JUMP JUMPDEST PUSH1 0x0 PUSH2 0x41B DUP3 PUSH2 0x3B9 JUMP JUMPDEST PUSH2 0x425 DUP2 DUP6 PUSH2 0x3C4 JUMP JUMPDEST SWAP4 POP PUSH2 0x435 DUP2 DUP6 PUSH1 0x20 DUP7 ADD PUSH2 0x3D5 JUMP JUMPDEST PUSH2 0x43E DUP2 PUSH2 0x3FF JUMP JUMPDEST DUP5 ADD SWAP2 POP POP SWAP3 SWAP2 POP POP JUMP JUMPDEST PUSH1 0x0 PUSH2 0x455 DUP4 DUP4 PUSH2 0x410 JUMP JUMPDEST SWAP1 POP SWAP3 SWAP2 POP POP JUMP JUMPDEST PUSH1 0x0 PUSH1 0x20 DUP3 ADD SWAP1 POP SWAP2 SWAP1 POP JUMP JUMPDEST PUSH1 0x0 PUSH2 0x475 DUP3 PUSH2 0x38D JUMP JUMPDEST PUSH2 0x47F DUP2 DUP6 PUSH2 0x398 JUMP JUMPDEST SWAP4 POP DUP4 PUSH1 0x20 DUP3 MUL DUP6 ADD PUSH2 0x491 DUP6 PUSH2 0x3A9 JUMP JUMPDEST DUP1 PUSH1 0x0 JUMPDEST DUP6 DUP2 LT ISZERO PUSH2 0x4CD JUMPI DUP5 DUP5 SUB DUP10 MSTORE DUP2 MLOAD PUSH2 0x4AE DUP6 DUP3 PUSH2 0x449 JUMP JUMPDEST SWAP5 POP PUSH2 0x4B9 DUP4 PUSH2 0x45D JUMP JUMPDEST SWAP3 POP PUSH1 0x20 DUP11 ADD SWAP10 POP POP PUSH1 0x1 DUP2 ADD SWAP1 POP PUSH2 0x495 JUMP JUMPDEST POP DUP3 SWAP8 POP DUP8 SWAP6 POP POP POP POP POP POP SWAP3 SWAP2 POP POP JUMP JUMPDEST PUSH1 0x0 PUSH1 0x20 DUP3 ADD SWAP1 POP DUP2 DUP2 SUB PUSH1 0x0 DUP4 ADD MSTORE PUSH2 0x4F9 DUP2 DUP5 PUSH2 0x46A JUMP JUMPDEST SWAP1 POP SWAP3 SWAP2 POP POP JUMP JUMPDEST PUSH1 0x0 DUP3 DUP3 MSTORE PUSH1 0x20 DUP3 ADD SWAP1 POP SWAP3 SWAP2 POP POP JUMP JUMPDEST PUSH32 0x746172676574206C656E67746820213D2064617461206C656E67746800000000 PUSH1 0x0 DUP3 ADD MSTORE POP JUMP JUMPDEST PUSH1 0x0 PUSH2 0x548 PUSH1 0x1C DUP4 PUSH2 0x501 JUMP JUMPDEST SWAP2 POP PUSH2 0x553 DUP3 PUSH2 0x512 JUMP JUMPDEST PUSH1 0x20 DUP3 ADD SWAP1 POP SWAP2 SWAP1 POP JUMP JUMPDEST PUSH1 0x0 PUSH1 0x20 DUP3 ADD SWAP1 POP DUP2 DUP2 SUB PUSH1 0x0 DUP4 ADD MSTORE PUSH2 0x577 DUP2 PUSH2 0x53B JUMP JUMPDEST SWAP1 POP SWAP2 SWAP1 POP JUMP JUMPDEST PUSH32 0x4E487B7100000000000000000000000000000000000000000000000000000000 PUSH1 0x0 MSTORE PUSH1 0x41 PUSH1 0x4 MSTORE PUSH1 0x24 PUSH1 0x0 REVERT JUMPDEST PUSH32 0x4E487B7100000000000000000000000000000000000000000000000000000000 PUSH1 0x0 MSTORE PUSH1 0x32 PUSH1 0x4 MSTORE PUSH1 0x24 PUSH1 0x0 REVERT JUMPDEST PUSH1 0x0 PUSH20 0xFFFFFFFFFFFFFFFFFFFFFFFFFFFFFFFFFFFFFFFF DUP3 AND SWAP1 POP SWAP2 SWAP1 POP JUMP JUMPDEST PUSH1 0x0 PUSH2 0x607 DUP3 PUSH2 0x5DC JUMP JUMPDEST SWAP1 POP SWAP2 SWAP1 POP JUMP JUMPDEST PUSH2 0x617 DUP2 PUSH2 0x5FC JUMP JUMPDEST DUP2 EQ PUSH2 0x622 JUMPI PUSH1 0x0 DUP1 REVERT JUMPDEST POP JUMP JUMPDEST PUSH1 0x0 DUP2 CALLDATALOAD SWAP1 POP PUSH2 0x634 DUP2 PUSH2 0x60E JUMP JUMPDEST SWAP3 SWAP2 POP POP JUMP JUMPDEST PUSH1 0x0 PUSH1 0x20 DUP3 DUP5 SUB SLT ISZERO PUSH2 0x650 JUMPI PUSH2 0x64F PUSH2 0x247 JUMP JUMPDEST JUMPDEST PUSH1 0x0 PUSH2 0x65E DUP5 DUP3 DUP6 ADD PUSH2 0x625 JUMP JUMPDEST SWAP2 POP POP SWAP3 SWAP2 POP POP JUMP JUMPDEST PUSH1 0x0 DUP1 REVERT JUMPDEST PUSH1 0x0 DUP1 REVERT JUMPDEST PUSH1 0x0 DUP1 REVERT JUMPDEST PUSH1 0x0 DUP1 DUP4 CALLDATALOAD PUSH1 0x1 PUSH1 0x20 SUB DUP5 CALLDATASIZE SUB SUB DUP2 SLT PUSH2 0x693 JUMPI PUSH2 0x692 PUSH2 0x667 JUMP JUMPDEST JUMPDEST DUP1 DUP5 ADD SWAP3 POP DUP3 CALLDATALOAD SWAP2 POP PUSH8 0xFFFFFFFFFFFFFFFF DUP3 GT ISZERO PUSH2 0x6B5 JUMPI PUSH2 0x6B4 PUSH2 0x66C JUMP JUMPDEST JUMPDEST PUSH1 0x20 DUP4 ADD SWAP3 POP PUSH1 0x1 DUP3 MUL CALLDATASIZE SUB DUP4 SGT ISZERO PUSH2 0x6D1 JUMPI PUSH2 0x6D0 PUSH2 0x671 JUMP JUMPDEST JUMPDEST POP SWAP3 POP SWAP3 SWAP1 POP JUMP JUMPDEST PUSH1 0x0 DUP2 SWAP1 POP SWAP3 SWAP2 POP POP JUMP JUMPDEST DUP3 DUP2 DUP4 CALLDATACOPY PUSH1 0x0 DUP4 DUP4 ADD MSTORE POP POP POP JUMP JUMPDEST PUSH1 0x0 PUSH2 0x6FF DUP4 DUP6 PUSH2 0x6D9 JUMP JUMPDEST SWAP4 POP PUSH2 0x70C DUP4 DUP6 DUP5 PUSH2 0x6E4 JUMP JUMPDEST DUP3 DUP5 ADD SWAP1 POP SWAP4 SWAP3 POP POP POP JUMP JUMPDEST PUSH1 0x0 PUSH2 0x725 DUP3 DUP5 DUP7 PUSH2 0x6F3 JUMP JUMPDEST SWAP2 POP DUP2 SWAP1 POP SWAP4 SWAP3 POP POP POP JUMP JUMPDEST PUSH32 0x63616C6C206661696C6564000000000000000000000000000000000000000000 PUSH1 0x0 DUP3 ADD MSTORE POP JUMP JUMPDEST PUSH1 0x0 PUSH2 0x767 PUSH1 0xB DUP4 PUSH2 0x501 JUMP JUMPDEST SWAP2 POP PUSH2 0x772 DUP3 PUSH2 0x731 JUMP JUMPDEST PUSH1 0x20 DUP3 ADD SWAP1 POP SWAP2 SWAP1 POP JUMP JUMPDEST PUSH1 0x0 PUSH1 0x20 DUP3 ADD SWAP1 POP DUP2 DUP2 SUB PUSH1 0x0 DUP4 ADD MSTORE PUSH2 0x796 DUP2 PUSH2 0x75A JUMP JUMPDEST SWAP1 POP SWAP2 SWAP1 POP JUMP JUMPDEST PUSH32 0x4E487B7100000000000000000000000000000000000000000000000000000000 PUSH1 0x0 MSTORE PUSH1 0x11 PUSH1 0x4 MSTORE PUSH1 0x24 PUSH1 0x0 REVERT JUMPDEST PUSH1 0x0 DUP2 SWAP1 POP SWAP2 SWAP1 POP JUMP JUMPDEST PUSH1 0x0 PUSH2 0x7E1 DUP3 PUSH2 0x7CC JUMP JUMPDEST SWAP2 POP PUSH32 0xFFFFFFFFFFFFFFFFFFFFFFFFFFFFFFFFFFFFFFFFFFFFFFFFFFFFFFFFFFFFFFFF DUP3 SUB PUSH2 0x813 JUMPI PUSH2 0x812 PUSH2 0x79D JUMP JUMPDEST JUMPDEST PUSH1 0x1 DUP3 ADD SWAP1 POP SWAP2 SWAP1 POP JUMP INVALID LOG2 PUSH5 0x6970667358 0x22 SLT KECCAK256 PUSH6 0x3574D623FD4D GT CREATE2 EQ NUMBER 0xD1 SWAP6 0xBA DIV EXP PUSH18 0xEA2458C28B68E0EA44F9F666E5644864736F PUSH13 0x63430008110033000000000000 "
				},
				"gasEstimates": {
					"creation": {
						"codeDepositCost": "426400",
						"executionCost": "461",
						"totalCost": "426861"
					},
					"external": {
						"multiCall(address[],bytes[])": "infinite"
					}
				},
				"methodIdentifiers": {
					"multiCall(address[],bytes[])": "da5b4ffd"
				}
			},
			"storageLayout": {
				"storage": [],
				"types": null
			},
			"userdoc": {
				"kind": "user",
				"methods": {},
				"version": 1
			}
		}
	}
}