{
	"contracts/Sig.sol": {
		"VerifySig": {
			"abi": [
				{
					"inputs": [
						{
							"internalType": "address",
							"name": "_signer",
							"type": "address"
						},
						{
							"internalType": "string",
							"name": "message",
							"type": "string"
						},
						{
							"internalType": "bytes",
							"name": "_sig",
							"type": "bytes"
						}
					],
					"name": "verify",
					"outputs": [
						{
							"internalType": "bool",
							"name": "",
							"type": "bool"
						}
					],
					"stateMutability": "pure",
					"type": "function"
				}
			],
			"devdoc": {
				"kind": "dev",
				"methods": {},
				"version": 1
			},
			"evm": {
				"assembly": "    /* \"contracts/Sig.sol\":206:357  contract VerifySig {\r... */\n  mstore(0x40, 0x80)\n  callvalue\n  dup1\n  iszero\n  tag_1\n  jumpi\n  0x00\n  dup1\n  revert\ntag_1:\n  pop\n  dataSize(sub_0)\n  dup1\n  dataOffset(sub_0)\n  0x00\n  codecopy\n  0x00\n  return\nstop\n\nsub_0: assembly {\n        /* \"contracts/Sig.sol\":206:357  contract VerifySig {\r... */\n      mstore(0x40, 0x80)\n      callvalue\n      dup1\n      iszero\n      tag_1\n      jumpi\n      0x00\n      dup1\n      revert\n    tag_1:\n      pop\n      jumpi(tag_2, lt(calldatasize, 0x04))\n      shr(0xe0, calldataload(0x00))\n      dup1\n      0x2dd34f0f\n      eq\n      tag_3\n      jumpi\n    tag_2:\n      0x00\n      dup1\n      revert\n        /* \"contracts/Sig.sol\":234:354  function verify(address _signer, string memory message, bytes memory _sig) \r... */\n    tag_3:\n      tag_4\n      0x04\n      dup1\n      calldatasize\n      sub\n      dup2\n      add\n      swap1\n      tag_5\n      swap2\n      swap1\n      tag_6\n      jump\t// in\n    tag_5:\n      tag_7\n      jump\t// in\n    tag_4:\n      mload(0x40)\n      tag_8\n      swap2\n      swap1\n      tag_9\n      jump\t// in\n    tag_8:\n      mload(0x40)\n      dup1\n      swap2\n      sub\n      swap1\n      return\n    tag_7:\n        /* \"contracts/Sig.sol\":338:342  bool */\n      0x00\n        /* \"contracts/Sig.sol\":234:354  function verify(address _signer, string memory message, bytes memory _sig) \r... */\n      swap4\n      swap3\n      pop\n      pop\n      pop\n      jump\t// out\n        /* \"#utility.yul\":7:417   */\n    tag_12:\n        /* \"#utility.yul\":84:89   */\n      0x00\n        /* \"#utility.yul\":109:174   */\n      tag_14\n        /* \"#utility.yul\":125:173   */\n      tag_15\n        /* \"#utility.yul\":166:172   */\n      dup5\n        /* \"#utility.yul\":125:173   */\n      tag_16\n      jump\t// in\n    tag_15:\n        /* \"#utility.yul\":109:174   */\n      tag_17\n      jump\t// in\n    tag_14:\n        /* \"#utility.yul\":100:174   */\n      swap1\n      pop\n        /* \"#utility.yul\":197:203   */\n      dup3\n        /* \"#utility.yul\":190:195   */\n      dup2\n        /* \"#utility.yul\":183:204   */\n      mstore\n        /* \"#utility.yul\":235:239   */\n      0x20\n        /* \"#utility.yul\":228:233   */\n      dup2\n        /* \"#utility.yul\":224:240   */\n      add\n        /* \"#utility.yul\":273:276   */\n      dup5\n        /* \"#utility.yul\":264:270   */\n      dup5\n        /* \"#utility.yul\":259:262   */\n      dup5\n        /* \"#utility.yul\":255:271   */\n      add\n        /* \"#utility.yul\":252:277   */\n      gt\n        /* \"#utility.yul\":249:361   */\n      iszero\n      tag_18\n      jumpi\n        /* \"#utility.yul\":280:359   */\n      tag_19\n      tag_20\n      jump\t// in\n    tag_19:\n        /* \"#utility.yul\":249:361   */\n    tag_18:\n        /* \"#utility.yul\":370:411   */\n      tag_21\n        /* \"#utility.yul\":404:410   */\n      dup5\n        /* \"#utility.yul\":399:402   */\n      dup3\n        /* \"#utility.yul\":394:397   */\n      dup6\n        /* \"#utility.yul\":370:411   */\n      tag_22\n      jump\t// in\n    tag_21:\n        /* \"#utility.yul\":90:417   */\n      pop\n        /* \"#utility.yul\":7:417   */\n      swap4\n      swap3\n      pop\n      pop\n      pop\n      jump\t// out\n        /* \"#utility.yul\":423:835   */\n    tag_23:\n        /* \"#utility.yul\":501:506   */\n      0x00\n        /* \"#utility.yul\":526:592   */\n      tag_25\n        /* \"#utility.yul\":542:591   */\n      tag_26\n        /* \"#utility.yul\":584:590   */\n      dup5\n        /* \"#utility.yul\":542:591   */\n      tag_27\n      jump\t// in\n    tag_26:\n        /* \"#utility.yul\":526:592   */\n      tag_17\n      jump\t// in\n    tag_25:\n        /* \"#utility.yul\":517:592   */\n      swap1\n      pop\n        /* \"#utility.yul\":615:621   */\n      dup3\n        /* \"#utility.yul\":608:613   */\n      dup2\n        /* \"#utility.yul\":601:622   */\n      mstore\n        /* \"#utility.yul\":653:657   */\n      0x20\n        /* \"#utility.yul\":646:651   */\n      dup2\n        /* \"#utility.yul\":642:658   */\n      add\n        /* \"#utility.yul\":691:694   */\n      dup5\n        /* \"#utility.yul\":682:688   */\n      dup5\n        /* \"#utility.yul\":677:680   */\n      dup5\n        /* \"#utility.yul\":673:689   */\n      add\n        /* \"#utility.yul\":670:695   */\n      gt\n        /* \"#utility.yul\":667:779   */\n      iszero\n      tag_28\n      jumpi\n        /* \"#utility.yul\":698:777   */\n      tag_29\n      tag_20\n      jump\t// in\n    tag_29:\n        /* \"#utility.yul\":667:779   */\n    tag_28:\n        /* \"#utility.yul\":788:829   */\n      tag_30\n        /* \"#utility.yul\":822:828   */\n      dup5\n        /* \"#utility.yul\":817:820   */\n      dup3\n        /* \"#utility.yul\":812:815   */\n      dup6\n        /* \"#utility.yul\":788:829   */\n      tag_22\n      jump\t// in\n    tag_30:\n        /* \"#utility.yul\":507:835   */\n      pop\n        /* \"#utility.yul\":423:835   */\n      swap4\n      swap3\n      pop\n      pop\n      pop\n      jump\t// out\n        /* \"#utility.yul\":841:980   */\n    tag_31:\n        /* \"#utility.yul\":887:892   */\n      0x00\n        /* \"#utility.yul\":925:931   */\n      dup2\n        /* \"#utility.yul\":912:932   */\n      calldataload\n        /* \"#utility.yul\":903:932   */\n      swap1\n      pop\n        /* \"#utility.yul\":941:974   */\n      tag_33\n        /* \"#utility.yul\":968:973   */\n      dup2\n        /* \"#utility.yul\":941:974   */\n      tag_34\n      jump\t// in\n    tag_33:\n        /* \"#utility.yul\":841:980   */\n      swap3\n      swap2\n      pop\n      pop\n      jump\t// out\n        /* \"#utility.yul\":999:1337   */\n    tag_35:\n        /* \"#utility.yul\":1054:1059   */\n      0x00\n        /* \"#utility.yul\":1103:1106   */\n      dup3\n        /* \"#utility.yul\":1096:1100   */\n      0x1f\n        /* \"#utility.yul\":1088:1094   */\n      dup4\n        /* \"#utility.yul\":1084:1101   */\n      add\n        /* \"#utility.yul\":1080:1107   */\n      slt\n        /* \"#utility.yul\":1070:1192   */\n      tag_37\n      jumpi\n        /* \"#utility.yul\":1111:1190   */\n      tag_38\n      tag_39\n      jump\t// in\n    tag_38:\n        /* \"#utility.yul\":1070:1192   */\n    tag_37:\n        /* \"#utility.yul\":1228:1234   */\n      dup2\n        /* \"#utility.yul\":1215:1235   */\n      calldataload\n        /* \"#utility.yul\":1253:1331   */\n      tag_40\n        /* \"#utility.yul\":1327:1330   */\n      dup5\n        /* \"#utility.yul\":1319:1325   */\n      dup3\n        /* \"#utility.yul\":1312:1316   */\n      0x20\n        /* \"#utility.yul\":1304:1310   */\n      dup7\n        /* \"#utility.yul\":1300:1317   */\n      add\n        /* \"#utility.yul\":1253:1331   */\n      tag_12\n      jump\t// in\n    tag_40:\n        /* \"#utility.yul\":1244:1331   */\n      swap2\n      pop\n        /* \"#utility.yul\":1060:1337   */\n      pop\n        /* \"#utility.yul\":999:1337   */\n      swap3\n      swap2\n      pop\n      pop\n      jump\t// out\n        /* \"#utility.yul\":1357:1697   */\n    tag_41:\n        /* \"#utility.yul\":1413:1418   */\n      0x00\n        /* \"#utility.yul\":1462:1465   */\n      dup3\n        /* \"#utility.yul\":1455:1459   */\n      0x1f\n        /* \"#utility.yul\":1447:1453   */\n      dup4\n        /* \"#utility.yul\":1443:1460   */\n      add\n        /* \"#utility.yul\":1439:1466   */\n      slt\n        /* \"#utility.yul\":1429:1551   */\n      tag_43\n      jumpi\n        /* \"#utility.yul\":1470:1549   */\n      tag_44\n      tag_39\n      jump\t// in\n    tag_44:\n        /* \"#utility.yul\":1429:1551   */\n    tag_43:\n        /* \"#utility.yul\":1587:1593   */\n      dup2\n        /* \"#utility.yul\":1574:1594   */\n      calldataload\n        /* \"#utility.yul\":1612:1691   */\n      tag_45\n        /* \"#utility.yul\":1687:1690   */\n      dup5\n        /* \"#utility.yul\":1679:1685   */\n      dup3\n        /* \"#utility.yul\":1672:1676   */\n      0x20\n        /* \"#utility.yul\":1664:1670   */\n      dup7\n        /* \"#utility.yul\":1660:1677   */\n      add\n        /* \"#utility.yul\":1612:1691   */\n      tag_23\n      jump\t// in\n    tag_45:\n        /* \"#utility.yul\":1603:1691   */\n      swap2\n      pop\n        /* \"#utility.yul\":1419:1697   */\n      pop\n        /* \"#utility.yul\":1357:1697   */\n      swap3\n      swap2\n      pop\n      pop\n      jump\t// out\n        /* \"#utility.yul\":1703:2680   */\n    tag_6:\n        /* \"#utility.yul\":1799:1805   */\n      0x00\n        /* \"#utility.yul\":1807:1813   */\n      dup1\n        /* \"#utility.yul\":1815:1821   */\n      0x00\n        /* \"#utility.yul\":1864:1866   */\n      0x60\n        /* \"#utility.yul\":1852:1861   */\n      dup5\n        /* \"#utility.yul\":1843:1850   */\n      dup7\n        /* \"#utility.yul\":1839:1862   */\n      sub\n        /* \"#utility.yul\":1835:1867   */\n      slt\n        /* \"#utility.yul\":1832:1951   */\n      iszero\n      tag_47\n      jumpi\n        /* \"#utility.yul\":1870:1949   */\n      tag_48\n      tag_49\n      jump\t// in\n    tag_48:\n        /* \"#utility.yul\":1832:1951   */\n    tag_47:\n        /* \"#utility.yul\":1990:1991   */\n      0x00\n        /* \"#utility.yul\":2015:2068   */\n      tag_50\n        /* \"#utility.yul\":2060:2067   */\n      dup7\n        /* \"#utility.yul\":2051:2057   */\n      dup3\n        /* \"#utility.yul\":2040:2049   */\n      dup8\n        /* \"#utility.yul\":2036:2058   */\n      add\n        /* \"#utility.yul\":2015:2068   */\n      tag_31\n      jump\t// in\n    tag_50:\n        /* \"#utility.yul\":2005:2068   */\n      swap4\n      pop\n        /* \"#utility.yul\":1961:2078   */\n      pop\n        /* \"#utility.yul\":2145:2147   */\n      0x20\n        /* \"#utility.yul\":2134:2143   */\n      dup5\n        /* \"#utility.yul\":2130:2148   */\n      add\n        /* \"#utility.yul\":2117:2149   */\n      calldataload\n        /* \"#utility.yul\":2176:2194   */\n      0xffffffffffffffff\n        /* \"#utility.yul\":2168:2174   */\n      dup2\n        /* \"#utility.yul\":2165:2195   */\n      gt\n        /* \"#utility.yul\":2162:2279   */\n      iszero\n      tag_51\n      jumpi\n        /* \"#utility.yul\":2198:2277   */\n      tag_52\n      tag_53\n      jump\t// in\n    tag_52:\n        /* \"#utility.yul\":2162:2279   */\n    tag_51:\n        /* \"#utility.yul\":2303:2366   */\n      tag_54\n        /* \"#utility.yul\":2358:2365   */\n      dup7\n        /* \"#utility.yul\":2349:2355   */\n      dup3\n        /* \"#utility.yul\":2338:2347   */\n      dup8\n        /* \"#utility.yul\":2334:2356   */\n      add\n        /* \"#utility.yul\":2303:2366   */\n      tag_41\n      jump\t// in\n    tag_54:\n        /* \"#utility.yul\":2293:2366   */\n      swap3\n      pop\n        /* \"#utility.yul\":2088:2376   */\n      pop\n        /* \"#utility.yul\":2443:2445   */\n      0x40\n        /* \"#utility.yul\":2432:2441   */\n      dup5\n        /* \"#utility.yul\":2428:2446   */\n      add\n        /* \"#utility.yul\":2415:2447   */\n      calldataload\n        /* \"#utility.yul\":2474:2492   */\n      0xffffffffffffffff\n        /* \"#utility.yul\":2466:2472   */\n      dup2\n        /* \"#utility.yul\":2463:2493   */\n      gt\n        /* \"#utility.yul\":2460:2577   */\n      iszero\n      tag_55\n      jumpi\n        /* \"#utility.yul\":2496:2575   */\n      tag_56\n      tag_53\n      jump\t// in\n    tag_56:\n        /* \"#utility.yul\":2460:2577   */\n    tag_55:\n        /* \"#utility.yul\":2601:2663   */\n      tag_57\n        /* \"#utility.yul\":2655:2662   */\n      dup7\n        /* \"#utility.yul\":2646:2652   */\n      dup3\n        /* \"#utility.yul\":2635:2644   */\n      dup8\n        /* \"#utility.yul\":2631:2653   */\n      add\n        /* \"#utility.yul\":2601:2663   */\n      tag_35\n      jump\t// in\n    tag_57:\n        /* \"#utility.yul\":2591:2663   */\n      swap2\n      pop\n        /* \"#utility.yul\":2386:2673   */\n      pop\n        /* \"#utility.yul\":1703:2680   */\n      swap3\n      pop\n      swap3\n      pop\n      swap3\n      jump\t// out\n        /* \"#utility.yul\":2686:2795   */\n    tag_58:\n        /* \"#utility.yul\":2767:2788   */\n      tag_60\n        /* \"#utility.yul\":2782:2787   */\n      dup2\n        /* \"#utility.yul\":2767:2788   */\n      tag_61\n      jump\t// in\n    tag_60:\n        /* \"#utility.yul\":2762:2765   */\n      dup3\n        /* \"#utility.yul\":2755:2789   */\n      mstore\n        /* \"#utility.yul\":2686:2795   */\n      pop\n      pop\n      jump\t// out\n        /* \"#utility.yul\":2801:3011   */\n    tag_9:\n        /* \"#utility.yul\":2888:2892   */\n      0x00\n        /* \"#utility.yul\":2926:2928   */\n      0x20\n        /* \"#utility.yul\":2915:2924   */\n      dup3\n        /* \"#utility.yul\":2911:2929   */\n      add\n        /* \"#utility.yul\":2903:2929   */\n      swap1\n      pop\n        /* \"#utility.yul\":2939:3004   */\n      tag_63\n        /* \"#utility.yul\":3001:3002   */\n      0x00\n        /* \"#utility.yul\":2990:2999   */\n      dup4\n        /* \"#utility.yul\":2986:3003   */\n      add\n        /* \"#utility.yul\":2977:2983   */\n      dup5\n        /* \"#utility.yul\":2939:3004   */\n      tag_58\n      jump\t// in\n    tag_63:\n        /* \"#utility.yul\":2801:3011   */\n      swap3\n      swap2\n      pop\n      pop\n      jump\t// out\n        /* \"#utility.yul\":3017:3146   */\n    tag_17:\n        /* \"#utility.yul\":3051:3057   */\n      0x00\n        /* \"#utility.yul\":3078:3098   */\n      tag_65\n      tag_66\n      jump\t// in\n    tag_65:\n        /* \"#utility.yul\":3068:3098   */\n      swap1\n      pop\n        /* \"#utility.yul\":3107:3140   */\n      tag_67\n        /* \"#utility.yul\":3135:3139   */\n      dup3\n        /* \"#utility.yul\":3127:3133   */\n      dup3\n        /* \"#utility.yul\":3107:3140   */\n      tag_68\n      jump\t// in\n    tag_67:\n        /* \"#utility.yul\":3017:3146   */\n      swap2\n      swap1\n      pop\n      jump\t// out\n        /* \"#utility.yul\":3152:3227   */\n    tag_66:\n        /* \"#utility.yul\":3185:3191   */\n      0x00\n        /* \"#utility.yul\":3218:3220   */\n      0x40\n        /* \"#utility.yul\":3212:3221   */\n      mload\n        /* \"#utility.yul\":3202:3221   */\n      swap1\n      pop\n        /* \"#utility.yul\":3152:3227   */\n      swap1\n      jump\t// out\n        /* \"#utility.yul\":3233:3540   */\n    tag_16:\n        /* \"#utility.yul\":3294:3298   */\n      0x00\n        /* \"#utility.yul\":3384:3402   */\n      0xffffffffffffffff\n        /* \"#utility.yul\":3376:3382   */\n      dup3\n        /* \"#utility.yul\":3373:3403   */\n      gt\n        /* \"#utility.yul\":3370:3426   */\n      iszero\n      tag_71\n      jumpi\n        /* \"#utility.yul\":3406:3424   */\n      tag_72\n      tag_73\n      jump\t// in\n    tag_72:\n        /* \"#utility.yul\":3370:3426   */\n    tag_71:\n        /* \"#utility.yul\":3444:3473   */\n      tag_74\n        /* \"#utility.yul\":3466:3472   */\n      dup3\n        /* \"#utility.yul\":3444:3473   */\n      tag_75\n      jump\t// in\n    tag_74:\n        /* \"#utility.yul\":3436:3473   */\n      swap1\n      pop\n        /* \"#utility.yul\":3528:3532   */\n      0x20\n        /* \"#utility.yul\":3522:3526   */\n      dup2\n        /* \"#utility.yul\":3518:3533   */\n      add\n        /* \"#utility.yul\":3510:3533   */\n      swap1\n      pop\n        /* \"#utility.yul\":3233:3540   */\n      swap2\n      swap1\n      pop\n      jump\t// out\n        /* \"#utility.yul\":3546:3854   */\n    tag_27:\n        /* \"#utility.yul\":3608:3612   */\n      0x00\n        /* \"#utility.yul\":3698:3716   */\n      0xffffffffffffffff\n        /* \"#utility.yul\":3690:3696   */\n      dup3\n        /* \"#utility.yul\":3687:3717   */\n      gt\n        /* \"#utility.yul\":3684:3740   */\n      iszero\n      tag_77\n      jumpi\n        /* \"#utility.yul\":3720:3738   */\n      tag_78\n      tag_73\n      jump\t// in\n    tag_78:\n        /* \"#utility.yul\":3684:3740   */\n    tag_77:\n        /* \"#utility.yul\":3758:3787   */\n      tag_79\n        /* \"#utility.yul\":3780:3786   */\n      dup3\n        /* \"#utility.yul\":3758:3787   */\n      tag_75\n      jump\t// in\n    tag_79:\n        /* \"#utility.yul\":3750:3787   */\n      swap1\n      pop\n        /* \"#utility.yul\":3842:3846   */\n      0x20\n        /* \"#utility.yul\":3836:3840   */\n      dup2\n        /* \"#utility.yul\":3832:3847   */\n      add\n        /* \"#utility.yul\":3824:3847   */\n      swap1\n      pop\n        /* \"#utility.yul\":3546:3854   */\n      swap2\n      swap1\n      pop\n      jump\t// out\n        /* \"#utility.yul\":3860:3956   */\n    tag_80:\n        /* \"#utility.yul\":3897:3904   */\n      0x00\n        /* \"#utility.yul\":3926:3950   */\n      tag_82\n        /* \"#utility.yul\":3944:3949   */\n      dup3\n        /* \"#utility.yul\":3926:3950   */\n      tag_83\n      jump\t// in\n    tag_82:\n        /* \"#utility.yul\":3915:3950   */\n      swap1\n      pop\n        /* \"#utility.yul\":3860:3956   */\n      swap2\n      swap1\n      pop\n      jump\t// out\n        /* \"#utility.yul\":3962:4052   */\n    tag_61:\n        /* \"#utility.yul\":3996:4003   */\n      0x00\n        /* \"#utility.yul\":4039:4044   */\n      dup2\n        /* \"#utility.yul\":4032:4045   */\n      iszero\n        /* \"#utility.yul\":4025:4046   */\n      iszero\n        /* \"#utility.yul\":4014:4046   */\n      swap1\n      pop\n        /* \"#utility.yul\":3962:4052   */\n      swap2\n      swap1\n      pop\n      jump\t// out\n        /* \"#utility.yul\":4058:4184   */\n    tag_83:\n        /* \"#utility.yul\":4095:4102   */\n      0x00\n        /* \"#utility.yul\":4135:4177   */\n      0xffffffffffffffffffffffffffffffffffffffff\n        /* \"#utility.yul\":4128:4133   */\n      dup3\n        /* \"#utility.yul\":4124:4178   */\n      and\n        /* \"#utility.yul\":4113:4178   */\n      swap1\n      pop\n        /* \"#utility.yul\":4058:4184   */\n      swap2\n      swap1\n      pop\n      jump\t// out\n        /* \"#utility.yul\":4190:4344   */\n    tag_22:\n        /* \"#utility.yul\":4274:4280   */\n      dup3\n        /* \"#utility.yul\":4269:4272   */\n      dup2\n        /* \"#utility.yul\":4264:4267   */\n      dup4\n        /* \"#utility.yul\":4251:4281   */\n      calldatacopy\n        /* \"#utility.yul\":4336:4337   */\n      0x00\n        /* \"#utility.yul\":4327:4333   */\n      dup4\n        /* \"#utility.yul\":4322:4325   */\n      dup4\n        /* \"#utility.yul\":4318:4334   */\n      add\n        /* \"#utility.yul\":4311:4338   */\n      mstore\n        /* \"#utility.yul\":4190:4344   */\n      pop\n      pop\n      pop\n      jump\t// out\n        /* \"#utility.yul\":4350:4631   */\n    tag_68:\n        /* \"#utility.yul\":4433:4460   */\n      tag_88\n        /* \"#utility.yul\":4455:4459   */\n      dup3\n        /* \"#utility.yul\":4433:4460   */\n      tag_75\n      jump\t// in\n    tag_88:\n        /* \"#utility.yul\":4425:4431   */\n      dup2\n        /* \"#utility.yul\":4421:4461   */\n      add\n        /* \"#utility.yul\":4563:4569   */\n      dup2\n        /* \"#utility.yul\":4551:4561   */\n      dup2\n        /* \"#utility.yul\":4548:4570   */\n      lt\n        /* \"#utility.yul\":4527:4545   */\n      0xffffffffffffffff\n        /* \"#utility.yul\":4515:4525   */\n      dup3\n        /* \"#utility.yul\":4512:4546   */\n      gt\n        /* \"#utility.yul\":4509:4571   */\n      or\n        /* \"#utility.yul\":4506:4594   */\n      iszero\n      tag_89\n      jumpi\n        /* \"#utility.yul\":4574:4592   */\n      tag_90\n      tag_73\n      jump\t// in\n    tag_90:\n        /* \"#utility.yul\":4506:4594   */\n    tag_89:\n        /* \"#utility.yul\":4614:4624   */\n      dup1\n        /* \"#utility.yul\":4610:4612   */\n      0x40\n        /* \"#utility.yul\":4603:4625   */\n      mstore\n        /* \"#utility.yul\":4393:4631   */\n      pop\n        /* \"#utility.yul\":4350:4631   */\n      pop\n      pop\n      jump\t// out\n        /* \"#utility.yul\":4637:4817   */\n    tag_73:\n        /* \"#utility.yul\":4685:4762   */\n      0x4e487b7100000000000000000000000000000000000000000000000000000000\n        /* \"#utility.yul\":4682:4683   */\n      0x00\n        /* \"#utility.yul\":4675:4763   */\n      mstore\n        /* \"#utility.yul\":4782:4786   */\n      0x41\n        /* \"#utility.yul\":4779:4780   */\n      0x04\n        /* \"#utility.yul\":4772:4787   */\n      mstore\n        /* \"#utility.yul\":4806:4810   */\n      0x24\n        /* \"#utility.yul\":4803:4804   */\n      0x00\n        /* \"#utility.yul\":4796:4811   */\n      revert\n        /* \"#utility.yul\":4823:4940   */\n    tag_39:\n        /* \"#utility.yul\":4932:4933   */\n      0x00\n        /* \"#utility.yul\":4929:4930   */\n      dup1\n        /* \"#utility.yul\":4922:4934   */\n      revert\n        /* \"#utility.yul\":4946:5063   */\n    tag_20:\n        /* \"#utility.yul\":5055:5056   */\n      0x00\n        /* \"#utility.yul\":5052:5053   */\n      dup1\n        /* \"#utility.yul\":5045:5057   */\n      revert\n        /* \"#utility.yul\":5069:5186   */\n    tag_53:\n        /* \"#utility.yul\":5178:5179   */\n      0x00\n        /* \"#utility.yul\":5175:5176   */\n      dup1\n        /* \"#utility.yul\":5168:5180   */\n      revert\n        /* \"#utility.yul\":5192:5309   */\n    tag_49:\n        /* \"#utility.yul\":5301:5302   */\n      0x00\n        /* \"#utility.yul\":5298:5299   */\n      dup1\n        /* \"#utility.yul\":5291:5303   */\n      revert\n        /* \"#utility.yul\":5315:5417   */\n    tag_75:\n        /* \"#utility.yul\":5356:5362   */\n      0x00\n        /* \"#utility.yul\":5407:5409   */\n      0x1f\n        /* \"#utility.yul\":5403:5410   */\n      not\n        /* \"#utility.yul\":5398:5400   */\n      0x1f\n        /* \"#utility.yul\":5391:5396   */\n      dup4\n        /* \"#utility.yul\":5387:5401   */\n      add\n        /* \"#utility.yul\":5383:5411   */\n      and\n        /* \"#utility.yul\":5373:5411   */\n      swap1\n      pop\n        /* \"#utility.yul\":5315:5417   */\n      swap2\n      swap1\n      pop\n      jump\t// out\n        /* \"#utility.yul\":5423:5545   */\n    tag_34:\n        /* \"#utility.yul\":5496:5520   */\n      tag_98\n        /* \"#utility.yul\":5514:5519   */\n      dup2\n        /* \"#utility.yul\":5496:5520   */\n      tag_80\n      jump\t// in\n    tag_98:\n        /* \"#utility.yul\":5489:5494   */\n      dup2\n        /* \"#utility.yul\":5486:5521   */\n      eq\n        /* \"#utility.yul\":5476:5539   */\n      tag_99\n      jumpi\n        /* \"#utility.yul\":5535:5536   */\n      0x00\n        /* \"#utility.yul\":5532:5533   */\n      dup1\n        /* \"#utility.yul\":5525:5537   */\n      revert\n        /* \"#utility.yul\":5476:5539   */\n    tag_99:\n        /* \"#utility.yul\":5423:5545   */\n      pop\n      jump\t// out\n\n    auxdata: 0xa2646970667358221220f41db7fbac809057e7304ba64b9d75138842e15d4befa0faf37cbb299432c3fd64736f6c63430008070033\n}\n",
				"bytecode": {
					"linkReferences": {},
					"object": "608060405234801561001057600080fd5b506103b9806100206000396000f3fe608060405234801561001057600080fd5b506004361061002b5760003560e01c80632dd34f0f14610030575b600080fd5b61004a6004803603810190610045919061015e565b610060565b60405161005791906101f8565b60405180910390f35b60009392505050565b600061007c61007784610238565b610213565b9050828152602081018484840111156100985761009761034c565b5b6100a38482856102d8565b509392505050565b60006100be6100b984610269565b610213565b9050828152602081018484840111156100da576100d961034c565b5b6100e58482856102d8565b509392505050565b6000813590506100fc8161036c565b92915050565b600082601f83011261011757610116610347565b5b8135610127848260208601610069565b91505092915050565b600082601f83011261014557610144610347565b5b81356101558482602086016100ab565b91505092915050565b60008060006060848603121561017757610176610356565b5b6000610185868287016100ed565b935050602084013567ffffffffffffffff8111156101a6576101a5610351565b5b6101b286828701610130565b925050604084013567ffffffffffffffff8111156101d3576101d2610351565b5b6101df86828701610102565b9150509250925092565b6101f2816102ac565b82525050565b600060208201905061020d60008301846101e9565b92915050565b600061021d61022e565b905061022982826102e7565b919050565b6000604051905090565b600067ffffffffffffffff82111561025357610252610318565b5b61025c8261035b565b9050602081019050919050565b600067ffffffffffffffff82111561028457610283610318565b5b61028d8261035b565b9050602081019050919050565b60006102a5826102b8565b9050919050565b60008115159050919050565b600073ffffffffffffffffffffffffffffffffffffffff82169050919050565b82818337600083830152505050565b6102f08261035b565b810181811067ffffffffffffffff8211171561030f5761030e610318565b5b80604052505050565b7f4e487b7100000000000000000000000000000000000000000000000000000000600052604160045260246000fd5b600080fd5b600080fd5b600080fd5b600080fd5b6000601f19601f8301169050919050565b6103758161029a565b811461038057600080fd5b5056fea2646970667358221220f41db7fbac809057e7304ba64b9d75138842e15d4befa0faf37cbb299432c3fd64736f6c63430008070033",
					"opcodes": "PUSH1 0x80 PUSH1 0x40 MSTORE CALLVALUE DUP1 ISZERO PUSH2 0x10 JUMPI PUSH1 0x0 DUP1 REVERT JUMPDEST POP PUSH2 0x3B9 DUP1 PUSH2 0x20 PUSH1 0x0 CODECOPY PUSH1 0x0 RETURN INVALID PUSH1 0x80 PUSH1 0x40 MSTORE CALLVALUE DUP1 ISZERO PUSH2 0x10 JUMPI PUSH1 0x0 DUP1 REVERT JUMPDEST POP PUSH1 0x4 CALLDATASIZE LT PUSH2 0x2B JUMPI PUSH1 0x0 CALLDATALOAD PUSH1 0xE0 SHR DUP1 PUSH4 0x2DD34F0F EQ PUSH2 0x30 JUMPI JUMPDEST PUSH1 0x0 DUP1 REVERT JUMPDEST PUSH2 0x4A PUSH1 0x4 DUP1 CALLDATASIZE SUB DUP2 ADD SWAP1 PUSH2 0x45 SWAP2 SWAP1 PUSH2 0x15E JUMP JUMPDEST PUSH2 0x60 JUMP JUMPDEST PUSH1 0x40 MLOAD PUSH2 0x57 SWAP2 SWAP1 PUSH2 0x1F8 JUMP JUMPDEST PUSH1 0x40 MLOAD DUP1 SWAP2 SUB SWAP1 RETURN JUMPDEST PUSH1 0x0 SWAP4 SWAP3 POP POP POP JUMP JUMPDEST PUSH1 0x0 PUSH2 0x7C PUSH2 0x77 DUP5 PUSH2 0x238 JUMP JUMPDEST PUSH2 0x213 JUMP JUMPDEST SWAP1 POP DUP3 DUP2 MSTORE PUSH1 0x20 DUP2 ADD DUP5 DUP5 DUP5 ADD GT ISZERO PUSH2 0x98 JUMPI PUSH2 0x97 PUSH2 0x34C JUMP JUMPDEST JUMPDEST PUSH2 0xA3 DUP5 DUP3 DUP6 PUSH2 0x2D8 JUMP JUMPDEST POP SWAP4 SWAP3 POP POP POP JUMP JUMPDEST PUSH1 0x0 PUSH2 0xBE PUSH2 0xB9 DUP5 PUSH2 0x269 JUMP JUMPDEST PUSH2 0x213 JUMP JUMPDEST SWAP1 POP DUP3 DUP2 MSTORE PUSH1 0x20 DUP2 ADD DUP5 DUP5 DUP5 ADD GT ISZERO PUSH2 0xDA JUMPI PUSH2 0xD9 PUSH2 0x34C JUMP JUMPDEST JUMPDEST PUSH2 0xE5 DUP5 DUP3 DUP6 PUSH2 0x2D8 JUMP JUMPDEST POP SWAP4 SWAP3 POP POP POP JUMP JUMPDEST PUSH1 0x0 DUP2 CALLDATALOAD SWAP1 POP PUSH2 0xFC DUP2 PUSH2 0x36C JUMP JUMPDEST SWAP3 SWAP2 POP POP JUMP JUMPDEST PUSH1 0x0 DUP3 PUSH1 0x1F DUP4 ADD SLT PUSH2 0x117 JUMPI PUSH2 0x116 PUSH2 0x347 JUMP JUMPDEST JUMPDEST DUP2 CALLDATALOAD PUSH2 0x127 DUP5 DUP3 PUSH1 0x20 DUP7 ADD PUSH2 0x69 JUMP JUMPDEST SWAP2 POP POP SWAP3 SWAP2 POP POP JUMP JUMPDEST PUSH1 0x0 DUP3 PUSH1 0x1F DUP4 ADD SLT PUSH2 0x145 JUMPI PUSH2 0x144 PUSH2 0x347 JUMP JUMPDEST JUMPDEST DUP2 CALLDATALOAD PUSH2 0x155 DUP5 DUP3 PUSH1 0x20 DUP7 ADD PUSH2 0xAB JUMP JUMPDEST SWAP2 POP POP SWAP3 SWAP2 POP POP JUMP JUMPDEST PUSH1 0x0 DUP1 PUSH1 0x0 PUSH1 0x60 DUP5 DUP7 SUB SLT ISZERO PUSH2 0x177 JUMPI PUSH2 0x176 PUSH2 0x356 JUMP JUMPDEST JUMPDEST PUSH1 0x0 PUSH2 0x185 DUP7 DUP3 DUP8 ADD PUSH2 0xED JUMP JUMPDEST SWAP4 POP POP PUSH1 0x20 DUP5 ADD CALLDATALOAD PUSH8 0xFFFFFFFFFFFFFFFF DUP2 GT ISZERO PUSH2 0x1A6 JUMPI PUSH2 0x1A5 PUSH2 0x351 JUMP JUMPDEST JUMPDEST PUSH2 0x1B2 DUP7 DUP3 DUP8 ADD PUSH2 0x130 JUMP JUMPDEST SWAP3 POP POP PUSH1 0x40 DUP5 ADD CALLDATALOAD PUSH8 0xFFFFFFFFFFFFFFFF DUP2 GT ISZERO PUSH2 0x1D3 JUMPI PUSH2 0x1D2 PUSH2 0x351 JUMP JUMPDEST JUMPDEST PUSH2 0x1DF DUP7 DUP3 DUP8 ADD PUSH2 0x102 JUMP JUMPDEST SWAP2 POP POP SWAP3 POP SWAP3 POP SWAP3 JUMP JUMPDEST PUSH2 0x1F2 DUP2 PUSH2 0x2AC JUMP JUMPDEST DUP3 MSTORE POP POP JUMP JUMPDEST PUSH1 0x0 PUSH1 0x20 DUP3 ADD SWAP1 POP PUSH2 0x20D PUSH1 0x0 DUP4 ADD DUP5 PUSH2 0x1E9 JUMP JUMPDEST SWAP3 SWAP2 POP POP JUMP JUMPDEST PUSH1 0x0 PUSH2 0x21D PUSH2 0x22E JUMP JUMPDEST SWAP1 POP PUSH2 0x229 DUP3 DUP3 PUSH2 0x2E7 JUMP JUMPDEST SWAP2 SWAP1 POP JUMP JUMPDEST PUSH1 0x0 PUSH1 0x40 MLOAD SWAP1 POP SWAP1 JUMP JUMPDEST PUSH1 0x0 PUSH8 0xFFFFFFFFFFFFFFFF DUP3 GT ISZERO PUSH2 0x253 JUMPI PUSH2 0x252 PUSH2 0x318 JUMP JUMPDEST JUMPDEST PUSH2 0x25C DUP3 PUSH2 0x35B JUMP JUMPDEST SWAP1 POP PUSH1 0x20 DUP2 ADD SWAP1 POP SWAP2 SWAP1 POP JUMP JUMPDEST PUSH1 0x0 PUSH8 0xFFFFFFFFFFFFFFFF DUP3 GT ISZERO PUSH2 0x284 JUMPI PUSH2 0x283 PUSH2 0x318 JUMP JUMPDEST JUMPDEST PUSH2 0x28D DUP3 PUSH2 0x35B JUMP JUMPDEST SWAP1 POP PUSH1 0x20 DUP2 ADD SWAP1 POP SWAP2 SWAP1 POP JUMP JUMPDEST PUSH1 0x0 PUSH2 0x2A5 DUP3 PUSH2 0x2B8 JUMP JUMPDEST SWAP1 POP SWAP2 SWAP1 POP JUMP JUMPDEST PUSH1 0x0 DUP2 ISZERO ISZERO SWAP1 POP SWAP2 SWAP1 POP JUMP JUMPDEST PUSH1 0x0 PUSH20 0xFFFFFFFFFFFFFFFFFFFFFFFFFFFFFFFFFFFFFFFF DUP3 AND SWAP1 POP SWAP2 SWAP1 POP JUMP JUMPDEST DUP3 DUP2 DUP4 CALLDATACOPY PUSH1 0x0 DUP4 DUP4 ADD MSTORE POP POP POP JUMP JUMPDEST PUSH2 0x2F0 DUP3 PUSH2 0x35B JUMP JUMPDEST DUP2 ADD DUP2 DUP2 LT PUSH8 0xFFFFFFFFFFFFFFFF DUP3 GT OR ISZERO PUSH2 0x30F JUMPI PUSH2 0x30E PUSH2 0x318 JUMP JUMPDEST JUMPDEST DUP1 PUSH1 0x40 MSTORE POP POP POP JUMP JUMPDEST PUSH32 0x4E487B7100000000000000000000000000000000000000000000000000000000 PUSH1 0x0 MSTORE PUSH1 0x41 PUSH1 0x4 MSTORE PUSH1 0x24 PUSH1 0x0 REVERT JUMPDEST PUSH1 0x0 DUP1 REVERT JUMPDEST PUSH1 0x0 DUP1 REVERT JUMPDEST PUSH1 0x0 DUP1 REVERT JUMPDEST PUSH1 0x0 DUP1 REVERT JUMPDEST PUSH1 0x0 PUSH1 0x1F NOT PUSH1 0x1F DUP4 ADD AND SWAP1 POP SWAP2 SWAP1 POP JUMP JUMPDEST PUSH2 0x375 DUP2 PUSH2 0x29A JUMP JUMPDEST DUP2 EQ PUSH2 0x380 JUMPI PUSH1 0x0 DUP1 REVERT JUMPDEST POP JUMP INVALID LOG2 PUSH5 0x6970667358 0x22 SLT KECCAK256 DELEGATECALL SAR 0xB7 0xFB 0xAC DUP1 SWAP1 JUMPI 0xE7 ADDRESS 0x4B 0xA6 0x4B SWAP14 PUSH22 0x138842E15D4BEFA0FAF37CBB299432C3FD64736F6C63 NUMBER STOP ADDMOD SMOD STOP CALLER "
				},
				"gasEstimates": {
					"creation": {
						"codeDepositCost": "190600",
						"executionCost": "232",
						"totalCost": "190832"
					},
					"external": {
						"verify(address,string,bytes)": "infinite"
					}
				},
				"methodIdentifiers": {
					"verify(address,string,bytes)": "2dd34f0f"
				}
			},
			"storageLayout": {
				"storage": [],
				"types": null
			},
			"userdoc": {
				"kind": "user",
				"methods": {},
				"version": 1
			}
		}
	}
}