{
	"contracts/Create2.sol": {
		"Create2Factory": {
			"abi": [
				{
					"anonymous": false,
					"inputs": [
						{
							"indexed": false,
							"internalType": "address",
							"name": "addr",
							"type": "address"
						}
					],
					"name": "Deploy",
					"type": "event"
				},
				{
					"inputs": [
						{
							"internalType": "uint256",
							"name": "_salt",
							"type": "uint256"
						}
					],
					"name": "deploy",
					"outputs": [],
					"stateMutability": "nonpayable",
					"type": "function"
				},
				{
					"inputs": [
						{
							"internalType": "bytes",
							"name": "bytecode",
							"type": "bytes"
						},
						{
							"internalType": "uint256",
							"name": "_salt",
							"type": "uint256"
						}
					],
					"name": "getAddress",
					"outputs": [
						{
							"internalType": "address",
							"name": "",
							"type": "address"
						}
					],
					"stateMutability": "view",
					"type": "function"
				},
				{
					"inputs": [
						{
							"internalType": "address",
							"name": "_owner",
							"type": "address"
						}
					],
					"name": "getBytecode",
					"outputs": [
						{
							"internalType": "bytes",
							"name": "",
							"type": "bytes"
						}
					],
					"stateMutability": "pure",
					"type": "function"
				}
			],
			"devdoc": {
				"kind": "dev",
				"methods": {},
				"version": 1
			},
			"evm": {
				"assembly": "    /* \"contracts/Create2.sol\":218:1017  contract Create2Factory {... */\n  mstore(0x40, 0x80)\n  callvalue\n  dup1\n  iszero\n  tag_1\n  jumpi\n  0x00\n  dup1\n  revert\ntag_1:\n  pop\n  dataSize(sub_0)\n  dup1\n  dataOffset(sub_0)\n  0x00\n  codecopy\n  0x00\n  return\nstop\n\nsub_0: assembly {\n        /* \"contracts/Create2.sol\":218:1017  contract Create2Factory {... */\n      mstore(0x40, 0x80)\n      callvalue\n      dup1\n      iszero\n      tag_1\n      jumpi\n      0x00\n      dup1\n      revert\n    tag_1:\n      pop\n      jumpi(tag_2, lt(calldatasize, 0x04))\n      shr(0xe0, calldataload(0x00))\n      dup1\n      0x0c6008af\n      eq\n      tag_3\n      jumpi\n      dup1\n      0x94ca2cb5\n      eq\n      tag_4\n      jumpi\n      dup1\n      0xa5e38751\n      eq\n      tag_5\n      jumpi\n    tag_2:\n      0x00\n      dup1\n      revert\n        /* \"contracts/Create2.sol\":798:1015  function getBytecode(address _owner) public pure returns (bytes memory) ... */\n    tag_3:\n      tag_6\n      0x04\n      dup1\n      calldatasize\n      sub\n      dup2\n      add\n      swap1\n      tag_7\n      swap2\n      swap1\n      tag_8\n      jump\t// in\n    tag_7:\n      tag_9\n      jump\t// in\n    tag_6:\n      mload(0x40)\n      tag_10\n      swap2\n      swap1\n      tag_11\n      jump\t// in\n    tag_10:\n      mload(0x40)\n      dup1\n      swap2\n      sub\n      swap1\n      return\n        /* \"contracts/Create2.sol\":489:792  function getAddress(bytes memory bytecode, uint _salt) public view returns (address)... */\n    tag_4:\n      tag_12\n      0x04\n      dup1\n      calldatasize\n      sub\n      dup2\n      add\n      swap1\n      tag_13\n      swap2\n      swap1\n      tag_14\n      jump\t// in\n    tag_13:\n      tag_15\n      jump\t// in\n    tag_12:\n      mload(0x40)\n      tag_16\n      swap2\n      swap1\n      tag_17\n      jump\t// in\n    tag_16:\n      mload(0x40)\n      dup1\n      swap2\n      sub\n      swap1\n      return\n        /* \"contracts/Create2.sol\":281:483  function deploy(uint _salt) external {... */\n    tag_5:\n      tag_18\n      0x04\n      dup1\n      calldatasize\n      sub\n      dup2\n      add\n      swap1\n      tag_19\n      swap2\n      swap1\n      tag_20\n      jump\t// in\n    tag_19:\n      tag_21\n      jump\t// in\n    tag_18:\n      stop\n        /* \"contracts/Create2.sol\":798:1015  function getBytecode(address _owner) public pure returns (bytes memory) ... */\n    tag_9:\n        /* \"contracts/Create2.sol\":856:868  bytes memory */\n      0x60\n        /* \"contracts/Create2.sol\":885:906  bytes memory bytecode */\n      0x00\n        /* \"contracts/Create2.sol\":909:945  type(DeployWithCreate2).creationCode */\n      mload(0x40)\n      dup1\n      0x20\n      add\n      tag_23\n      swap1\n      tag_24\n      jump\t// in\n    tag_23:\n      0x20\n      dup3\n      add\n      dup2\n      sub\n      dup3\n      mstore\n      not(0x1f)\n      0x1f\n      dup3\n      add\n      and\n      0x40\n      mstore\n      pop\n        /* \"contracts/Create2.sol\":885:945  bytes memory bytecode = type(DeployWithCreate2).creationCode */\n      swap1\n      pop\n        /* \"contracts/Create2.sol\":979:987  bytecode */\n      dup1\n        /* \"contracts/Create2.sol\":1000:1006  _owner */\n      dup4\n        /* \"contracts/Create2.sol\":989:1007  abi.encode(_owner) */\n      add(0x20, mload(0x40))\n      tag_25\n      swap2\n      swap1\n      tag_17\n      jump\t// in\n    tag_25:\n      mload(0x40)\n      0x20\n      dup2\n      dup4\n      sub\n      sub\n      dup2\n      mstore\n      swap1\n      0x40\n      mstore\n        /* \"contracts/Create2.sol\":962:1008  abi.encodePacked(bytecode, abi.encode(_owner)) */\n      add(0x20, mload(0x40))\n      tag_26\n      swap3\n      swap2\n      swap1\n      tag_27\n      jump\t// in\n    tag_26:\n      mload(0x40)\n      0x20\n      dup2\n      dup4\n      sub\n      sub\n      dup2\n      mstore\n      swap1\n      0x40\n      mstore\n        /* \"contracts/Create2.sol\":955:1008  return abi.encodePacked(bytecode, abi.encode(_owner)) */\n      swap2\n      pop\n      pop\n        /* \"contracts/Create2.sol\":798:1015  function getBytecode(address _owner) public pure returns (bytes memory) ... */\n      swap2\n      swap1\n      pop\n      jump\t// out\n        /* \"contracts/Create2.sol\":489:792  function getAddress(bytes memory bytecode, uint _salt) public view returns (address)... */\n    tag_15:\n        /* \"contracts/Create2.sol\":565:572  address */\n      0x00\n        /* \"contracts/Create2.sol\":588:600  bytes32 hash */\n      dup1\n        /* \"contracts/Create2.sol\":667:671  0xff */\n      0xff\n        /* \"contracts/Create2.sol\":660:672  bytes1(0xff) */\n      0xf8\n      shl\n        /* \"contracts/Create2.sol\":682:686  this */\n      address\n        /* \"contracts/Create2.sol\":689:694  _salt */\n      dup5\n        /* \"contracts/Create2.sol\":706:714  bytecode */\n      dup7\n        /* \"contracts/Create2.sol\":696:715  keccak256(bytecode) */\n      dup1\n      mload\n      swap1\n      0x20\n      add\n      keccak256\n        /* \"contracts/Create2.sol\":626:729  abi.encodePacked(... */\n      add(0x20, mload(0x40))\n      tag_29\n      swap5\n      swap4\n      swap3\n      swap2\n      swap1\n      tag_30\n      jump\t// in\n    tag_29:\n      mload(0x40)\n      0x20\n      dup2\n      dup4\n      sub\n      sub\n      dup2\n      mstore\n      swap1\n      0x40\n      mstore\n        /* \"contracts/Create2.sol\":603:739  keccak256(... */\n      dup1\n      mload\n      swap1\n      0x20\n      add\n      keccak256\n        /* \"contracts/Create2.sol\":588:739  bytes32 hash = keccak256(... */\n      swap1\n      pop\n        /* \"contracts/Create2.sol\":778:782  hash */\n      dup1\n        /* \"contracts/Create2.sol\":773:783  uint(hash) */\n      0x00\n      shr\n        /* \"contracts/Create2.sol\":750:785  return address(uint160(uint(hash))) */\n      swap2\n      pop\n      pop\n        /* \"contracts/Create2.sol\":489:792  function getAddress(bytes memory bytecode, uint _salt) public view returns (address)... */\n      swap3\n      swap2\n      pop\n      pop\n      jump\t// out\n        /* \"contracts/Create2.sol\":281:483  function deploy(uint _salt) external {... */\n    tag_21:\n        /* \"contracts/Create2.sol\":328:355  DeployWithCreate2 _contract */\n      0x00\n        /* \"contracts/Create2.sol\":407:412  _salt */\n      dup2\n        /* \"contracts/Create2.sol\":399:413  bytes32(_salt) */\n      0x00\n      shl\n        /* \"contracts/Create2.sol\":424:434  msg.sender */\n      caller\n        /* \"contracts/Create2.sol\":358:435  new DeployWithCreate2{... */\n      mload(0x40)\n      tag_32\n      swap1\n      tag_24\n      jump\t// in\n    tag_32:\n      tag_33\n      swap2\n      swap1\n      tag_17\n      jump\t// in\n    tag_33:\n      dup2\n      swap1\n      mload(0x40)\n      dup1\n      swap2\n      sub\n      swap1\n      0x00\n      create2\n      swap1\n      pop\n      dup1\n      iszero\n      dup1\n      iszero\n      tag_34\n      jumpi\n      returndatasize\n      0x00\n      dup1\n      returndatacopy\n      revert(0x00, returndatasize)\n    tag_34:\n      pop\n        /* \"contracts/Create2.sol\":328:435  DeployWithCreate2 _contract = new DeployWithCreate2{... */\n      swap1\n      pop\n        /* \"contracts/Create2.sol\":450:476  Deploy(address(_contract)) */\n      0x55ea6c6b31543d8e2ec6a72f71a79c0f4b72ed0d4757172b043d8f4f4cd84848\n        /* \"contracts/Create2.sol\":465:474  _contract */\n      dup2\n        /* \"contracts/Create2.sol\":450:476  Deploy(address(_contract)) */\n      mload(0x40)\n      tag_35\n      swap2\n      swap1\n      tag_17\n      jump\t// in\n    tag_35:\n      mload(0x40)\n      dup1\n      swap2\n      sub\n      swap1\n      log1\n        /* \"contracts/Create2.sol\":318:483  {... */\n      pop\n        /* \"contracts/Create2.sol\":281:483  function deploy(uint _salt) external {... */\n      pop\n      jump\t// out\n    tag_24:\n      dataSize(sub_0)\n      dup1\n      dataOffset(sub_0)\n      dup4\n      codecopy\n      add\n      swap1\n      jump\t// out\n        /* \"#utility.yul\":7:82   */\n    tag_36:\n        /* \"#utility.yul\":40:46   */\n      0x00\n        /* \"#utility.yul\":73:75   */\n      0x40\n        /* \"#utility.yul\":67:76   */\n      mload\n        /* \"#utility.yul\":57:76   */\n      swap1\n      pop\n        /* \"#utility.yul\":7:82   */\n      swap1\n      jump\t// out\n        /* \"#utility.yul\":88:205   */\n    tag_37:\n        /* \"#utility.yul\":197:198   */\n      0x00\n        /* \"#utility.yul\":194:195   */\n      dup1\n        /* \"#utility.yul\":187:199   */\n      revert\n        /* \"#utility.yul\":211:328   */\n    tag_38:\n        /* \"#utility.yul\":320:321   */\n      0x00\n        /* \"#utility.yul\":317:318   */\n      dup1\n        /* \"#utility.yul\":310:322   */\n      revert\n        /* \"#utility.yul\":334:460   */\n    tag_39:\n        /* \"#utility.yul\":371:378   */\n      0x00\n        /* \"#utility.yul\":411:453   */\n      0xffffffffffffffffffffffffffffffffffffffff\n        /* \"#utility.yul\":404:409   */\n      dup3\n        /* \"#utility.yul\":400:454   */\n      and\n        /* \"#utility.yul\":389:454   */\n      swap1\n      pop\n        /* \"#utility.yul\":334:460   */\n      swap2\n      swap1\n      pop\n      jump\t// out\n        /* \"#utility.yul\":466:562   */\n    tag_40:\n        /* \"#utility.yul\":503:510   */\n      0x00\n        /* \"#utility.yul\":532:556   */\n      tag_81\n        /* \"#utility.yul\":550:555   */\n      dup3\n        /* \"#utility.yul\":532:556   */\n      tag_39\n      jump\t// in\n    tag_81:\n        /* \"#utility.yul\":521:556   */\n      swap1\n      pop\n        /* \"#utility.yul\":466:562   */\n      swap2\n      swap1\n      pop\n      jump\t// out\n        /* \"#utility.yul\":568:690   */\n    tag_41:\n        /* \"#utility.yul\":641:665   */\n      tag_83\n        /* \"#utility.yul\":659:664   */\n      dup2\n        /* \"#utility.yul\":641:665   */\n      tag_40\n      jump\t// in\n    tag_83:\n        /* \"#utility.yul\":634:639   */\n      dup2\n        /* \"#utility.yul\":631:666   */\n      eq\n        /* \"#utility.yul\":621:684   */\n      tag_84\n      jumpi\n        /* \"#utility.yul\":680:681   */\n      0x00\n        /* \"#utility.yul\":677:678   */\n      dup1\n        /* \"#utility.yul\":670:682   */\n      revert\n        /* \"#utility.yul\":621:684   */\n    tag_84:\n        /* \"#utility.yul\":568:690   */\n      pop\n      jump\t// out\n        /* \"#utility.yul\":696:835   */\n    tag_42:\n        /* \"#utility.yul\":742:747   */\n      0x00\n        /* \"#utility.yul\":780:786   */\n      dup2\n        /* \"#utility.yul\":767:787   */\n      calldataload\n        /* \"#utility.yul\":758:787   */\n      swap1\n      pop\n        /* \"#utility.yul\":796:829   */\n      tag_86\n        /* \"#utility.yul\":823:828   */\n      dup2\n        /* \"#utility.yul\":796:829   */\n      tag_41\n      jump\t// in\n    tag_86:\n        /* \"#utility.yul\":696:835   */\n      swap3\n      swap2\n      pop\n      pop\n      jump\t// out\n        /* \"#utility.yul\":841:1170   */\n    tag_8:\n        /* \"#utility.yul\":900:906   */\n      0x00\n        /* \"#utility.yul\":949:951   */\n      0x20\n        /* \"#utility.yul\":937:946   */\n      dup3\n        /* \"#utility.yul\":928:935   */\n      dup5\n        /* \"#utility.yul\":924:947   */\n      sub\n        /* \"#utility.yul\":920:952   */\n      slt\n        /* \"#utility.yul\":917:1036   */\n      iszero\n      tag_88\n      jumpi\n        /* \"#utility.yul\":955:1034   */\n      tag_89\n      tag_37\n      jump\t// in\n    tag_89:\n        /* \"#utility.yul\":917:1036   */\n    tag_88:\n        /* \"#utility.yul\":1075:1076   */\n      0x00\n        /* \"#utility.yul\":1100:1153   */\n      tag_90\n        /* \"#utility.yul\":1145:1152   */\n      dup5\n        /* \"#utility.yul\":1136:1142   */\n      dup3\n        /* \"#utility.yul\":1125:1134   */\n      dup6\n        /* \"#utility.yul\":1121:1143   */\n      add\n        /* \"#utility.yul\":1100:1153   */\n      tag_42\n      jump\t// in\n    tag_90:\n        /* \"#utility.yul\":1090:1153   */\n      swap2\n      pop\n        /* \"#utility.yul\":1046:1163   */\n      pop\n        /* \"#utility.yul\":841:1170   */\n      swap3\n      swap2\n      pop\n      pop\n      jump\t// out\n        /* \"#utility.yul\":1176:1274   */\n    tag_43:\n        /* \"#utility.yul\":1227:1233   */\n      0x00\n        /* \"#utility.yul\":1261:1266   */\n      dup2\n        /* \"#utility.yul\":1255:1267   */\n      mload\n        /* \"#utility.yul\":1245:1267   */\n      swap1\n      pop\n        /* \"#utility.yul\":1176:1274   */\n      swap2\n      swap1\n      pop\n      jump\t// out\n        /* \"#utility.yul\":1280:1448   */\n    tag_44:\n        /* \"#utility.yul\":1363:1374   */\n      0x00\n        /* \"#utility.yul\":1397:1403   */\n      dup3\n        /* \"#utility.yul\":1392:1395   */\n      dup3\n        /* \"#utility.yul\":1385:1404   */\n      mstore\n        /* \"#utility.yul\":1437:1441   */\n      0x20\n        /* \"#utility.yul\":1432:1435   */\n      dup3\n        /* \"#utility.yul\":1428:1442   */\n      add\n        /* \"#utility.yul\":1413:1442   */\n      swap1\n      pop\n        /* \"#utility.yul\":1280:1448   */\n      swap3\n      swap2\n      pop\n      pop\n      jump\t// out\n        /* \"#utility.yul\":1454:1700   */\n    tag_45:\n        /* \"#utility.yul\":1535:1536   */\n      0x00\n        /* \"#utility.yul\":1545:1658   */\n    tag_94:\n        /* \"#utility.yul\":1559:1565   */\n      dup4\n        /* \"#utility.yul\":1556:1557   */\n      dup2\n        /* \"#utility.yul\":1553:1566   */\n      lt\n        /* \"#utility.yul\":1545:1658   */\n      iszero\n      tag_96\n      jumpi\n        /* \"#utility.yul\":1644:1645   */\n      dup1\n        /* \"#utility.yul\":1639:1642   */\n      dup3\n        /* \"#utility.yul\":1635:1646   */\n      add\n        /* \"#utility.yul\":1629:1647   */\n      mload\n        /* \"#utility.yul\":1625:1626   */\n      dup2\n        /* \"#utility.yul\":1620:1623   */\n      dup5\n        /* \"#utility.yul\":1616:1627   */\n      add\n        /* \"#utility.yul\":1609:1648   */\n      mstore\n        /* \"#utility.yul\":1581:1583   */\n      0x20\n        /* \"#utility.yul\":1578:1579   */\n      dup2\n        /* \"#utility.yul\":1574:1584   */\n      add\n        /* \"#utility.yul\":1569:1584   */\n      swap1\n      pop\n        /* \"#utility.yul\":1545:1658   */\n      jump(tag_94)\n    tag_96:\n        /* \"#utility.yul\":1692:1693   */\n      0x00\n        /* \"#utility.yul\":1683:1689   */\n      dup5\n        /* \"#utility.yul\":1678:1681   */\n      dup5\n        /* \"#utility.yul\":1674:1690   */\n      add\n        /* \"#utility.yul\":1667:1694   */\n      mstore\n        /* \"#utility.yul\":1516:1700   */\n      pop\n        /* \"#utility.yul\":1454:1700   */\n      pop\n      pop\n      pop\n      jump\t// out\n        /* \"#utility.yul\":1706:1808   */\n    tag_46:\n        /* \"#utility.yul\":1747:1753   */\n      0x00\n        /* \"#utility.yul\":1798:1800   */\n      0x1f\n        /* \"#utility.yul\":1794:1801   */\n      not\n        /* \"#utility.yul\":1789:1791   */\n      0x1f\n        /* \"#utility.yul\":1782:1787   */\n      dup4\n        /* \"#utility.yul\":1778:1792   */\n      add\n        /* \"#utility.yul\":1774:1802   */\n      and\n        /* \"#utility.yul\":1764:1802   */\n      swap1\n      pop\n        /* \"#utility.yul\":1706:1808   */\n      swap2\n      swap1\n      pop\n      jump\t// out\n        /* \"#utility.yul\":1814:2187   */\n    tag_47:\n        /* \"#utility.yul\":1900:1903   */\n      0x00\n        /* \"#utility.yul\":1928:1966   */\n      tag_99\n        /* \"#utility.yul\":1960:1965   */\n      dup3\n        /* \"#utility.yul\":1928:1966   */\n      tag_43\n      jump\t// in\n    tag_99:\n        /* \"#utility.yul\":1982:2052   */\n      tag_100\n        /* \"#utility.yul\":2045:2051   */\n      dup2\n        /* \"#utility.yul\":2040:2043   */\n      dup6\n        /* \"#utility.yul\":1982:2052   */\n      tag_44\n      jump\t// in\n    tag_100:\n        /* \"#utility.yul\":1975:2052   */\n      swap4\n      pop\n        /* \"#utility.yul\":2061:2126   */\n      tag_101\n        /* \"#utility.yul\":2119:2125   */\n      dup2\n        /* \"#utility.yul\":2114:2117   */\n      dup6\n        /* \"#utility.yul\":2107:2111   */\n      0x20\n        /* \"#utility.yul\":2100:2105   */\n      dup7\n        /* \"#utility.yul\":2096:2112   */\n      add\n        /* \"#utility.yul\":2061:2126   */\n      tag_45\n      jump\t// in\n    tag_101:\n        /* \"#utility.yul\":2151:2180   */\n      tag_102\n        /* \"#utility.yul\":2173:2179   */\n      dup2\n        /* \"#utility.yul\":2151:2180   */\n      tag_46\n      jump\t// in\n    tag_102:\n        /* \"#utility.yul\":2146:2149   */\n      dup5\n        /* \"#utility.yul\":2142:2181   */\n      add\n        /* \"#utility.yul\":2135:2181   */\n      swap2\n      pop\n        /* \"#utility.yul\":1904:2187   */\n      pop\n        /* \"#utility.yul\":1814:2187   */\n      swap3\n      swap2\n      pop\n      pop\n      jump\t// out\n        /* \"#utility.yul\":2193:2502   */\n    tag_11:\n        /* \"#utility.yul\":2304:2308   */\n      0x00\n        /* \"#utility.yul\":2342:2344   */\n      0x20\n        /* \"#utility.yul\":2331:2340   */\n      dup3\n        /* \"#utility.yul\":2327:2345   */\n      add\n        /* \"#utility.yul\":2319:2345   */\n      swap1\n      pop\n        /* \"#utility.yul\":2391:2400   */\n      dup2\n        /* \"#utility.yul\":2385:2389   */\n      dup2\n        /* \"#utility.yul\":2381:2401   */\n      sub\n        /* \"#utility.yul\":2377:2378   */\n      0x00\n        /* \"#utility.yul\":2366:2375   */\n      dup4\n        /* \"#utility.yul\":2362:2379   */\n      add\n        /* \"#utility.yul\":2355:2402   */\n      mstore\n        /* \"#utility.yul\":2419:2495   */\n      tag_104\n        /* \"#utility.yul\":2490:2494   */\n      dup2\n        /* \"#utility.yul\":2481:2487   */\n      dup5\n        /* \"#utility.yul\":2419:2495   */\n      tag_47\n      jump\t// in\n    tag_104:\n        /* \"#utility.yul\":2411:2495   */\n      swap1\n      pop\n        /* \"#utility.yul\":2193:2502   */\n      swap3\n      swap2\n      pop\n      pop\n      jump\t// out\n        /* \"#utility.yul\":2508:2625   */\n    tag_48:\n        /* \"#utility.yul\":2617:2618   */\n      0x00\n        /* \"#utility.yul\":2614:2615   */\n      dup1\n        /* \"#utility.yul\":2607:2619   */\n      revert\n        /* \"#utility.yul\":2631:2748   */\n    tag_49:\n        /* \"#utility.yul\":2740:2741   */\n      0x00\n        /* \"#utility.yul\":2737:2738   */\n      dup1\n        /* \"#utility.yul\":2730:2742   */\n      revert\n        /* \"#utility.yul\":2754:2934   */\n    tag_50:\n        /* \"#utility.yul\":2802:2879   */\n      0x4e487b7100000000000000000000000000000000000000000000000000000000\n        /* \"#utility.yul\":2799:2800   */\n      0x00\n        /* \"#utility.yul\":2792:2880   */\n      mstore\n        /* \"#utility.yul\":2899:2903   */\n      0x41\n        /* \"#utility.yul\":2896:2897   */\n      0x04\n        /* \"#utility.yul\":2889:2904   */\n      mstore\n        /* \"#utility.yul\":2923:2927   */\n      0x24\n        /* \"#utility.yul\":2920:2921   */\n      0x00\n        /* \"#utility.yul\":2913:2928   */\n      revert\n        /* \"#utility.yul\":2940:3221   */\n    tag_51:\n        /* \"#utility.yul\":3023:3050   */\n      tag_109\n        /* \"#utility.yul\":3045:3049   */\n      dup3\n        /* \"#utility.yul\":3023:3050   */\n      tag_46\n      jump\t// in\n    tag_109:\n        /* \"#utility.yul\":3015:3021   */\n      dup2\n        /* \"#utility.yul\":3011:3051   */\n      add\n        /* \"#utility.yul\":3153:3159   */\n      dup2\n        /* \"#utility.yul\":3141:3151   */\n      dup2\n        /* \"#utility.yul\":3138:3160   */\n      lt\n        /* \"#utility.yul\":3117:3135   */\n      0xffffffffffffffff\n        /* \"#utility.yul\":3105:3115   */\n      dup3\n        /* \"#utility.yul\":3102:3136   */\n      gt\n        /* \"#utility.yul\":3099:3161   */\n      or\n        /* \"#utility.yul\":3096:3184   */\n      iszero\n      tag_110\n      jumpi\n        /* \"#utility.yul\":3164:3182   */\n      tag_111\n      tag_50\n      jump\t// in\n    tag_111:\n        /* \"#utility.yul\":3096:3184   */\n    tag_110:\n        /* \"#utility.yul\":3204:3214   */\n      dup1\n        /* \"#utility.yul\":3200:3202   */\n      0x40\n        /* \"#utility.yul\":3193:3215   */\n      mstore\n        /* \"#utility.yul\":2983:3221   */\n      pop\n        /* \"#utility.yul\":2940:3221   */\n      pop\n      pop\n      jump\t// out\n        /* \"#utility.yul\":3227:3356   */\n    tag_52:\n        /* \"#utility.yul\":3261:3267   */\n      0x00\n        /* \"#utility.yul\":3288:3308   */\n      tag_113\n      tag_36\n      jump\t// in\n    tag_113:\n        /* \"#utility.yul\":3278:3308   */\n      swap1\n      pop\n        /* \"#utility.yul\":3317:3350   */\n      tag_114\n        /* \"#utility.yul\":3345:3349   */\n      dup3\n        /* \"#utility.yul\":3337:3343   */\n      dup3\n        /* \"#utility.yul\":3317:3350   */\n      tag_51\n      jump\t// in\n    tag_114:\n        /* \"#utility.yul\":3227:3356   */\n      swap2\n      swap1\n      pop\n      jump\t// out\n        /* \"#utility.yul\":3362:3669   */\n    tag_53:\n        /* \"#utility.yul\":3423:3427   */\n      0x00\n        /* \"#utility.yul\":3513:3531   */\n      0xffffffffffffffff\n        /* \"#utility.yul\":3505:3511   */\n      dup3\n        /* \"#utility.yul\":3502:3532   */\n      gt\n        /* \"#utility.yul\":3499:3555   */\n      iszero\n      tag_116\n      jumpi\n        /* \"#utility.yul\":3535:3553   */\n      tag_117\n      tag_50\n      jump\t// in\n    tag_117:\n        /* \"#utility.yul\":3499:3555   */\n    tag_116:\n        /* \"#utility.yul\":3573:3602   */\n      tag_118\n        /* \"#utility.yul\":3595:3601   */\n      dup3\n        /* \"#utility.yul\":3573:3602   */\n      tag_46\n      jump\t// in\n    tag_118:\n        /* \"#utility.yul\":3565:3602   */\n      swap1\n      pop\n        /* \"#utility.yul\":3657:3661   */\n      0x20\n        /* \"#utility.yul\":3651:3655   */\n      dup2\n        /* \"#utility.yul\":3647:3662   */\n      add\n        /* \"#utility.yul\":3639:3662   */\n      swap1\n      pop\n        /* \"#utility.yul\":3362:3669   */\n      swap2\n      swap1\n      pop\n      jump\t// out\n        /* \"#utility.yul\":3675:3821   */\n    tag_54:\n        /* \"#utility.yul\":3772:3778   */\n      dup3\n        /* \"#utility.yul\":3767:3770   */\n      dup2\n        /* \"#utility.yul\":3762:3765   */\n      dup4\n        /* \"#utility.yul\":3749:3779   */\n      calldatacopy\n        /* \"#utility.yul\":3813:3814   */\n      0x00\n        /* \"#utility.yul\":3804:3810   */\n      dup4\n        /* \"#utility.yul\":3799:3802   */\n      dup4\n        /* \"#utility.yul\":3795:3811   */\n      add\n        /* \"#utility.yul\":3788:3815   */\n      mstore\n        /* \"#utility.yul\":3675:3821   */\n      pop\n      pop\n      pop\n      jump\t// out\n        /* \"#utility.yul\":3827:4250   */\n    tag_55:\n        /* \"#utility.yul\":3904:3909   */\n      0x00\n        /* \"#utility.yul\":3929:3994   */\n      tag_121\n        /* \"#utility.yul\":3945:3993   */\n      tag_122\n        /* \"#utility.yul\":3986:3992   */\n      dup5\n        /* \"#utility.yul\":3945:3993   */\n      tag_53\n      jump\t// in\n    tag_122:\n        /* \"#utility.yul\":3929:3994   */\n      tag_52\n      jump\t// in\n    tag_121:\n        /* \"#utility.yul\":3920:3994   */\n      swap1\n      pop\n        /* \"#utility.yul\":4017:4023   */\n      dup3\n        /* \"#utility.yul\":4010:4015   */\n      dup2\n        /* \"#utility.yul\":4003:4024   */\n      mstore\n        /* \"#utility.yul\":4055:4059   */\n      0x20\n        /* \"#utility.yul\":4048:4053   */\n      dup2\n        /* \"#utility.yul\":4044:4060   */\n      add\n        /* \"#utility.yul\":4093:4096   */\n      dup5\n        /* \"#utility.yul\":4084:4090   */\n      dup5\n        /* \"#utility.yul\":4079:4082   */\n      dup5\n        /* \"#utility.yul\":4075:4091   */\n      add\n        /* \"#utility.yul\":4072:4097   */\n      gt\n        /* \"#utility.yul\":4069:4181   */\n      iszero\n      tag_123\n      jumpi\n        /* \"#utility.yul\":4100:4179   */\n      tag_124\n      tag_49\n      jump\t// in\n    tag_124:\n        /* \"#utility.yul\":4069:4181   */\n    tag_123:\n        /* \"#utility.yul\":4190:4244   */\n      tag_125\n        /* \"#utility.yul\":4237:4243   */\n      dup5\n        /* \"#utility.yul\":4232:4235   */\n      dup3\n        /* \"#utility.yul\":4227:4230   */\n      dup6\n        /* \"#utility.yul\":4190:4244   */\n      tag_54\n      jump\t// in\n    tag_125:\n        /* \"#utility.yul\":3910:4250   */\n      pop\n        /* \"#utility.yul\":3827:4250   */\n      swap4\n      swap3\n      pop\n      pop\n      pop\n      jump\t// out\n        /* \"#utility.yul\":4269:4607   */\n    tag_56:\n        /* \"#utility.yul\":4324:4329   */\n      0x00\n        /* \"#utility.yul\":4373:4376   */\n      dup3\n        /* \"#utility.yul\":4366:4370   */\n      0x1f\n        /* \"#utility.yul\":4358:4364   */\n      dup4\n        /* \"#utility.yul\":4354:4371   */\n      add\n        /* \"#utility.yul\":4350:4377   */\n      slt\n        /* \"#utility.yul\":4340:4462   */\n      tag_127\n      jumpi\n        /* \"#utility.yul\":4381:4460   */\n      tag_128\n      tag_48\n      jump\t// in\n    tag_128:\n        /* \"#utility.yul\":4340:4462   */\n    tag_127:\n        /* \"#utility.yul\":4498:4504   */\n      dup2\n        /* \"#utility.yul\":4485:4505   */\n      calldataload\n        /* \"#utility.yul\":4523:4601   */\n      tag_129\n        /* \"#utility.yul\":4597:4600   */\n      dup5\n        /* \"#utility.yul\":4589:4595   */\n      dup3\n        /* \"#utility.yul\":4582:4586   */\n      0x20\n        /* \"#utility.yul\":4574:4580   */\n      dup7\n        /* \"#utility.yul\":4570:4587   */\n      add\n        /* \"#utility.yul\":4523:4601   */\n      tag_55\n      jump\t// in\n    tag_129:\n        /* \"#utility.yul\":4514:4601   */\n      swap2\n      pop\n        /* \"#utility.yul\":4330:4607   */\n      pop\n        /* \"#utility.yul\":4269:4607   */\n      swap3\n      swap2\n      pop\n      pop\n      jump\t// out\n        /* \"#utility.yul\":4613:4690   */\n    tag_57:\n        /* \"#utility.yul\":4650:4657   */\n      0x00\n        /* \"#utility.yul\":4679:4684   */\n      dup2\n        /* \"#utility.yul\":4668:4684   */\n      swap1\n      pop\n        /* \"#utility.yul\":4613:4690   */\n      swap2\n      swap1\n      pop\n      jump\t// out\n        /* \"#utility.yul\":4696:4818   */\n    tag_58:\n        /* \"#utility.yul\":4769:4793   */\n      tag_132\n        /* \"#utility.yul\":4787:4792   */\n      dup2\n        /* \"#utility.yul\":4769:4793   */\n      tag_57\n      jump\t// in\n    tag_132:\n        /* \"#utility.yul\":4762:4767   */\n      dup2\n        /* \"#utility.yul\":4759:4794   */\n      eq\n        /* \"#utility.yul\":4749:4812   */\n      tag_133\n      jumpi\n        /* \"#utility.yul\":4808:4809   */\n      0x00\n        /* \"#utility.yul\":4805:4806   */\n      dup1\n        /* \"#utility.yul\":4798:4810   */\n      revert\n        /* \"#utility.yul\":4749:4812   */\n    tag_133:\n        /* \"#utility.yul\":4696:4818   */\n      pop\n      jump\t// out\n        /* \"#utility.yul\":4824:4963   */\n    tag_59:\n        /* \"#utility.yul\":4870:4875   */\n      0x00\n        /* \"#utility.yul\":4908:4914   */\n      dup2\n        /* \"#utility.yul\":4895:4915   */\n      calldataload\n        /* \"#utility.yul\":4886:4915   */\n      swap1\n      pop\n        /* \"#utility.yul\":4924:4957   */\n      tag_135\n        /* \"#utility.yul\":4951:4956   */\n      dup2\n        /* \"#utility.yul\":4924:4957   */\n      tag_58\n      jump\t// in\n    tag_135:\n        /* \"#utility.yul\":4824:4963   */\n      swap3\n      swap2\n      pop\n      pop\n      jump\t// out\n        /* \"#utility.yul\":4969:5621   */\n    tag_14:\n        /* \"#utility.yul\":5046:5052   */\n      0x00\n        /* \"#utility.yul\":5054:5060   */\n      dup1\n        /* \"#utility.yul\":5103:5105   */\n      0x40\n        /* \"#utility.yul\":5091:5100   */\n      dup4\n        /* \"#utility.yul\":5082:5089   */\n      dup6\n        /* \"#utility.yul\":5078:5101   */\n      sub\n        /* \"#utility.yul\":5074:5106   */\n      slt\n        /* \"#utility.yul\":5071:5190   */\n      iszero\n      tag_137\n      jumpi\n        /* \"#utility.yul\":5109:5188   */\n      tag_138\n      tag_37\n      jump\t// in\n    tag_138:\n        /* \"#utility.yul\":5071:5190   */\n    tag_137:\n        /* \"#utility.yul\":5257:5258   */\n      0x00\n        /* \"#utility.yul\":5246:5255   */\n      dup4\n        /* \"#utility.yul\":5242:5259   */\n      add\n        /* \"#utility.yul\":5229:5260   */\n      calldataload\n        /* \"#utility.yul\":5287:5305   */\n      0xffffffffffffffff\n        /* \"#utility.yul\":5279:5285   */\n      dup2\n        /* \"#utility.yul\":5276:5306   */\n      gt\n        /* \"#utility.yul\":5273:5390   */\n      iszero\n      tag_139\n      jumpi\n        /* \"#utility.yul\":5309:5388   */\n      tag_140\n      tag_38\n      jump\t// in\n    tag_140:\n        /* \"#utility.yul\":5273:5390   */\n    tag_139:\n        /* \"#utility.yul\":5414:5476   */\n      tag_141\n        /* \"#utility.yul\":5468:5475   */\n      dup6\n        /* \"#utility.yul\":5459:5465   */\n      dup3\n        /* \"#utility.yul\":5448:5457   */\n      dup7\n        /* \"#utility.yul\":5444:5466   */\n      add\n        /* \"#utility.yul\":5414:5476   */\n      tag_56\n      jump\t// in\n    tag_141:\n        /* \"#utility.yul\":5404:5476   */\n      swap3\n      pop\n        /* \"#utility.yul\":5200:5486   */\n      pop\n        /* \"#utility.yul\":5525:5527   */\n      0x20\n        /* \"#utility.yul\":5551:5604   */\n      tag_142\n        /* \"#utility.yul\":5596:5603   */\n      dup6\n        /* \"#utility.yul\":5587:5593   */\n      dup3\n        /* \"#utility.yul\":5576:5585   */\n      dup7\n        /* \"#utility.yul\":5572:5594   */\n      add\n        /* \"#utility.yul\":5551:5604   */\n      tag_59\n      jump\t// in\n    tag_142:\n        /* \"#utility.yul\":5541:5604   */\n      swap2\n      pop\n        /* \"#utility.yul\":5496:5614   */\n      pop\n        /* \"#utility.yul\":4969:5621   */\n      swap3\n      pop\n      swap3\n      swap1\n      pop\n      jump\t// out\n        /* \"#utility.yul\":5627:5745   */\n    tag_60:\n        /* \"#utility.yul\":5714:5738   */\n      tag_144\n        /* \"#utility.yul\":5732:5737   */\n      dup2\n        /* \"#utility.yul\":5714:5738   */\n      tag_40\n      jump\t// in\n    tag_144:\n        /* \"#utility.yul\":5709:5712   */\n      dup3\n        /* \"#utility.yul\":5702:5739   */\n      mstore\n        /* \"#utility.yul\":5627:5745   */\n      pop\n      pop\n      jump\t// out\n        /* \"#utility.yul\":5751:5973   */\n    tag_17:\n        /* \"#utility.yul\":5844:5848   */\n      0x00\n        /* \"#utility.yul\":5882:5884   */\n      0x20\n        /* \"#utility.yul\":5871:5880   */\n      dup3\n        /* \"#utility.yul\":5867:5885   */\n      add\n        /* \"#utility.yul\":5859:5885   */\n      swap1\n      pop\n        /* \"#utility.yul\":5895:5966   */\n      tag_146\n        /* \"#utility.yul\":5963:5964   */\n      0x00\n        /* \"#utility.yul\":5952:5961   */\n      dup4\n        /* \"#utility.yul\":5948:5965   */\n      add\n        /* \"#utility.yul\":5939:5945   */\n      dup5\n        /* \"#utility.yul\":5895:5966   */\n      tag_60\n      jump\t// in\n    tag_146:\n        /* \"#utility.yul\":5751:5973   */\n      swap3\n      swap2\n      pop\n      pop\n      jump\t// out\n        /* \"#utility.yul\":5979:6308   */\n    tag_20:\n        /* \"#utility.yul\":6038:6044   */\n      0x00\n        /* \"#utility.yul\":6087:6089   */\n      0x20\n        /* \"#utility.yul\":6075:6084   */\n      dup3\n        /* \"#utility.yul\":6066:6073   */\n      dup5\n        /* \"#utility.yul\":6062:6085   */\n      sub\n        /* \"#utility.yul\":6058:6090   */\n      slt\n        /* \"#utility.yul\":6055:6174   */\n      iszero\n      tag_148\n      jumpi\n        /* \"#utility.yul\":6093:6172   */\n      tag_149\n      tag_37\n      jump\t// in\n    tag_149:\n        /* \"#utility.yul\":6055:6174   */\n    tag_148:\n        /* \"#utility.yul\":6213:6214   */\n      0x00\n        /* \"#utility.yul\":6238:6291   */\n      tag_150\n        /* \"#utility.yul\":6283:6290   */\n      dup5\n        /* \"#utility.yul\":6274:6280   */\n      dup3\n        /* \"#utility.yul\":6263:6272   */\n      dup6\n        /* \"#utility.yul\":6259:6281   */\n      add\n        /* \"#utility.yul\":6238:6291   */\n      tag_59\n      jump\t// in\n    tag_150:\n        /* \"#utility.yul\":6228:6291   */\n      swap2\n      pop\n        /* \"#utility.yul\":6184:6301   */\n      pop\n        /* \"#utility.yul\":5979:6308   */\n      swap3\n      swap2\n      pop\n      pop\n      jump\t// out\n        /* \"#utility.yul\":6314:6461   */\n    tag_61:\n        /* \"#utility.yul\":6415:6426   */\n      0x00\n        /* \"#utility.yul\":6452:6455   */\n      dup2\n        /* \"#utility.yul\":6437:6455   */\n      swap1\n      pop\n        /* \"#utility.yul\":6314:6461   */\n      swap3\n      swap2\n      pop\n      pop\n      jump\t// out\n        /* \"#utility.yul\":6467:6853   */\n    tag_62:\n        /* \"#utility.yul\":6571:6574   */\n      0x00\n        /* \"#utility.yul\":6599:6637   */\n      tag_153\n        /* \"#utility.yul\":6631:6636   */\n      dup3\n        /* \"#utility.yul\":6599:6637   */\n      tag_43\n      jump\t// in\n    tag_153:\n        /* \"#utility.yul\":6653:6741   */\n      tag_154\n        /* \"#utility.yul\":6734:6740   */\n      dup2\n        /* \"#utility.yul\":6729:6732   */\n      dup6\n        /* \"#utility.yul\":6653:6741   */\n      tag_61\n      jump\t// in\n    tag_154:\n        /* \"#utility.yul\":6646:6741   */\n      swap4\n      pop\n        /* \"#utility.yul\":6750:6815   */\n      tag_155\n        /* \"#utility.yul\":6808:6814   */\n      dup2\n        /* \"#utility.yul\":6803:6806   */\n      dup6\n        /* \"#utility.yul\":6796:6800   */\n      0x20\n        /* \"#utility.yul\":6789:6794   */\n      dup7\n        /* \"#utility.yul\":6785:6801   */\n      add\n        /* \"#utility.yul\":6750:6815   */\n      tag_45\n      jump\t// in\n    tag_155:\n        /* \"#utility.yul\":6840:6846   */\n      dup1\n        /* \"#utility.yul\":6835:6838   */\n      dup5\n        /* \"#utility.yul\":6831:6847   */\n      add\n        /* \"#utility.yul\":6824:6847   */\n      swap2\n      pop\n        /* \"#utility.yul\":6575:6853   */\n      pop\n        /* \"#utility.yul\":6467:6853   */\n      swap3\n      swap2\n      pop\n      pop\n      jump\t// out\n        /* \"#utility.yul\":6859:7286   */\n    tag_27:\n        /* \"#utility.yul\":7035:7038   */\n      0x00\n        /* \"#utility.yul\":7057:7150   */\n      tag_157\n        /* \"#utility.yul\":7146:7149   */\n      dup3\n        /* \"#utility.yul\":7137:7143   */\n      dup6\n        /* \"#utility.yul\":7057:7150   */\n      tag_62\n      jump\t// in\n    tag_157:\n        /* \"#utility.yul\":7050:7150   */\n      swap2\n      pop\n        /* \"#utility.yul\":7167:7260   */\n      tag_158\n        /* \"#utility.yul\":7256:7259   */\n      dup3\n        /* \"#utility.yul\":7247:7253   */\n      dup5\n        /* \"#utility.yul\":7167:7260   */\n      tag_62\n      jump\t// in\n    tag_158:\n        /* \"#utility.yul\":7160:7260   */\n      swap2\n      pop\n        /* \"#utility.yul\":7277:7280   */\n      dup2\n        /* \"#utility.yul\":7270:7280   */\n      swap1\n      pop\n        /* \"#utility.yul\":6859:7286   */\n      swap4\n      swap3\n      pop\n      pop\n      pop\n      jump\t// out\n        /* \"#utility.yul\":7292:7441   */\n    tag_63:\n        /* \"#utility.yul\":7328:7335   */\n      0x00\n        /* \"#utility.yul\":7368:7434   */\n      0xff00000000000000000000000000000000000000000000000000000000000000\n        /* \"#utility.yul\":7361:7366   */\n      dup3\n        /* \"#utility.yul\":7357:7435   */\n      and\n        /* \"#utility.yul\":7346:7435   */\n      swap1\n      pop\n        /* \"#utility.yul\":7292:7441   */\n      swap2\n      swap1\n      pop\n      jump\t// out\n        /* \"#utility.yul\":7447:7525   */\n    tag_64:\n        /* \"#utility.yul\":7485:7492   */\n      0x00\n        /* \"#utility.yul\":7514:7519   */\n      dup2\n        /* \"#utility.yul\":7503:7519   */\n      swap1\n      pop\n        /* \"#utility.yul\":7447:7525   */\n      swap2\n      swap1\n      pop\n      jump\t// out\n        /* \"#utility.yul\":7531:7684   */\n    tag_65:\n        /* \"#utility.yul\":7634:7677   */\n      tag_162\n        /* \"#utility.yul\":7653:7676   */\n      tag_163\n        /* \"#utility.yul\":7670:7675   */\n      dup3\n        /* \"#utility.yul\":7653:7676   */\n      tag_63\n      jump\t// in\n    tag_163:\n        /* \"#utility.yul\":7634:7677   */\n      tag_64\n      jump\t// in\n    tag_162:\n        /* \"#utility.yul\":7629:7632   */\n      dup3\n        /* \"#utility.yul\":7622:7678   */\n      mstore\n        /* \"#utility.yul\":7531:7684   */\n      pop\n      pop\n      jump\t// out\n        /* \"#utility.yul\":7690:7784   */\n    tag_66:\n        /* \"#utility.yul\":7723:7731   */\n      0x00\n        /* \"#utility.yul\":7771:7776   */\n      dup2\n        /* \"#utility.yul\":7767:7769   */\n      0x60\n        /* \"#utility.yul\":7763:7777   */\n      shl\n        /* \"#utility.yul\":7742:7777   */\n      swap1\n      pop\n        /* \"#utility.yul\":7690:7784   */\n      swap2\n      swap1\n      pop\n      jump\t// out\n        /* \"#utility.yul\":7790:7884   */\n    tag_67:\n        /* \"#utility.yul\":7829:7836   */\n      0x00\n        /* \"#utility.yul\":7858:7878   */\n      tag_166\n        /* \"#utility.yul\":7872:7877   */\n      dup3\n        /* \"#utility.yul\":7858:7878   */\n      tag_66\n      jump\t// in\n    tag_166:\n        /* \"#utility.yul\":7847:7878   */\n      swap1\n      pop\n        /* \"#utility.yul\":7790:7884   */\n      swap2\n      swap1\n      pop\n      jump\t// out\n        /* \"#utility.yul\":7890:7990   */\n    tag_68:\n        /* \"#utility.yul\":7929:7936   */\n      0x00\n        /* \"#utility.yul\":7958:7984   */\n      tag_168\n        /* \"#utility.yul\":7978:7983   */\n      dup3\n        /* \"#utility.yul\":7958:7984   */\n      tag_67\n      jump\t// in\n    tag_168:\n        /* \"#utility.yul\":7947:7984   */\n      swap1\n      pop\n        /* \"#utility.yul\":7890:7990   */\n      swap2\n      swap1\n      pop\n      jump\t// out\n        /* \"#utility.yul\":7996:8153   */\n    tag_69:\n        /* \"#utility.yul\":8101:8146   */\n      tag_170\n        /* \"#utility.yul\":8121:8145   */\n      tag_171\n        /* \"#utility.yul\":8139:8144   */\n      dup3\n        /* \"#utility.yul\":8121:8145   */\n      tag_40\n      jump\t// in\n    tag_171:\n        /* \"#utility.yul\":8101:8146   */\n      tag_68\n      jump\t// in\n    tag_170:\n        /* \"#utility.yul\":8096:8099   */\n      dup3\n        /* \"#utility.yul\":8089:8147   */\n      mstore\n        /* \"#utility.yul\":7996:8153   */\n      pop\n      pop\n      jump\t// out\n        /* \"#utility.yul\":8159:8238   */\n    tag_70:\n        /* \"#utility.yul\":8198:8205   */\n      0x00\n        /* \"#utility.yul\":8227:8232   */\n      dup2\n        /* \"#utility.yul\":8216:8232   */\n      swap1\n      pop\n        /* \"#utility.yul\":8159:8238   */\n      swap2\n      swap1\n      pop\n      jump\t// out\n        /* \"#utility.yul\":8244:8401   */\n    tag_71:\n        /* \"#utility.yul\":8349:8394   */\n      tag_174\n        /* \"#utility.yul\":8369:8393   */\n      tag_175\n        /* \"#utility.yul\":8387:8392   */\n      dup3\n        /* \"#utility.yul\":8369:8393   */\n      tag_57\n      jump\t// in\n    tag_175:\n        /* \"#utility.yul\":8349:8394   */\n      tag_70\n      jump\t// in\n    tag_174:\n        /* \"#utility.yul\":8344:8347   */\n      dup3\n        /* \"#utility.yul\":8337:8395   */\n      mstore\n        /* \"#utility.yul\":8244:8401   */\n      pop\n      pop\n      jump\t// out\n        /* \"#utility.yul\":8407:8484   */\n    tag_72:\n        /* \"#utility.yul\":8444:8451   */\n      0x00\n        /* \"#utility.yul\":8473:8478   */\n      dup2\n        /* \"#utility.yul\":8462:8478   */\n      swap1\n      pop\n        /* \"#utility.yul\":8407:8484   */\n      swap2\n      swap1\n      pop\n      jump\t// out\n        /* \"#utility.yul\":8490:8569   */\n    tag_73:\n        /* \"#utility.yul\":8529:8536   */\n      0x00\n        /* \"#utility.yul\":8558:8563   */\n      dup2\n        /* \"#utility.yul\":8547:8563   */\n      swap1\n      pop\n        /* \"#utility.yul\":8490:8569   */\n      swap2\n      swap1\n      pop\n      jump\t// out\n        /* \"#utility.yul\":8575:8732   */\n    tag_74:\n        /* \"#utility.yul\":8680:8725   */\n      tag_179\n        /* \"#utility.yul\":8700:8724   */\n      tag_180\n        /* \"#utility.yul\":8718:8723   */\n      dup3\n        /* \"#utility.yul\":8700:8724   */\n      tag_72\n      jump\t// in\n    tag_180:\n        /* \"#utility.yul\":8680:8725   */\n      tag_73\n      jump\t// in\n    tag_179:\n        /* \"#utility.yul\":8675:8678   */\n      dup3\n        /* \"#utility.yul\":8668:8726   */\n      mstore\n        /* \"#utility.yul\":8575:8732   */\n      pop\n      pop\n      jump\t// out\n        /* \"#utility.yul\":8738:9412   */\n    tag_30:\n        /* \"#utility.yul\":8932:8935   */\n      0x00\n        /* \"#utility.yul\":8947:9020   */\n      tag_182\n        /* \"#utility.yul\":9016:9019   */\n      dup3\n        /* \"#utility.yul\":9007:9013   */\n      dup8\n        /* \"#utility.yul\":8947:9020   */\n      tag_65\n      jump\t// in\n    tag_182:\n        /* \"#utility.yul\":9045:9046   */\n      0x01\n        /* \"#utility.yul\":9040:9043   */\n      dup3\n        /* \"#utility.yul\":9036:9047   */\n      add\n        /* \"#utility.yul\":9029:9047   */\n      swap2\n      pop\n        /* \"#utility.yul\":9057:9132   */\n      tag_183\n        /* \"#utility.yul\":9128:9131   */\n      dup3\n        /* \"#utility.yul\":9119:9125   */\n      dup7\n        /* \"#utility.yul\":9057:9132   */\n      tag_69\n      jump\t// in\n    tag_183:\n        /* \"#utility.yul\":9157:9159   */\n      0x14\n        /* \"#utility.yul\":9152:9155   */\n      dup3\n        /* \"#utility.yul\":9148:9160   */\n      add\n        /* \"#utility.yul\":9141:9160   */\n      swap2\n      pop\n        /* \"#utility.yul\":9170:9245   */\n      tag_184\n        /* \"#utility.yul\":9241:9244   */\n      dup3\n        /* \"#utility.yul\":9232:9238   */\n      dup6\n        /* \"#utility.yul\":9170:9245   */\n      tag_71\n      jump\t// in\n    tag_184:\n        /* \"#utility.yul\":9270:9272   */\n      0x20\n        /* \"#utility.yul\":9265:9268   */\n      dup3\n        /* \"#utility.yul\":9261:9273   */\n      add\n        /* \"#utility.yul\":9254:9273   */\n      swap2\n      pop\n        /* \"#utility.yul\":9283:9358   */\n      tag_185\n        /* \"#utility.yul\":9354:9357   */\n      dup3\n        /* \"#utility.yul\":9345:9351   */\n      dup5\n        /* \"#utility.yul\":9283:9358   */\n      tag_74\n      jump\t// in\n    tag_185:\n        /* \"#utility.yul\":9383:9385   */\n      0x20\n        /* \"#utility.yul\":9378:9381   */\n      dup3\n        /* \"#utility.yul\":9374:9386   */\n      add\n        /* \"#utility.yul\":9367:9386   */\n      swap2\n      pop\n        /* \"#utility.yul\":9403:9406   */\n      dup2\n        /* \"#utility.yul\":9396:9406   */\n      swap1\n      pop\n        /* \"#utility.yul\":8738:9412   */\n      swap6\n      swap5\n      pop\n      pop\n      pop\n      pop\n      pop\n      jump\t// out\n    stop\n\n    sub_0: assembly {\n            /* \"contracts/Create2.sol\":95:216  contract DeployWithCreate2 {... */\n          mstore(0x40, 0x80)\n            /* \"contracts/Create2.sol\":155:214  constructor(address _owner) {... */\n          callvalue\n          dup1\n          iszero\n          tag_1\n          jumpi\n          0x00\n          dup1\n          revert\n        tag_1:\n          pop\n          mload(0x40)\n          sub(codesize, bytecodeSize)\n          dup1\n          bytecodeSize\n          dup4\n          codecopy\n          dup2\n          dup2\n          add\n          0x40\n          mstore\n          dup2\n          add\n          swap1\n          tag_2\n          swap2\n          swap1\n          tag_3\n          jump\t// in\n        tag_2:\n            /* \"contracts/Create2.sol\":201:207  _owner */\n          dup1\n            /* \"contracts/Create2.sol\":193:198  owner */\n          0x00\n          dup1\n            /* \"contracts/Create2.sol\":193:207  owner = _owner */\n          0x0100\n          exp\n          dup2\n          sload\n          dup2\n          0xffffffffffffffffffffffffffffffffffffffff\n          mul\n          not\n          and\n          swap1\n          dup4\n          0xffffffffffffffffffffffffffffffffffffffff\n          and\n          mul\n          or\n          swap1\n          sstore\n          pop\n            /* \"contracts/Create2.sol\":155:214  constructor(address _owner) {... */\n          pop\n            /* \"contracts/Create2.sol\":95:216  contract DeployWithCreate2 {... */\n          jump(tag_6)\n            /* \"#utility.yul\":88:205   */\n        tag_8:\n            /* \"#utility.yul\":197:198   */\n          0x00\n            /* \"#utility.yul\":194:195   */\n          dup1\n            /* \"#utility.yul\":187:199   */\n          revert\n            /* \"#utility.yul\":334:460   */\n        tag_10:\n            /* \"#utility.yul\":371:378   */\n          0x00\n            /* \"#utility.yul\":411:453   */\n          0xffffffffffffffffffffffffffffffffffffffff\n            /* \"#utility.yul\":404:409   */\n          dup3\n            /* \"#utility.yul\":400:454   */\n          and\n            /* \"#utility.yul\":389:454   */\n          swap1\n          pop\n            /* \"#utility.yul\":334:460   */\n          swap2\n          swap1\n          pop\n          jump\t// out\n            /* \"#utility.yul\":466:562   */\n        tag_11:\n            /* \"#utility.yul\":503:510   */\n          0x00\n            /* \"#utility.yul\":532:556   */\n          tag_20\n            /* \"#utility.yul\":550:555   */\n          dup3\n            /* \"#utility.yul\":532:556   */\n          tag_10\n          jump\t// in\n        tag_20:\n            /* \"#utility.yul\":521:556   */\n          swap1\n          pop\n            /* \"#utility.yul\":466:562   */\n          swap2\n          swap1\n          pop\n          jump\t// out\n            /* \"#utility.yul\":568:690   */\n        tag_12:\n            /* \"#utility.yul\":641:665   */\n          tag_22\n            /* \"#utility.yul\":659:664   */\n          dup2\n            /* \"#utility.yul\":641:665   */\n          tag_11\n          jump\t// in\n        tag_22:\n            /* \"#utility.yul\":634:639   */\n          dup2\n            /* \"#utility.yul\":631:666   */\n          eq\n            /* \"#utility.yul\":621:684   */\n          tag_23\n          jumpi\n            /* \"#utility.yul\":680:681   */\n          0x00\n            /* \"#utility.yul\":677:678   */\n          dup1\n            /* \"#utility.yul\":670:682   */\n          revert\n            /* \"#utility.yul\":621:684   */\n        tag_23:\n            /* \"#utility.yul\":568:690   */\n          pop\n          jump\t// out\n            /* \"#utility.yul\":696:839   */\n        tag_13:\n            /* \"#utility.yul\":753:758   */\n          0x00\n            /* \"#utility.yul\":784:790   */\n          dup2\n            /* \"#utility.yul\":778:791   */\n          mload\n            /* \"#utility.yul\":769:791   */\n          swap1\n          pop\n            /* \"#utility.yul\":800:833   */\n          tag_25\n            /* \"#utility.yul\":827:832   */\n          dup2\n            /* \"#utility.yul\":800:833   */\n          tag_12\n          jump\t// in\n        tag_25:\n            /* \"#utility.yul\":696:839   */\n          swap3\n          swap2\n          pop\n          pop\n          jump\t// out\n            /* \"#utility.yul\":845:1196   */\n        tag_3:\n            /* \"#utility.yul\":915:921   */\n          0x00\n            /* \"#utility.yul\":964:966   */\n          0x20\n            /* \"#utility.yul\":952:961   */\n          dup3\n            /* \"#utility.yul\":943:950   */\n          dup5\n            /* \"#utility.yul\":939:962   */\n          sub\n            /* \"#utility.yul\":935:967   */\n          slt\n            /* \"#utility.yul\":932:1051   */\n          iszero\n          tag_27\n          jumpi\n            /* \"#utility.yul\":970:1049   */\n          tag_28\n          tag_8\n          jump\t// in\n        tag_28:\n            /* \"#utility.yul\":932:1051   */\n        tag_27:\n            /* \"#utility.yul\":1090:1091   */\n          0x00\n            /* \"#utility.yul\":1115:1179   */\n          tag_29\n            /* \"#utility.yul\":1171:1178   */\n          dup5\n            /* \"#utility.yul\":1162:1168   */\n          dup3\n            /* \"#utility.yul\":1151:1160   */\n          dup6\n            /* \"#utility.yul\":1147:1169   */\n          add\n            /* \"#utility.yul\":1115:1179   */\n          tag_13\n          jump\t// in\n        tag_29:\n            /* \"#utility.yul\":1105:1179   */\n          swap2\n          pop\n            /* \"#utility.yul\":1061:1189   */\n          pop\n            /* \"#utility.yul\":845:1196   */\n          swap3\n          swap2\n          pop\n          pop\n          jump\t// out\n            /* \"contracts/Create2.sol\":95:216  contract DeployWithCreate2 {... */\n        tag_6:\n          dataSize(sub_0)\n          dup1\n          dataOffset(sub_0)\n          0x00\n          codecopy\n          0x00\n          return\n        stop\n\n        sub_0: assembly {\n                /* \"contracts/Create2.sol\":95:216  contract DeployWithCreate2 {... */\n              mstore(0x40, 0x80)\n              callvalue\n              dup1\n              iszero\n              tag_1\n              jumpi\n              0x00\n              dup1\n              revert\n            tag_1:\n              pop\n              jumpi(tag_2, lt(calldatasize, 0x04))\n              shr(0xe0, calldataload(0x00))\n              dup1\n              0x8da5cb5b\n              eq\n              tag_3\n              jumpi\n            tag_2:\n              0x00\n              dup1\n              revert\n                /* \"contracts/Create2.sol\":128:148  address public owner */\n            tag_3:\n              tag_4\n              tag_5\n              jump\t// in\n            tag_4:\n              mload(0x40)\n              tag_6\n              swap2\n              swap1\n              tag_7\n              jump\t// in\n            tag_6:\n              mload(0x40)\n              dup1\n              swap2\n              sub\n              swap1\n              return\n            tag_5:\n              0x00\n              dup1\n              sload\n              swap1\n              0x0100\n              exp\n              swap1\n              div\n              0xffffffffffffffffffffffffffffffffffffffff\n              and\n              dup2\n              jump\t// out\n                /* \"#utility.yul\":7:133   */\n            tag_8:\n                /* \"#utility.yul\":44:51   */\n              0x00\n                /* \"#utility.yul\":84:126   */\n              0xffffffffffffffffffffffffffffffffffffffff\n                /* \"#utility.yul\":77:82   */\n              dup3\n                /* \"#utility.yul\":73:127   */\n              and\n                /* \"#utility.yul\":62:127   */\n              swap1\n              pop\n                /* \"#utility.yul\":7:133   */\n              swap2\n              swap1\n              pop\n              jump\t// out\n                /* \"#utility.yul\":139:235   */\n            tag_9:\n                /* \"#utility.yul\":176:183   */\n              0x00\n                /* \"#utility.yul\":205:229   */\n              tag_14\n                /* \"#utility.yul\":223:228   */\n              dup3\n                /* \"#utility.yul\":205:229   */\n              tag_8\n              jump\t// in\n            tag_14:\n                /* \"#utility.yul\":194:229   */\n              swap1\n              pop\n                /* \"#utility.yul\":139:235   */\n              swap2\n              swap1\n              pop\n              jump\t// out\n                /* \"#utility.yul\":241:359   */\n            tag_10:\n                /* \"#utility.yul\":328:352   */\n              tag_16\n                /* \"#utility.yul\":346:351   */\n              dup2\n                /* \"#utility.yul\":328:352   */\n              tag_9\n              jump\t// in\n            tag_16:\n                /* \"#utility.yul\":323:326   */\n              dup3\n                /* \"#utility.yul\":316:353   */\n              mstore\n                /* \"#utility.yul\":241:359   */\n              pop\n              pop\n              jump\t// out\n                /* \"#utility.yul\":365:587   */\n            tag_7:\n                /* \"#utility.yul\":458:462   */\n              0x00\n                /* \"#utility.yul\":496:498   */\n              0x20\n                /* \"#utility.yul\":485:494   */\n              dup3\n                /* \"#utility.yul\":481:499   */\n              add\n                /* \"#utility.yul\":473:499   */\n              swap1\n              pop\n                /* \"#utility.yul\":509:580   */\n              tag_18\n                /* \"#utility.yul\":577:578   */\n              0x00\n                /* \"#utility.yul\":566:575   */\n              dup4\n                /* \"#utility.yul\":562:579   */\n              add\n                /* \"#utility.yul\":553:559   */\n              dup5\n                /* \"#utility.yul\":509:580   */\n              tag_10\n              jump\t// in\n            tag_18:\n                /* \"#utility.yul\":365:587   */\n              swap3\n              swap2\n              pop\n              pop\n              jump\t// out\n\n            auxdata: 0xa2646970667358221220a2978e8e4345576b775ecc2d029621669943b9b8e8db6603a86976c71afc201264736f6c63430008110033\n        }\n    }\n\n    auxdata: 0xa264697066735822122012989c29ca70864d59d141bcf52de81f0298b8c383cbff74c8f334115f9896b964736f6c63430008110033\n}\n",
				"bytecode": {
					"linkReferences": {},
					"object": "608060405234801561001057600080fd5b50610948806100206000396000f3fe608060405234801561001057600080fd5b50600436106100415760003560e01c80630c6008af1461004657806394ca2cb514610076578063a5e38751146100a6575b600080fd5b610060600480360381019061005b9190610279565b6100c2565b60405161006d9190610336565b60405180910390f35b610090600480360381019061008b91906104c3565b610135565b60405161009d919061052e565b60405180910390f35b6100c060048036038101906100bb9190610549565b61017f565b005b60606000604051806020016100d6906101fa565b6020820181038252601f19601f82011660405250905080836040516020016100fe919061052e565b60405160208183030381529060405260405160200161011e9291906105b2565b604051602081830303815290604052915050919050565b60008060ff60f81b3084868051906020012060405160200161015a94939291906106b7565b6040516020818303038152906040528051906020012090508060001c91505092915050565b60008160001b33604051610192906101fa565b61019c919061052e565b8190604051809103906000f59050801580156101bc573d6000803e3d6000fd5b5090507f55ea6c6b31543d8e2ec6a72f71a79c0f4b72ed0d4757172b043d8f4f4cd84848816040516101ee919061052e565b60405180910390a15050565b61020d8061070683390190565b6000604051905090565b600080fd5b600080fd5b600073ffffffffffffffffffffffffffffffffffffffff82169050919050565b60006102468261021b565b9050919050565b6102568161023b565b811461026157600080fd5b50565b6000813590506102738161024d565b92915050565b60006020828403121561028f5761028e610211565b5b600061029d84828501610264565b91505092915050565b600081519050919050565b600082825260208201905092915050565b60005b838110156102e05780820151818401526020810190506102c5565b60008484015250505050565b6000601f19601f8301169050919050565b6000610308826102a6565b61031281856102b1565b93506103228185602086016102c2565b61032b816102ec565b840191505092915050565b6000602082019050818103600083015261035081846102fd565b905092915050565b600080fd5b600080fd5b7f4e487b7100000000000000000000000000000000000000000000000000000000600052604160045260246000fd5b61039a826102ec565b810181811067ffffffffffffffff821117156103b9576103b8610362565b5b80604052505050565b60006103cc610207565b90506103d88282610391565b919050565b600067ffffffffffffffff8211156103f8576103f7610362565b5b610401826102ec565b9050602081019050919050565b82818337600083830152505050565b600061043061042b846103dd565b6103c2565b90508281526020810184848401111561044c5761044b61035d565b5b61045784828561040e565b509392505050565b600082601f83011261047457610473610358565b5b813561048484826020860161041d565b91505092915050565b6000819050919050565b6104a08161048d565b81146104ab57600080fd5b50565b6000813590506104bd81610497565b92915050565b600080604083850312156104da576104d9610211565b5b600083013567ffffffffffffffff8111156104f8576104f7610216565b5b6105048582860161045f565b9250506020610515858286016104ae565b9150509250929050565b6105288161023b565b82525050565b6000602082019050610543600083018461051f565b92915050565b60006020828403121561055f5761055e610211565b5b600061056d848285016104ae565b91505092915050565b600081905092915050565b600061058c826102a6565b6105968185610576565b93506105a68185602086016102c2565b80840191505092915050565b60006105be8285610581565b91506105ca8284610581565b91508190509392505050565b60007fff0000000000000000000000000000000000000000000000000000000000000082169050919050565b6000819050919050565b61061d610618826105d6565b610602565b82525050565b60008160601b9050919050565b600061063b82610623565b9050919050565b600061064d82610630565b9050919050565b6106656106608261023b565b610642565b82525050565b6000819050919050565b6106866106818261048d565b61066b565b82525050565b6000819050919050565b6000819050919050565b6106b16106ac8261068c565b610696565b82525050565b60006106c3828761060c565b6001820191506106d38286610654565b6014820191506106e38285610675565b6020820191506106f382846106a0565b6020820191508190509594505050505056fe608060405234801561001057600080fd5b5060405161020d38038061020d833981810160405281019061003291906100db565b806000806101000a81548173ffffffffffffffffffffffffffffffffffffffff021916908373ffffffffffffffffffffffffffffffffffffffff16021790555050610108565b600080fd5b600073ffffffffffffffffffffffffffffffffffffffff82169050919050565b60006100a88261007d565b9050919050565b6100b88161009d565b81146100c357600080fd5b50565b6000815190506100d5816100af565b92915050565b6000602082840312156100f1576100f0610078565b5b60006100ff848285016100c6565b91505092915050565b60f7806101166000396000f3fe6080604052348015600f57600080fd5b506004361060285760003560e01c80638da5cb5b14602d575b600080fd5b60336047565b604051603e919060a8565b60405180910390f35b60008054906101000a900473ffffffffffffffffffffffffffffffffffffffff1681565b600073ffffffffffffffffffffffffffffffffffffffff82169050919050565b6000609482606b565b9050919050565b60a281608b565b82525050565b600060208201905060bb6000830184609b565b9291505056fea2646970667358221220a2978e8e4345576b775ecc2d029621669943b9b8e8db6603a86976c71afc201264736f6c63430008110033a264697066735822122012989c29ca70864d59d141bcf52de81f0298b8c383cbff74c8f334115f9896b964736f6c63430008110033",
					"opcodes": "PUSH1 0x80 PUSH1 0x40 MSTORE CALLVALUE DUP1 ISZERO PUSH2 0x10 JUMPI PUSH1 0x0 DUP1 REVERT JUMPDEST POP PUSH2 0x948 DUP1 PUSH2 0x20 PUSH1 0x0 CODECOPY PUSH1 0x0 RETURN INVALID PUSH1 0x80 PUSH1 0x40 MSTORE CALLVALUE DUP1 ISZERO PUSH2 0x10 JUMPI PUSH1 0x0 DUP1 REVERT JUMPDEST POP PUSH1 0x4 CALLDATASIZE LT PUSH2 0x41 JUMPI PUSH1 0x0 CALLDATALOAD PUSH1 0xE0 SHR DUP1 PUSH4 0xC6008AF EQ PUSH2 0x46 JUMPI DUP1 PUSH4 0x94CA2CB5 EQ PUSH2 0x76 JUMPI DUP1 PUSH4 0xA5E38751 EQ PUSH2 0xA6 JUMPI JUMPDEST PUSH1 0x0 DUP1 REVERT JUMPDEST PUSH2 0x60 PUSH1 0x4 DUP1 CALLDATASIZE SUB DUP2 ADD SWAP1 PUSH2 0x5B SWAP2 SWAP1 PUSH2 0x279 JUMP JUMPDEST PUSH2 0xC2 JUMP JUMPDEST PUSH1 0x40 MLOAD PUSH2 0x6D SWAP2 SWAP1 PUSH2 0x336 JUMP JUMPDEST PUSH1 0x40 MLOAD DUP1 SWAP2 SUB SWAP1 RETURN JUMPDEST PUSH2 0x90 PUSH1 0x4 DUP1 CALLDATASIZE SUB DUP2 ADD SWAP1 PUSH2 0x8B SWAP2 SWAP1 PUSH2 0x4C3 JUMP JUMPDEST PUSH2 0x135 JUMP JUMPDEST PUSH1 0x40 MLOAD PUSH2 0x9D SWAP2 SWAP1 PUSH2 0x52E JUMP JUMPDEST PUSH1 0x40 MLOAD DUP1 SWAP2 SUB SWAP1 RETURN JUMPDEST PUSH2 0xC0 PUSH1 0x4 DUP1 CALLDATASIZE SUB DUP2 ADD SWAP1 PUSH2 0xBB SWAP2 SWAP1 PUSH2 0x549 JUMP JUMPDEST PUSH2 0x17F JUMP JUMPDEST STOP JUMPDEST PUSH1 0x60 PUSH1 0x0 PUSH1 0x40 MLOAD DUP1 PUSH1 0x20 ADD PUSH2 0xD6 SWAP1 PUSH2 0x1FA JUMP JUMPDEST PUSH1 0x20 DUP3 ADD DUP2 SUB DUP3 MSTORE PUSH1 0x1F NOT PUSH1 0x1F DUP3 ADD AND PUSH1 0x40 MSTORE POP SWAP1 POP DUP1 DUP4 PUSH1 0x40 MLOAD PUSH1 0x20 ADD PUSH2 0xFE SWAP2 SWAP1 PUSH2 0x52E JUMP JUMPDEST PUSH1 0x40 MLOAD PUSH1 0x20 DUP2 DUP4 SUB SUB DUP2 MSTORE SWAP1 PUSH1 0x40 MSTORE PUSH1 0x40 MLOAD PUSH1 0x20 ADD PUSH2 0x11E SWAP3 SWAP2 SWAP1 PUSH2 0x5B2 JUMP JUMPDEST PUSH1 0x40 MLOAD PUSH1 0x20 DUP2 DUP4 SUB SUB DUP2 MSTORE SWAP1 PUSH1 0x40 MSTORE SWAP2 POP POP SWAP2 SWAP1 POP JUMP JUMPDEST PUSH1 0x0 DUP1 PUSH1 0xFF PUSH1 0xF8 SHL ADDRESS DUP5 DUP7 DUP1 MLOAD SWAP1 PUSH1 0x20 ADD KECCAK256 PUSH1 0x40 MLOAD PUSH1 0x20 ADD PUSH2 0x15A SWAP5 SWAP4 SWAP3 SWAP2 SWAP1 PUSH2 0x6B7 JUMP JUMPDEST PUSH1 0x40 MLOAD PUSH1 0x20 DUP2 DUP4 SUB SUB DUP2 MSTORE SWAP1 PUSH1 0x40 MSTORE DUP1 MLOAD SWAP1 PUSH1 0x20 ADD KECCAK256 SWAP1 POP DUP1 PUSH1 0x0 SHR SWAP2 POP POP SWAP3 SWAP2 POP POP JUMP JUMPDEST PUSH1 0x0 DUP2 PUSH1 0x0 SHL CALLER PUSH1 0x40 MLOAD PUSH2 0x192 SWAP1 PUSH2 0x1FA JUMP JUMPDEST PUSH2 0x19C SWAP2 SWAP1 PUSH2 0x52E JUMP JUMPDEST DUP2 SWAP1 PUSH1 0x40 MLOAD DUP1 SWAP2 SUB SWAP1 PUSH1 0x0 CREATE2 SWAP1 POP DUP1 ISZERO DUP1 ISZERO PUSH2 0x1BC JUMPI RETURNDATASIZE PUSH1 0x0 DUP1 RETURNDATACOPY RETURNDATASIZE PUSH1 0x0 REVERT JUMPDEST POP SWAP1 POP PUSH32 0x55EA6C6B31543D8E2EC6A72F71A79C0F4B72ED0D4757172B043D8F4F4CD84848 DUP2 PUSH1 0x40 MLOAD PUSH2 0x1EE SWAP2 SWAP1 PUSH2 0x52E JUMP JUMPDEST PUSH1 0x40 MLOAD DUP1 SWAP2 SUB SWAP1 LOG1 POP POP JUMP JUMPDEST PUSH2 0x20D DUP1 PUSH2 0x706 DUP4 CODECOPY ADD SWAP1 JUMP JUMPDEST PUSH1 0x0 PUSH1 0x40 MLOAD SWAP1 POP SWAP1 JUMP JUMPDEST PUSH1 0x0 DUP1 REVERT JUMPDEST PUSH1 0x0 DUP1 REVERT JUMPDEST PUSH1 0x0 PUSH20 0xFFFFFFFFFFFFFFFFFFFFFFFFFFFFFFFFFFFFFFFF DUP3 AND SWAP1 POP SWAP2 SWAP1 POP JUMP JUMPDEST PUSH1 0x0 PUSH2 0x246 DUP3 PUSH2 0x21B JUMP JUMPDEST SWAP1 POP SWAP2 SWAP1 POP JUMP JUMPDEST PUSH2 0x256 DUP2 PUSH2 0x23B JUMP JUMPDEST DUP2 EQ PUSH2 0x261 JUMPI PUSH1 0x0 DUP1 REVERT JUMPDEST POP JUMP JUMPDEST PUSH1 0x0 DUP2 CALLDATALOAD SWAP1 POP PUSH2 0x273 DUP2 PUSH2 0x24D JUMP JUMPDEST SWAP3 SWAP2 POP POP JUMP JUMPDEST PUSH1 0x0 PUSH1 0x20 DUP3 DUP5 SUB SLT ISZERO PUSH2 0x28F JUMPI PUSH2 0x28E PUSH2 0x211 JUMP JUMPDEST JUMPDEST PUSH1 0x0 PUSH2 0x29D DUP5 DUP3 DUP6 ADD PUSH2 0x264 JUMP JUMPDEST SWAP2 POP POP SWAP3 SWAP2 POP POP JUMP JUMPDEST PUSH1 0x0 DUP2 MLOAD SWAP1 POP SWAP2 SWAP1 POP JUMP JUMPDEST PUSH1 0x0 DUP3 DUP3 MSTORE PUSH1 0x20 DUP3 ADD SWAP1 POP SWAP3 SWAP2 POP POP JUMP JUMPDEST PUSH1 0x0 JUMPDEST DUP4 DUP2 LT ISZERO PUSH2 0x2E0 JUMPI DUP1 DUP3 ADD MLOAD DUP2 DUP5 ADD MSTORE PUSH1 0x20 DUP2 ADD SWAP1 POP PUSH2 0x2C5 JUMP JUMPDEST PUSH1 0x0 DUP5 DUP5 ADD MSTORE POP POP POP POP JUMP JUMPDEST PUSH1 0x0 PUSH1 0x1F NOT PUSH1 0x1F DUP4 ADD AND SWAP1 POP SWAP2 SWAP1 POP JUMP JUMPDEST PUSH1 0x0 PUSH2 0x308 DUP3 PUSH2 0x2A6 JUMP JUMPDEST PUSH2 0x312 DUP2 DUP6 PUSH2 0x2B1 JUMP JUMPDEST SWAP4 POP PUSH2 0x322 DUP2 DUP6 PUSH1 0x20 DUP7 ADD PUSH2 0x2C2 JUMP JUMPDEST PUSH2 0x32B DUP2 PUSH2 0x2EC JUMP JUMPDEST DUP5 ADD SWAP2 POP POP SWAP3 SWAP2 POP POP JUMP JUMPDEST PUSH1 0x0 PUSH1 0x20 DUP3 ADD SWAP1 POP DUP2 DUP2 SUB PUSH1 0x0 DUP4 ADD MSTORE PUSH2 0x350 DUP2 DUP5 PUSH2 0x2FD JUMP JUMPDEST SWAP1 POP SWAP3 SWAP2 POP POP JUMP JUMPDEST PUSH1 0x0 DUP1 REVERT JUMPDEST PUSH1 0x0 DUP1 REVERT JUMPDEST PUSH32 0x4E487B7100000000000000000000000000000000000000000000000000000000 PUSH1 0x0 MSTORE PUSH1 0x41 PUSH1 0x4 MSTORE PUSH1 0x24 PUSH1 0x0 REVERT JUMPDEST PUSH2 0x39A DUP3 PUSH2 0x2EC JUMP JUMPDEST DUP2 ADD DUP2 DUP2 LT PUSH8 0xFFFFFFFFFFFFFFFF DUP3 GT OR ISZERO PUSH2 0x3B9 JUMPI PUSH2 0x3B8 PUSH2 0x362 JUMP JUMPDEST JUMPDEST DUP1 PUSH1 0x40 MSTORE POP POP POP JUMP JUMPDEST PUSH1 0x0 PUSH2 0x3CC PUSH2 0x207 JUMP JUMPDEST SWAP1 POP PUSH2 0x3D8 DUP3 DUP3 PUSH2 0x391 JUMP JUMPDEST SWAP2 SWAP1 POP JUMP JUMPDEST PUSH1 0x0 PUSH8 0xFFFFFFFFFFFFFFFF DUP3 GT ISZERO PUSH2 0x3F8 JUMPI PUSH2 0x3F7 PUSH2 0x362 JUMP JUMPDEST JUMPDEST PUSH2 0x401 DUP3 PUSH2 0x2EC JUMP JUMPDEST SWAP1 POP PUSH1 0x20 DUP2 ADD SWAP1 POP SWAP2 SWAP1 POP JUMP JUMPDEST DUP3 DUP2 DUP4 CALLDATACOPY PUSH1 0x0 DUP4 DUP4 ADD MSTORE POP POP POP JUMP JUMPDEST PUSH1 0x0 PUSH2 0x430 PUSH2 0x42B DUP5 PUSH2 0x3DD JUMP JUMPDEST PUSH2 0x3C2 JUMP JUMPDEST SWAP1 POP DUP3 DUP2 MSTORE PUSH1 0x20 DUP2 ADD DUP5 DUP5 DUP5 ADD GT ISZERO PUSH2 0x44C JUMPI PUSH2 0x44B PUSH2 0x35D JUMP JUMPDEST JUMPDEST PUSH2 0x457 DUP5 DUP3 DUP6 PUSH2 0x40E JUMP JUMPDEST POP SWAP4 SWAP3 POP POP POP JUMP JUMPDEST PUSH1 0x0 DUP3 PUSH1 0x1F DUP4 ADD SLT PUSH2 0x474 JUMPI PUSH2 0x473 PUSH2 0x358 JUMP JUMPDEST JUMPDEST DUP2 CALLDATALOAD PUSH2 0x484 DUP5 DUP3 PUSH1 0x20 DUP7 ADD PUSH2 0x41D JUMP JUMPDEST SWAP2 POP POP SWAP3 SWAP2 POP POP JUMP JUMPDEST PUSH1 0x0 DUP2 SWAP1 POP SWAP2 SWAP1 POP JUMP JUMPDEST PUSH2 0x4A0 DUP2 PUSH2 0x48D JUMP JUMPDEST DUP2 EQ PUSH2 0x4AB JUMPI PUSH1 0x0 DUP1 REVERT JUMPDEST POP JUMP JUMPDEST PUSH1 0x0 DUP2 CALLDATALOAD SWAP1 POP PUSH2 0x4BD DUP2 PUSH2 0x497 JUMP JUMPDEST SWAP3 SWAP2 POP POP JUMP JUMPDEST PUSH1 0x0 DUP1 PUSH1 0x40 DUP4 DUP6 SUB SLT ISZERO PUSH2 0x4DA JUMPI PUSH2 0x4D9 PUSH2 0x211 JUMP JUMPDEST JUMPDEST PUSH1 0x0 DUP4 ADD CALLDATALOAD PUSH8 0xFFFFFFFFFFFFFFFF DUP2 GT ISZERO PUSH2 0x4F8 JUMPI PUSH2 0x4F7 PUSH2 0x216 JUMP JUMPDEST JUMPDEST PUSH2 0x504 DUP6 DUP3 DUP7 ADD PUSH2 0x45F JUMP JUMPDEST SWAP3 POP POP PUSH1 0x20 PUSH2 0x515 DUP6 DUP3 DUP7 ADD PUSH2 0x4AE JUMP JUMPDEST SWAP2 POP POP SWAP3 POP SWAP3 SWAP1 POP JUMP JUMPDEST PUSH2 0x528 DUP2 PUSH2 0x23B JUMP JUMPDEST DUP3 MSTORE POP POP JUMP JUMPDEST PUSH1 0x0 PUSH1 0x20 DUP3 ADD SWAP1 POP PUSH2 0x543 PUSH1 0x0 DUP4 ADD DUP5 PUSH2 0x51F JUMP JUMPDEST SWAP3 SWAP2 POP POP JUMP JUMPDEST PUSH1 0x0 PUSH1 0x20 DUP3 DUP5 SUB SLT ISZERO PUSH2 0x55F JUMPI PUSH2 0x55E PUSH2 0x211 JUMP JUMPDEST JUMPDEST PUSH1 0x0 PUSH2 0x56D DUP5 DUP3 DUP6 ADD PUSH2 0x4AE JUMP JUMPDEST SWAP2 POP POP SWAP3 SWAP2 POP POP JUMP JUMPDEST PUSH1 0x0 DUP2 SWAP1 POP SWAP3 SWAP2 POP POP JUMP JUMPDEST PUSH1 0x0 PUSH2 0x58C DUP3 PUSH2 0x2A6 JUMP JUMPDEST PUSH2 0x596 DUP2 DUP6 PUSH2 0x576 JUMP JUMPDEST SWAP4 POP PUSH2 0x5A6 DUP2 DUP6 PUSH1 0x20 DUP7 ADD PUSH2 0x2C2 JUMP JUMPDEST DUP1 DUP5 ADD SWAP2 POP POP SWAP3 SWAP2 POP POP JUMP JUMPDEST PUSH1 0x0 PUSH2 0x5BE DUP3 DUP6 PUSH2 0x581 JUMP JUMPDEST SWAP2 POP PUSH2 0x5CA DUP3 DUP5 PUSH2 0x581 JUMP JUMPDEST SWAP2 POP DUP2 SWAP1 POP SWAP4 SWAP3 POP POP POP JUMP JUMPDEST PUSH1 0x0 PUSH32 0xFF00000000000000000000000000000000000000000000000000000000000000 DUP3 AND SWAP1 POP SWAP2 SWAP1 POP JUMP JUMPDEST PUSH1 0x0 DUP2 SWAP1 POP SWAP2 SWAP1 POP JUMP JUMPDEST PUSH2 0x61D PUSH2 0x618 DUP3 PUSH2 0x5D6 JUMP JUMPDEST PUSH2 0x602 JUMP JUMPDEST DUP3 MSTORE POP POP JUMP JUMPDEST PUSH1 0x0 DUP2 PUSH1 0x60 SHL SWAP1 POP SWAP2 SWAP1 POP JUMP JUMPDEST PUSH1 0x0 PUSH2 0x63B DUP3 PUSH2 0x623 JUMP JUMPDEST SWAP1 POP SWAP2 SWAP1 POP JUMP JUMPDEST PUSH1 0x0 PUSH2 0x64D DUP3 PUSH2 0x630 JUMP JUMPDEST SWAP1 POP SWAP2 SWAP1 POP JUMP JUMPDEST PUSH2 0x665 PUSH2 0x660 DUP3 PUSH2 0x23B JUMP JUMPDEST PUSH2 0x642 JUMP JUMPDEST DUP3 MSTORE POP POP JUMP JUMPDEST PUSH1 0x0 DUP2 SWAP1 POP SWAP2 SWAP1 POP JUMP JUMPDEST PUSH2 0x686 PUSH2 0x681 DUP3 PUSH2 0x48D JUMP JUMPDEST PUSH2 0x66B JUMP JUMPDEST DUP3 MSTORE POP POP JUMP JUMPDEST PUSH1 0x0 DUP2 SWAP1 POP SWAP2 SWAP1 POP JUMP JUMPDEST PUSH1 0x0 DUP2 SWAP1 POP SWAP2 SWAP1 POP JUMP JUMPDEST PUSH2 0x6B1 PUSH2 0x6AC DUP3 PUSH2 0x68C JUMP JUMPDEST PUSH2 0x696 JUMP JUMPDEST DUP3 MSTORE POP POP JUMP JUMPDEST PUSH1 0x0 PUSH2 0x6C3 DUP3 DUP8 PUSH2 0x60C JUMP JUMPDEST PUSH1 0x1 DUP3 ADD SWAP2 POP PUSH2 0x6D3 DUP3 DUP7 PUSH2 0x654 JUMP JUMPDEST PUSH1 0x14 DUP3 ADD SWAP2 POP PUSH2 0x6E3 DUP3 DUP6 PUSH2 0x675 JUMP JUMPDEST PUSH1 0x20 DUP3 ADD SWAP2 POP PUSH2 0x6F3 DUP3 DUP5 PUSH2 0x6A0 JUMP JUMPDEST PUSH1 0x20 DUP3 ADD SWAP2 POP DUP2 SWAP1 POP SWAP6 SWAP5 POP POP POP POP POP JUMP INVALID PUSH1 0x80 PUSH1 0x40 MSTORE CALLVALUE DUP1 ISZERO PUSH2 0x10 JUMPI PUSH1 0x0 DUP1 REVERT JUMPDEST POP PUSH1 0x40 MLOAD PUSH2 0x20D CODESIZE SUB DUP1 PUSH2 0x20D DUP4 CODECOPY DUP2 DUP2 ADD PUSH1 0x40 MSTORE DUP2 ADD SWAP1 PUSH2 0x32 SWAP2 SWAP1 PUSH2 0xDB JUMP JUMPDEST DUP1 PUSH1 0x0 DUP1 PUSH2 0x100 EXP DUP2 SLOAD DUP2 PUSH20 0xFFFFFFFFFFFFFFFFFFFFFFFFFFFFFFFFFFFFFFFF MUL NOT AND SWAP1 DUP4 PUSH20 0xFFFFFFFFFFFFFFFFFFFFFFFFFFFFFFFFFFFFFFFF AND MUL OR SWAP1 SSTORE POP POP PUSH2 0x108 JUMP JUMPDEST PUSH1 0x0 DUP1 REVERT JUMPDEST PUSH1 0x0 PUSH20 0xFFFFFFFFFFFFFFFFFFFFFFFFFFFFFFFFFFFFFFFF DUP3 AND SWAP1 POP SWAP2 SWAP1 POP JUMP JUMPDEST PUSH1 0x0 PUSH2 0xA8 DUP3 PUSH2 0x7D JUMP JUMPDEST SWAP1 POP SWAP2 SWAP1 POP JUMP JUMPDEST PUSH2 0xB8 DUP2 PUSH2 0x9D JUMP JUMPDEST DUP2 EQ PUSH2 0xC3 JUMPI PUSH1 0x0 DUP1 REVERT JUMPDEST POP JUMP JUMPDEST PUSH1 0x0 DUP2 MLOAD SWAP1 POP PUSH2 0xD5 DUP2 PUSH2 0xAF JUMP JUMPDEST SWAP3 SWAP2 POP POP JUMP JUMPDEST PUSH1 0x0 PUSH1 0x20 DUP3 DUP5 SUB SLT ISZERO PUSH2 0xF1 JUMPI PUSH2 0xF0 PUSH2 0x78 JUMP JUMPDEST JUMPDEST PUSH1 0x0 PUSH2 0xFF DUP5 DUP3 DUP6 ADD PUSH2 0xC6 JUMP JUMPDEST SWAP2 POP POP SWAP3 SWAP2 POP POP JUMP JUMPDEST PUSH1 0xF7 DUP1 PUSH2 0x116 PUSH1 0x0 CODECOPY PUSH1 0x0 RETURN INVALID PUSH1 0x80 PUSH1 0x40 MSTORE CALLVALUE DUP1 ISZERO PUSH1 0xF JUMPI PUSH1 0x0 DUP1 REVERT JUMPDEST POP PUSH1 0x4 CALLDATASIZE LT PUSH1 0x28 JUMPI PUSH1 0x0 CALLDATALOAD PUSH1 0xE0 SHR DUP1 PUSH4 0x8DA5CB5B EQ PUSH1 0x2D JUMPI JUMPDEST PUSH1 0x0 DUP1 REVERT JUMPDEST PUSH1 0x33 PUSH1 0x47 JUMP JUMPDEST PUSH1 0x40 MLOAD PUSH1 0x3E SWAP2 SWAP1 PUSH1 0xA8 JUMP JUMPDEST PUSH1 0x40 MLOAD DUP1 SWAP2 SUB SWAP1 RETURN JUMPDEST PUSH1 0x0 DUP1 SLOAD SWAP1 PUSH2 0x100 EXP SWAP1 DIV PUSH20 0xFFFFFFFFFFFFFFFFFFFFFFFFFFFFFFFFFFFFFFFF AND DUP2 JUMP JUMPDEST PUSH1 0x0 PUSH20 0xFFFFFFFFFFFFFFFFFFFFFFFFFFFFFFFFFFFFFFFF DUP3 AND SWAP1 POP SWAP2 SWAP1 POP JUMP JUMPDEST PUSH1 0x0 PUSH1 0x94 DUP3 PUSH1 0x6B JUMP JUMPDEST SWAP1 POP SWAP2 SWAP1 POP JUMP JUMPDEST PUSH1 0xA2 DUP2 PUSH1 0x8B JUMP JUMPDEST DUP3 MSTORE POP POP JUMP JUMPDEST PUSH1 0x0 PUSH1 0x20 DUP3 ADD SWAP1 POP PUSH1 0xBB PUSH1 0x0 DUP4 ADD DUP5 PUSH1 0x9B JUMP JUMPDEST SWAP3 SWAP2 POP POP JUMP INVALID LOG2 PUSH5 0x6970667358 0x22 SLT KECCAK256 LOG2 SWAP8 DUP15 DUP15 NUMBER GASLIMIT JUMPI PUSH12 0x775ECC2D029621669943B9B8 0xE8 0xDB PUSH7 0x3A86976C71AFC KECCAK256 SLT PUSH5 0x736F6C6343 STOP ADDMOD GT STOP CALLER LOG2 PUSH5 0x6970667358 0x22 SLT KECCAK256 SLT SWAP9 SWAP13 0x29 0xCA PUSH17 0x864D59D141BCF52DE81F0298B8C383CBFF PUSH21 0xC8F334115F9896B964736F6C634300081100330000 "
				},
				"gasEstimates": {
					"creation": {
						"codeDepositCost": "475200",
						"executionCost": "511",
						"totalCost": "475711"
					},
					"external": {
						"deploy(uint256)": "infinite",
						"getAddress(bytes,uint256)": "infinite",
						"getBytecode(address)": "infinite"
					}
				},
				"methodIdentifiers": {
					"deploy(uint256)": "a5e38751",
					"getAddress(bytes,uint256)": "94ca2cb5",
					"getBytecode(address)": "0c6008af"
				}
			},
			"storageLayout": {
				"storage": [],
				"types": null
			},
			"userdoc": {
				"kind": "user",
				"methods": {},
				"version": 1
			}
		}
	}
}