{
	"contracts/Send.sol": {
		"SendEther": {
			"abi": [
				{
					"inputs": [],
					"stateMutability": "payable",
					"type": "constructor"
				},
				{
					"inputs": [],
					"name": "sendViaSend",
					"outputs": [],
					"stateMutability": "nonpayable",
					"type": "function"
				},
				{
					"inputs": [],
					"name": "sendViaTransfer",
					"outputs": [],
					"stateMutability": "nonpayable",
					"type": "function"
				},
				{
					"stateMutability": "payable",
					"type": "receive"
				}
			],
			"devdoc": {
				"kind": "dev",
				"methods": {},
				"version": 1
			},
			"evm": {
				"assembly": "    /* \"contracts/Send.sol\":189:367  contract SendEther {\r... */\n  mstore(0x40, 0x80)\n  dataSize(sub_0)\n  dup1\n  dataOffset(sub_0)\n  0x00\n  codecopy\n  0x00\n  return\nstop\n\nsub_0: assembly {\n        /* \"contracts/Send.sol\":189:367  contract SendEther {\r... */\n      mstore(0x40, 0x80)\n      jumpi(tag_1, lt(calldatasize, 0x04))\n      shr(0xe0, calldataload(0x00))\n      dup1\n      0xc0d60517\n      eq\n      tag_3\n      jumpi\n      dup1\n      0xe84326d6\n      eq\n      tag_4\n      jumpi\n      jump(tag_2)\n    tag_1:\n      jumpi(tag_2, calldatasize)\n      stop\n    tag_2:\n      0x00\n      dup1\n      revert\n        /* \"contracts/Send.sol\":330:364  function sendViaSend() external {} */\n    tag_3:\n      callvalue\n      dup1\n      iszero\n      tag_7\n      jumpi\n      0x00\n      dup1\n      revert\n    tag_7:\n      pop\n      tag_8\n      tag_9\n      jump\t// in\n    tag_8:\n      stop\n        /* \"contracts/Send.sol\":284:322  function sendViaTransfer() external {} */\n    tag_4:\n      callvalue\n      dup1\n      iszero\n      tag_10\n      jumpi\n      0x00\n      dup1\n      revert\n    tag_10:\n      pop\n      tag_11\n      tag_12\n      jump\t// in\n    tag_11:\n      stop\n        /* \"contracts/Send.sol\":330:364  function sendViaSend() external {} */\n    tag_9:\n      jump\t// out\n        /* \"contracts/Send.sol\":284:322  function sendViaTransfer() external {} */\n    tag_12:\n      jump\t// out\n\n    auxdata: 0xa264697066735822122085dfe363fc2a38e5e63b0c015c5c76af859de7a5499b25af12690e41c9e46de164736f6c63430008070033\n}\n",
				"bytecode": {
					"linkReferences": {},
					"object": "60806040526096806100126000396000f3fe60806040526004361060295760003560e01c8063c0d60517146034578063e84326d614604857602f565b36602f57005b600080fd5b348015603f57600080fd5b506046605c565b005b348015605357600080fd5b50605a605e565b005b565b56fea264697066735822122085dfe363fc2a38e5e63b0c015c5c76af859de7a5499b25af12690e41c9e46de164736f6c63430008070033",
					"opcodes": "PUSH1 0x80 PUSH1 0x40 MSTORE PUSH1 0x96 DUP1 PUSH2 0x12 PUSH1 0x0 CODECOPY PUSH1 0x0 RETURN INVALID PUSH1 0x80 PUSH1 0x40 MSTORE PUSH1 0x4 CALLDATASIZE LT PUSH1 0x29 JUMPI PUSH1 0x0 CALLDATALOAD PUSH1 0xE0 SHR DUP1 PUSH4 0xC0D60517 EQ PUSH1 0x34 JUMPI DUP1 PUSH4 0xE84326D6 EQ PUSH1 0x48 JUMPI PUSH1 0x2F JUMP JUMPDEST CALLDATASIZE PUSH1 0x2F JUMPI STOP JUMPDEST PUSH1 0x0 DUP1 REVERT JUMPDEST CALLVALUE DUP1 ISZERO PUSH1 0x3F JUMPI PUSH1 0x0 DUP1 REVERT JUMPDEST POP PUSH1 0x46 PUSH1 0x5C JUMP JUMPDEST STOP JUMPDEST CALLVALUE DUP1 ISZERO PUSH1 0x53 JUMPI PUSH1 0x0 DUP1 REVERT JUMPDEST POP PUSH1 0x5A PUSH1 0x5E JUMP JUMPDEST STOP JUMPDEST JUMP JUMPDEST JUMP INVALID LOG2 PUSH5 0x6970667358 0x22 SLT KECCAK256 DUP6 0xDF 0xE3 PUSH4 0xFC2A38E5 0xE6 EXTCODESIZE 0xC ADD 0x5C 0x5C PUSH23 0xAF859DE7A5499B25AF12690E41C9E46DE164736F6C6343 STOP ADDMOD SMOD STOP CALLER "
				},
				"gasEstimates": {
					"creation": {
						"codeDepositCost": "30000",
						"executionCost": "57",
						"totalCost": "30057"
					},
					"external": {
						"sendViaSend()": "122",
						"sendViaTransfer()": "144"
					}
				},
				"methodIdentifiers": {
					"sendViaSend()": "c0d60517",
					"sendViaTransfer()": "e84326d6"
				}
			},
			"storageLayout": {
				"storage": [],
				"types": null
			},
			"userdoc": {
				"kind": "user",
				"methods": {},
				"version": 1
			}
		}
	}
}