{
	"data": {
		"bytecode": {
			"linkReferences": {},
			"object": "608060405234801561001057600080fd5b50610a11806100206000396000f3fe608060405234801561001057600080fd5b50600436106100575760003560e01c806319045a251461005c5780632dd34f0f1461008c578063b446f3b2146100bc578063e15a245a146100ec578063fa5408011461011e575b600080fd5b610076600480360381019061007191906104a5565b61014e565b604051610083919061069a565b60405180910390f35b6100a660048036038101906100a191906103ed565b6101bd565b6040516100b391906106b5565b60405180910390f35b6100d660048036038101906100d1919061054a565b61021b565b6040516100e391906106d0565b60405180910390f35b61010660048036038101906101019190610501565b61024b565b604051610115939291906106eb565b60405180910390f35b61013860048036038101906101339190610478565b6102b3565b60405161014591906106d0565b60405180910390f35b60008060008061015d8561024b565b925092509250600186828585604051600081526020016040526040516101869493929190610722565b6020604051602081039080840390855afa1580156101a8573d6000803e3d6000fd5b50505060206040510351935050505092915050565b6000806101c98461021b565b905060006101d6826102b3565b90508573ffffffffffffffffffffffffffffffffffffffff166101f9828661014e565b73ffffffffffffffffffffffffffffffffffffffff1614925050509392505050565b60008160405160200161022e919061065d565b604051602081830303815290604052805190602001209050919050565b60008060006041845114610294576040517f08c379a000000000000000000000000000000000000000000000000000000000815260040161028b90610767565b60405180910390fd5b6020840151925060408401519150606084015160001a90509193909250565b6000816040516020016102c69190610674565b604051602081830303815290604052805190602001209050919050565b60006102f66102f1846107ac565b610787565b9050828152602081018484840111156103125761031161093b565b5b61031d84828561088a565b509392505050565b6000610338610333846107dd565b610787565b9050828152602081018484840111156103545761035361093b565b5b61035f84828561088a565b509392505050565b600081359050610376816109ad565b92915050565b60008135905061038b816109c4565b92915050565b600082601f8301126103a6576103a5610936565b5b81356103b68482602086016102e3565b91505092915050565b600082601f8301126103d4576103d3610936565b5b81356103e4848260208601610325565b91505092915050565b60008060006060848603121561040657610405610945565b5b600061041486828701610367565b935050602084013567ffffffffffffffff81111561043557610434610940565b5b610441868287016103bf565b925050604084013567ffffffffffffffff81111561046257610461610940565b5b61046e86828701610391565b9150509250925092565b60006020828403121561048e5761048d610945565b5b600061049c8482850161037c565b91505092915050565b600080604083850312156104bc576104bb610945565b5b60006104ca8582860161037c565b925050602083013567ffffffffffffffff8111156104eb576104ea610940565b5b6104f785828601610391565b9150509250929050565b60006020828403121561051757610516610945565b5b600082013567ffffffffffffffff81111561053557610534610940565b5b61054184828501610391565b91505092915050565b6000602082840312156105605761055f610945565b5b600082013567ffffffffffffffff81111561057e5761057d610940565b5b61058a848285016103bf565b91505092915050565b61059c81610835565b82525050565b6105ab81610847565b82525050565b6105ba81610853565b82525050565b6105d16105cc82610853565b6108fd565b82525050565b60006105e28261080e565b6105ec818561082a565b93506105fc818560208601610899565b80840191505092915050565b6000610615601c8361082a565b91506106208261095b565b601c82019050919050565b6000610638601883610819565b915061064382610984565b602082019050919050565b6106578161087d565b82525050565b600061066982846105d7565b915081905092915050565b600061067f82610608565b915061068b82846105c0565b60208201915081905092915050565b60006020820190506106af6000830184610593565b92915050565b60006020820190506106ca60008301846105a2565b92915050565b60006020820190506106e560008301846105b1565b92915050565b600060608201905061070060008301866105b1565b61070d60208301856105b1565b61071a604083018461064e565b949350505050565b600060808201905061073760008301876105b1565b610744602083018661064e565b61075160408301856105b1565b61075e60608301846105b1565b95945050505050565b600060208201905081810360008301526107808161062b565b9050919050565b60006107916107a2565b905061079d82826108cc565b919050565b6000604051905090565b600067ffffffffffffffff8211156107c7576107c6610907565b5b6107d08261094a565b9050602081019050919050565b600067ffffffffffffffff8211156107f8576107f7610907565b5b6108018261094a565b9050602081019050919050565b600081519050919050565b600082825260208201905092915050565b600081905092915050565b60006108408261085d565b9050919050565b60008115159050919050565b6000819050919050565b600073ffffffffffffffffffffffffffffffffffffffff82169050919050565b600060ff82169050919050565b82818337600083830152505050565b60005b838110156108b757808201518184015260208101905061089c565b838111156108c6576000848401525b50505050565b6108d58261094a565b810181811067ffffffffffffffff821117156108f4576108f3610907565b5b80604052505050565b6000819050919050565b7f4e487b7100000000000000000000000000000000000000000000000000000000600052604160045260246000fd5b600080fd5b600080fd5b600080fd5b600080fd5b6000601f19601f8301169050919050565b7f19457468657265756d205369676e6564204d6573736167653a0a333200000000600082015250565b7f696e76616c6964207369676e6174757265206c656e6774680000000000000000600082015250565b6109b681610835565b81146109c157600080fd5b50565b6109cd81610853565b81146109d857600080fd5b5056fea26469706673582212203c06365cfb3ef33e10bc327691f98997fe682701dd8fb52fcaf7cb18357da18364736f6c63430008070033",
			"opcodes": "PUSH1 0x80 PUSH1 0x40 MSTORE CALLVALUE DUP1 ISZERO PUSH2 0x10 JUMPI PUSH1 0x0 DUP1 REVERT JUMPDEST POP PUSH2 0xA11 DUP1 PUSH2 0x20 PUSH1 0x0 CODECOPY PUSH1 0x0 RETURN INVALID PUSH1 0x80 PUSH1 0x40 MSTORE CALLVALUE DUP1 ISZERO PUSH2 0x10 JUMPI PUSH1 0x0 DUP1 REVERT JUMPDEST POP PUSH1 0x4 CALLDATASIZE LT PUSH2 0x57 JUMPI PUSH1 0x0 CALLDATALOAD PUSH1 0xE0 SHR DUP1 PUSH4 0x19045A25 EQ PUSH2 0x5C JUMPI DUP1 PUSH4 0x2DD34F0F EQ PUSH2 0x8C JUMPI DUP1 PUSH4 0xB446F3B2 EQ PUSH2 0xBC JUMPI DUP1 PUSH4 0xE15A245A EQ PUSH2 0xEC JUMPI DUP1 PUSH4 0xFA540801 EQ PUSH2 0x11E JUMPI JUMPDEST PUSH1 0x0 DUP1 REVERT JUMPDEST PUSH2 0x76 PUSH1 0x4 DUP1 CALLDATASIZE SUB DUP2 ADD SWAP1 PUSH2 0x71 SWAP2 SWAP1 PUSH2 0x4A5 JUMP JUMPDEST PUSH2 0x14E JUMP JUMPDEST PUSH1 0x40 MLOAD PUSH2 0x83 SWAP2 SWAP1 PUSH2 0x69A JUMP JUMPDEST PUSH1 0x40 MLOAD DUP1 SWAP2 SUB SWAP1 RETURN JUMPDEST PUSH2 0xA6 PUSH1 0x4 DUP1 CALLDATASIZE SUB DUP2 ADD SWAP1 PUSH2 0xA1 SWAP2 SWAP1 PUSH2 0x3ED JUMP JUMPDEST PUSH2 0x1BD JUMP JUMPDEST PUSH1 0x40 MLOAD PUSH2 0xB3 SWAP2 SWAP1 PUSH2 0x6B5 JUMP JUMPDEST PUSH1 0x40 MLOAD DUP1 SWAP2 SUB SWAP1 RETURN JUMPDEST PUSH2 0xD6 PUSH1 0x4 DUP1 CALLDATASIZE SUB DUP2 ADD SWAP1 PUSH2 0xD1 SWAP2 SWAP1 PUSH2 0x54A JUMP JUMPDEST PUSH2 0x21B JUMP JUMPDEST PUSH1 0x40 MLOAD PUSH2 0xE3 SWAP2 SWAP1 PUSH2 0x6D0 JUMP JUMPDEST PUSH1 0x40 MLOAD DUP1 SWAP2 SUB SWAP1 RETURN JUMPDEST PUSH2 0x106 PUSH1 0x4 DUP1 CALLDATASIZE SUB DUP2 ADD SWAP1 PUSH2 0x101 SWAP2 SWAP1 PUSH2 0x501 JUMP JUMPDEST PUSH2 0x24B JUMP JUMPDEST PUSH1 0x40 MLOAD PUSH2 0x115 SWAP4 SWAP3 SWAP2 SWAP1 PUSH2 0x6EB JUMP JUMPDEST PUSH1 0x40 MLOAD DUP1 SWAP2 SUB SWAP1 RETURN JUMPDEST PUSH2 0x138 PUSH1 0x4 DUP1 CALLDATASIZE SUB DUP2 ADD SWAP1 PUSH2 0x133 SWAP2 SWAP1 PUSH2 0x478 JUMP JUMPDEST PUSH2 0x2B3 JUMP JUMPDEST PUSH1 0x40 MLOAD PUSH2 0x145 SWAP2 SWAP1 PUSH2 0x6D0 JUMP JUMPDEST PUSH1 0x40 MLOAD DUP1 SWAP2 SUB SWAP1 RETURN JUMPDEST PUSH1 0x0 DUP1 PUSH1 0x0 DUP1 PUSH2 0x15D DUP6 PUSH2 0x24B JUMP JUMPDEST SWAP3 POP SWAP3 POP SWAP3 POP PUSH1 0x1 DUP7 DUP3 DUP6 DUP6 PUSH1 0x40 MLOAD PUSH1 0x0 DUP2 MSTORE PUSH1 0x20 ADD PUSH1 0x40 MSTORE PUSH1 0x40 MLOAD PUSH2 0x186 SWAP5 SWAP4 SWAP3 SWAP2 SWAP1 PUSH2 0x722 JUMP JUMPDEST PUSH1 0x20 PUSH1 0x40 MLOAD PUSH1 0x20 DUP2 SUB SWAP1 DUP1 DUP5 SUB SWAP1 DUP6 GAS STATICCALL ISZERO DUP1 ISZERO PUSH2 0x1A8 JUMPI RETURNDATASIZE PUSH1 0x0 DUP1 RETURNDATACOPY RETURNDATASIZE PUSH1 0x0 REVERT JUMPDEST POP POP POP PUSH1 0x20 PUSH1 0x40 MLOAD SUB MLOAD SWAP4 POP POP POP POP SWAP3 SWAP2 POP POP JUMP JUMPDEST PUSH1 0x0 DUP1 PUSH2 0x1C9 DUP5 PUSH2 0x21B JUMP JUMPDEST SWAP1 POP PUSH1 0x0 PUSH2 0x1D6 DUP3 PUSH2 0x2B3 JUMP JUMPDEST SWAP1 POP DUP6 PUSH20 0xFFFFFFFFFFFFFFFFFFFFFFFFFFFFFFFFFFFFFFFF AND PUSH2 0x1F9 DUP3 DUP7 PUSH2 0x14E JUMP JUMPDEST PUSH20 0xFFFFFFFFFFFFFFFFFFFFFFFFFFFFFFFFFFFFFFFF AND EQ SWAP3 POP POP POP SWAP4 SWAP3 POP POP POP JUMP JUMPDEST PUSH1 0x0 DUP2 PUSH1 0x40 MLOAD PUSH1 0x20 ADD PUSH2 0x22E SWAP2 SWAP1 PUSH2 0x65D JUMP JUMPDEST PUSH1 0x40 MLOAD PUSH1 0x20 DUP2 DUP4 SUB SUB DUP2 MSTORE SWAP1 PUSH1 0x40 MSTORE DUP1 MLOAD SWAP1 PUSH1 0x20 ADD KECCAK256 SWAP1 POP SWAP2 SWAP1 POP JUMP JUMPDEST PUSH1 0x0 DUP1 PUSH1 0x0 PUSH1 0x41 DUP5 MLOAD EQ PUSH2 0x294 JUMPI PUSH1 0x40 MLOAD PUSH32 0x8C379A000000000000000000000000000000000000000000000000000000000 DUP2 MSTORE PUSH1 0x4 ADD PUSH2 0x28B SWAP1 PUSH2 0x767 JUMP JUMPDEST PUSH1 0x40 MLOAD DUP1 SWAP2 SUB SWAP1 REVERT JUMPDEST PUSH1 0x20 DUP5 ADD MLOAD SWAP3 POP PUSH1 0x40 DUP5 ADD MLOAD SWAP2 POP PUSH1 0x60 DUP5 ADD MLOAD PUSH1 0x0 BYTE SWAP1 POP SWAP2 SWAP4 SWAP1 SWAP3 POP JUMP JUMPDEST PUSH1 0x0 DUP2 PUSH1 0x40 MLOAD PUSH1 0x20 ADD PUSH2 0x2C6 SWAP2 SWAP1 PUSH2 0x674 JUMP JUMPDEST PUSH1 0x40 MLOAD PUSH1 0x20 DUP2 DUP4 SUB SUB DUP2 MSTORE SWAP1 PUSH1 0x40 MSTORE DUP1 MLOAD SWAP1 PUSH1 0x20 ADD KECCAK256 SWAP1 POP SWAP2 SWAP1 POP JUMP JUMPDEST PUSH1 0x0 PUSH2 0x2F6 PUSH2 0x2F1 DUP5 PUSH2 0x7AC JUMP JUMPDEST PUSH2 0x787 JUMP JUMPDEST SWAP1 POP DUP3 DUP2 MSTORE PUSH1 0x20 DUP2 ADD DUP5 DUP5 DUP5 ADD GT ISZERO PUSH2 0x312 JUMPI PUSH2 0x311 PUSH2 0x93B JUMP JUMPDEST JUMPDEST PUSH2 0x31D DUP5 DUP3 DUP6 PUSH2 0x88A JUMP JUMPDEST POP SWAP4 SWAP3 POP POP POP JUMP JUMPDEST PUSH1 0x0 PUSH2 0x338 PUSH2 0x333 DUP5 PUSH2 0x7DD JUMP JUMPDEST PUSH2 0x787 JUMP JUMPDEST SWAP1 POP DUP3 DUP2 MSTORE PUSH1 0x20 DUP2 ADD DUP5 DUP5 DUP5 ADD GT ISZERO PUSH2 0x354 JUMPI PUSH2 0x353 PUSH2 0x93B JUMP JUMPDEST JUMPDEST PUSH2 0x35F DUP5 DUP3 DUP6 PUSH2 0x88A JUMP JUMPDEST POP SWAP4 SWAP3 POP POP POP JUMP JUMPDEST PUSH1 0x0 DUP2 CALLDATALOAD SWAP1 POP PUSH2 0x376 DUP2 PUSH2 0x9AD JUMP JUMPDEST SWAP3 SWAP2 POP POP JUMP JUMPDEST PUSH1 0x0 DUP2 CALLDATALOAD SWAP1 POP PUSH2 0x38B DUP2 PUSH2 0x9C4 JUMP JUMPDEST SWAP3 SWAP2 POP POP JUMP JUMPDEST PUSH1 0x0 DUP3 PUSH1 0x1F DUP4 ADD SLT PUSH2 0x3A6 JUMPI PUSH2 0x3A5 PUSH2 0x936 JUMP JUMPDEST JUMPDEST DUP2 CALLDATALOAD PUSH2 0x3B6 DUP5 DUP3 PUSH1 0x20 DUP7 ADD PUSH2 0x2E3 JUMP JUMPDEST SWAP2 POP POP SWAP3 SWAP2 POP POP JUMP JUMPDEST PUSH1 0x0 DUP3 PUSH1 0x1F DUP4 ADD SLT PUSH2 0x3D4 JUMPI PUSH2 0x3D3 PUSH2 0x936 JUMP JUMPDEST JUMPDEST DUP2 CALLDATALOAD PUSH2 0x3E4 DUP5 DUP3 PUSH1 0x20 DUP7 ADD PUSH2 0x325 JUMP JUMPDEST SWAP2 POP POP SWAP3 SWAP2 POP POP JUMP JUMPDEST PUSH1 0x0 DUP1 PUSH1 0x0 PUSH1 0x60 DUP5 DUP7 SUB SLT ISZERO PUSH2 0x406 JUMPI PUSH2 0x405 PUSH2 0x945 JUMP JUMPDEST JUMPDEST PUSH1 0x0 PUSH2 0x414 DUP7 DUP3 DUP8 ADD PUSH2 0x367 JUMP JUMPDEST SWAP4 POP POP PUSH1 0x20 DUP5 ADD CALLDATALOAD PUSH8 0xFFFFFFFFFFFFFFFF DUP2 GT ISZERO PUSH2 0x435 JUMPI PUSH2 0x434 PUSH2 0x940 JUMP JUMPDEST JUMPDEST PUSH2 0x441 DUP7 DUP3 DUP8 ADD PUSH2 0x3BF JUMP JUMPDEST SWAP3 POP POP PUSH1 0x40 DUP5 ADD CALLDATALOAD PUSH8 0xFFFFFFFFFFFFFFFF DUP2 GT ISZERO PUSH2 0x462 JUMPI PUSH2 0x461 PUSH2 0x940 JUMP JUMPDEST JUMPDEST PUSH2 0x46E DUP7 DUP3 DUP8 ADD PUSH2 0x391 JUMP JUMPDEST SWAP2 POP POP SWAP3 POP SWAP3 POP SWAP3 JUMP JUMPDEST PUSH1 0x0 PUSH1 0x20 DUP3 DUP5 SUB SLT ISZERO PUSH2 0x48E JUMPI PUSH2 0x48D PUSH2 0x945 JUMP JUMPDEST JUMPDEST PUSH1 0x0 PUSH2 0x49C DUP5 DUP3 DUP6 ADD PUSH2 0x37C JUMP JUMPDEST SWAP2 POP POP SWAP3 SWAP2 POP POP JUMP JUMPDEST PUSH1 0x0 DUP1 PUSH1 0x40 DUP4 DUP6 SUB SLT ISZERO PUSH2 0x4BC JUMPI PUSH2 0x4BB PUSH2 0x945 JUMP JUMPDEST JUMPDEST PUSH1 0x0 PUSH2 0x4CA DUP6 DUP3 DUP7 ADD PUSH2 0x37C JUMP JUMPDEST SWAP3 POP POP PUSH1 0x20 DUP4 ADD CALLDATALOAD PUSH8 0xFFFFFFFFFFFFFFFF DUP2 GT ISZERO PUSH2 0x4EB JUMPI PUSH2 0x4EA PUSH2 0x940 JUMP JUMPDEST JUMPDEST PUSH2 0x4F7 DUP6 DUP3 DUP7 ADD PUSH2 0x391 JUMP JUMPDEST SWAP2 POP POP SWAP3 POP SWAP3 SWAP1 POP JUMP JUMPDEST PUSH1 0x0 PUSH1 0x20 DUP3 DUP5 SUB SLT ISZERO PUSH2 0x517 JUMPI PUSH2 0x516 PUSH2 0x945 JUMP JUMPDEST JUMPDEST PUSH1 0x0 DUP3 ADD CALLDATALOAD PUSH8 0xFFFFFFFFFFFFFFFF DUP2 GT ISZERO PUSH2 0x535 JUMPI PUSH2 0x534 PUSH2 0x940 JUMP JUMPDEST JUMPDEST PUSH2 0x541 DUP5 DUP3 DUP6 ADD PUSH2 0x391 JUMP JUMPDEST SWAP2 POP POP SWAP3 SWAP2 POP POP JUMP JUMPDEST PUSH1 0x0 PUSH1 0x20 DUP3 DUP5 SUB SLT ISZERO PUSH2 0x560 JUMPI PUSH2 0x55F PUSH2 0x945 JUMP JUMPDEST JUMPDEST PUSH1 0x0 DUP3 ADD CALLDATALOAD PUSH8 0xFFFFFFFFFFFFFFFF DUP2 GT ISZERO PUSH2 0x57E JUMPI PUSH2 0x57D PUSH2 0x940 JUMP JUMPDEST JUMPDEST PUSH2 0x58A DUP5 DUP3 DUP6 ADD PUSH2 0x3BF JUMP JUMPDEST SWAP2 POP POP SWAP3 SWAP2 POP POP JUMP JUMPDEST PUSH2 0x59C DUP2 PUSH2 0x835 JUMP JUMPDEST DUP3 MSTORE POP POP JUMP JUMPDEST PUSH2 0x5AB DUP2 PUSH2 0x847 JUMP JUMPDEST DUP3 MSTORE POP POP JUMP JUMPDEST PUSH2 0x5BA DUP2 PUSH2 0x853 JUMP JUMPDEST DUP3 MSTORE POP POP JUMP JUMPDEST PUSH2 0x5D1 PUSH2 0x5CC DUP3 PUSH2 0x853 JUMP JUMPDEST PUSH2 0x8FD JUMP JUMPDEST DUP3 MSTORE POP POP JUMP JUMPDEST PUSH1 0x0 PUSH2 0x5E2 DUP3 PUSH2 0x80E JUMP JUMPDEST PUSH2 0x5EC DUP2 DUP6 PUSH2 0x82A JUMP JUMPDEST SWAP4 POP PUSH2 0x5FC DUP2 DUP6 PUSH1 0x20 DUP7 ADD PUSH2 0x899 JUMP JUMPDEST DUP1 DUP5 ADD SWAP2 POP POP SWAP3 SWAP2 POP POP JUMP JUMPDEST PUSH1 0x0 PUSH2 0x615 PUSH1 0x1C DUP4 PUSH2 0x82A JUMP JUMPDEST SWAP2 POP PUSH2 0x620 DUP3 PUSH2 0x95B JUMP JUMPDEST PUSH1 0x1C DUP3 ADD SWAP1 POP SWAP2 SWAP1 POP JUMP JUMPDEST PUSH1 0x0 PUSH2 0x638 PUSH1 0x18 DUP4 PUSH2 0x819 JUMP JUMPDEST SWAP2 POP PUSH2 0x643 DUP3 PUSH2 0x984 JUMP JUMPDEST PUSH1 0x20 DUP3 ADD SWAP1 POP SWAP2 SWAP1 POP JUMP JUMPDEST PUSH2 0x657 DUP2 PUSH2 0x87D JUMP JUMPDEST DUP3 MSTORE POP POP JUMP JUMPDEST PUSH1 0x0 PUSH2 0x669 DUP3 DUP5 PUSH2 0x5D7 JUMP JUMPDEST SWAP2 POP DUP2 SWAP1 POP SWAP3 SWAP2 POP POP JUMP JUMPDEST PUSH1 0x0 PUSH2 0x67F DUP3 PUSH2 0x608 JUMP JUMPDEST SWAP2 POP PUSH2 0x68B DUP3 DUP5 PUSH2 0x5C0 JUMP JUMPDEST PUSH1 0x20 DUP3 ADD SWAP2 POP DUP2 SWAP1 POP SWAP3 SWAP2 POP POP JUMP JUMPDEST PUSH1 0x0 PUSH1 0x20 DUP3 ADD SWAP1 POP PUSH2 0x6AF PUSH1 0x0 DUP4 ADD DUP5 PUSH2 0x593 JUMP JUMPDEST SWAP3 SWAP2 POP POP JUMP JUMPDEST PUSH1 0x0 PUSH1 0x20 DUP3 ADD SWAP1 POP PUSH2 0x6CA PUSH1 0x0 DUP4 ADD DUP5 PUSH2 0x5A2 JUMP JUMPDEST SWAP3 SWAP2 POP POP JUMP JUMPDEST PUSH1 0x0 PUSH1 0x20 DUP3 ADD SWAP1 POP PUSH2 0x6E5 PUSH1 0x0 DUP4 ADD DUP5 PUSH2 0x5B1 JUMP JUMPDEST SWAP3 SWAP2 POP POP JUMP JUMPDEST PUSH1 0x0 PUSH1 0x60 DUP3 ADD SWAP1 POP PUSH2 0x700 PUSH1 0x0 DUP4 ADD DUP7 PUSH2 0x5B1 JUMP JUMPDEST PUSH2 0x70D PUSH1 0x20 DUP4 ADD DUP6 PUSH2 0x5B1 JUMP JUMPDEST PUSH2 0x71A PUSH1 0x40 DUP4 ADD DUP5 PUSH2 0x64E JUMP JUMPDEST SWAP5 SWAP4 POP POP POP POP JUMP JUMPDEST PUSH1 0x0 PUSH1 0x80 DUP3 ADD SWAP1 POP PUSH2 0x737 PUSH1 0x0 DUP4 ADD DUP8 PUSH2 0x5B1 JUMP JUMPDEST PUSH2 0x744 PUSH1 0x20 DUP4 ADD DUP7 PUSH2 0x64E JUMP JUMPDEST PUSH2 0x751 PUSH1 0x40 DUP4 ADD DUP6 PUSH2 0x5B1 JUMP JUMPDEST PUSH2 0x75E PUSH1 0x60 DUP4 ADD DUP5 PUSH2 0x5B1 JUMP JUMPDEST SWAP6 SWAP5 POP POP POP POP POP JUMP JUMPDEST PUSH1 0x0 PUSH1 0x20 DUP3 ADD SWAP1 POP DUP2 DUP2 SUB PUSH1 0x0 DUP4 ADD MSTORE PUSH2 0x780 DUP2 PUSH2 0x62B JUMP JUMPDEST SWAP1 POP SWAP2 SWAP1 POP JUMP JUMPDEST PUSH1 0x0 PUSH2 0x791 PUSH2 0x7A2 JUMP JUMPDEST SWAP1 POP PUSH2 0x79D DUP3 DUP3 PUSH2 0x8CC JUMP JUMPDEST SWAP2 SWAP1 POP JUMP JUMPDEST PUSH1 0x0 PUSH1 0x40 MLOAD SWAP1 POP SWAP1 JUMP JUMPDEST PUSH1 0x0 PUSH8 0xFFFFFFFFFFFFFFFF DUP3 GT ISZERO PUSH2 0x7C7 JUMPI PUSH2 0x7C6 PUSH2 0x907 JUMP JUMPDEST JUMPDEST PUSH2 0x7D0 DUP3 PUSH2 0x94A JUMP JUMPDEST SWAP1 POP PUSH1 0x20 DUP2 ADD SWAP1 POP SWAP2 SWAP1 POP JUMP JUMPDEST PUSH1 0x0 PUSH8 0xFFFFFFFFFFFFFFFF DUP3 GT ISZERO PUSH2 0x7F8 JUMPI PUSH2 0x7F7 PUSH2 0x907 JUMP JUMPDEST JUMPDEST PUSH2 0x801 DUP3 PUSH2 0x94A JUMP JUMPDEST SWAP1 POP PUSH1 0x20 DUP2 ADD SWAP1 POP SWAP2 SWAP1 POP JUMP JUMPDEST PUSH1 0x0 DUP2 MLOAD SWAP1 POP SWAP2 SWAP1 POP JUMP JUMPDEST PUSH1 0x0 DUP3 DUP3 MSTORE PUSH1 0x20 DUP3 ADD SWAP1 POP SWAP3 SWAP2 POP POP JUMP JUMPDEST PUSH1 0x0 DUP2 SWAP1 POP SWAP3 SWAP2 POP POP JUMP JUMPDEST PUSH1 0x0 PUSH2 0x840 DUP3 PUSH2 0x85D JUMP JUMPDEST SWAP1 POP SWAP2 SWAP1 POP JUMP JUMPDEST PUSH1 0x0 DUP2 ISZERO ISZERO SWAP1 POP SWAP2 SWAP1 POP JUMP JUMPDEST PUSH1 0x0 DUP2 SWAP1 POP SWAP2 SWAP1 POP JUMP JUMPDEST PUSH1 0x0 PUSH20 0xFFFFFFFFFFFFFFFFFFFFFFFFFFFFFFFFFFFFFFFF DUP3 AND SWAP1 POP SWAP2 SWAP1 POP JUMP JUMPDEST PUSH1 0x0 PUSH1 0xFF DUP3 AND SWAP1 POP SWAP2 SWAP1 POP JUMP JUMPDEST DUP3 DUP2 DUP4 CALLDATACOPY PUSH1 0x0 DUP4 DUP4 ADD MSTORE POP POP POP JUMP JUMPDEST PUSH1 0x0 JUMPDEST DUP4 DUP2 LT ISZERO PUSH2 0x8B7 JUMPI DUP1 DUP3 ADD MLOAD DUP2 DUP5 ADD MSTORE PUSH1 0x20 DUP2 ADD SWAP1 POP PUSH2 0x89C JUMP JUMPDEST DUP4 DUP2 GT ISZERO PUSH2 0x8C6 JUMPI PUSH1 0x0 DUP5 DUP5 ADD MSTORE JUMPDEST POP POP POP POP JUMP JUMPDEST PUSH2 0x8D5 DUP3 PUSH2 0x94A JUMP JUMPDEST DUP2 ADD DUP2 DUP2 LT PUSH8 0xFFFFFFFFFFFFFFFF DUP3 GT OR ISZERO PUSH2 0x8F4 JUMPI PUSH2 0x8F3 PUSH2 0x907 JUMP JUMPDEST JUMPDEST DUP1 PUSH1 0x40 MSTORE POP POP POP JUMP JUMPDEST PUSH1 0x0 DUP2 SWAP1 POP SWAP2 SWAP1 POP JUMP JUMPDEST PUSH32 0x4E487B7100000000000000000000000000000000000000000000000000000000 PUSH1 0x0 MSTORE PUSH1 0x41 PUSH1 0x4 MSTORE PUSH1 0x24 PUSH1 0x0 REVERT JUMPDEST PUSH1 0x0 DUP1 REVERT JUMPDEST PUSH1 0x0 DUP1 REVERT JUMPDEST PUSH1 0x0 DUP1 REVERT JUMPDEST PUSH1 0x0 DUP1 REVERT JUMPDEST PUSH1 0x0 PUSH1 0x1F NOT PUSH1 0x1F DUP4 ADD AND SWAP1 POP SWAP2 SWAP1 POP JUMP JUMPDEST PUSH32 0x19457468657265756D205369676E6564204D6573736167653A0A333200000000 PUSH1 0x0 DUP3 ADD MSTORE POP JUMP JUMPDEST PUSH32 0x696E76616C6964207369676E6174757265206C656E6774680000000000000000 PUSH1 0x0 DUP3 ADD MSTORE POP JUMP JUMPDEST PUSH2 0x9B6 DUP2 PUSH2 0x835 JUMP JUMPDEST DUP2 EQ PUSH2 0x9C1 JUMPI PUSH1 0x0 DUP1 REVERT JUMPDEST POP JUMP JUMPDEST PUSH2 0x9CD DUP2 PUSH2 0x853 JUMP JUMPDEST DUP2 EQ PUSH2 0x9D8 JUMPI PUSH1 0x0 DUP1 REVERT JUMPDEST POP JUMP INVALID LOG2 PUSH5 0x6970667358 0x22 SLT KECCAK256 EXTCODECOPY MOD CALLDATASIZE 0x5C 0xFB RETURNDATACOPY RETURN RETURNDATACOPY LT 0xBC ORIGIN PUSH23 0x91F98997FE682701DD8FB52FCAF7CB18357DA18364736F PUSH13 0x63430008070033000000000000 "
		},
		"gasEstimates": {
			"creation": {
				"codeDepositCost": "515400",
				"executionCost": "549",
				"totalCost": "515949"
			},
			"external": {
				"_split(bytes)": "infinite",
				"getEthSignedMessageHash(bytes32)": "infinite",
				"getMessageHash(string)": "infinite",
				"recover(bytes32,bytes)": "infinite",
				"verify(address,string,bytes)": "infinite"
			}
		},
		"methodIdentifiers": {
			"_split(bytes)": "e15a245a",
			"getEthSignedMessageHash(bytes32)": "fa540801",
			"getMessageHash(string)": "b446f3b2",
			"recover(bytes32,bytes)": "19045a25",
			"verify(address,string,bytes)": "2dd34f0f"
		}
	},
	"abi": [
		{
			"inputs": [
				{
					"internalType": "bytes",
					"name": "_sig",
					"type": "bytes"
				}
			],
			"name": "_split",
			"outputs": [
				{
					"internalType": "bytes32",
					"name": "r",
					"type": "bytes32"
				},
				{
					"internalType": "bytes32",
					"name": "s",
					"type": "bytes32"
				},
				{
					"internalType": "uint8",
					"name": "v",
					"type": "uint8"
				}
			],
			"stateMutability": "pure",
			"type": "function"
		},
		{
			"inputs": [
				{
					"internalType": "bytes32",
					"name": "_messageHash",
					"type": "bytes32"
				}
			],
			"name": "getEthSignedMessageHash",
			"outputs": [
				{
					"internalType": "bytes32",
					"name": "",
					"type": "bytes32"
				}
			],
			"stateMutability": "pure",
			"type": "function"
		},
		{
			"inputs": [
				{
					"internalType": "string",
					"name": "_message",
					"type": "string"
				}
			],
			"name": "getMessageHash",
			"outputs": [
				{
					"internalType": "bytes32",
					"name": "",
					"type": "bytes32"
				}
			],
			"stateMutability": "pure",
			"type": "function"
		},
		{
			"inputs": [
				{
					"internalType": "bytes32",
					"name": "_ethSignedMessageHash",
					"type": "bytes32"
				},
				{
					"internalType": "bytes",
					"name": "_sig",
					"type": "bytes"
				}
			],
			"name": "recover",
			"outputs": [
				{
					"internalType": "address",
					"name": "",
					"type": "address"
				}
			],
			"stateMutability": "pure",
			"type": "function"
		},
		{
			"inputs": [
				{
					"internalType": "address",
					"name": "_signer",
					"type": "address"
				},
				{
					"internalType": "string",
					"name": "_message",
					"type": "string"
				},
				{
					"internalType": "bytes",
					"name": "_sig",
					"type": "bytes"
				}
			],
			"name": "verify",
			"outputs": [
				{
					"internalType": "bool",
					"name": "",
					"type": "bool"
				}
			],
			"stateMutability": "pure",
			"type": "function"
		}
	]
}