{
	"data": {
		"bytecode": {
			"linkReferences": {},
			"object": "608060405260008055600180556002805534801561001c57600080fd5b506103398061002c6000396000f3fe608060405234801561001057600080fd5b50600436106100625760003560e01c8063335d00c21461006757806342b148aa146100715780634b73383f1461008f57806395b9d3d9146100ad578063c3be8e2c146100cb578063c5d7802e146100d5575b600080fd5b61006f6100f3565b005b6100796101ad565b604051610086919061023d565b60405180910390f35b6100976101b2565b6040516100a4919061023d565b60405180910390f35b6100b56101b7565b6040516100c2919061023d565b60405180910390f35b6100d36101bc565b005b6100dd6101e1565b6040516100ea919061023d565b60405180910390f35b6002546001546000546101069190610258565b6101109190610258565b506101196101e7565b506101226101b7565b5061012b6101b2565b503073ffffffffffffffffffffffffffffffffffffffff166342b148aa6040518163ffffffff1660e01b815260040160206040518083038186803b15801561017257600080fd5b505afa158015610186573d6000803e3d6000fd5b505050506040513d601f19601f820116820180604052508101906101aa9190610201565b50565b600090565b600090565b600090565b6002546001546101cc9190610258565b506101d56101b7565b506101de6101b2565b50565b60025481565b600090565b6000815190506101fb816102ec565b92915050565b600060208284031215610217576102166102e7565b5b6000610225848285016101ec565b91505092915050565b610237816102ae565b82525050565b6000602082019050610252600083018461022e565b92915050565b6000610263826102ae565b915061026e836102ae565b9250827fffffffffffffffffffffffffffffffffffffffffffffffffffffffffffffffff038211156102a3576102a26102b8565b5b828201905092915050565b6000819050919050565b7f4e487b7100000000000000000000000000000000000000000000000000000000600052601160045260246000fd5b600080fd5b6102f5816102ae565b811461030057600080fd5b5056fea26469706673582212200dfccdf5e04d3fcf925cab99d51ff05c3307da57413f9bef95d02f8b4ae0b9ee64736f6c63430008070033",
			"opcodes": "PUSH1 0x80 PUSH1 0x40 MSTORE PUSH1 0x0 DUP1 SSTORE PUSH1 0x1 DUP1 SSTORE PUSH1 0x2 DUP1 SSTORE CALLVALUE DUP1 ISZERO PUSH2 0x1C JUMPI PUSH1 0x0 DUP1 REVERT JUMPDEST POP PUSH2 0x339 DUP1 PUSH2 0x2C PUSH1 0x0 CODECOPY PUSH1 0x0 RETURN INVALID PUSH1 0x80 PUSH1 0x40 MSTORE CALLVALUE DUP1 ISZERO PUSH2 0x10 JUMPI PUSH1 0x0 DUP1 REVERT JUMPDEST POP PUSH1 0x4 CALLDATASIZE LT PUSH2 0x62 JUMPI PUSH1 0x0 CALLDATALOAD PUSH1 0xE0 SHR DUP1 PUSH4 0x335D00C2 EQ PUSH2 0x67 JUMPI DUP1 PUSH4 0x42B148AA EQ PUSH2 0x71 JUMPI DUP1 PUSH4 0x4B73383F EQ PUSH2 0x8F JUMPI DUP1 PUSH4 0x95B9D3D9 EQ PUSH2 0xAD JUMPI DUP1 PUSH4 0xC3BE8E2C EQ PUSH2 0xCB JUMPI DUP1 PUSH4 0xC5D7802E EQ PUSH2 0xD5 JUMPI JUMPDEST PUSH1 0x0 DUP1 REVERT JUMPDEST PUSH2 0x6F PUSH2 0xF3 JUMP JUMPDEST STOP JUMPDEST PUSH2 0x79 PUSH2 0x1AD JUMP JUMPDEST PUSH1 0x40 MLOAD PUSH2 0x86 SWAP2 SWAP1 PUSH2 0x23D JUMP JUMPDEST PUSH1 0x40 MLOAD DUP1 SWAP2 SUB SWAP1 RETURN JUMPDEST PUSH2 0x97 PUSH2 0x1B2 JUMP JUMPDEST PUSH1 0x40 MLOAD PUSH2 0xA4 SWAP2 SWAP1 PUSH2 0x23D JUMP JUMPDEST PUSH1 0x40 MLOAD DUP1 SWAP2 SUB SWAP1 RETURN JUMPDEST PUSH2 0xB5 PUSH2 0x1B7 JUMP JUMPDEST PUSH1 0x40 MLOAD PUSH2 0xC2 SWAP2 SWAP1 PUSH2 0x23D JUMP JUMPDEST PUSH1 0x40 MLOAD DUP1 SWAP2 SUB SWAP1 RETURN JUMPDEST PUSH2 0xD3 PUSH2 0x1BC JUMP JUMPDEST STOP JUMPDEST PUSH2 0xDD PUSH2 0x1E1 JUMP JUMPDEST PUSH1 0x40 MLOAD PUSH2 0xEA SWAP2 SWAP1 PUSH2 0x23D JUMP JUMPDEST PUSH1 0x40 MLOAD DUP1 SWAP2 SUB SWAP1 RETURN JUMPDEST PUSH1 0x2 SLOAD PUSH1 0x1 SLOAD PUSH1 0x0 SLOAD PUSH2 0x106 SWAP2 SWAP1 PUSH2 0x258 JUMP JUMPDEST PUSH2 0x110 SWAP2 SWAP1 PUSH2 0x258 JUMP JUMPDEST POP PUSH2 0x119 PUSH2 0x1E7 JUMP JUMPDEST POP PUSH2 0x122 PUSH2 0x1B7 JUMP JUMPDEST POP PUSH2 0x12B PUSH2 0x1B2 JUMP JUMPDEST POP ADDRESS PUSH20 0xFFFFFFFFFFFFFFFFFFFFFFFFFFFFFFFFFFFFFFFF AND PUSH4 0x42B148AA PUSH1 0x40 MLOAD DUP2 PUSH4 0xFFFFFFFF AND PUSH1 0xE0 SHL DUP2 MSTORE PUSH1 0x4 ADD PUSH1 0x20 PUSH1 0x40 MLOAD DUP1 DUP4 SUB DUP2 DUP7 DUP1 EXTCODESIZE ISZERO DUP1 ISZERO PUSH2 0x172 JUMPI PUSH1 0x0 DUP1 REVERT JUMPDEST POP GAS STATICCALL ISZERO DUP1 ISZERO PUSH2 0x186 JUMPI RETURNDATASIZE PUSH1 0x0 DUP1 RETURNDATACOPY RETURNDATASIZE PUSH1 0x0 REVERT JUMPDEST POP POP POP POP PUSH1 0x40 MLOAD RETURNDATASIZE PUSH1 0x1F NOT PUSH1 0x1F DUP3 ADD AND DUP3 ADD DUP1 PUSH1 0x40 MSTORE POP DUP2 ADD SWAP1 PUSH2 0x1AA SWAP2 SWAP1 PUSH2 0x201 JUMP JUMPDEST POP JUMP JUMPDEST PUSH1 0x0 SWAP1 JUMP JUMPDEST PUSH1 0x0 SWAP1 JUMP JUMPDEST PUSH1 0x0 SWAP1 JUMP JUMPDEST PUSH1 0x2 SLOAD PUSH1 0x1 SLOAD PUSH2 0x1CC SWAP2 SWAP1 PUSH2 0x258 JUMP JUMPDEST POP PUSH2 0x1D5 PUSH2 0x1B7 JUMP JUMPDEST POP PUSH2 0x1DE PUSH2 0x1B2 JUMP JUMPDEST POP JUMP JUMPDEST PUSH1 0x2 SLOAD DUP2 JUMP JUMPDEST PUSH1 0x0 SWAP1 JUMP JUMPDEST PUSH1 0x0 DUP2 MLOAD SWAP1 POP PUSH2 0x1FB DUP2 PUSH2 0x2EC JUMP JUMPDEST SWAP3 SWAP2 POP POP JUMP JUMPDEST PUSH1 0x0 PUSH1 0x20 DUP3 DUP5 SUB SLT ISZERO PUSH2 0x217 JUMPI PUSH2 0x216 PUSH2 0x2E7 JUMP JUMPDEST JUMPDEST PUSH1 0x0 PUSH2 0x225 DUP5 DUP3 DUP6 ADD PUSH2 0x1EC JUMP JUMPDEST SWAP2 POP POP SWAP3 SWAP2 POP POP JUMP JUMPDEST PUSH2 0x237 DUP2 PUSH2 0x2AE JUMP JUMPDEST DUP3 MSTORE POP POP JUMP JUMPDEST PUSH1 0x0 PUSH1 0x20 DUP3 ADD SWAP1 POP PUSH2 0x252 PUSH1 0x0 DUP4 ADD DUP5 PUSH2 0x22E JUMP JUMPDEST SWAP3 SWAP2 POP POP JUMP JUMPDEST PUSH1 0x0 PUSH2 0x263 DUP3 PUSH2 0x2AE JUMP JUMPDEST SWAP2 POP PUSH2 0x26E DUP4 PUSH2 0x2AE JUMP JUMPDEST SWAP3 POP DUP3 PUSH32 0xFFFFFFFFFFFFFFFFFFFFFFFFFFFFFFFFFFFFFFFFFFFFFFFFFFFFFFFFFFFFFFFF SUB DUP3 GT ISZERO PUSH2 0x2A3 JUMPI PUSH2 0x2A2 PUSH2 0x2B8 JUMP JUMPDEST JUMPDEST DUP3 DUP3 ADD SWAP1 POP SWAP3 SWAP2 POP POP JUMP JUMPDEST PUSH1 0x0 DUP2 SWAP1 POP SWAP2 SWAP1 POP JUMP JUMPDEST PUSH32 0x4E487B7100000000000000000000000000000000000000000000000000000000 PUSH1 0x0 MSTORE PUSH1 0x11 PUSH1 0x4 MSTORE PUSH1 0x24 PUSH1 0x0 REVERT JUMPDEST PUSH1 0x0 DUP1 REVERT JUMPDEST PUSH2 0x2F5 DUP2 PUSH2 0x2AE JUMP JUMPDEST DUP2 EQ PUSH2 0x300 JUMPI PUSH1 0x0 DUP1 REVERT JUMPDEST POP JUMP INVALID LOG2 PUSH5 0x6970667358 0x22 SLT KECCAK256 0xD 0xFC 0xCD CREATE2 0xE0 0x4D EXTCODEHASH 0xCF SWAP3 0x5C 0xAB SWAP10 0xD5 0x1F CREATE 0x5C CALLER SMOD 0xDA JUMPI COINBASE EXTCODEHASH SWAP12 0xEF SWAP6 0xD0 0x2F DUP12 0x4A 0xE0 0xB9 0xEE PUSH5 0x736F6C6343 STOP ADDMOD SMOD STOP CALLER "
		},
		"gasEstimates": {
			"creation": {
				"codeDepositCost": "165000",
				"executionCost": "49426",
				"totalCost": "214426"
			},
			"external": {
				"examples()": "infinite",
				"examples2()": "infinite",
				"externalFunc()": "329",
				"internalFunc()": "373",
				"publicFunc()": "351",
				"z()": "2517"
			}
		},
		"methodIdentifiers": {
			"examples()": "335d00c2",
			"examples2()": "c3be8e2c",
			"externalFunc()": "42b148aa",
			"internalFunc()": "95b9d3d9",
			"publicFunc()": "4b73383f",
			"z()": "c5d7802e"
		}
	},
	"abi": [
		{
			"inputs": [],
			"name": "examples",
			"outputs": [],
			"stateMutability": "view",
			"type": "function"
		},
		{
			"inputs": [],
			"name": "examples2",
			"outputs": [],
			"stateMutability": "view",
			"type": "function"
		},
		{
			"inputs": [],
			"name": "externalFunc",
			"outputs": [
				{
					"internalType": "uint256",
					"name": "",
					"type": "uint256"
				}
			],
			"stateMutability": "pure",
			"type": "function"
		},
		{
			"inputs": [],
			"name": "internalFunc",
			"outputs": [
				{
					"internalType": "uint256",
					"name": "",
					"type": "uint256"
				}
			],
			"stateMutability": "pure",
			"type": "function"
		},
		{
			"inputs": [],
			"name": "publicFunc",
			"outputs": [
				{
					"internalType": "uint256",
					"name": "",
					"type": "uint256"
				}
			],
			"stateMutability": "pure",
			"type": "function"
		},
		{
			"inputs": [],
			"name": "z",
			"outputs": [
				{
					"internalType": "uint256",
					"name": "",
					"type": "uint256"
				}
			],
			"stateMutability": "view",
			"type": "function"
		}
	]
}